:100000000C943F010C9477010C9477010C947701C8
:100010000C9477010C9477010C9477010C94770180
:100020000C9477010C9477010C944C190C94201AC1
:100030000C946C140C9477010C9477010C94770158
:100040000C9477010C9477010C9477010C94770150
:100050000C9477010C94F3140C9477010C947701B1
:100060000C9477010C9477010C9477010C94770130
:100070000C9477010C9477010C9477010C94770120
:100080000C9477010C9477010C9477010C94770110
:100090000C9477010C9477010C9477010C94770100
:1000A0000C9477010C9477010C94770129000000DF
:1000B0003A003B003C003D0000003E003F00400095
:1000C000410042004300440045004600470048000C
:1000D00035001E001F002000210022002300240004
:1000E0002500260027002D002E002A0000004900D0
:1000F0004A004B002B00000014001A0008001500F5
:1001000017001C0018000C00120013002F00300014
:1001100031004C004D004E00390000000400160074
:10012000070009000A000B000D000E000F0033004D
:100130003400280000000000000000000000E10082
:100140001D001B00060019000500110010003600FC
:10015000370038000000E5000000000052000000F9
:10016000E000E3000000E200000000002C000000BE
:1001700000000000E600E70000006500E400500019
:1001800051004F000A0345004B00380037000000C3
:10019000240345006E006900690067006D0061007E
:1001A00020004B006500790062006F006100720062
:1001B0006400730000000403090409023B0002010B
:1001C00000A0FA0904000001030101000921110146
:1001D0000001224400070581030800010904010011
:1001E000010300000009211101000122320007056E
:1001F000820320000112010002000000084B4501AB
:100200000001000102000105010980A10185031917
:10021000012AB700150126B700950175108100C0AD
:10022000050C0901A101850419012AA00215012666
:10023000A002950175108100C005010906A1010504
:100240000719E029E7150025019508750181029538
:1002500001750881010507190029FF150026FF0017
:100260009506750881000508190129051500250165
:10027000950575019102950175039101C000112446
:100280001FBECFEFDAE0DEBFCDBF04B603FE18C05D
:100290008091B0029091B102A091B202B091B302EC
:1002A0008730904BA740B04B59F41092B002109297
:1002B000B1021092B2021092B302E0E0F8E30995A5
:1002C00011E0A0E0B1E0EAE5F9E302C005900D928B
:1002D000AA39B107D9F722E0AAE9B1E001C01D921D
:1002E000A03BB207E1F70E9419110C946C1C0C940E
:1002F0000000811112C0663080F4423170F4E42FA6
:10030000F0E082E1689FE00DF11D1124EE0FFF1F68
:10031000E455FF4F85919491089581E090E0089510
:100320000E947901089581E008950E949301089543
:1003300081E008950E94930108950E949A01089512
:1003400008950E94A0010895A6E0B0E0EAEAF1E075
:100350000C94DC1B49835A839E833091A1018981CF
:100360009A8131111AC03E81332399F0222389F0FA
:100370000E949C07182F682F89819A810E94780714
:1003800069817A81812F0E949D0E2696E3E00C946C
:10039000F81B0E948A07182FF3CF0E949C076981DF
:1003A0007A81F1CFFC01262F4081518162817381D6
:1003B000848195810E94A4010895CF93DF93EC017D
:1003C00061E00E94D201BE010E949501DF91CF91B0
:1003D0000895CF93DF93EC0160E00E94D201BE014B
:1003E0000E94A101DF91CF91089521E030E0A901A1
:1003F00002C0440F551F8A95E2F7CA010E949A066F
:100400000895CF93C82F81E090E00C2E02C0880F92
:10041000991F0A94E2F70E94D80B8C2F0E94F501D5
:10042000CF91089581E008950E9412020895CF931C
:10043000C82F0E944D068C2F0E9414022FEF84E3D8
:100440009CE0215080409040E1F700C00000CF9137
:10045000089581E00E9417020E941715089580E018
:100460000E9417020E943B1508950F931F93CF938C
:10047000DF938C0161E00E94D201EC01B8010E947F
:100480009D01811106C080E0DF91CF911F910F91F6
:100490000895B801CE010E94BF128823A1F3B801CC
:1004A000CE010E947F11882371F3B801CE010E9412
:1004B0005511882341F3B801CE010E94A10F882372
:1004C00011F3F8018581882361F0C330FCE7DF0771
:1004D000E9F058F4C115ECE7DE07A9F0C130DC47BC
:1004E000B9F0C8010E949801CFCFCB358CE7D8076F
:1004F000A9F0CC35ECE7DE0771F0CA35DC4789F7A7
:100500000E94B30BEECF0E942902BDCF0E94BB0B0D
:100510000E942F02B8CF0E94A90BE3CF0E94B70B15
:10052000E0CF0E9446140E94B10208950E94B502D5
:100530000E944B14089581E008950895CF93DF93AE
:10054000D82F0E949B02C82F882319F08D2F0E945C
:100550009D028C2FDF91CF91089508950E949E02F5
:10056000089580E00E94AE0208950E9408130E9440
:10057000AE020895CF930E940813C82F80919C016A
:100580008C1779F0C0939C010E94D81460939D0150
:1005900070939E0180939F019093A0018C2F0E94E5
:1005A000AE02CF910895ADE0B0E0E9EDF2E00C9439
:1005B000DD1B488759876A877B878C879D879111C8
:1005C0000E94E90A1F8286E0FE013896DE0111963C
:1005D00001900D928A95E1F78D8181110DC02981DD
:1005E0003A814B815C816D817E818F810E94330ACB
:1005F0002D96E2E00C94F91BCE0101960E94DD01DC
:100600008111EDCFF5CFFC012481213021F48081CF
:1006100091810E94CE070895CF93C82F8823C9F0F7
:100620008238C9F40E94151381FD13C089E30E942A
:10063000BD130E94580B2FEF87EE93E021508040AE
:100640009040E1F700C0000089E30E94C5130E94BA
:10065000580BCF9108958338A1F40E94151380FDA3
:10066000F8CF83E50E94BD130E94580B2FEF81EE57
:1006700094E0215080409040E1F700C0000083E505
:10068000E4CF8438A1F40E94151382FDE2CF87E401
:100690000E94BD130E94580B2FEF81EE94E0215071
:1006A00080409040E1F700C0000087E4CECF8CEF9F
:1006B0008C0F813A70F48C2F0E948213882329F0CA
:1006C0008C2F0E94C5130E94580B8C2F0E94BD13C3
:1006D000BECF80E28C0F883048F4C77081E001C043
:1006E000880FCA95EAF70E94CC0AB1CFEBE5EC0F70
:1006F000E33040F4F0E0EA5BFE4F808190E00E943E
:100700002313A7CFC85ACB3108F0A3CFEC2FF0E0CA
:10071000EE0FFF1FE05FFE4F808191810E94481322
:1007200098CF882309F44DC0823879F40E941513BC
:1007300081FF47C089E30E94BD130E94580B89E3E3
:100740000E94C5130E94580B0895833859F40E94E3
:10075000151380FF36C083E50E94BD130E94580B1D
:1007600083E5EECF843859F40E94151382FF29C027
:1007700087E40E94BD130E94580B87E4E1CF9CEFF1
:10078000980F913AE8F290E2980F983050F4877001
:1007900091E001C0990F8A95EAF7892F0E94D20A49
:1007A000D1CF9BE5980F933028F490E080E00E9431
:1007B00023130895885A8B3120F490E080E00E9442
:1007C000481308951F93CF93DF93182FEB010E94D6
:1007D0000C03209739F4812F0E949103DF91CF9170
:1007E0001F9108958FE99FE00197F1F700C0000085
:1007F0002197EFCF70E060E0893311F460E570E09D
:100800000E94E2030895882321F00E94CC0A0E94EE
:10081000580B0895882321F00E94D20A0E94580B99
:100820000895B0E0A0E0E7E1F4E00C94D61B6C0181
:10083000D62FC72FFC011581068102950F700E94EB
:10084000C20AE82E8823F9F0E12E1123E1F08C2F63
:10085000807F803461F080E28D0F883008F18C2F2A
:10086000807E803221F4D230D8F00023C9F080910C
:100870006E0282FF15C082E00E947D0B0E94C20AB8
:1008800091E0E82EE926BC2EB2949FE0B922FBE06D
:10089000FB15B8F1EB2DF0E0E259F34E0C94C71BB9
:1008A000E12CF1CF0C2F0F70C07F11F00295007F6B
:1008B000112399F0002359F080E28D0F883010F059
:1008C000D11107C0802F0E94CC0A0E94580B8D2F97
:1008D0005AC0802F0E94DC0AF8CF8D2F0E9491030E
:1008E000002379F080E28D0F883010F0D11104C020
:1008F000802F0E94D20A03C0802F0E94E20A0E9429
:10090000580BEB2DE850FF0B349720F40E9408138E
:100910000E94AE02EE2089F00E94BE0A80FD0DC04A
:10092000F60115820E94B80A0E94D606C6010E94EE
:1009300018060E94B80A0E94E606CDB7DEB7E9E0C5
:100940000C94F21B2C2F2F70F22EC07FC03219F0A6
:10095000F29480EFF822DD2341F0D130D1F1112360
:1009600009F444C00023F1F0B2CF80916E0282FD01
:1009700015C0112359F0FF2029F08F2D0E94CC0AB9
:100980000E94580B80E00E940C03BBCF80E00E94C5
:100990009103FF2009F4B5CF8F2DABCF112369F060
:1009A000011104C08F2D0E940304ABCF013009F068
:1009B000A8CF8F2D0E94000BA4CF0111A2CF8F2DA5
:1009C0000E940A048F2D0E940C0B8F2D0E94F00AAA
:1009D00098CF112321F0063008F093CFE3CF0530F4
:1009E00008F08FCF8F2D0E940A048BCF0023D1F304
:1009F000D93349F43FEF87EE93E031508040904087
:100A0000E1F700C000008D2F0E9491037ACF8C2F58
:100A100086958695837069F0813009F072CF8D2FAD
:100A20009C2F9370111102C080E090E00E94481347
:100A300068CF8D2F9C2F9370111102C080E090E041
:100A40000E9423135ECF8C2F8370A1F5111159CF13
:100A50004D2F429546954770440F440F2D2F2F7010
:100A600030E0042E02C0220F331F0A94E2F790E018
:100A700080E0D4FF09C08FE090E002C0880F991F8A
:100A80004A95E2F780959095C695C695C370822BDE
:100A9000932BC23049F058F4C13019F00E94A606D9
:100AA00030CF0E949D062DCF0E94AF062ACF0E9414
:100AB0009A0627CF8695112311F08C2F81708823F9
:100AC00009F41FCF4D2F429546954770440F440FB0
:100AD0002D2F2F7030E0042E02C0220F331F0A94F6
:100AE000E2F790E080E0D4FF09C08FE090E002C020
:100AF000880F991F4A95E2F780959095C695C695FF
:100B0000C370822B932BC23049F058F4C13019F0D6
:100B10000E941107F6CE0E940807F3CE0E941A0722
:100B2000F0CE0E94BE06EDCECF70112329F08C2F9F
:100B30000E94D6068D2F37CF8D2F0E940A048C2F4E
:100B40000E94E606DECED23F41F160F4D03FB9F01C
:100B5000D13F81F0112309F443C00111B8CE8C2F8D
:100B60008F711FC0D33F01F1D43FA1F780916E0276
:100B700082FD24C08C2F8F71112311F312C0112319
:100B800041F0053008F0BDCE8C2F8F710E94F80621
:100B9000B8CE063008F0B5CEF7CF8C2F8F7111117B
:100BA000CFCF0E94D606ADCE112329F08C2F8F71A6
:100BB0000E94CA06A6CE0E94C506A3CE112331F01C
:100BC00063E08C2F8F710E945F0B9BCE81E00E94AF
:100BD0007D0B023008F495CE82E00E947D0B91CE11
:100BE000002359F0D93309F00ECFEFEFF7EE23E0F1
:100BF000E150F0402040E1F704CF8C2F8F71A0CF5F
:100C00000F931F93CF93DF93EC01688179818D81DE
:100C10000E94D9078C010E9423070E949906B801FF
:100C2000CE010E941104DF91CF911F910F91089581
:100C3000CF93DF93EC018C81882399F0CE010E9441
:100C40003502811111C00E94C20A882351F08D81A2
:100C5000882339F080916E0282FF03C082E00E94F7
:100C60007D0BDF91CF910895CE010E940006CE0149
:100C70000E94E901F6CF90E080E00E94231390E00B
:100C800080E00E9448130E94E90A0E94580B0895D0
:100C90000E94CD130E943B0608950E94D90A0E942B
:100CA0004806089592959F70963091F058F4925F9F
:100CB0009F70923058F4803F19F030F4883E30F441
:100CC00081E008959A5FF4CF843FD1F380E00895E6
:100CD000883EB0F3813FD1F7F3CFFC01248122237A
:100CE00039F0808191810E94CE070E9452060895BA
:100CF00080E00895A6E0B0E0E0E8F6E00C94DD1BAB
:100D00002696E2E00C94F91BA7E0B0E0EAE8F6E0F2
:100D10000C94DD1B2796E2E00C94F91B08950E94C9
:100D20008E0608950E948F069093DD018093DC016A
:100D3000089508950E94920608952091DC01309153
:100D4000DD01822B932B0E94920608952091DC01F5
:100D50003091DD01822393230E9492060895209111
:100D6000DC013091DD01822793270E9492060895CD
:100D70000E948E0608950E94B80608950E94BB0640
:100D80009093DB018093DA01089590E080E00E9467
:100D9000BE06089521E030E0A90102C0440F551FAE
:100DA0008A95E2F7CA010E94BE06089521E030E06C
:100DB00002C0220F331F8A95E2F78091DA019091E9
:100DC000DB01822B932B0E94BE06089521E030E0C8
:100DD00002C0220F331F8A95E2F72095309580914B
:100DE000DA019091DB01822393230E94BE060895CD
:100DF00021E030E002C0220F331F8A95E2F7809194
:100E0000DA019091DB01822793270E94BE060895A4
:100E10002091DA013091DB01822B932B0E94BE06D8
:100E200008952091DA013091DB01822393230E94FF
:100E3000BE0608952091DA013091DB0182279327C5
:100E40000E94BE0608950895262F277091E001C0E4
:100E5000990F2A95EAF723E0769567952A95E1F7A9
:100E6000660F771F660F771FFA01E60FF71F50E036
:100E700040E0682F70E08191DF0111979B01042E03
:100E800002C0369527950A94E2F72170219528270C
:100E9000292328272C934F5F5F4F4430510559F782
:100EA0000895A82FA77023E0969587952A95E1F7D6
:100EB000880F991F880F991FFB01E80FF91F50E059
:100EC00040E080E0219130E00A2E02C0369527955F
:100ED0000A94E2F721703327042E01C0220F0A94EE
:100EE000EAF7822B4F5F5F4F4430510559F7089561
:100EF000262F963070F4823160F4682F70E082E122
:100F0000989F600D711D112442EA51E0822F0E94CA
:100F100024070895292F963068F4823158F490E020
:100F200062EA71E032E1239F800D911D11240E943D
:100F30005107089580E00895B0E0A0E0E2EAF7E00C
:100F40000C94D61B7C010091DA011091DB01809199
:100F5000DC019091DD01082B192BCFE0D0E0CC24EF
:100F6000C394D12CBC2EC6010C2E02C0880F991F31
:100F70000A94E2F780239123892B49F4219790F773
:100F8000B12C8B2DCDB7DEB7E9E00C94F21BB70185
:100F90008C2F0E94A90E019789F3F3CFCF93DF9393
:100FA000EC010E949C07BE010E94A90EDF91CF9127
:100FB00008951F93CF93DF93EB019091A1019923A3
:100FC00039F0CB010E94CE07DF91CF911F91089598
:100FD000882369F0CB010E949C07182F682FCE014F
:100FE0000E947807BE01812F0E94A90EEDCFCB0190
:100FF0000E948A07182FF6CF1F93CF93DF93C091DB
:10100000DE0117E08091DF018C1304C0DF91CF91E6
:101010001F910895D0E01C9FF0011D9FF00D112439
:10102000E052FE4F2081318142815381648175817C
:1010300086810E9484062196C770E4CF2091180211
:101040003091190240911A0250911B0260911C02CA
:1010500070911D0280911E020E9484060895CF9314
:10106000DF9380911E02807F09F04DC080911D02A8
:10107000882309F448C0E091DE015091DF01C0915E
:101080001902D091180260911A0270911B0247E078
:101090005E17C9F18E2F90E0E49FF0011124E05219
:1010A000FE4F2481222391F1489FF001499FF00DCA
:1010B0001124DF01A052BE4F11962C9111972C13D1
:1010C00025C02C912D1322C015962C911597211116
:1010D0001DC012962D913C91261B370B283C3105E3
:1010E000A8F480911E028F70806180931E02EA51E5
:1010F000FE4F80818F708061808388E192E00E9442
:1011000018060E94FC07DF91CF910895FC013196EB
:10111000E770BECF482F2091DE019091DF0157E0AC
:10112000291302C080E0089530E0529FF001539FE0
:10113000F00D1124E052FE4F8181681306C08081BA
:10114000481303C085818111EECF2F5F3F4F277079
:10115000E7CFA4E1B0E0EFEAF8E00C94D31B8C01F8
:1011600086E0F801DE011F9601900D928A95E1F765
:10117000F8018481E58098E1A92E92E0B92E909142
:101180001C0291111FC08823D1F0EE20A9F0C801E4
:101190000E946D06F82E882379F087E0F801D501CA
:1011A00001900D928A95E1F7C5010E9403030E9408
:1011B0002F080E941E085FC0C8010E941806FF2465
:1011C000F39459C0C080D18082809380F0901D023A
:1011D00020911A0230911B02A401421B530BFF20E5
:1011E00009F4F9C0483C510508F0A7C0882309F468
:1011F00042C09091190280911E02282F207F09F091
:101200005CC09D1116C090911802C91212C0E11065
:101210004EC08F70806180931E020E941E0888E17C
:1012200092E00E94180680911E02F8018683F12C3C
:1012300022C0E1103CC06D2D8C2D0E948A086D2DBE
:101240008C2D0E948A08E82E8111F1CFCF86D88A92
:101250008F8598890E94CE07292F22952F702430E0
:1012600078F49F702230A8F09923B9F0F8019681A4
:10127000907F99F4FE2C8F2D6496ECE00C94EF1B7C
:101280002A5F2F70223068F0C8010E941806EF2CE8
:10129000F1CF992311F0882369F3805E883050F3F1
:1012A000F3CF803F38F3815F833070F7E3CF8091D5
:1012B0001E02816080931E02BACF9D1113C09091CF
:1012C0001802C9120FC0E1100DC08683C8010E9428
:1012D000180687E0F801A8E1B2E001900D928A9526
:1012E000E1F767CFC8010E946D06882309F464CF37
:1012F000EE2009F461CF80911E02803288F02091A7
:10130000180230911902398728879B868A86909126
:101310001C029C871D868E87CE0108960E941806A7
:1013200087E0F801A8E1B2E001900D928A95E1F71B
:101330000E942F080E941E0842CF90911E02292F62
:10134000207FA1F4682D9A8A898AA6017A899E2D28
:101350000E947A0688E192E00E94180687E0F50173
:1013600011928A95E9F70E941E0861CF882309F43B
:1013700082CF809119028D1110C080911802C8127D
:101380000CC0E1100AC09683C8010E94180687E0CD
:10139000F50111928A95E9F76ECFC8010E946D069A
:1013A000882309F409CFEE2009F406CF80911E02AC
:1013B000803208F4B5CF20911802309119023A8397
:1013C00029839C828B8290911C029D831E828F8335
:1013D000CE010196A3CF483C5105B8F5882309F406
:1013E000EECEFE2CEE2009F4E7CE809119028D118D
:1013F0001EC080911802C8121AC080911E0280FD82
:101400000DC0982F907F51F08683903F09F45ECFF6
:10141000982F907F905F8F70892B57CF87E0F801CE
:10142000A8E1B2E001900D928A95E1F724CFC801BE
:101430000E946D06811174CF80911E02816080939D
:101440001E02C8010E94180616CF682D9A8A898A42
:10145000A6017A899E2D0E947A0687E0F5011192F5
:101460008A95E9F7A6CEAEE0B0E0E9E3FAE00C94A5
:10147000DC1B288739874A875B876C877D878E8747
:10148000CE0108960E94A9088823B1F06C856623D6
:1014900041F0288539854A855B857D858E850E944A
:1014A000840617E08091DE019091DF0189133DC031
:1014B0002E96E3E00C94F81B87E0FE013896DE01DF
:1014C000119601900D928A95E1F78C85882349F356
:1014D0002091DF0130E0C901019687709927409182
:1014E000DE014817190699F097E0929FD001939F6B
:1014F000B00D1124A052BE4FFE01319601900D9205
:101500009A95E1F78093DF010E94FC07CACF0E9401
:101510004D061092DF011092DE0187E0E8E1F2E073
:10152000DF011D928A95E9F7BCCF819FC00111248C
:1015300080529E4F0E94A908882309F4B9CFE091F8
:10154000DE011E9FF0011124E052FE4F2081318107
:10155000428153816481758186810E9484068091D5
:10156000DE0190E00196877099278093DE019ACF83
:101570008091270286958695869508958091270209
:101580008770089590912702977081E009F480E0B8
:10159000089580913302089590913302892B8093AE
:1015A00033020895809590913302982390933302EB
:1015B000089510923302089590913202892B8093FE
:1015C00032020895809590913202982390933202CE
:1015D000089510923202089508950E94EC0A089529
:1015E00090912802292F282331F080958923809318
:1015F00028020E94ED0A089508950E94FC0A0895A9
:1016000090912902292F2823281729F0982B9093AD
:1016100029020E94FD0A089590912902292F28236A
:1016200031F080958923809329020E94FD0A089554
:1016300080912902882329F01092290280E00E94DB
:10164000FD0A08950F931F93CF93DF93009100013C
:1016500010910101C091330280913202C82B809118
:101660002902882331F0C82B0E946D1381110E943A
:10167000180BF801C083C0910001D091010148E02E
:1016800050E06FE172E0CE010E94041C892B59F0FA
:1016900088E0FE01AFE1B2E001900D928A95E1F79A
:1016A000CE010E941813DF91CF911F910F910895E1
:1016B0000E94220B089508950E945B0B089590915B
:1016C0006E0292FF11C098E0899F90011124622B55
:1016D000609327020E94D606809127028695869500
:1016E00086950E945C0B08950E94D606089510927C
:1016F000270280E00E945C0B08959091270280955C
:10170000892380932702282F277069F4891759F0BD
:1017100090916E0292FF07C08695869586950E94ED
:10172000E6060E94770B089590916E0292FB2227A5
:1017300020F9281769F080FB92F990936E0280914E
:101740006D0290916E020E94E30B82E00E947D0B7D
:10175000089580916E0282FB882780F991E08927A5
:101760000E94940B089581E00E94940B089580E0FC
:101770000E94940B08956FEF7FEF90E080E00E944D
:10178000561C089590E080E00E94221C21E0853ED6
:101790009E4F09F020E0822F089582E090E00E94A1
:1017A0001A1C089583E090E00E941A1C90E00895AE
:1017B000682F83E090E00E94381C089584E090E058
:1017C0000E94221C0895BC0184E090E00E94561CF7
:1017D0000895AB01BC018FE090E00E944A1C08957F
:1017E000AB01BC0183E190E00E944A1C089560E0D7
:1017F00070E0CB010E94F00B089560E070E0CB0137
:101800000E94E90B0E94F70B0895A8E0B0E0EBE01E
:10181000FCE00C94DD1B65EE7EEF90E080E00E9422
:10182000561C60E082E090E00E94381C81E090E06D
:101830009093DD018093DC010E94D80B60E074E19D
:1018400084E090E00E94561C60E086E090E00E94F8
:10185000381C60E087E090E00E94381C40E050E0D7
:10186000BA0188E090E00E944A1C60E083E290E0C8
:101870000E94381C60E08CE090E00E94381C60E020
:101880008DE090E00E94381C19821A821B821C8213
:101890001D821E821F82188648E050E067E170E0DA
:1018A000CE0101960E94281C40E050E0BA018FE171
:1018B00090E00E944A1C0E94FD0B2896E2E00C94E6
:1018C000F91B0E94050C0895682F8EE090E00E949D
:1018D000381C0895A6E0B0E0E0E7FCE00C94DB1BC8
:1018E0000E94CC148C0180913402909135028017B3
:1018F000910781F019821A820E94CC14682F4981C5
:101900005A81792F80E090E00E94D3021093350233
:10191000009334022696E4E00C94F71B0E94D8143E
:101920006093520270935302809354029093550235
:1019300060934E0270934F02809350029093510235
:101940000895089508950E94A10C089508950E9495
:10195000A60C08958FE99FE00E942E110E94A20C10
:101960000E94A30C089581E008950E94B30C08958D
:101970000E94B30C0895089508950E94BB0C0E9424
:10198000BC0C08950E94C20B811102C00E94610C20
:101990000E94CD0B809356020E94DE0B90936E0244
:1019A00080936D020E9452110E94D20B0E949A06EF
:1019B0008091DA019091DB010E94BB0608950E949C
:1019C000C3140E9488100E94C20C0E94AD020E94A3
:1019D000A70C0895A8E0B0E0E0EFFCE00C94CD1B6C
:1019E0000E94B50C811108C00E946A0C0E94BA02C4
:1019F0002896E2E10C94E91B0E949E1086E392E097
:101A000098878F837C0110E0F7014190519061909D
:101A100071907F01812F0E94BB0F1F5F163009F468
:101A200067C0461657066806790671F3809156021C
:101A300081FD0E94C60F0E94B80C282E10E03324AE
:101A40003394812F0E94BB0F6B017C01EF81F885DD
:101A50004190519061907190F887EF83C414D50440
:101A6000E604F704F1F100E0812C912C54018394F9
:101A70004C245D246E247F24D301C2018821992146
:101A8000AA21BB21892B8A2B8B2BE9F02220D9F0AC
:101A900009831A830E94CC149C838B833D8221E0AE
:101AA000D701C60188219921AA21BB21892B8A2B24
:101AB0008B2B09F420E049815A816B817C818D81D7
:101AC000922F0E94D3020F5F880C991CAA1CBB1C8A
:101AD000023191F6EF81F8853497C082D182E2829B
:101AE000F3821F5F163009F0ACCF0E948E0C7ECFC0
:101AF000461657066806790609F098CF75CF1F93EA
:101B0000CF93DF930E94AE0EEC01C11580E5D8079C
:101B1000F0F5C11580E4D80708F09CC0C03ED1059F
:101B200020F5CD3CD10508F082C0C83AD10578F443
:101B3000C53AD10508F073C0C130D10519F120971D
:101B400009F1C430D105F0F4D0E0C0E01BC0C33CC3
:101B5000D105D0F7C85AD0E0CC0FDD1FC75BDE4FF0
:101B60000990D881C02DD4640DC0C11580E2D8077A
:101B700008F0D1C0C11581E0D80708F05AC0C83EAE
:101B8000D10510F7CE01DF91CF911F910895C03696
:101B900082E5D80718F5C03482E5D80708F06BC095
:101BA000C03282E5D80708F05FC0C11582E5D807CA
:101BB00008F497C02C2F2695269580E2289F900147
:101BC00011248C2F8370C1E0D0E002C0CC0FDD1F48
:101BD0008A95E2F7C22BD32BDD68D4CFC03A82E5D9
:101BE000D80760F4C03882E5D80708F459C0CF712F
:101BF000D0E0DC2FCC27C46FD06AC4CFC03C82E5D4
:101C0000D80708F462C0C03E82E5D80708F09CCF30
:101C1000DC2FCC27CC27DF71C06FD06AB3CFC55A79
:101C2000D0E0C158DE4FC881D0E0D064ABCFD065E2
:101C3000A9CF8D2F0E94500F182FCE0199270E94F7
:101C4000AE0EC12FD0E0DC2FCC27CC27DF71C82B04
:101C5000D92B98CFCE0199270E94AE0ECC27DF70EA
:101C6000C82BD92BD06A8ECFCF71D0E0DC2FCC27F8
:101C7000C16FD06A87CF2C2F26952695277080E2DA
:101C8000289F900111248C2F8370C1E0D0E002C006
:101C9000CC0FDD1F8A95E2F7C22BD32BDC6872CF05
:101CA0002C2F26952695277080E2289F90011124DD
:101CB0008C2F8370C1E0D0E002C0CC0FDD1F8A956D
:101CC000E2F7C22BD32BDA685DCF8C2F8F710E9485
:101CD000500FC82FD0E0DC2FCC27CC27DF71D0628B
:101CE00051CF8C2F8F710E94500F55E0D695C7951C
:101CF0005A95E1F7CF70D0E0DC2FCC27282F30E0C9
:101D000084FF05C044E0220F331F4A95E1F7C22B40
:101D1000D32BD06937CF8D2F8F710E94500F182F82
:101D2000CE0199270E94AE0EC12FD0E0DC2FCC2728
:101D3000CC27DF71C82BD92BD2CF462F763030F489
:101D4000623120F4672F0E949001089590E080E0B6
:101D500008950E949D0E0E947F0D0895823891057E
:101D6000B9F1B0F48133910509F47DC048F48932AA
:101D7000910509F46DC08A32910509F47BC008957C
:101D80008533910509F45FC08933910509F1089500
:101D9000833E9105D9F138F4803E910529F1823EC8
:101DA000910579F10895863E9105D9F1873E910517
:101DB00009F43EC0843E910541F520916E0221FF59
:101DC00024C080916D0284FD19C087EE90E00895D3
:101DD00020916D02237009F05AC020916E0223FFFA
:101DE00014C089E290E0089520916D0220FD38C072
:101DF00030916E0230FF09C024FF43C090E080E0C4
:101E0000089520916D0222FDF7CF089520916D0273
:101E100022FD3AC030916E0230FD39C024FFF5CF6B
:101E2000EDCF20916D0223FFF0CF24FDE7CFCDCF82
:101E300020916D0223FD2EC030916E0231FFEECF56
:101E400084EE90E0089520916D0225FFDECFC9CF8A
:101E500020916D0225FD21C020916E0223FFD5CF78
:101E600089E390E0D2CF20916D0226FFCECF8AE2A7
:101E700090E0089520916D0226FFC7CF81E390E0A6
:101E8000089583EE90E0089582EE90E0089580EE4C
:101E900090E0089586EE90E0089585E390E008953F
:101EA00090916D0292FF10C041E0282F24712430E0
:101EB00009F040E031E0282F2871283009F030E0A7
:101EC000431711F02CE0822793FF10C041E0282F28
:101ED0002471243109F040E031E0282F28712831A5
:101EE00009F030E0431711F02CE0822730916E02A8
:101EF00030FF10C051E0282F2171213009F050E04F
:101F000041E0282F2871283009F040E0541711F0E3
:101F100029E0822731FF10C041E0282F21712131B3
:101F200009F040E031E0282F2871283109F030E035
:101F3000431711F029E0822794FD877E089580E001
:101F40000895CF939C01205E3245C1E020323105D7
:101F500038F4FB01C581C11103C08F710E940102D9
:101F60008C2FCF91089508950E94B30F089508957E
:101F70000E94B70F089594E0899FF0011124E9575A
:101F8000FD4F60817181828193810895089580EA77
:101F90008A95F1F7089500C008950E94C70F08952B
:101FA000F894E82FE295EF70F0E031A1282F2F7020
:101FB00081E090E001C0880F2A95EAF7982F90956C
:101FC000932391A392A1892B82A3789408950F93D0
:101FD0001F93CF93DF93C4E9D1E089918F3F11F034
:101FE0000E94D00F81E0CA39D807B9F7C2E8D1E022
:101FF00004E911E089918F3F11F00E94D00F0C1776
:102000001D07C1F7DF91CF911F910F9108958F9216
:102010009F92AF92BF92DF92EF92FF920F931F9326
:10202000CF93DF938C01D62EC62FD0E0CE018C56F5
:102030009E4F7C01FC0120812F3F09F45DC0F89484
:10204000E22FE295EF70F0E031A12F7081E090E097
:1020500001C0880F2A95EAF7932F982B91A392A19C
:102060008095892382A378940E94CB0FE2E8F1E067
:1020700041E050E060E070E0812C912C54018191AE
:102080008F3F89F0A82FA295AF70B0E090962C9169
:1020900030E08F7002C0359527958A95E2F7DB0115
:1020A000CA0120FF03C080E090E0DC01882A992A61
:1020B000AA2ABB2A440F551F661F771F81E0E43907
:1020C000F807E9F6F70180818F3F11F00E94D00FE9
:1020D00061E081149104A104B10409F460E08D2D44
:1020E0000E94CD0FCC0FDD1FCC0FDD1FC00FD11F05
:1020F00088829982AA82BB82DF91CF911F910F9132
:10210000FF90EF90DF90BF90AF909F908F900895D9
:102110000E94E70F88E1E7E8F2E0DF01982F1D92C7
:102120009A95E9F7EFE6F2E0DF011D928A95E9F76B
:1021300086E00E94D9100E94B40F0895A8E1B0E093
:10214000E4EAF0E10C94DA1B8E010F5F1F4F88E187
:10215000F80111928A95E9F7F12C6F2DC8010E94C0
:102160000710F394F6E0FF12F8CF48E150E0B80111
:102170008FE692E00E94041C21E0009709F420E021
:10218000892B41F088E1F801AFE6B2E001900D92B1
:102190008A95E1F746E067E872E08FE692E00E94F8
:1021A000DA10182F0E94B80F812F6896E5E00C9482
:1021B000F61B0895B0E0A0E0E0EEF0E10C94D71B30
:1021C0006C017B01042FC22F222379F081E08093E0
:1021D00059020E94CC14909358028093570280E0D9
:1021E000CDB7DEB7E8E00C94F31BD0915902DD23A4
:1021F000B1F380915702909158020E94E414059720
:1022000070F384E0089F80011124A801B601C70182
:102210000E94041C892B31F0A801B601C7010E945D
:10222000111CCD2F109259028C2FDACF0E94EA0C8C
:1022300008950E9465140E9483160E94AA0C0E94B1
:102240009D160E94DF0C0E94AA160E94AF160E94E3
:1022500016110E94C9160E94BD0CF7CF90939B01E6
:1022600080939A0108950E94BB0B089580E00E941C
:10227000BB0F862F817008950E949E102FEF86E776
:1022800091E0215080409040E1F700C000000E94A2
:102290009E100E943611882321F00E9433110E9463
:1022A000171508950E943C110895CF93DF93EB0119
:1022B00086319C4711F50E94C90A9D81992399F0A6
:1022C0008A7A91E009F490E090935A02811109C052
:1022D00089E20E94BD130E94580B80E0DF91CF91EC
:1022E000089585E3F6CF80915A02811104C089E2F6
:1022F0000E94C513F0CF85E3FBCF81E0EFCFCF93F2
:10230000DF93EC01FB018581882309F4D2C09E0193
:1023100030572332310508F0B2C00E94DE0B909393
:102320006E0280936D02FE01E150F047E232F1054A
:1023300020F4E658F34E0C94C71B80916D02816027
:1023400080936D0293C080916E02886080936E02CC
:102350008DC080916D028260F3CF80916D028460A8
:10236000EFCF80916D028860EBCF80916E0281602B
:10237000EDCF80916E028260E9CF80916D02806125
:10238000DFCF80916D028062DBCF80916D0280642F
:10239000D7CF0E944D0680916D028068D1CF809189
:1023A0006D028C60CDCF80916E028360CFCF809123
:1023B0006D028E7FC5CF80916E02877FC7CF8091DF
:1023C0006D028D7FBDCF80916D028B7FB9CF8091E3
:1023D0006D02877FB5CF80916E028E7FB7CF8091DF
:1023E0006E028D7FB3CF80916D028F7EA9CF8091D9
:1023F0006D028F7DA5CF80916D028F7BA1CF0E9452
:102400004D0680916D028F779BCF80916D02837F07
:1024100097CF80916E028C7F99CF80916D0282FB65
:10242000992790F921E0922790FB82F990FB83F99C
:1024300087CF80916E02982F909591708E7F892B17
:1024400090FB81F983CF90916D02892F8F7B96FF4E
:10245000806476CF0E944D0690916D02892F97FB84
:1024600087F980586DCF81E00E94640C80916D02E5
:1024700090916E020E94E30B0E944D0680E0DF9176
:10248000CF91089580E0F0CF90916D02892F8F7EDB
:1024900094FF806155CF90916D02892F8E7F90FFC0
:1024A00081604ECF90916E02892F877F93FF886065
:1024B0004DCF81E0E4CF0F931F93CF93DF93C42FD1
:1024C000D22FFC0185818823C9F040935D020E94D0
:1024D000CC1490935C0280935B0280E28C0F883076
:1024E00040F4C77081E001C0880FCA95EAF70E94E6
:1024F0000304DF91CF911F910F91089510915D0218
:10250000141332C080915B0290915C020E94E4142B
:10251000883C910548F5C0E2CD0F1D17B9F080E267
:10252000810F883040F4177081E001C0880F1A9540
:10253000EAF70E940A04C83048F481E09D2F9770A2
:1025400001C0880F9A95EAF70E940304802F0E9429
:10255000FA03C83070F6D77081E001C0880FDA95B1
:10256000EAF70E940A04C5CF80E28C0F883008F693
:10257000C77081E001C0880FCA95EAF7F2CF0F93C8
:10258000DB0188519C4787309105A0F5FC01E4569A
:10259000F34E0C94C71B06E221EE41EE6AE17CE7A4
:1025A000CD010E945B1280E00F91089507E225EEB5
:1025B00045EE6BE17CE7F4CF06E221EE40EE68E108
:1025C0007CE7EECF07E225EE44EE69E17CE7E8CF59
:1025D00006E221EE42EE6CE17CE7E2CF07E225EE77
:1025E00046EE6DE17CE7DCCF08E221E045EE6EE1EE
:1025F0007CE7D6CF15968C91882319F010925D0256
:10260000D3CF81E0D1CF909363028093620208958B
:10261000E0916202F0916302309729F00190F0811D
:10262000E02D0995089580E008950E94081308950B
:10263000E0916202F0916302309721F00280F38111
:10264000E02D09950895A3E0B0E0E9E2F3E10C94F0
:10265000DD1B209160023091610228173907A1F03B
:102660009093610280936002E0916202F0916302B4
:10267000309751F023E029839B838A830084F1857E
:10268000E02DCE01019609952396E2E00C94F91B0A
:10269000A3E0B0E0EEE4F3E10C94DD1B20915E02D8
:1026A00030915F0228173907A1F090935F02809361
:1026B0005E02E0916202F0916302309751F024E0F3
:1026C00029839B838A830084F185E02DCE010196C6
:1026D00009952396E2E00C94F91B4091000150917A
:1026E00001019A012E5F3F4F485F5F4F80E0241742
:1026F000350709F40895F90191919F019923B9F3E0
:102700008F5FF5CF882371F0209100013091010196
:10271000F9013296285F3F4F9191981729F0E217FF
:10272000F307D1F780E0089581E008959C01FC0152
:1027300032969FEF80E04191461751F09F3F19F488
:10274000411101C0982F8F5F8630A9F79F3F09F490
:102750000895290F311D97FD3A95F9016283089577
:10276000FC01329608962191261303C0DF011197D0
:102770001C92E817F907B9F70895682F80910001B6
:10278000909101010E9496130895682F8091000195
:10279000909101010E94B0130895E0910001F09121
:1027A0000101329686E0DF011D928A95E9F70895CE
:1027B00008950E94D813089581110EC081E080937E
:1027C00005016091020170910301809104019091D3
:1027D00005010E94D913089582E0F1CF83E0809330
:1027E00005016091020170910301809104019091B3
:1027F00005010E94D91308950E94DC13089581E019
:1028000080930501609102017091030180910401A0
:10281000909105010E94D91308950E94FF13089515
:1028200091E0811101C090E0909304016091020158
:102830007091030180910401909105010E94D913C8
:10284000089580910401089580930301609102012D
:102850007091030180910401909105010E94D913A8
:10286000089580910301089580930201609102010F
:102870007091030180910401909105010E94D91388
:102880000895809102010895089508950E944514C5
:102890000895089508950E9444140895CF930E94C6
:1028A00049140E949E100E944A14C0E08C2F0E947E
:1028B000BB0F672B682B692B31F4CF5FC630B1F7A4
:1028C00080E0CF91089581E0FCCF85B7806885BF17
:1028D00085B7806885BF08951F921FB61F92112487
:1028E0008F939F93AF93BF9380916402811113C024
:1028F00080919F029091A002A091A102B091A202AA
:102900004196A11DB11D80939F029093A002A093B8
:10291000A102B093A202BF91AF919F918F911F909E
:102920001FBE1F9018958091A702843031F10E943C
:1029300091021092640288E190E020E40FB6F894CE
:10294000A895809360000FBE2093600083B7817FBD
:10295000846083BF83B7816083BF7894889583B791
:102960008E7F83BF0FB6F894A89580916000886130
:1029700080936000109260000FBE08950E944D0683
:102980000E949602089582E084BD93E095BD9AEF7F
:1029900097BD80936E0008952FB7F89480919F02A1
:1029A0009091A002A091A102B091A2022FBF089520
:1029B0002FB7F89460919F027091A0028091A102BC
:1029C0009091A2022FBF08959C014FB7F894809177
:1029D0009F029091A002A091A102B091A2024FBFCC
:1029E000821B930B089578941F921FB61F92112497
:1029F0008F939F93AF93BF9380919F029091A0027A
:102A0000A091A102B091A2020196A11DB11D8093D7
:102A10009F029093A002A093A102B093A202BF9143
:102A2000AF919F918F911F901FBE1F90189581E0CD
:102A30008093E00080E28093D8001092C9008FE17B
:102A40009EE40197F1F700C0000087E090EBDC0105
:102A50008093B0029093B102A093B202B093B302FC
:102A600088E19CE00FB6F894A895809360000FBEB3
:102A700090936000FFCF88E19CE00FB6F894A89592
:102A8000809360000FBE90936000FFCF089508957B
:102A90009B01BA019091A7029430E9F48F70809362
:102AA000E9009FEF8091E800915085FD06C085ED1B
:102AB0008A95F1F700009111F5CF8091E80085FF2C
:102AC0000AC050E040E0C9010E9440178091E80030
:102AD0008E778093E800089543E050E0BC0182E0E7
:102AE0000E9448150895CF93DF93EC010E942114B2
:102AF00048E050E0BE0181E00E94481588E0FE01F8
:102B0000A5E6B2E001900D928A95E1F7DF91CF91B1
:102B100008958091A602811109C00E94D0180E94D8
:102B20002D198091E20084608093E2000895109254
:102B3000A60208950E94FF1381E00E9410140895D8
:102B40006091A30281E0611101C080E00E94EE1358
:102B500008959091A70281E0943009F080E060919F
:102B6000A3020E94FC13089542E061EC81E00E9400
:102B70004C1842E261EC82E00E944C189091A7024E
:102B800081E0943009F080E06091A3020E94DC13A0
:102B900008958091A902833009F461C030F4813036
:102BA000D1F1823009F49EC008958A3009F48AC0B8
:102BB0008B3009F46FC0893009F050C08091A802B1
:102BC000813209F04BC08091AC029091AD02029726
:102BD00008F044C08091E800877F8093E8008091EE
:102BE000E80082FF37C09091F3008091F2000297D5
:102BF00031F48091F100813011F0863021F4809120
:102C0000F1000E9424148091E8008B778093E80003
:102C10000E94801823C08091A802813AF9F4809123
:102C2000E800877F8093E8008091AC029091AD022C
:102C3000892B61F468E085E692E070E00E948F17CE
:102C40008091E8008B778093E800089560E090E041
:102C500080E0F3CF8091A7028111C1CF08958091C8
:102C6000A802813AD9F78091AC029091AD02892BEC
:102C7000A9F78091E800877F8093E8008091E800C1
:102C800080FFFCCF0E9421148093F1008091E80026
:102C90008E77BCCF8091A802813201F78091AC027F
:102CA0009091AD02892BD1F68091E800877F8093C7
:102CB000E8000E9480188091AA020E9410140E94CD
:102CC0004D0608958091A802813241F68091E80076
:102CD000877F8093E8000E9480188091AB020E9459
:102CE000341408958091A802813A09F0B7CF8091F9
:102CF000E800877F8093E8008091E80080FFFCCFA8
:102D00000E944114C1CF84B7877F84BF0FB6F89467
:102D1000A8958091600088618093600010926000A7
:102D20000FBE80E890E00FB6F89480936100909316
:102D300061000FBE0E940D1408950E94D0180E94D9
:102D40002D19E2EEF0E080818460808378940E9407
:102D5000AC1B089586E091E00E94031308958091D2
:102D6000A702853031F48091A702853019F00E94C6
:102D7000BE1408950E9493140E944E14882399F360
:102D80008091A502882379F30E942A170E944D069C
:102D9000EACF08959A014091AE025091AF020E948D
:102DA000D2160895492F55274330510519F168F47B
:102DB0004130510509F444C04230510509F445C081
:102DC00090E080E050E040E025C04132510549F1FB
:102DD00042325105A9F784E490E049E352E06115DD
:102DE0007105C1F082E390E047E052E06130710587
:102DF00089F0E6CF99278130910581F0009729F07D
:102E00000297F1F6E4E8F1E002C0E6EBF1E084912C
:102E100090E0AF01F901518340830895E0E9F1E0CA
:102E2000F6CF89E090E04CEC51E06115710591F32B
:102E300089E090E045EE51E06130710559F3C0CF73
:102E400082E190E045EF51E0E5CF8BE390E04AEB83
:102E500051E0E0CF80E189BD82E189BD09B400FE87
:102E6000FDCF8091D8008F7D8093D8008091E000C5
:102E700082608093E0008091E00081FDFCCF0895A6
:102E8000AF92BF92CF92DF92FF920F931F93CF9397
:102E9000DF936C01EB018A010E949F18F82E8111CB
:102EA00023C00115110539F0F80180819181C81BFB
:102EB000D90BC80ED91EB12CA12C2097A9F0809156
:102EC000E80085FD22C08091E8008E778093E800BD
:102ED00001151105A1F0F80180819181A80EB91E9C
:102EE000B182A08285E0F82E8F2DDF91CF911F91C6
:102EF0000F91FF90DF90CF90BF90AF9008950E9408
:102F00009F188823D1F2F82EEFCFF60181916F013F
:102F10008093F1002197FFEFAF1ABF0ACECFFC01DB
:102F20008091AE029091AF0286179707A0F06115CD
:102F3000710529F49091E8009E779093E80090E065
:102F40006115710551F4911108C08091E80082FF6C
:102F500034C080E00895BC01F2CF8091A70288239D
:102F6000C1F18530C1F18091E80083FD30C08091CE
:102F7000E80082FDEACF8091E80080FFE1CF8091F8
:102F8000F3002091F200382F6115710519F02830F7
:102F9000310558F091E02830310509F090E020919A
:102FA000E8002E772093E800CBCF81918093F10049
:102FB000615071092F5F3F4FE7CF8091A7028823AF
:102FC00041F0853041F08091E80083FFBECF81E081
:102FD000089582E0089583E00895FC018091AE0297
:102FE0009091AF0286179707A0F06115710529F43B
:102FF0008091E8008E778093E80090E0611571057C
:1030000051F4911108C08091E80082FF35C080E042
:103010000895BC01F2CF8091A7028823C9F18530C1
:10302000C9F18091E80083FD31C08091E80082FD04
:10303000EACF8091E80080FFE1CF8091F3002091FA
:10304000F200382F6115710519F02830310558F05C
:1030500091E02830310509F090E08091E8008E770A
:103060008093E800CBCF84918093F100319661503A
:1030700071092F5F3F4FE6CF8091A702882341F06F
:10308000853041F08091E80083FFBDCF81E0089555
:1030900082E0089583E00895982F973028F08F708C
:1030A0008093E90081E008959093E900242F762F22
:1030B00050E0981731F07091EC002091ED005091A4
:1030C000F00021FD02C09F5FE8CF3091EB003E7F12
:1030D0003093EB003091ED003D7F3093ED00309167
:1030E000EB0031603093EB007093EC002093ED0027
:1030F0005093F0002091EE0027FDE5CF80E0089589
:103100008091A80287FF13C08091E80082FF06C06B
:103110008091E8008B778093E80004C08091A7023B
:103120008111F2CF08958091A7028823D9F380916D
:10313000E80080FFF8CF8091E8008E77ECCF2091F7
:10314000E4003091E50095E6A9012091EC00822F82
:10315000817020FF06C08091E80080FF06C080E0FB
:1031600008952091E80022FD1AC08091A7028823CB
:1031700089F0853089F08091EB0085FD0FC02091AA
:10318000E4003091E50042175307F9F29150E1F65F
:1031900084E0089582E0089583E0089581E0089531
:1031A0000E943F190E944719E0EEF0E080818160A3
:1031B0008083E8EDF0E080818F77808319BCA7EDF4
:1031C000B0E08C918E7F8C9380818F7E8083109273
:1031D000A60208950F931F93CF93DF930E943F1988
:1031E0000E944719C8EDD0E088818F778883888155
:1031F0008068888388818F7D888319BC1092A7029C
:103200001092A3021092A5021092A40200EE10E008
:10321000F80180818B7F808388818160888342E090
:1032200060E080E00E944C18E1EEF0E080818E7F4B
:103230008083E2EEF0E0808181608083808188601D
:103240008083F80180818E7F80838881806188837C
:10325000DF91CF911F910F910895E8EDF0E080810B
:103260008F7E8083E7EDF0E080818160808384E061
:1032700082BF81E08093A6020E94EA180895E8EDDB
:10328000F0E080818E7F80831092E200089510929A
:10329000DA001092E10008951F920F920FB60F927C
:1032A00011242F933F934F935F936F937F938F934B
:1032B0009F93AF93BF93EF93FF938091E10082FFC1
:1032C0000BC08091E20082FF07C08091E1008B7FFC
:1032D0008093E1000E94AB1B8091DA0080FF19C04F
:1032E0008091D80080FF15C08091DA008E7F809396
:1032F000DA008091D90080FF96C080E189BD82E12B
:1033000089BD09B400FEFDCF81E08093A7020E9431
:1033100089158091E10080FF19C08091E20080FF53
:1033200015C08091E2008E7F8093E2008091E200E0
:1033300080618093E2008091D80080628093D80001
:1033400019BC85E08093A7020E94A0158091E1003E
:1033500084FF2BC08091E20084FF27C080E189BDFB
:1033600082E189BD89B5982F917080FFFBCF809154
:10337000D8008F7D8093D8008091E1008F7E80936C
:10338000E1008091E2008F7E8093E2008091E20074
:1033900081608093E2008091A302882309F449C0F0
:1033A00084E08093A7020E94A9158091E10083FF29
:1033B00029C08091E20083FF25C08091E100877FD2
:1033C0008093E10082E08093A7021092A302809193
:1033D000E1008E7F8093E1008091E2008E7F8093F8
:1033E000E2008091E20080618093E20042E060E0D0
:1033F00080E00E944C188091F00088608093F0007B
:103400000E949A15FF91EF91BF91AF919F918F917B
:103410007F916F915F914F913F912F910F900FBED0
:103420000F901F90189519BC1092A7020E94971533
:1034300070CF8091E30087FD93E09093A702B3CF14
:103440001F920F920FB60F9211242F933F934F9319
:103450005F936F937F938F939F93AF93BF93CF931C
:10346000DF93EF93FF93D091E900DF708091EC0040
:10347000C82FC17080FDC0E81092E9008091F00073
:10348000877F8093F00078940E94641A1092E9007C
:103490008091F00088608093F000CD2BCF70C093B6
:1034A000E900FF91EF91DF91CF91BF91AF919F9193
:1034B0008F917F916F915F914F913F912F910F90DD
:1034C0000FBE0F901F901895AAE2B0E0EAE6FAE16D
:1034D0000C94DC1B88EA92E02091F100FC0121931E
:1034E000CF01F2E0803B9F07B9F70E94C915809198
:1034F000E80083FF1EC18091A8029091A9029A3032
:1035000008F017C1E92FF0E0ED55F34E0C94C71BFE
:10351000803899F0823809F00CC18091AC028F702C
:10352000873008F006C18093E9008091EB0085FBAD
:10353000882780F91092E90006C08091A40290913A
:10354000A502911182609091E800977F9093E80026
:103550008093F1001092F1008091E8008E77E5C031
:10356000882309F4D3C0823009F0E3C08091AA0215
:103570008111D6C08091AC028F702FEF280F2630BA
:1035800008F0D7C08093E9002091EB0020FFC8C06D
:10359000933031F48091EB0080628093EB00C0C0E7
:1035A0009091EB0090619093EB0021E030E001C03E
:1035B000220F8A95EAF72093EA001092EA008091A0
:1035C000EB008860EACF8111B4C01091AA021F7786
:1035D0008091E3008078812B8093E3008091E80064
:1035E000877F8093E8000E9480188091E80080FF28
:1035F000FCCF8091E30080688093E30082E01111AA
:1036000083E08093A70295C08058823008F091C073
:103610008091AA029091AB028C3D23E09207A1F524
:1036200083E08A838AE289834FB7F894DE01139698
:1036300020E03EE051E2E32FF0E050935700E491A8
:1036400020FF03C0E295EF703F5FEF708E2F90E098
:10365000EA30C0F0C7968D939D932F5F243159F7C0
:103660004FBF8091E800877F8093E8006AE270E0B6
:10367000CE0101960E948F178091E8008B7780938E
:10368000E80057C0C096E7CF6091AC027091AD02E0
:10369000AE014F5F5F4F0E94CA16BC01892B09F42F
:1036A00048C09091E800977F9093E80089819A81C3
:1036B0000E94ED17E1CF8038E1F58091E800877F27
:1036C0008093E8008091A3028093F10045CF81119F
:1036D00030C09091AA02923060F58091E800877F17
:1036E0008093E8009093A3020E9480188091A30227
:1036F000882311F084E005C08091E30087FDFACFB4
:1037000081E08093A7020E94B41513C08091AA02A1
:10371000813079F481E0933009F080E08093A50254
:103720001092E9008091E800877F8093E8000E9472
:1037300080188091E80083FF0AC08091E800877FAD
:103740008093E8008091EB0080628093EB00AA9662
:10375000E3E00C94F81B0895CF938091A70288238F
:10376000A1F0C091E900CF709091EC00892F817099
:1037700090FD80E8C82B1092E9008091E80083FD5D
:103780000E94641ACF70C093E900CF910895EE0FA4
:10379000FF1F0590F491E02D09942F923F924F92D4
:1037A0005F926F927F928F929F92AF92BF92CF92D1
:1037B000DF92EF92FF920F931F93CF93DF93CDB7DA
:1037C000DEB7CA1BDB0B0FB6F894DEBF0FBECDBF52
:1037D00009942A88398848885F846E847D848C8423
:1037E0009B84AA84B984C884DF80EE80FD800C812C
:1037F0001B81AA81B981CE0FD11D0FB6F894DEBF0F
:103800000FBECDBFED010895FB01DC0104C08D9119
:103810000190801921F441505040C8F7881B990B42
:103820000895FB01DC0102C001900D92415050400F
:10383000D8F70895F999FECF92BD81BDF89A9927DE
:1038400080B50895A8E1B0E042E050E00C945E1C21
:10385000DC01A40FB51F4150504048F0CB01840F4C
:10386000951F2E910E94391C41505040D0F7089569
:10387000262FF999FECF92BD81BDF89A019700B429
:10388000021639F01FBA20BD0FB6F894FA9AF99AC9
:103890000FBE08950396272F0E94391C0E94381CE2
:1038A000252F0E94391C242F0C94391C0196272F98
:1038B0000E94391C0C94381CDC01CB01FC01F999E5
:1038C000FECF06C0F2BDE1BDF89A319600B40D926C
:1038D00041505040B8F70895F894FFCF5204520475
:1038E000A204A20407058104810481042305940530
:1038F000A305A305D7114B12DF11A911AD11E311D7
:10390000B111E711F311BD114412C111F711C51125
:10391000FB112312C911FF112A12CF1105120D122A
:10392000B511EB11B911EF11D3110912191233129C
:103930004212A311DB115212DC12E212CB12D61288
:10394000E812EE12F412881AB01A991BB01A991BD9
:0A395000E31A041B991B5B1B671BA5
:10395A002A020000010031147315471546156C152B
:10396A00E200E900EA00B500B600B700CD00830125
:10397A00CC008A0192019401210223022402250229
:10398A00260227022A02B300B4006F0070009F01CA
:10399A00CB019F02A002818283E200E900EA00B51E
:1039AA0000B600B700CD008301CC008A01920194D1
:1039BA00012102230224022502260227022A02B337
:1039CA0000B4006F0070009F01CB019F02A002812A
:1039DA008283F4F5F6F76766363534979694F0F1F4
:0A39EA00C6939291303132333790CA
:00000001FF
