:100000000C942B010C9448010C9448010C94480169
:100010000C9448010C9448010C9448010C9448013C
:100020000C9448010C9448010C94AD1B0C94811C59
:100030000C94CD160C9448010C9448010C94480182
:100040000C9448010C9448010C9448010C9448010C
:100050000C9448010C9454170C9448010C944801DA
:100060000C9448010C9448010C9448010C944801EC
:100070000C9448010C9448010C9448010C944801DC
:100080000C9448010C9448010C9448010C944801CC
:100090000C9448010C9448010C9448010C944801BC
:1000A0000C9448010C9448010C94480153005400EE
:1000B000550056005F006000610057005C005D0065
:1000C0005E00000059005A005B0000006200000062
:1000D000630058001C034E006F00720074006F0034
:1000E0006E00540065006300680050006100640009
:1000F000000016034E006F00720074006F006E0067
:10010000540065006300680000000403090409024C
:100110003B00020100A0FA090400000103010100F4
:100120000921110100012244000705810308000193
:10013000090401000103000000092111010001224E
:10014000B600070582032000011201000200000032
:10015000087998010001000102000105010902A1CE
:100160000185020901A100050919012908150025C9
:1001700001950875018102050109300931158125B4
:100180007F95027508810609381581257F950175CF
:10019000088106050C0A38021581257F950175082E
:1001A0008106C0C005010980A101850319012AB794
:1001B00000150126B700950175108100C0050C09D6
:1001C00001A101850419012AA002150126A00295AA
:1001D0000175108100C005010906A101850605070A
:1001E00019E029E715002501950875018102050729
:1001F000190029EF1500250195F075018102050808
:100200001901290595057501910295017503910163
:10021000C005010906A101050719E029E715002518
:10022000019508750181029501750881010507197D
:100230000029FF150026FF009506750881000508B6
:1002400019012905150025019505750191029501F2
:1002500075039101C00011241FBECFEFDAE0DEBFAD
:10026000CDBF11E0A0E0B1E0ECE6FEE302C00590F6
:100270000D92AE38B107D9F722E0AEE8B1E001C087
:100280001D92A739B207E1F70E94CE100C94F51E1B
:100290000C940000811111C0653078F4443068F48A
:1002A00084E0689FF0011124E40FF11DEE0FFF1FA1
:1002B000E455FF4F85919491089581E090E0089571
:1002C0000E944A01089581E008950E946301089503
:1002D00081E008950E94630108950E946A010895D3
:1002E00008950E9470010895A6E0B0E0EAE7F1E009
:1002F0000C94511E49835A839E83309195018981C4
:100300009A8131111AC03E81332399F0222389F05A
:100310000E946F07182F682F89819A810E944C07CD
:1003200069817A81812F0E94490E2696E3E00C9420
:100330006D1E0E945D07182FF3CF0E946F07698121
:100340007A81F1CFFC01262F408151816281738136
:10035000848195810E9474010895CF93DF93EC010D
:1003600061E00E94A201BE010E946501DF91CF9170
:100370000895CF93DF93EC0160E00E94A201BE01DB
:100380000E947101DF91CF91089508950E94210686
:100390000E94C5012FEF84E39CE0215080409040F3
:1003A000E1F700C0000008950E94C6010E9478177E
:1003B00008950E94C6010E94891708950F931F9304
:1003C000CF93DF938C0161E00E94A201EC01B801A0
:1003D0000E946D01811106C080E0DF91CF911F91D5
:1003E0000F910895B801CE010E94CE148823A1F385
:1003F000B801CE010E946413882371F3B801CE01C5
:100400000E944014882341F3F8018581882361F01C
:10041000C330FCE7DF07E9F058F4C115ECE7DE076D
:10042000A9F0C130DC47B9F0C8010E946801D5CFFE
:10043000CB358CE7D807A9F0CC35ECE7DE0771F0B7
:10044000CA35DC4789F70E94A50BEECF0E94D40184
:10045000C3CF0E94AD0B0E94D901BECF0E949B0B5F
:10046000E3CF0E94A90BE0CF0E94AA160E945B0274
:1004700008950E945F020E94AF160895089581E0DA
:1004800008950895CF93DF93D82F0E943F02C82F7D
:10049000882319F08D2F0E9441028C2FDF91CF917C
:1004A00008950895CF93C82F0E943E028C2F0E947A
:1004B0004202CF91089580E00E94520208950E9466
:1004C00017150E9452020895CF930E941715C82F46
:1004D000809190018C1779F0C09390010E94391798
:1004E0006093910170939201809393019093940192
:1004F0008C2F0E945202CF910895ADE0B0E0E3E866
:10050000F2E00C94521E488759876A877B878C8754
:100510009D8791110E94D30A1F8286E0FE013896C2
:10052000DE01119601900D928A95E1F78D8181117E
:100530000DC029813A814B815C816D817E818F81E3
:100540000E94060A2D96E2E00C946E1ECE010196E2
:100550000E94AD018111EDCFF5CFFC012481213046
:1005600021F4808191810E94A1070895662329F0DA
:100570000E9465110E94381208950E94BF11FACF9F
:10058000CF93C82F8823C9F08238C9F40E9424155C
:1005900081FD13C089E30E948B0A0E940C0B2FEF90
:1005A00087EE93E0215080409040E1F700C00000CA
:1005B00089E30E94930A0E940C0BCF91089583381F
:1005C000A1F40E94241580FDF8CF83E50E948B0AD8
:1005D0000E940C0B2FEF81EE94E021508040904060
:1005E000E1F700C0000083E5E4CF8438A1F40E9465
:1005F000241582FDE2CF87E40E948B0A0E940C0B37
:100600002FEF81EE94E0215080409040E1F700C050
:10061000000087E4CECF8CEF8C0F813A90F46C2FE2
:1006200080910001909101010E94AD15882329F06D
:100630008C2F0E94930A0E940C0B8C2F0E948B0A15
:10064000BACF80E28C0F883048F4C77081E001C0D7
:10065000880FCA95EAF70E94B60AADCFEBE5EC0F1A
:10066000E33040F4F0E0E75BFE4F808190E00E94D1
:100670004F15A3CFE8E5EC0FEB3150F4F0E0EE0FAF
:10068000FF1FED5EFE4F808191810E94741595CF12
:1006900083E38C0F833108F090CF61E08C2F0E94B0
:1006A000B6028BCF882309F456C0823879F40E94B1
:1006B000241581FF50C089E30E948B0A0E940C0B15
:1006C00089E30E94930A0E940C0B0895833859F421
:1006D0000E94241580FF3FC083E50E948B0A0E9480
:1006E0000C0B83E5EECF843859F40E94241582FF69
:1006F00032C087E40E948B0A0E940C0B87E4E1CF92
:100700009CEF980F913AE8F290E2980F983050F4ED
:10071000877091E001C0990F8A95EAF7892F0E94AE
:10072000BC0AD1CF9BE5980F933028F490E080E08D
:100730000E944F15089598E5980F9B3128F490E09A
:1007400080E00E947415089593E3980F933118F494
:1007500060E00E94B60208951F93CF93DF93182F95
:10076000EB010E94C002209739F4812F0E945203AE
:10077000DF91CF911F9108958FE99FE00197F1F7E5
:1007800000C000002197EFCF70E060E0893311F4E2
:1007900060E570E00E94AC030895882321F00E9478
:1007A000B60A0E940C0B0895882321F00E94BC0A0F
:1007B0000E940C0B0895B0E0A0E0E1EEF3E00C9491
:1007C0004B1E6C01D62FC72FFC01158106810295A7
:1007D0000F700E94AC0AE82E8823E9F0E12E112365
:1007E000D1F08C2F807F803451F080E28D0F8830E3
:1007F000F8F0011104C08C2F807E8032C9F0809106
:100800007B0282FF15C082E00E946F0B0E94AC0A3F
:1008100091E0E82EE926BC2EB2949FE0B922FBE0DD
:10082000FB15B8F1EB2DF0E0E950F14E0C943C1EB5
:10083000E12CF1CF0C2F0F70C07F11F00295007FDB
:10084000112399F0002359F080E28D0F883010F0C9
:10085000D11107C0802F0E94B60A0E940C0B8D2F69
:100860005AC0802F0E94C60AF8CF8D2F0E945203D3
:10087000002379F080E28D0F883010F0D11104C090
:10088000802F0E94BC0A03C0802F0E94CC0A0E94C5
:100890000C0BEB2DE850FF0B349720F40E9417153A
:1008A0000E945202EE2089F00E94A80A80FD0DC02D
:1008B000F60115820E94A20A0E94AA06C6010E94A1
:1008C000E8050E94A20A0E94BA06CDB7DEB7E9E0A9
:1008D0000C94671E2C2F2F70F22EC07FC03219F09F
:1008E000F29480EFF822DD2341F0D130D1F11123D1
:1008F00009F444C00023F1F0B2CF80917B0282FD65
:1009000015C0112359F0FF2029F08F2D0E94B60A3F
:100910000E940C0B80E00E94C002BBCF80E00E94CE
:100920005203FF2009F4B5CF8F2DABCF112369F00F
:10093000011104C08F2D0E94CD03ABCF013009F00F
:10094000A8CF8F2D0E94EA0AA4CF0111A2CF8F2D2C
:100950000E94D4038F2D0E94F60A8F2D0E94DA0A7E
:1009600098CF112321F0063008F093CFE3CF053064
:1009700008F08FCF8F2D0E94D4038BCF0023D1F3AB
:10098000D93349F43FEF87EE93E0315080409040F7
:10099000E1F700C000008D2F0E9452037ACF8C2F08
:1009A00086958695837069F0813009F072CF8D2F1E
:1009B0009C2F9370111102C080E090E00E9474158A
:1009C00068CF8D2F9C2F9370111102C080E090E0B2
:1009D0000E944F155ECF612F8D2F0E94B60259CF16
:1009E0008C2F8370A1F5111154CF4D2F4295469550
:1009F0004770440F440F2D2F2F7030E0042E02C09B
:100A0000220F331F0A94E2F790E080E0D4FF09C080
:100A10008FE090E002C0880F991F4A95E2F7809519
:100A20009095C695C695C370822B932BC23049F022
:100A300058F4C13019F00E947A062BCF0E9471063B
:100A400028CF0E94830625CF0E946E0622CF86956E
:100A5000112311F08C2F8170882309F41ACF4D2FA8
:100A6000429546954770440F440F2D2F2F7030E06C
:100A7000042E02C0220F331F0A94E2F790E080E0B8
:100A8000D4FF09C08FE090E002C0880F991F4A95FB
:100A9000E2F780959095C695C695C370822B932BEF
:100AA000C23049F058F4C13019F00E94E506F1CE89
:100AB0000E94DC06EECE0E94EE06EBCE0E9492066D
:100AC000E8CECF70112329F08C2F0E94AA068D2F1B
:100AD00032CF8D2F0E94D4038C2F0E94BA06D9CE1C
:100AE000D23F41F160F4D03FB9F0D13F81F0112302
:100AF00009F446C00111B3CE8C2F8F711FC0D33FB4
:100B000001F1D43FA1F780917B0282FD24C08C2F9C
:100B10008F71112311F312C0112341F0053008F039
:100B2000B8CE8C2F8F710E94CC06B3CE063008F061
:100B3000B0CEF7CF8C2F8F711111CFCF0E94AA06A4
:100B4000A8CE112329F08C2F8F710E949E06A1CE72
:100B50000E9499069ECE112349F0CF718C2F0E94DE
:100B6000AA0663E08C2F0E94510B93CE81E00E9475
:100B70006F0B023008F48DCE82E00E946F0B89CE9D
:100B8000002359F0D93309F006CFEFEFF7EE23E059
:100B9000E150F0402040E1F7FCCE8C2F8F719DCFCB
:100BA0000F931F93CF93DF93EC01688179818D813F
:100BB0000E94AC078C010E94F7060E946D06B801E6
:100BC000CE010E94DB03DF91CF911F910F91089519
:100BD000CF93DF93EC018C81882399F0CE010E94A2
:100BE000DE01811111C00E94AC0A882351F08D8171
:100BF000882339F080917B0282FF03C082E00E944B
:100C00006F0BDF91CF910895CE010E94D005CE01E8
:100C10000E94B901F6CF90E080E00E944F1590E06D
:100C200080E00E9474150E94D30A0E940C0B0E945F
:100C300054120E94381208950E949B0A0E940B06CB
:100C400008950E94C30A0E941C06089592959F7001
:100C5000963091F058F4925F9F70923058F4803F34
:100C600019F030F4883E30F481E008959A5FF4CFB3
:100C7000843FD1F380E00895883EB0F3813FD1F7FF
:100C8000F3CFFC012481222339F0808191810E94DD
:100C9000A1070E942606089580E00895A6E0B0E02E
:100CA000E4E5F6E00C94521E2696E2E00C946E1EEB
:100CB000A7E0B0E0EEE5F6E00C94521E2796E2E0E5
:100CC0000C946E1E08950E94620608950E946306A9
:100CD0009093A5018093A401089508950E9466064B
:100CE00008952091A4013091A501822B932B0E949D
:100CF000660608952091A4013091A50182239323D3
:100D00000E94660608952091A4013091A5018227D2
:100D100093270E94660608950E94620608950E9425
:100D20008C0608950E948F069093A3018093A201E0
:100D3000089590E080E00E949206089521E030E05E
:100D4000A90102C0440F551F8A95E2F7CA010E940B
:100D50009206089521E030E002C0220F331F8A95E9
:100D6000E2F78091A2019091A301822B932B0E9424
:100D70009206089521E030E002C0220F331F8A95C9
:100D8000E2F7209530958091A2019091A3018223F2
:100D900093230E949206089521E030E002C0220FC2
:100DA000331F8A95E2F78091A2019091A3018227D7
:100DB00093270E94920608952091A2013091A301E9
:100DC000822B932B0E94920608952091A2013091CC
:100DD000A301822393230E94920608952091A201E9
:100DE0003091A301822793270E94920608950895C7
:100DF000262F277091E001C0990F2A95EAF723E08A
:100E0000769567952A95E1F7660F771F660F771F2E
:100E1000FA01E60FF71F50E040E0682F70E0819183
:100E2000DF0111979B01042E02C0369527950A9485
:100E3000E2F7217021952827292328272C934F5F3B
:100E40005F4F4430510559F70895A82FA77023E04C
:100E5000969587952A95E1F7880F991F880F991F16
:100E6000FB01E80FF91F50E040E080E0219130E005
:100E70000A2E02C0369527950A94E2F7217033278F
:100E8000042E01C0220F0A94EAF7822B4F5F5F4FB6
:100E90004430510559F70895262F953068F4843071
:100EA00058F434E0939FB0011124680F711D46E996
:100EB00051E0822F0E94F8060895953070F4843036
:100EC00060F444E0949F9001112466E971E0820F80
:100ED000932F911D0E942507089580E00895B0E0AA
:100EE000A0E0E5E7F7E00C944B1E7C010091A20125
:100EF0001091A3018091A4019091A501082B192BB9
:100F0000CFE0D0E0CC24C394D12CBC2EC6010C2E53
:100F100002C0880F991F0A94E2F780239123892B3E
:100F200049F4219790F7B12C8B2DCDB7DEB7E9E0CE
:100F30000C94671EB7018C2F0E94550E019789F300
:100F4000F3CFCF93DF93EC010E946F07BE010E94A5
:100F5000550EDF91CF9108951F93CF93DF93EB014F
:100F600090919501992339F0CB010E94A107DF915F
:100F7000CF911F910895882369F0CB010E946F07DC
:100F8000182F682FCE010E944C07BE01812F0E94AE
:100F9000550EEDCFCB010E945D07182FF6CF1F93A2
:100FA000CF93DF93C091A60117E08091A7018C1326
:100FB00004C0DF91CF911F910895D0E01C9FF001F4
:100FC0001D9FF00D1124E855FE4F20813181428193
:100FD00053816481758186810E9458062196C7706D
:100FE000E4CF2091E0013091E1014091E201509184
:100FF000E3016091E4017091E5018091E6010E94B6
:1010000058060895CF93DF938091E601807F09F021
:101010004DC08091E501882309F448C0E091A60104
:101020005091A701C091E101D091E0016091E201EE
:101030007091E30147E05E17C9F18E2F90E0E49FC5
:10104000F0011124E855FE4F2481222391F1489F9D
:10105000F001499FF00D1124DF01A855BE4F1196F4
:101060002C9111972C1325C02C912D1322C015966D
:101070002C91159721111DC012962D913C91261B84
:10108000370B283C3105A8F48091E6018F70806110
:101090008093E601E255FE4F80818F7080618083EE
:1010A00080EE91E00E94E8050E94CF07DF91CF918A
:1010B0000895FC013196E770BECF482F2091A6011C
:1010C0009091A70157E0291302C080E0089530E015
:1010D000529FF001539FF00D1124E855FE4F81817E
:1010E000681306C08081481303C085818111EECF4B
:1010F0002F5F3F4F2770E7CFA4E1B0E0E2E8F8E0D0
:101100000C94481E8C0186E0F801DE011F960190C8
:101110000D928A95E1F7F8018481E58090EEA92E81
:1011200091E0B92E9091E40191111FC08823D1F074
:10113000EE20A9F0C8010E944106F82E882379F01C
:1011400087E0F801D50101900D928A95E1F7C5017C
:101150000E94AD020E9402080E94F1075FC0C80110
:101160000E94E805FF24F39459C0C080D18082809A
:101170009380F090E5012091E2013091E301A40118
:10118000421B530BFF2009F4F9C0483C510508F0FD
:10119000A7C0882309F442C09091E1018091E60143
:1011A000282F207F09F05CC09D1116C09091E001AE
:1011B000C91212C0E1104EC08F7080618093E601A9
:1011C0000E94F10780EE91E00E94E8058091E6011F
:1011D000F8018683F12C22C0E1103CC06D2D8C2DCE
:1011E0000E945D086D2D8C2D0E945D08E82E8111F6
:1011F000F1CFCF86D88A8F8598890E94A107292FA1
:1012000022952F70243078F49F702230A8F0992313
:10121000B9F0F8019681907F99F4FE2C8F2D649699
:10122000ECE00C94641E2A5F2F70223068F0C80135
:101230000E94E805EF2CF1CF992311F0882369F380
:10124000805E883050F3F3CF803F38F3815F833086
:1012500070F7E3CF8091E60181608093E601BACF19
:101260009D1113C09091E001C9120FC0E1100DC093
:101270008683C8010E94E80587E0F801A0EEB1E08E
:1012800001900D928A95E1F767CFC8010E9441064F
:10129000882309F464CFEE2009F461CF8091E60140
:1012A000803288F02091E0013091E1013987288770
:1012B0009B868A869091E4019C871D868E87CE014D
:1012C00008960E94E80587E0F801A0EEB1E00190E1
:1012D0000D928A95E1F70E9402080E94F10742CF21
:1012E0009091E601292F207FA1F4682D9A8A898A9E
:1012F000A6017A899E2D0E944E0680EE91E00E9402
:10130000E80587E0F50111928A95E9F70E94F10757
:1013100061CF882309F482CF8091E1018D1110C043
:101320008091E001C8120CC0E1100AC09683C80188
:101330000E94E80587E0F50111928A95E9F76ECFE2
:10134000C8010E944106882309F409CFEE2009F460
:1013500006CF8091E601803208F4B5CF2091E001FC
:101360003091E1013A8329839C828B829091E40140
:101370009D831E828F83CE010196A3CF483C5105E9
:10138000B8F5882309F4EECEFE2CEE2009F4E7CE62
:101390008091E1018D111EC08091E001C8121AC038
:1013A0008091E60180FD0DC0982F907F51F08683DB
:1013B000903F09F45ECF982F907F905F8F70892BBC
:1013C00057CF87E0F801A0EEB1E001900D928A9529
:1013D000E1F724CFC8010E944106811174CF8091AA
:1013E000E60181608093E601C8010E94E80516CFFE
:1013F000682D9A8A898AA6017A899E2D0E944E06B6
:1014000087E0F50111928A95E9F7A6CEAEE0B0E04B
:10141000ECE0FAE00C94511E288739874A875B87F5
:101420006C877D878E87CE0108960E947C08882372
:10143000B1F06C85662341F0288539854A855B8546
:101440007D858E850E94580617E08091A6019091B7
:10145000A70189133DC02E96E3E00C946D1E87E032
:10146000FE013896DE01119601900D928A95E1F702
:101470008C85882349F32091A70130E0C9010196AA
:10148000877099274091A6014817190699F097E0AF
:10149000929FD001939FB00D1124A855BE4FFE011D
:1014A000319601900D929A95E1F78093A7010E94E1
:1014B000CF07CACF0E9421061092A7011092A60161
:1014C00087E0E0EEF1E0DF011D928A95E9F7BCCFFD
:1014D000819FC001112488559E4F0E947C0888235B
:1014E00009F4B9CFE091A6011E9FF0011124E8553F
:1014F000FE4F2081318142815381648175818681D3
:101500000E9458068091A60190E001968770992765
:101510008093A6019ACF682F8091000190910101DC
:101520000E942D160895682F80910001909101016D
:101530000E943B16089580910001909101010E9444
:101540004916089580910702869586958695089597
:10155000809107028770089590910702977081E04B
:1015600009F480E0089580912B02089590912B0258
:10157000892B80932B020895809590912B029823BC
:1015800090932B02089510922B02089590912A02B5
:10159000892B80932A020895809590912A0298239E
:1015A00090932A02089510922A02089508950E94A5
:1015B000D60A089590910802292F282331F08095AA
:1015C0008923809308020E94D70A089508950E94F3
:1015D000E60A089590910902292F2823281729F057
:1015E000982B909309020E94E70A089590910902AE
:1015F000292F282331F080958923809309020E94A6
:10160000E70A089580910902882329F010920902BF
:1016100080E00E94E70A0895CF93DF93E0910001F4
:10162000F091010180912B028083E0910001F09103
:101630000101808190912A02892B80839091090277
:10164000992381F0E0910001F09101018081892BC3
:10165000808380910001909101010E949915811170
:101660000E94020BC0910001D091010140E250E0C4
:1016700067EE71E0CE010E948D1E892B59F080E249
:10168000FE01A7EEB1E001900D928A95E1F7CE013F
:101690000E942715DF91CF91089508950E944D0B68
:1016A000089590917B0292FF11C098E0899F90016C
:1016B0001124622B609307020E94AA068091070200
:1016C0008695869586950E944E0B08950E94AA06DF
:1016D00008951092070280E00E944E0B08959091A9
:1016E00007028095892380930702282F277069F4C9
:1016F000891759F090917B0292FF07C086958695D5
:1017000086950E94BA060E94690B089590917B020B
:1017100092FB222720F9281769F080FB92F9909319
:101720007B0280917A0290917B020E94CE0B82E034
:101730000E946F0B089580917B0282FB882780F9BD
:1017400091E089270E94860B089581E00E94860B14
:10175000089580E00E94860B08956FEF7FEF90E080
:1017600080E00E94DF1E089590E080E00E94AB1EA2
:1017700021E0863E9E4F09F020E0822F089582E00E
:1017800090E00E94A31E089583E090E00E94A31EB3
:10179000089584E090E00E94AB1E0895BC0184E0AF
:1017A00090E00E94DF1E0895AB01BC018FE090E045
:1017B0000E94D31E0895AB01BC0183E190E00E941A
:1017C000D31E089560E070E0CB010E94DB0B08950A
:1017D00060E070E0CB010E94D40B0E94E20B089500
:1017E000A8E0B0E0E6EFFBE00C94521E66EE7EEF60
:1017F00090E080E00E94DF1E60E082E090E00E94C6
:10180000C11E60E083E090E00E94C11E1092A5011D
:101810001092A40160E074E184E090E00E94DF1E79
:1018200060E086E090E00E94C11E6FEF87E090E0EC
:101830000E94C11E40E050E0BA0188E090E00E94A2
:10184000D31E60E084E290E00E94C11E60E087E168
:1018500090E00E94C11E60E08CE090E00E94C11EFA
:1018600060E08DE090E00E94C11E19821A821B8206
:101870001C821D821E821F82188648E050E068E1AB
:1018800070E0CE0101960E94B11E40E050E0BA0126
:1018900080E290E00E94D31E0E94E80B2896E2E0CE
:1018A0000C946E1E0E94F00B0895682F8EE090E05D
:1018B0000E94C11E0895A6E0B0E0E1E6FCE00C94B1
:1018C000501E0E942D178C0180912C0290912D02A8
:1018D0008017910781F019821A820E942D17682FB4
:1018E00049815A81792F80E090E00E947D02109317
:1018F0002D0200932C022696E4E00C946C1E0E94AC
:1019000039176093370270933802809339029093AD
:101910003A026093330270933402809335029093BD
:1019200036020895089508950E94920C089508952E
:101930000E94970C08958BE49FE00E94DB100E94A8
:10194000930C0E94940C089581E008950E94A40CC9
:1019500008950E94A40C0895089508950E94AC0C67
:101960000E94AD0C08950E946A0F0E9451020895D2
:101970000E9424170E9431100E94B30C0E94980C00
:101980000895A6E0B0E0E7ECFCE00C94491E0E944C
:10199000A60C81110AC00E945B0C0E9476120E9464
:1019A00064022696EBE00C94651E0E9447108EE2BE
:1019B000A82E82E0B82E750110E0F70101917F0199
:1019C000812F0E94900F1F5F153009F441C0081746
:1019D000A1F380913B0281FD0E94960F0E94A90C09
:1019E000C82E10E099249394812F0E94900F082F05
:1019F000F50181915F01081729F1F12CEE24E394A0
:101A0000D02ED8268D2D8E21A9F0CC2099F0F982E8
:101A10001A830E942D179C838B839D8291E0802FD7
:101A20008E2109F490E049815A816B817C818D81FE
:101A30000E947D02F394EE0CF4E0FF12E3CFF50177
:101A4000319700831F5F153079F60E947F0CA5CF78
:101A50000813BFCFA0CF1F93CF93DF930E945A0EDE
:101A6000EC01C11580E5D807F0F5C11580E4D80771
:101A700008F09CC0C03ED10520F5CD3CD10508F052
:101A800082C0C83AD10578F4C53AD10508F073C0D0
:101A9000C130D10519F1209709F1C430D105F0F416
:101AA000D0E0C0E01BC0C33CD105D0F7C85AD0E09D
:101AB000CC0FDD1FC45BDE4F0990D881C02DD464EC
:101AC0000DC0C11580E2D80708F0D1C0C11581E072
:101AD000D80708F05AC0C83ED10510F7CE01DF91F3
:101AE000CF911F910895C03682E5D80718F5C0340C
:101AF00082E5D80708F06BC0C03282E5D80708F04D
:101B00005FC0C11582E5D80708F497C02C2F269531
:101B1000269580E2289F900111248C2F8370C1E0CC
:101B2000D0E002C0CC0FDD1F8A95E2F7C22BD32B89
:101B3000DD68D4CFC03A82E5D80760F4C03882E5CA
:101B4000D80708F459C0CF71D0E0DC2FCC27C46F80
:101B5000D06AC4CFC03C82E5D80708F462C0C03E5A
:101B600082E5D80708F09CCFDC2FCC27CC27DF718B
:101B7000C06FD06AB3CFC55AD0E0CE57DE4FC88110
:101B8000D0E0D064ABCFD065A9CF8D2F0E94FC0EE2
:101B9000182FCE0199270E945A0EC12FD0E0DC2FBA
:101BA000CC27CC27DF71C82BD92B98CFCE01992712
:101BB0000E945A0ECC27DF70C82BD92BD06A8ECF4B
:101BC000CF71D0E0DC2FCC27C16FD06A87CF2C2F0C
:101BD00026952695277080E2289F900111248C2F4E
:101BE0008370C1E0D0E002C0CC0FDD1F8A95E2F720
:101BF000C22BD32BDC6872CF2C2F2695269527700D
:101C000080E2289F900111248C2F8370C1E0D0E0E6
:101C100002C0CC0FDD1F8A95E2F7C22BD32BDA6806
:101C20005DCF8C2F8F710E94FC0EC82FD0E0DC2F6F
:101C3000CC27CC27DF71D06251CF8C2F8F710E94BF
:101C4000FC0E55E0D695C7955A95E1F7CF70D0E0D8
:101C5000DC2FCC27282F30E084FF05C044E0220F82
:101C6000331F4A95E1F7C22BD32BD06937CF8D2F85
:101C70008F710E94FC0E182FCE0199270E945A0ED8
:101C8000C12FD0E0DC2FCC27CC27DF71C82BD92B7C
:101C9000D2CF462F753030F4643020F4672F0E9485
:101CA0006001089590E080E008950E94490E0E942E
:101CB0002B0D089582389105B9F1B0F48133910567
:101CC00009F47DC048F48932910509F46DC08A3267
:101CD000910509F47BC008958533910509F45FC02F
:101CE0008933910509F10895833E9105D9F138F4BE
:101CF000803E910529F1823E910579F10895863E55
:101D00009105D9F1873E910509F43EC0843E9105C5
:101D100041F520917B0221FF24C080917A0284FD4D
:101D200019C087EE90E0089520917A02237009F09F
:101D30005AC020917B0223FF14C089E290E00895ED
:101D400020917A0220FD38C030917B0230FF09C01B
:101D500024FF43C090E080E0089520917A0222FDA4
:101D6000F7CF089520917A0222FD3AC030917B028C
:101D700030FD39C024FFF5CFEDCF20917A0223FF4B
:101D8000F0CF24FDE7CFCDCF20917A0223FD2EC0E6
:101D900030917B0231FFEECF84EE90E008952091E8
:101DA0007A0225FFDECFC9CF20917A0225FD21C01E
:101DB00020917B0223FFD5CF89E390E0D2CF209101
:101DC0007A0226FFCECF8AE290E0089520917A022F
:101DD00026FFC7CF81E390E0089583EE90E0089559
:101DE00082EE90E0089580EE90E0089586EE90E017
:101DF000089585E390E0089590917A0292FF10C0D3
:101E000041E0282F2471243009F040E031E0282FF0
:101E10002871283009F030E0431711F02CE08227B8
:101E200093FF10C041E0282F2471243109F040E0D5
:101E300031E0282F2871283109F030E0431711F0E4
:101E40002CE0822730917B0230FF10C051E0282F18
:101E50002171213009F050E041E0282F287128300D
:101E600009F040E0541711F029E0822731FF10C03B
:101E700041E0282F2171213109F040E031E0282F85
:101E80002871283109F030E0431711F029E082274A
:101E900094FD877E089580E008950E94AD0B08951B
:101EA0000E9447102FEF86E791E02150804090403C
:101EB000E1F700C000000E94471080E00E94900FF0
:101EC00080FF04C00E944D0F0E94781708950E9461
:101ED000500F08950E94B40B811102C00E94520C51
:101EE0000E94BF0B80933B020E94C90B90937B0220
:101EF00080937A020E94670F0E94C40B90E00E94B8
:101F00006E068091A2019091A3010E948F06089510
:101F100008950E94880F089508950E948C0F0895D7
:101F2000E82FF0E0EF57FD4F80810895089580EA93
:101F30008A95F1F7089500C008950E94970F0895BB
:101F4000F894E82FE295EF70F0E031A1282F2F7080
:101F500081E090E001C0880F2A95EAF7982F9095CC
:101F6000932391A392A1892B82A378940895CF9370
:101F7000DF93C9E8D1E089918F3F11F00E94A00F53
:101F800081E0CE38D807B9F787E90E94A00F86EC28
:101F90000E94A00F84E30E94A00F85E30E94A00F7F
:101FA000DF91CF910895B0E0A0E0E9EDFFE00C945F
:101FB0004C1EEC01D62E062F10E0C80187579E4F0D
:101FC0007C01FC0180818F3F09F444C0F894E82F24
:101FD000E295EF70F0E091A18F7021E030E001C058
:101FE000220F8A95EAF7892F822B81A382A120955F
:101FF000282322A378940E949B0FE5E8F1E031E0CA
:10200000C12C21912F3F59F1A22FA295AF70B0E0C2
:1020100090968C9190E02F7002C0959587952A95A7
:10202000E2F780FD1CC0832FC82A330F81E0E93816
:10203000F80739F7F70180818F3F11F00E94A00F58
:1020400061E0C11001C060E08D2D0E949D0FC00FA6
:10205000D11FC882CDB7DEB7E8E00C94681E80E0DF
:10206000E3CF0E94B70F85E0E1E8F2E0DF01982FAF
:102070001D929A95E9F7ECE7F2E0DF011D928A954F
:10208000E9F785E00E9482100E94890F0895A5E07B
:10209000B0E0EDE4F0E10C944F1E8E010F5F1F4F96
:1020A00085E0F80111928A95E9F7F12C6F2DC801AE
:1020B0000E94D30FF394F5E0FF12F8CF45E050E013
:1020C000B8018CE792E00E948D1E21E0009709F490
:1020D00020E0892B41F085E0F801ACE7B2E0019007
:1020E0000D928A95E1F745E061E872E08CE792E0B5
:1020F0000E948310182F0E948D0F812F2596E5E0F6
:102100000C946B1E0895CF92DF92EF92FF920F9383
:102110001F93CF936C017B01042F222349F081E0B0
:1021200080933E020E942D1790933D0280933C02C3
:10213000C0913E02C1110AC0C0E08C2FCF911F9107
:102140000F91FF90EF90DF90CF90089580913C0227
:1021500090913D020E944517059770F310E0A80189
:10216000B601C7010E948D1E892B41F0A801B6015E
:10217000C7010E949A1E10923E02DFCFC0E0FBCF43
:102180000E94FE180E94B80C0E940B1908950E942C
:1021900010190E94C10C0E942A1908950E94C616A7
:1021A0000E94E4180E949B0C0E94C0100E94C7105D
:1021B0000E94AE0CFBCF90938F0180938E01089507
:1021C000282F35EB2303C001112497FF04C080584A
:1021D0009109892F089580589F4FFBCF8091450228
:1021E00080FF0DC06091070170E0660F771F6038B7
:1021F000710570F56115710569F1862F089581FFEC
:1022000007C06091070184E0689FB0011124EFCFFF
:102210006091070182FD0AC0809144028823A9F0E1
:102220002091060160910701821710F088E0ECCF41
:10223000869FC001112433E0880F991F3A95E1F77A
:10224000622F70E00E94281ED2CF68E070E0D5CFE8
:102250008FE7089581E008958091450280FF0CC0CA
:102260006091030170E075956795759567956115A7
:10227000710549F1862F089581FF06C06091030121
:1022800070E075956795F3CF6091030182FD0BC0F7
:10229000909143029923A1F0609102018091030182
:1022A000961738F0682F70E06038710500F38FE7FB
:1022B0000895899FC001112470E00E94281EF4CF68
:1022C00061E070E0D7CF81E008958D3C31F40E9449
:1022D000EE1081958093490208958E3C19F40E9476
:1022E000EE10F8CF8F3C31F40E94EE108195809370
:1022F00048020895803D19F40E94EE10F8CF893D00
:1023000029F40E942C1180934A0208958A3D21F4F9
:102310000E942C118195F7CF8B3D31F40E942C1136
:10232000819580934B0208958C3D19F40E942C11E5
:10233000F8CF9FE2980F983070F4815D990B21E0FF
:1023400030E001C0220F8A95EAF780914702822B84
:102350008093470208958D3D31F48091450281605C
:102360008093450208958E3D21F48091450282605C
:10237000F7CF8F3DB9F7809145028460F1CF40914E
:1023800048028D3C59F48091490287FF0DC010929C
:10239000490241110BC01092440208C08E3C81F4E6
:1023A0008091490218169CF3442381F080914A02DF
:1023B00090914B02892B09F05AC010924302089564
:1023C0008F3C49F447FFF0CF1092480280914902B8
:1023D0008111ECCFE0CF803D19F41416ACF3E4CFBB
:1023E00090914A02893D29F41916F4F610924A0296
:1023F000DBCF8A3D19F497FFD7CFF8CF90914B02EE
:102400008B3D29F497FFD0CF10924B02CDCF8C3D5E
:1024100019F41916CCF3C8CF9FE2980F983090F4B6
:10242000815D990B21E030E0B90102C0660F771F92
:102430008A95E2F7CB01809590914702892380939A
:102440004702B2CF8D3D31F4809145028E7F80935B
:102450004502AACF8E3D21F4809145028D7FF7CFB2
:102460008F3D09F0A1CF809145028B7FF0CF089579
:102470000E942D179C019091480280914902982B4F
:1024800021F0309342022093410290914A028091C0
:102490004B02982B21F03093400220933F0286E4B8
:1024A00092E00E944115089586E0E6E4F2E0DF0143
:1024B0001D928A95E9F710924402109243021092FD
:1024C00045020895FC01828181110EC08381811132
:1024D0000BC08481811108C091E08581811101C008
:1024E00090E0892F8170089581E0FCCFA6E0B0E0F4
:1024F000ECE7F2E10C94511E86E0E6E4F2E0DE0146
:10250000119601900D928A95E1F71092480210926F
:10251000490210924A0210924B028B819C81892BB6
:1025200089F080914102909142020E944517AC01CE
:10253000909144029923C9F18091080184171506EE
:1025400008F440C08D819E81892B91F080913F02DB
:10255000909140020E944517AC019091430299234B
:1025600009F46AC0809104018417150608F472C04A
:10257000BE016F5F7F4F86E492E00E945B1681117F
:1025800005C086E492E00E94621281110E94381216
:1025900086E0FE013196A6E4B2E001900D928A95A4
:1025A000E1F72696E3E00C946D1E209109018AE084
:1025B000289F900111242417350720F69F5F9093E0
:1025C000440202C09F3FD1F71B81112359F00E94A2
:1025D000EE109FEF11160CF491E0899F802D1124CD
:1025E000809348021C81112359F00E94EE109FEF46
:1025F00011160CF491E0899F802D112480934902DB
:1026000080914802882309F49DCF1091490211233B
:1026100009F498CF0E94E010882351F0809348027B
:10262000812F0E94E010882329F0809349028ACFED
:1026300081E0F4CF81E0F9CF209105018AE0289F65
:10264000900111242417350708F092CF9F5F9093D3
:10265000430202C09F3FD1F71D81112359F00E9410
:102660002C119FEF11160CF491E0899F802D1124FD
:1026700080934A021E81112359F00E942C119FEF72
:1026800011160CF491E0899F802D112480934B0248
:1026900080914A02882309F46BCF10914B021123D9
:1026A00009F466CF0E94E010882351F080934A021B
:1026B000812F0E94E010882329F080934B0258CF8D
:1026C00081E0F4CF81E0F9CFCF93DF93EC01FB0100
:1026D0008581882309F4D2C09E0130572332310509
:1026E00008F0B2C00E94C90B90937B0280937A02DB
:1026F000FE01E150F047E232F10520F4ED5FF04ECB
:102700000C943C1E80917A02816080937A0293C07F
:1027100080917B02886080937B028DC080917A02D9
:102720008260F3CF80917A028460EFCF80917A0249
:102730008860EBCF80917B028160EDCF80917B023E
:102740008260E9CF80917A028061DFCF80917A0246
:102750008062DBCF80917A028064D7CF0E9421060D
:1027600080917A028068D1CF80917A028C60CDCF3F
:1027700080917B028360CFCF80917A028E7FC5CF1C
:1027800080917B02877FC7CF80917A028D7FBDCFFA
:1027900080917A028B7FB9CF80917A02877FB5CF03
:1027A00080917B028E7FB7CF80917B028D7FB3CFEC
:1027B00080917A028F7EA9CF80917A028F7DA5CFFA
:1027C00080917A028F7BA1CF0E94210680917A02AC
:1027D0008F779BCF80917A02837F97CF80917B0206
:1027E0008C7F99CF80917A0282FB992790F921E022
:1027F000922790FB82F990FB83F987CF80917B022F
:10280000982F909591708E7F892B90FB81F983CFC3
:1028100090917A02892F8F7B96FF806476CF0E94F9
:10282000210690917A02892F97FB87F980586DCF06
:1028300081E00E94550C80917A0290917B020E9467
:10284000CE0B0E94210680E0DF91CF91089580E0B9
:10285000F0CF90917A02892F8F7E94FF806155CFBF
:1028600090917A02892F8E7F90FF81604ECF909158
:102870007B02892F877F93FF88604DCF81E0E4CF73
:10288000CF93DF93EB0186319C4711F50E94B30A89
:102890009D81992399F08A7A91E009F490E09093D0
:1028A0004C02811109C089E20E948B0A0E940C0B24
:1028B00080E0DF91CF91089585E3F6CF80914C02BF
:1028C000811104C089E20E94930AF0CF85E3FBCF17
:1028D00081E0EFCF0F931F93CF93DF93C42FD22FBD
:1028E000FC0185818823C9F040934F020E942D1777
:1028F00090934E0280934D0280E28C0F883040F41A
:10290000C77081E001C0880FCA95EAF70E94CD0325
:10291000DF91CF911F910F91089510914F021413E1
:1029200032C080914D0290914E020E944517883C22
:10293000910548F5C0E2CD0F1D17B9F080E2810F77
:10294000883040F4177081E001C0880F1A95EAF7CB
:102950000E94D403C83048F481E09D2F977001C0D5
:10296000880F9A95EAF70E94CD03802F0E94C40336
:10297000C83070F6D77081E001C0880FDA95EAF7A9
:102980000E94D403C5CF80E28C0F883008F6C77050
:1029900081E001C0880FCA95EAF7F2CF0F93DB01FF
:1029A00088519C4787309105A0F5FC01EB5DF04E06
:1029B0000C943C1E06E221EE41EE6AE17CE7CD017B
:1029C0000E946A1480E00F91089507E225EE45EE1B
:1029D0006BE17CE7F4CF06E221EE40EE68E17CE7B4
:1029E000EECF07E225EE44EE69E17CE7E8CF06E2B0
:1029F00021EE42EE6CE17CE7E2CF07E225EE46EE07
:102A00006DE17CE7DCCF08E221E045EE6EE17CE79A
:102A1000D6CF15968C91882319F010924F02D3CF00
:102A200081E0D1CF90935502809354020895E091B4
:102A30005402F0915502309729F00190F081E02D79
:102A40000995089580E008950E9417150895E09172
:102A50005402F0915502309799F0209112012223EF
:102A600059F020917A0227FF07C0DC012C911196C2
:102A70002C93119726E02C930280F381E02D099589
:102A80000895E0915402F0915502309739F022E018
:102A9000DC012C930480F581E02D09950895A3E0D5
:102AA000B0E0E5E5F5E10C94521E20915202309120
:102AB000530228173907A1F09093530280935202D2
:102AC000E0915402F0915502309751F023E02983B0
:102AD0009B838A830680F781E02DCE0101960995BC
:102AE0002396E2E00C946E1EA3E0B0E0EAE7F5E185
:102AF0000C94521E20915002309151022817390730
:102B0000A1F09093510280935002E0915402F09111
:102B10005502309751F024E029839B838A830680F5
:102B2000F781E02DCE01019609952396E2E00C9401
:102B30006E1EFC01329680911201882321F0809153
:102B40007A029EE187FF96E080E0915008F40895B4
:102B500021912223D1F38F5FF8CF662301F12091D9
:102B600012012223F1F020917A0227FF1AC0462F8A
:102B70004695469546954E3190F4677021E030E0D9
:102B800002C0220F331F6A95E2F7840F911DFC01EA
:102B9000828190E02823392381E0232B69F480E0AF
:102BA0000895FC01329608962191261721F0E81726
:102BB000F907D1F7F4CF81E008959C01FC0132962A
:102BC0009FEF80E04191461751F09F3F19F441116A
:102BD00001C0982F8F5F8630A9F79F3F09F40895B1
:102BE000290F311D97FD3A95F90162830895FC0183
:102BF000329608962191261303C0DF0111971C928B
:102C0000E817F907B9F70895E62FE695E695E695F2
:102C1000EE3168F4E80FF92FF11D677021E030E024
:102C200001C0220F6A95EAF78281822B8283089580
:102C3000E62FE695E695E695EE3170F4E80FF92F6C
:102C4000F11D677021E030E001C0220F6A95EAF7BC
:102C50002095828128232283089520911201222326
:102C600039F020917A0227FF03C00E9404160895CC
:102C70000E94DD15089520911201222339F0209140
:102C80007A0227FF03C00E94181608950E94F715C4
:102C90000895FC01329680911201882351F08091B1
:102CA0007A0287FF06C08EE1DF011D928A95E9F75F
:102CB000089586E0F9CFDC01FB0111969C911197F4
:102CC0008181981322C012968C911297882319F053
:102CD000928189131AC013968C911397882319F047
:102CE0009381891312C015968C911597882319F03A
:102CF000958189130AC014969C91992321F081E053
:102D00002481291303C080E001C081E0817008950F
:102D100008950E9488160895811106C081E080936D
:102D200056020E948916089582E0F9CF83E08093CD
:102D300056020E94891608950E948C16089581E01B
:102D4000809356020E94891608950E949F16089546
:102D5000089508950E94A9160895089508950E945F
:102D6000A8160895CF930E94AD160E9447100E94A6
:102D7000AE16C0E08C2F0E94900F811105C0CF5F6E
:102D8000C530C1F7CF91089581E0FCCF85B7806849
:102D900085BF85B7806885BF08951F921FB61F92B3
:102DA00011248F939F93AF93BF938091570281110A
:102DB00013C08091860290918702A0918802B09101
:102DC00089024196A11DB11D8093860290938702CE
:102DD000A0938802B0938902BF91AF919F918F9188
:102DE0001F901FBE1F90189580918E02843031F184
:102DF0000E9434021092570288E190E020E40FB65E
:102E0000F894A895809360000FBE2093600083B76C
:102E1000817F846083BF83B7816083BF7894889506
:102E200083B78E7F83BF0FB6F894A895809160001A
:102E3000886180936000109260000FBE08950E9428
:102E400021060E943902089582E084BD93E095BD79
:102E50009AEF97BD80936E0008952FB7F8948091F4
:102E6000860290918702A0918802B09189022FBFBB
:102E700008952FB7F894609186027091870280912F
:102E80008802909189022FBF08959C014FB7F89452
:102E90008091860290918702A0918802B091890268
:102EA0004FBF821B930B089578941F921FB61F92F9
:102EB00011248F939F93AF93BF938091860290913B
:102EC0008702A0918802B09189020196A11DB11DCF
:102ED0008093860290938702A0938802B093890220
:102EE000BF91AF919F918F911F901FBE1F9018951A
:102EF00087E797E7909301088093000888E19AE0BC
:102F00000FB6F894A895809360000FBE9093600070
:102F1000FFCF88E19AE00FB6F894A89580936000FF
:102F20000FBE90936000FFCF8091780208959B01BF
:102F3000BA0190918E029430E9F48F708093E90089
:102F40009FEF8091E800915085FD06C085ED8A9540
:102F5000F1F700009111F5CF8091E80085FF0AC0DC
:102F600050E040E0C9010E94A1198091E8008E77ED
:102F70008093E800089543E050E0BC0182E00E94A5
:102F80009717089546E050E0BC0182E00E94971731
:102F90000895CF93DF93EC0180911201811111C04C
:102FA00048E050E0BE0181E00E94971780E2FE01F8
:102FB000A8E5B2E001900D928A95E1F7DF91CF91FB
:102FC000089580917A0287FF05C040E282E050E0D8
:102FD000BE01EACF48E081E0FACF80918D028111F5
:102FE00009C00E94311B0E948E1B8091E200846008
:102FF0008093E200089510928D0208950E949F161A
:10300000089560918A0281E0611101C080E00E9410
:103010009616089590918E0281E0943009F080E038
:1030200060918A020E949C16089542E061EC81E062
:103030000E94AD1A42E261EC82E00E94AD1A9091CA
:103040008E0281E0943009F080E060918A020E9453
:103050008C16089580919002833009F461C030F499
:103060008130D1F1823009F49EC008958A3009F48C
:103070008AC08B3009F46FC0893009F050C080914C
:103080008F02813209F04BC080919302909194029B
:10309000029708F044C08091E800877F8093E800A1
:1030A0008091E80082FF37C09091F3008091F20098
:1030B000029731F48091F100813011F0863021F4D3
:1030C0008091F100809378028091E8008B77809363
:1030D000E8000E94E11A23C080918F02813AF9F43E
:1030E0008091E800877F8093E8008091930290911F
:1030F0009402892B61F460E288E592E070E00E941E
:10310000F0198091E8008B778093E800089560E0E3
:1031100090E080E0F3CF80918E028111C1CF0895BD
:1031200080918F02813AD9F7809193029091940215
:10313000892BA9F78091E800877F8093E800809130
:10314000E80080FFFCCF809112018093F100809114
:10315000E8008E77BCCF80918F02813201F7809199
:10316000930290919402892BD1F68091E800877F99
:103170008093E8000E94E11A8091910280931201ED
:103180000E942106089580918F02813241F680913C
:10319000E800877F8093E8000E94E11A8091920204
:1031A00080937902089580918F02813A09F0B7CF18
:1031B0008091E800877F8093E8008091E80080FF9D
:1031C000FCCF80917902C1CF84B7877F84BF0FB6CF
:1031D000F894A895809160008861809360001092B7
:1031E00060000FBE80E890E00FB6F8948093610015
:1031F000909361000FBE0E94A51608950E94311B96
:103200000E948E1BE2EEF0E08081846080837894DF
:103210000E940D1E08958AE091E00E941215089503
:1032200080918E02853031F480918E02853019F0C4
:103230000E941F1708950E94F41680918C02882323
:1032400099F30E94B216882379F30E948B190E9489
:103250002106EACF08959A01409195025091960275
:103260000E9433190895492F55274330510519F10C
:1032700068F44130510509F444C04230510509F465
:1032800045C090E080E050E040E025C0413251056B
:1032900049F142325105A9F784E490E041E152E05E
:1032A00061157105C1F086EB90E04BE551E06130AE
:1032B000710589F0E6CF99278130910581F000975B
:1032C00029F00297F1F6E4EDF0E002C0EAE0F1E067
:1032D000849190E0AF01F901518340830895E2EFBA
:1032E000F0E0F6CF89E090E040E251E06115710531
:1032F00091F389E090E049E351E06130710559F3C1
:10330000C0CF82E190E049E451E0E5CF8BE390E06B
:103310004EE051E0E0CF80E189BD82E189BD09B492
:1033200000FEFDCF8091D8008F7D8093D8008091E2
:10333000E00082608093E0008091E00081FDFCCF9E
:103340000895AF92BF92CF92DF92FF920F931F9397
:10335000CF93DF936C01EB018A010E94001BF82ED2
:10336000811123C00115110539F0F8018081918187
:10337000C81BD90BC80ED91EB12CA12C2097A9F0BF
:103380008091E80085FD22C08091E8008E778093CF
:10339000E80001151105A1F0F80180819181A80EC6
:1033A000B91EB182A08285E0F82E8F2DDF91CF91DA
:1033B0001F910F91FF90DF90CF90BF90AF90089535
:1033C0000E94001B8823D1F2F82EEFCFF6018191E5
:1033D0006F018093F1002197FFEFAF1ABF0ACECFA4
:1033E000FC01809195029091960286179707A0F0B4
:1033F0006115710529F49091E8009E779093E8009B
:1034000090E06115710551F4911108C08091E800B8
:1034100082FF34C080E00895BC01F2CF80918E021B
:103420008823C1F18530C1F18091E80083FD30C06F
:103430008091E80082FDEACF8091E80080FFE1CF33
:103440008091F3002091F200382F6115710519F079
:103450002830310558F091E02830310509F090E02E
:103460002091E8002E772093E800CBCF81918093C4
:10347000F100615071092F5F3F4FE7CF80918E02BD
:10348000882341F0853041F08091E80083FFBECF72
:1034900081E0089582E0089583E00895FC01809121
:1034A00095029091960286179707A0F06115710515
:1034B00029F48091E8008E778093E80090E0611510
:1034C000710551F4911108C08091E80082FF35C068
:1034D00080E00895BC01F2CF80918E028823C9F16B
:1034E0008530C9F18091E80083FD31C08091E8000A
:1034F00082FDEACF8091E80080FFE1CF8091F30068
:103500002091F200382F6115710519F0283031052E
:1035100058F091E02830310509F090E08091E80002
:103520008E778093E800CBCF84918093F100319621
:10353000615071092F5F3F4FE6CF80918E02882343
:1035400041F0853041F08091E80083FFBDCF81E0FC
:10355000089582E0089583E00895982F973028F029
:103560008F708093E90081E008959093E900242F03
:10357000762F50E0981731F07091EC002091ED001B
:103580005091F00021FD02C09F5FE8CF3091EB0029
:103590003E7F3093EB003091ED003D7F3093ED00A6
:1035A0003091EB0031603093EB007093EC0020938E
:1035B000ED005093F0002091EE0027FDE5CF80E074
:1035C000089580918F0287FF13C08091E80082FFE9
:1035D00006C08091E8008B778093E80004C080915A
:1035E0008E028111F2CF089580918E028823D9F343
:1035F0008091E80080FFF8CF8091E8008E77ECCFD3
:103600002091E4003091E50095E6A9012091EC00BD
:10361000822F817020FF06C08091E80080FF06C0E5
:1036200080E008952091E80022FD1AC080918E026A
:10363000882389F0853089F08091EB0085FD0FC0EB
:103640002091E4003091E50042175307F9F29150C0
:10365000E1F684E0089582E0089583E0089581E032
:1036600008950E94A01B0E94A81BE0EEF0E080815C
:1036700081608083E8EDF0E080818F77808319BCE2
:10368000A7EDB0E08C918E7F8C9380818F7E8083BC
:1036900010928D0208950F931F93CF93DF930E9492
:1036A000A01B0E94A81BC8EDD0E088818F7788837B
:1036B00088818068888388818F7D888319BC109277
:1036C0008E0210928A0210928C0210928B0200EEEF
:1036D00010E0F80180818B7F8083888181608883FE
:1036E00042E060E080E00E94AD1AE1EEF0E080810F
:1036F0008E7F8083E2EEF0E0808181608083808134
:1037000088608083F80180818E7F808388818061DA
:103710008883DF91CF911F910F910895E8EDF0E03C
:1037200080818F7E8083E7EDF0E0808181608083FF
:1037300084E082BF81E080938D020E944B1B08953C
:10374000E8EDF0E080818E7F80831092E2000895A2
:103750001092DA001092E10008951F920F920FB6B6
:103760000F9211242F933F934F935F936F937F9307
:103770008F939F93AF93BF93EF93FF938091E1005B
:1037800082FF0BC08091E20082FF07C08091E100C0
:103790008B7F8093E1000E940C1E8091DA0080FFF5
:1037A00019C08091D80080FF15C08091DA008E7F0B
:1037B0008093DA008091D90080FF96C080E189BDB6
:1037C00082E189BD09B400FEFDCF81E080938E02C5
:1037D0000E94ED178091E10080FF19C08091E20006
:1037E00080FF15C08091E2008E7F8093E20080917F
:1037F000E20080618093E2008091D8008062809333
:10380000D80019BC85E080938E020E940118809137
:10381000E10084FF2BC08091E20084FF27C080E19B
:1038200089BD82E189BD89B5982F917080FFFBCF5A
:103830008091D8008F7D8093D8008091E1008F7EA9
:103840008093E1008091E2008F7E8093E20080917E
:10385000E20081608093E20080918A02882309F46B
:1038600049C084E080938E020E940A188091E10092
:1038700083FF29C08091E20083FF25C08091E10091
:10388000877F8093E10082E080938E0210928A020B
:103890008091E1008E7F8093E1008091E2008E7F35
:1038A0008093E2008091E20080618093E20042E038
:1038B00060E080E00E94AD1A8091F0008860809303
:1038C000F0000E94FE17FF91EF91BF91AF919F9181
:1038D0008F917F916F915F914F913F912F910F90B9
:1038E0000FBE0F901F90189519BC10928E020E9467
:1038F000FB1770CF8091E30087FD93E090938E02D9
:10390000B3CF1F920F920FB60F9211242F933F93B4
:103910004F935F936F937F938F939F93AF93BF93D7
:10392000CF93DF93EF93FF93D091E900DF70809105
:10393000EC00C82FC17080FDC0E81092E9008091B2
:10394000F000877F8093F00078940E94C51C10924D
:10395000E9008091F00088608093F000CD2BCF705B
:10396000C093E900FF91EF91DF91CF91BF91AF91AB
:103970009F918F917F916F915F914F913F912F9187
:103980000F900FBE0F901F901895AAE2B0E0EBECDD
:10399000FCE10C94511E8FE892E02091F100FC01B3
:1039A0002193CF01F2E087399F07B9F70E942A18C7
:1039B0008091E80083FF1EC180918F029091900258
:1039C0009A3008F017C1E92FF0E0E45DF04E0C9456
:1039D0003C1E803899F0823809F00CC18091930226
:1039E0008F70873008F006C18093E9008091EB006A
:1039F00085FB882780F91092E90006C080918B0230
:103A000090918C02911182609091E800977F909341
:103A1000E8008093F1001092F1008091E8008E7729
:103A2000E5C0882309F4D3C0823009F0E3C0809157
:103A300091028111D6C0809193028F702FEF280FD1
:103A4000263008F0D7C08093E9002091EB0020FFDA
:103A5000C8C0933031F48091EB0080628093EB001A
:103A6000C0C09091EB0090619093EB0021E030E0BA
:103A700001C0220F8A95EAF72093EA001092EA002B
:103A80008091EB008860EACF8111B4C0109191025F
:103A90001F778091E3008078812B8093E3008091F1
:103AA000E800877F8093E8000E94E11A8091E80097
:103AB00080FFFCCF8091E30080688093E30082E088
:103AC000111183E080938E0295C08058823008F0F7
:103AD00091C080919102909192028C3D23E09207D7
:103AE000A1F583E08A838AE289834FB7F894DE01E7
:103AF000139620E03EE051E2E32FF0E050935700B0
:103B0000E49120FF03C0E295EF703F5FEF708E2FCE
:103B100090E0EA30C0F0C7968D939D932F5F2431DB
:103B200059F74FBF8091E800877F8093E8006AE2F1
:103B300070E0CE0101960E94F0198091E8008B7729
:103B40008093E80057C0C096E7CF609193027091D0
:103B50009402AE014F5F5F4F0E942B19BC01892B6D
:103B600009F448C09091E800977F9093E80089811C
:103B70009A810E944E1AE1CF8038E1F58091E800E9
:103B8000877F8093E80080918A028093F10045CF7F
:103B9000811130C090919102923060F58091E800DF
:103BA000877F8093E80090938A020E94E11A8091B7
:103BB0008A02882311F084E005C08091E30087FD2C
:103BC000FACF81E080938E020E94151813C0809175
:103BD0009102813079F481E0933009F080E08093A4
:103BE0008C021092E9008091E800877F8093E800C2
:103BF0000E94E11A8091E80083FF0AC08091E800EA
:103C0000877F8093E8008091EB0080628093EB00D7
:103C1000AA96E3E00C946D1E0895CF9380918E02D6
:103C20008823A1F0C091E900CF709091EC00892F1A
:103C3000817090FD80E8C82B1092E9008091E80027
:103C400083FD0E94C51CCF70C093E900CF910895F9
:103C500097FB072E16F4009407D077FD09D00E9439
:103C6000791E07FC05D03EF4909581959F4F0895ED
:103C7000709561957F4F0895EE0FFF1F0590F491A9
:103C8000E02D09942F923F924F925F926F927F9214
:103C90008F929F92AF92BF92CF92DF92EF92FF925C
:103CA0000F931F93CF93DF93CDB7DEB7CA1BDB0B08
:103CB0000FB6F894DEBF0FBECDBF09942A883988AD
:103CC00048885F846E847D848C849B84AA84B984B4
:103CD000C884DF80EE80FD800C811B81AA81B981C0
:103CE000CE0FD11D0FB6F894DEBF0FBECDBFED01D4
:103CF0000895AA1BBB1B51E107C0AA1FBB1FA61733
:103D0000B70710F0A61BB70B881F991F5A95A9F784
:103D100080959095BC01CD010895FB01DC0104C0A4
:103D20008D910190801921F441505040C8F7881BB3
:103D3000990B0895FB01DC0102C001900D924150E6
:103D40005040D8F70895F999FECF92BD81BDF89AF9
:103D5000992780B50895A8E1B0E042E050E00C94C6
:103D6000E71EDC01A40FB51F4150504048F0CB01C5
:103D7000840F951F2E910E94C21E41505040D0F7D3
:103D80000895262FF999FECF92BD81BDF89A01972B
:103D900000B4021639F01FBA20BD0FB6F894FA9A93
:103DA000F99A0FBE08950396272F0E94C21E0E9403
:103DB000C11E252F0E94C21E242F0C94C21E0196E4
:103DC000272F0E94C21E0C94C11EDC01CB01FC01F6
:103DD000F999FECF06C0F2BDE1BDF89A319600B464
:103DE0000D9241505040B8F70895F894FFCF1A044F
:103DF0001A046A046A04CF04EB0449044904F00479
:103E0000610570057005BC133014C4138E13921332
:103E1000C8139613CC13D813A2132914A613DC13BA
:103E2000AA13E0130814AE13E4130F14B413EA1327
:103E3000F2139A13D0139E13D413B813EE13FE1378
:103E4000181427148813C0133714EB14F114DA1460
:103E5000E514F714FD140315E91C111DFA1D111DBD
:0C3E6000FA1D441D651DFA1DBC1DC81D87
:103E6C000A02280850011E0A14019417C917C21718
:103E7C00BB1701E200E900EA00B500B600B700CDBF
:103E8C00008301CC008A01920194012102230224B7
:103E9C00022502260227022A02B300B4006F00702A
:103EAC00009F01CB019F02A002818283E200E90006
:103EBC00EA00B500B600B700CD008301CC008A0142
:103ECC0092019401210223022402250226022702D8
:103EDC002A02B300B4006F0070009F01CB019F0257
:0E3EEC00A00281828397C63435F73133323617
:00000001FF
