:100000000C94AF040C94E7040C94E7040C94E704FC
:100010000C94E7040C94E7040C94E7040C94E704B4
:100020000C94E7040C94E7040C94E4250C94B82693
:100030000C9422200C94E7040C94E7040C94E7043D
:100040000C94E7040C94E7040C94E7040C94E70484
:100050000C94E7040C94A9200C94E7040C94E70496
:100060000C94E7040C94E7040C94E7040C94E70464
:100070000C94E7040C94E7040C94E7040C94E70454
:100080000C94E7040C94E7040C94E7040C94E70444
:100090000C94E7040C94E7040C94E7040C94E70434
:1000A0000C94E7040C94E7040C94E7042B00140070
:1000B0001A000800150017001C0018000C001200A0
:1000C00013002A00290004001600070009000A0096
:1000D0000B000D000E000F0033003400E1001D0086
:1000E0001B00060019000500110010003600370043
:1000F00038002800E000E300E200007C2B002C0028
:100100002C00E6005000510052004F00444542557B
:10011000473A2064697361626C65642E0A00444545
:100120004255473A20656E61626C65642E0A006C28
:1001300065645F7461736B3A20253032580A004F52
:100140006E6573686F743A206163746976653A20EE
:1001500025640A000A002530313662003A20002565
:10016000303258000A722F63203031323334353642
:100170003738394142434445460A00313A096465FB
:100180006C6179282A31306D73293A2025750A323D
:100190003A09696E74657276616C286D73293A202C
:1001A00025750A333A096D61785F73706565643A45
:1001B0002025750A343A0974696D655F746F5F6D47
:1001C00061783A2025750A353A09776865656C5F6C
:1001D0006D61785F73706565643A2025750A363AFB
:1001E00009776865656C5F74696D655F746F5F6DD5
:1001F00061783A2025750A00703A097072696E7448
:100200002076616C7565730A643A097365742064BD
:10021000656661756C74730A75703A092B310A64EE
:100220006E3A092D310A6C743A092B31300A727416
:100230003A092D31300A4553432F713A09717569D6
:10024000740A0A7370656564203D2064656C74618E
:10025000202A206D61785F7370656564202A2028EC
:10026000726570656174202F2074696D655F746FAD
:100270005F6D6178290A77686572652064656C74C2
:10028000613A20637572736F723D25642C20776824
:1002900065656C3D25640A53656520687474703A21
:1002A0002F2F656E2E77696B6970656469612E6F9B
:1002B00072672F77696B692F4D6F7573655F6B651B
:1002C00079730A004D3E20004D25753A25733E2076
:1002D000003F0A003D2025750A003F0A006465665C
:1002E00061756C74730A0025750A003F0A000A09DB
:1002F0002D2056616C756573202D0A00710A000A65
:10030000092D204D6F7573656B6579202D0A003FAF
:1003100000433E20004C25640A000A092D20537436
:1003200061747573202D0A686F73745F6B657962F1
:100330006F6172645F6C65647328293A20253032DE
:10034000580A6B6579626F6172645F70726F746F67
:10035000636F6C3A20253032580A6B6579626F61A1
:1003600072645F69646C653A20253032580A74699A
:100370006D65725F72656164333228293A202530D9
:10038000386C580A002573000A092D20436F6E73DC
:100390006F6C65202D0A4553432F713A09717569B9
:1003A000740A6D3A096D6F7573656B65790A000A99
:1003B000092D204D61676963202D0A443A0944657F
:1003C000627567204D65737361676520546F676759
:1003D0006C650A583A094D61747269782044656207
:1003E0007567204D6F646520546F67676C65202DBD
:1003F0002053686F77206B657970726573736573CE
:1004000020696E206D617472697820677269640A70
:100410004B3A094B6579626F61726420446562757D
:100420006720546F67676C65202D2053686F7720B5
:100430006B65797072657373207265706F72740A80
:100440004D3A094465627567204D6F757365205498
:100450006F67676C650A563A0956657273696F6E05
:100460000A533A095374617475730A433A09416334
:1004700074697661746520436F6E736F6C65204D8F
:100480006F64650A46312D4631303A0953776974F5
:10049000636820746F204C6179657220302D39209B
:1004A00028463130203D204C30290A302D393A0978
:1004B00053776974636820746F204C61796572208A
:1004C000302D390A47524156453A095377697463CA
:1004D0006820746F204C6179657220302028616C2F
:1004E0007465726E617465290A423A094A756D70C5
:1004F00020746F20426F6F746C6F616465720A457F
:1005000053433A094A756D7020746F20426F6F74BF
:100510006C6F616465722028616C7465726E6174C1
:1005200065290A453A095072696E74204545505252
:100530004F4D2053657474696E67730A4241434B93
:1005400053504143453A09436C656172204545501B
:10055000524F4D0A006B65796D61705F636F6E6617
:1005600069672E7261773A20253032580A2E7377E8
:1005700061705F636F6E74726F6C5F636170736CD8
:100580006F636B3A2025750A2E636170736C6F631D
:100590006B5F746F5F636F6E74726F6C3A2025755A
:1005A0000A2E737761705F6C63746C5F6C6775693A
:1005B0003A2025750A2E737761705F7263746C5FE1
:1005C000726775693A2025750A2E737761705F6CC2
:1005D000616C745F6C6775693A2025750A2E7377B4
:1005E00061705F72616C745F726775693A2025751E
:1005F0000A2E6E6F5F6775693A2025750A2E73772C
:1006000061705F67726176655F6573633A20257517
:100610000A2E737761705F6261636B736C617368DC
:100620005F6261636B73706163653A2025750A2EA2
:100630006E6B726F3A2025750A2E737761705F6555
:1006400073636170655F636170736C6F636B3A2095
:1006500025750A0064656275675F636F6E6669671A
:100660002E7261773A20253032580A2E656E61620B
:100670006C653A2025750A2E6D61747269783A208E
:1006800025750A2E6B6579626F6172643A20257553
:100690000A2E6D6F7573653A2025750A00656563CE
:1006A0006F6E6669673A0A64656661756C745F6C43
:1006B000617965723A2025750A003F000A6D6F75F1
:1006C00073653A206F66660A000A6D6F7573653A46
:1006D000206F6E0A000A6B6579626F6172643A205E
:1006E0006F66660A000A6B6579626F6172643A2010
:1006F0006F6E0A000A6D61747269783A206F6666DF
:100700000A000A6D61747269783A206F6E0A000AF5
:1007100064656275673A206F66660A000A646562FE
:1007200075673A206F6E0A000A0A4A756D70696E25
:100730006720746F20626F6F746C6F616465722ED6
:100740002E2E2000433E2000436C656172696E6767
:1007500020454550524F4D0A00290A002575002FAB
:10076000002575005D280025640020002564002018
:100770000025640020002564007C002530325800EC
:100780006D6F7573656B6579205B62746E7C782024
:1007900079207620685D287265702F61636C293A34
:1007A000205B000A002530325820006B6579626FAB
:1007B0006172645F7265706F72743A2025303258CE
:1007C000207C200073757370656E64696E67206BA2
:1007D0006579626F6172640D0A005B575D005B535F
:1007E0005D005B525D005B445D005B435D00260382
:1007F000680061006E0064007700690072006500A7
:1008000064002F007200650063006C0069006E00D8
:100810006500640000000803700064006C000000C4
:100820000403090409025400030100A0FA090400AA
:100830000001030101000921110100012244000708
:1008400005810308000109040100010300000009FB
:100850002111010001227B0007058203200001090C
:10086000040200010300000009211101000122150A
:1008700000070583032000011201000200000008A8
:10088000EDFE00000100010200010631FF0974A124
:10089000010975150026FF00952075088102C00525
:1008A000010902A10185020901A100050919012917
:1008B0000815002501950875018102050109300917
:1008C000311581257F950275088106093815812526
:1008D0007F950175088106050C0A38021581257F70
:1008E000950175088106C0C005010980A101850335
:1008F00019012AB700150126B7009501751081006E
:10090000C0050C0901A101850419012AA0021501E5
:1009100026A002950175108100C005010906A101FC
:10092000050719E029E715002501950875018102E1
:100930009501750881010507190029FF150026FF9B
:10094000009506750881000508190129051500257F
:1009500001950575019102950175039101C011245E
:100960001FBECFEFDAE0DEBFCDBF04B603FE18C076
:100970008091A8039091A903A091AA03B091AB0321
:100980008730904BA740B04B59F41092A8031092B7
:10099000A9031092AA031092AB03E0E0F8E30995D3
:1009A00012E0A0E0B1E0E0EFF2E502C005900D92A8
:1009B000AC3CB107D9F723E0ACECB2E001C01D922A
:1009C000A83AB207E1F70E94F9150C9437290C9464
:1009D0000000FF93EF93E091CC02F091CD023097AD
:1009E00009F00995EF91FF910895FC018591803000
:1009F00011F0EFDFFBCF0895FF27E0E230E247FF81
:100A00000CC0419597FF09C0EDE260957095809507
:100A10009095611D711D811D911D27FF02C02195BB
:100A200030E350E2AA27660F771F881F991FAA1F7D
:100A3000A41710F0A41B63955A95A9F7AA3008F0E3
:100A4000A95FA05DAF93F3956115710581059105CF
:100A500041F7ED3211F4EF93F395F21718F43F9349
:100A6000F395FBCF8F91B5DFFA95E1F70895E99102
:100A7000F9918591803021F0853219F0AADFF9CF04
:100A8000089520E0E89455915532C1F3503311F4A4
:100A9000689455915A3348F4505390F3220F022E24
:100AA000220F220F200D250FF4CF0EF421958991EE
:100AB0009991533619F3533729F1533559F1BC0144
:100AC00088279927E8945C3621F489919991689454
:100AD0005591543639F446EF7EF077FF0DC08FEF15
:100AE0009FEF0AC055374AE039F0583540E121F010
:100AF000523642E009F00895FF93EF937DDFEF91C6
:100B0000FF91B7CFFF93EF93FC0181918030B9F350
:100B100060DFFBCFFF93EF9368DFF1CFDF93CF93DD
:100B2000CDB7DEB72596A3DFCF91DF910895811170
:100B300012C0643080F44C3070F4E42FF0E08CE0AC
:100B4000689FE00DF11D1124EE0FFF1FE455FF4FCC
:100B500085919491089581E090E008950E94970511
:100B6000089581E008950E94B105089581E00895F7
:100B70000E94B10508950E94B805089508950E9445
:100B8000BE050895A6E0B0E0E8ECF5E00C949328EB
:100B900049835A839E833091D30289819A8131118E
:100BA0001AC03E81332399F0222389F00E94310C30
:100BB000182F682F89819A810E940D0C69817A8192
:100BC000812F0E9425132696E3E00C94AF280E9403
:100BD0001F0C182FF3CF0E94310C69817A81F1CF5D
:100BE000FC01262F4081518162817381848195812E
:100BF0000E94C2050895CF93DF93EC0161E00E944B
:100C0000F005BE010E94B305DF91CF910895CF9307
:100C1000DF93EC0160E00E94F005BE010E94BF0579
:100C2000DF91CF91089521E030E0A90102C0440F87
:100C3000551F8A95E2F7CA010E942F0B0895CF93A2
:100C4000C82F81E090E00C2E02C0880F991F0A94F3
:100C5000E2F70E9480108C2F0E941306CF91089516
:100C600081E008950E9430060895CF93C82F0E9416
:100C7000E20A8C2F0E9432062FEF84E39CE0215081
:100C800080409040E1F700C00000CF91089581E0DE
:100C90000E9435060E94CD20089580E00E9435060E
:100CA0000E94F12008950F931F93CF93DF938C013F
:100CB00061E00E94F005EC01B8010E94BB058111C2
:100CC00006C080E0DF91CF911F910F910895B80188
:100CD000CE010E94F91D8823A1F3B801CE010E9424
:100CE0009B19882371F3B801CE010E9471198823E2
:100CF00041F3B801CE010E942714882311F3F801B3
:100D00008581882369F0C330FCE7DF07A1F160F437
:100D1000C130ECE7DE0789F1C0F4C115DC4791F082
:100D2000C8010E94B605CECFCB35ECE7DE0759F1FE
:100D3000CC35FCE7DF0721F1CA35DC4789F70E9493
:100D40005B10EECF0E944706BCCF90915803892FCD
:100D50008E7F90FF81608093580380FF09C08EE1F1
:100D600091E09F938F930E948E050F900F90A9CFD3
:100D70008CE091E0F6CF0E9463100E944D06A1CF57
:100D80000E945110CDCF0E945F10CACF0E94FE1F5B
:100D90000E940B0708950E940F070E9403200895E8
:100DA000829590E09C01220F331F220F331F2C7C71
:100DB00095958795959587958373282B30E0C90184
:100DC000880F991F8A7A359527952575822B089566
:100DD000CF93DF93D92F0E94D006C82F8D2F0E946A
:100DE000D0069C2FDF91CF91089581E0089508955A
:100DF000CF93DF93D82F0E94F506C82F882319F0D0
:100E00008D2F0E94F7068C2FDF91CF9108950895C2
:100E10000E94F806089580E00E94080708950E9445
:100E2000421E0E9408070895CF930E94421EC82FB9
:100E30008091CE028C1701F1C093CE020E948E20C9
:100E40006093CF027093D0028093D1029093D2022C
:100E5000809158038570853061F41F92CF938FE2A3
:100E600091E09F938F930E948E050F900F900F90AB
:100E70000F908C2F0E940807CF910895ADE0B0E04D
:100E8000E4E4F7E00C949428488759876A877B87C5
:100E90008C879D8791110E947E0F1F8286E0FE0144
:100EA0003896DE01119601900D928A95E1F78D81B9
:100EB00081110DC029813A814B815C816D817E81D8
:100EC0008F810E94C80E2D96E2E00C94B028CE01CE
:100ED00001960E94FB058111EDCFF5CFFC01248125
:100EE000213021F4808191810E94630C0895662352
:100EF00029F00E94FC1A0E94CF1B08950E94561BE5
:100F0000FACFCF93C82F8823C9F08238C9F40E9442
:100F10004F1E81FD13C089E30E94481F0E94ED0F00
:100F20002FEF87EE93E0215080409040E1F700C022
:100F3000000089E30E94501F0E94ED0FCF91089599
:100F40008338A1F40E944F1E80FDF8CF83E50E94F4
:100F5000481F0E94ED0F2FEF81EE94E0215080405A
:100F60009040E1F700C0000083E5E4CF8438A1F4AD
:100F70000E944F1E82FDE2CF87E40E94481F0E941C
:100F8000ED0F2FEF81EE94E0215080409040E1F78B
:100F900000C0000087E4CECF8CEF8C0F813A98F42C
:100FA0008C2F0E9411198111C9CF8C2F0E940D1F07
:100FB000882329F08C2F0E94501F0E94ED0F8C2F48
:100FC0000E94481FB9CF80E28C0F883048F4C77068
:100FD00081E001C0880FCA95EAF70E94610FACCF8B
:100FE000EBE5EC0FE33040F4F0E0E25BFE4F808194
:100FF00090E00E94AE1EA2CFE8E5EC0FEB3150F47A
:10100000F0E0EE0FFF1FE85EFE4F808191810E94AD
:10101000D31E94CF83E38C0F833108F08FCF61E030
:101020008C2F0E9477078ACF882309F456C0823814
:1010300079F40E944F1E81FF50C089E30E94481F2F
:101040000E94ED0F89E30E94501F0E94ED0F08954A
:10105000833859F40E944F1E80FF3FC083E50E94F1
:10106000481F0E94ED0F83E5EECF843859F40E94AB
:101070004F1E82FF32C087E40E94481F0E94ED0F7E
:1010800087E4E1CF9CEF980F913AE8F290E2980F55
:10109000983050F4877091E001C0990F8A95EAF773
:1010A000892F0E94670FD1CF9BE5980F933028F4CA
:1010B00090E080E00E94AE1E089598E5980F9B3165
:1010C00028F490E080E00E94D31E089593E3980FE7
:1010D000933118F460E00E94770708951F93CF932F
:1010E000DF93182FEB010E948107209739F4812F9D
:1010F0000E941408DF91CF911F9108958FE99FE01E
:101100000197F1F700C000002197EFCF70E060E099
:10111000893311F460E570E00E946E080895882319
:1011200021F00E94610F0E94ED0F0895882321F0A5
:101130000E94670F0E94ED0F0895B0E0A0E0E3EA7F
:10114000F8E00C948D286C01D62FC72FFC01158177
:10115000068102950F700E94570FE82E8823F9F040
:10116000E12E1123E1F08C2F807F803461F080E24A
:101170008D0F883008F18C2F807E803221F4D230A0
:10118000D8F00023C9F08091860382FF15C082E069
:101190000E9412100E94570F91E0E82EE926BC2E03
:1011A000B2949FE0B922FBE0FB15B8F1EB2DF0E023
:1011B000E75CF64D0C947E28E12CF1CF0C2F0F70DC
:1011C000C07F11F00295007F112399F0002359F0A0
:1011D00080E28D0F883010F0D11107C0802F0E945F
:1011E000610F0E94ED0F8D2F5AC0802F0E94710F4A
:1011F000F8CF8D2F0E941408002379F080E28D0F24
:10120000883010F0D11104C0802F0E94670F03C0F6
:10121000802F0E94770F0E94ED0FEB2DE850FF0BFF
:10122000349720F40E94421E0E940807EE2089F0A5
:101230000E94530F80FD0DC0F60115820E944D0FD4
:101240000E946B0BC6010E94A90A0E944D0F0E94CA
:101250007B0BCDB7DEB7E9E00C94A9282C2F2F70BB
:10126000F22EC07FC03219F0F29480EFF822DD2315
:1012700041F0D130D1F1112309F444C00023F1F041
:10128000B2CF8091860382FD15C0112359F0FF2053
:1012900029F08F2D0E94610F0E94ED0F80E00E94C7
:1012A0008107BBCF80E00E941408FF2009F4B5CF6E
:1012B0008F2DABCF112369F0011104C08F2D0E9437
:1012C0008F08ABCF013009F0A8CF8F2D0E94950F6A
:1012D000A4CF0111A2CF8F2D0E9496088F2D0E94BE
:1012E000A10F8F2D0E94850F98CF112321F006307A
:1012F00008F093CFE3CF053008F08FCF8F2D0E94F9
:1013000096088BCF0023D1F3D93349F43FEF87EE12
:1013100093E0315080409040E1F700C000008D2FF5
:101320000E9414087ACF8C2F86958695837069F079
:10133000813009F072CF8D2F9C2F9370111102C054
:1013400080E090E00E94D31E68CF8D2F9C2F937079
:10135000111102C080E090E00E94AE1E5ECF612FAE
:101360008D2F0E94770759CF8C2F8370A1F5111113
:1013700054CF4D2F429546954770440F440F2D2F63
:101380002F7030E0042E02C0220F331F0A94E2F7C0
:1013900090E080E0D4FF09C08FE090E002C0880FA9
:1013A000991F4A95E2F780959095C695C695C370AA
:1013B000822B932BC23049F058F4C13019F00E94AF
:1013C0003B0B2BCF0E94320B28CF0E94440B25CF22
:1013D0000E942F0B22CF8695112311F08C2F817044
:1013E000882309F41ACF4D2F429546954770440F34
:1013F000440F2D2F2F7030E0042E02C0220F331F18
:101400000A94E2F790E080E0D4FF09C08FE090E01A
:1014100002C0880F991F4A95E2F780959095C6956E
:10142000C695C370822B932BC23049F058F4C1305B
:1014300019F00E94A60BF1CE0E949D0BEECE0E94E9
:10144000AF0BEBCE0E94530BE8CECF70112329F0E7
:101450008C2F0E946B0B8D2F32CF8D2F0E94960800
:101460008C2F0E947B0BD9CED23F41F160F4D03F4C
:10147000B9F0D13F81F0112309F443C00111B3CE7B
:101480008C2F8F711FC0D33F01F1D43FA1F7809102
:10149000860382FD24C08C2F8F71112311F312C09B
:1014A000112341F0053008F0B8CE8C2F8F710E94C7
:1014B0008D0BB3CE063008F0B0CEF7CF8C2F8F71E6
:1014C0001111CFCF0E946B0BA8CE112329F08C2FC6
:1014D0008F710E945F0BA1CE0E945A0B9ECE1123EA
:1014E00031F063E08C2F8F710E94F40F96CE81E073
:1014F0000E941210023008F490CE82E00E94121076
:101500008CCE002359F0D93309F009CFEFEFF7EE75
:1015100023E0E150F0402040E1F7FFCE8C2F8F71A7
:10152000A0CF0F931F93CF93DF93EC016881798154
:101530008D810E946E0C8C010E94B80B0E942E0BB4
:10154000B801CE010E949D08DF91CF911F910F91AC
:101550000895CF93DF93EC018C81882399F0CE011D
:101560000E945306811111C00E94570F882351F029
:101570008D81882339F08091860382FF03C082E049
:101580000E941210DF91CF910895CE010E94910A1E
:10159000CE010E940706F6CF90E080E00E94AE1ECA
:1015A00090E080E00E94D31E0E947E0F0E94ED0F0B
:1015B0000E94851C0E94CF1B08950E94581F0E9404
:1015C000CC0A08950E946E0F0E94DD0A089592953C
:1015D0009F70963091F058F4925F9F70923058F45B
:1015E000803F19F030F4883E30F481E008959A5F2E
:1015F000F4CF843FD1F380E00895883EB0F3813F7B
:10160000D1F7F3CFFC012481222339F0808191812D
:101610000E94630C0E94E70A089580E00895A6E006
:10162000B0E0E5E1FBE00C9494282696E2E00C940F
:10163000B028A7E0B0E0EFE1FBE00C9494282796F7
:10164000E2E00C94B02808950E94230B08950E94B4
:10165000240B9093EF028093EE02089508950E9468
:10166000270B08952091EE023091EF02822B932BED
:101670000E94270B08952091EE023091EF02822301
:1016800093230E94270B08952091EE023091EF02E0
:10169000822793270E94270B08950E94230B089509
:1016A0000E944D0B08950E94500B9093ED02809381
:1016B000EC02089590E080E00E94530B089521E031
:1016C00030E0A90102C0440F551F8A95E2F7CA0114
:1016D0000E94530B089521E030E002C0220F331F17
:1016E0008A95E2F78091EC029091ED02822B932B88
:1016F0000E94530B089521E030E002C0220F331FF7
:101700008A95E2F7209530958091EC029091ED0258
:10171000822393230E94530B089521E030E002C0FE
:10172000220F331F8A95E2F78091EC029091ED022F
:10173000822793270E94530B08952091EC02309149
:10174000ED02822B932B0E94530B08952091EC0203
:101750003091ED02822393230E94530B0895209130
:10176000EC023091ED02822793270E94530B0895DB
:101770000895262F277091E001C0990F2A95EAF766
:1017800023E0769567952A95E1F7660F771F660F38
:10179000771FFA01E60FF71F50E040E0682F70E076
:1017A0008191DF0111979B01042E02C03695279588
:1017B0000A94E2F7217021952827292328272C93C2
:1017C0004F5F5F4F4430510559F70895A82FA77018
:1017D00023E0969587952A95E1F7880F991F880F42
:1017E000991FFB01E80FF91F50E040E080E02191D4
:1017F00030E00A2E02C0369527950A94E2F7217050
:101800003327042E01C0220F0A94EAF7822B4F5F80
:101810005F4F4430510559F70895262F943070F4E6
:101820008C3060F4682F70E08CE0989F600D711D23
:10183000112444ED52E0822F0E94B90B0895292F04
:10184000943068F48C3058F490E064ED72E03CE041
:10185000239F800D911D11240E94E60B089580E0C6
:101860000895B0E0A0E0E7E3FCE00C948D287C0153
:101870000091EC021091ED028091EE029091EF0246
:10188000082B192BCFE0D0E0CC24C394D12CBC2E54
:10189000C6010C2E02C0880F991F0A94E2F780231C
:1018A0009123892B49F4219790F7B12C8B2DCDB73B
:1018B000DEB7E9E00C94A928B7018C2F0E94311300
:1018C000019789F3F3CFCF93DF93EC010E94310CA2
:1018D000BE010E943113DF91CF9108951F93CF93E2
:1018E000DF93EB019091D302992339F0CB010E9451
:1018F000630CDF91CF911F910895882369F0CB018C
:101900000E94310C182F682FCE010E940D0CBE01D1
:10191000812F0E943113EDCFCB010E941F0C182F95
:10192000F6CF1F93CF93DF93C091F00217E0809121
:10193000F1028C1304C0DF91CF911F910895D0E084
:101940001C9FF0011D9FF00D1124EE50FD4F2081D2
:101950003181428153816481758186810E94190B96
:101960002196C770E4CF20912A0330912B03409138
:101970002C0350912D0360912E0370912F038091C1
:1019800030030E94190B0895CF93DF9380913003A9
:10199000807F09F04DC080912F03882309F448C04F
:1019A000E091F0025091F102C0912B03D0912A03F3
:1019B00060912C0370912D0347E05E17C9F18E2FC3
:1019C00090E0E49FF0011124EE50FD4F248122238A
:1019D00091F1489FF001499FF00D1124DF01AE50B5
:1019E000BD4F11962C9111972C1325C02C912D13BE
:1019F00022C015962C91159721111DC012962D917C
:101A00003C91261B370B283C3105A8F4809130030C
:101A10008F70806180933003E850FD4F80818F701C
:101A2000806180838AE293E00E94A90A0E94910C5F
:101A3000DF91CF910895FC013196E770BECF482F1A
:101A40002091F0029091F10257E0291302C080E04A
:101A5000089530E0529FF001539FF00D1124EE5095
:101A6000FD4F8181681306C08081481303C08581C2
:101A70008111EECF2F5F3F4F2770E7CFA4E1B0E099
:101A8000E4E4FDE00C948A288C0186E0F801DE0194
:101A90001F9601900D928A95E1F7F8018481E58007
:101AA0009AE2A92E93E0B92E90912E0391111FC0B6
:101AB0008823D1F0EE20A9F0C8010E94020BF82E75
:101AC000882379F087E0F801D50101900D928A957D
:101AD000E1F7C5010E946E070E94C40C0E94B30C7E
:101AE0005FC0C8010E94A90AFF24F39459C0C080B6
:101AF000D18082809380F0902F0320912C0330912D
:101B00002D03A401421B530BFF2009F4F9C0483CEC
:101B1000510508F0A7C0882309F442C090912B0317
:101B200080913003282F207F09F05CC09D1116C0E2
:101B300090912A03C91212C0E1104EC08F708061CB
:101B4000809330030E94B30C8AE293E00E94A90ABA
:101B500080913003F8018683F12C22C0E1103CC053
:101B60006D2D8C2D0E941F0D6D2D8C2D0E941F0D33
:101B7000E82E8111F1CFCF86D88A8F8598890E946F
:101B8000630C292F22952F70243078F49F70223017
:101B9000A8F09923B9F0F8019681907F99F4FE2C72
:101BA0008F2D6496ECE00C94A6282A5F2F702230CB
:101BB00068F0C8010E94A90AEF2CF1CF992311F017
:101BC000882369F3805E883050F3F3CF803F38F389
:101BD000815F833070F7E3CF809130038160809321
:101BE0003003BACF9D1113C090912A03C9120FC0C0
:101BF000E1100DC08683C8010E94A90A87E0F801A0
:101C0000AAE2B3E001900D928A95E1F767CFC8018F
:101C10000E94020B882309F464CFEE2009F461CFFF
:101C200080913003803288F020912A0330912B0379
:101C3000398728879B868A8690912E039C871D86EC
:101C40008E87CE0108960E94A90A87E0F801AAE2D1
:101C5000B3E001900D928A95E1F70E94C40C0E94B6
:101C6000B30C42CF90913003292F207FA1F4682D2F
:101C70009A8A898AA6017A899E2D0E940F0B8AE290
:101C800093E00E94A90A87E0F50111928A95E9F78D
:101C90000E94B30C61CF882309F482CF80912B037B
:101CA0008D1110C080912A03C8120CC0E1100AC027
:101CB0009683C8010E94A90A87E0F50111928A95CE
:101CC000E9F76ECFC8010E94020B882309F409CFFF
:101CD000EE2009F406CF80913003803208F4B5CFAE
:101CE00020912A0330912B033A8329839C828B8293
:101CF00090912E039D831E828F83CE010196A3CFE8
:101D0000483C5105B8F5882309F4EECEFE2CEE20B0
:101D100009F4E7CE80912B038D111EC080912A0318
:101D2000C8121AC08091300380FD0DC0982F907F9B
:101D300051F08683903F09F45ECF982F907F905F9B
:101D40008F70892B57CF87E0F801AAE2B3E00190AA
:101D50000D928A95E1F724CFC8010E94020B8111F0
:101D600074CF80913003816080933003C8010E945A
:101D7000A90A16CF682D9A8A898AA6017A899E2D8A
:101D80000E940F0B87E0F50111928A95E9F7A6CE24
:101D9000AEE0B0E0EEECFEE00C94932828873987A3
:101DA0004A875B876C877D878E87CE0108960E9465
:101DB0003E0D8823B1F06C85662341F02885398576
:101DC0004A855B857D858E850E94190B17E0809181
:101DD000F0029091F10289133DC02E96E3E00C943D
:101DE000AF2887E0FE013896DE01119601900D9232
:101DF0008A95E1F78C85882349F32091F10230E040
:101E0000C9010196877099274091F0024817190679
:101E100099F097E0929FD001939FB00D1124AE509E
:101E2000BD4FFE01319601900D929A95E1F7809396
:101E3000F1020E94910CCACF0E94E20A1092F102B4
:101E40001092F00287E0EAE2F3E0DF011D928A954A
:101E5000E9F7BCCF819FC00111248E509D4F0E9495
:101E60003E0D882309F4B9CFE091F0021E9FF001E6
:101E70001124EE50FD4F20813181428153816481D4
:101E8000758186810E94190B8091F00290E0019685
:101E9000877099278093F0029ACF809139038695B5
:101EA000869586950895809139038770089590915D
:101EB0003903977081E009F480E00895809145032B
:101EC000089590914503892B80934503089580954B
:101ED00090914503982390934503089510924503EC
:101EE000089590914403892B80934403089580952D
:101EF00090914403982390934403089510924403CF
:101F0000089508950E94810F089590913A03292F12
:101F1000282331F08095892380933A030E94820F11
:101F2000089508950E94910F089590913B03292FE1
:101F30002823281729F0982B90933B030E94920F97
:101F4000089590913B03292F282331F08095892310
:101F500080933B030E94920F089580913B03882356
:101F600029F010923B0380E00E94920F08950F9396
:101F70001F93CF93DF930091000110910101C09155
:101F8000450380914403C82B80913B03882331F0A3
:101F9000C82B0E94F81E81110E94AD0FF801C0836A
:101FA000C0910001D091010148E050E061E373E08D
:101FB000CE010E94CF28892B59F088E0FE01A1E3D1
:101FC000B3E001900D928A95E1F7CE010E94521E76
:101FD000DF91CF911F910F9108950E94B70F08953F
:101FE00008950E94F00F08959091860392FF11C00A
:101FF00098E0899F90011124622B609339030E941D
:102000006B0B809139038695869586950E94F10F1A
:1020100008950E946B0B08951092390380E00E948E
:10202000F10F0895909139038095892380933903A6
:10203000282F277069F4891759F09091860392FF31
:1020400007C08695869586950E947B0B0E940C1092
:102050000895CF93C82F8091860382FB992790F92A
:102060009C17E9F0C0FB82F9809386038091850379
:10207000909186030E948B1082E00E941210809142
:10208000580380FF0CC01F92CF938FE391E09F9382
:102090008F930E948E050F900F900F900F90CF910D
:1020A00008958091860382FB882780F991E0892733
:1020B0000E942910089581E00E942910089580E06F
:1020C0000E94291008956FEF7FEF90E080E00E945A
:1020D0002129089590E080E00E94ED2821E0853ECE
:1020E0009E4F09F020E0822F089582E090E00E9448
:1020F000E528089583E090E00E94E52890E00895A7
:10210000682F83E090E00E940329089584E090E026
:102110000E94ED280895BC0184E090E00E942129EE
:102120000895AB01BC018FE090E00E94152908954D
:10213000AB01BC0183E190E00E941529089560E0A5
:1021400070E0CB010E949810089560E070E0CB0130
:102150000E9491100E949F100895A8E0B0E0E3EB68
:10216000F0E10C94942865EE7EEF90E080E00E9410
:10217000212960E082E090E00E94032981E090E064
:102180009093EF028093EE020E94801060E074E171
:1021900084E090E00E94212960E086E090E00E94C7
:1021A000032960E087E090E00E94032940E050E0CE
:1021B000BA0188E090E00E94152960E083E290E097
:1021C0000E94032960E08CE090E00E94032960E017
:1021D0008DE090E00E94032919821A821B821C82E2
:1021E0001D821E821F82188648E050E067E170E081
:1021F000CE0101960E94F32840E050E0BA018FE141
:1022000090E00E9415290E94A5102896E2E00C9407
:10221000B0280E94AD100895682F8EE090E00E94D3
:1022200003290895A6E0B0E0E8E1F1E10C949228DA
:102230000E9482208C018091460390914703801771
:10224000910781F019821A820E948220682F4981A9
:102250005A81792F80E090E00E943E071093470357
:10226000009346032696E4E00C94AE280E948E204C
:1022700060935403709355038093560390935703D0
:1022800060935003709351038093520390935303D0
:102290000895089508950E944911089508950E948F
:1022A0004E1108958EEA92E20E9410160E944A1181
:1022B0000E944B11089581E008950E945B110895DA
:1022C0000E945B110895089508950E9463110E9471
:1022D000641108950E946A10811102C00E940911C0
:1022E0000E947510809358030E9486109093860375
:1022F000809385030E947A100E942F0B8091EC023C
:102300009091ED020E94500B08950E9479200E9446
:1023100050150E946A110E9407070E944F110895EC
:10232000A6E0B0E0E6E9F1E10C9488280E945D1196
:1023300081110AC00E9412110E94A71C0E9414075A
:102340002696EEE00C94A4280E94661528E4822EBE
:1023500023E0922E640110E0F601E190F1906F010C
:10236000812F0E9441141F5F143009F44BC0E816FE
:10237000F90691F38091580381FD0E944A140E944E
:102380006011782E10E066246394812F0E9441141E
:102390007C01F401A190B1904F018A159B0561F178
:1023A00000E0CC24C394D12CAE24BF24C5018C21E1
:1023B0009D21892BC1F07720B1F009831A830E94F7
:1023C00082209C838B836D8221E0C7018C219D211B
:1023D000892B09F420E049815A816B817C818D81B0
:1023E000922F0E943E070F5FCC0CDD1C0C30F1F6E3
:1023F000F4013297F182E0821F5F143031F60E94BF
:1024000036119ACFE816F90609F0B4CF93CF1F938F
:10241000CF93DF930E943613EC01C11580E5D807F6
:10242000F0F5C11580E4D80708F09CC0C03ED10586
:1024300020F5CD3CD10508F082C0C83AD10578F42A
:10244000C53AD10508F073C0C130D10519F1209704
:1024500009F1C430D105F0F4D0E0C0E01BC0C33CAA
:10246000D105D0F7C85AD0E0CC0FDD1FCF5ADE4FD0
:102470000990D881C02DD4640DC0C11580E2D80761
:1024800008F0D1C0C11581E0D80708F05AC0C83E95
:10249000D10510F7CE01DF91CF911F910895C0367D
:1024A00082E5D80718F5C03482E5D80708F06BC07C
:1024B000C03282E5D80708F05FC0C11582E5D807B1
:1024C00008F497C02C2F2695269580E2289F90012E
:1024D00011248C2F8370C1E0D0E002C0CC0FDD1F2F
:1024E0008A95E2F7C22BD32BDD68D4CFC03A82E5C0
:1024F000D80760F4C03882E5D80708F459C0CF7116
:10250000D0E0DC2FCC27C46FD06AC4CFC03C82E5BA
:10251000D80708F462C0C03E82E5D80708F09CCF17
:10252000DC2FCC27CC27DF71C06FD06AB3CFC55A60
:10253000D0E0C957DE4FC881D0E0D064ABCFD065C2
:10254000A9CF8D2F0E94D813182FCE0199270E9452
:102550003613C12FD0E0DC2FCC27CC27DF71C82B5E
:10256000D92B98CFCE0199270E943613CC27DF7044
:10257000C82BD92BD06A8ECFCF71D0E0DC2FCC27DF
:10258000C16FD06A87CF2C2F26952695277080E2C1
:10259000289F900111248C2F8370C1E0D0E002C0ED
:1025A000CC0FDD1F8A95E2F7C22BD32BDC6872CFEC
:1025B0002C2F26952695277080E2289F90011124C4
:1025C0008C2F8370C1E0D0E002C0CC0FDD1F8A9554
:1025D000E2F7C22BD32BDA685DCF8C2F8F710E946C
:1025E000D813C82FD0E0DC2FCC27CC27DF71D062E6
:1025F00051CF8C2F8F710E94D81355E0D695C79577
:102600005A95E1F7CF70D0E0DC2FCC27282F30E0AF
:1026100084FF05C044E0220F331F4A95E1F7C22B27
:10262000D32BD06937CF8D2F8F710E94D813182FDD
:10263000CE0199270E943613C12FD0E0DC2FCC2782
:10264000CC27DF71C82BD92BD2CF462F743030F472
:102650006C3020F4672F0E94AE05089590E080E072
:1026600008950E9425130E9407120895823891054B
:10267000B9F1B0F48133910509F47DC048F4893291
:10268000910509F46DC08A32910509F47BC0089563
:102690008533910509F45FC08933910509F10895E7
:1026A000833E9105D9F138F4803E910529F1823EAF
:1026B000910579F10895863E9105D9F1873E9105FE
:1026C00009F43EC0843E910541F52091860321FF27
:1026D00024C08091850384FD19C087EE90E00895A1
:1026E00020918503237009F05AC02091860323FFAF
:1026F00014C089E290E008952091850320FD38C040
:102700003091860330FF09C024FF43C090E080E091
:1027100008952091850322FDF7CF08952091850328
:1027200022FD3AC03091860330FD39C024FFF5CF39
:10273000EDCF2091850323FFF0CF24FDE7CFCDCF50
:102740002091850323FD2EC03091860331FFEECF0B
:1027500084EE90E008952091850325FFDECFC9CF58
:102760002091850325FD21C02091860323FFD5CF2D
:1027700089E390E0D2CF2091850326FFCECF8AE275
:1027800090E008952091850326FFC7CF81E390E074
:10279000089583EE90E0089582EE90E0089580EE33
:1027A00090E0089586EE90E0089585E390E0089526
:1027B0009091850392FF10C041E0282F24712430AE
:1027C00009F040E031E0282F2871283009F030E08E
:1027D000431711F02CE0822793FF10C041E0282F0F
:1027E0002471243109F040E031E0282F287128318C
:1027F00009F030E0431711F02CE082273091860376
:1028000030FF10C051E0282F2171213009F050E035
:1028100041E0282F2871283009F040E0541711F0CA
:1028200029E0822731FF10C041E0282F217121319A
:1028300009F040E031E0282F2871283109F030E01C
:10284000431711F029E0822794FD877E0895CF93E6
:102850009C01205E3245C1E02032310538F4FB0195
:10286000C581C11103C08F710E941F068C2FCF91AB
:10287000089508950E943914089508950E943D1402
:102880000895E82FF0E0EE0FFF1FE157FC4F808125
:1028900091810895B0E0A0E0E0E5F4E10C948A288D
:1028A00084E691E09F938F930E948E058FE8E82E37
:1028B00083E0F82E0F900F90912C812C9FE5A92E8C
:1028C00091E0B92E2CE5C22E21E0D22E06E511E0D2
:1028D000C4E5D1E09F928F92BF92AF920E948E0585
:1028E000DF92CF920E948E05F701819191917F0135
:1028F0000E94E8069F938F931F930F930E948E056B
:10290000DF93CF930E948E059FEF891A990AEDB746
:10291000FEB73C960FB6F894FEBF0FBEEDBFF4E0D5
:102920008F169104B9F6CDB7DEB7ECE00C94A6286B
:1029300080EA8A95F1F7089500C008950E949814DE
:102940000895F894E82FE295EF70F0E031A1282F78
:102950002F7081E090E001C0880F2A95EAF7982F48
:102960009095932391A392A1892B82A378940895A3
:10297000CF93DF93CAE8D1E089918F3F11F00E9495
:10298000A11481E0C639D807B9F783E90E94A114E0
:1029900086E60E94A11486E30E94A11485E30E94AA
:1029A000A114DF91CF9108958F929F92BF92CF9201
:1029B000DF92EF92FF920F931F93CF93DF93D82E66
:1029C000E92EF62E8A01C62FD0E0C657DE4F2881A9
:1029D0002F3F09F453C0F894E22FE295EF70F0E036
:1029E00031A12F7081E090E001C0880F2A95EAF7AD
:1029F000932F982B91A392A18095892382A37894F9
:102A00000E949C1486E9882E81E0982EED2DFE2DE3
:102A1000BF01685F7F4FE12C6801C094D094D4015E
:102A2000BD904D0181919191AF0142505109BFEF8D
:102A3000BB1681F12B2D22952F7030E0D901909695
:102A40002C9130E0BB2DBF7002C035952795BA950B
:102A5000E2F720FD1FC0802B912BDA018D939C9310
:102A6000EE24E3946E177F07D1F688818F3F11F033
:102A70000E94A1146E2D8F2D0E949E14DF91CF9184
:102A80001F910F91FF90EF90DF90CF90BF909F909C
:102A90008F9008958C219D21DA018D939C93E2CF34
:102AA0000E94B81488E0EFE8F3E0DF01982F1D9250
:102AB0009A95E9F7E7E8F3E0DF011D928A95E9F7D7
:102AC00084E00E94BA150E943A140895CF92DF92D2
:102AD000FF920F931F93CF93DF93CDB7DEB7289765
:102AE0000FB6F894DEBF0FBECDBF8E010F5F1F4F34
:102AF00088E0F80111928A95E9F7F12CCC24C3946F
:102B0000D12CA6016F2DC8010E94D414F394CC0CD3
:102B1000DD1CFCE0FF12F5CF48E050E0B80187E88B
:102B200093E00E94CF2821E0009709F420E0892B50
:102B300041F088E0F801A7E8B3E001900D928A9592
:102B4000E1F744E06FE873E087E893E00E94BB158B
:102B5000182F0E943E14812F28960FB6F894DEBFDE
:102B60000FBECDBFDF91CF911F910F91FF90DF90EE
:102B7000CF9008950895B0E0A0E0E1ECF5E10C9469
:102B80008E286C017B01042FC22F222379F081E073
:102B900080935B030E94822090935A038093590391
:102BA00080E0CDB7DEB7E8E00C94AA28D0915B03B3
:102BB000DD23B1F38091590390915A030E949A202A
:102BC000059770F310E0000F111FA801B601C701AF
:102BD0000E94CF28892B31F0A801B601C7010E94BD
:102BE000DC28CD2F10925B038C2FDBCF0E9490113D
:102BF00008950E941B200E9410230E9452110E94DF
:102C00002A230E9485110E9437230E943C230E94A0
:102C1000F6150E9462230E9445210E946511F5CF9E
:102C20009093CD028093CC020895809102011F926F
:102C30008F93809103011F928F93809106011F92C1
:102C40008F93809107011F928F93809108011F92AB
:102C50008F93809109011F928F938BE791E09F934F
:102C60008F930E948E058DB79EB70E960FB6F8947F
:102C70009EBF0FBE8DBF0895883248F58E3108F093
:102C80007FC08B3069F130F4873009F4E0C08AED01
:102C900092E0F1C0833109F468C08431C1F78CEF50
:102CA00092E09F938F930E948E050F900F908091DA
:102CB0006003882309F411C11092600310925F032E
:102CC00010925E0310925D0310925C0325C08F3456
:102CD00009F4D6C008F03FC0893209F38833B9F649
:102CE0008FEF92E09F938F930E948E050E9415169E
:102CF0001F9281E08F931F9288E08F9388EF91E07D
:102D00009F938F930E948E058DB79EB708960FB63E
:102D1000F8949EBF0FBE8DBF20916003222309F45B
:102D2000D3C080915C0390915D03009711F48AE910
:102D300091E09F938F931F922F9388EC92E09F9343
:102D40008F930E948E050F900F900F900F900F9011
:102D50000F9081E00895813509F4A6C008F4A6C05B
:102D6000823509F094CF81E08CC08EEE92E09F9383
:102D70008F930E948E050E9415160F900F90CCCF56
:102D80008D5180936003833009F446C078F481301C
:102D9000E1F08230C1F1109260038BEE92E09F93DC
:102DA0008F930E948E050F900F901BC0853009F401
:102DB00045C0D8F1863079F782E091E090935F03C7
:102DC00080935E0382EE91E008C089E091E09093E9
:102DD0005F0380935E038EE991E090935D0380939F
:102DE0005C0380916003882309F496CF1F928F9330
:102DF00087EE92E09F938F930E948E050F900F9025
:102E00000F900F9089CF88E091E090935F038093BB
:102E10005E0387EA91E0E1CF87E091E090935F0362
:102E200080935E0383EB91E0D8CF86E091E09093AE
:102E30005F0380935E0380EC91E0CFCF83E091E06D
:102E400090935F0380935E038FEC91E0C6CF81E0A7
:102E50008093090184E1809308018AE0809307014F
:102E60008EE18093060188E08093030188E28093DD
:102E700002018DED92E09F938F930E948E057DCF8E
:102E80008AE0E0915E03F0915F033097D1F02081FA
:102E9000082E000C990B820F911D8F3F910541F078
:102EA0003CF08FEF808307C08FEFEBCF86EFE9CF49
:102EB00097FFF8CF108280811F928F9384ED92E06C
:102EC00099CF81ED92E0D7CF84EC92E09F938F93DE
:102ED0000E948E050F900F903CCF80E00895CF9315
:102EE000C82F1F928F9385E193E09F938F930E9449
:102EF0008E0581E090E002C0880F991FCA95E2F725
:102F00000E942F0B0E94E20A0F900F900F900F90DB
:102F1000CF910895EF92FF920F931F93CF93DF937A
:102F20008B3109F426C108F0B4C08B3009F4D2C04B
:102F300008F086C0863009F4E6C068F4853009F4EC
:102F4000B6C08AEB96E09F938F930E948E050F90F8
:102F50000F9080E0F0C0873009F4F2C0883089F724
:102F60000E947A109F938F938DE996E09F938F93A1
:102F70000E948E050E94751083FB992790F91F927D
:102F80009F9382FB992790F91F929F9381FB99272A
:102F900090F91F929F93982F91701F929F931F9269
:102FA0008F9384E596E09F938F930E948E050E94F5
:102FB000861093FB222720F91F922F9387FB22274D
:102FC00020F91F922F9386FB222720F91F922F931F
:102FD00085FB222720F91F922F9384FB222720F9BB
:102FE0001F922F9383FB222720F91F922F9382FB9E
:102FF000222720F91F922F9391FB222720F91F925D
:103000002F93292F21701F922F9381FB222720F9C4
:103010001F922F93282F21701F922F939F938F938E
:1030200085E595E09F938F930E948E058DB79EB79F
:103030008A960FB6F8949EBF0FBE8DBF81E07BC00D
:10304000803109F4B0C080F48E3009F07ACF9091CD
:103050005803892F8B7F92FF84608093580382FFEF
:103060009FC085EE96E091C0863109F4ACC08931ED
:1030700009F067CF87EF91E09F938F9385E893E006
:103080009F938F930E948E050F900F900F900F903B
:10309000D5CF8A3269F1A0F4873231F128F48E312C
:1030A00008F44FCF8D5121C0893209F04ACF88E210
:1030B00097E09F938F930E948E050E94470620C041
:1030C000833478F48A3308F0A5C0853369F08833F7
:1030D00009F037CF8FEA93E09F938F930E948E057C
:1030E0000FC0833409F02DCF80E00E946F17A6CF68
:1030F00088E497E09F938F930E948E050E940911A8
:103100000F900F909BCF80915803807F809358033E
:1031100088E893E09F938F930E948E0584E497E064
:103120009F938F930E948E0581E0809361030F909F
:103130000F900F900F90CDB7DEB7E6E00C94AC285F
:1031400090915803892F8E7F90FF81608093580360
:1031500080FF03C08CE197E0BFCF8FE097E09F93A3
:103160008F930E948E0580915803817F809358032E
:10317000C7CF90915803892F8D7F91FF82608093F4
:10318000580381FF0AC082E097E09F938F930E94CB
:103190008E05809158038160E9CF84EF96E09CCF43
:1031A00085ED96E099CF90915803892F877F93FF03
:1031B00088608093580383FF03C089EC96E0E5CFD5
:1031C0008CEB96E089CF0E948E20162F072FF82EC9
:1031D000E92E0E94F91FD82F0E94D91FC82F0E94E4
:1031E000421EEF92FF920F931F931F92DF931F9245
:1031F000CF931F928F938AE193E09F938F930E94C6
:103200008E058DB79EB70C960FB6F8949EBF0FBE75
:103210008DBF14CF895369CF80E008950E940C19A7
:103220000895CF93C82F809161038130C1F0882326
:1032300039F0823009F450C01092610380E00DC073
:103240000E945E0F8232D1F78C2F0E940C198111DF
:103250001FC08C2F0E948A178170CF9108950E9401
:103260005E0F823289F38C2F0E940E19811127C0C4
:10327000C43139F180F4CB3091F0C03131F18FE0BD
:1032800093E09F938F930E948E050F900F901BC029
:1032900081E090E0E1CFC932A1F0C83381F788E83E
:1032A00093E09F938F930E948E0581E193E09F931B
:1032B0008F930E948E050F900F900F900F9081E0DA
:1032C000CBCF1092610380E0C7CF82E0809361038F
:1032D00088E30E943C16F3CF8C2F0E943C1681E0BD
:1032E000BCCFCF93DF93EB0186319C4711F50E9451
:1032F0005E0F9D81992399F08A7A91E009F490E01C
:1033000090936203811109C089E20E94481F0E94C4
:10331000ED0F80E0DF91CF91089585E3F6CF8091A6
:103320006203811104C089E20E94501FF0CF85E33F
:10333000FBCF81E0EFCFCF93DF93EC01FB018581E1
:10334000882309F4D2C09E0130572332310508F09A
:10335000B2C00E9486109093860380938503FE017D
:10336000E150F047E232F10520F4EB5BF64D0C94AE
:103370007E288091850381608093850393C080912E
:1033800086038860809386038DC080918503826068
:10339000F3CF809185038460EFCF809185038860AF
:1033A000EBCF809186038160EDCF809186038260B0
:1033B000E9CF809185038061DFCF809185038062B2
:1033C000DBCF809185038064D7CF0E94E20A809191
:1033D00085038068D1CF809185038C60CDCF8091AB
:1033E00086038360CFCF809185038E7FC5CF809188
:1033F0008603877FC7CF809185038D7FBDCF809166
:1034000085038B7FB9CF80918503877FB5CF80916E
:1034100086038E7FB7CF809186038D7FB3CF809157
:1034200085038F7EA9CF809185038F7DA5CF809165
:1034300085038F7BA1CF0E94E20A809185038F775D
:103440009BCF80918503837F97CF809186038C7F6C
:1034500099CF8091850382FB992790F921E09227EB
:1034600090FB82F990FB83F987CF80918603982F98
:10347000909591708E7F892B90FB81F983CF9091ED
:103480008503892F8F7B96FF806476CF0E94E20AA6
:1034900090918503892F97FB87F980586DCF81E044
:1034A0000E940C1180918503909186030E948B10DD
:1034B0000E94E20A80E0DF91CF91089580E0F0CF92
:1034C00090918503892F8F7E94FF806155CF9091D5
:1034D0008503892F8E7F90FF81604ECF9091860368
:1034E000892F877F93FF88604DCF81E0E4CF282F1D
:1034F00035EB2303C001112497FF04C080589109C4
:10350000892F089580589F4FFBCF8091690380FFDA
:103510000DC06091070170E0660F771F603871057C
:1035200070F56115710569F1862F089581FF07C057
:103530006091070184E0689FB0011124EFCF609192
:10354000070182FD0AC0809168038823A9F02091B9
:10355000060160910701821710F088E0ECCF869F8A
:10356000C001112433E0880F991F3A95E1F7622FCB
:1035700070E00E946A28D2CF68E070E0D5CF8FE774
:10358000089581E008958091690380FF0CC06091E7
:10359000030170E0759567957595679561157105DF
:1035A00049F1862F089581FF06C06091030170E004
:1035B00075956795F3CF6091030182FD0BC09091E3
:1035C00067039923A1F0609102018091030196178E
:1035D00038F0682F70E06038710500F38FE70895C8
:1035E000899FC001112470E00E946A28F4CF61E035
:1035F00070E0D7CF81E008958D3C31F40E94851AA8
:10360000819580936D0308958E3C19F40E94851A6C
:10361000F8CF8F3C31F40E94851A819580936C031A
:103620000895803D19F40E94851AF8CF893D29F448
:103630000E94C31A80936E0308958A3D21F40E946C
:10364000C31A8195F7CF8B3D31F40E94C31A81953F
:1036500080936F0308958C3D19F40E94C31AF8CF2C
:103660009FE2980F983070F4815D990B21E030E073
:1036700001C0220F8A95EAF780916B03822B809319
:103680006B0308958D3D31F48091690381608093CF
:10369000690308958E3D21F4809169038260F7CF1C
:1036A0008F3DB9F7809169038460F1CF40916C033D
:1036B0008D3C59F480916D0387FF0DC010926D030E
:1036C00041110BC01092680308C08E3C81F48091B8
:1036D0006D0318169CF3442381F080916E03909142
:1036E0006F03892B09F05AC01092670308958F3C2D
:1036F00049F447FFF0CF10926C0380916D03811164
:10370000ECCFE0CF803D19F41416ACF3E4CF9091E8
:103710006E03893D29F41916F4F610926E03DBCF7F
:103720008A3D19F497FFD7CFF8CF90916F038B3D67
:1037300029F497FFD0CF10926F03CDCF8C3D19F4B1
:103740001916CCF3C8CF9FE2980F983090F4815DA2
:10375000990B21E030E0B90102C0660F771F8A950E
:10376000E2F7CB01809590916B03892380936B03E3
:10377000B2CF8D3D31F4809169038E7F80936903D0
:10378000AACF8E3D21F4809169038D7FF7CF8F3DC5
:1037900009F0A1CF809169038B7FF0CF08958091CC
:1037A000580383FF96C080E897E09F938F930E9411
:1037B0008E0580916B031F928F938BE797E09F9309
:1037C0008F930E948E0589E797E09F938F930E94C5
:1037D0008E0580916C03282F082E000C330B3F932D
:1037E0008F9386E797E09F938F930E948E0584E7DF
:1037F00097E09F938F930E948E0580916D03282FF1
:10380000082E000C330B3F938F9381E797E09F9333
:103810008F930E948E058FE697E09F938F930E946F
:103820008E0580916E03282F082E000C330B3F93DA
:103830008F938CE697E09F938F930E948E058AE684
:1038400097E09F938F930E948E0580916F03282F9E
:10385000082E000C330B3F938F9387E697E09F93DE
:103860008F930E948E0584E697E09F938F930E942A
:103870008E058DB79EB780960FB6F8949EBF0FBE8B
:103880008DBF809168031F928F9381E697E09F938D
:103890008F930E948E058FE597E09F938F930E94F0
:1038A0008E05809169031F928F938CE597E09F931B
:1038B0008F930E948E0589E597E09F938F930E94D6
:1038C0008E058DB79EB70C960FB6F8949EBF0FBEAF
:1038D0008DBF0E9482209C0190916C0380916D03AA
:1038E000982B21F0309366032093650390916E032B
:1038F00080916F03982B21F030936403209363032E
:103900008AE693E00E94A01E089586E0EAE6F3E0CE
:10391000DF011D928A95E9F7109268031092670300
:10392000109269030895FC01828181110EC0838188
:1039300081110BC08481811108C091E085818111C2
:1039400001C090E0892F8170089581E0FCCFA6E04E
:10395000B0E0EDEAFCE10C94932886E0EAE6F3E0BF
:10396000DE01119601900D928A95E1F710926C0399
:1039700010926D0310926E0310926F038B819C81E5
:10398000892B89F080916503909166030E949A20AB
:10399000AC01909168039923C9F1809108018417C3
:1039A000150608F440C08D819E81892B91F080918D
:1039B0006303909164030E949A20AC019091670385
:1039C000992309F46AC0809104018417150608F44C
:1039D00072C0BE016F5F7F4F8AE693E00E94631F53
:1039E000811105C08AE693E00E94931C81110E9418
:1039F000CF1B86E0FE013196AAE6B3E001900D925E
:103A00008A95E1F72696E3E00C94AF28209109010E
:103A10008AE0289F900111242417350720F69F5F24
:103A20009093680302C09F3FD1F71B81112359F087
:103A30000E94851A9FEF11160CF491E0899F802D4A
:103A4000112480936C031C81112359F00E94851A64
:103A50009FEF11160CF491E0899F802D1124809323
:103A60006D0380916C03882309F49DCF10916D0341
:103A7000112309F498CF0E94771A882351F080937C
:103A80006C03812F0E94771A882329F080936D039D
:103A90008ACF81E0F4CF81E0F9CF209105018AE05F
:103AA000289F900111242417350708F092CF9F5FBB
:103AB0009093670302C09F3FD1F71D81112359F0F6
:103AC0000E94C31A9FEF11160CF491E0899F802D7C
:103AD000112480936E031E81112359F00E94C31A92
:103AE0009FEF11160CF491E0899F802D1124809393
:103AF0006F0380916E03882309F46BCF10916F03DD
:103B0000112309F466CF0E94771A882351F080931D
:103B10006E03812F0E94771A882329F080936F0308
:103B200058CF81E0F4CF81E0F9CF0F931F93CF936B
:103B3000DF93C42FD22FFC0185818823C9F04093E5
:103B400072030E948220909371038093700380E23D
:103B50008C0F883040F4C77081E001C0880FCA958F
:103B6000EAF70E948F08DF91CF911F910F9108957E
:103B700010917203141332C08091700390917103FD
:103B80000E949A20883C910548F5C0E2CD0F1D1790
:103B9000B9F080E2810F883040F4177081E001C0F5
:103BA000880F1A95EAF70E949608C83048F481E019
:103BB0009D2F977001C0880F9A95EAF70E948F0891
:103BC000802F0E948608C83070F6D77081E001C04F
:103BD000880FDA95EAF70E949608C5CF80E28C0F2D
:103BE000883008F6C77081E001C0880FCA95EAF7EF
:103BF000F2CF0F93DB0188519C4787309105A0F5E8
:103C0000FC01E959F64D0C947E2806E221EE41EEC6
:103C10006AE17CE7CD010E94951D80E00F91089537
:103C200007E225EE45EE6BE17CE7F4CF06E221EEFC
:103C300040EE68E17CE7EECF07E225EE44EE69E175
:103C40007CE7E8CF06E221EE42EE6CE17CE7E2CFD2
:103C500007E225EE46EE6DE17CE7DCCF08E221E0ED
:103C600045EE6EE17CE7D6CF15968C91882319F04E
:103C700010927203D3CF81E0D1CF909378038093D9
:103C800077030895E0917703F0917803309729F056
:103C90000190F081E02D0995089580E008950E943B
:103CA000421E0895EF92FF920F931F93CF93DF93DD
:103CB000EC01E0917703F09178033097E1F1028015
:103CC000F381E02D09958091580382FF34C080FF75
:103CD0000DC088811F928F938BEA97E09F938F93FB
:103CE0000E948E050F900F900F900F907E0186E03E
:103CF000E80EF11C05EA17E08091580380FF0BC025
:103D00008A811F928F931F930F930E948E050F90AD
:103D10000F900F900F902196CE15DF0569F78091D7
:103D2000580380FF08C083EA97E09F938F930E9417
:103D30008E050F900F90CDB7DEB7E6E00C94AC285F
:103D4000E0917703F0917803309739F022E0DC01BD
:103D50002C930680F781E02D09950895A3E0B0E04B
:103D6000E4EBFEE10C9494282091750330917603E6
:103D700028173907A1F09093760380937503E0919B
:103D80007703F0917803309751F023E029839B83E8
:103D90008A830084F185E02DCE0101960995239652
:103DA000E2E00C94B028A3E0B0E0E9EDFEE10C9471
:103DB0009428209173033091740328173907A1F0D8
:103DC0009093740380937303E0917703F0917803E9
:103DD000309751F024E029839B838A830084F18506
:103DE000E02DCE01019609952396E2E00C94B028CF
:103DF00040910001509101019A012E5F3F4F485FB1
:103E00005F4F80E02417350709F40895F901919177
:103E10009F019923B9F38F5FF5CF882371F020912B
:103E2000000130910101F9013296285F3F4F9191D5
:103E3000981729F0E217F307D1F780E0089581E0A1
:103E400008959C01FC0132969FEF80E04191461756
:103E500051F09F3F19F4411101C0982F8F5F8630B8
:103E6000A9F79F3F09F40895290F311D97FD3A9551
:103E7000F90162830895FC01329608962191261378
:103E800003C0DF0111971C92E817F907B9F70895ED
:103E9000682F80910001909101010E94211F0895D7
:103EA000682F80910001909101010E943B1F0895AD
:103EB000E0910001F0910101329686E0DF011D9250
:103EC0008A95E9F70895DC01FB0111969C91119701
:103ED0008181981322C012968C911297882319F031
:103EE000928189131AC013968C911397882319F025
:103EF0009381891312C015968C911597882319F018
:103F0000958189130AC014969C91992321F081E030
:103F10002481291303C080E001C081E081700895ED
:103F200008950E94901F089581110EC081E0809332
:103F30000D0160910A0170910B0180910C0190912B
:103F40000D010E94911F089582E0F1CF83E08093DC
:103F50000D0160910A0170910B0180910C0190910B
:103F60000D010E94911F08950E94941F089581E001
:103F700080930D0160910A0170910B0180910C01F9
:103F800090910D010E94911F08950E94B71F0895FE
:103F900091E0811101C090E090930C0160910A01C1
:103FA00070910B0180910C0190910D010E94911F65
:103FB000089580910C01089580930B0160910A018E
:103FC00070910B0180910C0190910D010E94911F45
:103FD000089580910B01089580930A0160910A0170
:103FE00070910B0180910C0190910D010E94911F25
:103FF000089580910A010895089508950E94FD1F73
:104000000895089508950E94FC1F0895CF930E947B
:1040100001200E9466150E940220C0E08C2F0E94A1
:104020004114892B31F4CF5FC430C1F780E0CF91C8
:10403000089581E0FCCF85B7806885BF85B780682B
:1040400085BF08951F921FB61F9211248F939F93CF
:10405000AF93BF9380917903811113C0809197032F
:1040600090919803A0919903B0919A034196A11D54
:10407000B11D8093970390939803A0939903B093F5
:104080009A03BF91AF919F918F911F901FBE1F9078
:10409000189580919F03843031F10E94C6061092DA
:1040A000790388E190E020E40FB6F894A895809316
:1040B00060000FBE2093600083B7817F846083BF60
:1040C00083B7816083BF7894889583B78E7F83BFE1
:1040D0000FB6F894A8958091600088618093600085
:1040E000109260000FBE08950E94E20A0E94CB0663
:1040F000089582E084BD93E095BD9AEF97BD8093CB
:104100006E0008952FB7F8948091970390919803CB
:10411000A0919903B0919A032FBF08952FB7F894F7
:1041200060919703709198038091990390919A03FD
:104130002FBF08959C014FB7F894809197039091F9
:104140009803A0919903B0919A034FBF821B930BE0
:10415000089578941F921FB61F9211248F939F93F6
:10416000AF93BF938091970390919803A091990387
:10417000B0919A030196A11DB11D8093970390936E
:104180009803A0939903B0939A03BF91AF919F9125
:104190008F911F901FBE1F90189581E08093E000C3
:1041A00080E28093D8001092C9008FE19EE40197CD
:1041B000F1F700C0000087E090EBDC018093A803DA
:1041C0009093A903A093AA03B093AB0388E19CE06A
:1041D0000FB6F894A895809360000FBE909360008E
:1041E000FFCF88E19CE00FB6F894A895809360001B
:1041F0000FBE90936000FFCF08959B01BA0190918C
:104200009F039430E9F48F708093E9009FEF8091D1
:10421000E800915085FD06C085ED8A95F1F7000014
:104220009111F5CF8091E80085FF0AC050E040E091
:10423000C9010E94D8238091E8008E778093E8001E
:10424000089543E050E0BC0182E00E94FD20089503
:1042500046E050E0BC0182E00E94FD200895CF932B
:10426000DF93EC010E94D91F48E050E0BE0181E0DD
:104270000E94FD2088E0FE01ADE7B3E001900D92C1
:104280008A95E1F7DF91CF91089508958AEE97E03E
:104290009F938F930E948E0580919E030F900F90A5
:1042A000811109C00E9468250E94C5258091E20005
:1042B00084608093E200089586EE97E09F938F9349
:1042C0000E948E0510929E030F900F90089582EE2B
:1042D00097E09F938F930E948E050E94B71F81E005
:1042E0000E94C81F0F900F9008958EED97E09F9346
:1042F0008F930E948E0560919B0381E0611101C044
:1043000080E00E94A61F0F900F9008958AED97E01D
:104310009F938F930E948E0590919F0381E094302C
:1043200009F080E060919B030E94B41F0F900F90F2
:10433000089520917B032F5F822F62E30E945E2805
:10434000992319F020937B03089510927B038091A9
:104350007C038823F1F080919F038430C1F4909115
:10436000E9009F702091EC00822F817020FD80E891
:10437000892B93E09093E9009091EB0090FF04C0AB
:104380009091EE0097FD08C08F708093E900109225
:104390007C0308951092F1009091E80095FDFACF0A
:1043A0009091E80090FFF0CF9091E8009E77909375
:1043B000E800EACF42E061EC81E00E94E42442E2BE
:1043C00061EC82E00E94E42442E261EC83E00E941E
:1043D000E42490919F0381E0943009F080E06091A3
:1043E0009B030E94941F08958091A103833009F4D8
:1043F00061C030F48130D1F1823009F49EC008955B
:104400008A3009F48AC08B3009F46FC0893009F012
:1044100050C08091A003813209F04BC08091A40369
:104420009091A503029708F044C08091E800877F2F
:104430008093E8008091E80082FF37C09091F300FC
:104440008091F200029731F48091F100813011F0F7
:10445000863021F48091F1000E94DC1F8091E800F9
:104460008B778093E8000E94182523C08091A003D9
:10447000813AF9F48091E800877F8093E800809189
:10448000A4039091A503892B61F468E08DE793E084
:1044900070E00E9427248091E8008B778093E800E9
:1044A000089560E090E080E0F3CF80919F03811158
:1044B000C1CF08958091A003813AD9F78091A403D8
:1044C0009091A503892BA9F78091E800877F8093BD
:1044D000E8008091E80080FFFCCF0E94D91F809304
:1044E000F1008091E8008E77BCCF8091A0038132EB
:1044F00001F78091A4039091A503892BD1F68091B7
:10450000E800877F8093E8000E9418258091A2032D
:104510000E94C81F0E94E20A08958091A003813280
:1045200041F68091E800877F8093E8000E9418257B
:104530008091A3030E94EC1F08958091A003813A0B
:1045400009F0B7CF8091E800877F8093E8008091E1
:10455000E80080FFFCCF0E94F91FC1CF9FB7F894FD
:1045600010927C039FBF90919F03943009F048C044
:104570002091E9002F703091EC00932F917030FD65
:1045800090E8922B23E02093E9002091EB0020FF9C
:1045900034C02091EE0027FF30C020917A032223FF
:1045A00021F02091E80025FF28C010927A0326E030
:1045B0003091E80035FF14C08093F1008091E8004D
:1045C00085FD27C08091E80080FFFCCF8091E80046
:1045D0008E778093E8009F709093E90080E00895C3
:1045E00030919F03343049F43091EB0035FD05C024
:1045F000215041F481E080937A039F709093E90009
:104600008FEF0895EFE9FFE03197F1F700C0000068
:10461000CFCF8FB7F89421E020937C038FBFDBCFFF
:1046200084B7877F84BF0FB6F894A8958091600007
:10463000886180936000109260000FBE80E890E077
:104640000FB6F89480936100909361000FBE0E94B2
:10465000C51F08950E9468250E94C525E2EEF0E07E
:1046600080818460808378940E94432808958EE03E
:1046700091E00E943D1E089580919F03853091F442
:104680008091580380FF08C084EC97E09F938F933C
:104690000E948E050F900F9080919F03853019F036
:1046A0000E94742008950E9449200E9406208823B9
:1046B00099F380919D03882379F30E94C2230E947D
:1046C000E20AEACF08959A014091A6035091A70308
:1046D0000E946B230895492F55274330510521F13E
:1046E00068F44130510509F443C04230510509F4E2
:1046F00044C090E080E050E040E026C041325105E7
:1047000051F142325105A9F76330710590F7FB0171
:10471000EE0FFF1FE154FD4F4081518164547D4FE6
:10472000FB01808190E010C099278130910581F0D4
:10473000009729F00297E9F6EEEEF7E002C0E0E21A
:10474000F8E0849190E0AF01F9015183408308952E
:10475000E6E1F8E0F6CF6330710558F6660F771F93
:10476000FB01EB53FD4F4081518189E090E0ECCF9C
:1047700082E190E048E758E0E7CF84E590E044E24A
:1047800058E0E2CF80E189BD82E189BD09B400FE35
:10479000FDCF8091D8008F7D8093D8008091E0007C
:1047A00082608093E0008091E00081FDFCCF08955D
:1047B000AF92BF92CF92DF92FF920F931F93CF934E
:1047C000DF936C01EB018A010E943725F82E8111DD
:1047D00023C00115110539F0F80180819181C81BB2
:1047E000D90BC80ED91EB12CA12C2097A9F080910D
:1047F000E80085FD22C08091E8008E778093E80074
:1048000001151105A1F0F80180819181A80EB91E52
:10481000B182A08285E0F82E8F2DDF91CF911F917C
:104820000F91FF90DF90CF90BF90AF9008950E94BE
:1048300037258823D1F2F82EEFCFF60181916F0151
:104840008093F1002197FFEFAF1ABF0ACECFFC0192
:104850008091A6039091A70386179707A0F0611592
:10486000710529F49091E8009E779093E80090E01C
:104870006115710551F4911108C08091E80082FF23
:1048800034C080E00895BC01F2CF80919F0388235B
:10489000C1F18530C1F18091E80083FD30C0809185
:1048A000E80082FDEACF8091E80080FFE1CF8091AF
:1048B000F3002091F200382F6115710519F02830AE
:1048C000310558F091E02830310509F090E0209151
:1048D000E8002E772093E800CBCF81918093F10000
:1048E000615071092F5F3F4FE7CF80919F0388236D
:1048F00041F0853041F08091E80083FFBECF81E038
:10490000089582E0089583E00895FC018091A60354
:104910009091A70386179707A0F06115710529F4F8
:104920008091E8008E778093E80090E06115710532
:1049300051F4911108C08091E80082FF35C080E0F9
:104940000895BC01F2CF80919F038823C9F185307F
:10495000C9F18091E80083FD31C08091E80082FDBB
:10496000EACF8091E80080FFE1CF8091F3002091B1
:10497000F200382F6115710519F02830310558F013
:1049800091E02830310509F090E08091E8008E77C1
:104990008093E800CBCF84918093F10031966150F1
:1049A00071092F5F3F4FE6CF80919F03882341F02D
:1049B000853041F08091E80083FFBDCF81E008950C
:1049C00082E0089583E00895982F973028F08F7043
:1049D0008093E90081E008959093E900242F762FD9
:1049E00050E0981731F07091EC002091ED0050915B
:1049F000F00021FD02C09F5FE8CF3091EB003E7FC9
:104A00003093EB003091ED003D7F3093ED0030911D
:104A1000EB0031603093EB007093EC002093ED00DD
:104A20005093F0002091EE0027FDE5CF80E008953F
:104A30008091A00387FF13C08091E80082FF06C029
:104A40008091E8008B778093E80004C080919F03F9
:104A50008111F2CF089580919F038823D9F380912B
:104A6000E80080FFF8CF8091E8008E77ECCF2091AE
:104A7000E4003091E50095E6A9012091EC00822F39
:104A8000817020FF06C08091E80080FF06C080E0B2
:104A900008952091E80022FD1AC080919F03882389
:104AA00089F0853089F08091EB0085FD0FC0209161
:104AB000E4003091E50042175307F9F29150E1F616
:104AC00084E0089582E0089583E0089581E00895E8
:104AD0000E94D7250E94DF25E0EEF0E08081816012
:104AE0008083E8EDF0E080818F77808319BCA7EDAB
:104AF000B0E08C918E7F8C9380818F7E808310922A
:104B00009E0308950F931F93CF93DF930E94D725A1
:104B10000E94DF25C8EDD0E088818F778883888167
:104B20008068888388818F7D888319BC10929F0359
:104B300010929B0310929D0310929C0300EE10E0D4
:104B4000F80180818B7F808388818160888342E047
:104B500060E080E00E94E424E1EEF0E080818E7F5E
:104B60008083E2EEF0E080818160808380818860D4
:104B70008083F80180818E7F808388818061888333
:104B8000DF91CF911F910F910895E8EDF0E08081C2
:104B90008F7E8083E7EDF0E080818160808384E018
:104BA00082BF81E080939E030E9482250895E8EDF4
:104BB000F0E080818E7F80831092E2000895109251
:104BC000DA001092E10008951F920F920FB60F9233
:104BD00011242F933F934F935F936F937F938F9302
:104BE0009F93AF93BF93EF93FF938091E10082FF78
:104BF0000BC08091E20082FF07C08091E1008B7FB3
:104C00008093E1000E9499218091DA0080FF19C011
:104C10008091D80080FF15C08091DA008E7F80934C
:104C2000DA008091D90080FF96C080E189BD82E1E1
:104C300089BD09B400FEFDCF81E080939F030E94EF
:104C400046218091E10080FF19C08091E20080FF41
:104C500015C08091E2008E7F8093E2008091E20097
:104C600080618093E2008091D80080628093D800B8
:104C700019BC85E080939F030E9475218091E1001B
:104C800084FF2BC08091E20084FF27C080E189BDB2
:104C900082E189BD89B5982F917080FFFBCF80910B
:104CA000D8008F7D8093D8008091E1008F7E809323
:104CB000E1008091E2008F7E8093E2008091E2002B
:104CC00081608093E20080919B03882309F449C0AE
:104CD00084E080939F030E9486218091E10083FFFE
:104CE00029C08091E20083FF25C08091E100877F89
:104CF0008093E10082E080939F0310929B03809158
:104D0000E1008E7F8093E1008091E2008E7F8093AE
:104D1000E2008091E20080618093E20042E060E086
:104D200080E00E94E4248091F00088608093F0008D
:104D30000E946721FF91EF91BF91AF919F918F9159
:104D40007F916F915F914F913F912F910F900FBE87
:104D50000F901F90189519BC10929F030E945C2120
:104D600070CF8091E30087FD93E090939F03B3CFD2
:104D70001F920F920FB60F9211242F933F934F93D0
:104D80005F936F937F938F939F93AF93BF93CF93D3
:104D9000DF93EF93FF93D091E900DF708091EC00F7
:104DA000C82FC17080FDC0E81092E9008091F0002A
:104DB000877F8093F00078940E94FC261092E9008F
:104DC0008091F00088608093F000CD2BCF70C0936D
:104DD000E900FF91EF91DF91CF91BF91AF919F914A
:104DE0008F917F916F915F914F913F912F910F9094
:104DF0000FBE0F901F901895AAE2B0E0E2E0F7E234
:104E00000C94932880EA93E02091F100FC01219317
:104E1000CF01F3E0883A9F07B9F70E94F42180910F
:104E2000E80083FF1EC18091A0039091A1039A30F6
:104E300008F017C1E92FF0E0E259F64D0C947E28F6
:104E4000803899F0823809F00CC18091A4038F70EA
:104E5000873008F006C18093E9008091EB0085FB64
:104E6000882780F91092E90006C080919C039091F8
:104E70009D03911182609091E800977F9093E800E4
:104E80008093F1001092F1008091E8008E77E5C0E8
:104E9000882309F4D3C0823009F0E3C08091A203D3
:104EA0008111D6C08091A4038F702FEF280F263078
:104EB00008F0D7C08093E9002091EB0020FFC8C024
:104EC000933031F48091EB0080628093EB00C0C09E
:104ED0009091EB0090619093EB0021E030E001C0F5
:104EE000220F8A95EAF72093EA001092EA00809157
:104EF000EB008860EACF8111B4C01091A2031F7744
:104F00008091E3008078812B8093E3008091E8001A
:104F1000877F8093E8000E9418258091E80080FF39
:104F2000FCCF8091E30080688093E30082E0111160
:104F300083E080939F0395C08058823008F091C031
:104F40008091A2039091A3038C3D23E09207A1F5E9
:104F500083E08A838AE289834FB7F894DE0113964F
:104F600020E03EE051E2E32FF0E050935700E4915F
:104F700020FF03C0E295EF703F5FEF708E2F90E04F
:104F8000EA30C0F0C7968D939D932F5F243159F777
:104F90004FBF8091E800877F8093E8006AE270E06D
:104FA000CE0101960E9427248091E8008B778093A0
:104FB000E80057C0C096E7CF6091A4037091A503A5
:104FC000AE014F5F5F4F0E946323BC01892B09F440
:104FD00048C09091E800977F9093E80089819A817A
:104FE0000E948524E1CF8038E1F58091E800877F39
:104FF0008093E80080919B038093F10045CF81115D
:1050000030C09091A203923060F58091E800877FD4
:105010008093E80090939B030E94182580919B0346
:10502000882311F084E005C08091E30087FDFACF6A
:1050300081E080939F030E94DA2113C08091A20334
:10504000813079F481E0933009F080E080939D0312
:105050001092E9008091E800877F8093E8000E9429
:1050600018258091E80083FF0AC08091E800877FBF
:105070008093E8008091EB0080628093EB00AA9619
:10508000E3E00C94AF28CF9380919F038823A1F095
:10509000C091E900CF709091EC00892F817090FD54
:1050A00080E8C82B1092E9008091E80083FD0E94FF
:1050B000FC26CF70C093E900CF910895991B79E049
:1050C00004C0991F961708F0961B881F7A95C9F798
:1050D0008095089597FB072E16F4009407D077FD6E
:1050E00009D00E94BB2807FC05D03EF4909581951D
:1050F0009F4F0895709561957F4F0895EE0FFF1FA4
:105100000590F491E02D09942F923F924F925F9277
:105110006F927F928F929F92AF92BF92CF92DF92C7
:10512000EF92FF920F931F93CF93DF93CDB7DEB72C
:10513000CA1BDB0B0FB6F894DEBF0FBECDBF0994C0
:105140002A88398848885F846E847D848C849B8417
:10515000AA84B984C884DF80EE80FD800C811B8125
:10516000AA81B981CE0FD11D0FB6F894DEBF0FBE54
:10517000CDBFED010895AA1BBB1B51E107C0AA1FBB
:10518000BB1FA617B70710F0A61BB70B881F991FE8
:105190005A95A9F780959095BC01CD010895FB0122
:1051A000DC0104C08D910190801921F441505040E0
:1051B000C8F7881B990B0895FB01DC0102C0019020
:1051C0000D9241505040D8F70895F999FECF92BD05
:1051D00081BDF89A992780B50895A8E1B0E042E032
:1051E00050E00C942929DC01A40FB51F4150504018
:1051F00048F0CB01840F951F2E910E940429415045
:105200005040D0F70895262FF999FECF92BD81BD69
:10521000F89A019700B4021639F01FBA20BD0FB6F4
:10522000F894FA9AF99A0FBE08950396272F0E94D0
:1052300004290E940329252F0E940429242F0C945D
:1052400004290196272F0E9404290C940329DC01CC
:10525000CB01FC01F999FECF06C0F2BDE1BDF89A81
:10526000319600B40D9241505040B8F70895F8942B
:10527000FFCFDE08DE082E092E099309AF090D09BC
:105280000D09B409250A340A340AF319671AFB19FF
:10529000C519C919FF19CD19031A0F1AD919601A9E
:1052A000DD19131AE119171A3F1AE5191B1A461AC4
:1052B000EB19211A291AD119071AD5190B1AEF1946
:1052C000251A351A4F1A5E1ABF19F7196E1A161ECB
:1052D0001C1E051E101E221E281E2E1E20274827BB
:1052E0003128482731287B279C273128F327FF279F
:1052F0003C03280850011E0A140100000100E91FA8
:105300002F21FC2028212121E200E900EA00B5003C
:10531000B600B700CD008301CC008A019201940150
:105320002102230224022502260227022A02B300B8
:10533000B4006F0070009F01CB019F02A002818228
:1053400083E200E900EA00B500B600B700CD0083B3
:1053500001CC008A0192019401210223022402253A
:1053600002260227022A02B300B4006F0070009FD9
:1053700001CB019F02A00281828332F433F531F622
:10538000949790C69134936636353F3F3F006D6BDE
:105390005F64656C6179006D6B5F696E74657276D0
:1053A000616C006D6B5F6D61785F73706565640043
:1053B0006D6B5F74696D655F746F5F6D6178006DB3
:1053C0006B5F776865656C5F6D61785F737065654D
:1053D00064006D6B5F776865656C5F74696D655FB0
:1053E000746F5F6D6178000A092D205665727369CC
:1053F0006F6E202D0A5649443A2030784645454480
:10540000282270646C2229205049443A2030783098
:10541000303030282268616E6477697265642F725B
:1054200065636C696E65642229205645523A2030C6
:1054300078303030310A4255494C443A2020284ACD
:10544000616E2031332032303235290A4F505449B1
:105450004F4E533A204C554641204D4F5553454BE6
:1054600045592045585452414B455920434F4E53BE
:105470004F4C4520434F4D4D414E4420343039363A
:105480000A4743433A20382E332E30204156522DBE
:105490004C4942433A20322E302E30204156525F42
:1054A000415243483A20617672350A00447B151A0E
:0C54B000099F088A0836084F08680800A9
:00000001FF
