:100000000C94FC050C9434060C9434060C943406C1
:100010000C9434060C9434060C9434060C94340678
:100020000C9434060C9434060C94E52A0C94B92BE9
:100030000C942C250C9434060C9434060C94340641
:100040000C9434060C9434060C9434060C94340648
:100050000C9434060C94A4250C9434060C943406A9
:100060000C9434060C9434060C9434060C94340628
:100070000C9434060C9434060C9434060C94340618
:100080000C9434060C9434060C9434060C94340608
:100090000C9434060C9434060C9434060C943406F8
:1000A0000C9434060C9434060C94340629001E007B
:1000B0001F0020002100220023002400250026002C
:1000C00027002D002E002A002B0014001A00080023
:1000D000150017001C0018000C00120013002F0060
:1000E00030003100390004001600070009000A0042
:1000F0000B000D000E000F0033003400280000003C
:10010000E10000001D001B000600190005001100A1
:10011000100036003700383252000100E000E300E2
:10012000E2000000280021522C000000E600E4005C
:10013000500051004F0000000100010001000100CB
:1001400001000100010001000100010001000100A7
:100150000100010001000100010001000100010097
:100160000100010001000100010001000100010087
:100170000100010001000100010001000100010077
:100180000100010001000100010000000100000069
:100190000100010001000100010001000100010057
:1001A0000100010001000100010001000100000048
:1001B0000100010001000000010001000100010038
:1001C0000100000044454255473A2064697361626A
:1001D0006C65642E0A0044454255473A20656E61BD
:1001E000626C65642E0A006C65645F7461736B3ABF
:1001F00020253032580A004F6E6573686F743A20BC
:100200006163746976653A2025640A000A00253026
:10021000313662003A200025303258000A722F63CE
:100220002030313233343536373839414243444552
:10023000460A006261636B6C696768742073746559
:10024000703A2025750A006261636B6C6967687497
:100250002064697361626C650A006261636B6C693A
:1002600067687420656E61626C650A006261636B29
:100270006C6967687420746F67676C653A202575D0
:100280000A006261636B6C696768742064656372FD
:10029000656173653A2025750A006261636B6C695C
:1002A00067687420696E6372656173653A202575AD
:1002B0000A006261636B6C696768745F696E697478
:1002C000206261636B6C696768745F636F6E6669F7
:1002D000672E76616C6964203D20302E205772694C
:1002E00074652064656661756C742076616C7565F3
:1002F0007320746F20454550524F4D2E0A00313AFD
:100300000964656C6179282A31306D73293A20259A
:10031000750A323A09696E74657276616C286D737C
:10032000293A2025750A333A096D61785F73706543
:1003300065643A2025750A343A0974696D655F74FD
:100340006F5F6D61783A2025750A353A09776865DF
:10035000656C5F6D61785F73706565643A202575C3
:100360000A363A09776865656C5F74696D655F7414
:100370006F5F6D61783A2025750A00703A097072D6
:10038000696E742076616C7565730A643A097365E9
:10039000742064656661756C74730A75703A092B14
:1003A000310A646E3A092D310A6C743A092B3130E6
:1003B0000A72743A092D31300A4553432F713A09B4
:1003C000717569740A0A7370656564203D206465FF
:1003D0006C7461202A206D61785F7370656564209C
:1003E0002A2028726570656174202F2074696D65FC
:1003F0005F746F5F6D6178290A7768657265206444
:10040000656C74613A20637572736F723D25642C5C
:1004100020776865656C3D25640A536565206874BE
:1004200074703A2F2F656E2E77696B6970656469F9
:10043000612E6F72672F77696B692F4D6F757365CA
:100440005F6B6579730A004D3E20004D25753A2596
:10045000733E20003F0A003D2025750A003F0A0038
:1004600064656661756C74730A0025750A003F0A3D
:10047000000A092D2056616C756573202D0A0071E4
:100480000A000A092D204D6F7573656B6579202D63
:100490000A003F00433E20004C25640A000A092D53
:1004A00020537461747573202D0A686F73745F6BC9
:1004B0006579626F6172645F6C65647328293A20A4
:1004C000253032580A6B6579626F6172645F7072B1
:1004D0006F746F636F6C3A20253032580A6B657900
:1004E000626F6172645F69646C653A2025303258CE
:1004F0000A6B65796D61705F636F6E6669672E6EFA
:100500006B726F3A20253032580A74696D65725FDC
:1005100072656164333228293A202530386C580AD4
:10052000002573000A092D20436F6E736F6C6520E0
:100530002D0A4553432F713A09717569740A6D3A52
:10054000096D6F7573656B65790A000A092D204D79
:1005500061676963202D0A443A0944656275672022
:100560004D65737361676520546F67676C650A58E2
:100570003A094D6174726978204465627567204D4F
:100580006F646520546F67676C65202D2053686F1A
:1005900077206B65797072657373657320696E205F
:1005A0006D617472697820677269640A4B3A094B0D
:1005B0006579626F61726420446562756720546F6B
:1005C00067676C65202D2053686F77206B657970A5
:1005D00072657373207265706F72740A4D3A0944C4
:1005E00065627567204D6F75736520546F67676C22
:1005F000650A563A0956657273696F6E0A533A096D
:100600005374617475730A433A094163746976617E
:10061000746520436F6E736F6C65204D6F64650A5F
:1006200046312D4631303A09537769746368207436
:100630006F204C6179657220302D39202846313089
:10064000203D204C30290A302D393A0953776974FE
:10065000636820746F204C6179657220302D390AEF
:1006600047524156453A0953776974636820746F5D
:10067000204C6179657220302028616C7465726E3F
:10068000617465290A423A094A756D7020746F20B9
:10069000426F6F746C6F616465720A4553433A0927
:1006A0004A756D7020746F20426F6F746C6F616457
:1006B00065722028616C7465726E617465290A45E3
:1006C0003A095072696E7420454550524F4D20537F
:1006D000657474696E67730A4241434B53504143DA
:1006E000453A09436C65617220454550524F4D0AA9
:1006F0004E3A094E4B524F20546F67676C650A00A3
:100700006261636B6C696768745F636F6E6669676B
:100710002E7261773A20253032580A2E656E61625A
:100720006C653A2025750A2E6C6576656C3A202535
:10073000750A006B65796D61705F636F6E666967DE
:100740002E7261773A20253032580A2E7377617005
:100750005F636F6E74726F6C5F636170736C6F63F5
:100760006B3A2025750A2E636170736C6F636B5F43
:10077000746F5F636F6E74726F6C3A2025750A2E0A
:10078000737761705F6C63746C5F6C6775693A2036
:1007900025750A2E737761705F7263746C5F726780
:1007A00075693A2025750A2E737761705F6C616CEC
:1007B000745F6C6775693A2025750A2E73776170CE
:1007C0005F72616C745F726775693A2025750A2ED5
:1007D0006E6F5F6775693A2025750A2E73776170B1
:1007E0005F67726176655F6573633A2025750A2ECF
:1007F000737761705F6261636B736C6173685F6272
:1008000061636B73706163653A2025750A2E6E6BA8
:10081000726F3A2025750A2E737761705F65736376
:100820006170655F636170736C6F636B3A202575EF
:100830000A0064656275675F636F6E6669672E7232
:1008400061773A20253032580A2E656E61626C65F8
:100850003A2025750A2E6D61747269783A202575E3
:100860000A2E6B6579626F6172643A2025750A2ED3
:100870006D6F7573653A2025750A006565636F6E47
:100880006669673A0A64656661756C745F6C617964
:1008900065723A2025750A003F004E4B524F3A20B0
:1008A0006F66660A004E4B524F3A206F6E0A000A7E
:1008B0006D6F7573653A206F66660A000A6D6F7515
:1008C00073653A206F6E0A000A6B6579626F617218
:1008D000643A206F66660A000A6B6579626F61721E
:1008E000643A206F6E0A000A6D61747269783A206A
:1008F0006F66660A000A6D61747269783A206F6EDD
:100900000A000A64656275673A206F66660A000A23
:1009100064656275673A206F6E0A000A0A4A756D4F
:1009200070696E6720746F20626F6F746C6F6164A2
:1009300065722E2E2E2000433E2000436C656172AE
:10094000696E6720454550524F4D0A00290A00251F
:1009500075002F002575005D280025640020002506
:100960006400200025640020002564007C00253000
:100970003258006D6F7573656B6579205B62746EBC
:100980007C782079207620685D287265702F6163FD
:100990006C293A205B000A002530325820006E6B2B
:1009A000726F5F7265706F72743A20253032582012
:1009B0007C20000A002530325820006B6579626F78
:1009C0006172645F7265706F72743A2025303258BC
:1009D000207C200064656C5F6B65795F6269743AA6
:1009E0002063616E27742064656C3A20253032588C
:1009F0000A006164645F6B65795F6269743A2063C1
:100A0000616E2774206164643A20253032580A00F0
:100A100073757370656E64696E67206B6579626F5C
:100A20006172640D0A005B575D005B535D005B52B1
:100A30005D005B445D005B435D001E03420061009E
:100A40006E0061006E006100530070006C00690070
:100A500074002000360030000000220354006800BB
:100A60006500560061006E0020004B0065007900B3
:100A700062006F00610072006400730000000403F4
:100A8000090409025400030100A0FA09040000014E
:100A90000301010009211101000122440007058121
:100AA00003080001090401000103000000092111ED
:100AB00001000122B600070582032000010904029B
:100AC00000010300000009211101000122150007A7
:100AD0000583032000011201000200000008AEFEA1
:100AE00070880100010200010631FF0974A10109AB
:100AF00075150026FF00952075088102C0050109C3
:100B000002A10185020901A10005091901290815A1
:100B1000002501950875018102050109300931158B
:100B200081257F95027508810609381581257F95F5
:100B30000175088106050C0A38021581257F95018B
:100B400075088106C0C005010980A101850319014E
:100B50002AB700150126B700950175108100C00560
:100B60000C0901A101850419012AA002150126A082
:100B700002950175108100C005010906A1018506D5
:100B8000050719E029E7150025019508750181027F
:100B90000507190029EF1500250195F0750181025F
:100BA000050819012905950575019102950175033F
:100BB0009101C005010906A101050719E029E71502
:100BC00000250195087501810295017508810105CF
:100BD00007190029FF150026FF00950675088100FA
:100BE00005081901290515002501950575019102D2
:100BF000950175039101C00011241FBECFEFDAE00B
:100C0000DEBFCDBF04B603FE18C0809117049091DB
:100C10001804A0911904B0911A048730904BA74092
:100C2000B04B59F410921704109218041092190442
:100C300010921A04E0E0F8E3099512E0A0E0B1E0B8
:100C4000E8E0FEE502C005900D92A83EB107D9F795
:100C500024E0A8EEB2E001C01D92A731B207E1F78F
:100C60000E9494170C94842E0C940000FF93EF9331
:100C7000E091E802F091E902309709F00995EF91CF
:100C8000FF910895FC018591803011F0EFDFFBCFDB
:100C90000895FF27E0E230E247FF0CC0419597FF3F
:100CA00009C0EDE26095709580959095611D711D6C
:100CB000811D911D27FF02C0219530E350E2AA2734
:100CC000660F771F881F991FAA1FA41710F0A41B77
:100CD00063955A95A9F7AA3008F0A95FA05DAF9374
:100CE000F395611571058105910541F7ED3211F418
:100CF000EF93F395F21718F43F93F395FBCF8F9191
:100D0000B5DFFA95E1F70895E991F9918591803081
:100D100021F0853219F0AADFF9CF089520E0E89498
:100D200055915532C1F3503311F4689455915A33AB
:100D300048F4505390F3220F022E220F220F200D61
:100D4000250FF4CF0EF4219589919991533619F31B
:100D5000533729F1533559F1BC0188279927E89475
:100D60005C3621F48991999168945591543639F4FF
:100D700046EF7EF077FF0DC08FEF9FEF0AC055372B
:100D80004AE039F0583540E121F0523642E009F0AE
:100D90000895FF93EF937DDFEF91FF91B7CFFF931E
:100DA000EF93FC0181918030B9F360DFFBCFFF93BB
:100DB000EF9368DFF1CFDF93CF93CDB7DEB7259602
:100DC000A3DFCF91DF9108958230B8F46530A8F4A5
:100DD0004E3098F450E09EE0699F400D511D112463
:100DE000FA0196E4899FE00DF11D1124EE0FFF1F1B
:100DF000E455FF4F85919491089581E090E0089526
:100E00000E94E406089581E008950E940307089572
:100E100081E008950E94030708950E940A0708953B
:100E200008950E9410070895A6E0B0E0EAE1F7E017
:100E30000C94F42D49835A839E833091EF0289816B
:100E40009A8131111AC03E81332399F0222389F00F
:100E50000E94900D182F682F89819A810E946C0D35
:100E600069817A81812F0E94BC142696E3E00C945C
:100E7000102E0E947E0D182FF3CF0E94900D6981D5
:100E80007A81F1CFFC01262F4081518162817381EB
:100E9000848195810E9414070895CF93DF93EC011C
:100EA00061E00E944207BE010E940507DF91CF91D9
:100EB0000895CF93DF93EC0160E00E944207BE01EA
:100EC0000E941107DF91CF91089521E030E0A90140
:100ED00002C0440F551F8A95E2F7CA010E948E0C8A
:100EE0000895CF93C82F81E090E00C2E02C0880FA8
:100EF000991F0A94E2F70E940F128C2F0E94650737
:100F0000CF91089581E008950E9482070895CF93BC
:100F1000C82F0E94410C8C2F0E9484072FEF84E37E
:100F20009CE0215080409040E1F700C00000CF914C
:100F3000089581E00E9487070E94C825089580E0F7
:100F40000E9487070E94EC2508950F931F93CF936B
:100F5000DF938C0161E00E944207EC01B8010E941E
:100F60000D07811106C080E0DF91CF911F910F9195
:100F70000895B801CE010E9409198823A1F3B80190
:100F8000CE010E94F421882371F3B801CE010E94A2
:100F9000961D882341F3B801CE010E946C1D882361
:100FA00011F3B801CE010E94BE158823E1F2F801C9
:100FB0008581882369F0C330FCE7DF07A1F160F485
:100FC000C130ECE7DE0789F1C0F4C115DC4791F0D0
:100FD000C8010E940807C8CFCB35ECE7DE0759F1FE
:100FE000CC35FCE7DF0721F1CA35DC4789F70E94E1
:100FF000EA11EECF0E949907B6CF9091C203892FD4
:101000008E7F90FF81608093C20380FF09C086EDD0
:1010100091E09F938F930E94DB060F900F90A3CFD8
:1010200084EC91E0F6CF0E94F2110E949F079BCFC3
:101030000E94E011CDCF0E94EE11CACF0E94FE2483
:1010400080E00E94E8180E94680808950E94C11775
:101050000E946C080E9403250895829590E09C01EF
:10106000220F331F220F331F2C7C95958795959562
:1010700087958373282B30E0C901880F991F8A7ADE
:10108000359527952575822B0895CF93DF93D92F1A
:101090000E942D08C82F8D2F0E942D089C2FDF91B4
:1010A000CF91089581E008950895CF93DF93D82FCD
:1010B0000E945208C82F882319F08D2F0E945408CF
:1010C0008C2FDF91CF91089508950E9455080895BF
:1010D00080E00E94650808950E943D220E946508F4
:1010E0000895CF930E943D22C82F8091EA028C1769
:1010F00001F1C093EA020E9498256093EB0270937D
:10110000EC028093ED029093EE028091C203857011
:10111000853061F41F92CF9387EE91E09F938F9378
:101120000E94DB060F900F900F900F908C2F0E9463
:101130006508CF910895ADE0B0E0E1EAF8E00C94E5
:10114000F52D488759876A877B878C879D87911102
:101150000E94DD101F8286E0FE013896DE011196A6
:1011600001900D928A95E1F78D8181110DC0298141
:101170003A814B815C816D817E818F810E94271035
:101180002D96E2E00C94112ECE0101960E944D079F
:101190008111EDCFF5CFFC012481213021F4808134
:1011A00091810E94C20D0895662329F00E94F71EC6
:1011B0000E94CA1F08950E94511FFACFCF93C82FD3
:1011C0008823C9F08238C9F40E944A2281FD13C0E5
:1011D00089E30E9415240E9471112FEF87EE93E09E
:1011E000215080409040E1F700C0000089E30E9458
:1011F0002F240E947111CF9108958338A1F40E9489
:101200004A2280FDF8CF83E50E9415240E947111C7
:101210002FEF81EE94E0215080409040E1F700C034
:10122000000083E5E4CF8438A1F40E944A2282FDC5
:10123000E2CF87E40E9415240E9471112FEF81EE06
:1012400094E0215080409040E1F700C0000087E426
:10125000CECF8CEF8C0F813A98F48C2F0E940C1D0E
:101260008111C9CF8C2F0E946723882329F08C2FEE
:101270000E942F240E9471118C2F0E941524B9CF37
:1012800080E28C0F883048F4C77081E001C0880F7D
:10129000CA95EAF70E94C010ACCFEBE5EC0FE33043
:1012A00040F4F0E0E05BFE4F808190E00E94FB2282
:1012B000A2CFE8E5EC0FEB3150F4F0E0EE0FFF1FAA
:1012C000E65EFE4F808191810E94202394CF83E3CC
:1012D0008C0F833108F08FCF61E08C2F0E94D408EF
:1012E0008ACF882309F456C0823879F40E944A22B2
:1012F00081FF50C089E30E9415240E94711189E387
:101300000E942F240E9471110895833859F40E947D
:101310004A2280FF3FC083E50E9415240E9471117C
:1013200083E5EECF843859F40E944A2282FF32C00E
:1013300087E40E9415240E94711187E4E1CF9CEF9D
:10134000980F913AE8F290E2980F983050F4877035
:1013500091E001C0990F8A95EAF7892F0E94C61083
:10136000D1CF9BE5980F933028F490E080E00E9465
:10137000FB22089598E5980F9B3128F490E080E0D7
:101380000E942023089593E3980F933118F460E0AE
:101390000E94D40808951F93CF93DF93182FEB0179
:1013A0000E94DE08209739F4812F0E947109DF9195
:1013B000CF911F9108958FE99FE00197F1F700C049
:1013C00000002197EFCF70E060E0893311F460E511
:1013D00070E00E94CB090895882321F00E94C0107C
:1013E0000E9471110895882321F00E94C6100E9466
:1013F00071110895B0E0A0E0E0E0FAE00C94EE2D69
:101400006C01D62FC72FFC011581068102950F7044
:101410000E94B610E82E8823F9F0E12E1123E1F0A6
:101420008C2F807F803461F080E28D0F883008F14E
:101430008C2F807E803221F4D230D8F00023C9F086
:101440008091F00382FF15C082E00E94A1110E94EA
:10145000B61091E0E82EE926BC2EB2949FE0B922A6
:10146000FBE0FB15B8F1EB2DF0E0EA57F14D0C94E1
:10147000C52DE12CF1CF0C2F0F70C07F11F002951C
:10148000007F112399F0002359F080E28D0F8830FE
:1014900010F0D11107C0802F0E94C0100E9471115E
:1014A0008D2F48C0802F0E94D010F8CF8D2F0E9422
:1014B0007109002379F080E28D0F883010F0D1118E
:1014C00004C0802F0E94C61003C0802F0E94D61037
:1014D0000E947111EB2DE850FF0B349708F06BC19F
:1014E0000E943D220E946508CDB7DEB7E9E00C946A
:1014F0000A2E2C2F2F70F22EC07FC03219F0F294DA
:1015000080EFF822DD2341F0D130C9F1112309F435
:1015100043C00023E9F0C4CF8091F00382FD14C0E2
:10152000112359F0FF2029F08F2D0E94C0100E9436
:10153000711180E00E94DE08CDCF80E00E94710929
:10154000FF2041F28F2DBECF112369F0011104C09D
:101550008F2D0E94EC09BECF013009F0BBCF8F2D3B
:101560000E94F410B7CF0111B5CF8F2D0E94F3095F
:101570008F2D0E9400118F2D0E94E410ABCF1123FC
:1015800021F0063008F0A6CFE3CF053008F0A2CF57
:101590008F2D0E94F3099ECF0023D1F3D93349F454
:1015A0003FEF87EE93E0315080409040E1F700C07C
:1015B00000008D2F0E9471098DCF8C2F8695869506
:1015C000837069F0813009F085CF8D2F9C2F937047
:1015D000111102C080E090E00E9420237BCF8D2F6C
:1015E0009C2F9370111102C080E090E00E94FB22BA
:1015F00071CF612F8D2F0E94D4086CCF8C2F8370F8
:10160000A1F5111167CF4D2F429546954770440FB4
:10161000440F2D2F2F7030E0042E02C0220F331FF5
:101620000A94E2F790E080E0D4FF09C08FE090E0F8
:1016300002C0880F991F4A95E2F780959095C6954C
:10164000C695C370822B932BC23049F058F4C13039
:1016500019F00E949A0C3ECF0E94910C3BCF0E9441
:10166000A30C38CF0E948E0C35CF8695112311F034
:101670008C2F8170882309F42DCF4D2F42954695EC
:101680004770440F440F2D2F2F7030E0042E02C0FE
:10169000220F331F0A94E2F790E080E0D4FF09C0E4
:1016A0008FE090E002C0880F991F4A95E2F780957D
:1016B0009095C695C695C370822B932BC23049F086
:1016C00058F4C13019F00E94050D04CF0E94FC0CA3
:1016D00001CF0E940E0DFECE0E94B20CFBCECF7049
:1016E000112329F08C2F0E94CA0C8D2F32CF8D2F01
:1016F0000E94F3098C2F0E94DA0CECCED23F41F10C
:1017000060F4D03FB9F0D13F81F0112309F443C018
:101710000111C6CE8C2F8F711FC0D33F01F1D43F72
:10172000A1F78091F00382FD24C08C2F8F711123CB
:1017300011F312C0112341F0053008F0CBCE8C2FED
:101740008F710E94EC0CC6CE063008F0C3CEF7CFE6
:101750008C2F8F711111CFCF0E94CA0CBBCE1123D9
:1017600029F08C2F8F710E94BE0CB4CE0E94B90C50
:10177000B1CE112331F063E08C2F8F710E94831161
:10178000A9CE81E00E94A111023008F4A3CE82E02C
:101790000E94A1119FCE002359F0D93309F009CF3F
:1017A000EFEFF7EE23E0E150F0402040E1F7FFCE0D
:1017B0008C2F8F71A0CFEE2009F496CE0E94B2102C
:1017C00080FD92CEF60115820E94AC100E94CA0CD8
:1017D000C6010E94080C0E94AC100E94DA0C84CE54
:1017E0000F931F93CF93DF93EC01688179818D81F3
:1017F0000E94CD0D8C010E94170D0E948D0CB80126
:10180000CE010E94FA09DF91CF911F910F910895A7
:10181000CF93DF93EC018C81882399F0CE010E9455
:10182000A507811111C00E94B610882351F08D8147
:10183000882339F08091F00382FF03C082E00E9488
:10184000A111DF91CF910895CE010E94F00BCE013E
:101850000E945907F6CF90E080E00E94FB2290E0C2
:1018600080E00E9420230E94DD100E9471110E94DE
:1018700080200E94CA1F08950E9449240E942B0CB8
:1018800008950E94CD100E943C0C089592959F707F
:10189000963091F058F4925F9F70923058F4803FE8
:1018A00019F030F4883E30F481E008959A5FF4CF67
:1018B000843FD1F380E00895883EB0F3813FD1F7B3
:1018C000F3CFFC012481222339F0808191810E9491
:1018D000C20D0E94460C089580E00895A6E0B0E095
:1018E000E4E7FCE00C94F52D2696E2E00C94112E32
:1018F000A7E0B0E0EEE7FCE00C94F52D2796E2E0DF
:101900000C94112E08950E94820C08950E94830C5D
:101910009093170380931603089508950E94860CF0
:1019200008952091160330911703822B932B0E9468
:10193000860C089520911603309117038223932378
:101940000E94860C08952091160330911703822778
:1019500093270E94860C08950E94820C08950E948D
:10196000AC0C08950E94AF0C909315038093140360
:10197000089590E080E00E94B20C089521E030E0EC
:10198000A90102C0440F551F8A95E2F7CA010E94BF
:10199000B20C089521E030E002C0220F331F8A9577
:1019A000E2F78091140390911503822B932B0E94F0
:1019B000B20C089521E030E002C0220F331F8A9557
:1019C000E2F72095309580911403909115038223BE
:1019D00093230E94B20C089521E030E002C0220F50
:1019E000331F8A95E2F780911403909115038227A3
:1019F00093270E94B20C089520911403309115038F
:101A0000822B932B0E94B20C0895209114033091E5
:101A10001503822393230E94B20C0895209114038E
:101A200030911503822793270E94B20C08950895E0
:101A3000262F277091E001C0990F2A95EAF723E03D
:101A4000769567952A95E1F7660F771F660F771FE2
:101A5000FA01E60FF71F50E040E0682F70E0819137
:101A6000DF0111979B01042E02C0369527950A9439
:101A7000E2F7217021952827292328272C934F5FEF
:101A80005F4F4430510559F70895A82FA77023E000
:101A9000969587952A95E1F7880F991F880F991FCA
:101AA000FB01E80FF91F50E040E080E0219130E0B9
:101AB0000A2E02C0369527950A94E2F72170332743
:101AC000042E01C0220F0A94EAF7822B4F5F5F4F6A
:101AD0004430510559F70895262F953070F48E3013
:101AE00060F4682F70E08EE0989F600D711D1124E6
:101AF00040EF52E0822F0E94180D0895292F953053
:101B000068F48E3058F490E060EF72E03EE0239F7E
:101B1000800D911D11240E94450D089580E00895C7
:101B2000B0E0A0E0E6E9FDE00C94EE2D7C01009130
:101B30001403109115038091160390911703082B3D
:101B4000192BCFE0D0E0CC24C394D12CBC2EC601FD
:101B50000C2E02C0880F991F0A94E2F7802391236C
:101B6000892B49F4219790F7B12C8B2DCDB7DEB797
:101B7000E9E00C940A2EB7018C2F0E94C81401973B
:101B800089F3F3CFCF93DF93EC010E94900DBE0158
:101B90000E94C814DF91CF9108951F93CF93DF93D4
:101BA000EB019091EF02992339F0CB010E94C20D15
:101BB000DF91CF911F910895882369F0CB010E9496
:101BC000900D182F682FCE010E946C0DBE01812F41
:101BD0000E94C814EDCFCB010E947E0D182FF6CFC6
:101BE0001F93CF93DF93C091180317E080911903DF
:101BF0008C1304C0DF91CF911F910895D0E01C9FFA
:101C0000F0011D9FF00D1124E65EFC4F2081318113
:101C1000428153816481758186810E94780C21966E
:101C2000C770E4CF20915203309153034091540385
:101C3000509155036091560370915703809158035A
:101C40000E94780C0895CF93DF9380915803807F92
:101C500009F04DC080915703882309F448C0E091F2
:101C6000180350911903C0915303D091520360910E
:101C700054037091550347E05E17C9F18E2F90E031
:101C8000E49FF0011124E65EFC4F2481222391F1B0
:101C9000489FF001499FF00D1124DF01A65EBC4F63
:101CA00011962C9111972C1325C02C912D1322C025
:101CB00015962C91159721111DC012962D913C91CE
:101CC000261B370B2F3A3105A8F4809158038F70EB
:101CD000806180935803E05EFC4F80818F7080614B
:101CE000808382E593E00E94080C0E94F00DDF9152
:101CF000CF910895FC013196E770BECF482F209117
:101D000018039091190357E0291302C080E0089549
:101D100030E0529FF001539FF00D1124E65EFC4F1E
:101D20008181681306C08081481303C085818111B9
:101D3000EECF2F5F3F4F2770E7CFA4E1B0E0E3EA9B
:101D4000FEE00C94EB2D8C0186E0F801DE011F967D
:101D500001900D928A95E1F7F8018481E58092E582
:101D6000A92E93E0B92E9091560391111FC088239C
:101D7000D1F0EE20A9F0C8010E94610CF82E882352
:101D800079F087E0F801D50101900D928A95E1F78D
:101D9000C5010E94CB080E94230E0E94120E5FC054
:101DA000C8010E94080CFF24F39459C0C080D18060
:101DB00082809380F0905703209154033091550313
:101DC000A401421B530BFF2009F4F9C04F3A5105FF
:101DD00008F0A7C0882309F442C090915303809172
:101DE0005803282F207F09F05CC09D1116C09091E8
:101DF0005203C91212C0E1104EC08F7080618093EF
:101E000058030E94120E82E593E00E94080C809114
:101E10005803F8018683F12C22C0E1103CC06D2DDF
:101E20008C2D0E947E0E6D2D8C2D0E947E0EE82E34
:101E30008111F1CFCF86D88A8F8598890E94C20DF3
:101E4000292F22952F70243078F49F702230A8F02B
:101E50009923B9F0F8019681907F99F4FE2C8F2D8B
:101E60006496ECE00C94072E2A5F2F70223068F005
:101E7000C8010E94080CEF2CF1CF992311F08823A0
:101E800069F3805E883050F3F3CF803F38F3815F91
:101E9000833070F7E3CF80915803816080935803BB
:101EA000BACF9D1113C090915203C9120FC0E11017
:101EB0000DC08683C8010E94080C87E0F801A2E5E6
:101EC000B3E001900D928A95E1F767CFC8010E94B7
:101ED000610C882309F464CFEE2009F461CF80916E
:101EE0005803803288F02091520330915303398790
:101EF00028879B868A86909156039C871D868E87AD
:101F0000CE0108960E94080C87E0F801A2E5B3E034
:101F100001900D928A95E1F70E94230E0E94120E05
:101F200042CF90915803292F207FA1F4682D9A8ADF
:101F3000898AA6017A899E2D0E946E0C82E593E023
:101F40000E94080C87E0F50111928A95E9F70E943A
:101F5000120E61CF882309F482CF809153038D1133
:101F600010C080915203C8120CC0E1100AC09683C1
:101F7000C8010E94080C87E0F50111928A95E9F7E3
:101F80006ECFC8010E94610C882309F409CFEE20AE
:101F900009F406CF80915803803208F4B5CF209120
:101FA0005203309153033A8329839C828B82909110
:101FB00056039D831E828F83CE010196A3CF4F3A95
:101FC0005105B8F5882309F4EECEFE2CEE2009F475
:101FD000E7CE809153038D111EC080915203C81229
:101FE0001AC08091580380FD0DC0982F907F51F04A
:101FF0008683903F09F45ECF982F907F905F8F701B
:10200000892B57CF87E0F801A2E5B3E001900D924C
:102010008A95E1F724CFC8010E94610C811174CF29
:1020200080915803816080935803C8010E94080C76
:1020300016CF682D9A8A898AA6017A899E2D0E94D8
:102040006E0C87E0F50111928A95E9F7A6CEAEE015
:10205000B0E0EDE2F0E10C94F42D288739874A874F
:102060005B876C877D878E87CE0108960E949D0EC8
:102070008823B1F06C85662341F0288539854A852F
:102080005B857D858E850E94780C17E08091180312
:102090009091190389133DC02E96E3E00C94102E05
:1020A00087E0FE013896DE01119601900D928A9527
:1020B000E1F78C85882349F32091190330E0C901A9
:1020C000019687709927409118034817190699F0CF
:1020D00097E0929FD001939FB00D1124A65EBC4F54
:1020E000FE01319601900D929A95E1F780931903C4
:1020F0000E94F00DCACF0E94410C10921903109259
:10210000180387E0E2E5F3E0DF011D928A95E9F725
:10211000BCCF819FC0011124865E9C4F0E949D0E02
:10212000882309F4B9CFE09118031E9FF001112410
:10213000E65EFC4F2081318142815381648175814B
:1021400086810E94780C8091180390E00196877038
:102150009927809318039ACF80918103869586955D
:1021600086950895809181038770089590918103E9
:10217000977081E009F480E008958091AD0308959F
:102180009091AD03892B8093AD0308958095909134
:10219000AD0398239093AD0308951092AD03089575
:1021A0009091AC03892B8093AC0308958095909116
:1021B000AC0398239093AC0308951092AC03089558
:1021C00008950E94E010089590918203292F2823FA
:1021D00031F080958923809382030E94E110089555
:1021E00008950E94F010089590918303292F2823C9
:1021F000281729F0982B909383030E94F1100895DB
:1022000090918303292F282331F08095892380938F
:1022100083030E94F110089580918303882329F09D
:102220001092830380E00E94F1100895CF93C09133
:10223000AD038091AC03C82B80918303882331F0D8
:10224000C82B0E94452381110E940C118C2FCF9125
:102250000895CF93DF93C0910201D09103010E94B2
:1022600016118883C0910201D091030148E050E02B
:1022700069E773E0CE010E941C2E892B59F088E09B
:10228000FE01A9E7B3E001900D928A95E1F7CE0136
:102290000E944D22DF91CF910895CF93DF93C0919B
:1022A0000001D09101010E9416118983C0910001A3
:1022B000D091010140E250E069E573E0CE010E9457
:1022C0001C2E892B59F080E2FE01A9E5B3E00190B4
:1022D0000D928A95E1F7CE010E949B22DF91CF916A
:1022E00008950E94D924813039F48091EF0387FF4B
:1022F00003C00E944D1108950E9429110895089568
:102300000E947F1108959091F00392FF11C098E010
:10231000899F90011124622B609381030E94CA0C53
:10232000809181038695869586950E9480110895F7
:102330000E94CA0C08951092810380E00E948011CF
:102340000895909181038095892380938103282F9C
:10235000277069F4891759F09091F00392FF07C034
:102360008695869586950E94DA0C0E949B110895A9
:10237000CF93C82F8091F00382FB992790F99C1787
:10238000E9F0C0FB82F98093F0038091EF03909114
:10239000F0030E941A1282E00E94A1118091C203F0
:1023A00080FF0CC01F92CF9387EF91E09F938F9394
:1023B0000E94DB060F900F900F900F90CF91089521
:1023C0008091F00382FB882780F991E089270E94A1
:1023D000B811089581E00E94B811089580E00E942C
:1023E000B81108956FEF7FEF90E080E00E946E2EAD
:1023F000089590E080E00E943A2E21E0853E9E4FB5
:1024000009F020E0822F089582E090E00E94322EB1
:10241000089583E090E00E94322E90E00895682FA6
:1024200083E090E00E94502E089584E090E00E94A6
:102430003A2E0895BC0184E090E00E946E2E08952B
:10244000AB01BC018FE090E00E94622E0895AB01C9
:10245000BC0183E190E00E94622E089560E070E08C
:10246000CB010E942712089560E070E0CB010E942A
:1024700020120E942E120895A8E0B0E0E2E4F2E1FA
:102480000C94F52D65EE7EEF90E080E00E946E2EBC
:1024900060E082E090E00E94502E81E090E0909316
:1024A0001703809316030E940F1260E074E184E02A
:1024B00090E00E946E2E60E086E090E00E94502E38
:1024C00060E087E090E00E94502E40E050E0BA01CA
:1024D00088E090E00E94622E60E083E290E00E943B
:1024E000502E60E08CE090E00E94502E60E08DE085
:1024F00090E00E94502E19821A821B821C821D823B
:102500001E821F82188648E050E067E170E0CE012D
:1025100001960E94402E40E050E0BA018FE190E029
:102520000E94622E0E9434122896E2E00C94112E32
:102530000E943C120895682F8EE090E00E94502E79
:102540000895A6E0B0E0E7EAF2E10C94F32D0E94D2
:102550008C258C018091AE039091AF038017910779
:1025600081F019821A820E948C25682F49815A8134
:10257000792F80E090E00E949B081093AF030093B6
:10258000AE032696E4E00C940F2E0E9498256093EB
:10259000BE037093BF038093C0039093C103609305
:1025A000BA037093BB038093BC039093BD0308955B
:1025B000089508950E94D812089508950E94DD128A
:1025C00008958FEA97E20E94AB170E94D9120E94E9
:1025D000DA12089581E008950E94EA1208950E9497
:1025E000EA120895089508950E94F2120E94F312CB
:1025F00008950E94F911811102C00E9498120E9450
:1026000004128093C2030E9415129093F0038093EA
:10261000EF030E940A1A0E9409120E948E0C8091F8
:102620001403909115030E94AF0C08950E94832516
:102630000E94EB160E94F9120E9464080E94DB19A6
:102640000E94C1170E94DE120895A6E0B0E0EBE2FE
:10265000F3E10C94E92D0E94EC1281110CC00E9450
:10266000A1120E94DA190E94A2200E9471082696E7
:10267000EEE00C94052E0E94011720EB822E23E041
:10268000922E640110E0F601E190F1906F01812F2C
:102690000E94D8151F5F153009F44BC0E816F906E3
:1026A00091F38091C20381FD0E94E1150E94EF1217
:1026B000782E10E066246394812F0E94D8157C0147
:1026C000F401A190B1904F018A159B0561F100E0E2
:1026D000CC24C394D12CAE24BF24C5018C219D21D0
:1026E000892BC1F07720B1F009831A830E948C25D1
:1026F0009C838B836D8221E0C7018C219D21892BD6
:1027000009F420E049815A816B817C818D81922F6F
:102710000E949B080F5FCC0CDD1C0E30F1F6F4011B
:102720003297F182E0821F5F153031F60E94C512A8
:1027300098CFE816F90609F0B4CF91CF1F93CF9345
:10274000DF930E94CD14EC01C11580E5D807F0F5A8
:10275000C11580E4D80708F09CC0C03ED10520F523
:10276000CD3CD10508F082C0C83AD10578F4C53A0D
:10277000D10508F073C0C130D10519F1209709F1D6
:10278000C430D105F0F4D0E0C0E01BC0C33CD1059B
:10279000D0F7C85AD0E0CC0FDD1FCD5ADE4F0990DC
:1027A000D881C02DD4640DC0C11580E2D80708F0CF
:1027B000D1C0C11581E0D80708F05AC0C83ED10584
:1027C00010F7CE01DF91CF911F910895C03682E5B9
:1027D000D80718F5C03482E5D80708F06BC0C032BE
:1027E00082E5D80708F05FC0C11582E5D80708F474
:1027F00097C02C2F2695269580E2289F90011124C2
:102800008C2F8370C1E0D0E002C0CC0FDD1F8A9511
:10281000E2F7C22BD32BDD68D4CFC03A82E5D807CC
:1028200060F4C03882E5D80708F459C0CF71D0E011
:10283000DC2FCC27C46FD06AC4CFC03C82E5D80758
:1028400008F462C0C03E82E5D80708F09CCFDC2FB8
:10285000CC27CC27DF71C06FD06AB3CFC55AD0E088
:10286000C757DE4FC881D0E0D064ABCFD065A9CFC9
:102870008D2F0E946F15182FCE0199270E94CD141D
:10288000C12FD0E0DC2FCC27CC27DF71C82BD92B70
:1028900098CFCE0199270E94CD14CC27DF70C82B8A
:1028A000D92BD06A8ECFCF71D0E0DC2FCC27C16F6F
:1028B000D06A87CF2C2F26952695277080E2289FF7
:1028C000900111248C2F8370C1E0D0E002C0CC0FA6
:1028D000DD1F8A95E2F7C22BD32BDC6872CF2C2F39
:1028E00026952695277080E2289F900111248C2F31
:1028F0008370C1E0D0E002C0CC0FDD1F8A95E2F703
:10290000C22BD32BDA685DCF8C2F8F710E946F158D
:10291000C82FD0E0DC2FCC27CC27DF71D06251CF7D
:102920008C2F8F710E946F1555E0D695C7955A95DB
:10293000E1F7CF70D0E0DC2FCC27282F30E084FFE8
:1029400005C044E0220F331F4A95E1F7C22BD32B79
:10295000D06937CF8D2F8F710E946F15182FCE0140
:1029600099270E94CD14C12FD0E0DC2FCC27CC2793
:10297000DF71C82BD92BD2CF462F753030F46E3093
:1029800020F4672F0E940007089590E080E00895EA
:102990000E94BC140E949E13089582389105B9F1DB
:1029A000B0F48133910509F47DC048F48932910572
:1029B00009F46DC08A32910509F47BC0089585330E
:1029C000910509F45FC08933910509F10895833EAB
:1029D0009105D9F138F4803E910529F1823E9105A7
:1029E00079F10895863E9105D9F1873E910509F464
:1029F0003EC0843E910541F52091F00321FF24C0A3
:102A00008091EF0384FD19C087EE90E00895209136
:102A1000EF03237009F05AC02091F00323FF14C084
:102A200089E290E008952091EF0320FD38C03091B5
:102A3000F00330FF09C024FF43C090E080E0089518
:102A40002091EF0322FDF7CF08952091EF0322FD9F
:102A50003AC03091F00330FD39C024FFF5CFEDCFFF
:102A60002091EF0323FFF0CF24FDE7CFCDCF2091BE
:102A7000EF0323FD2EC03091F00331FFEECF84EE43
:102A800090E008952091EF0325FFDECFC9CF20917C
:102A9000EF0325FD21C02091F00323FFD5CF89E36B
:102AA00090E0D2CF2091EF0326FFCECF8AE290E0D4
:102AB00008952091EF0326FFC7CF81E390E00895AA
:102AC00083EE90E0089582EE90E0089580EE90E02D
:102AD000089586EE90E0089585E390E00895909142
:102AE000EF0392FF10C041E0282F2471243009F039
:102AF00040E031E0282F2871283009F030E04317FA
:102B000011F02CE0822793FF10C041E0282F2471A0
:102B1000243109F040E031E0282F2871283109F0F4
:102B200030E0431711F02CE082273091F00330FFA2
:102B300010C051E0282F2171213009F050E041E010
:102B4000282F2871283009F040E0541711F029E0AF
:102B5000822731FF10C041E0282F2171213109F077
:102B600040E031E0282F2871283109F030E0431788
:102B700011F029E0822794FD877E0895CF939C0170
:102B8000205E3245C1E02032310538F4FB01C581B9
:102B9000C11103C08F710E9471078C2FCF910895CE
:102BA00008950E94D015089508950E94D41508959F
:102BB000E82FF0E0EE0FFF1FE550FC4F8081918180
:102BC0000895B0E0A0E0E7EEF5E10C94EB2D8CE188
:102BD00092E09F938F930E94DB068BEFE82E83E0B9
:102BE000F82E0F900F90912C812C97E1A92E92E056
:102BF000B92E24E1C22E22E0D22E0EE012E0CCE06B
:102C0000D2E09F928F92BF92AF920E94DB06DF923A
:102C1000CF920E94DB06F701819191917F010E9482
:102C200045089F938F931F930F930E94DB06DF93BA
:102C3000CF930E94DB069FEF891A990AEDB7FEB782
:102C40003C960FB6F894FEBF0FBEEDBFF5E08F16B1
:102C50009104B9F6CDB7DEB7ECE00C94072E80EA0C
:102C60008A95F1F7089500C008950E942F160895DF
:102C7000F894E82FE295EF70F0E031A1282F2F7043
:102C800081E090E001C0880F2A95EAF7982F90958F
:102C9000932391A392A1892B82A3789408950F93F3
:102CA0001F93CF93DF93CCE8D1E089918F3F11F050
:102CB0000E94381681E0CA39D807B9F7CAE9D1E0CD
:102CC0000FE911E089918F3F11F00E9438160C171F
:102CD0001D07C1F7DF91CF911F910F9108958F923A
:102CE0009F92BF92CF92DF92EF92FF920F931F932A
:102CF000CF93DF93D82EE92EF62E8A01C62FD0E08F
:102D0000C457DE4F28812F3F09F453C0F894E22FB7
:102D1000E295EF70F0E031A12F7081E090E001C00A
:102D2000880F2A95EAF7932F982B91A392A180956B
:102D3000892382A378940E9433168AE9882E81E041
:102D4000982EED2DFE2DBF01665F7F4FE12C6801AF
:102D5000C094D094D401BD904D0181919191AF0167
:102D600042505109BFEFBB1681F12B2D22952F70D8
:102D700030E0D90190962C9130E0BB2DBF7002C09D
:102D800035952795BA95E2F720FD1FC0802B912B32
:102D9000DA018D939C93EE24E3946E177F07D1F6AE
:102DA00088818F3F11F00E9438166E2D8F2D0E9462
:102DB0003516DF91CF911F910F91FF90EF90DF902B
:102DC000CF90BF909F908F9008958C219D21DA0124
:102DD0008D939C93E2CF0E944F168AE0EBEFF3E0D5
:102DE000DF01982F1D929A95E9F7E1EFF3E0DF01FB
:102DF0001D928A95E9F785E00E9455170E94D1152A
:102E00000895CF92DF92FF920F931F93CF93DF939A
:102E1000CDB7DEB72A970FB6F894DEBF0FBECDBF91
:102E20008E010F5F1F4F8AE0F80111928A95E9F732
:102E3000F12CCC24C394D12CA6016F2DC8010E9483
:102E40006F16F394CC0CDD1CFEE0FF12F5CF4AE0C8
:102E500050E0B80181EF93E00E941C2E21E0009722
:102E600009F420E0892B41F08AE0F801A1EFB3E0FA
:102E700001900D928A95E1F745E06BEF73E081EFE9
:102E800093E00E945617182F0E94D515812F2A967D
:102E90000FB6F894DEBF0FBECDBFDF91CF911F916B
:102EA0000F91FF90DF90CF9008950895B0E0A0E0DB
:102EB000ECE5F7E10C94EF2D6C017B01042FC22FA0
:102EC000222379F081E08093C5030E948C259093A2
:102ED000C4038093C30380E0CDB7DEB7E8E00C9471
:102EE0000B2ED091C503DD23B1F38091C3039091E4
:102EF000C4030E941B25059770F310E0000F111FFB
:102F0000A801B601C7010E941C2E892B31F0A8012F
:102F1000B601C7010E94292ECD2F1092C5038C2F18
:102F2000DBCF0E94251308950E9425250E941128B9
:102F30000E94E1120E942B280E9416130E9438283A
:102F40000E943D280E9491170E9463280E944626F5
:102F50000E94F412F5CF9093E9028093E80208955D
:102F600086E090E00E94322E0895682F86E090E07F
:102F70000E94502E08958DE1809305040E94B5179C
:102F800008950E94B0178093050482FD0EC08091C1
:102F9000C20380FF08C082EB92E09F938F930E9450
:102FA000DB060F900F900E94BB17809105048032C2
:102FB00020F0877088618093050490910504892F23
:102FC000817090FF04C0892F8695869586950E9412
:102FD0003919089580910504982F969596959695A0
:102FE000933040F49F5F990F990F990F8770892B49
:102FF00080930504809105048160809305040E94FC
:10300000B5178091C20380FF11C080910504869599
:10301000869586951F928F938AE992E09F938F936E
:103020000E94DB060F900F900F900F908091050487
:103030008695869586950E94391908958091050494
:10304000982F987F79F0885080930504887F91E0CD
:1030500009F490E08091050490FB80F980930504C9
:103060000E94B5178091C20380FF11C080910504B2
:103070008695869586951F928F9382E892E09F931E
:103080008F930E94DB060F900F900F900F9080910E
:1030900005048695869586950E9439190895809134
:1030A000050480FD1FC0816080930504813019F400
:1030B00089E080930504809105040E94B5178091F2
:1030C000C20380FF08C08AE592E09F938F930E941D
:1030D000DB060F900F908091050486958695869566
:1030E0000E94391908958091050480FF14C08E7FD5
:1030F000809305040E94B5178091C20380FF08C029
:1031000087E492E09F938F930E94DB060F900F90CD
:1031100080E00E9439190895CF93C0910504C170D1
:103120008091C20380FF0CC01F92CF938CE692E087
:103130009F938F930E94DB060F900F900F900F903C
:10314000CC2321F00E947318CF9108950E944F184C
:10315000FBCF90910504892F8695869586958F5F84
:103160008F719770843088F5880F880F880F892BAE
:103170008093050480910504887F91E009F490E034
:103180008091050490FB80F9809305040E94B51797
:103190008091C20380FF11C08091050486958695B9
:1031A00086951F928F9383E392E09F938F930E9463
:1031B000DB060F900F900F900F908091050486957D
:1031C000869586950E943919089590930504D2CF6B
:1031D000843008F083E0909105049770282F220F27
:1031E000220F220F922B90930504987F21E009F47F
:1031F00020E09091050420FB90F9909305040E9433
:10320000391908950E94E818809105040E94B517A5
:1032100008959C01FB018581882349F12230F8E75C
:103220003F07F9F040F42115E8E73E0769F0213047
:10323000384779F00895243098E7390779F058F045
:103240002530384789F0089583E00E94021980E014
:10325000089580E0FACF0E941E18F9CF0E94EA1765
:10326000F6CF0E948C18F3CF0E94A918F0CF81E00E
:1032700008958F929F92AF92BF92EF92FF920F9319
:103280001F93CF93DF938430B0F5811135C09091B7
:103290008000977F90938000A0918600B091870076
:1032A000282F30E00E94CB2D23E030E040E050E0BA
:1032B0000E94A32D89019A01809186009091870038
:1032C0006CE070E00E947B2D60177107C8F0C801A8
:1032D00069E070E00E947B2D70938D0060938C00FC
:1032E000DF91CF911F910F91FF90EF90BF90AF9022
:1032F0009F908F90089583E0909180009860CACF4E
:103300008091860090918700E0908600F090870081
:10331000E0918600F0918700C6E0D0E0BE010E94F7
:103320007B2D060F171F211D311D4801590185E016
:10333000880C991CAA1CBB1C8A95D1F7C701BE0139
:103340000E947B2D9F0150E040E0260F371F411D5A
:10335000511DC501B4010E94A32D49015A01E091FC
:103360008600F0918700CA01B9010E945F2D9B0180
:10337000AC01DF010E94DA2D9B01AC01C501B40153
:103380000E945F2D2FE096958795779567952A95F2
:10339000D1F7009186001091870030E020E00617F9
:1033A00017072807390708F097CF609186007091BA
:1033B000870092CF0895279A2F988AE08093800003
:1033C00089E1809381008FEF9FEF90938700809336
:1033D00086000E94C11708950E94F211089580E0AE
:1033E0000E94D815817008950E9401172FEF86E77B
:1033F00091E0215080409040E1F700C000000E9421
:1034000001170E94EF19882321F00E94EC190E94F5
:10341000C82508950E94F4190895809104011F920F
:103420008F93809105011F928F93809108011F92C5
:103430008F93809109011F928F9380910A011F92AF
:103440008F9380910B011F928F938EEF92E09F9349
:103450008F930E94DB068DB79EB70E960FB6F89439
:103460009EBF0FBE8DBF0895883248F58E3108F09B
:103470007FC08B3069F130F4873009F4E0C08DE50E
:1034800094E0F1C0833109F468C08431C1F78FE75B
:1034900094E09F938F930E94DB060F900F90809192
:1034A000CA03882309F411C11092CA031092C903F8
:1034B0001092C8031092C7031092C60325C08F3420
:1034C00009F4D6C008F03FC0893209F38833B9F651
:1034D00082E894E09F938F930E94DB060E940D1A6E
:1034E0001F9281E08F931F9288E08F938BE793E088
:1034F0009F938F930E94DB068DB79EB708960FB6F9
:10350000F8949EBF0FBE8DBF2091CA03222309F4F9
:10351000D3C08091C6039091C703009711F48FE93F
:1035200091E09F938F931F922F938BE494E09F934E
:103530008F930E94DB060F900F900F900F900F90CB
:103540000F9081E00895813509F4A6C008F4A6C063
:10355000823509F094CF81E08CC081E794E09F939D
:103560008F930E94DB060E940D1A0F900F90CCCF14
:103570008D518093CA03833009F446C078F48130BA
:10358000E1F08230C1F11092CA038EE694E09F937D
:103590008F930E94DB060F900F901BC0853009F4BB
:1035A00045C0D8F1863079F784E091E09093C90363
:1035B0008093C80387EE91E008C08BE091E0909380
:1035C000C9038093C80383EA91E09093C703809373
:1035D000C6038091CA03882309F496CF1F928F9364
:1035E0008AE694E09F938F930E94DB060F900F90E2
:1035F0000F900F9089CF8AE091E09093C903809358
:10360000C8038CEA91E0E1CF89E091E09093C9038F
:103610008093C80388EB91E0D8CF88E091E0909345
:10362000C9038093C80385EC91E0CFCF85E091E09A
:103630009093C9038093C80384ED91E0C6CF81E0E5
:1036400080930B0184E180930A018AE08093090151
:103650008EE18093080188E08093050188E28093E1
:10366000040180E694E09F938F930E94DB067DCF58
:103670008AE0E091C803F091C9033097D1F020812E
:10368000082E000C990B820F911D8F3F910541F080
:103690003CF08FEF808307C08FEFEBCF86EFE9CF51
:1036A00097FFF8CF108280811F928F9387E594E077
:1036B00099CF84E594E0D7CF87E494E09F938F93EC
:1036C0000E94DB060F900F903CCF80E00895CF93CF
:1036D000C82F1F928F9388E994E09F938F930E9445
:1036E000DB0681E090E002C0880F991FCA95E2F7DF
:1036F0000E948E0C0E94410C0F900F900F900F9023
:10370000CF910895B0E0A0E0E8E8FBE10C94F02D43
:10371000EBEFE80FEF3308F070C1F0E0EE56F14D3B
:103720000C94C52D0E9409129F938F938BE798E00C
:103730009F938F930E94DB060E94041283FB9927BC
:1037400090F91F929F9382FB992790F91F929F9364
:1037500081FB992790F91F929F93982F91701F9248
:103760009F931F928F9382E398E09F938F930E9481
:10377000DB060E94151293FB222720F91F922F933C
:1037800087FB222720F91F922F9386FB222720F9FF
:103790001F922F9385FB222720F91F922F9384FBE2
:1037A000222720F91F922F9383FB222720F91F92B3
:1037B0002F9382FB222720F91F922F9391FB222720
:1037C00020F91F922F93292F21701F922F9381FB95
:1037D000222720F91F922F93282F21701F922F93B9
:1037E0009F938F9383E397E09F938F930E94DB06D1
:1037F0008DB79EB78A960FB6F8949EBF0FBE8DBF49
:103800000E94B017982F9695969596951F929F9324
:10381000982F91701F929F931F928F9380E097E053
:103820009F938F930E94DB068DB79EB708960FB6C5
:10383000F8949EBF0FBE8DBF81E02AC08BE399E054
:103840009F938F930E94DB060E9498120F900F9017
:10385000F3CF8BE495E09F938F930E94DB06F6CF26
:103860008091C203807F8093C20384E295E09F939E
:103870008F930E94DB0687E399E09F938F930E94CA
:10388000DB0681E08093CB030F900F900F900F9099
:10389000CDB7DEB7E7E00C940C2E8BE199E09F9357
:1038A0008F930E94DB060E949907D0CF9091C203AC
:1038B000892F8E7F90FF81608093C20380FF03C0B9
:1038C0008FE099E0C8CF82E099E09F938F930E94A8
:1038D000DB068091C203817F8093C203B7CF9091B2
:1038E000C203892F8D7F91FF82608093C20381FF85
:1038F0000AC085EF98E09F938F930E94DB0680912A
:10390000C2038160E9CF87EE98E0A5CF9091C20312
:10391000892F8B7F92FF84608093C20382FF03C054
:1039200088ED98E0E8CF88EC98E095CF9091C203BD
:10393000892F877F93FF88608093C20383FF03C032
:103940008CEB98E0D8CF8FEA98E085CF8CEF91E0B0
:103950009F938F9381E295E09F938F930E94DB0664
:103960000F900F900F900F9067CF0E949825062F11
:10397000F72EE82ED92EC091EF03C7FBCC27C0F954
:103980000E94F924182F0E94D924D82F0E943D228A
:10399000DF92EF92FF920F931F92CF931F921F938C
:1039A0001F92DF931F928F938DE994E09F938F93E3
:1039B0000E94DB068DB79EB70E960FB6F8949EBF99
:1039C0000FBE8DBF39CF0E94410C9091EF03892F1C
:1039D00097FB87F980588093EF0387FF03C085EA40
:1039E00098E039CF8AE998E036CF80E00E94671BE3
:1039F00023CF8953FBCF8D51F9CF88E998E09F936E
:103A00008F930E94DB060F900F9080E041CF80E003
:103A100008950E94071D0895CF93C82F8091CB036E
:103A20008130C1F0882339F0823009F450C01092FF
:103A3000CB0380E00DC00E94BD108232D1F78C2FE5
:103A40000E94071D81111FC08C2F0E94821B817054
:103A5000CF9108950E94BD10823289F38C2F0E946D
:103A6000091D811127C0C43139F180F4CB3091F0A8
:103A7000C03131F182E994E09F938F930E94DB067D
:103A80000F900F901BC081E090E0E1CFC932A1F010
:103A9000C83381F784E295E09F938F930E94DB0601
:103AA00084E994E09F938F930E94DB060F900F9020
:103AB0000F900F9081E0CBCF1092CB0380E0C7CF67
:103AC00082E08093CB0388E30E94341AF3CF8C2FDB
:103AD0000E94341A81E0BCCFCF93DF93EB01863193
:103AE0009C4711F50E94BD109D81992399F08A7A17
:103AF00091E009F490E09093CC03811109C089E230
:103B00000E9415240E94711180E0DF91CF910895E9
:103B100085E3F6CF8091CC03811104C089E20E9435
:103B20002F24F0CF85E3FBCF81E0EFCFCF93DF935E
:103B3000EC01FB018581882309F4D2C09E01305736
:103B40002332310508F0B2C00E9415129093F003A1
:103B50008093EF03FE01E150F047E232F10520F4DB
:103B6000EF52F14D0C94C52D8091EF03816080934D
:103B7000EF0393C08091F00388608093F0038DC0C1
:103B80008091EF038260F3CF8091EF038460EFCFE9
:103B90008091EF038860EBCF8091F0038160EDCFDF
:103BA0008091F0038260E9CF8091EF038061DFCFE5
:103BB0008091EF038062DBCF8091EF038064D7CFE9
:103BC0000E94410C8091EF038068D1CF8091EF0378
:103BD0008C60CDCF8091F0038360CFCF8091EF03D5
:103BE0008E7FC5CF8091F003877FC7CF8091EF0391
:103BF0008D7FBDCF8091EF038B7FB9CF8091EF0395
:103C0000877FB5CF8091F0038E7FB7CF8091F0038F
:103C10008D7FB3CF8091EF038F7EA9CF8091EF038B
:103C20008F7DA5CF8091EF038F7BA1CF0E94410CA8
:103C30008091EF038F779BCF8091EF03837F97CFA6
:103C40008091F0038C7F99CF8091EF0382FB9927BD
:103C500090F921E0922790FB82F990FB83F987CFBE
:103C60008091F003982F909591708E7F892B90FB17
:103C700081F983CF9091EF03892F8F7B96FF80642A
:103C800076CF0E94410C9091EF03892F97FB87F923
:103C900080586DCF81E00E949B128091EF0390913C
:103CA000F0030E941A120E94410C80E0DF91CF9134
:103CB000089580E0F0CF9091EF03892F8F7E94FFDD
:103CC000806155CF9091EF03892F8E7F90FF8160A7
:103CD0004ECF9091F003892F877F93FF88604DCF5F
:103CE00081E0E4CF282F35EB2303C001112497FF97
:103CF00004C080589109892F089580589F4FFBCFA9
:103D00008091D30380FF0DC06091090170E0660FC0
:103D1000771F6038710570F56115710569F1862F9F
:103D2000089581FF07C06091090184E0689FB00198
:103D30001124EFCF6091090182FD0AC08091D20366
:103D40008823A9F02091080160910901821710F0E1
:103D500088E0ECCF869FC001112433E0880F991FC3
:103D60003A95E1F7622F70E00E948F2DD2CF68E084
:103D700070E0D5CF8FE7089581E008958091D30357
:103D800080FF0CC06091050170E075956795759591
:103D900067956115710549F1862F089581FF06C069
:103DA0006091050170E075956795F3CF609105010D
:103DB00082FD0BC09091D1039923A1F06091040181
:103DC00080910501961738F0682F70E06038710512
:103DD00000F38FE70895899FC001112470E00E94CD
:103DE0008F2DF4CF61E070E0D7CF81E008958D3C56
:103DF00031F40E94801E81958093D70308958E3CF4
:103E000019F40E94801EF8CF8F3C31F40E94801E6E
:103E100081958093D6030895803D19F40E94801EF9
:103E2000F8CF893D29F40E94BE1E8093D8030895DF
:103E30008A3D21F40E94BE1E8195F7CF8B3D31F45F
:103E40000E94BE1E81958093D90308958C3D19F47C
:103E50000E94BE1EF8CF9FE2980F983070F4815DEB
:103E6000990B21E030E001C0220F8A95EAF780919A
:103E7000D503822B8093D50308958D3D31F4809135
:103E8000D30381608093D30308958E3D21F4809104
:103E9000D3038260F7CF8F3DB9F78091D30384605D
:103EA000F1CF4091D6038D3C59F48091D70387FF21
:103EB0000DC01092D70341110BC01092D20308C05D
:103EC0008E3C81F48091D70318169CF3442381F033
:103ED0008091D8039091D903892B09F05AC0109290
:103EE000D10308958F3C49F447FFF0CF1092D603D9
:103EF0008091D7038111ECCFE0CF803D19F41416E7
:103F0000ACF3E4CF9091D803893D29F41916F4F667
:103F10001092D803DBCF8A3D19F497FFD7CFF8CFA3
:103F20009091D9038B3D29F497FFD0CF1092D903FC
:103F3000CDCF8C3D19F41916CCF3C8CF9FE2980F62
:103F4000983090F4815D990B21E030E0B90102C016
:103F5000660F771F8A95E2F7CB0180959091D50384
:103F600089238093D503B2CF8D3D31F48091D30363
:103F70008E7F8093D303AACF8E3D21F48091D3030B
:103F80008D7FF7CF8F3D09F0A1CF8091D3038B7F39
:103F9000F0CF08958091C20383FF96C083E799E034
:103FA0009F938F930E94DB068091D5031F928F937E
:103FB0008EE699E09F938F930E94DB068CE699E052
:103FC0009F938F930E94DB068091D603282F082EA3
:103FD000000C330B3F938F9389E699E09F938F9367
:103FE0000E94DB0687E699E09F938F930E94DB0691
:103FF0008091D703282F082E000C330B3F938F930B
:1040000084E699E09F938F930E94DB0682E699E015
:104010009F938F930E94DB068091D803282F082E50
:10402000000C330B3F938F938FE599E09F938F9311
:104030000E94DB068DE599E09F938F930E94DB063B
:104040008091D903282F082E000C330B3F938F93B8
:104050008AE599E09F938F930E94DB0687E599E0BC
:104060009F938F930E94DB068DB79EB780960FB605
:10407000F8949EBF0FBE8DBF8091D2031F928F9385
:1040800084E599E09F938F930E94DB0682E599E097
:104090009F938F930E94DB068091D3031F928F938F
:1040A0008FE499E09F938F930E94DB068CE499E064
:1040B0009F938F930E94DB068DB79EB70C960FB629
:1040C000F8949EBF0FBE8DBF0E948C259C019091DD
:1040D000D6038091D703982B21F03093D0032093FF
:1040E000CF039091D8038091D903982B21F030937E
:1040F000CE032093CD0384ED93E00E94ED2208953A
:1041000086E0E4EDF3E0DF011D928A95E9F7109275
:10411000D2031092D1031092D3030895FC0182813F
:1041200081110EC0838181110BC08481811108C06F
:1041300091E08581811101C090E0892F81700895FF
:1041400081E0FCCFA6E0B0E0E8EAF0E20C94F42DC8
:1041500086E0E4EDF3E0DE01119601900D928A9580
:10416000E1F71092D6031092D7031092D803109261
:10417000D9038B819C81892B89F08091CF03909109
:10418000D0030E941B25AC019091D2039923C9F161
:1041900080910A018417150608F440C08D819E8124
:1041A000892B91F08091CD039091CE030E941B2525
:1041B000AC019091D103992309F46AC08091060162
:1041C0008417150608F472C0BE016F5F7F4F84ED3F
:1041D00093E00E946324811105C084ED93E00E9466
:1041E0008E2081110E94CA1F86E0FE013196A4ED47
:1041F000B3E001900D928A95E1F72696E3E00C94E6
:10420000102E20910B018AE0289F90011124241781
:10421000350720F69F5F9093D20302C09F3FD1F7EE
:104220001B81112359F00E94801E9FEF11160CF480
:1042300091E0899F802D11248093D6031C81112346
:1042400059F00E94801E9FEF11160CF491E0899F97
:10425000802D11248093D7038091D603882309F4FD
:104260009DCF1091D703112309F498CF0E94721E9D
:10427000882351F08093D603812F0E94721E8823D9
:1042800029F08093D7038ACF81E0F4CF81E0F9CF82
:10429000209107018AE0289F9001112424173507F7
:1042A00008F092CF9F5F9093D10302C09F3FD1F758
:1042B0001D81112359F00E94BE1E9FEF11160CF4B0
:1042C00091E0899F802D11248093D8031E811123B2
:1042D00059F00E94BE1E9FEF11160CF491E0899FC9
:1042E000802D11248093D9038091D803882309F469
:1042F0006BCF1091D903112309F466CF0E94721E6F
:10430000882351F08093D803812F0E94721E882346
:1043100029F08093D90358CF81E0F4CF81E0F9CF21
:104320000F931F93CF93DF93C42FD22FFC0185816E
:104330008823C9F04093DC030E948C259093DB0313
:104340008093DA0380E28C0F883040F4C77081E0FC
:1043500001C0880FCA95EAF70E94EC09DF91CF915E
:104360001F910F9108951091DC03141332C08091B6
:10437000DA039091DB030E941B258F3A910548F5E3
:10438000C0E2CD0F1D17B9F080E2810F883040F4F4
:10439000177081E001C0880F1A95EAF70E94F309AF
:1043A000C83048F481E09D2F977001C0880F9A951E
:1043B000EAF70E94EC09802F0E94E309C83070F6EA
:1043C000D77081E001C0880FDA95EAF70E94F309FF
:1043D000C5CF80E28C0F883008F6C77081E001C03D
:1043E000880FCA95EAF7F2CF0F93DB0188519C47FB
:1043F00087309105A0F5FC01ED50F14D0C94C52DD1
:1044000006E221EE41EE6AE17CE7CD010E949021B7
:1044100080E00F91089507E225EE45EE6BE17CE721
:10442000F4CF06E221EE40EE68E17CE7EECF07E252
:1044300025EE44EE69E17CE7E8CF06E221EE42EEAC
:104440006CE17CE7E2CF07E225EE46EE6DE17CE72A
:10445000DCCF08E221E045EE6EE17CE7D6CF159691
:104460008C91882319F01092DC03D3CF81E0D1CF57
:104470009093E2038093E1030895E091E103F091CA
:10448000E203309729F00190F081E02D099508951D
:1044900080E008950E943D220895EF92FF920F93CD
:1044A0001F93CF93DF93EC01E091E103F091E203DE
:1044B0003097E1F10280F381E02D09958091C203EC
:1044C00082FF34C080FF0DC088811F928F938BEBD9
:1044D00099E09F938F930E94DB060F900F900F90AF
:1044E0000F907E0186E0E80EF11C05EB19E080914B
:1044F000C20380FF0BC08A811F928F931F930F937B
:104500000E94DB060F900F900F900F902196CE1512
:10451000DF0569F78091C20380FF08C083EB99E053
:104520009F938F930E94DB060F900F90CDB7DEB75D
:10453000E6E00C940D2EEF92FF920F931F93CF9312
:10454000DF93EC01E091E103F091E203309709F48D
:104550003FC086E088830480F581E02DCE01099577
:104560008091C20382FF34C080FF0DC089811F92F9
:104570008F938EE999E09F938F930E94DB060F90B3
:104580000F900F900F907E018EE1E80EF11C08E96C
:1045900019E08091C20380FF0BC08A811F928F9324
:1045A0001F930F930E94DB060F900F900F900F90B8
:1045B0002196CE15DF0569F78091C20380FF08C000
:1045C00086E999E09F938F930E94DB060F900F90EE
:1045D000CDB7DEB7E6E00C940D2EE091E103F0914B
:1045E000E203309739F022E0DC012C930680F7815A
:1045F000E02D09950895A3E0B0E0E1E0F3E20C942A
:10460000F52D2091DF033091E00328173907A1F041
:104610009093E0038093DF03E091E103F091E203E4
:10462000309751F023E029839B838A830084F185AE
:10463000E02DCE01019609952396E2E00C94112E0F
:10464000A3E0B0E0E6E2F3E20C94F52D2091DD0367
:104650003091DE0328173907A1F09093DE03809391
:10466000DD03E091E103F091E203309751F024E0A3
:1046700029839B838A830084F185E02DCE010196F6
:1046800009952396E2E00C94112ECF93DF93C0910D
:104690000201D091030122960E94D924813081F435
:1046A0008091EF0387FF0CC0C0910001D091010100
:1046B00022969EE180E0915028F4DF91CF910895F9
:1046C00096E0F8CF29912223B1F38F5FF4CFCF93F7
:1046D000C82F811102C080E024C00E94D9248130FB
:1046E00011F58091EF0387FF1EC0EC2FE695E6954C
:1046F000E695EE3180F78091000190910101E80F7D
:10470000F92FF11D228130E0C77081E090E002C0F6
:10471000880F991FCA95E2F72823392381E0232BBC
:10472000D1F2CF9108958091020190910301FC0193
:104730003296089621912C1721F0E817F907D1F746
:10474000CACF81E0EECF9C01FC0132969FEF80E062
:104750004191461751F09F3F19F4411101C0982F24
:104760008F5F8630A9F79F3F09F40895290F311D07
:1047700097FD3A95F90162830895FC0132960896F7
:104780002191261303C0DF0111971C92E817F90746
:10479000B9F70895E62FE695E695E695EE3170F4C3
:1047A000E80FF92FF11D677021E030E001C0220F02
:1047B0006A95EAF78281822B828308958091C203F1
:1047C00080FF0CC01F926F9382EF99E09F938F93AD
:1047D0000E94DB060F900F900F900F900895E62F28
:1047E000E695E695E695EE3178F4E80FF92FF11DA0
:1047F000677021E030E001C0220F6A95EAF720954A
:1048000082812823228308958091C20380FF0CC0F7
:104810001F926F9384ED99E09F938F930E94DB0624
:104820000F900F900F900F900895CF93C82F0E9474
:10483000D9246C2F813061F48091EF0387FF08C089
:1048400080910001909101010E94CA23CF910895A7
:1048500080910201909103010E94A323F7CFCF938F
:10486000C82F0E94D9246C2F813061F48091EF030E
:1048700087FF08C080910001909101010E94EF2301
:10488000CF91089580910201909103010E94BD2370
:10489000F7CF0E94D924813079F48091EF0387FF0C
:1048A0000BC0E0910001F091010132968EE1DF0131
:1048B0001D928A95E9F70895E0910201F0910301B4
:1048C000329686E0F4CFDC01FB0111969C911197A2
:1048D0008181981322C012968C911297882319F027
:1048E000928189131AC013968C911397882319F01B
:1048F0009381891312C015968C911597882319F00E
:10490000958189130AC014969C91992321F081E026
:104910002481291303C080E001C081E081700895E3
:1049200008950E949024089581110EC081E0809323
:104930000F0160910C0170910D0180910E01909119
:104940000F010E949124089582E0F1CF83E08093CB
:104950000F0160910C0170910D0180910E019091F9
:104960000F010E94912408950E949424089581E0EB
:1049700080930F0160910C0170910D0180910E01E7
:1049800090910F010E94912408950E94B7240895E8
:1049900091E0811101C090E090930E0160910C01B3
:1049A00070910D0180910E0190910F010E94912450
:1049B000089580910E01089580930D0160910C017E
:1049C00070910D0180910E0190910F010E94912430
:1049D000089580910D01089580930C0160910C0160
:1049E00070910D0180910E0190910F010E94912410
:1049F000089580910C010895089508950E94FD2462
:104A00000895089508950E94FC240895CF930E946C
:104A100001250E9401170E940225C0E08C2F0E94F0
:104A2000D815892B31F4CF5FC530C1F780E0CF9125
:104A3000089581E0FCCFCF93DF93EC010E948C2599
:104A40008C1B9D0BDF91CF91089585B7806885BF42
:104A500085B7806885BF08951F921FB61F921124E5
:104A60008F939F93AF93BF938091E303811113C002
:104A70008091060490910704A0910804B091090464
:104A80004196A11DB11D8093060490930704A09345
:104A90000804B0930904BF91AF919F918F911F902B
:104AA0001FBE1F90189580910E04843031F10E9432
:104AB0001E081092E30388E190E020E40FB6F8941A
:104AC000A895809360000FBE2093600083B7817F1C
:104AD000846083BF83B7816083BF7894889583B7F0
:104AE0008E7F83BF0FB6F894A8958091600088618F
:104AF00080936000109260000FBE08950E94410CE8
:104B00000E942608089582E084BD93E095BD9AEF47
:104B100097BD80936E0008952FB7F8948091060496
:104B200090910704A0910804B09109042FBF089543
:104B30002FB7F894609106047091070480910804DF
:104B4000909109042FBF089578941F921FB61F9269
:104B500011248F939F93AF93BF93809106049091FC
:104B60000704A0910804B09109040196A11DB11D8C
:104B70008093060490930704A0930804B09309045B
:104B8000BF91AF919F918F911F901FBE1F9018955D
:104B900081E08093E00080E28093D8001092C90009
:104BA0008FE19EE40197F1F700C0000087E090EBF1
:104BB000DC018093170490931804A0931904B09318
:104BC0001A0488E19CE00FB6F894A89580936000E1
:104BD0000FBE90936000FFCF88E19CE00FB6F89481
:104BE000A895809360000FBE90936000FFCF9B015B
:104BF000BA0190910E049430E9F48F708093E9002B
:104C00009FEF8091E800915085FD06C085ED8A9563
:104C1000F1F700009111F5CF8091E80085FF0AC0FF
:104C200050E040E0C9010E94D9288091E8008E77C9
:104C30008093E800089543E050E0BC0182E00E94C8
:104C4000F725089546E050E0BC0182E00E94F72578
:104C5000089540E250E0BC0182E00E94F7250895EB
:104C6000CF93DF93EC010E94D92448E050E0BE01CD
:104C700081E00E94F72588E0FE01A7EEB3E00190F5
:104C80000D928A95E1F7DF91CF910895089586E31B
:104C90009AE09F938F930E94DB0680910D040F9002
:104CA0000F90811109C00E94692A0E94C62A809132
:104CB000E20084608093E200089582E39AE09F938B
:104CC0008F930E94DB0610920D040F900F900895B1
:104CD0008EE29AE09F938F930E94DB060E94B72496
:104CE00081E00E94C8240F900F9008958AE29AE014
:104CF0009F938F930E94DB0660910A0481E061110B
:104D000001C080E00E94A6240F900F90089586E2D3
:104D10009AE09F938F930E94DB0690910E0481E0AE
:104D2000943009F080E060910A040E94B4240F904E
:104D30000F9008952091E5032F5F822F62E30E9478
:104D40006F2D992319F02093E50308951092E50340
:104D50008091E6038823F1F080910E048430C1F441
:104D60009091E9009F702091EC00822F817020FDCE
:104D700080E8892B93E09093E9009091EB0090FFFD
:104D800004C09091EE0097FD08C08F708093E900F9
:104D90001092E60308951092F1009091E80095FDBD
:104DA000FACF9091E80090FFF0CF9091E8009E77C5
:104DB0009093E800EACF42E061EC81E00E94E529AF
:104DC00042E261EC82E00E94E52942E261EC83E08C
:104DD0000E94E52990910E0481E0943009F080E072
:104DE00060910A040E9494240895809110048330F5
:104DF00009F461C030F48130D1F1823009F49EC0F1
:104E000008958A3009F48AC08B3009F46FC0893064
:104E100009F050C080910F04813209F04BC080919D
:104E2000130490911404029708F044C08091E800A4
:104E3000877F8093E8008091E80082FF37C09091DF
:104E4000F3008091F200029731F48091F1008130FB
:104E500011F0863021F48091F1000E94DC248091D1
:104E6000E8008B778093E8000E94192A23C0809184
:104E70000F04813AF9F48091E800877F8093E8007D
:104E80008091130490911404892B61F468E087EEFB
:104E900093E070E00E9428298091E8008B7780934E
:104EA000E800089560E090E080E0F3CF80910E0488
:104EB0008111C1CF089580910F04813AD9F7809173
:104EC000130490911404892BA9F78091E800877F3F
:104ED0008093E8008091E80080FFFCCF0E94D924F5
:104EE0008093F1008091E8008E77BCCF80910F0411
:104EF000813201F78091130490911404892BD1F62B
:104F00008091E800877F8093E8000E94192A8091B1
:104F100011040E94C8240E94410C089580910F043E
:104F2000813241F68091E800877F8093E8000E94FB
:104F3000192A809112040E94EC24089580910F0494
:104F4000813A09F0B7CF8091E800877F8093E8002D
:104F50008091E80080FFFCCF0E94F924C1CF9FB769
:104F6000F8941092E6039FBF90910E04943009F0DC
:104F700048C02091E9002F703091EC00932F917080
:104F800030FD90E8922B23E02093E9002091EB0084
:104F900020FF34C02091EE0027FF30C02091E403B1
:104FA000222321F02091E80025FF28C01092E4037D
:104FB00026E03091E80035FF14C08093F100809125
:104FC000E80085FD27C08091E80080FFFCCF80913C
:104FD000E8008E778093E8009F709093E90080E06E
:104FE000089530910E04343049F43091EB0035FDD2
:104FF00005C0215041F481E08093E4039F709093B9
:10500000E9008FEF0895EFE9FFE03197F1F700C075
:105010000000CFCF8FB7F89421E02093E6038FBF35
:10502000DBCF84B7877F84BF0FB6F894A8958091B3
:105030006000886180936000109260000FBE80E87D
:1050400090E00FB6F89480936100909361000FBEDA
:105050000E94C52408950E94692A0E94C62AE2EE91
:10506000F0E080818460808378940E94442D0895CC
:1050700080E191E00E943822089580910E048530ED
:1050800091F48091C20380FF08C080E19AE09F9371
:105090008F930E94DB060F900F9080910E04853055
:1050A00019F00E947E2508950E9453250E9406252E
:1050B000882399F380910C04882379F30E94C328F4
:1050C0000E94410CEACF08959A0140911504509135
:1050D00016040E946C280895492F55274330510526
:1050E00021F168F44130510509F443C042305105C3
:1050F00009F444C090E080E050E040E026C0413236
:10510000510551F142325105A9F76330710590F70D
:10511000FB01EE0FFF1FE452FD4F408151816752AA
:105120007D4FFB01808190E010C09927813091056F
:1051300081F0009729F00297E9F6EAE3FAE002C06D
:10514000EEE7FAE0849190E0AF01F90151834083EA
:105150000895EAE5FAE0F6CF6330710558F6660F78
:10516000771FFB01EE51FD4F4081518189E090E0B6
:10517000ECCF82E190E046ED5AE0E7CF84E590E0A5
:1051800042E85AE0E2CF80E189BD82E189BD09B4FD
:1051900000FEFDCF8091D8008F7D8093D800809154
:1051A000E00082608093E0008091E00081FDFCCF10
:1051B0000895AF92BF92CF92DF92FF920F931F9309
:1051C000CF93DF936C01EB018A010E94382AF82EFD
:1051D000811123C00115110539F0F80180819181F9
:1051E000C81BD90BC80ED91EB12CA12C2097A9F031
:1051F0008091E80085FD22C08091E8008E77809341
:10520000E80001151105A1F0F80180819181A80E37
:10521000B91EB182A08285E0F82E8F2DDF91CF914B
:105220001F910F91FF90DF90CF90BF90AF900895A6
:105230000E94382A8823D1F2F82EEFCFF60181910F
:105240006F018093F1002197FFEFAF1ABF0ACECF15
:10525000FC01809115049091160486179707A0F021
:105260006115710529F49091E8009E779093E8000C
:1052700090E06115710551F4911108C08091E8002A
:1052800082FF34C080E00895BC01F2CF80910E040B
:105290008823C1F18530C1F18091E80083FD30C0E1
:1052A0008091E80082FDEACF8091E80080FFE1CFA5
:1052B0008091F3002091F200382F6115710519F0EB
:1052C0002830310558F091E02830310509F090E0A0
:1052D0002091E8002E772093E800CBCF8191809336
:1052E000F100615071092F5F3F4FE7CF80910E04AD
:1052F000882341F0853041F08091E80083FFBECFE4
:1053000081E0089582E0089583E00895FC01809192
:1053100015049091160486179707A0F06115710582
:1053200029F48091E8008E778093E80090E0611581
:10533000710551F4911108C08091E80082FF35C0D9
:1053400080E00895BC01F2CF80910E048823C9F15A
:105350008530C9F18091E80083FD31C08091E8007B
:1053600082FDEACF8091E80080FFE1CF8091F300D9
:105370002091F200382F6115710519F028303105A0
:1053800058F091E02830310509F090E08091E80074
:105390008E778093E800CBCF84918093F100319693
:1053A000615071092F5F3F4FE6CF80910E04882333
:1053B00041F0853041F08091E80083FFBDCF81E06E
:1053C000089582E0089583E00895982F973028F09B
:1053D0008F708093E90081E008959093E900242F75
:1053E000762F50E0981731F07091EC002091ED008D
:1053F0005091F00021FD02C09F5FE8CF3091EB009B
:105400003E7F3093EB003091ED003D7F3093ED0017
:105410003091EB0031603093EB007093EC002093FF
:10542000ED005093F0002091EE0027FDE5CF80E0E5
:10543000089580910F0487FF13C08091E80082FFD8
:1054400006C08091E8008B778093E80004C08091CB
:105450000E048111F2CF089580910E048823D9F3B0
:105460008091E80080FFF8CF8091E8008E77ECCF44
:105470002091E4003091E50095E6A9012091EC002F
:10548000822F817020FF06C08091E80080FF06C057
:1054900080E008952091E80022FD1AC080910E045A
:1054A000882389F0853089F08091EB0085FD0FC05D
:1054B0002091E4003091E50042175307F9F2915032
:1054C000E1F684E0089582E0089583E0089581E0A4
:1054D00008950E94D82A0E94E02AE0EEF0E0808140
:1054E00081608083E8EDF0E080818F77808319BC54
:1054F000A7EDB0E08C918E7F8C9380818F7E80832E
:1055000010920D0408950F931F93CF93DF930E9481
:10551000D82A0E94E02AC8EDD0E088818F7788835E
:1055200088818068888388818F7D888319BC1092E8
:105530000E0410920A0410920C0410920B0400EE58
:1055400010E0F80180818B7F80838881816088836F
:1055500042E060E080E00E94E529E1EEF0E0808139
:105560008E7F8083E2EEF0E08081816080838081A5
:1055700088608083F80180818E7F8083888180614C
:105580008883DF91CF911F910F910895E8EDF0E0AE
:1055900080818F7E8083E7EDF0E080818160808371
:1055A00084E082BF81E080930D040E94832A0895E5
:1055B000E8EDF0E080818E7F80831092E200089514
:1055C0001092DA001092E10008951F920F920FB628
:1055D0000F9211242F933F934F935F936F937F9379
:1055E0008F939F93AF93BF93EF93FF938091E100CD
:1055F00082FF0BC08091E20082FF07C08091E10032
:105600008B7F8093E1000E949A268091DA0080FFD0
:1056100019C08091D80080FF15C08091DA008E7F7C
:105620008093DA008091D90080FF96C080E189BD27
:1056300082E189BD09B400FEFDCF81E080930E04B4
:105640000E9447268091E10080FF19C08091E2000E
:1056500080FF15C08091E2008E7F8093E2008091F0
:10566000E20080618093E2008091D80080628093A4
:10567000D80019BC85E080930E040E9476268091A4
:10568000E10084FF2BC08091E20084FF27C080E10D
:1056900089BD82E189BD89B5982F917080FFFBCFCC
:1056A0008091D8008F7D8093D8008091E1008F7E1B
:1056B0008093E1008091E2008F7E8093E2008091F0
:1056C000E20081608093E20080910A04882309F45B
:1056D00049C084E080930E040E9487268091E100F7
:1056E00083FF29C08091E20083FF25C08091E10003
:1056F000877F8093E10082E080930E0410920A0479
:105700008091E1008E7F8093E1008091E2008E7FA6
:105710008093E2008091E20080618093E20042E0A9
:1057200060E080E00E94E5298091F000886080932D
:10573000F0000E946826FF91EF91BF91AF919F9179
:105740008F917F916F915F914F913F912F910F902A
:105750000FBE0F901F90189519BC10920E040E9456
:105760005D2670CF8091E30087FD93E090930E0457
:10577000B3CF1F920F920FB60F9211242F933F9326
:105780004F935F936F937F938F939F93AF93BF9349
:10579000CF93DF93EF93FF93D091E900DF70809177
:1057A000EC00C82FC17080FDC0E81092E900809124
:1057B000F000877F8093F00078940E94FD2B109278
:1057C000E9008091F00088608093F000CD2BCF70CD
:1057D000C093E900FF91EF91DF91CF91BF91AF911D
:1057E0009F918F917F916F915F914F913F912F91F9
:1057F0000F900FBE0F901F901895AAE2B0E0E3E063
:10580000FCE20C94F42D8FE094E02091F100FC0177
:105810002193CF01F4E087319F07B9F70E94F52665
:105820008091E80083FF1EC180910F0490911004C5
:105830009A3008F017C1E92FF0E0E650F14D0C94D2
:10584000C52D803899F0823809F00CC1809113047D
:105850008F70873008F006C18093E9008091EB00DB
:1058600085FB882780F91092E90006C080910B041F
:1058700090910C04911182609091E800977F909331
:10588000E8008093F1001092F1008091E8008E779B
:10589000E5C0882309F4D3C0823009F0E3C08091C9
:1058A00011048111D6C0809113048F702FEF280F3F
:1058B000263008F0D7C08093E9002091EB0020FF4C
:1058C000C8C0933031F48091EB0080628093EB008C
:1058D000C0C09091EB0090619093EB0021E030E02C
:1058E00001C0220F8A95EAF72093EA001092EA009D
:1058F0008091EB008860EACF8111B4C0109111044F
:105900001F778091E3008078812B8093E300809162
:10591000E800877F8093E8000E94192A8091E800C0
:1059200080FFFCCF8091E30080688093E30082E0F9
:10593000111183E080930E0495C08058823008F0E6
:1059400091C080911104909112048C3D23E0920744
:10595000A1F583E08A838AE289834FB7F894DE0158
:10596000139620E03EE051E2E32FF0E05093570021
:10597000E49120FF03C0E295EF703F5FEF708E2F40
:1059800090E0EA30C0F0C7968D939D932F5F24314D
:1059900059F74FBF8091E800877F8093E8006AE263
:1059A00070E0CE0101960E9428298091E8008B7753
:1059B0008093E80057C0C096E7CF609113047091C0
:1059C0001404AE014F5F5F4F0E946428BC01892B15
:1059D00009F448C09091E800977F9093E80089818E
:1059E0009A810E948629E1CF8038E1F58091E80014
:1059F000877F8093E80080910A048093F10045CF6F
:105A0000811130C090911104923060F58091E800CE
:105A1000877F8093E80090930A040E94192A80915E
:105A20000A04882311F084E005C08091E30087FD1B
:105A3000FACF81E080930E040E94DB2613C0809190
:105A40001104813079F481E0933009F080E0809393
:105A50000C041092E9008091E800877F8093E800B1
:105A60000E94192A8091E80083FF0AC08091E80013
:105A7000877F8093E8008091EB0080628093EB0049
:105A8000AA96E3E00C94102ECF9380910E04882305
:105A9000A1F0C091E900CF709091EC00892F817046
:105AA00090FD80E8C82B1092E9008091E80083FD0A
:105AB0000E94FD2BCF70C093E900CF910895DB01C8
:105AC0008F939F930E94DA2DBF91AF91A29F800D7B
:105AD000911DA39F900DB29F900D11240895991BC5
