:100000000C94AC030C94E4030C94E4030C94E4030C
:100010000C94E4030C94E4030C94E4030C94E403C4
:100020000C94E4030C94E4030C94D8210C94AC22BB
:100030000C94871A0C94E4030C94E4030C94E403EA
:100040000C94E4030C94E4030C94E4030C94E40394
:100050000C94E4030C94FF1A0C94E4030C94E40352
:100060000C94E4030C94E4030C94E4030C94E40374
:100070000C94E4030C94E4030C94E4030C94E40364
:100080000C94E4030C94E4030C94E4030C94E40354
:100090000C94E4030C94E4030C94E4030C94E40344
:1000A0000C94E4030C94E4030C94E4030A0025305C
:1000B000313662003A200025303258000A722F6330
:1000C00020303132333435363738394142434445B4
:1000D000460A00723A256420633A2564200A006CBF
:1000E0006566742073696465206174746163686512
:1000F000640A006C6566742073696465206E6F74B1
:1001000020726573706F6E64696E670A007472792D
:10011000696E6720746F207265736574206D6370FB
:1001200032333031380A004932433A2025640A001C
:100130007374617274696E6720696E69740004007B
:100140001600070009000A000B001C00170015002C
:1001500008001A00140044454255473A2064697368
:1001600061626C65642E0A0044454255473A206539
:100170006E61626C65642E0A006C65645F74617305
:100180006B3A20253032580A004F6E6573686F74E1
:100190003A206163746976653A2025640A003F005D
:1001A000433E20004C25640A000A092D2053746147
:1001B000747573202D0A686F73745F6B6579626F55
:1001C0006172645F6C65647328293A202530325867
:1001D0000A6B6579626F6172645F70726F746F63CE
:1001E0006F6C3A20253032580A6B6579626F617204
:1001F000645F69646C653A20253032580A74696D11
:1002000065725F72656164333228293A202530387F
:100210006C580A002573000A092D20436F6E736F16
:100220006C65202D0A4553432F713A097175697425
:100230000A000A092D204D61676963202D0A443A9E
:10024000094465627567204D657373616765205465
:100250006F67676C650A583A094D61747269782056
:100260004465627567204D6F646520546F67676CE5
:1002700065202D2053686F77206B657970726573E8
:1002800073657320696E206D61747269782067727E
:1002900069640A4B3A094B6579626F617264204464
:1002A0006562756720546F67676C65202D20536801
:1002B0006F77206B65797072657373207265706FEC
:1002C00072740A4D3A094465627567204D6F757303
:1002D0006520546F67676C650A563A0956657273F4
:1002E000696F6E0A533A095374617475730A433A1D
:1002F00009416374697661746520436F6E736F6C36
:1003000065204D6F64650A46312D4631303A0953F8
:10031000776974636820746F204C6179657220304E
:100320002D392028463130203D204C30290A302DEF
:10033000393A0953776974636820746F204C617986
:10034000657220302D390A47524156453A09537794
:100350006974636820746F204C6179657220302065
:1003600028616C7465726E617465290A423A094AA3
:10037000756D7020746F20426F6F746C6F6164656F
:10038000720A4553433A094A756D7020746F2042D2
:100390006F6F746C6F616465722028616C74657234
:1003A0006E617465290A453A095072696E74204578
:1003B0004550524F4D2053657474696E67730A42FD
:1003C00041434B53504143453A09436C65617220A8
:1003D000454550524F4D0A006B65796D61705F6302
:1003E0006F6E6669672E7261773A20253032580A3F
:1003F0002E737761705F636F6E74726F6C5F636191
:1004000070736C6F636B3A2025750A2E636170738D
:100410006C6F636B5F746F5F636F6E74726F6C3A57
:100420002025750A2E737761705F6C63746C5F6C46
:100430006775693A2025750A2E737761705F72635C
:10044000746C5F726775693A2025750A2E7377613F
:10045000705F6C616C745F6C6775693A2025750A12
:100460002E737761705F72616C745F726775693A41
:100470002025750A2E6E6F5F6775693A2025750A0B
:100480002E737761705F67726176655F6573633A3B
:100490002025750A2E737761705F6261636B736CE0
:1004A0006173685F6261636B73706163653A202595
:1004B000750A2E6E6B726F3A2025750A2E7377615E
:1004C000705F6573636170655F636170736C6F63A8
:1004D0006B3A2025750A0064656275675F636F6E0D
:1004E0006669672E7261773A20253032580A2E6588
:1004F0006E61626C653A2025750A2E6D61747269B1
:10050000783A2025750A2E6B6579626F6172643ABC
:100510002025750A2E6D6F7573653A2025750A00C2
:100520006565636F6E6669673A0A64656661756CD6
:10053000745F6C617965723A2025750A003F000A84
:100540006D6F7573653A206F66660A000A6D6F7588
:1005500073653A206F6E0A000A6B6579626F61728B
:10056000643A206F66660A000A6B6579626F617291
:10057000643A206F6E0A000A6D61747269783A20DD
:100580006F66660A000A6D61747269783A206F6E50
:100590000A000A64656275673A206F66660A000A97
:1005A00064656275673A206F6E0A000A0A4A756DC3
:1005B00070696E6720746F20626F6F746C6F616416
:1005C00065722E2E2E2000433E2000436C65617222
:1005D000696E6720454550524F4D0A000A0025308C
:1005E000325820006B6579626F6172645F7265706A
:1005F0006F72743A2025303258207C200073757356
:1006000070656E64696E67206B6579626F61726494
:100610000D0A005B575D005B535D005B525D005B44
:10062000445D005B435D0012034500720067006F8C
:10063000005400610063006F000000260367002083
:100640000048006500610076007900200049006ED6
:100650000064007500730074007200690065007327
:100660000000000403090409025400030100A0FA79
:100670000904000001030101000921110100012208
:10068000440007058103080001090401000103007B
:100690000000092111010001223200070582032018
:1006A00000010904020001030000000921110100FA
:1006B000012215000705830320000112010002003A
:1006C000000008EDFE37130100010200010631FFB2
:1006D0000974A1010975150026FF00952075088190
:1006E00002C005010980A101850319012AB700157F
:1006F0000126B700950175108100C0050C0901A104
:1007000001850419012AA002150126A00295017590
:10071000108100C005010906A101050719E029E7BC
:100720001500250195087501810295017508810163
:100730000507190029FF150026FF00950675088199
:100740000005081901290515002501950575019178
:1007500002950175039101C011241FBECFEFDAE0AD
:10076000DEBFCDBF04B603FE18C080912503909173
:100770002603A0912703B09128038730904BA74010
:10078000B04B59F4109225031092260310922703C0
:1007900010922803E0E0F8E3099512E0A0E0B1E050
:1007A000EEE9FAE402C005900D92A435B107D9F73D
:1007B00023E0A4E5B2E001C01D92A532B207E1F743
:1007C0000E9411150C940E250C940000FF93EF93DA
:1007D000E0915402F0915502309709F00995EF919C
:1007E000FF910895FC018591803011F0EFDFFBCF80
:1007F0000895FF27E0E230E247FF0CC0419597FFE4
:1008000009C0EDE26095709580959095611D711D10
:10081000811D911D27FF02C0219530E350E2AA27D8
:10082000660F771F881F991FAA1FA41710F0A41B1B
:1008300063955A95A9F7AA3008F0A95FA05DAF9318
:10084000F395611571058105910541F7ED3211F4BC
:10085000EF93F395F21718F43F93F395FBCF8F9135
:10086000B5DFFA95E1F70895E991F9918591803026
:1008700021F0853219F0AADFF9CF089520E0E8943D
:1008800055915532C1F3503311F4689455915A3350
:1008900048F4505390F3220F022E220F220F200D06
:1008A000250FF4CF0EF4219589919991533619F3C0
:1008B000533729F1533559F1BC0188279927E8941A
:1008C0005C3621F48991999168945591543639F4A4
:1008D00046EF7EF077FF0DC08FEF9FEF0AC05537D0
:1008E0004AE039F0583540E121F0523642E009F053
:1008F0000895FF93EF937DDFEF91FF91B7CFFF93C3
:10090000EF93FC0181918030B9F360DFFBCFFF935F
:10091000EF9368DFF1CFDF93CF93CDB7DEB72596A6
:10092000A3DFCF91DF91089585988D9A089584B1C2
:10093000807F84B985B1807F85B98AB1837F8AB988
:100940008BB1837F8BB90895A1E0B0E0EAEAF4E0CF
:100950000C948624863008F5209100013091010125
:10096000232BB9F421E030E001C0220F8A95EAF789
:100970002095298308EE13E021E030E0AE014F5FBF
:100980005F4F62E180E40E941E1C909301018093FE
:1009900000012196E4E00C94A2248930A9F038F4F7
:1009A000873061F0883069F0209A2898F2CF8A3039
:1009B00071F08B30C9F7539A5B98EBCF219A299845
:1009C000E8CF229A2A98E5CF239A2B98E2CF529A21
:1009D0005A98DFCF089508950E94EB040895CF93AD
:1009E000DF930E94740690E09093010180930001D0
:1009F0000E9497040E949404EFE6F2E0C3E6D2E07E
:100A0000A7E5B2E0119219921D9282E0EB37F80748
:100A1000C9F70E945106DF91CF9108950E94740694
:100A200090E090930101809300010E9497040E943E
:100A30009404EFE6F2E0119282E0EB37F807D9F781
:100A40000895E62FF0E0DF01AD59BD4F9C91982746
:100A50008C93E95AFD4F8081882341F08150808337
:100A600080E090FF02C095E09083089581E0F9CF87
:100A7000A1E0B0E0EEE3F5E00C948524F82E85E0EB
:100A80008F1508F443C0809100019091010110E09E
:100A9000892B51F5198208EE13E021E030E0AE0118
:100AA0004F5F5F4F63E180E40E94681C90930101F7
:100AB00080930001898190E0809590959595879528
:100AC0009595879581708983882369F01F9281E0CD
:100AD0008F9387E291E09F938F930E948B040F90F6
:100AE0000F900F900F9019816F2D812F0E9421057B
:100AF000EF2DF0E0E159FD4F982F90952081922342
:100B00008123892B2196E5E00C94A1241FB115FBCC
:100B1000112710F91095E8CFEF92FF920F931F93D2
:100B2000CF93DF938091000190910101892B09F10E
:100B3000809156028F5F8093560281111AC08DE01A
:100B400091E09F938F930E948B040E94740690E023
:100B500090930101809300010F900F90892B09F46D
:100B600049C083EF90E09F938F930E948B040F9076
:100B70000F908FE6E82E82E0F82E8701C0E08C2FE0
:100B80000E94A404D6E0DC0F8D2F0E94A4048C2FB9
:100B90000E943805F80181938F018D2F0E9438053E
:100BA000F80185830E949704CF5FC63041F70E9409
:100BB000EC04D0E0C0E003ED10E0F70181917F018B
:100BC00080FF0EC01F921F92DF93CF931F930F934E
:100BD0000E948B040F900F900F900F900F900F902A
:100BE0002196CC30D10549F781E0CDB7DEB7E6E0FC
:100BF0000C94A0248FED90E0B6CFE82FF0E0E159FF
:100C0000FD4F80810895B0E0A0E0E9E0F6E00C94AB
:100C10007E248CEB90E09F938F930E948B048FE651
:100C2000E82E82E0F82E0F900F90912C812C97EBFC
:100C3000A92E90E0B92E24EBC22E20E0D22E0EEA8F
:100C400010E0CCEAD0E09F928F92BF92AF920E94C8
:100C50008B04DF92CF920E948B04F70181917F0178
:100C600090E00E940B089F938F931F930F930E9415
:100C70008B04DF93CF930E948B049FEF891A990A0C
:100C8000EDB7FEB73C960FB6F894FEBF0FBEEDBFB2
:100C9000FCE08F169104B9F6CDB7DEB7ECE00C940A
:100CA0009A2424982C9A25982D9A26982E9A27983B
:100CB0002F9A3E98469A3F98479A54985C9A55982E
:100CC0005D9A56985E9A57985F9A6E98769A509861
:100CD000589A5198599A54985C9A56985E9A57988F
:100CE0005F9A0E94EA040895A2E0B0E0EAE7F6E025
:100CF0000C94862480E391E09F938F930E948B0451
:100D000080E290E090930101809300010F900F909A
:100D100080917B0281110EC00E94A41B81E0809310
:100D20007B022FEF83ED90E3215080409040E1F76C
:100D300000C0000019828FE38A8308EE13E022E0EE
:100D400030E0AE014F5F5F4F60E080E40E941E1C08
:100D50009093010180930001892B69F422E030E037
:100D6000AE014F5F5F4F6CE080E40E941E1C9093C9
:100D7000010180930001809100012296E4E00C942F
:100D8000A224842B59F46C3048F4E62FF0E0EE0FE7
:100D9000FF1FE25CFE4F85919491089581E090E001
:100DA00008950E94C106089581E008950E94D40626
:100DB000089581E008950E94D40608950E94DB06FC
:100DC000089508950E94E1060895A6E0B0E0EBEED4
:100DD000F6E00C94872449835A839E8330918102E4
:100DE00089819A8131111AC03E81332399F02223DF
:100DF00089F00E94250D182F682F89819A810E9401
:100E00000B0D69817A81812F0E94FA132696E3E007
:100E10000C94A3240E94180D182FF3CF0E94250DC7
:100E200069817A81F1CFFC01262F40815181628155
:100E30007381848195810E94E5060895CF93DF93A5
:100E4000EC0161E00E941307BE010E94D606DF910B
:100E5000CF910895CF93DF93EC0160E00E941307D8
:100E6000BE010E94E206DF91CF91089521E030E0BB
:100E7000A90102C0440F551F8A95E2F7CA010E94DA
:100E80002D0C0895CF93C82F81E090E00C2E02C066
:100E9000880F991F0A94E2F70E9474118C2F0E9408
:100EA0003607CF91089581E008950E945307089571
:100EB000CF93C82F0E94E00B8C2F0E9455072FEF75
:100EC00084E39CE0215080409040E1F700C00000A6
:100ED000CF91089581E00E9458070E94231B089536
:100EE00080E00E9458070E94471B08950F931F93AC
:100EF000CF93DF938C0161E00E941307EC01B801EE
:100F00000E94DE06811106C080E0DF91CF911F9123
:100F10000F910895B801CE010E9491188823A1F382
:100F2000B801CE010E945117882371F3B801CE0198
:100F30000E942717882341F3B801CE010E94FC14B8
:100F4000882311F3F8018581882369F0C330FCE719
:100F5000DF07A1F160F4C130ECE7DE0789F1C0F4EE
:100F6000C115DC4791F0C8010E94D906CECFCB3520
:100F7000ECE7DE0759F1CC35FCE7DF0721F1CA3594
:100F8000DC4789F70E944F11EECF0E946A07BCCF61
:100F90009091FA02892F8E7F90FF81608093FA02F0
:100FA00080FF09C088E691E09F938F930E948B0495
:100FB0000F900F90A9CF86E591E0F6CF0E945711D0
:100FC0000E947007A1CF0E944511CDCF0E945311FE
:100FD000CACF0E945B1A0E942E0808950E94320810
:100FE0000E945F1A0895829590E09C01220F331FA2
:100FF000220F331F2C7C9595879595958795837344
:10100000282B30E0C901880F991F8A7A35952795DA
:101010002575822B0895CF93DF93D92F0E94F30774
:10102000C82F8D2F0E94F3079C2FDF91CF91089539
:1010300081E008950895CF93DF93D82F0E94180878
:10104000C82F882319F08D2F0E941A088C2FDF914A
:10105000CF91089508950E941B08089580E00E9492
:101060002B0808950E94DA180E942B080895CF9348
:101070000E94DA18C82F80917C028C1701F1C0936E
:101080007C020E94F31A60937D0270937E0280932B
:101090007F02909380028091FA028570853061F41E
:1010A0001F92CF9389E791E09F938F930E948B04C7
:1010B0000F900F900F900F908C2F0E942B08CF91C4
:1010C0000895ADE0B0E0E7E6F8E00C9488244887A6
:1010D00059876A877B878C879D8791110E94721040
:1010E0001F8286E0FE013896DE01119601900D9276
:1010F0008A95E1F78D8181110DC029813A814B815B
:101100005C816D817E818F810E94BC0F2D96E2E013
:101110000C94A424CE0101960E941E078111EDCFEC
:10112000F5CFFC012481213021F4808191810E943E
:10113000570D0895CF93C82F8823C9F08238C9F47A
:101140000E94E71881FD13C089E30E94D2190E9412
:10115000E1102FEF87EE93E0215080409040E1F7BF
:1011600000C0000089E30E94DA190E94E110CF91CB
:1011700008958338A1F40E94E71880FDF8CF83E535
:101180000E94D2190E94E1102FEF81EE94E02150CD
:1011900080409040E1F700C0000083E5E4CF843850
:1011A000A1F40E94E71882FDE2CF87E40E94D219E1
:1011B0000E94E1102FEF81EE94E02150804090409A
:1011C000E1F700C0000087E4CECF8CEF8C0F813AAE
:1011D00098F48C2F0E94CF168111C9CF8C2F0E94BA
:1011E0009719882329F08C2F0E94DA190E94E110A8
:1011F0008C2F0E94D219B9CF80E28C0F883048F42E
:10120000C77081E001C0880FCA95EAF70E945510A7
:10121000ACCFEBE5EC0FE33040F4F0E0E85BFE4FE1
:10122000808190E00E943819A2CFC85ACB3108F0D3
:101230009ECFEC2FF0E0EE0FFF1FEE5EFE4F8081A1
:1012400091810E945D1993CF882309F44DC08238A3
:1012500079F40E94E71881FF47C089E30E94D21900
:101260000E94E11089E30E94DA190E94E1100895BA
:10127000833859F40E94E71880FF36C083E50E9446
:10128000D2190E94E11083E5EECF843859F40E9410
:10129000E71882FF29C087E40E94D2190E94E1105A
:1012A00087E4E1CF9CEF980F913AE8F290E2980F33
:1012B000983050F4877091E001C0990F8A95EAF751
:1012C000892F0E945B10D1CF9BE5980F933028F4B3
:1012D00090E080E00E9438190895885A8B3120F4FC
:1012E00090E080E00E945D1908951F93CF93DF93F3
:1012F000182FEB010E949A08209739F4812F0E9441
:101300002409DF91CF911F9108958FE99FE0019704
:10131000F1F700C000002197EFCF70E060E0893363
:1013200011F460E570E00E9475090895882321F0AA
:101330000E9455100E94E1100895882321F00E9418
:101340005B100E94E1100895B0E0A0E0EAEAF9E045
:101350000C9481246C01D62FC72FFC0115810681C6
:1013600002950F700E944B10E82E8823F9F0E12EB1
:101370001123E1F08C2F807F803461F080E28D0FAB
:10138000883008F18C2F807E803221F4D230D8F062
:101390000023C9F08091130382FF15C082E00E94F0
:1013A00006110E944B1091E0E82EE926BC2EB29463
:1013B0009FE0B922FBE0FB15B8F1EB2DF0E0E05F18
:1013C000FA4D0C947224E12CF1CF0C2F0F70C07FDA
:1013D00011F00295007F112399F0002359F080E26B
:1013E0008D0F883010F0D11107C0802F0E9455104A
:1013F0000E94E1108D2F48C0802F0E946510F8CF09
:101400008D2F0E942409002379F080E28D0F88300F
:1014100010F0D11104C0802F0E945B1003C0802FF8
:101420000E946B100E94E110EB2DE850FF0B3497E7
:1014300008F064C10E94DA180E942B08CDB7DEB70D
:10144000E9E00C949D242C2F2F70F22EC07FC03227
:1014500019F0F29480EFF822DD2341F0D130C9F188
:10146000112309F442C00023E9F0C4CF8091130393
:1014700082FD14C0112359F0FF2029F08F2D0E9406
:1014800055100E94E11080E00E949A08CDCF80E0C4
:101490000E942409FF2041F28F2DBECF112369F055
:1014A000011104C08F2D0E949609BECF013009F0B2
:1014B000BBCF8F2D0E948910B7CF0111B5CF8F2DD3
:1014C0000E949D098F2D0E9495108F2D0E947910EA
:1014D000ABCF112321F0023008F0A6CFE3CF0111EA
:1014E000A3CF8F2D0E949D099FCF0023D1F3D93325
:1014F00049F43FEF87EE93E0315080409040E1F7B0
:1015000000C000008D2F0E9424098ECF8C2F86955D
:101510008695837069F0813009F086CF8D2F9C2FDE
:101520009370111102C080E090E00E945D197CCFA1
:101530008D2F9C2F9370111102C080E090E00E94CB
:10154000381972CF8C2F8370A1F511116DCF4D2FEB
:10155000429546954770440F440F2D2F2F7030E071
:10156000042E02C0220F331F0A94E2F790E080E0BD
:10157000D4FF09C08FE090E002C0880F991F4A9500
:10158000E2F780959095C695C695C370822B932BF4
:10159000C23049F058F4C13019F00E94390C44CFE0
:1015A0000E94300C41CF0E94420C3ECF0E942D0C75
:1015B0003BCF8695112311F08C2F8170882309F47D
:1015C00033CF4D2F429546954770440F440F2D2F32
:1015D0002F7030E0042E02C0220F331F0A94E2F76E
:1015E00090E080E0D4FF09C08FE090E002C0880F57
:1015F000991F4A95E2F780959095C695C695C37058
:10160000822B932BC23049F058F4C13019F00E945C
:10161000A40C0ACF0E949B0C07CF0E94AD0C04CFF4
:101620000E94510C01CFCF70112329F08C2F0E9402
:10163000690C8D2F38CF8D2F0E949D098C2F0E9411
:10164000790CF2CED23F39F160F4D03FB9F0D13FFE
:1016500081F0112309F442C00111CCCE8C2F8F717F
:101660001EC0D33FF9F0D43FA1F78091130382FD50
:1016700023C08C2F8F71112311F311C0112339F066
:101680000111D2CE8C2F8F710E948B0CCDCE0230E7
:1016900008F0CACEF7CF8C2F8F711111D0CF0E94D6
:1016A000690CC2CE112329F08C2F8F710E945D0C22
:1016B000BBCE0E94580CB8CE112331F063E08C2FC2
:1016C0008F710E94E810B0CE81E00E9406110230B6
:1016D00008F4AACE82E00E940611A6CE002359F09B
:1016E000D93309F00FCFEFEFF7EE23E0E150F040F0
:1016F0002040E1F705CF8C2F8F71A1CFEE2009F4A8
:101700009DCE0E94471080FD99CEF60115820E9461
:1017100041100E94690CC6010E94AB0B0E9441104F
:101720000E94790C8BCE0F931F93CF93DF93EC0124
:10173000688179818D810E94620D8C010E94B60CB6
:101740000E942C0CB801CE010E94A409DF91CF9118
:101750001F910F910895CF93DF93EC018C81882323
:1017600099F0CE010E947607811111C00E944B10A2
:10177000882351F08D81882339F08091130382FFF3
:1017800003C082E00E940611DF91CF910895CE013F
:101790000E94930BCE010E942A07F6CF90E080E0D2
:1017A0000E94381990E080E00E945D190E9472103A
:1017B0000E94E11008950E94E2190E94CE0B089544
:1017C0000E9462100E94DB0B089592959F709630E4
:1017D00091F058F4925F9F70923058F4803F19F066
:1017E00030F4883E30F481E008959A5FF4CF843F6E
:1017F000D1F380E00895883EB0F3813FD1F7F3CF75
:10180000FC012481222339F0808191810E94570DAF
:101810000E94E50B089580E00895A6E0B0E0E3E1C2
:10182000FCE00C9488242696E2E00C94A424A7E023
:10183000B0E0EDE1FCE00C9488242796E2E00C9403
:10184000A42408950E94210C08950E94220C9093D4
:101850008D0280938C02089508950E94250C0895AE
:1018600020918C0230918D02822B932B0E94250CAB
:10187000089520918C0230918D02822393230E943F
:10188000250C089520918C0230918D028227932798
:101890000E94250C08950E94210C08950E944B0C73
:1018A00008950E944E0C90938B0280938A020895B3
:1018B00090E080E00E94510C089521E030E0A90101
:1018C00002C0440F551F8A95E2F7CA010E94510CCD
:1018D000089521E030E002C0220F331F8A95E2F71D
:1018E00080918A0290918B02822B932B0E94510C43
:1018F000089521E030E002C0220F331F8A95E2F7FD
:101900002095309580918A0290918B0282239323B7
:101910000E94510C089521E030E002C0220F331FD5
:101920008A95E2F780918A0290918B028227932711
:101930000E94510C089520918A0230918B02822BD3
:10194000932B0E94510C089520918A0230918B02B2
:10195000822393230E94510C089520918A02309192
:101960008B02822793270E94510C08950895262FF9
:10197000277091E001C0990F2A95EAF723E0769548
:1019800067952A95E1F7660F771F660F771FFA01B3
:10199000E60FF71F50E040E0682F70E08191DF0113
:1019A00011979B01042E02C0369527950A94E2F701
:1019B000217021952827292328272C934F5F5F4FDB
:1019C0004430510559F70895A82FA77023E0969544
:1019D00087952A95E1F7880F991F880F991FFB01BA
:1019E000E80FF91F50E040E080E0219130E00A2E3E
:1019F00002C0369527950A94E2F721703327042E0A
:101A000001C0220F0A94EAF7822B4F5F5F4F4430E8
:101A1000510559F70895282F862F9C3040F4211145
:101A200006C0692F70E042E852E00E94B70C0895AA
:101A30009C3048F4811107C062E872E0892F90E081
:101A40000E94E40C089580E00895B0E0A0E0EBE28D
:101A5000FDE00C9481247C0100918A0210918B029C
:101A600080918C0290918D02082B192BCFE0D0E051
:101A7000CC24C394D12CBC2EC6010C2E02C0880FDE
:101A8000991F0A94E2F780239123892B49F4219727
:101A900090F7B12C8B2DCDB7DEB7E9E00C949D24E7
:101AA000B7018C2F0E940614019789F3F3CFCF93CF
:101AB000DF93EC010E94250DBE010E940614DF9108
:101AC000CF9108951F93CF93DF93EB019091810203
:101AD000992339F0CB010E94570DDF91CF911F91CF
:101AE0000895882369F0CB010E94250D182F682FD7
:101AF000CE010E940B0DBE01812F0E940614EDCF76
:101B0000CB010E94180D182FF6CF1F93CF93DF93B0
:101B1000C0918E0217E080918F028C1304C0DF9178
:101B2000CF911F910895D0E01C9FF0011D9FF00DF3
:101B30001124E057FD4F208131814281538164811E
:101B4000758186810E94170C2196C770E4CF209181
:101B5000C8023091C9024091CA025091CB026091F3
:101B6000CC027091CD028091CE020E94170C089594
:101B7000CF93DF938091CE02807F09F04DC080919A
:101B8000CD02882309F448C0E0918E0250918F0263
:101B9000C091C902D091C8026091CA027091CB0273
:101BA00047E05E17C9F18E2F90E0E49FF001112409
:101BB000E057FD4F2481222391F1489FF001499F76
:101BC000F00D1124DF01A057BD4F11962C911197F4
:101BD0002C1325C02C912D1322C015962C911597EE
:101BE00021111DC012962D913C91261B370B283CCC
:101BF0003105A8F48091CE028F7080618093CE026F
:101C0000EA56FD4F80818F708061808388EC92E07E
:101C10000E94AB0B0E94850DDF91CF910895FC01CE
:101C20003196E770BECF482F20918E0290918F029F
:101C300057E0291302C080E0089530E0529FF00180
:101C4000539FF00D1124E057FD4F8181681306C0AA
:101C50008081481303C085818111EECF2F5F3F4FF4
:101C60002770E7CFA4E1B0E0E8E3FEE00C947E2427
:101C70008C0186E0F801DE011F9601900D928A9595
:101C8000E1F7F8018481E58098ECA92E92E0B92E65
:101C90009091CC0291111FC08823D1F0EE20A9F0C1
:101CA000C8010E94000CF82E882379F087E0F80123
:101CB000D50101900D928A95E1F7C5010E94910826
:101CC0000E94B80D0E94A70D5FC0C8010E94AB0B17
:101CD000FF24F39459C0C080D18082809380F0901B
:101CE000CD022091CA023091CB02A401421B530BBA
:101CF000FF2009F4F9C0483C510508F0A7C088232B
:101D000009F442C09091C9028091CE02282F207F11
:101D100009F05CC09D1116C09091C802C91212C092
:101D2000E1104EC08F7080618093CE020E94A70D9B
:101D300088EC92E00E94AB0B8091CE02F801868382
:101D4000F12C22C0E1103CC06D2D8C2D0E94130E91
:101D50006D2D8C2D0E94130EE82E8111F1CFCF86B0
:101D6000D88A8F8598890E94570D292F22952F7028
:101D7000243078F49F702230A8F09923B9F0F8014C
:101D80009681907F99F4FE2C8F2D6496ECE00C9454
:101D90009A242A5F2F70223068F0C8010E94AB0B92
:101DA000EF2CF1CF992311F0882369F3805E8830FE
:101DB00050F3F3CF803F38F3815F833070F7E3CF88
:101DC0008091CE0281608093CE02BACF9D1113C064
:101DD0009091C802C9120FC0E1100DC08683C801DE
:101DE0000E94AB0B87E0F801A8ECB2E001900D92E5
:101DF0008A95E1F767CFC8010E94000C882309F497
:101E000064CFEE2009F461CF8091CE02803288F059
:101E10002091C8023091C902398728879B868A861B
:101E20009091CC029C871D868E87CE0108960E94D9
:101E3000AB0B87E0F801A8ECB2E001900D928A9517
:101E4000E1F70E94B80D0E94A70D42CF9091CE02FB
:101E5000292F207FA1F4682D9A8A898AA6017A8980
:101E60009E2D0E940D0C88EC92E00E94AB0B87E047
:101E7000F50111928A95E9F70E94A70D61CF882399
:101E800009F482CF8091C9028D1110C08091C802DF
:101E9000C8120CC0E1100AC09683C8010E94AB0BA7
:101EA00087E0F50111928A95E9F76ECFC8010E948B
:101EB000000C882309F409CFEE2009F406CF8091A5
:101EC000CE02803208F4B5CF2091C8023091C90209
:101ED0003A8329839C828B829091CC029D831E82BF
:101EE0008F83CE010196A3CF483C5105B8F58823D6
:101EF00009F4EECEFE2CEE2009F4E7CE8091C90263
:101F00008D111EC08091C802C8121AC08091CE02E5
:101F100080FD0DC0982F907F51F08683903F09F48B
:101F20005ECF982F907F905F8F70892B57CF87E07F
:101F3000F801A8ECB2E001900D928A95E1F724CF68
:101F4000C8010E94000C811174CF8091CE02816083
:101F50008093CE02C8010E94AB0B16CF682D9A8ADF
:101F6000898AA6017A899E2D0E940D0C87E0F501D1
:101F700011928A95E9F7A6CEAEE0B0E0E2ECFFE080
:101F80000C948724288739874A875B876C877D87ED
:101F90008E87CE0108960E94320E8823B1F06C85A0
:101FA000662341F0288539854A855B857D858E8548
:101FB0000E94170C17E080918E0290918F02891376
:101FC0003DC02E96E3E00C94A32487E0FE013896F2
:101FD000DE01119601900D928A95E1F78C85882398
:101FE00049F320918F0230E0C9010196877099274B
:101FF00040918E024817190699F097E0929FD00100
:10200000939FB00D1124A057BD4FFE013196019052
:102010000D929A95E1F780938F020E94850DCACFA9
:102020000E94E00B10928F0210928E0287E0E8EC83
:10203000F2E0DF011D928A95E9F7BCCF819FC001D4
:10204000112480579D4F0E94320E882309F4B9CF86
:10205000E0918E021E9FF0011124E057FD4F208178
:102060003181428153816481758186810E94170C80
:1020700080918E0290E001968770992780938E025E
:102080009ACF8091D70286958695869508958091FE
:10209000D702877008959091D702977081E009F474
:1020A00080E008958091E30208959091E302892BE6
:1020B0008093E302089580959091E3029823909392
:1020C000E30208951092E30208959091E202892BB1
:1020D0008093E202089580959091E2029823909374
:1020E000E20208951092E202089508950E94751088
:1020F00008959091D802292F282331F080958923C3
:102100008093D8020E947610089508950E94851049
:1021100008959091D902292F2823281729F0982B68
:102120009093D9020E94861008959091D902292F88
:10213000282331F0809589238093D9020E9486104C
:1021400008958091D902882329F01092D90280E065
:102150000E94861008950F931F93CF93DF930091F1
:10216000020110910301C091E3028091E202C82BA9
:102170008091D902882331F0C82B0E9482198111E5
:102180000E94A110F801C083C0910201D091030107
:1021900048E050E06FEC72E0CE010E94AF24892B42
:1021A00059F088E0FE01AFECB2E001900D928A9503
:1021B000E1F7CE010E94EA18DF91CF911F910F91B4
:1021C00008950E94AB10089508950E94E4100895A8
:1021D0009091130392FF11C098E0899F9001112400
:1021E000622B6093D7020E94690C8091D70286957A
:1021F000869586950E94E51008950E94690C0895C1
:102200001092D70280E00E94E51008959091D702C5
:10221000809589238093D702282F277069F4891726
:1022200059F09091130392FF07C086958695869585
:102230000E94790C0E9400110895CF93C82F8091BD
:10224000130382FB992790F99C17E9F0C0FB82F9F0
:102250008093130380911203909113030E947F11C6
:1022600082E00E9406118091FA0280FF0CC01F924A
:10227000CF9389E891E09F938F930E948B040F90F6
:102280000F900F900F90CF9108958091130382FBD0
:10229000882780F991E089270E941D11089581E027
:1022A0000E941D11089580E00E941D1108956FEF96
:1022B0007FEF90E080E00E94F824089590E080E0B5
:1022C0000E94C42421E0853E9E4F09F020E0822F29
:1022D000089582E090E00E94BC24089583E090E09D
:1022E0000E94BC2490E00895682F83E090E00E9453
:1022F000DA24089584E090E00E94C4240895BC018B
:1023000084E090E00E94F8240895AB01BC018FE0C6
:1023100090E00E94EC240895AB01BC0183E190E0C1
:102320000E94EC24089560E070E0CB010E948C11C3
:10233000089560E070E0CB010E9485110E94931126
:102340000895A8E0B0E0E7EAF1E10C94882465EE96
:102350007EEF90E080E00E94F82460E082E090E070
:102360000E94DA2481E090E090938D0280938C02A9
:102370000E94741160E074E184E090E00E94F8240F
:1023800060E086E090E00E94DA2460E087E090E080
:102390000E94DA2440E050E0BA0188E090E00E9418
:1023A000EC2460E083E290E00E94DA2460E08CE0BC
:1023B00090E00E94DA2460E08DE090E00E94DA2450
:1023C00019821A821B821C821D821E821F8218861D
:1023D00048E050E067E170E0CE0101960E94CA2417
:1023E00040E050E0BA018FE190E00E94EC240E94AE
:1023F00099112896E2E00C94A4240E94A11108955A
:10240000682F8EE090E00E94DA240895A6E0B0E004
:10241000ECE0F2E10C9486240E94E71A8C01809192
:10242000E4029091E5028017910781F019821A82E7
:102430000E94E71A682F49815A81792F80E090E045
:102440000E9461081093E5020093E4022696E4E0FE
:102450000C94A2240E94F31A6093F6027093F70280
:102460008093F8029093F9026093F2027093F30262
:102470008093F4029093F5020895089508950E94C0
:102480003D12089508950E944212089582EA9EE145
:102490000E9428150E943E120E943F12089581E07A
:1024A00008950E944F1208950E944F1208950895B2
:1024B00008950E9457120E94581208950E945E11BA
:1024C000811102C00E94FD110E9469118093FA02DD
:1024D0000E947A1190931303809312030E946E114D
:1024E0000E942D0C80918A0290918B020E944E0CCA
:1024F00008950E94DE1A0E94EF040E945E120E945C
:102500002A080E9443120895A6E0B0E0EAE8F2E14A
:102510000C9482240E945112811108C00E9406125C
:102520000E9437082696E8E00C949E240E948C05B1
:1025300086EEE82E82E0F82E670110E0F6010191A8
:102540006F01812F0E94FD051F5F1C30D1F008171D
:10255000A9F38091FA0281FD0E9403060E945412A1
:10256000D82E10E0812F0E94FD05082FF7018191E0
:102570007F01081309C01F5F1C30A1F70E942A12B7
:10258000CFCF0813E6CFCACF802780FF11C0DD2050
:1025900079F019821A830E94E71A682F8B839C8333
:1025A00049815A81792F81E0902F91700E946108B2
:1025B000F70131970083DFCF1F93CF93DF930E9402
:1025C0000B14EC01C11580E5D807F0F5C11580E4C6
:1025D000D80708F09CC0C03ED10520F5CD3CD10500
:1025E00008F082C0C83AD10578F4C53AD10508F0A0
:1025F00073C0C130D10519F1209709F1C430D1055C
:10260000F0F4D0E0C0E01BC0C33CD105D0F7C85AFD
:10261000D0E0CC0FDD1FC55BDE4F0990D881C02D07
:10262000D4640DC0C11580E2D80708F0D1C0C1152F
:1026300081E0D80708F05AC0C83ED10510F7CE0196
:10264000DF91CF911F910895C03682E5D80718F524
:10265000C03482E5D80708F06BC0C03282E5D807E5
:1026600008F05FC0C11582E5D80708F497C02C2F89
:102670002695269580E2289F900111248C2F837047
:10268000C1E0D0E002C0CC0FDD1F8A95E2F7C22B7B
:10269000D32BDD68D4CFC03A82E5D80760F4C038C8
:1026A00082E5D80708F459C0CF71D0E0DC2FCC27E1
:1026B000C46FD06AC4CFC03C82E5D80708F462C0BA
:1026C000C03E82E5D80708F09CCFDC2FCC27CC2772
:1026D000DF71C06FD06AB3CFC55AD0E0CF57DE4F9D
:1026E000C881D0E0D064ABCFD065A9CF8D2F0E9438
:1026F000AD14182FCE0199270E940B14C12FD0E0E2
:10270000DC2FCC27CC27DF71C82BD92B98CFCE015B
:1027100099270E940B14CC27DF70C82BD92BD06AC5
:102720008ECFCF71D0E0DC2FCC27C16FD06A87CF9E
:102730002C2F26952695277080E2289F9001112442
:102740008C2F8370C1E0D0E002C0CC0FDD1F8A95D2
:10275000E2F7C22BD32BDC6872CF2C2F269526955F
:10276000277080E2289F900111248C2F8370C1E094
:10277000D0E002C0CC0FDD1F8A95E2F7C22BD32B2D
:10278000DA685DCF8C2F8F710E94AD14C82FD0E016
:10279000DC2FCC27CC27DF71D06251CF8C2F8F71EB
:1027A0000E94AD1455E0D695C7955A95E1F7CF70C4
:1027B000D0E0DC2FCC27282F30E084FF05C044E098
:1027C000220F331F4A95E1F7C22BD32BD06937CFA5
:1027D0008D2F8F710E94AD14182FCE0199270E9462
:1027E0000B14C12FD0E0DC2FCC27CC27DF71C82BF6
:1027F000D92BD2CF7C3038F4611105C040E0672F6F
:102800000E94D106089590E080E008950E94FA1396
:102810000E94DC12089582389105B9F1B0F4813339
:10282000910509F47DC048F48932910509F46DC021
:102830008A32910509F47BC008958533910509F426
:102840005FC08933910509F10895833E9105D9F15F
:1028500038F4803E910529F1823E910579F1089581
:10286000863E9105D9F1873E910509F43EC0843E2C
:10287000910541F52091130321FF24C0809112039B
:1028800084FD19C087EE90E0089520911203237013
:1028900009F05AC02091130323FF14C089E290E08D
:1028A00008952091120320FD38C03091130330FFAA
:1028B00009C024FF43C090E080E0089520911203F6
:1028C00022FDF7CF08952091120322FD3AC03091E6
:1028D000130330FD39C024FFF5CFEDCF2091120353
:1028E00023FFF0CF24FDE7CFCDCF2091120323FDAE
:1028F0002EC03091130331FFEECF84EE90E00895A7
:102900002091120325FFDECFC9CF2091120325FDB0
:1029100021C02091130323FFD5CF89E390E0D2CFCC
:102920002091120326FFCECF8AE290E008952091F5
:10293000120326FFC7CF81E390E0089583EE90E075
:10294000089582EE90E0089580EE90E0089586EE7E
:1029500090E0089585E390E008959091120392FF2E
:1029600010C041E0282F2471243009F040E031E00C
:10297000282F2871283009F030E0431711F02CE09F
:10298000822793FF10C041E0282F2471243109F0E1
:1029900040E031E0282F2871283109F030E043175A
:1029A00011F02CE082273091130330FF10C051E06A
:1029B000282F2171213009F050E041E0282F2871A3
:1029C000283009F040E0541711F029E0822731FF48
:1029D00010C041E0282F2171213109F040E031E0A1
:1029E000282F2871283109F030E0431711F029E031
:1029F000822794FD877E0895CF939C01205E324507
:102A0000C1E02032310538F4FB01C581C11103C09A
:102A10008F710E9442078C2FCF9108950E948412DB
:102A200008950E94801A0E94041F0E9446120E946C
:102A30001E1F0E9479120E942B1F0E94301F0E94AD
:102A40000E150E94561F0E94391D0E945912F5CF83
:102A500090935502809354020895CF93C82F1F92EC
:102A60008F9384EA91E09F938F930E948B0481E07F
:102A700090E002C0880F991FCA95E2F70E942D0CC2
:102A80000E94E00B0F900F900F900F90CF91089540
:102A9000EF92FF920F931F93CF93DF938B3109F443
:102AA00026C108F0B4C08B3009F4D2C008F086C04B
:102AB000863009F4E6C068F4853009F4B6C08DE3C9
:102AC00095E09F938F930E948B040F900F9080E06E
:102AD000F0C0873009F4F2C0883089F70E946E1187
:102AE0009F938F9380E295E09F938F930E948B0436
:102AF0000E94691183FB992790F91F929F9382FB93
:102B0000992790F91F929F9381FB992790F91F9223
:102B10009F93982F91701F929F931F928F9387ED91
:102B200094E09F938F930E948B040E947A1193FBF1
:102B3000222720F91F922F9387FB222720F91F922B
:102B40002F9386FB222720F91F922F9385FB2227A4
:102B500020F91F922F9384FB222720F91F922F9395
:102B600083FB222720F91F922F9382FB222720F933
:102B70001F922F9391FB222720F91F922F93292F29
:102B800021701F922F9381FB222720F91F922F93F0
:102B9000282F21701F922F939F938F9388ED93E09E
:102BA0009F938F930E948B048DB79EB78A960FB622
:102BB000F8949EBF0FBE8DBF81E07BC0803109F4C9
:102BC000B0C080F48E3009F07ACF9091FA02892F4C
:102BD0008B7F92FF84608093FA0282FF9FC088E619
:102BE00095E091C0863109F4ACC0893109F067CF16
:102BF00084E891E09F938F9384E192E09F938F9379
:102C00000E948B040F900F900F900F90D5CF8A32B7
:102C100069F1A0F4873231F128F48E3108F44FCFF6
:102C20008D5121C0893209F04ACF8BEA95E09F93FC
:102C30008F930E948B040E946A0720C0833478F42B
:102C40008A3308F0A5C0853369F0883309F037CF9F
:102C500082E392E09F938F930E948B040FC0833492
:102C600009F02DCF80E00E942D15A6CF8BEC95E0CA
:102C70009F938F930E948B040E94FD110F900F90E1
:102C80009BCF8091FA02807F8093FA0287E192E0E5
:102C90009F938F930E948B0487EC95E09F938F9373
:102CA0000E948B0481E08093FB020F900F900F90A5
:102CB0000F90CDB7DEB7E6E00C94A0249091FA0215
:102CC000892F8E7F90FF81608093FA0280FF03C07E
:102CD0008FE995E0BFCF82E995E09F938F930E94A3
:102CE0008B048091FA02817F8093FA02C7CF909182
:102CF000FA02892F8D7F91FF82608093FA0281FF13
:102D00000AC085E895E09F938F930E948B04809181
:102D1000FA028160E9CF87E795E09CCF88E595E0EE
:102D200099CF9091FA02892F877F93FF88608093D3
:102D3000FA0283FF03C08CE495E0E5CF8FE395E0D2
:102D400089CF0E94F31A162F072FF82EE92E0E9422
:102D5000561AD82F0E94361AC82F0E94DA18EF92FE
:102D6000FF920F931F931F92DF931F92CF931F9297
:102D70008F9389EA91E09F938F930E948B048DB784
:102D80009EB70C960FB6F8949EBF0FBE8DBF14CFA2
:102D9000895369CF80E008950E94CA160895CF93A1
:102DA000C82F8091FB02882329F08130C1F0109256
:102DB000FB0213C00E945210813159F48C2F0E94E3
:102DC000CA16811127C08C2F0E9448158170CF919F
:102DD00008950E945210823289F380E0F8CF0E9459
:102DE0005210813159F30E945210823239F38C2FE4
:102DF0000E94CC16811125C0C43129F170F4CB306A
:102E000081F08EE991E09F938F930E948B040F9045
:102E10000F901BC081E090E0D9CFC932A1F0C83338
:102E200081F787E192E09F938F930E948B0480EA61
:102E300091E09F938F930E948B040F900F900F90BF
:102E40000F9081E0C3CF1092FB0280E0BFCFCF9301
:102E5000DF93EB0186319C4711F50E9452109D8152
:102E6000992399F08A7A91E009F490E09093FC021A
:102E7000811109C089E20E94D2190E94E11080E00C
:102E8000DF91CF91089585E3F6CF8091FC02811107
:102E900004C089E20E94DA19F0CF85E3FBCF81E01C
:102EA000EFCFCF93DF93EC01FB018581882309F4F9
:102EB000D2C09E0130572332310508F0B2C00E94C3
:102EC0007A119093130380931203FE01E150F047AF
:102ED000E232F10520F4E45EFA4D0C947224809104
:102EE000120381608093120393C080911303886062
:102EF000809313038DC0809112038260F3CF809181
:102F000012038460EFCF809112038860EBCF809131
:102F100013038160EDCF809113038260E9CF80912C
:102F200012038061DFCF809112038062DBCF80913A
:102F300012038064D7CF0E94E00B80911203806857
:102F4000D1CF809112038C60CDCF80911303836029
:102F5000CFCF809112038E7FC5CF80911303877FDF
:102F6000C7CF809112038D7FBDCF809112038B7FDD
:102F7000B9CF80911203877FB5CF809113038E7FE5
:102F8000B7CF809113038D7FB3CF809112038F7ED3
:102F9000A9CF809112038F7DA5CF809112038F7BE3
:102FA000A1CF0E94E00B809112038F779BCF80917D
:102FB0001203837F97CF809113038C7F99CF8091E9
:102FC000120382FB992790F921E0922790FB82F966
:102FD00090FB83F987CF80911303982F9095917080
:102FE0008E7F892B90FB81F983CF90911203892FDB
:102FF0008F7B96FF806476CF0E94E00B9091120346
:10300000892F97FB87F980586DCF81E00E940012CD
:1030100080911203909113030E947F110E94E00B94
:1030200080E0DF91CF91089580E0F0CF909112037E
:10303000892F8F7E94FF806155CF90911203892F45
:103040008E7F90FF81604ECF90911303892F877FF1
:1030500093FF88604DCF81E0E4CF0F931F93CF9310
:10306000DF93C42FD22FFC0185818823C9F04093C0
:10307000FF020E94E71A9093FE028093FD0280E215
:103080008C0F883040F4C77081E001C0880FCA956A
:10309000EAF70E949609DF91CF911F910F91089551
:1030A0001091FF02141332C08091FD029091FE0234
:1030B0000E94761A883C910548F5C0E2CD0F1D1795
:1030C000B9F080E2810F883040F4177081E001C0D0
:1030D000880F1A95EAF70E949D09C83048F481E0EC
:1030E0009D2F977001C0880F9A95EAF70E94960964
:1030F000802F0E948D09C83070F6D77081E001C022
:10310000880FDA95EAF70E949D09C5CF80E28C0FFF
:10311000883008F6C77081E001C0880FCA95EAF7C9
:10312000F2CF0F93DB0188519C4787309105A0F5C2
:10313000FC01E25CFA4D0C94722406E221EE41EEB1
:103140006AE17CE7CD010E942D1880E00F9108957F
:1031500007E225EE45EE6BE17CE7F4CF06E221EED7
:1031600040EE68E17CE7EECF07E225EE44EE69E150
:103170007CE7E8CF06E221EE42EE6CE17CE7E2CFAD
:1031800007E225EE46EE6DE17CE7DCCF08E221E0C8
:1031900045EE6EE17CE7D6CF15968C91882319F029
:1031A0001092FF02D3CF81E0D1CF9093050380939B
:1031B00004030895E0910403F0910503309729F08A
:1031C0000190F081E02D0995089580E008950E9416
:1031D000DA180895EF92FF920F931F93CF93DF9326
:1031E000EC01E0910403F09105033097E1F10280D6
:1031F000F381E02D09958091FA0282FF34C080FFAF
:103200000DC088811F928F9384EE95E09F938F93DA
:103210000E948B040F900F900F900F907E0186E01C
:10322000E80EF11C0EED15E08091FA0280FF0BC054
:103230008A811F928F931F930F930E948B040F908C
:103240000F900F900F902196CE15DF0569F78091B2
:10325000FA0280FF08C08CED95E09F938F930E9447
:103260008B040F900F90CDB7DEB7E6E00C94A0244E
:10327000A3E0B0E0EEE3F9E10C948824209102038E
:103280003091030328173907A1F09093030380932B
:103290000203E0910403F0910503309751F023E01D
:1032A00029839B838A830084F185E02DCE010196DA
:1032B00009952396E2E00C94A424A3E0B0E0E3E6B1
:1032C000F9E10C9488242091000330910103281720
:1032D0003907A1F09093010380930003E091040368
:1032E000F0910503309751F024E029839B838A8372
:1032F0000084F185E02DCE01019609952396E2E048
:103300000C94A42440910201509103019A012E5F74
:103310003F4F485F5F4F80E02417350709F4089559
:10332000F90191919F019923B9F38F5FF5CF88231C
:1033300071F02091020130910301F9013296285F6A
:103340003F4F9191981729F0E217F307D1F780E0EA
:10335000089581E008959C01FC0132969FEF80E082
:103360004191461751F09F3F19F4411101C0982F28
:103370008F5F8630A9F79F3F09F40895290F311D0B
:1033800097FD3A95F90162830895FC0132960896FB
:103390002191261303C0DF0111971C92E817F9074A
:1033A000B9F70895682F80910201909103010E945E
:1033B000AB190895682F80910201909103010E943A
:1033C000C5190895E0910201F0910301329686E05B
:1033D000DF011D928A95E9F7089508950E94ED197D
:1033E000089581110EC081E080930701609104016E
:1033F0007091050180910601909107010E94EE19DC
:10340000089582E0F1CF83E0809307016091040189
:103410007091050180910601909107010E94EE19BB
:1034200008950E94F119089581E080930701609149
:1034300004017091050180910601909107010E949D
:10344000EE1908950E94141A089591E0811101C0A7
:1034500090E09093060160910401709105018091C4
:103460000601909107010E94EE19089580910601CE
:103470000895809305016091040170910501809188
:103480000601909107010E94EE19089580910501AF
:103490000895809304016091040170910501809169
:1034A0000601909107010E94EE1908958091040190
:1034B0000895089508950E945A1A089508950E9443
:1034C000591A0895CF930E940E050E948C050E9400
:1034D0005E1AC0E08C2F0E94FD05811105C0CF5FF0
:1034E000CC30C1F7CF91089581E0FCCFCF93DF932B
:1034F000EC010E94E71A8C1B9D0BDF91CF91089580
:1035000085B7806885BF85B7806885BF08951F929D
:103510001FB61F9211248F939F93AF93BF938091F7
:103520000603811113C08091140390911503A0919B
:103530001603B09117034196A11DB11D809314038A
:1035400090931503A0931603B0931703BF91AF9107
:103550009F918F911F901FBE1F90189580911C0303
:10356000843031F10E94E9071092060388E190E06F
:1035700020E40FB6F894A895809360000FBE2093C6
:10358000600083B7817F846083BF83B7816083BF1E
:103590007894889583B78E7F83BF0FB6F894A895EB
:1035A00080916000886180936000109260000FBE7F
:1035B00008950E94E00B0E94EE07089582E084BD0A
:1035C00093E095BD9AEF97BD80936E0008952FB755
:1035D000F8948091140390911503A0911603B09173
:1035E00017032FBF08952FB7F894609114037091BB
:1035F000150380911603909117032FBF08957894B7
:103600001F921FB61F9211248F939F93AF93BF9366
:103610008091140390911503A0911603B0911703A4
:103620000196A11DB11D8093140390931503A093DF
:103630001603B0931703BF91AF919F918F911F9085
:103640001FBE1F90189581E08093E00080E2809378
:10365000D8001092C9008FE19EE40197F1F700C0F5
:10366000000087E090EBDC01809325039093260314
:10367000A0932703B093280388E19CE00FB6F89449
:10368000A895809360000FBE90936000FFCF88E103
:103690009CE00FB6F894A895809360000FBE9093BD
:1036A0006000FFCFEF92FF920F931F93CF93DF93B2
:1036B000182FEB011092BC0084EA8093BC000E949A
:1036C000E71A7C018091BC0087FF27C08091B90078
:1036D000887F883029F08091B900887F803189F512
:1036E0001093BB0084E88093BC000E94E71A8C0111
:1036F0008091BC0087FF1EC02091B900287F90E018
:1037000080E0283191F081E090E0203411F490E0E5
:1037100080E091958195910908C0C7010E94761AB1
:10372000C817D90778F68EEF9FEFCDB7DEB7E6E082
:103730000C94A024C8010E94761AC817D907C0F6B5
:10374000F2CF8FEF9FEFF1CF1092B9008CE0809312
:10375000B80008950F931F93CF93DF93EB018093ED
:10376000BB0084E88093BC000E94E71A8C01809122
:10377000BC0087FF11C02091B900287F81E090E054
:10378000283211F490E080E0919581959109DF91C4
:10379000CF911F910F910895CF3FDC0741F3C801EE
:1037A0000E94761AC817D90710F78EEF9FEFEFCF58
:1037B0000F931F93CF93DF93EC0184EC8093BC00B5
:1037C0000E94E71A8C018091BC0087FF08C080919D
:1037D000BB0090E0DF91CF911F910F910895CF3FF3
:1037E000DC0789F3C8010E94761AC817D90758F771
:1037F0008EEF9FEFEFCF0F931F93CF93DF93EC01EB
:1038000084E88093BC000E94E71A8C018091BC0080
:1038100087FF08C08091BB0090E0DF91CF911F919E
:103820000F910895CF3FDC0789F3C8010E94761AF3
:10383000C817D90758F78EEF9FEFEFCFB0E0A0E0A1
:10384000E4E2FCE10C947C24682E762E5A01690196
:103850000E94E71A4C01C1E0D0E00431110558F094
:10386000C5E0D0E00F3F100731F0C80164E170E01F
:103870000E945E24EB01BE01862D0E94521B7C013A
:1038800097FF1DC00F3F1007B1F3C4010E94761AC5
:103890000817190780F784E98093BC00C701CDB7EA
:1038A000DEB7EEE00C949824B80189910E94AA1B1F
:1038B0007C01CC16DD0679F3F7FEF6CFECCFB8012C
:1038C000872D0E94AA1B7C01E501CA0CDB1CF1CFED
:1038D000B0E0A0E0EEE6FCE10C947C24782E662EAD
:1038E0006A01E9010E94E71A5C01EE24E394F12CDD
:1038F0000431110560F025E0E22EF12C0F3F100796
:1039000031F0C80164E170E00E945E247B01B701E0
:10391000872D0E94521B4C0197FF23C00F3F1007B9
:10392000B1F3C5010E94761A0817190780F784E9D8
:103930008093BC00C4011816190614F490E080E0CE
:10394000CDB7DEB7EEE00C94982497FCF0CFC80119
:103950000E94FB1B4C0197FDEACFCC0DDD1D888337
:10396000E6CFB801862D0E94AA1B4C0197FDDFCF40
:10397000689470F80E94E71A5C01EE24E394F12C3D
:103980000431110560F085E0E82EF12C0F3F10079F
:1039900031F0C80164E170E00E945E247B01B70150
:1039A000872D0E94521B4C0197FF09C00F3F100743
:1039B000B1F3C5010E94761A0817190780F7F12C98
:1039C000E12C2197EC16FD0608F0BFCF97FCAFCF96
:1039D000C8010E94D81B4C0197FD04C0F601EE0DF2
:1039E000FF1D80838FEFE81AF80AECCF0895089541
:1039F0009B01BA0190911C039430E9F48F7080937D
:103A0000E9009FEF8091E800915085FD06C085EDAB
:103A10008A95F1F700009111F5CF8091E80085FFBC
:103A20000AC050E040E0C9010E94CC1F8091E8002C
:103A30008E778093E800089543E050E0BC0182E077
:103A40000E94F81C0895CF93DF93EC010E94361A70
:103A500048E050E0BE0181E00E94F81C88E0FE01D1
:103A6000AAE0B3E001900D928A95E1F7DF91CF9142
:103A70000895089583E296E09F938F930E948B04AC
:103A800080911B030F900F90811109C00E945C214F
:103A90000E94B9218091E20084608093E200089541
:103AA0008FE196E09F938F930E948B0410921B03EB
:103AB0000F900F9008958BE196E09F938F930E9453
:103AC0008B040E94141A81E00E94251A0F900F9017
:103AD000089587E196E09F938F930E948B046091F5
:103AE000180381E0611101C080E00E94031A0F9069
:103AF0000F90089583E196E09F938F930E948B042B
:103B000090911C0381E0943009F080E060911803EB
:103B10000E94111A0F900F900895209108032F5FB3
:103B2000822F62E30E945224992319F02093080304
:103B3000089510920803809109038823F1F0809181
:103B40001C038430C1F49091E9009F702091EC0037
:103B5000822F817020FD80E8892B93E09093E9000B
:103B60009091EB0090FF04C09091EE0097FD08C08B
:103B70008F708093E9001092090308951092F1006C
:103B80009091E80095FDFACF9091E80090FFF0CF7A
:103B90009091E8009E779093E800EACF42E061ECD4
:103BA00081E00E94D82042E261EC82E00E94D820AD
:103BB00042E261EC83E00E94D82090911C0381E0F6
:103BC000943009F080E0609118030E94F119089583
:103BD00080911E03833009F461C030F48130D1F14B
:103BE000823009F49EC008958A3009F48AC08B306F
:103BF00009F46FC0893009F050C080911D038132F3
:103C000009F04BC08091210390912203029708F0A4
:103C100044C08091E800877F8093E8008091E800AD
:103C200082FF37C09091F3008091F200029731F447
:103C30008091F100813011F0863021F48091F10003
:103C40000E94391A8091E8008B778093E8000E94E7
:103C50000C2123C080911D03813AF9F48091E80082
:103C6000877F8093E8008091210390912203892B24
:103C700061F468E08AE093E070E00E941B2080918C
:103C8000E8008B778093E800089560E090E080E0A2
:103C9000F3CF80911C038111C1CF089580911D0342
:103CA000813AD9F78091210390912203892BA9F7BA
:103CB0008091E800877F8093E8008091E80080FF92
:103CC000FCCF0E94361A8093F1008091E8008E7735
:103CD000BCCF80911D03813201F780912103909127
:103CE0002203892BD1F68091E800877F8093E8003A
:103CF0000E940C2180911F030E94251A0E94E00B54
:103D0000089580911D03813241F68091E800877FFC
:103D10008093E8000E940C21809120030E94491AA0
:103D2000089580911D03813A09F0B7CF8091E80092
:103D3000877F8093E8008091E80080FFFCCF0E949D
:103D4000561AC1CF9FB7F894109209039FBF909164
:103D50001C03943009F048C02091E9002F70309185
:103D6000EC00932F917030FD90E8922B23E020938C
:103D7000E9002091EB0020FF34C02091EE0027FFE6
:103D800030C020910703222321F02091E80025FF75
:103D900028C01092070326E03091E80035FF14C0D8
:103DA0008093F1008091E80085FD27C08091E800B4
:103DB00080FFFCCF8091E8008E778093E8009F70B1
:103DC0009093E90080E0089530911C03343049F469
:103DD0003091EB0035FD05C0215041F481E0809326
:103DE00007039F709093E9008FEF0895EFE9FFE0DC
:103DF0003197F1F700C00000CFCF8FB7F89421E0E2
:103E0000209309038FBFDBCF84B7877F84BF0FB6B2
:103E1000F894A8958091600088618093600010926A
:103E200060000FBE80E890E00FB6F89480936100C8
:103E3000909361000FBE0E94221A08950E945C2197
:103E40000E94B921E2EEF0E0808184608083789462
:103E50000E943724089588E091E00E94D5180895C3
:103E600080911C03853091F48091FA0280FF08C094
:103E70008DEF95E09F938F930E948B040F900F908E
:103E800080911C03853019F00E94D91A08950E9470
:103E9000AE1A0E94621A882399F380911A0388232C
:103EA00079F30E94B61F0E94E00BEACF08959A01B1
:103EB00040912303509124030E945F1F0895492FCE
:103EC00055274330510521F168F44130510509F47B
:103ED00043C04230510509F444C090E080E050E016
:103EE00040E026C04132510551F142325105A9F757
:103EF0006330710590F7FB01EE0FFF1FE85BFD4F8C
:103F0000408151816B5B7D4FFB01808190E010C04F
:103F100099278130910581F0009729F00297E9F601
:103F2000E7E2F6E002C0E3E6F6E0849190E0AF015C
:103F3000F901518340830895EBE3F6E0F6CF633057
:103F4000710558F6660F771FFB01E25BFD4F40815C
:103F5000518189E090E0ECCF82E190E04BEB56E0BC
:103F6000E7CF84E590E047E656E0E2CF80E189BD07
:103F700082E189BD09B400FEFDCF8091D8008F7D1C
:103F80008093D8008091E00082608093E00080916F
:103F9000E00081FDFCCF0895AF92BF92CF92DF92F7
:103FA000FF920F931F93CF93DF936C01EB018A0174
:103FB0000E942B21F82E811123C00115110539F023
:103FC000F80180819181C81BD90BC80ED91EB12C74
:103FD000A12C2097A9F08091E80085FD22C0809156
:103FE000E8008E778093E80001151105A1F0F80133
:103FF00080819181A80EB91EB182A08285E0F82E41
:104000008F2DDF91CF911F910F91FF90DF90CF9077
:10401000BF90AF9008950E942B218823D1F2F82EF3
:10402000EFCFF60181916F018093F1002197FFEFAF
:10403000AF1ABF0ACECFFC018091230390912403D5
:1040400086179707A0F06115710529F49091E80093
:104050009E779093E80090E06115710551F49111FD
:1040600008C08091E80082FF34C080E00895BC0160
:10407000F2CF80911C038823C1F18530C1F180917A
:10408000E80083FD30C08091E80082FDEACF809196
:10409000E80080FFE1CF8091F3002091F200382FFB
:1040A0006115710519F02830310558F091E028307C
:1040B000310509F090E02091E8002E772093E80088
:1040C000CBCF81918093F100615071092F5F3F4FF9
:1040D000E7CF80911C03882341F0853041F0809127
:1040E000E80083FFBECF81E0089582E0089583E079
:1040F0000895FC018091230390912403861797076C
:10410000A0F06115710529F48091E8008E77809305
:10411000E80090E06115710551F4911108C080919B
:10412000E80082FF35C080E00895BC01F2CF8091A5
:104130001C038823C9F18530C9F18091E80083FD13
:1041400031C08091E80082FDEACF8091E80080FFD5
:10415000E1CF8091F3002091F200382F61157105B5
:1041600019F02830310558F091E02830310509F078
:1041700090E08091E8008E778093E800CBCF849127
:104180008093F1003196615071092F5F3F4FE6CF68
:1041900080911C03882341F0853041F08091E80034
:1041A00083FFBDCF81E0089582E0089583E0089504
:1041B000982F973028F08F708093E90081E0089560
:1041C0009093E900242F762F50E0981731F07091EA
:1041D000EC002091ED005091F00021FD02C09F5FA6
:1041E000E8CF3091EB003E7F3093EB003091ED0053
:1041F0003D7F3093ED003091EB0031603093EB0068
:104200007093EC002093ED005093F0002091EE00AD
:1042100027FDE5CF80E0089580911D0387FF13C03F
:104220008091E80082FF06C08091E8008B77809340
:10423000E80004C080911C038111F2CF08958091A1
:104240001C038823D9F38091E80080FFF8CF809188
:10425000E8008E77ECCF2091E4003091E50095E600
:10426000A9012091EC00822F817020FF06C080916F
:10427000E80080FF06C080E008952091E80022FD5C
:104280001AC080911C03882389F0853089F08091C1
:10429000EB0085FD0FC02091E4003091E50042174E
:1042A0005307F9F29150E1F684E0089582E0089511
:1042B00083E0089581E008950E94CB210E94D321DC
:1042C000E0EEF0E0808181608083E8EDF0E08081C5
:1042D0008F77808319BCA7EDB0E08C918E7F8C9393
:1042E00080818F7E808310921B0308950F931F930C
:1042F000CF93DF930E94CB210E94D321C8EDD0E061
:1043000088818F77888388818068888388818F7D82
:10431000888319BC10921C031092180310921A0380
:104320001092190300EE10E0F80180818B7F8083EA
:1043300088818160888342E060E080E00E94D8202C
:10434000E1EEF0E080818E7F8083E2EEF0E080811C
:1043500081608083808188608083F80180818E7F86
:104360008083888180618883DF91CF911F910F9135
:104370000895E8EDF0E080818F7E8083E7EDF0E046
:1043800080818160808384E082BF81E080931B0311
:104390000E9476210895E8EDF0E080818E7F808391
:1043A0001092E20008951092DA001092E100089550
:1043B0001F920F920FB60F9211242F933F934F939A
:1043C0005F936F937F938F939F93AF93BF93EF937D
:1043D000FF938091E10082FF0BC08091E20082FF99
:1043E00007C08091E1008B7F8093E1000E948D1DCA
:1043F0008091DA0080FF19C08091D80080FF15C03D
:104400008091DA008E7F8093DA008091D90080FF5E
:1044100096C080E189BD82E189BD09B400FEFDCF6F
:1044200081E080931C030E943A1D8091E10080FF8F
:1044300019C08091E20080FF15C08091E2008E7F5C
:104440008093E2008091E20080618093E20080919D
:10445000D80080628093D80019BC85E080931C034B
:104460000E94691D8091E10084FF2BC08091E200D1
:1044700084FF27C080E189BD82E189BD89B5982F7D
:10448000917080FFFBCF8091D8008F7D8093D80002
:104490008091E1008F7E8093E1008091E2008F7E29
:1044A0008093E2008091E20081608093E20080913D
:1044B0001803882309F449C084E080931C030E94F8
:1044C0007A1D8091E10083FF29C08091E20083FF83
:1044D00025C08091E100877F8093E10082E0809396
:1044E0001C03109218038091E1008E7F8093E100FD
:1044F0008091E2008E7F8093E2008091E2008061F3
:104500008093E20042E060E080E00E94D820809149
:10451000F00088608093F0000E945B1DFF91EF9196
:10452000BF91AF919F918F917F916F915F914F91CB
:104530003F912F910F900FBE0F901F90189519BCAF
:1045400010921C030E94501D70CF8091E30087FDE4
:1045500093E090931C03B3CF1F920F920FB60F926C
:1045600011242F933F934F935F936F937F938F9378
:104570009F93AF93BF93CF93DF93EF93FF93D0912C
:10458000E900DF708091EC00C82FC17080FDC0E8A9
:104590001092E9008091F000877F8093F00078947A
:1045A0000E94F0221092E9008091F00088608093D0
:1045B000F000CD2BCF70C093E900FF91EF91DF9118
:1045C000CF91BF91AF919F918F917F916F915F91AB
:1045D0004F913F912F910F900FBE0F901F90189504
:1045E000AAE2B0E0E6EFF2E20C9487248DE193E0DA
:1045F0002091F100FC012193CF01F3E085329F0768
:10460000B9F70E94E81D8091E80083FF1EC18091E8
:104610001D0390911E039A3008F017C1E92FF0E0B6
:10462000EB5BFA4D0C947224803899F0823809F0D3
:104630000CC1809121038F70873008F006C18093F0
:10464000E9008091EB0085FB882780F91092E90052
:1046500006C08091190390911A0391118260909184
:10466000E800977F9093E8008093F1001092F100AA
:104670008091E8008E77E5C0882309F4D3C08230AA
:1046800009F0E3C080911F038111D6C080912103FE
:104690008F702FEF280F263008F0D7C08093E900E5
:1046A0002091EB0020FFC8C0933031F48091EB00E3
:1046B00080628093EB00C0C09091EB00906190937A
:1046C000EB0021E030E001C0220F8A95EAF7209349
:1046D000EA001092EA008091EB008860EACF811135
:1046E000B4C010911F031F778091E3008078812B65
:1046F0008093E3008091E800877F8093E8000E9428
:104700000C218091E80080FFFCCF8091E30080685D
:104710008093E30082E0111183E080931C0395C035
:104720008058823008F091C080911F03909120033F
:104730008C3D23E09207A1F583E08A838AE2898396
:104740004FB7F894DE01139620E03EE051E2E32FEC
:10475000F0E050935700E49120FF03C0E295EF7022
:104760003F5FEF708E2F90E0EA30C0F0C7968D93D8
:104770009D932F5F243159F74FBF8091E800877FC9
:104780008093E8006AE270E0CE0101960E941B204F
:104790008091E8008B778093E80057C0C096E7CF00
:1047A0006091210370912203AE014F5F5F4F0E9421
:1047B000571FBC01892B09F448C09091E800977FEE
:1047C0009093E80089819A810E947920E1CF803816
:1047D000E1F58091E800877F8093E80080911803DD
:1047E0008093F10045CF811130C090911F0392302A
:1047F00060F58091E800877F8093E800909318032C
:104800000E940C2180911803882311F084E005C0D8
:104810008091E30087FDFACF81E080931C030E9422
:10482000CE1D13C080911F03813079F481E0933055
:1048300009F080E080931A031092E9008091E8006B
:10484000877F8093E8000E940C218091E80083FF1D
:104850000AC08091E800877F8093E8008091EB0098
:1048600080628093EB00AA96E3E00C94A324CF939C
:1048700080911C038823A1F0C091E900CF70909132
:10488000EC00892F817090FD80E8C82B1092E90020
:104890008091E80083FD0E94F022CF70C093E90070
:1048A000CF910895991B79E004C0991F961708F0DD
:1048B000961B881F7A95C9F780950895AA1BBB1B84
:1048C00051E107C0AA1FBB1FA617B70710F0A61B10
:1048D000B70B881F991F5A95A9F780959095BC0131
:1048E000CD010895EE0FFF1F0590F491E02D09947E
:1048F0002F923F924F925F926F927F928F929F92F0
:10490000AF92BF92CF92DF92EF92FF920F931F93DD
:10491000CF93DF93CDB7DEB7CA1BDB0B0FB6F8948E
:10492000DEBF0FBECDBF09942A88398848885F84CE
:104930006E847D848C849B84AA84B984C884DF803F
:10494000EE80FD800C811B81AA81B981CE0FD11D23
:104950000FB6F894DEBF0FBECDBFED010895FB0189
:10496000DC0104C08D910190801921F44150504028
:10497000C8F7881B990B0895F999FECF92BD81BDA8
:10498000F89A992780B50895A8E1B0E042E050E098
:104990000C940025DC01A40FB51F4150504048F095
:1049A000CB01840F951F2E910E94DB244150504073
:1049B000D0F70895262FF999FECF92BD81BDF89AC0
:1049C000019700B4021639F01FBA20BD0FB6F89453
:1049D000FA9AF99A0FBE08950396272F0E94DB24B6
:1049E0000E94DA24252F0E94DB24242F0C94DB2440
:1049F0000196272F0E94DB240C94DA24DC01CB01E2
:104A0000FC01F999FECF06C0F2BDE1BDF89A3196DE
:104A100000B40D9241505040B8F70895F894FFCF7C
:104A2000E509E509230A230A860A140A140A140A66
:104A3000A20A130B220B220BA9171D18B1177B1703
:104A40007F17B5178317B917C5178F171618931740
:104A5000C9179717CD17F5179B17D117FC17A11773
:104A6000D717DF178717BD178B17C117A517DB17C8
:104A7000EB17051814187517AD172418AE18B418CD
:104A80009D18A818BA18C018C61814233C2325244A
:0E4A90003C2325246F2390232524E723F323C2
:104A9E002000DA0200000100461A231DF71CF61C46
:104AAE001C1DE200E900EA00B500B600B700CD001B
:104ABE008301CC008A019201940121022302240277
:104ACE002502260227022A02B300B4006F007000EE
:104ADE009F01CB019F02A002818283E200E900EADE
:104AEE0000B500B600B700CD008301CC008A01925C
:104AFE000194012102230224022502260227022A02
:104B0E0002B300B4006F0070009F01CB019F02A0A2
:104B1E00028182830A092D2056657273696F6E2099
:104B2E002D0A5649443A2030784645454428226796
:104B3E0020486561767920496E6475737472696573
:104B4E00732229205049443A2030783133333728A4
:104B5E00224572676F5461636F2229205645523A7F
:104B6E00203078303030310A4255494C443A2020BA
:104B7E00284665622031392032303235290A4F50AD
:104B8E0054494F4E533A204C5546412045585452A5
:104B9E00414B455920434F4E534F4C4520434F4DAB
:104BAE004D414E4420343039360A4743433A20387B
:104BBE002E332E30204156522D4C4942433A20324C
:104BCE002E302E30204156525F415243483A2061DA
:104BDE007672350A004432151407E206CD067906C0
:044BEE009206AB067A
:00000001FF
