:100000000C9441020C9479020C9479020C947902BC
:100010000C9479020C9479020C9479020C94790274
:100020000C9479020C9479020C94751D0C94491E61
:100030000C9498180C9479020C9479020C9479021F
:100040000C9479020C9479020C9479020C94790244
:100050000C9479020C9410190C9479020C94790286
:100060000C9479020C9479020C9479020C94790224
:100070000C9479020C9479020C9479020C94790214
:100080000C9479020C9479020C9479020C94790204
:100090000C9479020C9479020C9479020C947902F4
:1000A0000C9479020C9479020C94790229001E00B8
:1000B0001F0020002100220023002400250026002C
:1000C00027002D002E002A004C002B0014001A00DF
:1000D0000800150017001C0018000C001200130087
:1000E0002F00300000004B0039000400160007000C
:1000F00009000A000B000D000E000F003300340051
:10010000310028004E00E1001D001B000600190010
:10011000050011001000360037003800E5003100FE
:1001200052002152E000E300E20000002C00000039
:100130000000E600E4000000000000005000510054
:100140004F0035003A003B003C003D003E003F00C0
:100150004000410042004300440045000100007C93
:100160000100010001000100010001000100010087
:100170000100010001000100010000004A0001002F
:100180000100010001000100010001000100010067
:10019000010001000100010001004D00010001000B
:1001A0000100010001000100010001000100010047
:1001B0000100010001000100010001000100010037
:1001C000000001000000000001000100000000002C
:1001D0000000010001000100010001000100010018
:1001E0000100010001000100010001000100010007
:1001F00001000100010001000100010001000100F7
:1002000001000100010001000100010001000100E6
:1002100000000100010001000100010001000100D7
:1002200001000100010001000100010001000100C6
:1002300001000100010001000100010001000100B6
:1002400001000100010001000100010001000100A6
:100250000100010001000000010000000000010099
:100260000100000000000000010001000100010089
:100270000100010001000100010001000100010076
:100280000100010001000100010001000100010066
:100290000100010001000100010001000100010056
:1002A0000100010001000000010001000100010047
:1002B0000100010001000100010001000100010036
:1002C0000100010001000100010001000100010026
:1002D0000100010001000100010001000100010016
:1002E0000100010001000100010001000000010007
:1002F00000000000010001000000000000000100FB
:1003000001000100180351004B00360035002000A9
:1003100053006F006C00640065007200000016035B
:100320007100770065007200740079006B00650051
:100330007900730000000403090409023B00020174
:1003400000A0FA09040000010301010009211101C4
:10035000000122440007058103080001090401008F
:10036000010300000009211101000122B600070568
:1003700082032000011201000200000008534F53C5
:100380005101000102000105010902A101850209D4
:1003900001A1000509190129081500250195087515
:1003A0000181020501093009311581257F9502750A
:1003B00008810609381581257F9501750881060594
:1003C0000C0A38021581257F950175088106C0C089
:1003D00005010980A101850319012AB7001501262D
:1003E000B700950175108100C0050C0901A10185B8
:1003F0000419012AA002150126A002950175108199
:1004000000C005010906A1018506050719E029E7D5
:10041000150025019508750181020507190029EFCE
:100420001500250195F075018102050819012905BE
:10043000950575019102950175039101C0050109AA
:1004400006A101050719E029E715002501950875A2
:100450000181029501750881010507190029FF1521
:100460000026FF0095067508810005081901290579
:1004700015002501950575019102950175039101FE
:10048000C00011241FBECFEFDAE0DEBFCDBF04B63F
:1004900003FE18C08091C9029091CA02A091CB02BC
:1004A000B091CC028730904BA740B04B59F41092DA
:1004B000C9021092CA021092CB021092CC02E0E064
:1004C000F8E3099511E0A0E0B1E0ECEFF1E402C03F
:1004D00005900D92A03AB107D9F722E0A0EAB1E069
:1004E00001C01D92A93CB207E1F70E94E3110C94F0
:1004F000BD200C9400008430B8F46530A8F44F306F
:1005000098F450E09FE0699F400D511D1124FA01BD
:100510009BE4899FE00DF11D1124EE0FFF1FE455B0
:10052000FF4F85919491089581E090E008950E9495
:100530007B02089581E008950E949A02089581E067
:1005400008950E949A0208950E94A10208950895B4
:100550000E94A7020895A6E0B0E0E1EBF2E00C945F
:10056000192049835A839E833091A70189819A81FA
:1005700031111AC03E81332399F0222389F00E9461
:100580005E08182F682F89819A810E943A08698134
:100590007A81812F0E947C0F2696E3E00C9435200F
:1005A0000E944C08182FF3CF0E945E0869817A815F
:1005B000F1CFFC01262F40815181628173818481BA
:1005C00095810E94AB020895CF93DF93EC0161E027
:1005D0000E94D902BE010E949C02DF91CF91089532
:1005E000CF93DF93EC0160E00E94D902BE010E942C
:1005F000A802DF91CF91089521E030E0A90102C067
:10060000440F551F8A95E2F7CA010E945C070895BE
:10061000CF93C82F81E090E00C2E02C0880F991F65
:100620000A94E2F70E94CA0C8C2F0E94FC02CF9120
:10063000089581E008950E9419030895CF93C82F6B
:100640000E940F078C2F0E941B032FEF84E39CE076
:10065000215080409040E1F700C00000CF91089504
:1006600081E00E941E030E943419089580E00E94D8
:100670001E030E94581908950F931F93CF93DF9381
:100680008C0161E00E94D902EC01B8010E94A40231
:10069000811106C080E0DF91CF911F910F910895E5
:1006A000B801CE010E940C168823A1F3B801CE0137
:1006B0000E944812882371F3B801CE010E941E12D5
:1006C000882341F3B801CE010E948010882311F3E2
:1006D000F8018581882361F0C330FCE7DF07E9F08A
:1006E00058F4C115ECE7DE07A9F0C130DC47B9F0DA
:1006F000C8010E949F02CFCFCB358CE7D807A9F065
:10070000CC35ECE7DE0771F0CA35DC4789F70E948B
:10071000A50CEECF0E943003BDCF0E94AD0C0E940D
:100720003603B8CF0E949B0CE3CF0E94A90CE0CF08
:100730000E946A180E94B80308950E94BC030E9498
:100740006F18089581E008950895CF93DF93D82F0F
:100750000E94A203C82F882319F08D2F0E94A403A2
:100760008C2FDF91CF91089508950E94A5030895DD
:1007700080E00E94B50308950E9455160E94B503BB
:100780000895CF930E945516C82F8091A2018C170F
:1007900079F0C093A2010E9404196093A3017093A1
:1007A000A4018093A5019093A6018C2F0E94B5030C
:1007B000CF910895ADE0B0E0E0EEF3E00C941A20A4
:1007C000488759876A877B878C879D8791110E940C
:1007D000AB0B1F8286E0FE013896DE011196019078
:1007E0000D928A95E1F78D8181110DC029813A81A1
:1007F0004B815C816D817E818F810E94F50A2D96EF
:10080000E2E00C943620CE0101960E94E4028111B0
:10081000EDCFF5CFFC012481213021F4808191813D
:100820000E9490080895662329F00E94A9130E944F
:100830007C1408950E940314FACFCF93C82F882305
:1008400099F08CEF8C0F813A88F48C2F0E94F5166A
:10085000882329F08C2F0E949B170E943F0C8C2F1D
:100860000E9481170E943F0CCF91089580E28C0F67
:10087000883048F4C77081E001C0880FCA95EAF754
:100880000E948E0BEFCFEBE5EC0FE33040F4F0E08D
:10089000E05BFE4F808190E00E948916E5CFE8E59D
:1008A000EC0FEB3150F4F0E0EE0FFF1FE65EFE4F71
:1008B000808191810E94AE16D7CF83E38C0F833164
:1008C00098F661E08C2F0E941304CECF882381F12B
:1008D0009CEF980F913A28F40E949B170E943F0CBE
:1008E000089590E2980F983050F4877091E001C01D
:1008F000990F8A95EAF7892F0E94940BEFCF9BE519
:10090000980F933028F490E080E00E9489160895B3
:1009100098E5980F9B3128F490E080E00E94AE1695
:10092000089593E3980F933118F460E00E94130444
:1009300008951F93CF93DF93182FEB010E941D049E
:10094000209739F4812F0E946604DF91CF911F9187
:1009500008958FE99FE00197F1F700C0000021970B
:10096000EFCF70E060E0893311F460E570E00E9441
:1009700099040895882321F00E948E0B0E943F0C59
:100980000895882321F00E94940B0E943F0C089543
:10099000B0E0A0E0EEECF4E00C9413206C01D62F54
:1009A000C72FFC011581068102950F700E94840BF0
:1009B000E82E8823F9F0E12E1123E1F08C2F807FBF
:1009C000803461F080E28D0F883008F18C2F807EBA
:1009D000803221F4D230D8F00023C9F08091A302F4
:1009E00082FF15C082E00E946F0C0E94840B91E090
:1009F000E82EE926BC2EB2949FE0B922FBE0FB155D
:100A0000B8F1EB2DF0E0E154FF4D0C940420E12C03
:100A1000F1CF0C2F0F70C07F11F00295007F1123D2
:100A200099F0002359F080E28D0F883010F0D11139
:100A300007C0802F0E948E0B0E943F0C8D2F48C054
:100A4000802F0E949E0BF8CF8D2F0E9466040023FA
:100A500079F080E28D0F883010F0D11104C0802F22
:100A60000E94940B03C0802F0E94A40B0E943F0C95
:100A7000EB2DE850FF0B349708F06BC10E94551620
:100A80000E94B503CDB7DEB7E9E00C942F202C2FE0
:100A90002F70F22EC07FC03219F0F29480EFF8224E
:100AA000DD2341F0D130C9F1112309F443C0002303
:100AB000E9F0C4CF8091A30282FD14C0112359F044
:100AC000FF2029F08F2D0E948E0B0E943F0C80E0AA
:100AD0000E941D04CDCF80E00E946604FF2041F2F9
:100AE0008F2DBECF112369F0011104C08F2D0E94FC
:100AF000BA04BECF013009F0BBCF8F2D0E94C20BCC
:100B0000B7CF0111B5CF8F2D0E94C1048F2D0E9448
:100B1000CE0B8F2D0E94B20BABCF112321F00630EC
:100B200008F0A6CFE3CF053008F0A2CF8F2D0E94AA
:100B3000C1049ECF0023D1F3D93349F43FEF87EEB0
:100B400093E0315080409040E1F700C000008D2FCD
:100B50000E9466048DCF8C2F86958695837069F0F0
:100B6000813009F085CF8D2F9C2F9370111102C019
:100B700080E090E00E94AE167BCF8D2F9C2F93706B
:100B8000111102C080E090E00E94891671CF612FA0
:100B90008D2F0E9413046CCF8C2F8370A1F511113F
:100BA00067CF4D2F429546954770440F440F2D2F28
:100BB0002F7030E0042E02C0220F331F0A94E2F798
:100BC00090E080E0D4FF09C08FE090E002C0880F81
:100BD000991F4A95E2F780959095C695C695C37082
:100BE000822B932BC23049F058F4C13019F00E9487
:100BF00068073ECF0E945F073BCF0E94710738CF46
:100C00000E945C0735CF8695112311F08C2F8170DF
:100C1000882309F42DCF4D2F429546954770440FF8
:100C2000440F2D2F2F7030E0042E02C0220F331FEF
:100C30000A94E2F790E080E0D4FF09C08FE090E0F2
:100C400002C0880F991F4A95E2F780959095C69546
:100C5000C695C370822B932BC23049F058F4C13033
:100C600019F00E94D30704CF0E94CA0701CF0E9447
:100C7000DC07FECE0E948007FBCECF70112329F047
:100C80008C2F0E9498078D2F32CF8D2F0E94C10488
:100C90008C2F0E94A807ECCED23F41F160F4D03FE8
:100CA000B9F0D13F81F0112309F443C00111C6CE40
:100CB0008C2F8F711FC0D33F01F1D43FA1F78091DA
:100CC000A30282FD24C08C2F8F71112311F312C057
:100CD000112341F0053008F0CBCE8C2F8F710E948C
:100CE000BA07C6CE063008F0C3CEF7CF8C2F8F716F
:100CF0001111CFCF0E949807BBCE112329F08C2F62
:100D00008F710E948C07B4CE0E948707B1CE112349
:100D100031F063E08C2F8F710E94510CA9CE81E0DD
:100D20000E946F0C023008F4A3CE82E00E946F0C88
:100D30009FCE002359F0D93309F009CFEFEFF7EE3A
:100D400023E0E150F0402040E1F7FFCE8C2F8F717F
:100D5000A0CFEE2009F496CE0E94800B80FD92CEAB
:100D6000F60115820E947A0B0E949807C6010E9424
:100D7000D6060E947A0B0E94A80784CE0F931F9379
:100D8000CF93DF93EC01688179818D810E949B086C
:100D90008C010E94E5070E945B07B801CE010E940A
:100DA000C804DF91CF911F910F910895CF93DF93E6
:100DB000EC018C81882399F0CE010E943C038111C3
:100DC00011C00E94840B882351F08D81882339F053
:100DD0008091A30282FF03C082E00E946F0CDF912A
:100DE000CF910895CE010E94BE06CE010E94F0026E
:100DF000F6CF90E080E00E94891690E080E00E94AB
:100E0000AE160E94AB0B0E943F0C0E9498140E94E9
:100E10007C1408950E94B5170E94F90608950E9457
:100E20009B0B0E940A07089592959F70963091F04F
:100E300058F4925F9F70923058F4803F19F030F46C
:100E4000883E30F481E008959A5FF4CF843FD1F377
:100E500080E00895883EB0F3813FD1F7F3CFFC01E5
:100E60002481222339F0808191810E9490080E9480
:100E70001407089580E00895A6E0B0E0E2E4F7E00A
:100E80000C941A202696E2E00C943620A7E0B0E0FD
:100E9000ECE4F7E00C941A202796E2E00C9436205C
:100EA00008950E94500708950E9451079093D3011E
:100EB0008093D201089508950E94540708952091C7
:100EC000D2013091D301822B932B0E9454070895B5
:100ED0002091D2013091D301822393230E945407A1
:100EE00008952091D2013091D301822793270E9447
:100EF000540708950E94500708950E947A070895A4
:100F00000E947D079093D1018093D001089590E0D5
:100F100080E00E948007089521E030E0A90102C02E
:100F2000440F551F8A95E2F7CA010E948007089571
:100F300021E030E002C0220F331F8A95E2F7809152
:100F4000D0019091D101822B932B0E9480070895AC
:100F500021E030E002C0220F331F8A95E2F720958E
:100F600030958091D0019091D101822393230E94EA
:100F70008007089521E030E002C0220F331F8A95D8
:100F8000E2F78091D0019091D101822793270E94AE
:100F9000800708952091D0013091D101822B932BAD
:100FA0000E94800708952091D0013091D1018223C1
:100FB00093230E94800708952091D0013091D101A0
:100FC000822793270E94800708950895262F27706F
:100FD00091E001C0990F2A95EAF723E0769567958D
:100FE0002A95E1F7660F771F660F771FFA01E60F64
:100FF000F71F50E040E0682F70E08191DF0111970A
:101000009B01042E02C0369527950A94E2F72170C1
:1010100021952827292328272C934F5F5F4F4430A1
:10102000510559F70895A82FA77023E09695879545
:101030002A95E1F7880F991F880F991FFB01E80F88
:10104000F91F50E040E080E0219130E00A2E02C01C
:10105000369527950A94E2F721703327042E01C0B4
:10106000220F0A94EAF7822B4F5F5F4F44305105FD
:1010700059F70895262F953070F48F3060F4682F5B
:1010800070E08FE0989F600D711D112448EA51E0D7
:10109000822F0E94E6070895292F953068F48F303B
:1010A00058F490E068EA71E03FE0239F800D911DC5
:1010B00011240E941308089580E00895B0E0A0E094
:1010C000E4E6F8E00C9413207C010091D00110912B
:1010D000D1018091D2019091D301082B192BCFE03F
:1010E000D0E0CC24C394D12CBC2EC6010C2E02C05F
:1010F000880F991F0A94E2F780239123892B49F4E2
:10110000219790F7B12C8B2DCDB7DEB7E9E00C9489
:101110002F20B7018C2F0E94880F019789F3F3CFFE
:10112000CF93DF93EC010E945E08BE010E94880FFE
:10113000DF91CF9108951F93CF93DF93EB019091AF
:10114000A701992339F0CB010E949008DF91CF913C
:101150001F910895882369F0CB010E945E08182F23
:10116000682FCE010E943A08BE01812F0E94880F8D
:10117000EDCFCB010E944C08182FF6CF1F93CF93D1
:10118000DF93C091D40117E08091D5018C1304C086
:10119000DF91CF911F910895D0E01C9FF0011D9F1A
:1011A000F00D1124EA52FE4F20813181428153819A
:1011B0006481758186810E9446072196C770E4CFBD
:1011C00020910E0230910F024091100250911102B5
:1011D0006091120270911302809114020E944607DE
:1011E0000895CF93DF9380911402807F09F04DC062
:1011F00080911302882309F448C0E091D4015091F2
:10120000D501C0910F02D0910E0260911002709131
:10121000110247E05E17C9F18E2F90E0E49FF001C4
:101220001124EA52FE4F2481222391F1489FF001BC
:10123000499FF00D1124DF01AA52BE4F11962C9147
:1012400011972C1325C02C912D1322C015962C918B
:10125000159721111DC012962D913C91261B370B1D
:10126000283C3105A8F4809114028F70806180932E
:101270001402E452FE4F80818F70806180838EE083
:1012800092E00E94D6060E94BE08DF91CF91089599
:10129000FC013196E770BECF482F2091D401909188
:1012A000D50157E0291302C080E0089530E0529F35
:1012B000F001539FF00D1124EA52FE4F8181681313
:1012C00006C08081481303C085818111EECF2F5F56
:1012D0003F4F2770E7CFA4E1B0E0E1E7F9E00C94DD
:1012E00010208C0186E0F801DE011F9601900D921E
:1012F0008A95E1F7F8018481E5809EE0A92E92E0CD
:10130000B92E9091120291111FC08823D1F0EE20C6
:10131000A9F0C8010E942F07F82E882379F087E0F2
:10132000F801D50101900D928A95E1F7C5010E945F
:101330000A040E94F1080E94E0085FC0C8010E94F0
:10134000D606FF24F39459C0C080D1808280938058
:10135000F09013022091100230911102A401421B5F
:10136000530BFF2009F4F9C0483C510508F0A7C011
:10137000882309F442C090910F0280911402282F13
:10138000207F09F05CC09D1116C090910E02C91219
:1013900012C0E1104EC08F708061809314020E94D1
:1013A000E0088EE092E00E94D60680911402F801D7
:1013B0008683F12C22C0E1103CC06D2D8C2D0E9443
:1013C0004C096D2D8C2D0E944C09E82E8111F1CF16
:1013D000CF86D88A8F8598890E949008292F2295D8
:1013E0002F70243078F49F702230A8F09923B9F040
:1013F000F8019681907F99F4FE2C8F2D6496ECE095
:101400000C942C202A5F2F70223068F0C8010E94B3
:10141000D606EF2CF1CF992311F0882369F3805E73
:10142000883050F3F3CF803F38F3815F833070F71B
:10143000E3CF80911402816080931402BACF9D1192
:1014400013C090910E02C9120FC0E1100DC0868327
:10145000C8010E94D60687E0F801AEE0B2E0019034
:101460000D928A95E1F767CFC8010E942F07882364
:1014700009F464CFEE2009F461CF80911402803228
:1014800088F020910E0230910F02398728879B86C1
:101490008A86909112029C871D868E87CE010896BF
:1014A0000E94D60687E0F801AEE0B2E001900D920E
:1014B0008A95E1F70E94F1080E94E00842CF9091DE
:1014C0001402292F207FA1F4682D9A8A898AA60107
:1014D0007A899E2D0E943C078EE092E00E94D606FB
:1014E00087E0F50111928A95E9F70E94E00861CF43
:1014F000882309F482CF80910F028D1110C0809152
:101500000E02C8120CC0E1100AC09683C8010E94E6
:10151000D60687E0F50111928A95E9F76ECFC801EA
:101520000E942F07882309F409CFEE2009F406CF83
:1015300080911402803208F4B5CF20910E023091D0
:101540000F023A8329839C828B82909112029D83A1
:101550001E828F83CE010196A3CF483C5105B8F57A
:10156000882309F4EECEFE2CEE2009F4E7CE80911C
:101570000F028D111EC080910E02C8121AC08091F8
:10158000140280FD0DC0982F907F51F08683903F0C
:1015900009F45ECF982F907F905F8F70892B57CF83
:1015A00087E0F801AEE0B2E001900D928A95E1F794
:1015B00024CFC8010E942F07811174CF809114029B
:1015C000816080931402C8010E94D60616CF682D50
:1015D0009A8A898AA6017A899E2D0E943C0787E013
:1015E000F50111928A95E9F7A6CEAEE0B0E0EBEFF7
:1015F000FAE00C941920288739874A875B876C8723
:101600007D878E87CE0108960E946B098823B1F0F2
:101610006C85662341F0288539854A855B857D8503
:101620008E850E94460717E08091D4019091D501E4
:1016300089133DC02E96E3E00C94352087E0FE012F
:101640003896DE01119601900D928A95E1F78C850E
:10165000882349F32091D50130E0C90101968770B4
:1016600099274091D4014817190699F097E0929F65
:10167000D001939FB00D1124AA52BE4FFE013196A6
:1016800001900D929A95E1F78093D5010E94BE08D2
:10169000CACF0E940F071092D5011092D40187E0A3
:1016A000EEE0F2E0DF011D928A95E9F7BCCF819F61
:1016B000C00111248A529E4F0E946B09882309F4AD
:1016C000B9CFE091D4011E9FF0011124EA52FE4FE0
:1016D00020813181428153816481758186810E949C
:1016E00046078091D40190E00196877099278093F6
:1016F000D4019ACF80913D0286958695869508956E
:1017000080913D028770089590913D02977081E02D
:1017100009F480E00895809169020895909169022A
:10172000892B80936902089580959091690298238E
:101730009093690208951092690208959091680249
:10174000892B809368020895809590916802982370
:1017500090936802089510926802089508950E9477
:10176000AE0B089590913E02292F282331F08095E9
:10177000892380933E020E94AF0B089508950E9432
:10178000BE0B089590913F02292F2823281729F096
:10179000982B90933F020E94BF0B089590913F02B7
:1017A000292F282331F08095892380933F020E94BE
:1017B000BF0B089580913F02882329F010923F02C9
:1017C00080E00E94BF0B0895CF93C0916902809181
:1017D0006802C82B80913F02882331F0C82B0E94F9
:1017E000D31681110E94DA0B8C2FCF910895CF93DD
:1017F000DF93C0910201D09103010E94E40B888322
:10180000C0910201D091030148E050E065E372E02D
:10181000CE010E945520892B59F088E0FE01A5E3F6
:10182000B2E001900D928A95E1F7CE010E94621616
:10183000DF91CF910895CF93DF93C0910001D091B4
:1018400001010E94E40B8983C0910001D091010144
:1018500040E250E065E172E0CE010E945520892B04
:1018600059F080E2FE01A5E1B2E001900D928A9567
:10187000E1F7CE010E946D16DF91CF9108950E948D
:101880004518813039F48091A20287FF03C00E947D
:101890001B0C08950E94F70B089508950E944D0CAB
:1018A00008959091A30292FF11C098E0899F900142
:1018B0001124622B60933D020E94980780913D02A3
:1018C0008695869586950E944E0C08950E949807ED
:1018D000089510923D0280E00E944E0C0895909170
:1018E0003D028095892380933D02282F277069F45B
:1018F000891759F09091A30292FF07C086958695AB
:1019000086950E94A8070E94690C08959091A302F1
:1019100092FB222720F9281769F080FB92F9909317
:10192000A3028091A2029091A3020E94D50C82E0B2
:101930000E946F0C08958091A30282FB882780F992
:1019400091E089270E94860C089581E00E94860C10
:10195000089580E00E94860C08956FEF7FEF90E07D
:1019600080E00E94A720089590E080E00E9473200C
:1019700021E0853E9E4F09F020E0822F089582E00D
:1019800090E00E946B20089583E090E00E946B201D
:1019900090E00895682F83E090E00E9489200895E8
:1019A00084E090E00E9473200895BC0184E090E000
:1019B0000E94A7200895AB01BC018FE090E00E9437
:1019C0009B200895AB01BC0183E190E00E949B2025
:1019D000089560E070E0CB010E94E20C089560E0A1
:1019E00070E0CB010E94DB0C0E94E90C0895A8E096
:1019F000B0E0EDEFFCE00C941A2065EE7EEF90E095
:101A000080E00E94A72060E082E090E00E948920B0
:101A100081E090E09093D3018093D2010E94CA0CA0
:101A200060E074E184E090E00E94A72060E086E03E
:101A300090E00E94892060E087E090E00E94892089
:101A400040E050E0BA0188E090E00E949B2060E016
:101A500083E290E00E94892060E08CE090E00E94A8
:101A6000892060E08DE090E00E94892019821A822E
:101A70001B821C821D821E821F82188648E050E055
:101A800067E170E0CE0101960E94792040E050E0CD
:101A9000BA018FE190E00E949B200E94EF0C2896F3
:101AA000E2E00C9436200E94F70C0895682F8EE037
:101AB00090E00E9489200895A6E0B0E0E2E6FDE013
:101AC0000C9418200E94F8188C0180916A02909161
:101AD0006B028017910781F019821A820E94F81810
:101AE000682F49815A81792F80E090E00E94DA03C3
:101AF00010936B0200936A022696E4E00C94342063
:101B00000E94041960937A0270937B0280937C0296
:101B100090937D02609376027093770280937802AF
:101B2000909379020895089508950E94930D089561
:101B300008950E94980D08958EE790E10E94F81193
:101B40000E94940D0E94950D089581E008950E94D1
:101B5000A50D08950E94A50D0895089508950E9469
:101B6000AD0D0E94AE0D08950E94B40C811102C00B
:101B70000E94530D0E94BF0C80937E020E94D00CE5
:101B80009093A3028093A2020E941B120E94C40C95
:101B90000E945C078091D0019091D1010E947D0745
:101BA00008950E94EF180E9453110E94B40D0E94E4
:101BB000B403E2EAF2E08081806880838091A2022F
:101BC0009091A3020E94D50C0E94990D0895A6E061
:101BD000B0E0EDEEFDE00C940E200E94A70D811107
:101BE0000AC00E945C0D0E94BA140E94C10326968E
:101BF000EEE00C942A200E9469112CE6822E22E04D
:101C0000922E640110E0F601E190F1906F01812FB6
:101C10000E949A101F5F153009F44BC0E816F906B0
:101C200091F380917E0281FD0E94A3100E94AA0D73
:101C3000782E10E066246394812F0E949A107C0114
:101C4000F401A190B1904F018A159B0561F100E06C
:101C5000CC24C394D12CAE24BF24C5018C219D215A
:101C6000892BC1F07720B1F009831A830E94F818FC
:101C70009C838B836D8221E0C7018C219D21892B60
:101C800009F420E049815A816B817C818D81922FFA
:101C90000E94DA030F5FCC0CDD1C0F30F1F6F4016B
:101CA0003297F182E0821F5F153031F60E94800D7D
:101CB0009ACFE816F90609F0B4CF93CF1F93CF93CC
:101CC000DF930E948D0FEC01C11580E5D807F0F578
:101CD000C11580E4D80708F09CC0C03ED10520F5AE
:101CE000CD3CD10508F082C0C83AD10578F4C53A98
:101CF000D10508F073C0C130D10519F1209709F161
:101D0000C430D105F0F4D0E0C0E01BC0C33CD10525
:101D1000D0F7C85AD0E0CC0FDD1FCD5ADE4F099066
:101D2000D881C02DD4640DC0C11580E2D80708F059
:101D3000D1C0C11581E0D80708F05AC0C83ED1050E
:101D400010F7CE01DF91CF911F910895C03682E543
:101D5000D80718F5C03482E5D80708F06BC0C03248
:101D600082E5D80708F05FC0C11582E5D80708F4FE
:101D700097C02C2F2695269580E2289F900111244C
:101D80008C2F8370C1E0D0E002C0CC0FDD1F8A959C
:101D9000E2F7C22BD32BDD68D4CFC03A82E5D80757
:101DA00060F4C03882E5D80708F459C0CF71D0E09C
:101DB000DC2FCC27C46FD06AC4CFC03C82E5D807E3
:101DC00008F462C0C03E82E5D80708F09CCFDC2F43
:101DD000CC27CC27DF71C06FD06AB3CFC55AD0E013
:101DE000C757DE4FC881D0E0D064ABCFD065A9CF54
:101DF0008D2F0E942F10182FCE0199270E948D0F32
:101E0000C12FD0E0DC2FCC27CC27DF71C82BD92BFA
:101E100098CFCE0199270E948D0FCC27DF70C82B59
:101E2000D92BD06A8ECFCF71D0E0DC2FCC27C16FF9
:101E3000D06A87CF2C2F26952695277080E2289F81
:101E4000900111248C2F8370C1E0D0E002C0CC0F30
:101E5000DD1F8A95E2F7C22BD32BDC6872CF2C2FC3
:101E600026952695277080E2289F900111248C2FBB
:101E70008370C1E0D0E002C0CC0FDD1F8A95E2F78D
:101E8000C22BD32BDA685DCF8C2F8F710E942F105D
:101E9000C82FD0E0DC2FCC27CC27DF71D06251CF08
:101EA0008C2F8F710E942F1055E0D695C7955A95AB
:101EB000E1F7CF70D0E0DC2FCC27282F30E084FF73
:101EC00005C044E0220F331F4A95E1F7C22BD32B04
:101ED000D06937CF8D2F8F710E942F10182FCE0110
:101EE00099270E948D0FC12FD0E0DC2FCC27CC2763
:101EF000DF71C82BD92BD2CF462F753030F46F301D
:101F000020F4672F0E949702089590E080E00895E2
:101F10000E947C0F0E945E0E089582389105B9F1EF
:101F2000B0F48133910509F47DC048F489329105FC
:101F300009F46DC08A32910509F47BC00895853398
:101F4000910509F45FC08933910509F10895833E35
:101F50009105D9F138F4803E910529F1823E910531
:101F600079F10895863E9105D9F1873E910509F4EE
:101F70003EC0843E910541F52091A30221FF24C07B
:101F80008091A20284FD19C087EE90E0089520910F
:101F9000A202237009F05AC02091A30223FF14C0AB
:101FA00089E290E008952091A20220FD38C030918E
:101FB000A30230FF09C024FF43C090E080E00895F1
:101FC0002091A20222FDF7CF08952091A20222FDC6
:101FD0003AC03091A30230FD39C024FFF5CFEDCFD8
:101FE0002091A20223FFF0CF24FDE7CFCDCF209197
:101FF000A20223FD2EC03091A30231FFEECF84EE6A
:1020000090E008952091A20225FFDECFC9CF209154
:10201000A20225FD21C02091A30223FFD5CF89E391
:1020200090E0D2CF2091A20226FFCECF8AE290E0AC
:1020300008952091A20226FFC7CF81E390E0089582
:1020400083EE90E0089582EE90E0089580EE90E0B7
:10205000089586EE90E0089585E390E008959091CC
:10206000A20292FF10C041E0282F2471243009F011
:1020700040E031E0282F2871283009F030E0431784
:1020800011F02CE0822793FF10C041E0282F24712B
:10209000243109F040E031E0282F2871283109F07F
:1020A00030E0431711F02CE082273091A30230FF7B
:1020B00010C051E0282F2171213009F050E041E09B
:1020C000282F2871283009F040E0541711F029E03A
:1020D000822731FF10C041E0282F2171213109F002
:1020E00040E031E0282F2871283109F030E0431713
:1020F00011F029E0822794FD877E089580E00895FD
:10210000CF939C01205E3245C1E02032310538F486
:10211000FB01C581C11103C08F710E9408038C2F80
:10212000CF91089508950E949210089508950E94F5
:1021300096100895E82FF0E0EE0FFF1FE255FD4FD7
:10214000808191810895089580EA8A95F1F7089534
:1021500000C008950E94A4100895F894E82FE29515
:10216000EF70F0E031A1282F2F7081E090E001C0E6
:10217000880F2A95EAF7982F9095932391A392A11F
:10218000892B82A3789408950F931F93CF93DF93A5
:10219000CBE9D1E089918F3F11F00E94AD1081E031
:1021A000C03AD807B9F7CCE8D1E00BE911E0899142
:1021B0008F3F11F00E94AD100C171D07C1F7DF9182
:1021C000CF911F910F910895AF92BF92DF92EF923E
:1021D000FF920F931F93CF93DF938C01D62EC62FC0
:1021E000D0E0CE0185569E4F7C01FC0120812F3F1F
:1021F00009F44CC0F894E22FE295EF70F0E031A1C1
:102200002F7081E090E001C0880F2A95EAF7932FA4
:10221000982B91A392A18095892382A378940E9400
:10222000A810ECE8F1E041E050E0B12CA12C2191A4
:102230002F3FB1F1A22FA295AF70B0E090968C9194
:1022400090E02F7002C0959587952A95E2F780FD62
:1022500027C0CA01A82AB92A440F551F81E0EB39CB
:10226000F80729F7F70180818F3F11F00E94AD1028
:1022700061E0A114B10409F460E08D2D0E94AA1060
:10228000CC0FDD1FC00FD11FB982A882DF91CF9183
:102290001F910F91FF90EF90DF90BF90AF90089546
:1022A00090E080E0D7CF0E94C4108AE0EEEAF2E02E
:1022B000DF01982F1D929A95E9F7E4EAF2E0DF0139
:1022C0001D928A95E9F785E00E94A4110E9493105F
:1022D0000895AAE0B0E0EFE6F1E10C9417208E013A
:1022E0000F5F1F4F8AE0F80111928A95E9F7F12CF0
:1022F0006F2DC8010E94E410F394F5E0FF12F8CFAF
:102300004AE050E0B80184EA92E00E94552021E0C2
:10231000009709F420E0892B41F08AE0F801A4EA53
:10232000B2E001900D928A95E1F745E06EEA72E025
:1023300084EA92E00E94A511182F0E949710812F25
:102340002A96E5E00C9433200895B0E0A0E0EBEA93
:10235000F1E10C9414206C017B01042FC22F222385
:1023600079F081E0809381020E94F81890938002B6
:1023700080937F0280E0CDB7DEB7E8E00C94302098
:10238000D0918102DD23B1F380917F029091800290
:102390000E948718059770F310E0000F111FA80125
:1023A000B601C7010E945520892B31F0A801B60162
:1023B000C7010E946220CD2F109281028C2FDBCFAB
:1023C0000E94E70D08950E9491180E94AC1A0E9485
:1023D0009C0D0E94C61A0E94D10D0E94D31A0E9421
:1023E000D81A0E94E0110E94F21A0E94AF0DF7CF96
:1023F0009093A1018093A00108950E94AD0C0895CF
:1024000080E00E949A10817008950E9469112FEF58
:1024100086E791E0215080409040E1F700C0000045
:102420000E9469110E940012882321F00E94FD1170
:102430000E94341908950E9405120895CF93DF93E6
:10244000EB0186319C4711F50E948B0B9D819923EE
:1024500099F08A7A91E009F490E0909382028111D8
:1024600009C089E20E9481170E943F0C80E0DF9141
:10247000CF91089585E3F6CF80918202811104C047
:1024800089E20E949B17F0CF85E3FBCF81E0EFCF7D
:10249000CF93DF93EC01FB018581882309F4D2C03F
:1024A0009E0130572332310508F0B2C00E94D00C93
:1024B0009093A3028093A202FE01E150F047E23222
:1024C000F10520F4E553FF4D0C9404208091A20205
:1024D00081608093A20293C08091A3028860809360
:1024E000A3028DC08091A2028260F3CF8091A202EC
:1024F0008460EFCF8091A2028860EBCF8091A3022D
:102500008160EDCF8091A3028260E9CF8091A20229
:102510008061DFCF8091A2028062DBCF8091A20236
:102520008064D7CF0E940F078091A2028068D1CF2C
:102530008091A2028C60CDCF8091A3028360CFCF27
:102540008091A2028E7FC5CF8091A302877FC7CFE3
:102550008091A2028D7FBDCF8091A2028B7FB9CFE7
:102560008091A202877FB5CF8091A3028E7FB7CFE3
:102570008091A3028D7FB3CF8091A2028F7EA9CFDD
:102580008091A2028F7DA5CF8091A2028F7BA1CFE7
:102590000E940F078091A2028F779BCF8091A202A9
:1025A000837F97CF8091A3028C7F99CF8091A202E5
:1025B00082FB992790F921E0922790FB82F990FB0A
:1025C00083F987CF8091A302982F909591708E7F89
:1025D000892B90FB81F983CF9091A202892F8F7B69
:1025E00096FF806476CF0E940F079091A202892FF8
:1025F00097FB87F980586DCF81E00E94560D80913E
:10260000A2029091A3020E94D50C0E940F0780E0C5
:10261000DF91CF91089580E0F0CF9091A202892FB1
:102620008F7E94FF806155CF9091A202892F8E7F7B
:1026300090FF81604ECF9091A302892F877F93FFF7
:1026400088604DCF81E0E4CF282F35EB2303C00114
:10265000112497FF04C080589109892F089580584C
:102660009F4FFBCF8091890280FF0DC060910901CF
:1026700070E0660F771F6038710570F561157105A0
:1026800069F1862F089581FF07C06091090184E0F8
:10269000689FB0011124EFCF6091090182FD0AC04B
:1026A000809188028823A9F0209108016091090196
:1026B000821710F088E0ECCF869FC001112433E030
:1026C000880F991F3A95E1F7622F70E00E94F01F82
:1026D000D2CF68E070E0D5CF8FE7089581E008950C
:1026E0008091890280FF0CC06091050170E07595B2
:1026F0006795759567956115710549F1862F089560
:1027000081FF06C06091050170E075956795F3CF74
:102710006091050182FD0BC0909187029923A1F081
:102720006091040180910501961738F0682F70E0E0
:102730006038710500F38FE70895899FC001112467
:1027400070E00E94F01FF4CF61E070E0D7CF81E02D
:1027500008958D3C31F40E943213819580938D024F
:1027600008958E3C19F40E943213F8CF8F3C31F457
:102770000E943213819580938C020895803D19F454
:102780000E943213F8CF893D29F40E947013809380
:102790008E0208958A3D21F40E9470138195F7CF2F
:1027A0008B3D31F40E947013819580938F020895C0
:1027B0008C3D19F40E947013F8CF9FE2980F983067
:1027C00070F4815D990B21E030E001C0220F8A9501
:1027D000EAF780918B02822B80938B0208958D3DC6
:1027E00031F48091890281608093890208958E3D41
:1027F00021F4809189028260F7CF8F3DB9F78091F3
:1028000089028460F1CF40918C028D3C59F4809113
:102810008D0287FF0DC010928D0241110BC01092E6
:10282000880208C08E3C81F480918D0218169CF3BA
:10283000442381F080918E0290918F02892B09F0C0
:102840005AC01092870208958F3C49F447FFF0CF99
:1028500010928C0280918D028111ECCFE0CF803DEF
:1028600019F41416ACF3E4CF90918E02893D29F44B
:102870001916F4F610928E02DBCF8A3D19F497FFF9
:10288000D7CFF8CF90918F028B3D29F497FFD0CF0F
:1028900010928F02CDCF8C3D19F41916CCF3C8CF0E
:1028A0009FE2980F983090F4815D990B21E030E021
:1028B000B90102C0660F771F8A95E2F7CB018095B8
:1028C00090918B02892380938B02B2CF8D3D31F49E
:1028D000809189028E7F80938902AACF8E3D21F458
:1028E000809189028D7FF7CF8F3D09F0A1CF809134
:1028F00089028B7FF0CF08950E94F8189C01909177
:102900008C0280918D02982B21F0309386022093C7
:10291000850290918E0280918F02982B21F0309346
:102920008402209383028AE892E00E947B16089535
:1029300086E0EAE8F2E0DF011D928A95E9F710925D
:10294000880210928702109289020895FC01828108
:1029500081110EC0838181110BC08481811108C057
:1029600091E08581811101C090E0892F81700895E7
:1029700081E0FCCFA6E0B0E0E0ECF4E10C9419209B
:1029800086E0EAE8F2E0DE01119601900D928A9568
:10299000E1F710928C0210928D0210928E0210922A
:1029A0008F028B819C81892B89F080918502909187
:1029B00086020E948718AC01909188029923C9F180
:1029C00080910A018417150608F440C08D819E810C
:1029D000892B91F080918302909184020E94871844
:1029E000AC0190918702992309F46AC08091060195
:1029F0008417150608F472C0BE016F5F7F4F8AE826
:102A000092E00E94CF17811105C08AE892E00E94EF
:102A1000A61481110E947C1486E0FE013196AAE87A
:102A2000B2E001900D928A95E1F72696E3E00C94CE
:102A3000352020910B018AE0289F90011124241752
:102A4000350720F69F5F9093880202C09F3FD1F721
:102A50001B81112359F00E9432139FEF11160CF4C1
:102A600091E0899F802D112480938C021C81112379
:102A700059F00E9432139FEF11160CF491E0899FD8
:102A8000802D112480938D0280918C02882309F47B
:102A90009DCF10918D02112309F498CF0E94241329
:102AA000882351F080938C02812F0E942413882365
:102AB00029F080938D028ACF81E0F4CF81E0F9CFB5
:102AC000209107018AE0289F9001112424173507DF
:102AD00008F092CF9F5F9093870202C09F3FD1F78B
:102AE0001D81112359F00E9470139FEF11160CF4F1
:102AF00091E0899F802D112480938E021E811123E5
:102B000059F00E9470139FEF11160CF491E0899F09
:102B1000802D112480938F0280918E02882309F4E6
:102B20006BCF10918F02112309F466CF0E942413FA
:102B3000882351F080938E02812F0E9424138823D2
:102B400029F080938F0258CF81E0F4CF81E0F9CF54
:102B50000F931F93CF93DF93C42FD22FFC01858156
:102B60008823C9F0409392020E94F8189093910232
:102B70008093900280E28C0F883040F4C77081E02F
:102B800001C0880FCA95EAF70E94BA04DF91CF917D
:102B90001F910F91089510919202141332C08091E9
:102BA0009002909191020E948718883C910548F507
:102BB000C0E2CD0F1D17B9F080E2810F883040F4DC
:102BC000177081E001C0880F1A95EAF70E94C104CE
:102BD000C83048F481E09D2F977001C0880F9A9506
:102BE000EAF70E94BA04802F0E94B104C83070F640
:102BF000D77081E001C0880FDA95EAF70E94C1041E
:102C0000C5CF80E28C0F883008F6C77081E001C024
:102C1000880FCA95EAF7F2CF0F93DB0188519C47E2
:102C200087309105A0F5FC01E351FF4D0C94042081
:102C300006E221EE41EE6AE17CE7CD010E94A81593
:102C400080E00F91089507E225EE45EE6BE17CE709
:102C5000F4CF06E221EE40EE68E17CE7EECF07E23A
:102C600025EE44EE69E17CE7E8CF06E221EE42EE94
:102C70006CE17CE7E2CF07E225EE46EE6DE17CE712
:102C8000DCCF08E221E045EE6EE17CE7D6CF159679
:102C90008C91882319F010929202D3CF81E0D1CF8A
:102CA00090939802809397020895E0919702F09193
:102CB0009802309729F00190F081E02D0995089550
:102CC00080E00895E0919702F0919802309721F00A
:102CD0000280F381E02D09950895E0919702F0912B
:102CE0009802309739F026E0DC012C930480F581BE
:102CF000E02D09950895E0919702F09198023097A0
:102D000039F022E0DC012C930680F781E02D099553
:102D10000895A3E0B0E0EFE8F6E10C941A202091CA
:102D200095023091960228173907A1F090939602E8
:102D300080939502E0919702F0919802309751F0BC
:102D400023E029839B838A830084F185E02DCE01D3
:102D5000019609952396E2E00C943620A3E0B0E0BA
:102D6000E4EBF6E10C941A20209193023091940246
:102D700028173907A1F09093940280939302E09171
:102D80009702F0919802309751F024E029839B83B9
:102D90008A830084F185E02DCE0101960995239662
:102DA000E2E00C943620CF93DF93C0910201D091E2
:102DB000030122960E944518813081F48091A2027D
:102DC00087FF0CC0C0910001D091010122969EE1C5
:102DD00080E0915028F4DF91CF91089596E0F8CFEC
:102DE00029912223B1F38F5FF4CFCF93C82F8111A4
:102DF00002C080E024C00E944518813011F5809106
:102E0000A20287FF1EC0EC2FE695E695E695EE310F
:102E100080F78091000190910101E80FF92FF11DD9
:102E2000228130E0C77081E090E002C0880F991FD6
:102E3000CA95E2F72823392381E0232BD1F2CF91E1
:102E400008958091020190910301FC013296089649
:102E500021912C1721F0E817F907D1F7CACF81E0AB
:102E6000EECF9C01FC0132969FEF80E04191461726
:102E700051F09F3F19F4411101C0982F8F5F8630A8
:102E8000A9F79F3F09F40895290F311D97FD3A9541
:102E9000F90162830895FC01329608962191261368
:102EA00003C0DF0111971C92E817F907B9F70895DD
:102EB000E62FE695E695E695EE3168F4E80FF92FF2
:102EC000F11D677021E030E001C0220F6A95EAF73A
:102ED0008281822B82830895E62FE695E695E6951A
:102EE000EE3170F4E80FF92FF11D677021E030E04A
:102EF00001C0220F6A95EAF7209582812823228358
:102F00000895CF93C82F0E9445186C2F813061F42B
:102F10008091A20287FF08C0809100019091010179
:102F20000E945817CF91089580910201909103015A
:102F30000E943117F7CFCF93C82F0E9445186C2FEE
:102F4000813061F48091A20287FF08C08091000166
:102F5000909101010E946C17CF9108958091020118
:102F6000909103010E944B17F7CF0E9445188130C2
:102F700079F48091A20287FF0BC0E0910001F091EB
:102F8000010132968EE1DF011D928A95E9F70895DD
:102F9000E0910201F0910301329686E0F4CFDC016A
:102FA000FB0111969C9111978181981322C0129672
:102FB0008C911297882319F0928189131AC0139665
:102FC0008C911397882319F09381891312C0159659
:102FD0008C911597882319F0958189130AC014964E
:102FE0009C91992321F081E02481291303C080E082
:102FF00001C081E08170089508950E94FC17089532
:1030000081110EC081E080930F0160910C017091DD
:103010000D0180910E0190910F010E94FD170895FE
:1030200082E0F1CF83E080930F0160910C017091F9
:103030000D0180910E0190910F010E94FD170895DE
:103040000E940018089581E080930F0160910C01A7
:1030500070910D0180910E0190910F010E94FD175A
:1030600008950E942318089591E0811101C090E015
:1030700090930E0160910C0170910D0180910E01F1
:1030800090910F010E94FD17089580910E010895FF
:1030900080930D0160910C0170910D0180910E01E2
:1030A00090910F010E94FD17089580910D010895E0
:1030B00080930C0160910C0170910D0180910E01C3
:1030C00090910F010E94FD17089580910C010895C1
:1030D000089508950E9469180895089508950E941A
:1030E00068180895CF930E946D180E9469110E947C
:1030F0006E18C0E08C2F0E949A10892B31F4CF5F9C
:10310000C530C1F780E0CF91089581E0FCCFCF9327
:10311000DF93EC010E94F8188C1B9D0BDF91CF917F
:10312000089585B7806885BF85B7806885BF089595
:103130001F921FB61F9211248F939F93AF93BF933B
:1031400080919902811113C08091B8029091B902C7
:10315000A091BA02B091BB024196A11DB11D80930E
:10316000B8029093B902A093BA02B093BB02BF9188
:10317000AF919F918F911F901FBE1F9018958091C6
:10318000C002843031F10E9498031092990288E1C4
:1031900090E020E40FB6F894A895809360000FBEED
:1031A0002093600083B7817F846083BF83B7816091
:1031B00083BF7894889583B78E7F83BF0FB6F894CA
:1031C000A8958091600088618093600010926000F3
:1031D0000FBE08950E940F070E949D03089582E08C
:1031E00084BD93E095BD9AEF97BD80936E000895DE
:1031F0002FB7F8948091B8029091B902A091BA02C9
:10320000B091BB022FBF08952FB7F8946091B80218
:103210007091B9028091BA029091BB022FBF0895BC
:1032200078941F921FB61F9211248F939F93AF9390
:10323000BF938091B8029091B902A091BA02B09167
:10324000BB020196A11DB11D8093B8029093B902F3
:10325000A093BA02B093BB02BF91AF919F918F919F
:103260001F901FBE1F90189581E08093E00080E2C0
:103270008093D8001092C9008FE19EE40197F1F786
:1032800000C0000087E090EBDC018093C9029093BE
:10329000CA02A093CB02B093CC0288E19CE00FB6A7
:1032A000F894A895809360000FBE90936000FFCFC4
:1032B00088E19CE00FB6F894A895809360000FBE5B
:1032C00090936000FFCF9B01BA019091C0029430AF
:1032D000E9F48F708093E9009FEF8091E8009150AE
:1032E00085FD06C085ED8A95F1F700009111F5CFB7
:1032F0008091E80085FF0AC050E040E0C9010E94CB
:10330000691B8091E8008E778093E800089543E080
:1033100050E0BC0182E00E946319089546E050E04D
:10332000BC0182E00E946319089540E250E0BC01B4
:1033300082E00E9463190895CF93DF93EC010E940D
:10334000451848E050E0BE0181E00E94631988E022
:10335000FE01AAE9B2E001900D928A95E1F7DF91B2
:10336000CF9108958091BF02811109C00E94F91C7C
:103370000E94561D8091E20084608093E2000895CF
:103380001092BF0208950E94231881E00E94341811
:1033900008956091BC0281E0611101C080E00E944B
:1033A000121808959091C00281E0943009F080E0F5
:1033B0006091BC020E942018089542E061EC81E017
:1033C0000E94751C42E261EC82E00E94751C9091A3
:1033D000C00281E0943009F080E06091BC020E945C
:1033E000001808958091C202833009F461C030F45E
:1033F0008130D1F1823009F49EC008958A3009F4F9
:103400008AC08B3009F46FC0893009F050C08091B8
:10341000C102813209F04BC08091C5029091C60271
:10342000029708F044C08091E800877F8093E8000D
:103430008091E80082FF37C09091F3008091F20004
:10344000029731F48091F100813011F0863021F43F
:103450008091F1000E9448188091E8008B7780935A
:10346000E8000E94A91C23C08091C102813AF9F4AE
:103470008091E800877F8093E8008091C502909159
:10348000C602892B61F468E08AE992E070E00E944C
:10349000B81B8091E8008B778093E800089560E086
:1034A00090E080E0F3CF8091C0028111C1CF0895F8
:1034B0008091C102813AD9F78091C5029091C602EC
:1034C000892BA9F78091E800877F8093E80080919D
:1034D000E80080FFFCCF0E9445188093F1008091A6
:1034E000E8008E77BCCF8091C102813201F78091D4
:1034F000C5029091C602892BD1F68091E800877FA2
:103500008093E8000E94A91C8091C3020E94341895
:103510000E940F0708958091C102813241F6809187
:10352000E800877F8093E8000E94A91C8091C40274
:103530000E94581808958091C102813A09F0B7CFCE
:103540008091E800877F8093E8008091E80080FF09
:10355000FCCF0E946518C1CF84B7877F84BF0FB6A8
:10356000F894A89580916000886180936000109223
:1035700060000FBE80E890E00FB6F8948093610081
:10358000909361000FBE0E94311808950E94F91CAB
:103590000E94561DE2EEF0E0808184608083789482
:1035A0000E94D51F089580E191E00E945016089571
:1035B0008091C002853031F48091C002853019F0CD
:1035C0000E94EA1808950E94BF180E94721888236A
:1035D00099F38091BE02882379F30E94531B0E94C5
:1035E0000F07EACF08959A014091C7025091C8028F
:1035F0000E94FB1A0895492F55274330510519F1B0
:1036000068F44130510509F444C04230510509F4D1
:1036100045C090E080E050E040E025C041325105D7
:1036200049F142325105A9F784E490E04DE354E0BA
:1036300061157105C1F086EB90E047E853E0613019
:10364000710589F0E6CF99278130910581F00097C7
:1036500029F00297F1F6E4E0F3E002C0E6E3F3E0DC
:10366000849190E0AF01F901518340830895EEE128
:10367000F3E0F6CF89E090E04CE453E0611571058A
:1036800091F389E090E045E653E06130710559F32C
:10369000C0CF82E190E045E753E0E5CF8BE390E0D7
:1036A0004AE353E0E0CF80E189BD82E189BD09B4FE
:1036B00000FEFDCF8091D8008F7D8093D80080914F
:1036C000E00082608093E0008091E00081FDFCCF0B
:1036D0000895AF92BF92CF92DF92FF920F931F9304
:1036E000CF93DF936C01EB018A010E94C81CF82E76
:1036F000811123C00115110539F0F80180819181F4
:10370000C81BD90BC80ED91EB12CA12C2097A9F02B
:103710008091E80085FD22C08091E8008E7780933B
:10372000E80001151105A1F0F80180819181A80E32
:10373000B91EB182A08285E0F82E8F2DDF91CF9146
:103740001F910F91FF90DF90CF90BF90AF900895A1
:103750000E94C81C8823D1F2F82EEFCFF601819188
:103760006F018093F1002197FFEFAF1ABF0ACECF10
:10377000FC018091C7029091C80286179707A0F0BC
:103780006115710529F49091E8009E779093E80007
:1037900090E06115710551F4911108C08091E80025
:1037A00082FF34C080E00895BC01F2CF8091C00256
:1037B0008823C1F18530C1F18091E80083FD30C0DC
:1037C0008091E80082FDEACF8091E80080FFE1CFA0
:1037D0008091F3002091F200382F6115710519F0E6
:1037E0002830310558F091E02830310509F090E09B
:1037F0002091E8002E772093E800CBCF8191809331
:10380000F100615071092F5F3F4FE7CF8091C002F7
:10381000882341F0853041F08091E80083FFBECFDE
:1038200081E0089582E0089583E00895FC0180918D
:10383000C7029091C80286179707A0F0611571051D
:1038400029F48091E8008E778093E80090E061157C
:10385000710551F4911108C08091E80082FF35C0D4
:1038600080E00895BC01F2CF8091C0028823C9F1A5
:103870008530C9F18091E80083FD31C08091E80076
:1038800082FDEACF8091E80080FFE1CF8091F300D4
:103890002091F200382F6115710519F0283031059B
:1038A00058F091E02830310509F090E08091E8006F
:1038B0008E778093E800CBCF84918093F10031968E
:1038C000615071092F5F3F4FE6CF8091C00288237E
:1038D00041F0853041F08091E80083FFBDCF81E069
:1038E000089582E0089583E00895982F973028F096
:1038F0008F708093E90081E008959093E900242F70
:10390000762F50E0981731F07091EC002091ED0087
:103910005091F00021FD02C09F5FE8CF3091EB0095
:103920003E7F3093EB003091ED003D7F3093ED0012
:103930003091EB0031603093EB007093EC002093FA
:10394000ED005093F0002091EE0027FDE5CF80E0E0
:1039500008958091C10287FF13C08091E80082FF23
:1039600006C08091E8008B778093E80004C08091C6
:10397000C0028111F2CF08958091C0028823D9F34B
:103980008091E80080FFF8CF8091E8008E77ECCF3F
:103990002091E4003091E50095E6A9012091EC002A
:1039A000822F817020FF06C08091E80080FF06C052
:1039B00080E008952091E80022FD1AC08091C002A5
:1039C000882389F0853089F08091EB0085FD0FC058
:1039D0002091E4003091E50042175307F9F291502D
:1039E000E1F684E0089582E0089583E0089581E09F
:1039F00008950E94681D0E94701DE0EEF0E0808135
:103A000081608083E8EDF0E080818F77808319BC4E
:103A1000A7EDB0E08C918E7F8C9380818F7E808328
:103A20001092BF0208950F931F93CF93DF930E94CC
:103A3000681D0E94701DC8EDD0E088818F77888353
:103A400088818068888388818F7D888319BC1092E3
:103A5000C0021092BC021092BE021092BD0200EE93
:103A600010E0F80180818B7F80838881816088836A
:103A700042E060E080E00E94751CE1EEF0E08081B1
:103A80008E7F8083E2EEF0E08081816080838081A0
:103A900088608083F80180818E7F80838881806147
:103AA0008883DF91CF911F910F910895E8EDF0E0A9
:103AB00080818F7E8083E7EDF0E08081816080836C
:103AC00084E082BF81E08093BF020E94131D0895AD
:103AD000E8EDF0E080818E7F80831092E20008950F
:103AE0001092DA001092E10008951F920F920FB623
:103AF0000F9211242F933F934F935F936F937F9374
:103B00008F939F93AF93BF93EF93FF938091E100C7
:103B100082FF0BC08091E20082FF07C08091E1002C
:103B20008B7F8093E1000E94D41F8091DA0080FF98
:103B300019C08091D80080FF15C08091DA008E7F77
:103B40008093DA008091D90080FF96C080E189BD22
:103B500082E189BD09B400FEFDCF81E08093C002FF
:103B60000E94B2198091E10080FF19C08091E200AB
:103B700080FF15C08091E2008E7F8093E2008091EB
:103B8000E20080618093E2008091D800806280939F
:103B9000D80019BC85E08093C0020E94C9198091A9
:103BA000E10084FF2BC08091E20084FF27C080E108
:103BB00089BD82E189BD89B5982F917080FFFBCFC7
:103BC0008091D8008F7D8093D8008091E1008F7E16
:103BD0008093E1008091E2008F7E8093E2008091EB
:103BE000E20081608093E2008091BC02882309F4A6
:103BF00049C084E08093C0020E94D2198091E10004
:103C000083FF29C08091E20083FF25C08091E100FD
:103C1000877F8093E10082E08093C0021092BC0213
:103C20008091E1008E7F8093E1008091E2008E7FA1
:103C30008093E2008091E20080618093E20042E0A4
:103C400060E080E00E94751C8091F00088608093A5
:103C5000F0000E94C319FF91EF91BF91AF919F9126
:103C60008F917F916F915F914F913F912F910F9025
:103C70000FBE0F901F90189519BC1092C0020E94A1
:103C8000C01970CF8091E30087FD93E09093C0024C
:103C9000B3CF1F920F920FB60F9211242F933F9321
:103CA0004F935F936F937F938F939F93AF93BF9344
:103CB000CF93DF93EF93FF93D091E900DF70809172
:103CC000EC00C82FC17080FDC0E81092E90080911F
:103CD000F000877F8093F00078940E948D1E1092F0
:103CE000E9008091F00088608093F000CD2BCF70C8
:103CF000C093E900FF91EF91DF91CF91BF91AF9118
:103D00009F918F917F916F915F914F913F912F91F3
:103D10000F900FBE0F901F901895AAE2B0E0E3E954
:103D2000FEE10C94192081EC92E02091F100FC015D
:103D30002193CF01F2E0893C9F07B9F70E94F21965
:103D40008091E80083FF1EC18091C1029091C20260
:103D50009A3008F017C1E92FF0E0EC50FF4D0C94B9
:103D60000420803899F0823809F00CC18091C50296
:103D70008F70873008F006C18093E9008091EB00D6
:103D800085FB882780F91092E90006C08091BD026A
:103D90009091BE02911182609091E800977F90937C
:103DA000E8008093F1001092F1008091E8008E7796
:103DB000E5C0882309F4D3C0823009F0E3C08091C4
:103DC000C3028111D6C08091C5028F702FEF280FDA
:103DD000263008F0D7C08093E9002091EB0020FF47
:103DE000C8C0933031F48091EB0080628093EB0087
:103DF000C0C09091EB0090619093EB0021E030E027
:103E000001C0220F8A95EAF72093EA001092EA0097
:103E10008091EB008860EACF8111B4C01091C30299
:103E20001F778091E3008078812B8093E30080915D
:103E3000E800877F8093E8000E94A91C8091E80039
:103E400080FFFCCF8091E30080688093E30082E0F4
:103E5000111183E08093C00295C08058823008F031
:103E600091C08091C3029091C4028C3D23E09207DF
:103E7000A1F583E08A838AE289834FB7F894DE0153
:103E8000139620E03EE051E2E32FF0E0509357001C
:103E9000E49120FF03C0E295EF703F5FEF708E2F3B
:103EA00090E0EA30C0F0C7968D939D932F5F243148
:103EB00059F74FBF8091E800877F8093E8006AE25E
:103EC00070E0CE0101960E94B81B8091E8008B77CC
:103ED0008093E80057C0C096E7CF6091C50270910B
:103EE000C602AE014F5F5F4F0E94F31ABC01892BDF
:103EF00009F448C09091E800977F9093E800898189
:103F00009A810E94161CE1CF8038E1F58091E8008B
:103F1000877F8093E8008091BC028093F10045CFB9
:103F2000811130C09091C302923060F58091E80019
:103F3000877F8093E8009093BC020E94A91C809127
:103F4000BC02882311F084E005C08091E30087FD66
:103F5000FACF81E08093C0020E94DD1913C08091E6
:103F6000C302813079F481E0933009F080E08093DE
:103F7000BE021092E9008091E800877F8093E800FC
:103F80000E94A91C8091E80083FF0AC08091E8008C
:103F9000877F8093E8008091EB0080628093EB0044
:103FA000AA96E3E00C9435200895CF938091C00247
:103FB0008823A1F0C091E900CF709091EC00892F87
:103FC000817090FD80E8C82B1092E9008091E80094
:103FD00083FD0E948D1ECF70C093E900CF9108959C
:103FE00097FB072E16F4009407D077FD09D00E94A6
:103FF000412007FC05D03EF4909581959F4F089590
:10400000709561957F4F0895EE0FFF1F0590F49115
:10401000E02D09942F923F924F925F926F927F9280
:104020008F929F92AF92BF92CF92DF92EF92FF92C8
:104030000F931F93CF93DF93CDB7DEB7CA1BDB0B74
:104040000FB6F894DEBF0FBECDBF09942A88398819
:1040500048885F846E847D848C849B84AA84B98420
:10406000C884DF80EE80FD800C811B81AA81B9812C
:10407000CE0FD11D0FB6F894DEBF0FBECDBFED0140
:104080000895AA1BBB1B51E107C0AA1FBB1FA6179F
:10409000B70710F0A61BB70B881F991F5A95A9F7F1
:1040A00080959095BC01CD010895FB01DC0104C011
:1040B0008D910190801921F441505040C8F7881B20
:1040C000990B0895FB01DC0102C001900D92415053
:1040D0005040D8F70895F999FECF92BD81BDF89A66
:1040E000992780B50895A8E1B0E042E050E00C9433
:1040F000AF20DC01A40FB51F4150504048F0CB0168
:10410000840F951F2E910E948A2041505040D0F775
:104110000895262FF999FECF92BD81BDF89A019797
:1041200000B4021639F01FBA20BD0FB6F894FA9AFF
:10413000F99A0FBE08950396272F0E948A200E94A5
:104140008920252F0E948A20242F0C948A200196F2
:10415000272F0E948A200C948920DC01CB01FC01CE
:10416000F999FECF06C0F2BDE1BDF89A319600B4D0
:104170000D9241505040B8F70895F894FFCF0905CB
:10418000090547054705AB05C70538053805CC05C2
:104190003D064C064C06A0121413A8127212761299
:1041A000AC127A12B012BC1286120D138A12C0120F
:1041B0008E12C412EC129212C812F3129812CE127E
:1041C000D6127E12B4128212B8129C12D212E212CD
:1041D000FC120B136C12A4121B1329162F1618169F
:1041E000231635163B164116B11ED91EC21FD91E05
:0C41F000C21F0C1F2D1FC21F841F901F38
:1041FC0040026002280850011E0A14010000010050
:10420C0055189C1995198E198719E200E900EA00D6
:10421C00B500B600B700CD008301CC008A01920135
:10422C0094012102230224022502260227022A02DB
:10423C00B300B4006F0070009F01CB019F02A0027D
:10424C00818283E200E900EA00B500B600B700CD38
:10425C00008301CC008A01920194012102230224E3
:10426C00022502260227022A02B300B4006F007056
:10427C00009F01CB019F02A00281828395949697A7
:10428C003435366667F7F6F5F4F1F03037909192E5
:00000001FF
