:100000000C944C060C9484060C9484060C94840680
:100010000C9484060C9484060C9484060C94840638
:100020000C9484060C9484060C94F0290C94C42A35
:100030000C9417240C9484060C9484060C94840667
:100040000C9484060C9484060C9484060C94840608
:100050000C9484060C949E240C9484060C948406C0
:100060000C9484060C9484060C9484060C948406E8
:100070000C9484060C9484060C9484060C948406D8
:100080000C9484060C9484060C9484060C948406C8
:100090000C9484060C9484060C9484060C948406B8
:1000A0000C9484060C9484060C94840608000000CA
:1000B000BE922449123EABAAAA2ABECDCCCC4C3E5D
:1000C00000000080BEABAAAAAA3E00000000BF004C
:1000D0000000803F0000000000084178D3BB438748
:1000E000D1133D190E3CC3BD4282AD2B3E68EC825C
:1000F00076BED98FE1A93E4C80EFFFBE01C4FF7FE1
:100100003F00000000004E414E494E495459494EAF
:1001100046CDCCCC3D0AD7233C17B7D13877CC2B72
:10012000329595E6241FB14F0A000020410000C817
:100130004200401C4620BCBE4CCA1B0E5AAEC59D98
:100140007400407A10F35A00A0724E18090010A5EE
:10015000D4E80000E87648170000E40B54020000E1
:10016000CA9A3B000000E1F5050000809698000067
:100170000040420F000000A0860100000010270090
:10018000000000E803000000006400000000000A16
:1001900000000000000100000000002C76D888DC80
:1001A000674F0823DFC1DFAE59E1B1B796E5E3E45D
:1001B00053C63AE651997696E8E6C28426EB898CD6
:1001C0009B62ED407C6FFCEFBC9C9F40F2BAA56F38
:1001D000A5F490055A2AF75C936B6CF9676DC11B07
:1001E000FCE0E40D47FEF520E6B500D0ED902E03CF
:1001F00000943577050080841E080000204E0A0018
:100200000000C80C333333330F986E12831141EF63
:100210008D2114893BE65516CFFEE6DB18D1844BC1
:10022000381BF77C1D901DA4BBE424203284725E31
:10023000228100C9F124ECA1E53D27B4B5009A9BC9
:1002400000BEBF00DEDF00989900B6B700B8B90065
:10025000D8D900949500D6D700D4D5009697009CA5
:100260009D009E9F00C0C1C2C300B0B1B2B3009058
:1002700091929300C4C5C6C700DADBDCDD00BABBCF
:10028000BCBD00A4A5A6A7008485868700A0A1A266
:10029000A30080818283008C8D8E8F00A8A9AAABD9
:1002A0000088898A8B00454E43003F2000CECF0056
:1002B000CCCD00CACB00C8C9004C41594552000002
:1002C000000000000000000000000000000000002E
:1002D000000000000000000000000000000000001E
:1002E000000000808080808080000000000000000E
:1002F000808080808080808080808000000000007E
:1003000000808080800000000000008080808000ED
:10031000008080808080808080808080000000005D
:1003200000808080800000000000000000000000CD
:1003300000000000000000000000000000000000BD
:1003400000000000000000000000000000000000AD
:100350000000000000000000000080E070B8DCCC6D
:10036000B67BFEFBBBDFE7CB7EFE0000000000009B
:10037000FF000000F80808080808F9E1020CF8007E
:1003800000FFFFFFFF000000000000FFFFFFFF0075
:1003900000FFFFFFFFC7C7C7C7C7CFFFFFFE7C0037
:1003A00000FFFFFFFF000000000000000000000051
:1003B000000000000000000000000000000000003D
:1003C000000000000000000000000000000000002D
:1003D0000000000000000000007FBFBCD3DFDFF79B
:1003E000BBBBFC7E7BF7EFDFBE738E00000000001E
:1003F000FF000000E322222262C20138EC870100E4
:10040000001F3F7FFFF8F0F0F0F0F8FF7F3F1F0084
:1004100000FFFFFFFFE3E3E3E3E3F3FFFF7F3E00C3
:1004200000FFFFFFFF0000000000000000000000D0
:1004300000000000000000000000000000000000BC
:1004400000000000000000000000000000000000AC
:10045000000000000000000000000000000000009C
:100460000101010101000000010100000000000085
:100470000101010101000000000101010101000072
:100480000000000000000101010100000000000068
:100490000001010101010101010101010000000051
:1004A0000001010101000000000000000000000048
:1004B00000000000000000000000000000000053E9
:1004C000005400550056005F006000610057005C5A
:1004D000005D005E00007E59005A005B005800007D
:1004E0000062006342000006003800027E2D0024F6
:1004F0000025002600017E21002200230001001EAD
:10050000001F0020002E000000270037000000011F
:10051000001100160015000100010001000100019A
:1005200000010001000100010001000100010000C4
:1005300000010001000000010001000100010001B4
:10054000000100010001000100007C010001000128
:100550000001000100010000000100010000000096
:10056000AE00AF00DA0281FFD9F1DB20A4A62EAFE6
:1005700000A0C0D30000A1C8D30000AED580A81F42
:10058000408D1420000000000000003E5B4F5B3EE9
:10059000003E6B4F6B3E001C3E7C3E1C00183C7EB8
:1005A000BC18001C577D571C001C5E7F5E1C0000A1
:1005B000183C180000FFE7C3E7FF000018241800EC
:1005C00000FFE7DBE7FF0030483A060E00262979F6
:1005D000292600407F05050700407F05253F005A7A
:1005E0003C663C5A007F3E1C1C0800081C1C3E7FD9
:1005F0000014227F2214005F5F005F5F0006097F06
:10060000017F00006689956A006060606060009408
:10061000A2FFA2940008047E04080010207E20108F
:100620000008082A1C0800081C2A0808001E1010D0
:100630001010000C1E0C1E0C0030383E3830000626
:100640000E3E0E060000000000000000005E0000EC
:1006500000000600060000143E143E1400242A7F09
:100660002A1200261608343200364A56205000005E
:100670000A06000000003C420000000000423C006E
:100680000014083E08140008083E08080000A06096
:100690000000000808080808000000606000002052
:1006A00010080402003E4141413E0000427F4000EC
:1006B00000724949494600214145453B0038262101
:1006C0007F20002F49494931003E49494931000105
:1006D00001611907003649494936004E5151513ED2
:1006E0000000001400000000403400000000081466
:1006F0002200001414141414000000221408000036
:1007000004520A04003E415D594E007E0909097EEB
:10071000007F49494936003E41414122007F414125
:10072000413E007F49494941007F09090901003ED6
:100730004149493A007F0808087F0000007F000017
:10074000002041413F00007F08142241007F4040CB
:100750004040007F0204027F007F0204087F003EC9
:100760004141413E007F09090906003E4151215E99
:10077000007F091929460026494949320001017FB5
:100780000101003F4040403F001F2040201F003F2C
:100790004038403F006314081463000708700807DE
:1007A00000615149454300007F41410000020408B7
:1007B000102000000041417F0004020102040040BB
:1007C00040404040000000060A0000205454547885
:1007D000007E484848300030484848480030484883
:1007E000487E0038545454580000087C0A00009891
:1007F000A4A4A478007E080808700000007A000015
:10080000002040403A00007E102844000000007E96
:100810004000007C04780478007C040404780038EC
:100820004444443800FC242424180018242424FCC4
:10083000007C080404080048545454240000047E3A
:100840004400003C4040207C001C2040201C003C18
:100850004030403C004428102844005CA0A0A07C0C
:10086000004464544C44000008364100000000FF7E
:100870000000000041360800000201020402003CB2
:100880002623263C007EFF81FBF7EF81FFC1BFBF1F
:10089000BFC1FF81FBF7FB81FF7E0000007EFFC32D
:1008A000BDBDBDDBFF83EDEDED83FF81EDEDEDF330
:1008B000FF7E0000007EFFE1DFBFDFE1FFC3BDBDC3
:1008C000BDC3FF81BFBFBFBFFF7E0000007EFF81B1
:1008D000B5B5B5CBFF81EDCDADB3FFFDFD81FDFD20
:1008E000FF7E0000007EFFC3BDBDBDDBFF83EDEDDD
:1008F000ED83FF81BFBFBFBFFF7E0000000000008F
:1009000008083E0808000000000000000808080869
:10091000080000000000003E6F5F637B7B3E00002C
:100920000000003E7F596F777B3E00000000000012
:1009300014083E08140000000000000008082A08FF
:10094000080000000000007E0408107E003E4040C9
:10095000403E007E0408047E000000000000003CD1
:1009600042424224007C1212127C007E1212120CAF
:1009700000000000007EFF81FBE7FB81FF81B5B531
:10098000B5BDFF81BDBDBDC3FF7E0000007EFF8100
:10099000B5B5B5CBFF81EFF7EB9DFF81BFBFBFBF03
:1009A000FF7E0000007EFF81EDEDEDF3FF83EDEDB6
:1009B000ED83FF81BDBDBDC3FF7E00000000003E92
:1009C000776F777B773E0000000000000810080476
:1009D000080000000000003E77775577773E000062
:1009E000007EFFB3ADADADDBFFC3BDBDBDDBFF81A1
:1009F000EDCDADB3FF7E00000000000010201C0410
:100A0000040000000000003C42424224007C12121C
:100A1000127C007E40404040000000000000007E4C
:100A20001212120C007C1212127C007E4242423CD6
:100A300000000000007EFFC3BDBDBDC3FF7E0000FF
:100A4000007EFFFFBB81BFFFFF7E0000007EFF9B9B
:100A5000ADADADB3FF7E0000007EFFDDBDB5B5C915
:100A6000FF7E0000007EFFE7EBED81FFFF7E0000D0
:100A7000007EFFD1B5B5B5CDFF7E00000000003E81
:100A800077774177773E00000000003E77777777F1
:100A9000773E00000000003E6B7741776B3E000020
:100AA0000000004C52525224003C42424224007E3C
:100AB0001232524C00000000000000000026100816
:100AC000040000000000000000000000002A2B28A5
:100AD0000000000000000000000000000000000016
:100AE00029000000002C1E34202122243426272532
:100AF0002E362D3738271E1F20212223242526336A
:100B000033362E37381F0405060708090A0B0C0D6B
:100B10000E0F101112131415161718191A1B1C1D7D
:100B20002F3130232D350405060708090A0B0C0D5B
:100B30000E0F101112131415161718191A1B1C1D5D
:100B40002F3130354C000000000000000000000094
:100B50000000000000000000000000000000000095
:100B60000000000000000000007E0F00D4FFFFFF27
:100B7000C7000000780A0352007500620069000097
:100B800000120367007200650067006F0072006961
:100B9000006F0000000403090409023B0002010089
:100BA000A0FA09040000010301010009211101005C
:100BB0000122440007058103080001090401000126
:100BC00003000000092111010001226D00070582C8
:100BD00003200001120100020000000852474252A7
:100BE00001000102000105010980A101850319012D
:100BF0002AB700150126B700950175108100C005C0
:100C00000C0901A101850419012AA002150126A0E1
:100C100002950175108100C005010906A101850634
:100C2000050719E029E715002501950875018102DE
:100C30000507190029EF1500250195F075018102BE
:100C4000050819012905950575019102950175039E
:100C50009101C005010906A101050719E029E71561
:100C6000002501950875018102950175088101052E
:100C700007190029FF150026FF0095067508810059
:100C80000508190129051500250195057501910231
:100C9000950175039101C00011241FBECFEFDAE06A
:100CA000DEBFCDBF04B603FE18C0809172059091DF
:100CB0007305A0917405B09175058730904BA740DE
:100CC000B04B59F41092720510927305109274058E
:100CD00010927505E0E0F8E3099511E0A0E0B1E0BD
:100CE000EEE9F9E602C005900D92A23EB107D9F7F0
:100CF00025E0A2EEB1E001C01D92A237B207E1F7F4
:100D00000E941B1C0C948E340C9400000E94930CC7
:100D100008950E94511F60E08F500E94DF1C60E028
:100D200089EB92E00E94DC1D80914D0290914E0271
:100D30000E94660D813081F0882341F0823081F07D
:100D4000833091F060E08AEA92E003C060E086EBD5
:100D500092E00E94DC1D089560E083EB92E0F9CF01
:100D600060E080EB92E0F5CF60E08DEA92E0F1CFB9
:100D70000E94511F60E087500E94DF1C60E086EAFD
:100D800092E00E94DC1D80911F0260E0813039F00A
:100D9000823041F081EA92E00E94DC1D08958CE9E6
:100DA00092E0FACF87E992E0F7CFCF930E94A92291
:100DB000C82F0E94511F63E08C500E94DF1C8DE8F9
:100DC00092E0C0FF02C082E992E060E00E94DC1D78
:100DD00083E892E0C1FF02C088E892E060E00E94F0
:100DE000DC1D89E792E0C2FF02C08EE792E060E07E
:100DF0000E94DC1DCF91089580913A0260E081301D
:100E000091F480E00E94DF1C60E084E792E00E94A1
:100E1000DC1D61E080E00E94DF1C60E08FE692E074
:100E20000E94DC1D089580E00E94DF1C60E08AE6DD
:100E300092E00E94DC1D61E080E00E94DF1C60E027
:100E400085E692E0EDCF80913A02813009F095C0BD
:100E500080914D0290914E020E94660D813009F002
:100E60008DC00E94511F60E088500E94DF1C80915D
:100E700002018F3209F447C0A0F48B32E1F08D32C9
:100E800079F18A32A1F460E082E692E00E94DC1DF2
:100E900060E080E592E00E94DC1D60E08CE592E07D
:100EA0002CC08E36C9F118F082578230A8F160E06C
:100EB00082E692E02BC060E082E692E00E94DC1DB8
:100EC00060E08FE592E00E94DC1D60E08CE592E03E
:100ED0000E94DC1D60E089E592E00E94DC1D1FC0DD
:100EE00060E082E692E00E94DC1D60E08FE592E027
:100EF0000E94DC1D60E086E592E00E94DC1D60E05F
:100F000083E592E0EACF60E08DE492E00E94DC1D90
:100F100060E08FE592E0BFCF82E00E94EB1180910C
:100F20000101813009F076C00E94511F2DE232E0AC
:100F3000F90101900020E9F79F012E5232408250C2
:100F400063E0821B0E94DF1C60E0809102010E942E
:100F5000151D0E94511F2DE232E0F9010190002081
:100F6000E9F79F012E52324063E0821B0E94DF1C92
:100F700060E08DE292E00E94C11D089580914D02D3
:100F800090914E020E94660D823049F60E94511FD8
:100F900060E086500E94DF1C809102018F32D1F008
:100FA00050F48A3220F08C32A8F08D3299F060E053
:100FB0008AE492E009C08237F9F0833779F08E36FF
:100FC000B1F760E08BE392E00E94DC1D60E081E419
:100FD00092E00CC082E00E94FB11A1CF60E08AE4A5
:100FE00092E00E94DC1D60E087E492E00E94DC1D3C
:100FF00060E084E492E071CF60E08AE492E00E94D5
:10100000DC1D60E081E492E00E94DC1D60E08EE384
:1010100092E063CF823009F09CCF0E94511F20E202
:1010200032E0F90101900020E9F79F01215232409E
:1010300062E0821B0E94DF1C60E080E292E00E947E
:10104000C11D87CF8091E4018823E9F080913A02A5
:10105000811109C00E94FC060E9489060E94B80600
:101060000E94D5060895813029F40E94FC060E9452
:10107000230708958230D1F40E944E1F8823B1F0D7
:101080000E94331F089560E072E08FEB92E00E94AF
:10109000EE1D8091E5019091E6010E948F2421E0F0
:1010A000893B9B4008F420E02093E40108950E94CE
:1010B000591F882369F18091E7019091E8010E940E
:1010C0008F24829750F00E947E1C0E947724909378
:1010D000E8018093E7010E94220880914D029091DF
:1010E0004E020E94660D813021F481E080933A0225
:1010F0000FC080914D0290914E020E94660D823089
:1011000049F481E00E94D7118111EFCF10923A0289
:1011100080E0089580914D0290914E020E94660DEC
:101120008330A1F782E0E2CFCF93C82F0E947724CB
:101130009093E6018093E5010E9477249093E80163
:101140008093E7018C2FCF91089590911F028823FF
:1011500041F082E0992311F08FEF890F80931F02F5
:101160000895892F90E0019663E070E00E94B82F07
:10117000F5CF80913A02813031F482E00E94EB1188
:1011800090E080E0089580911F02813029F0823044
:1011900031F089EA90E008958BEA90E008958DEBB4
:1011A00090E0089580913A02813031F482E00E940B
:1011B000FB1190E080E0089580911F02813029F0BA
:1011C000823031F08AEA90E008958CEA90E0089548
:1011D0008EEB90E0089580914D0290914E020E9416
:1011E000660D813069F480913A02813019F483E010
:1011F0000E94EB1181E00E94FB1190E080E00895D5
:1012000080914D0290914E020E94660D823069F4E9
:1012100080913A02813039F40E94FB1183E00E94F0
:10122000EB1182E0E8CF81E0FACF80914D029091FE
:101230004E020E94660D833031F480913A02823072
:10124000E1F683E0D8CF80911F02813019F48EEA55
:1012500090E0089588EA90E00895CF93809101018D
:10126000C0910001823009F04EC080911E02813091
:1012700021F08091E9018823D1F161E172E08AEEE9
:1012800091E00E94A5318091110290910402892B76
:1012900041F1EAEEF1E001900020E9F78EE88C0FD1
:1012A0003197823018F0CE3609F0C08311829091C8
:1012B000E9019923B1F08230A0F0CE3691F0EAEE48
:1012C000F1E001900020E9F747EF51E04E1B5F0B82
:1012D00064E072E08AEE91E00E94AC3180E280939B
:1012E00000016AEE71E080E292E00E94A5318091F7
:1012F00000018093020167EF71E08DE292E00E94AD
:10130000A531CF910895813091F78091E90188232B
:1013100071F38EE88C0F823050F3CE3641F380E2C9
:1013200080930001E4CFCF92DF92EF92FF920F9370
:101330001F93809100018D3209F47BC008F044C0F6
:101340008A3209F48BC08B3209F45CC0C12CD12CD9
:101350007601C701B6010E94222E0E94D82C0E945D
:10136000612D2BE0261B283008F027E007EF11E065
:101370004CE0C701B6010E940930D8010D90002051
:10138000E9F7CD01885F914020E0422F50E04817F7
:10139000590708F48EC02DE08150821708F092C0E2
:1013A00087EF91E0DC010D900020E9F7CD01885F27
:1013B000914020E0622F70E06817790708F48EC032
:1013C00040E0E7EFF1E09CC0823709F465C0833765
:1013D00009F459C08F3209F0B9CF70E060E081E1C3
:1013E00092E00E9427306B017C0170E060E084E0B5
:1013F00092E00E9427309B01AC01C701B6010E9418
:10140000EF2C14C070E060E081E192E00E94273090
:101410006B017C0170E060E084E092E00E94273084
:101420009B01AC01C701B6010E946C2C6B017C01D1
:1014300090CF70E060E081E192E00E9427306B0184
:101440007C0170E060E084E092E00E9427309B0124
:10145000AC01C701B6010E946B2CE8CF70E060E0E0
:1014600081E192E00E9427306B017C0170E060E036
:1014700084E092E00E9427309B01AC01C701B601D5
:101480000E947A2ED3CF70E060E081E192E00E946A
:1014900027300E94ED2ECACF70E060E081E192E03B
:1014A0000E9427309B01AC0160E070E080E89FE380
:1014B000A6CF49505E4FFA0130813E3209F46CCF1D
:1014C0002F5F63CFE82FF0E0E950FE4F908190331B
:1014D00019F09E3209F064CF10825ECFFB01E95013
:1014E000FE4F3081303209F06BCF2F5F63CF295030
:1014F0003E4FD901A60FB71F8C91D9018C934F5F36
:10150000DF010D900020E9F7CD01885F9140861B37
:10151000970B242F30E02817390748F389509E4F46
:10152000FC0110820E942D0967EF71E081E192E0D9
:101530000E94A531109204021F910F91FF90EF902D
:10154000DF90CF900895CF93C82F90911E0264E052
:1015500072E0913011F061E172E0FB010190002036
:10156000E9F73197E61BF70B8E2F20ED2C0F2A3071
:1015700010F0CE32F9F49091E9019923B9F010926C
:10158000E90110921E02109211021092040280E0F2
:1015900061E172E0FB01E80FF11DC083118287EF6A
:1015A00091E00E94A5310E942D0902C08C3091F774
:1015B000CF910895C83729F4E60FF71F31971082AD
:1015C000EECFC33669F4DB011C9210921102109227
:1015D000040280E28093000181E08093E901DFCF83
:1015E000CE3611F5EE2321F3DB019C919D3269F497
:1015F000FB0191E0961B21812193292F2E0F821749
:10160000D0F78EE680930001CACFEC30D1F331964B
:10161000E60FF71F90E0229121839F5F8917D8F78B
:101620008DE2FB018083EDCF8C2F8D7F8D3221F0F9
:1016300086ED8C0F8230E8F4911106C0C093000152
:1016400081E080931E02AFCF8091E901882339F0B9
:10165000C09300011092E90110920402A4CF80917E
:10166000040281110E94930910920402C0930001A8
:101670009ACFCD3341F4913009F09ACF9093E9019C
:101680000E94930995CF8EE88C0F823008F090CF9E
:10169000913051F48091E901811106C064E072E05B
:1016A00081E192E00E94A53181E080931E021092B8
:1016B0000402C09300018093E901E2CFFB018A3369
:1016C000910578F48B329105A9F02581211102C092
:1016D00080E008958B5E9E4FFC0180810E94A30AEA
:1016E000F7CF81302EE7920719F140F481152EE7EC
:1016F0009207A1F0BF010E948606089582302EE76E
:101700009207D9F083302EE79207A1F785818823CD
:10171000F9F28DE292E00E942421DACF85818823BC
:10172000B9F20E94EB08009799F20E94820CD0CF88
:101730008581882369F28BE2D1CF8581882341F2AC
:101740008AE2CCCFCF93C82F0E948B0D882319F04B
:10175000C0FF04C0469A81E0CF9108954698FBCF20
:10176000CF93C62F811110C080914D0290914E02EF
:101770000E94660D81110EC0CC2349F00E94B90869
:10178000009711F00E94820C81E0CF9108950E9491
:10179000D208F6CF80913A02CC2351F0813019F46F
:1017A0000E94B908F1CF8111EFCF0E94A508ECCFBC
:1017B000813019F40E94D208E7CF8111E5CF81E092
:1017C000F4CF8430C0F46530B0F44430A0F4E62F98
:1017D000F0E095E0899FE00DF11D1124EE0FFF1F51
:1017E000EE0FFF1FE40FF11DEE0FFF1FE154FB4F43
:1017F00085919491089581E090E008950E94E10B15
:1018000008959C013A9521153F4150F5FC01EE27C2
:10181000F170BC0166277270AC01442754709C01C2
:101820002227387094FF0EC080E1EF2B09F480E08E
:10183000672B09F08062452B09F08064232B89F027
:101840008068089581E0EF2B09F480E0672B09F0B0
:101850008260452B09F08460232B19F0886008957D
:1018600080E00895CF93DF93EB010E94010CFE010D
:101870000995DF91CF910895CF93DF93EC01805EBE
:101880009109089720F066E271E1209711F46DEE5E
:101890007EE0CE010E94320C8C2F0E94F20DDF916F
:1018A000CF910895CF93DF93EC010E947B0ECE0180
:1018B000805E9109089720F06DE271E1209711F4A4
:1018C00064EF7EE0CE010E94320CDF91CF9108954B
:1018D0000F931F93CF93DF938C01EB010E943C0C7D
:1018E000209741F4C8010E94520CDF91CF911F91C3
:1018F0000F9108958FE99FE00197F1F700C0000074
:101900002197EECF70E060E08933910511F460E536
:1019100070E00E94680C089581E008950E948C0C8C
:10192000089581E008950E948C0C089508950E9406
:10193000960C0895A6E0B0E0E0EAFCE00C94E12FFC
:1019400049835A839E833091400289819A81311163
:101950001AC03E81332399F0222389F00E94B012ED
:10196000182F682F89819A810E948D1269817A814E
:10197000812F0E94B2192696E3E00C94FD2F0E945D
:101980009E12182FF3CF0E94B01269817A81F1CF95
:10199000FC01262F40815181628173818481958170
:1019A0000E949A0C0895CF93DF93EC0161E00E94AE
:1019B000C80CBE010E948E0CDF91CF910895CF9389
:1019C000DF93EC0160E00E94C80CBE010E94970CFE
:1019D000DF91CF91089508950E9446110E94EB0C6B
:1019E0002FEF84E39CE0215080409040E1F700C05D
:1019F000000008950E94EC0C0E94C22408950E94E9
:101A0000EC0C0E94E62408950F931F93CF93DF936D
:101A10008C0161E00E94C80CEC01B8010E945E0BD1
:101A2000811106C080E0DF91CF911F910F91089541
:101A3000B801CE010E9453228823A1F3B801CE0140
:101A40000E94851F882371F3B801CE010E94C52131
:101A5000882341F3F8018581882361F0C330FCE7D6
:101A6000DF07E9F058F4C115ECE7DE07A9F0C13053
:101A7000DC47B9F0C8010E94910CD5CFCB358CE77B
:101A8000D807A9F0CC35ECE7DE0771F0CA35DC47A2
:101A900089F70E94E616EECF0E94FA0CC3CF0E948F
:101AA000EE160E94FF0CBECF0E94DC16E3CF0E9410
:101AB000EA16E0CF0E94F4230E94970D0E94331F84
:101AC00008950E949B0D0E94F9230895292F332722
:101AD00040E02115310511F0C90148E09C0164E0A6
:101AE000369527956A95E1F72115310511F04C5F80
:101AF000C9019C0136952795369527952115310505
:101B000011F04E5FC90196958795892B09F04F5FBB
:101B1000842F0895089581E008950895CF93C82FE4
:101B20000E948A0D8C2F0E94A20BCF91089580E015
:101B30000E948E0D08950E949C220E948E0D089591
:101B4000CF930E949C22C82F80913B028C1779F082
:101B5000C0933B020E94832460933C0270933D0239
:101B600080933E0290933F028C2F0E948E0DCF9166
:101B70000895ADE0B0E0EFEBFDE00C94E22F488774
:101B800059876A877B878C879D8791110E941416DD
:101B90001F8286E0FE013896DE01119601900D92BB
:101BA0008A95E1F78D8181110DC029813A814B81A0
:101BB0005C816D817E818F810E9447152D96E2E0C8
:101BC0000C94FE2FCE0101960E94D30C8111EDCF13
:101BD000F5CFFC012481213021F4808191810E9484
:101BE000E2120895CF93C82F8823C9F08238C9F430
:101BF0000E94A92281FD13C089E30E94CC150E9496
:101C00004D162FEF87EE93E0215080409040E1F792
:101C100000C0000089E30E94D4150E944D16CF91A8
:101C200008958338A1F40E94A92280FDF8CF83E5AE
:101C30000E94CC150E944D162FEF81EE94E02150AA
:101C400080409040E1F700C0000083E5E4CF843895
:101C5000A1F40E94A92282FDE2CF87E40E94CC1564
:101C60000E944D162FEF81EE94E02150804090406D
:101C7000E1F700C0000087E4CECF8CEF8C0F813AF3
:101C800090F46C2F80910301909104010E94242311
:101C9000882329F08C2F0E94D4150E944D168C2F7A
:101CA0000E94CC15BACF80E28C0F883048F4C77000
:101CB00081E001C0880FCA95EAF70E94F715ADCF01
:101CC000EBE5EC0FE33040F4F0E0EB57FE4F8081A2
:101CD00090E00E94C622A3CFC85ACB3108F09FCF14
:101CE000EC2FF0E0EE0FFF1FE15BFE4F8081918152
:101CF0000E94EB2294CF882309F44DC0823879F4F6
:101D00000E94A92281FF47C089E30E94CC150E944E
:101D10004D1689E30E94D4150E944D16089583380C
:101D200059F40E94A92280FF36C083E50E94CC1599
:101D30000E944D1683E5EECF843859F40E94A92203
:101D400082FF29C087E40E94CC150E944D1687E4CB
:101D5000E1CF9CEF980F913AE8F290E2980F98301B
:101D600050F4877091E001C0990F8A95EAF7892FA6
:101D70000E94FD15D1CF9BE5980F933028F490E099
:101D800080E00E94C6220895885A8B3120F490E0AA
:101D900080E00E94EB2208951F93CF93DF93182FCA
:101DA000EB010E94F20D209739F4812F0E947B0EE7
:101DB000DF91CF911F9108958FE99FE00197F1F78F
:101DC00000C000002197EFCF70E060E0893311F48C
:101DD00060E570E00E94CC0E0895882321F00E94F7
:101DE000F7150E944D160895882321F00E94FD15D5
:101DF0000E944D160895B0E0A0E0E1E0FFE00C94F1
:101E0000DB2F6C01D62FC72FFC01158106810295AF
:101E10000F700E94ED15E82E8823E9F0E12E1123C2
:101E2000D1F08C2F807F803451F080E28D0F88308C
:101E3000F8F0011104C08C2F807E8032C9F08091AF
:101E40004E0382FF15C082E00E94B0160E94ED157D
:101E500091E0E82EE926BC2EB2949FE0B922FBE087
:101E6000FB15B8F1EB2DF0E0E057FB4C0C94CC2FB8
:101E7000E12CF1CF0C2F0F70C07F11F00295007F85
:101E8000112399F0002359F080E28D0F883010F073
:101E9000D11107C0802F0E94F7150E944D168D2F7B
:101EA0005AC0802F0E940716F8CF8D2F0E947B0EFC
:101EB000002379F080E28D0F883010F0D11104C03A
:101EC000802F0E94FD1503C0802F0E940D160E94D6
:101ED0004D16EB2DE850FF0B349720F40E949C2206
:101EE0000E948E0DEE2089F00E94E91580FD0DC044
:101EF000F60115820E94E3150E94EB11C6010E94B3
:101F000003110E94E3150E94FB11CDB7DEB7E9E093
:101F10000C94F72F2C2F2F70F22EC07FC03219F0A7
:101F2000F29480EFF822DD2341F0D130D1F111237A
:101F300009F444C00023F1F0B2CF80914E0382FD3A
:101F400015C0112359F0FF2029F08F2D0E94F7159D
:101F50000E944D1680E00E94F20DBBCF80E00E94EF
:101F60007B0EFF2009F4B5CF8F2DABCF112369F085
:101F7000011104C08F2D0E94ED0EABCF013009F08E
:101F8000A8CF8F2D0E942B16A4CF0111A2CF8F2D89
:101F90000E94F40E8F2D0E9437168F2D0E941B1663
:101FA00098CF112321F0063008F093CFE3CF05300E
:101FB00008F08FCF8F2D0E94F40E8BCF0023D1F32A
:101FC000D93349F43FEF87EE93E0315080409040A1
:101FD000E1F700C000008D2F0E947B0E7ACF8C2F7E
:101FE00086958695837069F0813009F072CF8D2FC8
:101FF0009C2F9370111102C080E090E00E94EB22B0
:1020000068CF8D2F9C2F9370111102C080E090E05B
:102010000E94C6225ECF8C2F8370A1F5111159CF7B
:102020004D2F429546954770440F440F2D2F2F702A
:1020300030E0042E02C0220F331F0A94E2F790E032
:1020400080E0D4FF09C08FE090E002C0880F991FA4
:102050004A95E2F780959095C695C695C370822BF8
:10206000932BC23049F058F4C13019F00E949F11EF
:1020700030CF0E9496112DCF0E94A8112ACF0E9426
:10208000931127CF8695112311F08C2F817088230F
:1020900009F41FCF4D2F429546954770440F440FCA
:1020A0002D2F2F7030E0042E02C0220F331F0A9410
:1020B000E2F790E080E0D4FF09C08FE090E002C03A
:1020C000880F991F4A95E2F780959095C695C69519
:1020D000C370822B932BC23049F058F4C13019F0F1
:1020E0000E942612F6CE0E941D12F3CE0E942F12DD
:1020F000F0CE0E94B711EDCECF70112329F08C2FB6
:102100000E94EB118D2F37CF8D2F0E94F40E8C2F54
:102110000E94FB11DECED23F41F160F4D03FB9F016
:10212000D13F81F0112309F446C00111B8CE8C2FA4
:102130008F711FC0D33F01F1D43FA1F780914E03AF
:1021400082FD24C08C2F8F71112311F312C0112333
:1021500041F0053008F0BDCE8C2F8F710E940D121A
:10216000B8CE063008F0B5CEF7CF8C2F8F71111195
:10217000CFCF0E94EB11ADCE112329F08C2F8F71A0
:102180000E94DF11A6CE0E94BE11A3CE112349F0FA
:10219000CF718C2F0E94EB1163E08C2F0E9492165E
:1021A00098CE81E00E94B016023008F492CE82E010
:1021B0000E94B0168ECE002359F0D93309F00BCF10
:1021C000EFEFF7EE23E0E150F0402040E1F701CFE0
:1021D0008C2F8F719DCF0F931F93CF93DF93EC01C3
:1021E000688179818D810E94ED128C010E943812E4
:1021F0000E949211B801CE010E94FB0EDF91CF9197
:102200001F910F910895CF93DF93EC018C81882368
:1022100099F0CE010E94040D811111C00E94ED15AC
:10222000882351F08D81882339F080914E0382FFFD
:1022300003C082E00E94B016DF91CF910895CE01D5
:102240000E94EB10CE010E94DF0CF6CF882321F014
:102250000E9407160E944D160895882321F00E94BF
:102260000D160E944D16089590E080E00E94C6224F
:1022700090E080E00E94EB220E9414160E944D160E
:1022800008950E94DC150E94341108950E940416DE
:102290000E944111089592959F70963091F058F4E4
:1022A000925F9F70923058F4803F19F030F4883E6E
:1022B00030F481E008959A5FF4CF843FD1F380E059
:1022C0000895883EB0F3813FD1F7F3CFFC0124811C
:1022D000222339F0808191810E94E2120E944B11E9
:1022E000089580E00895A6E0B0E0E9E7F1E10C94FC
:1022F000E22F2696E2E00C94FE2FA7E0B0E0E3E8A0
:10230000F1E10C94E22F2796E2E00C94FE2F089561
:102310000E94871108950E94881190935002809323
:102320004F02089508950E948B11089520914F0245
:1023300030915002822B932B0E948B110895209193
:102340004F0230915002822393230E948B110895F3
:1023500020914F0230915002822793270E948B11C7
:1023600008950E94871108950E94B11108950E9456
:10237000B41190934E0280934D02089590E080E056
:102380000E94B7110895009729F481E0662371F047
:1023900080E00CC021E030E002C0220F331F6A95BC
:1023A000E2F72823392381E0232B91F30895682F46
:1023B00080914D0290914E020E94C311089521E038
:1023C00030E0A90102C0440F551F8A95E2F7CA0107
:1023D0000E94B711089521E030E002C0220F331FA0
:1023E0008A95E2F780914D0290914E02822B932BB9
:1023F0000E94B711089521E030E002C0220F331F80
:102400008A95E2F72095309580914D0290914E0289
:10241000822393230E94B711089521E030E002C087
:10242000220F331F8A95E2F780914D0290914E0260
:10243000822793270E94B711089520914D02309171
:102440004E02822B932B0E94B711089520914D02CA
:1024500030914E02822393230E94B7110895209158
:102460004D0230914E02822793270E94B7110895A2
:102470000895262F277091E001C0990F2A95EAF759
:1024800023E0769567952A95E1F7660F771F660F2B
:10249000771FFA01E60FF71F50E040E0682F70E069
:1024A0008191DF0111979B01042E02C0369527957B
:1024B0000A94E2F7217021952827292328272C93B5
:1024C0004F5F5F4F4430510559F70895A82FA7700B
:1024D00023E0969587952A95E1F7880F991F880F35
:1024E000991FFB01E80FF91F50E040E080E02191C7
:1024F00030E00A2E02C0369527950A94E2F7217043
:102500003327042E01C0220F0A94EAF7822B4F5F73
:102510005F4F4430510559F70895262F953068F4E0
:10252000843058F434E0939FB0011124680F711D7A
:1025300041E452E0822F0E9439120895953070F4E0
:10254000843060F444E0949F9001112461E472E0CF
:10255000820F932F911D0E946612089580E00895C6
:10256000B0E0A0E0E6EBF2E10C94DB2F7C010091FF
:102570004D0210914E0280914F0290915002082B13
:10258000192BCFE0D0E0CC24C394D12CBC2EC601B3
:102590000C2E02C0880F991F0A94E2F78023912322
:1025A000892B49F4219790F7B12C8B2DCDB7DEB74D
:1025B000E9E00C94F72FB7018C2F0E94BE19019708
:1025C00089F3F3CFCF93DF93EC010E94B012BE01E9
:1025D0000E94BE19DF91CF9108951F93CF93DF938F
:1025E000EB0190914002992339F0CB010E94E21255
:1025F000DF91CF911F910895882369F0CB010E944C
:10260000B012182F682FCE010E948D12BE01812FAB
:102610000E94BE19EDCFCB010E949E12182FF6CF5B
:102620001F93CF93DF93C091510217E08091520224
:102630008C1304C0DF91CF911F910895D0E01C9FAF
:10264000F0011D9FF00D1124ED5AFD4F20813181C5
:10265000428153816481758186810E947D1121961A
:10266000C770E4CF20918B0230918C0240918D0293
:1026700050918E0260918F02709190028091910230
:102680000E947D110895CF93DF9380919102807F06
:1026900009F04DC080919002882309F448C0E09170
:1026A000510250915202C0918C02D0918B026091E4
:1026B0008D0270918E0247E05E17C9F18E2F90E077
:1026C000E49FF0011124ED5AFD4F2481222391F162
:1026D000489FF001499FF00D1124DF01AD5ABD4F15
:1026E00011962C9111972C1325C02C912D1322C0DB
:1026F00015962C91159721111DC012962D913C9184
:10270000261B370B283C3105A8F4809191028F706D
:10271000806180939102E75AFD4F80818F708061C4
:1027200080838BE892E00E9403110E941013DF91D6
:10273000CF910895FC013196E770BECF482F2091CC
:1027400051029091520257E0291302C080E008958F
:1027500030E0529FF001539FF00D1124ED5AFD4FD0
:102760008181681306C08081481303C0858181116F
:10277000EECF2F5F3F4F2770E7CFA4E1B0E0E3EC4F
:10278000F3E10C94D82F8C0186E0F801DE011F964E
:1027900001900D928A95E1F7F8018481E5809BE82C
:1027A000A92E92E0B92E90918F0291111FC088231B
:1027B000D1F0EE20A9F0C8010E946611F82E8823FE
:1027C00079F087E0F801D50101900D928A95E1F743
:1027D000C5010E94E90D0E9443130E9432135FC09D
:1027E000C8010E940311FF24F39459C0C080D18016
:1027F00082809380F090900220918D0230918E0221
:10280000A401421B530BFF2009F4F9C0483C5105B9
:1028100008F0A7C0882309F442C090918C028091EF
:102820009102282F207F09F05CC09D1116C0909165
:102830008B02C91212C0E1104EC08F70806180936C
:1028400091020E9432138BE892E00E940311809162
:102850009102F8018683F12C22C0E1103CC06D2D5D
:102860008C2D0E949E136D2D8C2D0E949E13E82EA0
:102870008111F1CFCF86D88A8F8598890E94E21284
:10288000292F22952F70243078F49F702230A8F0E1
:102890009923B9F0F8019681907F99F4FE2C8F2D41
:1028A0006496ECE00C94F42F2A5F2F70223068F0CD
:1028B000C8010E940311EF2CF1CF992311F0882356
:1028C00069F3805E883050F3F3CF803F38F3815F47
:1028D000833070F7E3CF8091910281608093910201
:1028E000BACF9D1113C090918B02C9120FC0E11095
:1028F0000DC08683C8010E94031187E0F801ABE890
:10290000B2E001900D928A95E1F767CFC8010E946D
:102910006611882309F464CFEE2009F461CF809119
:102920009102803288F020918B0230918C0239879D
:1029300028879B868A8690918F029C871D868E872A
:10294000CE0108960E94031187E0F801ABE8B2E0DF
:1029500001900D928A95E1F70E9443130E94321371
:1029600042CF90919102292F207FA1F4682D9A8A5D
:10297000898AA6017A899E2D0E9473118BE892E0C4
:102980000E94031187E0F50111928A95E9F70E94F0
:10299000321361CF882309F482CF80918C028D118C
:1029A00010C080918B02C8120CC0E1100AC096833F
:1029B000C8010E94031187E0F50111928A95E9F799
:1029C0006ECFC8010E946611882309F409CFEE205A
:1029D00009F406CF80919102803208F4B5CF20919E
:1029E0008B0230918C023A8329839C828B82909156
:1029F0008F029D831E828F83CE010196A3CF483C18
:102A00005105B8F5882309F4EECEFE2CEE2009F42A
:102A1000E7CE80918C028D111EC080918B02C8126E
:102A20001AC08091910280FD0DC0982F907F51F0C7
:102A30008683903F09F45ECF982F907F905F8F70D0
:102A4000892B57CF87E0F801ABE8B2E001900D92F7
:102A50008A95E1F724CFC8010E946611811174CFD5
:102A600080919102816080939102C8010E940311BC
:102A700016CF682D9A8A898AA6017A899E2D0E948E
:102A8000731187E0F50111928A95E9F7A6CEAEE0C1
:102A9000B0E0EDE4F5E10C94E12F288739874A870F
:102AA0005B876C877D878E87CE0108960E94BD1359
:102AB0008823B1F06C85662341F0288539854A85E5
:102AC0005B857D858E850E947D1117E08091510286
:102AD0009091520289133DC02E96E3E00C94FD2F95
:102AE00087E0FE013896DE01119601900D928A95DD
:102AF000E1F78C85882349F32091520230E0C90127
:102B0000019687709927409151024817190699F04C
:102B100097E0929FD001939FB00D1124AD5ABD4F05
:102B2000FE01319601900D929A95E1F78093520241
:102B30000E941013CACF0E944611109252021092A6
:102B4000510287E0EBE8F2E0DF011D928A95E9F798
:102B5000BCCF819FC00111248D5A9D4F0E94BD138F
:102B6000882309F4B9CFE09151021E9FF00111248E
:102B7000ED5AFD4F208131814281538164817581FD
:102B800086810E947D118091510290E001968770AC
:102B90009927809351029ACF682F809103019091D9
:102BA00004010E94A4230895682F8091030190914D
:102BB00004010E94B22308958091030190910401C1
:102BC0000E94C02308958091B202869586958695CD
:102BD00008958091B202877008959091B202977023
:102BE00081E009F480E008958091D60208959091E3
:102BF000D602892B8093D602089580959091D602B3
:102C000098239093D60208951092D6020895909139
:102C1000D502892B8093D502089580959091D50295
:102C200098239093D50208951092D502089508959F
:102C30000E94171608959091B302292F282331F08E
:102C4000809589238093B3020E94181608950895F1
:102C50000E94271608959091B402292F282328173F
:102C600029F0982B9093B4020E9428160895909111
:102C7000B402292F282331F0809589238093B40250
:102C80000E94281608958091B402882329F010929A
:102C9000B40280E00E9428160895CF93DF93E0915C
:102CA0000301F09104018091D6028083E091030139
:102CB000F091040180819091D502892B80839091BD
:102CC000B402992381F0E0910301F0910401808125
:102CD000892B808380910301909104010E9410232D
:102CE00081110E944316C0910301D091040140E27A
:102CF00050E062E972E0CE010E948F31892B59F0D9
:102D000080E2FE01A2E9B2E001900D928A95E1F71E
:102D1000CE010E94AC22DF91CF91089508950E94C8
:102D20008E16089590914E0392FF11C098E0899FEE
:102D300090011124622B6093B2020E94EB118091EA
:102D4000B2028695869586950E948F1608950E94F8
:102D5000EB1108951092B20280E00E948F16089540
:102D60009091B202809589238093B202282F277018
:102D700069F4891759F090914E0392FF07C0869528
:102D8000869586950E94FB110E94AA16089590913F
:102D90004E0392FB222720F9281769F080FB92F955
:102DA00090934E0380914D0390914E030E940F1714
:102DB00082E00E94B016089580914E0382FB88271E
:102DC00080F991E089270E94C716089581E00E944A
:102DD000C716089580E00E94C71608956FEF7FEF31
:102DE00090E080E00E945E34089590E080E00E94D0
:102DF0002A3421E0863E9E4F09F020E0822F08957C
:102E000082E090E00E942234089583E090E00E94E6
:102E10002234089584E090E00E942A340895BC0191
:102E200084E090E00E945E340895AB01BC018FE025
:102E300090E00E9452340895AB01BC0183E190E020
:102E40000E945234089560E070E0CB010E941C178C
:102E5000089560E070E0CB010E9415170E942317CF
:102E60000895A8E0B0E0E7E3F7E10C94E22F66EE06
:102E70007EEF90E080E00E945E3460E082E090E0CF
:102E80000E94403460E083E090E00E944034109261
:102E9000500210924F0260E074E184E090E00E94E2
:102EA0005E3460E086E090E00E9440346FEF87E09F
:102EB00090E00E94403440E050E0BA0188E090E0A9
:102EC0000E94523460E084E290E00E94403460E06E
:102ED00087E190E00E94403460E08CE090E00E9446
:102EE000403460E08DE090E00E94403419821A8204
:102EF0001B821C821D821E821F82188648E050E0C1
:102F000068E170E0CE0101960E94303440E050E06C
:102F1000BA0180E290E00E9452340E94291728965C
:102F2000E2E00C94FE2F0E9431170895682F8EE086
:102F300090E00E9440340895A6E0B0E0E2EAF7E1B4
:102F40000C94E02F0E9477248C018091D7029091FD
:102F5000D8028017910781F019821A820E94772483
:102F6000682F49815A81792F80E090E00E94B90D45
:102F70001093D8020093D7022696E4E00C94FC2F1D
:102F80000E9483246093E6027093E7028093E80234
:102F90009093E9026093E2027093E3028093E4026B
:102FA0009093E50208950E9483246093E602709353
:102FB000E7028093E8029093E9026093DE02709347
:102FC000DF028093E0029093E1020895089508954E
:102FD0000E94E617089508950E94EB17089584EB68
:102FE0009AE10E94281C0E94E7170E94E8170895A2
:102FF00081E008950E94F81708950E94F817089537
:10300000089508950E9400180E94011808950E94D2
:10301000B71A0E948D0D08950E946E240E944321CC
:103020000E947E1B0E94071880E00E94931C0E9451
:10303000EC170895A6E0B0E0E0E2F8E10C94D82F98
:103040000E94FA17C82E81110FC00E949C17C12C34
:103050000E946421882309F45DC00E94D3170E9456
:103060005B1F0E942E1E5AC00E94941B89EDA82E41
:1030700082E0B82E750110E0F70101917F01812FE8
:103080000E94DD1A1F5F153009F441C00817A1F333
:103090008091EA0281FD0E94E31A0E94FD17982E9A
:1030A00010E088248394812F0E94DD1A082FF501F7
:1030B00081915F01081729F1F12CEE24E394D02EC1
:1030C000D8268D2D8E21A9F0992099F0F9821A83A6
:1030D0000E9477249C838B838D8291E0802F8E21A8
:1030E00009F490E049815A816B817C818D810E9435
:1030F000B90DF394EE0CF4E0FF12E3CFF501319734
:1031000000831F5F153079F60E94C017A1CF081306
:10311000BFCF9BCF0E945B1FC110A3CF0E94A00D09
:103120002696ECE00C94F42F1F93CF93DF930E942C
:10313000C319EC01C11580E5D807F0F5C11580E48D
:10314000D80708F09CC0C03ED10520F5CD3CD10584
:1031500008F082C0C83AD10578F4C53AD10508F024
:1031600073C0C130D10519F1209709F1C430D105E0
:10317000F0F4D0E0C0E01BC0C33CD105D0F7C85A82
:10318000D0E0CC0FDD1FC857DE4F0990D881C02D8D
:10319000D4640DC0C11580E2D80708F0D1C0C115B4
:1031A00081E0D80708F05AC0C83ED10510F7CE011B
:1031B000DF91CF911F910895C03682E5D80718F5A9
:1031C000C03482E5D80708F06BC0C03282E5D8076A
:1031D00008F05FC0C11582E5D80708F497C02C2F0E
:1031E0002695269580E2289F900111248C2F8370CC
:1031F000C1E0D0E002C0CC0FDD1F8A95E2F7C22B00
:10320000D32BDD68D4CFC03A82E5D80760F4C0384C
:1032100082E5D80708F459C0CF71D0E0DC2FCC2765
:10322000C46FD06AC4CFC03C82E5D80708F462C03E
:10323000C03E82E5D80708F09CCFDC2FCC27CC27F6
:10324000DF71C06FD06AB3CFC55AD0E0C254DE4F31
:10325000C881D0E0D064ABCFD065A9CF8D2F0E94BC
:10326000651A182FCE0199270E94C319C12FD0E0EB
:10327000DC2FCC27CC27DF71C82BD92B98CFCE01E0
:1032800099270E94C319CC27DF70C82BD92BD06A8D
:103290008ECFCF71D0E0DC2FCC27C16FD06A87CF23
:1032A0002C2F26952695277080E2289F90011124C7
:1032B0008C2F8370C1E0D0E002C0CC0FDD1F8A9557
:1032C000E2F7C22BD32BDC6872CF2C2F26952695E4
:1032D000277080E2289F900111248C2F8370C1E019
:1032E000D0E002C0CC0FDD1F8A95E2F7C22BD32BB2
:1032F000DA685DCF8C2F8F710E94651AC82FD0E0DD
:10330000DC2FCC27CC27DF71D06251CF8C2F8F716F
:103310000E94651A55E0D695C7955A95E1F7CF708A
:10332000D0E0DC2FCC27282F30E084FF05C044E01C
:10333000220F331F4A95E1F7C22BD32BD06937CF29
:103340008D2F8F710E94651A182FCE0199270E9428
:10335000C319C12FD0E0DC2FCC27CC27DF71C82BBD
:10336000D92BD2CF462F753030F4643020F4672F3C
:103370000E94FE0B089590E080E008950E94B2192B
:103380000E949418089582389105B9F1B0F4813300
:10339000910509F47DC048F48932910509F46DC0A6
:1033A0008A32910509F47BC008958533910509F4AB
:1033B0005FC08933910509F10895833E9105D9F1E4
:1033C00038F4803E910529F1823E910579F1089506
:1033D000863E9105D9F1873E910509F43EC0843EB1
:1033E000910541F520914E0321FF24C080914D03AA
:1033F00084FD19C087EE90E0089520914D0323705D
:1034000009F05AC020914E0323FF14C089E290E0D6
:10341000089520914D0320FD38C030914E0330FFB8
:1034200009C024FF43C090E080E0089520914D033F
:1034300022FDF7CF089520914D0322FD3AC030912F
:103440004E0330FD39C024FFF5CFEDCF20914D0361
:1034500023FFF0CF24FDE7CFCDCF20914D0323FDF7
:103460002EC030914E0331FFEECF84EE90E00895F0
:1034700020914D0325FFDECFC9CF20914D0325FDBF
:1034800021C020914E0323FFD5CF89E390E0D2CF16
:1034900020914D0326FFCECF8AE290E0089520913F
:1034A0004D0326FFC7CF81E390E0089583EE90E0BF
:1034B000089582EE90E0089580EE90E0089586EE03
:1034C00090E0089585E390E0089590914D0392FF78
:1034D00010C041E0282F2471243009F040E031E091
:1034E000282F2871283009F030E0431711F02CE024
:1034F000822793FF10C041E0282F2471243109F066
:1035000040E031E0282F2871283109F030E04317DE
:1035100011F02CE0822730914E0330FF10C051E0B3
:10352000282F2171213009F050E041E0282F287127
:10353000283009F040E0541711F029E0822731FFCC
:1035400010C041E0282F2171213109F040E031E025
:10355000282F2871283109F030E0431711F029E0B5
:10356000822794FD877E089580E0089508950E9443
:10357000F516811102C00E9493170E9400178093D4
:10358000EA020E940A1790934E0380934D030E9413
:10359000B61A0E94051790E00E94931180914D0287
:1035A00090914E020E94B411089508950E94D51A78
:1035B000089508950E94D91A0895E82FF0E0EC5A72
:1035C000FC4F80810895089580EA8A95F1F7089567
:1035D00000C008950E94E41A0895F894E82FE29537
:1035E000EF70F0E031A1282F2F7081E090E001C052
:1035F000880F2A95EAF7982F9095932391A392A18B
:10360000892B82A378940895CF93DF93C5ECD1E002
:1036100089918F3F11F00E94ED1A81E0CA3CD807D2
:10362000B9F783E30E94ED1A82E30E94ED1A81E369
:103630000E94ED1A87EF0E94ED1ADF91CF91089555
:10364000B0E0A0E0E6E2FBE10C94DC2FEC01D62E2A
:10365000062F10E0C8018B539E4F7C01FC01808136
:103660008F3F09F444C0F894E82FE295EF70F0E042
:1036700091A18F7021E030E001C0220F8A95EAF716
:10368000892F822B81A382A12095282322A37894BD
:103690000E94E81AE1ECF1E031E0C12C21912F3FCA
:1036A00059F1A22FA295AF70B0E090968C9190E066
:1036B0002F7002C0959587952A95E2F780FD1CC072
:1036C000832FC82A330F81E0E53CF80739F7F7016B
:1036D00080818F3F11F00E94ED1A61E0C11001C09E
:1036E00060E08D2D0E94EA1AC00FD11FC882CDB7AD
:1036F000DEB7E8E00C94F82F80E0E3CF0E94041BD3
:1037000085E0E4E5F3E0DF01982F1D929A95E9F753
:10371000EFE4F3E0DF011D928A95E9F785E00E946E
:10372000CF1B0E94D61A0895A5E0B0E0EAE9FBE1BC
:103730000C94DF2F8E010F5F1F4F85E0F80111926F
:103740008A95E9F7F12C6F2DC8010E94201BF39494
:10375000F5E0FF12F8CF45E050E0B8018FE493E0C8
:103760000E948F3121E0009709F420E0892B41F07D
:1037700085E0F801AFE4B3E001900D928A95E1F79E
:1037800045E064E573E08FE493E00E94D01B182FBE
:103790000E94DA1A812F2596E5E00C94FB2F0895FC
:1037A000CF92DF92EF92FF920F931F93CF936C0112
:1037B0007B01042F222349F081E08093ED020E94D7
:1037C00077249093EC028093EB02C091ED02C1113B
:1037D0000AC0C0E08C2FCF911F910F91FF90EF9006
:1037E000DF90CF9008958091EB029091EC020E94BF
:1037F0008F24059770F310E0A801B601C7010E945D
:103800008F31892B41F0A801B601C7010E949C317C
:103810001092ED02DFCFC0E0FBCF0E9441270E9453
:103820000C180E944E2708950E9453270E941A18D0
:103830000E946D2708950E9410240E9427270E944D
:10384000EF170E940D1C0E94141C0E940218FBCF4F
:103850009093E3018093E2010895AB0124E630E008
:10386000BC0188E70E94912521E0892B09F020E026
:10387000822F0895B0E0A0E0E0E4FCE10C94DC2F9E
:103880006C017B0164E670E088E70E94F7248C01FC
:10389000E601EC0CFD1CCE15DF0561F40E94D92574
:1038A00081E00115110509F080E0CDB7DEB7E8E051
:1038B0000C94F82F17FDF2CFFE01849164E670E0BE
:1038C0000E9463258C012196E6CF0F931F939B01E5
:1038D00004E610E0AC0160E488E70E94B22521E034
:1038E000892B09F020E0822F1F910F9108950E94EB
:1038F000F124089508950E947A1C0895E9E5F3E003
:1039000080E092E0DF019C011D9221503040E1F700
:10391000F0935E05E0935D058FEF9FEF90931A03A0
:10392000809319030895CF930E9494080E947B1CF2
:103930008093150380FD11C080E8809314030E94DA
:10394000771C6BE070E08AE795E00E943A1C8111D9
:1039500006C0C0E08C2FCF91089580E2EECF809119
:10396000150365E070E081FD27C085E795E00E94C2
:103970003A1C882371F36DE070E083E695E00E94C5
:103980003A1CC82F882329F30E948324605A75416A
:103990008F4F9F4F6093590570935A0580935B0535
:1039A00090935C050E947E1C81E0809318038093B5
:1039B000170310921603CECF80E795E0D8CF209161
:1039C000140336E0839FC0011124629F800D911D76
:1039D0001124811522E0920714F090E080E0875ACC
:1039E0009C4F90935E0580935D05089520915D0541
:1039F00030915E052355334040911403642F70E0ED
:103A0000C9010E94A42F481B463010F4240F311D19
:103A1000211582E0380710F030E020E0275A3C4FB3
:103A200030935E0520935D0508951F93CF93DF9338
:103A3000162F8A3039F481E00E948E1DDF91CF91DC
:103A40001F9108958D3011F480E0F6CFC0915D058F
:103A5000D0915E0596E0FE01AEEEB2E001900D92CF
:103A60009A95E1F7803EB8F086E0FE0111928A95C2
:103A7000E9F711111CC0C0915D05D0915E0546E0CB
:103A800050E0BE018EEE92E00E948F31892BE9F466
:103A90000E94F61CD3CFF6E08F9FB00111246B5724
:103AA0007A4F46E050E0CE010E946E31E2CFE091C5
:103AB0005D05F0915E059F012A5F3F4F2E173F077E
:103AC000D1F2808180958193F9CFC955D340CE0141
:103AD00025E0969587952A95E1F721E030E0A90148
:103AE00002C0440F551F8A95E2F7CA01409119039D
:103AF00050911A03842B952B259645E0D695C795B2
:103B00004A95E1F702C0220F331FCA95E2F7822BD4
:103B1000932B90931A0380931903BACFCF93382F26
:103B2000E0915D05F0915E05E955F34020911403A5
:103B3000622F70E0CF010E94A42F281B822F332315
:103B400069F066E00E94982FC82FC15010F4CF9101
:103B5000089560E080E20E94151DF7CF9F01280FB5
:103B6000311D2115324018F080E0F0E0E0E08E0FCA
:103B70009F2F911D875A9C4F90935E0580935D0502
:103B8000E6CFFF920F931F93CF93DF93EC01F62EB6
:103B9000FC0101900020E9F78F0101501109C017C5
:103BA000D10728F0CDB7DEB7E5E00C94FB2F6F2DE1
:103BB00089910E94151DF3CF1F93CF93DF93EC01E2
:103BC000162FFE018491811104C0DF91CF911F91C6
:103BD0000895612F0E94151D2196F3CFCF93DF9397
:103BE00020915D0530915E0529553340A901460FAE
:103BF000571F4130524020F060E072E0621B730BAF
:103C00004091190350911A03FC01C901620F731FFF
:103C1000C1E0D0E08617970738F050931A0340931D
:103C20001903DF91CF9108952491DC01A75ABC4F6D
:103C30003C91321781F02C939C01A5E03695279595
:103C4000AA95E1F7DE0102C0AA0FBB1F2A95E2F791
:103C50009D014A2B532B01963196DCCF809118039E
:103C6000811103C08091170308950E948324605A34
:103C700075418F4F9F4F6093590570935A058093FC
:103C80005B0590935C05809117038111EBCF62E097
:103C900070E081E695E00E943A1C882319F381E0E8
:103CA00080931703DFCFB0E0A0E0E9E5FEE10C94DC
:103CB000D62F8091190390911A03892B09F4B6C06D
:103CC00080911803882309F4B1C0809116038111F3
:103CD000ADC00E942E1E2091190330911A032115A8
:103CE000310509F4A3C090E041E050E0092F10E055
:103CF000EA01092E02C0CC0FDD1F0A94E2F7BE01D3
:103D000062237323672B11F49F5FF0CF809115031B
:103D100080FF91C0990F990F990F9093070110920E
:103D20000A01995F9093080183E080930B0167E09B
:103D300070E085E091E00E942D1C882309F476C094
:103D4000980145E0220F331F4A95E1F78091150352
:103D500080FF83C0E4EFF2E080E2DF011D928A95EC
:103D6000E9F70EEC11E08AECE82E81E0F82E97E0FE
:103D7000992E88248394D801ED918D01D7016D91FE
:103D80007D01620F732F711D675A7C4FF0E0EC507C
:103D9000FD4F50E040E0792C741AA82C042E01C08D
:103DA000AA0C0A94EAF76B0180E0D6019D916D019F
:103DB0009A21A72DA81BA770BA2E0A2E000CBB0BA8
:103DC000692E01C0660CBA94EAF7B62CB195A1959C
:103DD000B109A770BB2701C09695AA95EAF7A62D51
:103DE000A92B90819A2B90838F5F8830F1F64F5FDB
:103DF0005F4F31964830510571F681E0023D18075A
:103E000009F0B9CF60E270E084EF92E00E94651C97
:103E1000882361F0C095D0958091190390911A0381
:103E2000C823D923D0931A03C0931903CDB7DEB7A3
:103E3000EEE00C94F22F9295990F907690930701F3
:103E40009801369527953695279520930A01915E1E
:103E50009093080120930B016ACF60E270E0C901E2
:103E6000875A9C4FD3CF80911703909118039111DB
:103E700003C091E089270895882369F062E070E02B
:103E80008FE595E00E943A1C811103C080911703D1
:103E900008951092170380911703EBCF80911703B9
:103EA00008958091150380FD02C085E1089585E0A5
:103EB000089581E008950F931F938091180388233C
:103EC00009F160E080E00E94DF1C0E9457080E9418
:103ED000531E809117038823A9F00E948324009128
:103EE000590510915A0520915B0530915C05601BC6
:103EF000710B820B930B6F3F7F4F8F4F9F4710F4D7
:103F00000E94331F1F910F910895CF93DF93EC010F
:103F1000FB018581882309F4D2C09E0130572332EA
:103F2000310508F0B2C00E940A1790934E038093A7
:103F30004D03FE01E150F047E232F10520F4E45672
:103F4000FB4C0C94CC2F80914D03816080934D03EA
:103F500093C080914E03886080934E038DC0809102
:103F60004D038260F3CF80914D038460EFCF809149
:103F70004D038860EBCF80914E038160EDCF80913F
:103F80004E038260E9CF80914D038061DFCF809145
:103F90004D038062DBCF80914D038064D7CF0E94B8
:103FA000461180914D038068D1CF80914D038C6084
:103FB000CDCF80914E038360CFCF80914D038E7F14
:103FC000C5CF80914E03877FC7CF80914D038D7FF2
:103FD000BDCF80914D038B7FB9CF80914D03877FFB
:103FE000B5CF80914E038E7FB7CF80914E038D7FEA
:103FF000B3CF80914D038F7EA9CF80914D038F7DEC
:10400000A5CF80914D038F7BA1CF0E944611809157
:104010004D038F779BCF80914D03837F97CF809106
:104020004E038C7F99CF80914D0382FB992790F9A5
:1040300021E0922790FB82F990FB83F987CF809152
:104040004E03982F909591708E7F892B90FB81F96C
:1040500083CF90914D03892F8F7B96FF806476CF1D
:104060000E94461190914D03892F97FB87F9805844
:104070006DCF81E00E94961780914D0390914E0381
:104080000E940F170E94461180E0DF91CF910895A2
:1040900080E0F0CF90914D03892F8F7E94FF806157
:1040A00055CF90914D03892F8E7F90FF81604ECF29
:1040B00090914E03892F877F93FF88604DCF81E0D9
:1040C000E4CFB0E0A0E0E7E6F0E20C94DD2FE82FCB
:1040D000F0E0EB53F54FD490282F269526952695A2
:1040E00030E0F901EB59F44F0491877010E0082E8D
:1040F00002C0159507950A94E2F701701127F9019E
:10410000EB5AF44FE490F12C082E02C0F594E7949A
:104110000A94E2F791E0E922FF24F901EB5BF44F06
:10412000C491D0E002C0D595C7958A95E2F7C170D9
:10413000DD270115110519F081EE0E94F20DE11441
:10414000F10419F086EE0E94F20D8D2D0E94E40E0E
:10415000E114F10419F086EE0E947B0E01151105A1
:1041600019F081EE0E947B0ECD2B19F08CE20E949B
:10417000E40ECDB7DEB7E7E00C94F92FEF92FF9293
:104180000F931F93CF93DF93EC01162F0AE08881E2
:10419000882309F454C0813009F04EC089818130F0
:1041A00099F47E0122E0E20EF11C8A810E94E40E65
:1041B000E7012196812F815050F3EFE9FFE031971D
:1041C000F1F700C00000F7CF823041F47E0182E0B9
:1041D000E80EF11C8A810E94F20DEACF833041F48F
:1041E0007E01E2E0EE0EF11C8A810E947B0EE0CFA0
:1041F000843011F02196DDCF2A81229690E080E074
:10420000AE014F5F5F4F2053330B2A30310548F02A
:10421000019778F2EFE9FFE03197F1F700C0000075
:10422000F7CF089FB001099F700D1124C901860FB7
:10423000971F2981EA01E4CF0E946120BACFCDB750
:10424000DEB7E6E00C94FA2F60E00E94BE200895ED
:104250008FE891E00197F1F700C000000895CF9337
:10426000DF93D62F0E94B00BC82F882341F06AE05D
:1042700070E089EAD11101C08AEA0E94CC0E8C2F2D
:10428000DF91CF91089581E080931C0357985F9A46
:1042900056985E9A0E94282130911C034EE153E00B
:1042A000FA018E2F841B831708F0089589B190E0DE
:1042B000880F892F881F990B4E9904C020E0822B0C
:1042C0008193EFCF22E0FBCFB0E0A0E0EAE6F1E29D
:1042D0000C94DC2FF12CE12C34E0C32ED12C8091F6
:1042E0001C03F81630F08E2DCDB7DEB7E8E00C9445
:1042F000F82F0F2D10E089B190E0880F892F881FCB
:10430000990B4E9940C0E0E08E2BD801A25EBC4FC5
:10431000EC919E2F93709817A1F1EE0FEE0FE82B02
:10432000EC93EF70F0E0EE52FE4FE801C35EDC4F1D
:1043300080819881890F888320E084305CF0F801C7
:10434000E55EFC4F80818F5F808360E08F2D0E944F
:104350002F2121E088818D3F5CF4F801E55EFC4F60
:1043600080818150808361E08F2D0E942F2121E088
:104370008881082E000C990BB6010E94B82F888303
:10438000E22AF394ACCFE2E0BFCFCF93DF93EB010F
:1043900086319C4711F50E94F4159D81992399F06F
:1043A0008A7A91E009F490E090931F03811109C08B
:1043B00089E20E94CC150E944D1680E0DF91CF91DA
:1043C000089585E3F6CF80911F03811104C089E22F
:1043D0000E94D415F0CF85E3FBCF81E0EFCF0F93A0
:1043E0001F93CF93DF93C42FD22FFC0185818823A5
:1043F000C9F0409322030E94772490932103809375
:10440000200380E28C0F883040F4C77081E001C047
:10441000880FCA95EAF70E94ED0EDF91CF911F91A8
:104420000F91089510912203141332C0809120033C
:10443000909121030E948F24883C910548F5C0E2A9
:10444000CD0F1D17B9F080E2810F883040F417704E
:1044500081E001C0880F1A95EAF70E94F40EC83077
:1044600048F481E09D2F977001C0880F9A95EAF774
:104470000E94ED0E802F0E94E40EC83070F6D770B7
:1044800081E001C0880FDA95EAF70E94F40EC5CFEB
:1044900080E28C0F883008F6C77081E001C0880F79
:1044A000CA95EAF7F2CF0F93DB0188519C4787301A
:1044B0009105A0F5FC01E254FB4C0C94CC2F06E2D4
:1044C00021EE41EE6AE17CE7CD010E94EF2180E020
:1044D0000F91089507E225EE45EE6BE17CE7F4CFFE
:1044E00006E221EE40EE68E17CE7EECF07E225EE42
:1044F00044EE69E17CE7E8CF06E221EE42EE6CE1B2
:104500007CE7E2CF07E225EE46EE6DE17CE7DCCF0B
:1045100008E221E045EE6EE17CE7D6CF15968C915E
:10452000882319F010922203D3CF81E0D1CF90934A
:104530002803809327030895E0912703F09128032F
:10454000309729F00190F081E02D0995089580E0E1
:1045500008950E949C220895E0912703F09128037A
:10456000309799F020911401222359F020914D03A6
:1045700027FF07C0DC012C9111962C93119726E0A0
:104580002C930280F381E02D09950895A3E0B0E01B
:10459000ECECF2E20C94E22F2091250330912603FB
:1045A00028173907A1F09093260380932503E09103
:1045B0002703F0912803309751F023E029839B8350
:1045C0008A830680F781E02DCE0101960995239616
:1045D000E2E00C94FE2FA3E0B0E0E1EFF2E20C94F5
:1045E000E22F209123033091240328173907A1F0EB
:1045F0009093240380932303E0912703F0912803F1
:10460000309751F024E029839B838A830680F781C9
:10461000E02DCE01019609952396E2E00C94FE2F41
:10462000FC01329680911401882321F080914D0382
:104630009EE187FF96E080E0915008F40895219173
:104640002223D1F38F5FF8CF662301F1209114016B
:104650002223F1F020914D0327FF1AC0462F4695E3
:10466000469546954E3190F4677021E030E002C0E7
:10467000220F331F6A95E2F7840F911DFC0182819E
:1046800090E02823392381E0232B69F480E008950A
:10469000FC01329608962191261721F0E817F907B8
:1046A000D1F7F4CF81E008959C01FC0132969FEF91
:1046B00080E04191461751F09F3F19F4411101C02C
:1046C000982F8F5F8630A9F79F3F09F40895290F2F
:1046D000311D97FD3A95F90162830895FC013296E8
:1046E00008962191261303C0DF0111971C92E81749
:1046F000F907B9F70895E62FE695E695E695EE31C8
:1047000068F4E80FF92FF11D677021E030E001C077
:10471000220F6A95EAF78281822B82830895E62F21
:10472000E695E695E695EE3170F4E80FF92FF11D68
:10473000677021E030E001C0220F6A95EAF720950A
:10474000828128232283089520911401222339F0A5
:1047500020914D0327FF03C00E947B2308950E94F0
:104760005423089520911401222339F020914D0300
:1047700027FF03C00E948F2308950E946E2308958F
:10478000FC01329680911401882351F080914D03F1
:1047900087FF06C08EE1DF011D928A95E9F7089533
:1047A00086E0F9CF08950E94D2230895811106C0B2
:1047B00081E0809329030E94D323089582E0F9CFFA
:1047C00083E0809329030E94D32308950E94D62377
:1047D000089581E0809329030E94D32308950E94C5
:1047E000E9230895089508950E94F32308950895F4
:1047F00008950E94F2230895CF930E94F7230E9408
:10480000941B0E94F823C0E08C2F0E94DD1A8111B6
:1048100005C0CF5FC530C1F7CF91089581E0FCCFCF
:1048200085B7806885BF85B7806885BF08951F926A
:104830001FB61F9211248F939F93AF93BF938091C4
:104840002A03811113C080915F0590916005A091AA
:104850006105B09162054196A11DB11D80935F0570
:1048600090936005A0936105B0936205BF91AF91ED
:104870009F918F911F901FBE1F9018958091670583
:10488000843031F10E945A0D10922A0388E190E0A1
:1048900020E40FB6F894A895809360000FBE209393
:1048A000600083B7817F846083BF83B7816083BFEB
:1048B0007894889583B78E7F83BF0FB6F894A895B8
:1048C00080916000886180936000109260000FBE4C
:1048D00008950E9446110E94610D089582E084BDF2
:1048E00093E095BD9AEF97BD80936E0008952FB722
:1048F000F89480915F0590916005A0916105B09159
:1049000062052FBF08952FB7F89460915F057091ED
:10491000600580916105909162052FBF08959C010B
:104920004FB7F89480915F0590916005A091610563
:10493000B09162054FBF821B930B089578941F922C
:104940001FB61F9211248F939F93AF93BF938091B3
:104950005F0590916005A0916105B0916205019697
:10496000A11DB11D80935F0590936005A093610523
:10497000B0936205BF91AF919F918F911F901FBE21
:104980001F90189581E08093E00080E28093D8002A
:104990001092C9008FE19EE40197F1F700C000007A
:1049A00087E090EBDC018093720590937305A093F0
:1049B0007405B093750588E19CE00FB6F894A8954E
:1049C000809360000FBE90936000FFCF88E19CE071
:1049D0000FB6F894A895809360000FBE9093600086
:1049E000FFCF1092B9008CE08093B8000895B0E03A
:1049F000A0E0EDEFF4E20C94D92FB82EEB010E9469
:104A000077246C01EE24E394F12CC431D10560F0DD
:104A100025E0E22EF12CCF3FDC0731F0CE0164E13E
:104A200070E00E94A42F7B0184EAA82E94E8992EBE
:104A30001092BC00A092BC000E9477248C0180914F
:104A4000BC0087FF0DC08091B900887F8830F9F0E5
:104A50008091B900887F8031D1F00FEF1FEF08C03F
:104A6000C8010E948F24E816F90648F70EEF1FEFE1
:104A7000CF3FDC07E9F2C6010E948F24C817D9078F
:104A8000B8F6C801CDB7DEB7EBE00C94F52FB092C5
:104A9000BB009092BC000E9477248C018091BC00E6
:104AA00087FF0AC08091B900887F883111F0803477
:104AB000A1F610E000E0E5CFC8010E948F24E816BF
:104AC000F90660F7D3CF0F931F93CF93DF93EB01DA
:104AD0008093BB0084E88093BC000E9477248C0103
:104AE0008091BC0087FF11C02091B900287F81E030
:104AF00090E0283211F490E080E091958195910941
:104B0000DF91CF911F910F910895CF3FDC0741F3C3
:104B1000C8010E948F24C817D90710F78EEF9FEFA6
:104B2000EFCFB0E0A0E0E7E9F5E20C94DC2F6B01F9
:104B30008A017901B9010E94F724E6010C0D1D1DBF
:104B4000C017D10711F097FF08C024E92093BC00DB
:104B5000CDB7DEB7E8E00C94F82FB70189910E9439
:104B60006325EECFB0E0A0E0E8EBF5E20C94DC2F9B
:104B7000C62F6A017901B8010E94F72497FD0CC085
:104B8000B8018C2F0E946325E601EC0CFD1CCE15AC
:104B9000DF0511F097FF08C024E92093BC00CDB7D2
:104BA000DEB7E8E00C94F82FB80189910E946325E4
:104BB000EECF84E98093BC00089580914B03089563
:104BC00008959B01BA01909167059430E9F48F70C4
:104BD0008093E9009FEF8091E800915085FD06C029
:104BE00085ED8A95F1F700009111F5CF8091E800ED
:104BF00085FF0AC050E040E0C9010E94E42780918F
:104C0000E8008E778093E800089543E050E0BC010F
:104C100082E00E94E1250895CF93DF93EC0180911B
:104C20001401811111C048E050E0BE0181E00E94F2
:104C3000E12580E2FE01ABE2B3E001900D928A959E
:104C4000E1F7DF91CF91089580914D0387FF05C073
:104C500040E282E050E0BE01EACF48E081E0FACFD6
:104C600080916605811109C00E9474290E94D12992
:104C70008091E20084608093E200089510926605BE
:104C800008950E94E92308956091630581E0611110
:104C900001C080E00E94E02308959091670581E0C3
:104CA000943009F080E0609163050E94E623089546
:104CB00042E061EC81E00E94F02842E261EC82E097
:104CC0000E94F0289091670581E0943009F080E01F
:104CD000609163050E94D623089580916905833011
:104CE00009F461C030F48130D1F1823009F49EC002
:104CF00008958A3009F48AC08B3009F46FC0893076
:104D000009F050C080916805813209F04BC0809154
:104D10006C0590916D05029708F044C08091E80001
:104D2000877F8093E8008091E80082FF37C09091F0
:104D3000F3008091F200029731F48091F10081300C
:104D400011F0863021F48091F10080934B03809123
:104D5000E8008B778093E8000E94242923C080918B
:104D60006805813AF9F48091E800877F8093E80034
:104D700080916C0590916D05892B61F460E28BE266
:104D800093E070E00E9433288091E8008B77809355
:104D9000E800089560E090E080E0F3CF809167053F
:104DA0008111C1CF089580916805813AD9F780912A
:104DB0006C0590916D05892BA9F78091E800877F9C
:104DC0008093E8008091E80080FFFCCF809114017F
:104DD0008093F1008091E8008E77BCCF80916805C8
:104DE000813201F780916C0590916D05892BD1F688
:104DF0008091E800877F8093E8000E9424298091B9
:104E00006A05809314010E944611089580916805F7
:104E1000813241F68091E800877F8093E8000E940C
:104E2000242980916B0580934C0308958091680537
:104E3000813A09F0B7CF8091E800877F8093E8003E
:104E40008091E80080FFFCCF80914C03C1CF84B7F4
:104E5000877F84BF0FB6F894A89580916000886121
:104E600080936000109260000FBE80E890E00FB663
:104E7000F89480936100909361000FBE0E94EF232D
:104E800008950E9474290E94D129E2EEF0E0808109
:104E90008460808378940E94502C08958CE091E087
:104EA0000E949722089580916705853031F48091A2
:104EB0006705853019F00E94692408950E943E24F8
:104EC00080916505882399F30E94FC23882379F358
:104ED0000E94CE270E944611EACF08959A01409180
:104EE0006E0550916F050E9476270895492F55272A
:104EF0004330510519F168F44130510509F444C0BB
:104F00004230510509F445C090E080E050E040E0B7
:104F100025C04132510549F142325105A9F784E4D7
:104F200090E043E55CE061157105C1F08DE690E02D
:104F300046EE5BE06130710589F0E6CF992781305C
:104F4000910581F0009729F00297F1F6E5E7FBE083
:104F500002C0E5E9FBE0849190E0AF01F9015183E3
:104F600040830895E1E8FBE0F6CF89E090E04BEA6A
:104F70005BE06115710591F389E090E044EC5BE042
:104F80006130710559F3C0CF82E190E044ED5BE000
:104F9000E5CF8BE390E049E95BE0E0CF80E189BDBC
:104FA00082E189BD09B400FEFDCF8091D8008F7DDC
:104FB0008093D8008091E00082608093E00080912F
:104FC000E00081FDFCCF0895AF92BF92CF92DF92B7
:104FD000FF920F931F93CF93DF936C01EB018A0134
:104FE0000E944329F82E811123C00115110539F0C3
:104FF000F80180819181C81BD90BC80ED91EB12C34
:10500000A12C2097A9F08091E80085FD22C0809115
:10501000E8008E778093E80001151105A1F0F801F2
:1050200080819181A80EB91EB182A08285E0F82E00
:105030008F2DDF91CF911F910F91FF90DF90CF9037
:10504000BF90AF9008950E9443298823D1F2F82E93
:10505000EFCFF60181916F018093F1002197FFEF6F
:10506000AF1ABF0ACECFFC0180916E0590916F05FB
:1050700086179707A0F06115710529F49091E80053
:105080009E779093E80090E06115710551F49111BD
:1050900008C08091E80082FF34C080E00895BC0120
:1050A000F2CF809167058823C1F18530C1F18091ED
:1050B000E80083FD30C08091E80082FDEACF809156
:1050C000E80080FFE1CF8091F3002091F200382FBB
:1050D0006115710519F02830310558F091E028303C
:1050E000310509F090E02091E8002E772093E80048
:1050F000CBCF81918093F100615071092F5F3F4FB9
:10510000E7CF80916705882341F0853041F0809199
:10511000E80083FFBECF81E0089582E0089583E038
:105120000895FC0180916E0590916F058617970791
:10513000A0F06115710529F48091E8008E778093C5
:10514000E80090E06115710551F4911108C080915B
:10515000E80082FF35C080E00895BC01F2CF809165
:1051600067058823C9F18530C9F18091E80083FD86
:1051700031C08091E80082FDEACF8091E80080FF95
:10518000E1CF8091F3002091F200382F6115710575
:1051900019F02830310558F091E02830310509F038
:1051A00090E08091E8008E778093E800CBCF8491E7
:1051B0008093F1003196615071092F5F3F4FE6CF28
:1051C00080916705882341F0853041F08091E800A7
:1051D00083FFBDCF81E0089582E0089583E00895C4
:1051E000982F973028F08F708093E90081E0089520
:1051F0009093E900242F762F50E0981731F07091AA
:10520000EC002091ED005091F00021FD02C09F5F65
:10521000E8CF3091EB003E7F3093EB003091ED0012
:105220003D7F3093ED003091EB0031603093EB0027
:105230007093EC002093ED005093F0002091EE006D
:1052400027FDE5CF80E008958091680587FF13C0B2
:105250008091E80082FF06C08091E8008B77809300
:10526000E80004C0809167058111F2CF0895809114
:1052700067058823D9F38091E80080FFF8CF8091FB
:10528000E8008E77ECCF2091E4003091E50095E6C0
:10529000A9012091EC00822F817020FF06C080912F
:1052A000E80080FF06C080E008952091E80022FD1C
:1052B0001AC080916705882389F0853089F0809134
:1052C000EB0085FD0FC02091E4003091E50042170E
:1052D0005307F9F29150E1F684E0089582E00895D1
:1052E00083E0089581E008950E94E3290E94EB295C
:1052F000E0EEF0E0808181608083E8EDF0E0808185
:105300008F77808319BCA7EDB0E08C918E7F8C9352
:1053100080818F7E80831092660508950F931F937E
:10532000CF93DF930E94E3290E94EB29C8EDD0E0E0
:1053300088818F77888388818068888388818F7D42
:10534000888319BC10926705109263051092650559
:105350001092640500EE10E0F80180818B7F80835D
:1053600088818160888342E060E080E00E94F028CC
:10537000E1EEF0E080818E7F8083E2EEF0E08081DC
:1053800081608083808188608083F80180818E7F46
:105390008083888180618883DF91CF911F910F91F5
:1053A0000895E8EDF0E080818F7E8083E7EDF0E006
:1053B00080818160808384E082BF81E08093660584
:1053C0000E948E290895E8EDF0E080818E7F808331
:1053D0001092E20008951092DA001092E100089510
:1053E0001F920F920FB60F9211242F933F934F935A
:1053F0005F936F937F938F939F93AF93BF93EF933D
:10540000FF938091E10082FF0BC08091E20082FF58
:1054100007C08091E1008B7F8093E1000E944F2CB8
:105420008091DA0080FF19C08091D80080FF15C0FC
:105430008091DA008E7F8093DA008091D90080FF1E
:1054400096C080E189BD82E189BD09B400FEFDCF2F
:1054500081E0809367050E9430268091E10080FF03
:1054600019C08091E20080FF15C08091E2008E7F1C
:105470008093E2008091E20080618093E20080915D
:10548000D80080628093D80019BC85E080936705BE
:105490000E9444268091E10084FF2BC08091E200AD
:1054A00084FF27C080E189BD82E189BD89B5982F3D
:1054B000917080FFFBCF8091D8008F7D8093D800C2
:1054C0008091E1008F7E8093E1008091E2008F7EE9
:1054D0008093E2008091E20081608093E2008091FD
:1054E0006305882309F449C084E0809367050E941E
:1054F0004D268091E10083FF29C08091E20083FF67
:1055000025C08091E100877F8093E10082E0809355
:105510006705109263058091E1008E7F8093E10022
:105520008091E2008E7F8093E2008091E2008061B2
:105530008093E20042E060E080E00E94F0288091E9
:10554000F00088608093F0000E944126FF91EF9167
:10555000BF91AF919F918F917F916F915F914F918B
:105560003F912F910F900FBE0F901F90189519BC6F
:10557000109267050E943E2670CF8091E30087FD60
:1055800093E090936705B3CF1F920F920FB60F92DF
:1055900011242F933F934F935F936F937F938F9338
:1055A0009F93AF93BF93CF93DF93EF93FF93D091EC
:1055B000E900DF708091EC00C82FC17080FDC0E869
:1055C0001092E9008091F000877F8093F00078943A
:1055D0000E94082B1092E9008091F000886080936F
:1055E000F000CD2BCF70C093E900FF91EF91DF91D8
:1055F000CF91BF91AF919F918F917F916F915F916B
:105600004F913F912F910F900FBE0F901F901895C3
:10561000AAE2B0E0EEE0FBE20C94E12F88E695E030
:105620002091F100FC012193CF01F5E080379F0725
:10563000B9F70E946D268091E80083FF1EC180911A
:105640006805909169059A3008F017C1E92FF0E0DC
:10565000EB53FB4C0C94CC2F803899F0823809F036
:105660000CC180916C058F70873008F006C1809363
:10567000E9008091EB0085FB882780F91092E90012
:1056800006C08091640590916505911182609091AA
:10569000E800977F9093E8008093F1001092F1006A
:1056A0008091E8008E77E5C0882309F4D3C082306A
:1056B00009F0E3C080916A058111D6C080916C0524
:1056C0008F702FEF280F263008F0D7C08093E900A5
:1056D0002091EB0020FFC8C0933031F48091EB00A3
:1056E00080628093EB00C0C09091EB00906190933A
:1056F000EB0021E030E001C0220F8A95EAF7209309
:10570000EA001092EA008091EB008860EACF8111F4
:10571000B4C010916A051F778091E3008078812BD7
:105720008093E3008091E800877F8093E8000E94E7
:1057300024298091E80080FFFCCF8091E3008068FD
:105740008093E30082E0111183E08093670595C0A8
:105750008058823008F091C080916A0590916B0565
:105760008C3D23E09207A1F583E08A838AE2898356
:105770004FB7F894DE01139620E03EE051E2E32FAC
:10578000F0E050935700E49120FF03C0E295EF70E2
:105790003F5FEF708E2F90E0EA30C0F0C7968D9398
:1057A0009D932F5F243159F74FBF8091E800877F89
:1057B0008093E8006AE270E0CE0101960E943328EF
:1057C0008091E8008B778093E80057C0C096E7CFC0
:1057D00060916C0570916D05AE014F5F5F4F0E9447
:1057E0006E27BC01892B09F448C09091E800977F8F
:1057F0009093E80089819A810E949128E1CF8038B6
:10580000E1F58091E800877F8093E800809163054F
:105810008093F10045CF811130C090916A0592309C
:1058200060F58091E800877F8093E800909363059E
:105830000E94242980916305882311F084E005C02B
:105840008091E30087FDFACF81E0809367050E9495
:10585000582613C080916A05813079F481E0933035
:1058600009F080E0809365051092E9008091E800DE
:10587000877F8093E8000E9424298091E80083FFBD
:105880000AC08091E800877F8093E8008091EB0058
:1058900080628093EB00AA96E3E00C94FD2F0895BC
:1058A000CF93809167058823A1F0C091E900CF7064
:1058B0009091EC00892F817090FD80E8C82B1092A8
:1058C000E9008091E80083FD0E94082BCF70C0930F
:1058D000E900CF9108955058BB27AA270E94832C36
:1058E0000C94D02D0E94C22D38F00E94C92D20F0BA
:1058F00039F49F3F19F426F40C94BF2D0EF4E09573
:10590000E7FB0C94902DE92F0E94E12D58F3BA1774
:10591000620773078407950720F079F4A6F50C94C5
:105920001B2E0EF4E0950B2EBA2FA02D0B01B90102
:1059300090010C01CA01A0011124FF27591B99F005
:10594000593F50F4503E68F11A16F040A22F232F11
:10595000342F4427585FF3CF469537952795A79561
:10596000F0405395C9F77EF41F16BA0B620B730B08
:10597000840BBAF09150A1F0FF0FBB1F661F771F79
:10598000881FC2F70EC0BA0F621F731F841F48F42E
:10599000879577956795B795F7959E3F08F0B0CFB7
:1059A0009395880F08F09927EE0F9795879508959E
:1059B0000E94032E90F09F3748F4911116F40C9436
:1059C0001C2E60E070E080E89FE3089526F01B162F
:1059D000611D711D811D0C94962D0C94B12D0E949A
:1059E000032D0C94D02D0E94C92D58F00E94C22D79
:1059F00040F029F45F3F29F00C94902D51110C9444
:105A00001C2E0C94BF2D0E94E12D68F39923B1F355
:105A1000552391F3951B550BBB27AA2762177307D4
:105A2000840738F09F5F5F4F220F331F441FAA1F68
:105A3000A9F335D00E2E3AF0E0E832D09150504024
:105A4000E695001CCAF72BD0FE2F29D0660F771FD2
:105A5000881FBB1F261737074807AB07B0E809F0B8
:105A6000BB0B802DBF01FF2793585F4F3AF09E3F3D
:105A7000510578F00C94902D0C941C2E5F3FE4F3AC
:105A8000983ED4F3869577956795B795F7959F5F80
:105A9000C9F7880F911D9695879597F90895E1E0CC
:105AA000660F771F881FBB1F621773078407BA072B
:105AB00020F0621B730B840BBA0BEE1F88F7E09586
:105AC00008950E94E92D88F09F5798F0B92F9927E3
:105AD000B751B0F0E1F0660F771F881F991F1AF0D9
