:100000000C94AD010C94E5010C94E5010C94E50110
:100010000C94E5010C94E5010C94E5010C94E501C8
:100020000C94E5010C94E5010C94DC180C94B019C7
:100030000C94FF130C94E5010C94E5010C94E5017C
:100040000C94E5010C94E5010C94E5010C94E50198
:100050000C94E5010C9486140C94E5010C94E501D4
:100060000C94E5010C94E5010C94E5010C94E50178
:100070000C94E5010C94E5010C94E5010C94E50168
:100080000C94E5010C94E5010C94E5010C94E50158
:100090000C94E5010C94E5010C94E5010C94E50148
:1000A0000C94E5010C94E5010C94E5012900000095
:1000B0003A003B003C003D003E003F004000410054
:1000C000000042004300440045004600470048004D
:1000D00035001E001F002000210022002300240004
:1000E0002500260027002D002E0000002A004900D0
:1000F0004A004B002B0014001A00080015001700DE
:100100001C0018000C00120013002F00300000002B
:1001100031004C004D004E0039000400160007006D
:1001200009000A000B000D000E000F003300340020
:10013000000000002800000000000000E1001D0099
:100140001B000600190005001100100036003700E2
:100150003800000000000000E50000005200000030
:10016000E000E300E200000000002C0000000000BE
:1001700000000000E600E70000002152E40050000B
:1001800051004F00290000000100010001000100A2
:100190000100010001000100000001000100010058
:1001A0000100010001000100010001000100010047
:1001B0000100010001000100010001000100010037
:1001C0000100000001000100010001000100010028
:1001D0000100010001000100010001000100010017
:1001E0000100010001000000010001000100010008
:1001F00001000100010001000100010001000100F7
:1002000001000100010001000000000001000000E9
:1002100000000000010001000100010001000100D8
:1002200001000100010001000100000000000000C9
:1002300001000000010000000100010001000000B9
:1002400000000100000000000000000001000100AB
:100250000000010001000100010001001A03450037
:100260006D007500200053006F006C006400650095
:10027000720065006400000018034B0069006E0006
:1002800065007400690063006C0061006200730027
:1002900000000403090409023B00020100A0FA095E
:1002A00004000001030101000921110100012244A1
:1002B0000007058103080001090401000103000093
:1002C00000092111010001223200070582032000EC
:1002D00001120100020000000815E086C3010001C0
:1002E00002000105010980A101850319012AB70057
:1002F000150126B700950175108100C0050C090194
:10030000A101850419012AA002150126A002950168
:1003100075108100C005010906A101050719E02932
:10032000E715002501950875018102950175088181
:10033000010507190029FF150026FF00950675081D
:10034000810005081901290515002501950575018C
:100350009102950175039101C00011241FBECFEFDA
:10036000DAE0DEBFCDBF04B603FE18C08091AF0255
:100370009091B002A091B102B091B2028730904B3F
:10038000A740B04B59F41092AF021092B0021092F5
:10039000B1021092B202E0E0F8E3099511E0A0E0AA
:1003A000B1E0EAE7F8E302C005900D92A639B10783
:1003B000D9F722E0A6E9B1E001C01D92AF3AB20739
:1003C000E1F70E943B110C94FC1B0C94000082305E
:1003D000B8F46630A8F4423198F450E092E1699F95
:1003E000400D511D1124FA019CE6899FE00DF11D7D
:1003F0001124EE0FFF1FE455FF4F8591949108954E
:1004000081E090E008950E94E701089581E0089559
:100410000E940602089581E008950E940602089550
:100420000E940D02089508950E9413020895A6E007
:10043000B0E0EDE1F2E00C946C1B49835A839E839B
:1004400030919D0189819A8131111AC03E813323F7
:1004500099F0222389F00E948207182F682F898142
:100460009A810E945E0769817A81812F0E94870E9E
:100470002696E3E00C94881B0E947007182FF3CF98
:100480000E94820769817A81F1CFFC01262F408189
:10049000518162817381848195810E941702089540
:1004A000CF93DF93EC0161E00E944502BE010E9400
:1004B0000802DF91CF910895CF93DF93EC0160E0C4
:1004C0000E944502BE010E941402DF91CF9108955F
:1004D00008950E9433060E9468022FEF84E39CE097
:1004E000215080409040E1F700C0000008950E9434
:1004F00069020E94AA1408950E9469020E94CE1403
:1005000008950F931F93CF93DF938C0161E00E94B6
:100510004502EC01B8010E941002811106C080E082
:10052000DF91CF911F910F910895B801CE010E94E4
:10053000B7128823A1F3B801CE010E944D11882380
:1005400071F3B801CE010E942912882341F3F8010A
:100550008581882361F0C330FCE7DF07E9F058F4B8
:10056000C115ECE7DE07A9F0C130DC47B9F0C801DE
:100570000E940B02D5CFCB358CE7D807A9F0CC353C
:10058000ECE7DE0771F0CA35DC4789F70E94B80B4B
:10059000EECF0E947702C3CF0E94C00B0E947C0264
:1005A000BECF0E94AE0BE3CF0E94BC0BE0CF0E94F7
:1005B000D9130E94FE0208950E9402030E94DE13D6
:1005C0000895089581E008950895CF93DF93D82F7B
:1005D0000E94E202C82F882319F08D2F0E94E402A6
:1005E0008C2FDF91CF9108950895CF93C82F0E944B
:1005F000E1028C2F0E94E502CF91089580E00E94D5
:10060000F50208950E9400130E94F5020895CF9309
:100610000E940013C82F809198018C1779F0C09325
:1006200098010E946B146093990170939A018093D2
:100630009B0190939C018C2F0E94F502CF9108950D
:10064000ADE0B0E0E6E2F3E00C946D1B488759871B
:100650006A877B878C879D8791110E94E60A1F829B
:1006600086E0FE013896DE01119601900D928A9582
:10067000E1F78D8181110DC029813A814B815C8127
:100680006D817E818F810E94190A2D96E2E00C9483
:10069000891BCE0101960E9450028111EDCFF5CF4A
:1006A000FC012481213021F4808191810E94B407D2
:1006B0000895CF93C82F8823B9F08CEF8C0F813A1F
:1006C000A8F46C2F80910001909101010E94741395
:1006D000882329F08C2F0E94A60A0E941F0B8C2FC2
:1006E0000E949E0A0E941F0BCF91089580E28C0FFA
:1006F000883048F4C77081E001C0880FCA95EAF7D6
:100700000E94C90AEFCFEBE5EC0FE33040F4F0E0D4
:10071000EF5BFE4F808190E00E941813E5CFC85A2E
:10072000CB3110F7EC2FF0E0EE0FFF1FE55FFE4F2F
:10073000808191810E943D13D7CF882339F19CEFAE
:10074000980F913A28F40E94A60A0E941F0B089560
:1007500090E2980F983050F4877091E001C0990FA3
:100760008A95EAF7892F0E94CF0AEFCF9BE5980F71
:10077000933028F490E080E00E9418130895885A7E
:100780008B3120F490E080E00E943D1308951F9388
:10079000CF93DF93182FEB010E945903209739F470
:1007A000812F0E949D03DF91CF911F9108958FE9C2
:1007B0009FE00197F1F700C000002197EFCF70E0B4
:1007C00060E0893311F460E570E00E94C70308958A
:1007D000882321F00E94C90A0E941F0B08958823D4
:1007E00021F00E94CF0A0E941F0B0895B0E0A0E004
:1007F000ECEFF3E00C94661B6C01D62FC72FFC01C5
:100800001581068102950F700E94BF0AE82E882389
:10081000E9F0E12E1123D1F08C2F807F803451F04C
:1008200080E28D0F8830F8F0011104C08C2F807E9B
:100830008032C9F080916D0282FF15C082E00E9473
:10084000820B0E94BF0A91E0E82EE926BC2EB294EA
:100850009FE0B922FBE0FB15B8F1EB2DF0E0E25090
:10086000F44E0C94571BE12CF1CF0C2F0F70C07F6E
:1008700011F00295007F112399F0002359F080E2D6
:100880008D0F883010F0D11107C0802F0E94C90A47
:100890000E941F0B8D2F5AC0802F0E94D90AF8CFBB
:1008A0008D2F0E949D03002379F080E28D0F883008
:1008B00010F0D11104C0802F0E94CF0A03C0802FF6
:1008C0000E94DF0A0E941F0BEB2DE850FF0B3497AC
:1008D00020F40E9400130E94F502EE2089F00E948D
:1008E000BB0A80FD0DC0F60115820E94B50A0E9468
:1008F000BC06C6010E94FE050E94B50A0E94CC06F5
:10090000CDB7DEB7E9E00C94821B2C2F2F70F22EAE
:10091000C07FC03219F0F29480EFF822DD2341F05D
:10092000D130D1F1112309F444C00023F1F0B2CF4A
:1009300080916D0282FD15C0112359F0FF2029F02E
:100940008F2D0E94C90A0E941F0B80E00E9459034C
:10095000BBCF80E00E949D03FF2009F4B5CF8F2D0F
:10096000ABCF112369F0011104C08F2D0E94E80361
:10097000ABCF013009F0A8CF8F2D0E94FD0AA4CF84
:100980000111A2CF8F2D0E94EF038F2D0E94090B22
:100990008F2D0E94ED0A98CF112321F0063008F028
:1009A00093CFE3CF053008F08FCF8F2D0E94EF0358
:1009B0008BCF0023D1F3D93349F43FEF87EE93E097
:1009C000315080409040E1F700C000008D2F0E9420
:1009D0009D037ACF8C2F86958695837069F0813040
:1009E00009F072CF8D2F9C2F9370111102C080E0FF
:1009F00090E00E943D1368CF8D2F9C2F93701111B2
:100A000002C080E090E00E9418135ECF8C2F8370AC
:100A1000A1F5111159CF4D2F429546954770440FBE
:100A2000440F2D2F2F7030E0042E02C0220F331FF1
:100A30000A94E2F790E080E0D4FF09C08FE090E0F4
:100A400002C0880F991F4A95E2F780959095C69548
:100A5000C695C370822B932BC23049F058F4C13035
:100A600019F00E948C0630CF0E9483062DCF0E9481
:100A700095062ACF0E94800627CF8695112311F074
:100A80008C2F8170882309F41FCF4D2F42954695F6
:100A90004770440F440F2D2F2F7030E0042E02C0FA
:100AA000220F331F0A94E2F790E080E0D4FF09C0E0
:100AB0008FE090E002C0880F991F4A95E2F7809579
:100AC0009095C695C695C370822B932BC23049F082
:100AD00058F4C13019F00E94F706F6CE0E94EE06D7
:100AE000F3CE0E940007F0CE0E94A406EDCECF7098
:100AF000112329F08C2F0E94BC068D2F37CF8D2F0C
:100B00000E94EF038C2F0E94CC06DECED23F41F133
:100B100060F4D03FB9F0D13F81F0112309F446C011
:100B20000111B8CE8C2F8F711FC0D33F01F1D43F7C
:100B3000A1F780916D0282FD24C08C2F8F7111234B
:100B400011F312C0112341F0053008F0BDCE8C2FF7
:100B50008F710E94DE06B8CE063008F0B5CEF7CF12
:100B60008C2F8F711111CFCF0E94BC06ADCE1123F7
:100B700029F08C2F8F710E94B006A6CE0E94AB0682
:100B8000A3CE112349F0CF718C2F0E94BC0663E0E5
:100B90008C2F0E94640B98CE81E00E94820B023061
:100BA00008F492CE82E00E94820B8ECE002359F090
:100BB000D93309F00BCFEFEFF7EE23E0E150F0402F
:100BC0002040E1F701CF8C2F8F719DCF0F931F93A2
:100BD000CF93DF93EC01688179818D810E94BF07FB
:100BE0008C010E9409070E947F06B801CE010E9475
:100BF000F603DF91CF911F910F910895CF93DF936B
:100C0000EC018C81882399F0CE010E948102811130
:100C100011C00E94BF0A882351F08D81882339F0CA
:100C200080916D0282FF03C082E00E94820BDF91FF
:100C3000CF910895CE010E94E605CE010E945C028C
:100C4000F6CF90E080E00E94181390E080E00E94D0
:100C50003D130E94E60A0E941F0B08950E94AE0AEF
:100C60000E94210608950E94D60A0E942E06089529
:100C700092959F70963091F058F4925F9F709230E9
:100C800058F4803F19F030F4883E30F481E0089544
:100C90009A5FF4CF843FD1F380E00895883EB0F3AB
:100CA000813FD1F7F3CFFC012481222339F08081E9
:100CB00091810E94B4070E943806089580E008954B
:100CC000A6E0B0E0E6E6F6E00C946D1B2696E2E0C6
:100CD0000C94891BA7E0B0E0E0E7F6E00C946D1BF4
:100CE0002796E2E00C94891B08950E9474060895EB
:100CF0000E9475069093D9018093D80108950895B4
:100D00000E94780608952091D8013091D901822B54
:100D1000932B0E94780608952091D8013091D90133
:100D2000822393230E94780608952091D801309160
:100D3000D901822793270E94780608950E9474069D
:100D400008950E949E0608950E94A1069093D701DF
:100D50008093D601089590E080E00E94A406089553
:100D600021E030E0A90102C0440F551F8A95E2F747
:100D7000CA010E94A406089521E030E002C0220FBB
:100D8000331F8A95E2F78091D6019091D701822B8B
:100D9000932B0E94A406089521E030E002C0220FA8
:100DA000331F8A95E2F7209530958091D601909176
:100DB000D701822393230E94A406089521E030E006
:100DC00002C0220F331F8A95E2F78091D6019091DD
:100DD000D701822793270E94A40608952091D60167
:100DE0003091D701822B932B0E94A4060895209165
:100DF000D6013091D701822393230E94A40608953F
:100E00002091D6013091D701822793270E94A40612
:100E100008950895262F277091E001C0990F2A9513
:100E2000EAF723E0769567952A95E1F7660F771F35
:100E3000660F771FFA01E60FF71F50E040E0682FBA
:100E400070E08191DF0111979B01042E02C036955D
:100E500027950A94E2F7217021952827292328272E
:100E60002C934F5F5F4F4430510559F70895A82FD9
:100E7000A77023E0969587952A95E1F7880F991F2B
:100E8000880F991FFB01E80FF91F50E040E080E058
:100E9000219130E00A2E02C0369527950A94E2F798
:100EA00021703327042E01C0220F0A94EAF7822B07
:100EB0004F5F5F4F4430510559F70895262F963004
:100EC00070F4823160F4682F70E082E1989F600DC9
:100ED000711D11244EE951E0822F0E940A070895E6
:100EE000292F963068F4823158F490E06EE971E071
:100EF00032E1239F800D911D11240E943707089530
:100F000080E00895B0E0A0E0E8E8F7E00C94661B0C
:100F10007C010091D6011091D7018091D801909168
:100F2000D901082B192BCFE0D0E0CC24C394D12CCD
:100F3000BC2EC6010C2E02C0880F991F0A94E2F73E
:100F400080239123892B49F4219790F7B12C8B2D85
:100F5000CDB7DEB7E9E00C94821BB7018C2F0E945D
:100F6000930E019789F3F3CFCF93DF93EC010E94A7
:100F70008207BE010E94930EDF91CF9108951F93C7
:100F8000CF93DF93EB0190919D01992339F0CB0131
:100F90000E94B407DF91CF911F910895882369F0D3
:100FA000CB010E948207182F682FCE010E945E0796
:100FB000BE01812F0E94930EEDCFCB010E947007DE
:100FC000182FF6CF1F93CF93DF93C091DA0117E06C
:100FD0008091DB018C1304C0DF91CF911F910895A4
:100FE000D0E01C9FF0011D9FF00D1124E452FE4F34
:100FF00020813181428153816481758186810E9483
:101000006A062196C770E4CF209114023091150230
:1010100040911602509117026091180270911902C6
:1010200080911A020E946A060895CF93DF938091FF
:101030001A02807F09F04DC080911902882309F4BB
:1010400048C0E091DA015091DB01C0911502D091C6
:101050001402609116027091170247E05E17C9F101
:101060008E2F90E0E49FF0011124E452FE4F248182
:10107000222391F1489FF001499FF00D1124DF01D7
:10108000A452BE4F11962C9111972C1325C02C9170
:101090002D1322C015962C91159721111DC0129663
:1010A0002D913C91261B370B283C3105A8F48091EB
:1010B0001A028F70806180931A02EE51FE4F808178
:1010C0008F708061808384E192E00E94FE050E941F
:1010D000E207DF91CF910895FC013196E770BECF12
:1010E000482F2091DA019091DB0157E0291302C0CB
:1010F00080E0089530E0529FF001539FF00D1124DD
:10110000E452FE4F8181681306C08081481303C0FA
:1011100085818111EECF2F5F3F4F2770E7CFA4E18C
:10112000B0E0E5E9F8E00C94631B8C0186E0F8017F
:10113000DE011F9601900D928A95E1F7F8018481F6
:10114000E58094E1A92E92E0B92E909118029111B8
:101150001FC08823D1F0EE20A9F0C8010E945306D9
:10116000F82E882379F087E0F801D50101900D92DF
:101170008A95E1F7C5010E9450030E9415080E945C
:1011800004085FC0C8010E94FE05FF24F39459C003
:10119000C080D18082809380F09019022091160245
:1011A00030911702A401421B530BFF2009F4F9C030
:1011B000483C510508F0A7C0882309F442C090912B
:1011C000150280911A02282F207F09F05CC09D1122
:1011D00016C090911402C91212C0E1104EC08F7057
:1011E000806180931A020E94040884E192E00E94C8
:1011F000FE0580911A02F8018683F12C22C0E110CD
:101200003CC06D2D8C2D0E9470086D2D8C2D0E9480
:101210007008E82E8111F1CFCF86D88A8F85988902
:101220000E94B407292F22952F70243078F49F70E4
:101230002230A8F09923B9F0F8019681907F99F4B3
:10124000FE2C8F2D6496ECE00C947F1B2A5F2F7090
:10125000223068F0C8010E94FE05EF2CF1CF9923DF
:1012600011F0882369F3805E883050F3F3CF803F1C
:1012700038F3815F833070F7E3CF80911A02816089
:1012800080931A02BACF9D1113C090911402C91213
:101290000FC0E1100DC08683C8010E94FE0587E0E3
:1012A000F801A4E1B2E001900D928A95E1F767CFD1
:1012B000C8010E945306882309F464CFEE2009F484
:1012C00061CF80911A02803288F02091140230910F
:1012D0001502398728879B868A86909118029C87F9
:1012E0001D868E87CE0108960E94FE0587E0F801D4
:1012F000A4E1B2E001900D928A95E1F70E941508F1
:101300000E94040842CF90911A02292F207FA1F455
:10131000682D9A8A898AA6017A899E2D0E94600684
:1013200084E192E00E94FE0587E0F50111928A9522
:10133000E9F70E94040861CF882309F482CF8091E5
:1013400015028D1110C080911402C8120CC0E1105A
:101350000AC09683C8010E94FE0587E0F50111923C
:101360008A95E9F76ECFC8010E945306882309F4D5
:1013700009CFEE2009F406CF80911A02803208F4DA
:10138000B5CF20911402309115023A8329839C82B3
:101390008B82909118029D831E828F83CE010196CD
:1013A000A3CF483C5105B8F5882309F4EECEFE2CB6
:1013B000EE2009F4E7CE809115028D111EC08091B8
:1013C0001402C8121AC080911A0280FD0DC0982F15
:1013D000907F51F08683903F09F45ECF982F907FE5
:1013E000905F8F70892B57CF87E0F801A4E1B2E0BE
:1013F00001900D928A95E1F724CFC8010E9453060F
:10140000811174CF80911A02816080931A02C80101
:101410000E94FE0516CF682D9A8A898AA6017A89CC
:101420009E2D0E94600687E0F50111928A95E9F7EA
:10143000A6CEAEE0B0E0EFE1FAE00C946C1B28879A
:1014400039874A875B876C877D878E87CE010896B0
:101450000E948F088823B1F06C85662341F02885AF
:1014600039854A855B857D858E850E946A0617E0F1
:101470008091DA019091DB0189133DC02E96E3E063
:101480000C94881B87E0FE013896DE0111960190CE
:101490000D928A95E1F78C85882349F32091DB0131
:1014A00030E0C9010196877099274091DA01481709
:1014B000190699F097E0929FD001939FB00D1124E7
:1014C000A452BE4FFE01319601900D929A95E1F71C
:1014D0008093DB010E94E207CACF0E94330610927C
:1014E000DB011092DA0187E0E4E1F2E0DF011D9216
:1014F0008A95E9F7BCCF819FC001112484529E4F89
:101500000E948F08882309F4B9CFE091DA011E9F69
:10151000F0011124E452FE4F208131814281538138
:101520006481758186810E946A068091DA0190E06B
:101530000196877099278093DA019ACF682F80915E
:101540000001909101010E94AA130895682F8091D3
:101550000001909101010E94AD1308958091000156
:10156000909101010E94B013089580912302869505
:1015700086958695089580912302877008959091AD
:101580002302977081E009F480E0089580912F0292
:10159000089590912F02892B80932F0208958095B2
:1015A00090912F02982390932F02089510922F026A
:1015B000089590912E02892B80932E020895809594
:1015C00090912E02982390932E02089510922E024D
:1015D000089508950E94E90A089590912402292F00
:1015E000282331F080958923809324020E94EA0AFF
:1015F000089508950E94F90A089590912502292FCF
:101600002823281729F0982B909325020E94FA0A84
:10161000089590912502292F282331F08095892360
:10162000809325020E94FA0A08958091250288235A
:1016300029F01092250280E00E94FA0A0895CF93C3
:10164000DF93E0910001F091010180912F028083EE
:10165000E0910001F0910101808190912E02892B8F
:10166000808390912502992381F0E0910001F0910F
:1016700001018081892B808380910001909101017B
:101680000E94621381110E94150BC0910001D0913C
:10169000010148E050E06BE172E0CE010E94941B32
:1016A000892B59F088E0FE01ABE1B2E001900D9288
:1016B0008A95E1F7CE010E940D13DF91CF91089535
:1016C00008950E94600B089590916D0292FF11C0E1
:1016D00098E0899F90011124622B609323020E945D
:1016E000BC06809123028695869586950E94610BA3
:1016F00008950E94BC0608951092230280E00E9483
:10170000610B089590912302809589238093230291
:10171000282F277069F4891759F090916D0292FF74
:1017200007C08695869586950E94CC060E947C0B04
:10173000089590916D0292FB222720F9281769F0F5
:1017400080FB92F990936D0280916C0290916D02F2
:101750000E94E10B82E00E94820B089580916D024D
:1017600082FB882780F991E089270E94990B0895D0
:1017700081E00E94990B089580E00E94990B0895E2
:101780006FEF7FEF90E080E00E94E61B089590E00D
:1017900080E00E94B21B21E0863E9E4F09F020E0CF
:1017A000822F089582E090E00E94AA1B089583E0B2
:1017B00090E00E94AA1B089584E090E00E94B21B72
:1017C0000895BC0184E090E00E94E61B0895AB01FF
:1017D000BC018FE090E00E94DA1B0895AB01BC01D0
:1017E00083E190E00E94DA1B089560E070E0CB0195
:1017F0000E94EE0B089560E070E0CB010E94E70BC1
:101800000E94F50B0895A8E0B0E0E9E0FCE00C943C
:101810006D1B66EE7EEF90E080E00E94E61B60E0CC
:1018200082E090E00E94C81B60E083E090E00E94AC
:10183000C81B1092D9011092D80160E074E184E0D5
:1018400090E00E94E61B60E086E090E00E94C81BEA
:101850006FEF87E090E00E94C81B40E050E0BA01C3
:1018600088E090E00E94DA1B60E084E290E00E9451
:10187000C81B60E087E190E00E94C81B60E08CE03C
:1018800090E00E94C81B60E08DE090E00E94C81BC1
:1018900019821A821B821C821D821E821F82188658
:1018A00048E050E068E170E0CE0101960E94B81B6C
:1018B00040E050E0BA0180E290E00E94DA1B0E9412
:1018C000FB0B2896E2E00C94891B0E94030C089500
:1018D000682F8EE090E00E94C81B0895A6E0B0E05B
:1018E000E4E7FCE00C946B1B0E945F148C01809178
:1018F0003002909131028017910781F019821A828B
:101900000E945F14682F49815A81792F80E090E00E
:101910000E94200310933102009330022696E4E0E7
:101920000C94871B0E946B1460934E0270934F02BD
:10193000809350029093510260934A0270934B023D
:1019400080934C0290934D020895089508950E944B
:10195000A50C089508950E94AA0C089589E89FE0B7
:101960000E9448110E94A60C0E94A70C089581E0D5
:1019700008950E94B70C08950E94B70C0895089529
:1019800008950E94BF0C0E94C00C08950E94A80FE9
:101990000E94F40208950E9456140E949B100E9417
:1019A000C60C0E94AB0C0895A8E0B0E0EAEDFCE0A4
:1019B0000C945D1B0E94B90C811108C00E946E0C32
:1019C0000E9407032896E2E10C94791B0E94B11053
:1019D00082E392E098878F837C0110E0F7014190C9
:1019E0005190619071907F01812F0E94CE0F1F5FF7
:1019F000163009F467C0461657066806790671F373
:101A00008091520281FD0E94D90F0E94BC0C282EA9
:101A100010E033243394812F0E94CE0F6B017C01A0
:101A2000EF81F8854190519061907190F887EF8334
:101A3000C414D504E604F704F1F100E0812C912CE4
:101A4000540183944C245D246E247F24D301C2016D
:101A500088219921AA21BB21892B8A2B8B2BE9F084
:101A60002220D9F009831A830E945F149C838B8300
:101A70003D8221E0D701C60188219921AA21BB21FD
:101A8000892B8A2B8B2B09F420E049815A816B81A9
:101A90007C818D81922F0E9420030F5F880C991CFE
:101AA000AA1CBB1C023191F6EF81F8853497C082E5
:101AB000D182E282F3821F5F163009F0ACCF0E9420
:101AC000920C7ECF461657066806790609F098CF25
:101AD00075CF1F93CF93DF930E94980EEC01C11531
:101AE00080E5D807F0F5C11580E4D80708F09CC060
:101AF000C03ED10520F5CD3CD10508F082C0C83AE2
:101B0000D10578F4C53AD10508F073C0C130D105CC
:101B100019F1209709F1C430D105F0F4D0E0C0E00C
:101B20001BC0C33CD105D0F7C85AD0E0CC0FDD1F95
:101B3000CC5BDE4F0990D881C02DD4640DC0C11597
:101B400080E2D80708F0D1C0C11581E0D80708F0BD
:101B50005AC0C83ED10510F7CE01DF91CF911F9139
:101B60000895C03682E5D80718F5C03482E5D80755
:101B700008F06BC0C03282E5D80708F05FC0C1151D
:101B800082E5D80708F497C02C2F2695269580E289
:101B9000289F900111248C2F8370C1E0D0E002C0F7
:101BA000CC0FDD1F8A95E2F7C22BD32BDD68D4CF93
:101BB000C03A82E5D80760F4C03882E5D80708F457
:101BC00059C0CF71D0E0DC2FCC27C46FD06AC4CF0E
:101BD000C03C82E5D80708F462C0C03E82E5D80761
:101BE00008F09CCFDC2FCC27CC27DF71C06FD06AE8
:101BF000B3CFC55AD0E0C658DE4FC881D0E0D0641C
:101C0000ABCFD065A9CF8D2F0E943A0F182FCE01F0
:101C100099270E94980EC12FD0E0DC2FCC27CC272B
:101C2000DF71C82BD92B98CFCE0199270E94980E2F
:101C3000CC27DF70C82BD92BD06A8ECFCF71D0E0E4
:101C4000DC2FCC27C16FD06A87CF2C2F2695269505
:101C5000277080E2289F900111248C2F8370C1E0AF
:101C6000D0E002C0CC0FDD1F8A95E2F7C22BD32B48
:101C7000DC6872CF2C2F26952695277080E2289F4E
:101C8000900111248C2F8370C1E0D0E002C0CC0FF2
:101C9000DD1F8A95E2F7C22BD32BDA685DCF8C2F3C
:101CA0008F710E943A0FC82FD0E0DC2FCC27CC27B1
:101CB000DF71D06251CF8C2F8F710E943A0F55E0A7
:101CC000D695C7955A95E1F7CF70D0E0DC2FCC2799
:101CD000282F30E084FF05C044E0220F331F4A95CF
:101CE000E1F7C22BD32BD06937CF8D2F8F710E9494
:101CF0003A0F182FCE0199270E94980EC12FD0E0DD
:101D0000DC2FCC27CC27DF71C82BD92BD2CF462F85
:101D1000763030F4623120F4672F0E940302089578
:101D200090E080E008950E94870E0E94690D08955A
:101D300082389105B9F1B0F48133910509F47DC081
:101D400048F48932910509F46DC08A32910509F48D
:101D50007BC008958533910509F45FC089339105EF
:101D600009F10895833E9105D9F138F4803E91053B
:101D700029F1823E910579F10895863E9105D9F1C8
:101D8000873E910509F43EC0843E910541F52091BE
:101D90006D0221FF24C080916C0284FD19C087EE82
:101DA00090E0089520916C02237009F05AC02091B0
:101DB0006D0223FF14C089E290E0089520916C0227
:101DC00020FD38C030916D0230FF09C024FF43C0B0
:101DD00090E080E0089520916C0222FDF7CF0895F5
:101DE00020916C0222FD3AC030916D0230FD39C065
:101DF00024FFF5CFEDCF20916C0223FFF0CF24FD1F
:101E0000E7CFCDCF20916C0223FD2EC030916D0223
:101E100031FFEECF84EE90E0089520916C0225FF13
:101E2000DECFC9CF20916C0225FD21C020916D022B
:101E300023FFD5CF89E390E0D2CF20916C0226FF1B
:101E4000CECF8AE290E0089520916C0226FFC7CFA2
:101E500081E390E0089583EE90E0089582EE90E0B3
:101E6000089580EE90E0089586EE90E0089585E371
:101E700090E0089590916C0292FF10C041E0282FED
:101E80002471243009F040E031E0282F28712830F7
:101E900009F030E0431711F02CE0822793FF10C0C7
:101EA00041E0282F2471243109F040E031E0282F4F
:101EB0002871283109F030E0431711F02CE0822717
:101EC00030916D0230FF10C051E0282F2171213078
:101ED00009F050E041E0282F2871283009F040E057
:101EE000541711F029E0822731FF10C041E0282F5C
:101EF0002171213109F040E031E0282F287128318B
:101F000009F030E0431711F029E0822794FD877E25
:101F1000089580E008950E94C00B08950E94B110BA
:101F20002FEF86E791E0215080409040E1F700C01C
:101F300000000E94B11080E00E94CE0F60FF04C03C
:101F40000E948B0F0E94AA1408950E948E0F08957C
:101F50000E94C70B811102C00E94650C0E94D20B27
:101F6000809352020E94DC0B90936D0280936C026E
:101F70000E94A50F0E94D70B90E00E9480068091DE
:101F8000D6019091D7010E94A106089508950E945C
:101F9000C60F089508950E94CA0F089594E0899F7E
:101FA000F0011124EA57FD4F608171818281938194
:101FB0000895089580EA8A95F1F7089500C008957C
:101FC0000E94DA0F0895F894E82FE295EF70F0E0A0
:101FD00031A1282F2F7081E090E001C0880F2A9551
:101FE000EAF7982F9095932391A392A1892B82A32E
:101FF000789408950F931F93CF93DF93CFE8D1E0A8
:1020000089918F3F11F00E94E30F81E0C539D80715
:10201000B9F7CDE7D1E00FE811E089918F3F11F0DA
:102020000E94E30F0C171D07C1F7DF91CF911F919D
:102030000F9108958F929F92AF92BF92DF92EF928D
:10204000FF920F931F93CF93DF938C01D62EC62F51
:10205000D0E0CE0181579E4F7C01FC0120812F3FB3
:1020600009F45DC0F894E22FE295EF70F0E031A141
:102070002F7081E090E001C0880F2A95EAF7932F36
:10208000982B91A392A18095892382A378940E9492
:10209000DE0FEDE7F1E041E050E060E070E0812C20
:1020A000912C540181918F3F89F0A82FA295AF7098
:1020B000B0E090962C9130E08F7002C03595279556
:1020C0008A95E2F7DB01CA0120FF03C080E090E0BF
:1020D000DC01882A992AAA2ABB2A440F551F661FA9
:1020E000771F81E0EF38F807E9F6F70180818F3F2D
:1020F00011F00E94E30F61E081149104A104B10486
:1021000009F460E08D2D0E94E00FCC0FDD1FCC0F95
:10211000DD1FC00FD11F88829982AA82BB82DF9106
:10212000CF911F910F91FF90EF90DF90BF90AF90F4
:102130009F908F9008950E94FA0F88E1E6E8F2E000
:10214000DF01982F1D929A95E9F7EEE6F2E0DF01A4
:102150001D928A95E9F786E00E94EC100E94C70F55
:102160000895A8E1B0E0E7EBF0E10C946A1B8E0162
:102170000F5F1F4F88E1F80111928A95E9F7F12C62
:102180006F2DC8010E941A10F394F6E0FF12F8CFE9
:1021900048E150E0B8018EE692E00E94941B21E0F5
:1021A000009709F420E0892B41F088E1F801AEE6C0
:1021B000B2E001900D928A95E1F746E066E872E0A0
:1021C0008EE692E00E94ED10182F0E94CB0F812F17
:1021D0006896E5E00C94861B0895CF92DF92EF920B
:1021E000FF920F931F93CF936C017B01042F222347
:1021F00049F081E0809355020E945F14909354024D
:1022000080935302C0915502C1110AC0C0E08C2FC7
:10221000CF911F910F91FF90EF90DF90CF90089595
:1022200080915302909154020E947714059770F3A5
:1022300084E0089F80011124A801B601C7010E9413
:10224000941B892B41F0A801B601C7010E94A11B74
:1022500010925502DCCFC0E0FBCF0E942D160E94E9
:10226000CB0C0E943A1608950E943F160E94D40C8F
:102270000E94591608950E94F8130E9413160E9496
:10228000AE0C0E942D110E9434110E94C10CFBCF94
:1022900090939701809396010895CF93DF93EC017B
:1022A000FB018581882309F4D2C09E013057233277
:1022B000310508F0B2C00E94DC0B90936D02809350
:1022C0006C02FE01E150F047E232F10520F4E65FD6
:1022D000F34E0C94571B80916C02816080936C02CA
:1022E00093C080916D02886080936D028DC0809153
:1022F0006C028260F3CF80916C028460EFCF80919A
:102300006C028860EBCF80916D028160EDCF80918F
:102310006D028260E9CF80916C028061DFCF809195
:102320006C028062DBCF80916C028064D7CF0E9408
:10233000330680916C028068D1CF80916C028C60F2
:10234000CDCF80916D028360CFCF80916C028E7F64
:10235000C5CF80916D02877FC7CF80916C028D7F42
:10236000BDCF80916C028B7FB9CF80916C02877F4B
:10237000B5CF80916D028E7FB7CF80916D028D7F3A
:10238000B3CF80916C028F7EA9CF80916C028F7D3C
:10239000A5CF80916C028F7BA1CF0E9433068091E4
:1023A0006C028F779BCF80916C02837F97CF809157
:1023B0006D028C7F99CF80916C0282FB992790F9F6
:1023C00021E0922790FB82F990FB83F987CF8091DF
:1023D0006D02982F909591708E7F892B90FB81F9DB
:1023E00083CF90916C02892F8F7B96FF806476CF8C
:1023F0000E94330690916C02892F97FB87F98058D1
:102400006DCF81E00E94680C80916C0290916D020A
:102410000E94E10B0E94330680E0DF91CF91089586
:1024200080E0F0CF90916C02892F8F7E94FF8061C5
:1024300055CF90916C02892F8E7F90FF81604ECF97
:1024400090916D02892F877F93FF88604DCF81E047
:10245000E4CFCF93DF93EB0186319C4711F50E94C7
:10246000C60A9D81992399F08A7A91E009F490E057
:1024700090935602811109C089E20E949E0A0E942F
:102480001F0B80E0DF91CF91089585E3F6CF809117
:102490005602811104C089E20E94A60AF0CF85E3AA
:1024A000FBCF81E0EFCF0F931F93CF93DF93C42F28
:1024B000D22FFC0185818823C9F0409359020E94E4
:1024C0005F14909358028093570280E28C0F8830FB
:1024D00040F4C77081E001C0880FCA95EAF70E94F6
:1024E000E803DF91CF911F910F9108951091590248
:1024F000141332C080915702909158020E947714B1
:10250000883C910548F5C0E2CD0F1D17B9F080E277
:10251000810F883040F4177081E001C0880F1A9550
:10252000EAF70E94EF03C83048F481E09D2F9770CE
:1025300001C0880F9A95EAF70E94E803802F0E9455
:10254000DF03C83070F6D77081E001C0880FDA95DC
:10255000EAF70E94EF03C5CF80E28C0F883008F6BF
:10256000C77081E001C0880FCA95EAF7F2CF0F93D8
:10257000DB0188519C4787309105A0F5FC01E45DA3
:10258000F34E0C94571B06E221EE41EE6AE17CE724
:10259000CD010E94531280E00F91089507E225EECD
:1025A00045EE6BE17CE7F4CF06E221EE40EE68E118
:1025B0007CE7EECF07E225EE44EE69E17CE7E8CF69
:1025C00006E221EE42EE6CE17CE7E2CF07E225EE87
:1025D00046EE6DE17CE7DCCF08E221E045EE6EE1FE
:1025E0007CE7D6CF15968C91882319F0109259026A
:1025F000D3CF81E0D1CF90935F0280935E020895A4
:10260000E0915E02F0915F02309729F00190F08135
:10261000E02D0995089580E00895E0915E02F09123
:102620005F02309721F00280F381E02D0995089533
:10263000A3E0B0E0EEE1F3E10C946D1B20915C02AD
:1026400030915D0228173907A1F090935D028093C5
:102650005C02E0915E02F0915F02309751F023E05E
:1026600029839B838A830680F781E02DCE01019622
:1026700009952396E2E00C94891BA3E0B0E0E3E423
:10268000F3E10C946D1B20915A0230915B022817E4
:102690003907A1F090935B0280935A02E0915E02A9
:1026A000F0915F02309751F024E029839B838A8365
:1026B0000680F781E02DCE01019609952396E2E090
:1026C0000C94891B9C012E5F3F4FAC01485F5F4F0C
:1026D00080E02417350709F40895F90191919F01CD
:1026E0009923B9F38F5FF5CF662349F0FC01329649
:1026F00008962191261729F0E817F907D1F780E00D
:10270000089581E008959C01FC0132969FEF80E0DE
:102710004191461751F09F3F19F4411101C0982F84
:102720008F5F8630A9F79F3F09F40895290F311D67
:1027300097FD3A95F90162830895FC013296089657
:102740002191261303C0DF0111971C92E817F907A6
:10275000B9F708950E94831308950E949D13089568
:10276000029626E0FC0111922A95E9F70895089552
:102770000E94B7130895811106C081E08093600222
:102780000E94B813089582E0F9CF83E0809360023D
:102790000E94B81308950E94BB13089581E08093AE
:1027A00060020E94B81308950E94CE130895089500
:1027B00008950E94D8130895089508950E94D7138C
:1027C0000895CF930E94DC130E94B1100E94DD1384
:1027D000C0E08C2F0E94CE0F672B682B692B31F441
:1027E000CF5FC630B1F780E0CF91089581E0FCCF94
:1027F00085B7806885BF85B7806885BF08951F92BB
:102800001FB61F9211248F939F93AF93BF93809114
:102810006102811113C080919E0290919F02A0914C
:10282000A002B091A1024196A11DB11D80939E020C
:1028300090939F02A093A002B093A102BF91AF9189
:102840009F918F911F901FBE1F9018958091A60297
:10285000843031F10E94D7021092610288E190E049
:1028600020E40FB6F894A895809360000FBE2093E3
:10287000600083B7817F846083BF83B7816083BF3B
:102880007894889583B78E7F83BF0FB6F894A89508
:1028900080916000886180936000109260000FBE9C
:1028A00008950E9433060E94DC02089582E084BDF0
:1028B00093E095BD9AEF97BD80936E0008952FB772
:1028C000F89480919E0290919F02A091A002B091F5
:1028D000A1022FBF08952FB7F89460919E027091C6
:1028E0009F028091A0029091A1022FBF08959C01A8
:1028F0004FB7F89480919E0290919F02A091A00200
:10290000B091A1024FBF821B930B089578941F9240
:102910001FB61F9211248F939F93AF93BF93809103
:102920009E0290919F02A091A002B091A1020196F7
:10293000A11DB11D80939E0290939F02A093A002BF
:10294000B093A102BF91AF919F918F911F901FBE35
:102950001F90189581E08093E00080E28093D8007A
:102960001092C9008FE19EE40197F1F700C00000CA
:1029700087E090EBDC018093AF029093B002A093CC
:10298000B102B093B20288E19CE00FB6F894A8952A
:10299000809360000FBE90936000FFCF88E19CE0C1
:1029A0000FB6F894A895809360000FBE90936000D6
:1029B000FFCF80916A02089508959B01BA0190911A
:1029C000A6029430E9F48F708093E9009FEF809124
:1029D000E800915085FD06C085ED8A95F1F700006D
:1029E0009111F5CF8091E80085FF0AC050E040E0EA
:1029F000C9010E94D0168091E8008E778093E8008C
:102A0000089543E050E0BC0182E00E94DD14089587
:102A1000CF93DF93EC0148E050E0BC0181E00E94DD
:102A2000DD1488E0FE01A2E6B2E001900D928A95E5
:102A3000E1F7DF91CF9108958091A502811109C03E
:102A40000E9460180E94BD188091E200846080930B
:102A5000E20008951092A50208950E94CE130895F1
:102A60006091A20281E0611101C080E00E94C51363
:102A700008959091A60281E0943009F080E0609181
:102A8000A2020E94CB13089542E061EC81E00E9413
:102A9000DC1742E261EC82E00E94DC179091A60212
:102AA00081E0943009F080E06091A2020E94BB13A3
:102AB00008958091A802833009F461C030F4813018
:102AC000D1F1823009F49EC008958A3009F48AC099
:102AD0008B3009F46FC0893009F050C08091A70293
:102AE000813209F04BC08091AB029091AC02029709
:102AF00008F044C08091E800877F8093E8008091CF
:102B0000E80082FF37C09091F3008091F2000297B5
:102B100031F48091F100813011F0863021F4809100
:102B2000F10080936A028091E8008B778093E8003F
:102B30000E94101823C08091A702813AF9F4809175
:102B4000E800877F8093E8008091AB029091AC020F
:102B5000892B61F468E082E692E070E00E941F1722
:102B60008091E8008B778093E800089560E090E022
:102B700080E0F3CF8091A6028111C1CF08958091AA
:102B8000A702813AD9F78091AB029091AC02892BD0
:102B9000A9F78091E800877F8093E8008091E800A2
:102BA00080FFFCCF80910A018093F1008091E800C2
:102BB0008E77BCCF8091A702813201F78091AB0262
:102BC0009091AC02892BD1F68091E800877F8093A9
:102BD000E8000E9410188091A90280930A010E94C7
:102BE000330608958091A702813241F68091E80072
:102BF000877F8093E8000E9410188091AA0280933A
:102C00006B0208958091A702813A09F0B7CF8091B5
:102C1000E800877F8093E8008091E80080FFFCCF88
:102C200080916B02C1CF84B7877F84BF0FB6F894C1
:102C3000A895809160008861809360001092600088
:102C40000FBE80E890E00FB6F894809361009093F7
:102C500061000FBE0E94D41308950E9460180E9464
:102C6000BD18E2EEF0E080818460808378940E9459
:102C70003C1B089582E091E00E94FB120895809130
:102C8000A602853031F48091A602853019F00E94A9
:102C9000511408950E9426148091A402882399F368
:102CA0000E94E113882379F30E94BA160E9433062A
:102CB000EACF08959A014091AD025091AE020E9470
:102CC00062160895492F55274330510519F168F4CC
:102CD0004130510509F444C04230510509F445C062
:102CE00090E080E050E040E025C04132510549F1DC
:102CF00042325105A9F784E490E045E153E06115C3
:102D00007105C1F082E390E043EE52E0613071055D
:102D100089F0E6CF99278130910581F0009729F05D
:102D20000297F1F6ECE5F2E002C0E2E9F2E084910C
:102D300090E0AF01F901518340830895E8E7F2E0A4
:102D4000F6CF89E090E048EA52E06115710591F311
:102D500089E090E041EC52E06130710559F3C0CF59
:102D600082E190E041ED52E0E5CF8BE390E046E96F
:102D700052E0E0CF80E189BD82E189BD09B400FE67
:102D8000FDCF8091D8008F7D8093D8008091E000A6
:102D900082608093E0008091E00081FDFCCF089587
:102DA000AF92BF92CF92DF92FF920F931F93CF9378
:102DB000DF936C01EB018A010E942F18F82E81111C
:102DC00023C00115110539F0F80180819181C81BDC
:102DD000D90BC80ED91EB12CA12C2097A9F0809137
:102DE000E80085FD22C08091E8008E778093E8009E
:102DF00001151105A1F0F80180819181A80EB91E7D
:102E0000B182A08285E0F82E8F2DDF91CF911F91A6
:102E10000F91FF90DF90CF90BF90AF9008950E94E8
:102E20002F188823D1F2F82EEFCFF60181916F0190
:102E30008093F1002197FFEFAF1ABF0ACECFFC01BC
:102E40008091AD029091AE0286179707A0F06115B0
:102E5000710529F49091E8009E779093E80090E046
:102E60006115710551F4911108C08091E80082FF4D
:102E700034C080E00895BC01F2CF8091A60288237F
:102E8000C1F18530C1F18091E80083FD30C08091AF
:102E9000E80082FDEACF8091E80080FFE1CF8091D9
:102EA000F3002091F200382F6115710519F02830D8
:102EB000310558F091E02830310509F090E020917B
:102EC000E8002E772093E800CBCF81918093F1002A
:102ED000615071092F5F3F4FE7CF8091A602882391
:102EE00041F0853041F08091E80083FFBECF81E062
:102EF000089582E0089583E00895FC018091AD0279
:102F00009091AE0286179707A0F06115710529F41C
:102F10008091E8008E778093E80090E0611571055C
:102F200051F4911108C08091E80082FF35C080E023
:102F30000895BC01F2CF8091A6028823C9F18530A3
:102F4000C9F18091E80083FD31C08091E80082FDE5
:102F5000EACF8091E80080FFE1CF8091F3002091DB
:102F6000F200382F6115710519F02830310558F03D
:102F700091E02830310509F090E08091E8008E77EB
:102F80008093E800CBCF84918093F100319661501B
:102F900071092F5F3F4FE6CF8091A602882341F051
:102FA000853041F08091E80083FFBDCF81E0089536
:102FB00082E0089583E00895982F973028F08F706D
:102FC0008093E90081E008959093E900242F762F03
:102FD00050E0981731F07091EC002091ED00509185
:102FE000F00021FD02C09F5FE8CF3091EB003E7FF3
:102FF0003093EB003091ED003D7F3093ED00309148
:10300000EB0031603093EB007093EC002093ED0007
:103010005093F0002091EE0027FDE5CF80E0089569
:103020008091A70287FF13C08091E80082FF06C04D
:103030008091E8008B778093E80004C08091A6021D
:103040008111F2CF08958091A6028823D9F380914F
:10305000E80080FFF8CF8091E8008E77ECCF2091D8
:10306000E4003091E50095E6A9012091EC00822F63
:10307000817020FF06C08091E80080FF06C080E0DC
:1030800008952091E80022FD1AC08091A6028823AD
:1030900089F0853089F08091EB0085FD0FC020918B
:1030A000E4003091E50042175307F9F29150E1F640
:1030B00084E0089582E0089583E0089581E0089512
:1030C0000E94CF180E94D718E0EEF0E08081816066
:1030D0008083E8EDF0E080818F77808319BCA7EDD5
:1030E000B0E08C918E7F8C9380818F7E8083109254
:1030F000A50208950F931F93CF93DF930E94CF18DB
:103100000E94D718C8EDD0E088818F7788838881A6
:103110008068888388818F7D888319BC1092A6027D
:103120001092A2021092A4021092A30200EE10E0EC
:10313000F80180818B7F808388818160888342E071
:1031400060E080E00E94DC17E1EEF0E080818E7F9D
:103150008083E2EEF0E080818160808380818860FE
:103160008083F80180818E7F80838881806188835D
:10317000DF91CF911F910F910895E8EDF0E08081EC
:103180008F7E8083E7EDF0E080818160808384E042
:1031900082BF81E08093A5020E947A180895E8ED2D
:1031A000F0E080818E7F80831092E200089510927B
:1031B000DA001092E10008951F920F920FB60F925D
:1031C00011242F933F934F935F936F937F938F932C
:1031D0009F93AF93BF93EF93FF938091E10082FFA2
:1031E0000BC08091E20082FF07C08091E1008B7FDD
:1031F0008093E1000E943B1B8091DA0080FF19C0A0
:103200008091D80080FF15C08091DA008E7F809376
:10321000DA008091D90080FF96C080E189BD82E10B
:1032200089BD09B400FEFDCF81E08093A6020E9413
:103230001C158091E10080FF19C08091E20080FFA1
:1032400015C08091E2008E7F8093E2008091E200C1
:1032500080618093E2008091D80080628093D800E2
:1032600019BC85E08093A6020E9430158091E10090
:1032700084FF2BC08091E20084FF27C080E189BDDC
:1032800082E189BD89B5982F917080FFFBCF809135
:10329000D8008F7D8093D8008091E1008F7E80934D
:1032A000E1008091E2008F7E8093E2008091E20055
:1032B00081608093E2008091A202882309F449C0D2
:1032C00084E08093A6020E9439158091E10083FF7B
:1032D00029C08091E20083FF25C08091E100877FB3
:1032E0008093E10082E08093A6021092A202809176
:1032F000E1008E7F8093E1008091E2008E7F8093D9
:10330000E2008091E20080618093E20042E060E0B0
:1033100080E00E94DC178091F00088608093F000CC
:103320000E942D15FF91EF91BF91AF919F918F91C9
:103330007F916F915F914F913F912F910F900FBEB1
:103340000F901F90189519BC1092A6020E942A1582
:1033500070CF8091E30087FD93E09093A602B3CFF6
:103360001F920F920FB60F9211242F933F934F93FA
:103370005F936F937F938F939F93AF93BF93CF93FD
:10338000DF93EF93FF93D091E900DF708091EC0021
:10339000C82FC17080FDC0E81092E9008091F00054
:1033A000877F8093F00078940E94F4191092E900CE
:1033B0008091F00088608093F000CD2BCF70C09397
:1033C000E900FF91EF91DF91CF91BF91AF919F9174
:1033D0008F917F916F915F914F913F912F910F90BE
:1033E0000FBE0F901F901895AAE2B0E0EAEFF9E146
:1033F0000C946C1B87EA92E02091F100FC01219370
:10340000CF01F2E08F3A9F07B9F70E9459158091DA
:10341000E80083FF1EC18091A7029091A8029A3014
:1034200008F017C1E92FF0E0ED5CF34E0C94571B48
:10343000803899F0823809F00CC18091AB028F700E
:10344000873008F006C18093E9008091EB0085FB8E
:10345000882780F91092E90006C08091A30290911C
:10346000A402911182609091E800977F9093E80008
:103470008093F1001092F1008091E8008E77E5C012
:10348000882309F4D3C0823009F0E3C08091A902F7
:103490008111D6C08091AB028F702FEF280F26309C
:1034A00008F0D7C08093E9002091EB0020FFC8C04E
:1034B000933031F48091EB0080628093EB00C0C0C8
:1034C0009091EB0090619093EB0021E030E001C01F
:1034D000220F8A95EAF72093EA001092EA00809181
:1034E000EB008860EACF8111B4C01091A9021F7768
:1034F0008091E3008078812B8093E3008091E80045
:10350000877F8093E8000E9410188091E80080FF78
:10351000FCCF8091E30080688093E30082E011118A
:1035200083E08093A60295C08058823008F091C055
:103530008091A9029091AA028C3D23E09207A1F507
:1035400083E08A838AE289834FB7F894DE01139679
:1035500020E03EE051E2E32FF0E050935700E49189
:1035600020FF03C0E295EF703F5FEF708E2F90E079
:10357000EA30C0F0C7968D939D932F5F243159F7A1
:103580004FBF8091E800877F8093E8006AE270E097
:10359000CE0101960E941F178091E8008B778093DF
:1035A000E80057C0C096E7CF6091AB027091AC02C3
:1035B000AE014F5F5F4F0E945A16BC01892B09F480
:1035C00048C09091E800977F9093E80089819A81A4
:1035D0000E947D17E1CF8038E1F58091E800877F78
:1035E0008093E8008091A2028093F10045CF811181
:1035F00030C09091A902923060F58091E800877FF9
:103600008093E8009093A2020E9410188091A20279
:10361000882311F084E005C08091E30087FDFACF94
:1036200081E08093A6020E94441513C08091A902F4
:10363000813079F481E0933009F080E08093A40236
:103640001092E9008091E800877F8093E8000E9453
:1036500010188091E80083FF0AC08091E800877FFE
:103660008093E8008091EB0080628093EB00AA9643
:10367000E3E00C94881B0895CF938091A6028823E1
:10368000A1F0C091E900CF709091EC00892F81707A
:1036900090FD80E8C82B1092E9008091E80083FD3E
:1036A0000E94F419CF70C093E900CF910895EE0FF6
:1036B000FF1F0590F491E02D09942F923F924F92B5
:1036C0005F926F927F928F929F92AF92BF92CF92B2
:1036D000DF92EF92FF920F931F93CF93DF93CDB7BB
:1036E000DEB7CA1BDB0B0FB6F894DEBF0FBECDBF33
:1036F00009942A88398848885F846E847D848C8404
:103700009B84AA84B984C884DF80EE80FD800C810C
:103710001B81AA81B981CE0FD11D0FB6F894DEBFEF
:103720000FBECDBFED010895FB01DC0104C08D91FA
:103730000190801921F441505040C8F7881B990B23
:103740000895FB01DC0102C001900D9241505040F0
:10375000D8F70895F999FECF92BD81BDF89A9927BF
:1037600080B50895A8E1B0E042E050E00C94EE1B73
:10377000DC01A40FB51F4150504048F0CB01840F2D
:10378000951F2E910E94C91B41505040D0F70895BB
:10379000262FF999FECF92BD81BDF89A019700B40A
:1037A000021639F01FBA20BD0FB6F894FA9AF99AAA
:1037B0000FBE08950396272F0E94C91B0E94C81BA5
:1037C000252F0E94C91B242F0C94C91B0196272F5B
:1037D0000E94C91B0C94C81BDC01CB01FC01F999A8
:1037E000FECF06C0F2BDE1BDF89A319600B40D924D
:1037F00041505040B8F70895F894FFCF3504350490
:1038000085048504EA0464046404640406057705F9
:1038100086058605A5111912AD1177117B11B1111D
:103820007F11B511C1118B1112128F11C511931196
:10383000C911F1119711CD11F8119D11D311DB119F
:103840008311B9118711BD11A111D711E71101120F
:1038500010127111A9112012D412DA12C312CE1251
:10386000E012E612EC12181A401A291B401A291B02
:0A387000731A941A291BEB1AF71AB9
:10387A002602D9140815DC14011501E200E900EA50
:10388A0000B500B600B700CD008301CC008A0192D2
:10389A000194012102230224022502260227022A78
:1038AA0002B300B4006F0070009F01CB019F02A019
:1038BA0002818283E200E900EA00B500B600B7009F
:1038CA00CD008301CC008A019201940121022302D6
:1038DA0024022502260227022A02B300B4006F003E
:1038EA0070009F01CB019F02A002818283F0F1F454
:1038FA00F5F6F7676636353497969593929190C6A2
:06390A0094333130370058
:00000001FF
