:100000000C94FC010C9434020C9434020C943402D1
:100010000C9434020C9434020C9434020C94340288
:100020000C9434020C9434020C9428180C94E417A9
:100030000C9433190C9434020C9434020C94340252
:100040000C9434020C9434020C9434020C94340258
:100050000C9434020C940F190C9434020C94340256
:100060000C9434020C9434020C9434020C94340238
:100070000C9434020C9434020C9434020C94340228
:100080000C9434020C9434020C9434020C94340218
:100090000C9434020C9434020C9434020C94340208
:1000A0000C9434020C9434020C94340229001E0087
:1000B0001F0020002100220023002400250026002C
:1000C00027002D002E0031002A002B0014001A00FA
:1000D0000800150017001C0018000C001200130087
:1000E0002F00300031000000390004001600070026
:1000F00009000A000B000D000E000F003300340051
:10010000310028000000E10064001D001B00060013
:100110001900050011001000360037003800E50016
:10012000E5000000E000E300E20000000000000045
:100130002C00000000000000E600E700E400E400FE
:1001400000000100010001000100010001000100A8
:100150000100010001000100010001000100010097
:100160000100010001000100010001000100010087
:100170000100010001000100010001000000010078
:100180000100010001000100010001000100010067
:100190000100010001000100010000000100010058
:1001A0000100010001000100010001000100010047
:1001B0000100010001000100000001000100010038
:1001C000000000000000010000000000000001002D
:1001D000010001000100000000000000000000001C
:1001E000000000000000000000000000000000000F
:1001F0000000000000000000000000007E0F00D49E
:10020000FFFFFFC7000000780000000000000000B2
:100210002A2B280000000000000000000000000061
:1002200000000029000000002C1E3420212224346C
:100230002627252E362D3738271E1F20212223243E
:1002400025263333362E37381F0405060708090ADA
:100250000B0C0D0E0F101112131415161718191A76
:100260001B1C1D2F3130232D350405060708090AF4
:100270000B0C0D0E0F101112131415161718191A56
:100280001B1C1D2F3130354C05010902A1018502CF
:100290000901A10005091901290815002501950882
:1002A000750181020501093009311581257F95020B
:1002B0007508810609381581257F95017508810625
:1002C000050C0A38021581257F950175088106C045
:1002D000C005010980A101850319012AB700150194
:1002E00026B700950175108100C0050C0901A10118
:1002F000850419012AA002150126A0029501751096
:100300008100C005010906A1018506050719E0293C
:10031000E7150025019508750181020507190029D7
:10032000EF1500250195F0750181020508190129D5
:1003300005950575019102950175039101C00501AF
:100340000906A101050719E029E71500250195080F
:10035000750181029501750881010507190029FFC2
:10036000150026FF0095067508810005081901296A
:1003700005150025019505750191029501750391FB
:1003800001C009023B00020100A0FA0904000001BB
:100390000301010009211101000122440007058128
:1003A00003080001090401000103000000092111F4
:1003B00001000122B600070582032000011201009E
:1003C0000200000008766735610100010200010E9D
:1003D0000347004100310035002E003000000012BC
:1003E000034700760061006C0063006800630061F1
:1003F000000000040309040011241FBECFEFDAE05F
:10040000DEBFCDBF04B603FE18C080917B02909181
:100410007C02A0917D02B0917E028730904BA74074
:10042000B04B59F410927B0210927C0210927D0224
:1004300010927E02E0E0F8E3099511E0A0E0B1E05F
:10044000E2EAFAE302C005900D92AC35B107D9F7A4
:1004500022E0ACE5B1E001C01D92AB37B207E1F795
:100460000E945A190C94101D0C940000482F2091E2
:10047000770290913E0257E0291302C080E0089570
:1004800030E0529FF001539FF00D1124E15CFD4FCD
:100490008181681306C08081481303C08581811162
:1004A000EECF2F5F3F4F2770E7CFE8EDF0E0808180
:1004B0008E7F80831092E2001092DA001092E100A9
:1004C000A0EEB0E08C9181608C9380818F778083E7
:1004D00019BCA7EDB0E08C918E7F8C9380818F7ECC
:1004E00080831092290208952091E4003091E50064
:1004F00095E6A9012091EC00822F817020FF06C0B3
:100500008091E80080FF06C080E008952091E80017
:1005100022FD1AC080913402882389F0853089F049
:100520008091EB0085FD0FC02091E4003091E50043
:1005300042175307F9F29150E1F684E0089582E002
:10054000089583E0089581E008958091360287FF41
:1005500013C08091E80082FF06C08091E8008B778D
:100560008093E80004C0809134028111F2CF089595
:10057000809134028823D9F38091E80080FFF8CF7E
:100580008091E8008E77ECCF982F9093E900242F8C
:10059000762F50E0891731F07091EC002091ED003A
:1005A0005091F00021FD07C09F5F973071F7809355
:1005B000E90081E008953091EB003E7F3093EB003D
:1005C0003091ED003D7F3093ED003091EB003160D4
:1005D0003093EB007093EC002093ED005093F0000B
:1005E0002091EE0027FDE0CF80E00895B0E0A0E08C
:1005F000ECEFF2E00C94701CC8EDD0E088818F7EA7
:100600008883E7EDF0E080818160808384E082BFB1
:1006100081E08093290288818E7F888302EE10E03A
:10062000F80110821092DA0081EEC82ED12CF6016A
:10063000108288818F778883888180688883888109
:100640008F7D888319BC109234021092350210926B
:1006500033021092320290EEE92EF12CF7018081E4
:100660008B7F808388818160888342E060E080E0C6
:100670000E94C402F60180818E7F8083F801808110
:1006800081608083808188608083F70180818E7F94
:100690008083888180618883CDB7DEB7E8E00C94E1
:1006A0008C1CFC0180913C0290913D0286179707BB
:1006B000A0F06115710529F49091E8009E77909360
:1006C000E80090E06115710551F4911108C0809126
:1006D000E80082FF34C080E00895BC01F2CF809131
:1006E00034028823C1F18530C1F18091E80083FD97
:1006F00030C08091E80082FDEACF8091E80080FF61
:10070000E1CF8091F3002091F200382F611571053F
:1007100019F02830310558F091E02830310509F002
:1007200090E02091E8002E772093E800CBCF8191D4
:100730008093F100615071092F5F3F4FE7CF8091A7
:100740003402882341F0853041F08091E80083FF36
:10075000BECF81E0089582E0089583E008959C0172
:100760004FB7F8948091250290912602A09127021C
:10077000B09128024FBF821B930B08952FB7F894B6
:100780008091250290912602A0912702B091280223
:100790002FBF089580910B01089590910C01913025
:1007A000D1F49091220297FF16C0E82FE695E695C6
:1007B000E695EE31E0F4F0E0EA59FE4F282F27707D
:1007C00081E090E001C0880F2A95EAF78095928138
:1007D000892382830895E0E6F1E09191891303C0B3
:1007E000DF0111971C9291E0E636F907B1F7089501
:1007F00090910C019130C1F49091220297FF14C0A6
:10080000E82FE695E695E695EE31F8F4F0E0EA5942
:10081000FE4F877021E030E001C0220F8A95EAF791
:100820008281822B82830895A0E6B1E0EFEF90E011
:100830002D91821751F0EF3F19F4211101C0E92FDA
:100840009F5F9630A9F7EF3F09F408950E2E000C34
:10085000FF0BE25AFE4FE6CFA3E0B0E0E2E3F4E0A4
:100860000C94761C20912002309121022817390720
:10087000A1F09093210280932002E0911E02F0915A
:100880001F02309751F024E029839B838A830084E0
:10089000F185E02DCE01019609952396E2E00C94B6
:1008A000921CA3E0B0E0E7E5F4E00C94761C209104
:1008B0001C0230911D0228173907A1F090931D02E8
:1008C00080931C02E0911E02F0911F02309751F0BC
:1008D00023E029839B838A830084F185E02DCE0168
:1008E000019609952396E2E00C94921CE0911E0279
:1008F000F0911F02309729F00190F081E02D0995C9
:10090000089580E008950E94BE039C019091180212
:1009100080911902982B21F0309315022093140234
:1009200090911A0280911B02982B21F030931302B0
:1009300020931202E0911E02F0911F02309749F0BD
:1009400082E0809316020680F781E02D86E192E036
:10095000099508958091110280FD16C081FD16C091
:1009600082FD16C0809110028823A1F0883280F4A5
:1009700028E0829FC001112468E270E00E944C1CB4
:10098000862F672B39F0089582E0089584E008955A
:1009900088E0089581E008958091110280FD14C0DF
:1009A00081FD14C082FD16C080910F02882381F062
:1009B0008E3180F420E5829FC00111246EE170E049
:1009C0000E944C1C862F089584E1089588E20895C2
:1009D00088E0089580E50895282F35EB2303C001B2
:1009E000112497FF04C080589109892F08958058D9
:1009F0009F4FFBCF80E00895F894E82FE295EF70C9
:100A0000F0E031A1282F2F7081E090E001C0880F25
:100A10002A95EAF7982F9095932391A392A1892B79
:100A200082A3789408959091220292FF10C041E031
:100A3000282F2471243009F040E031E0282F28715C
:100A4000283009F030E0431711F02CE0822793FFA3
:100A500010C041E0282F2471243109F040E031E03A
:100A6000282F2871283109F030E0431711F02CE0CD
:100A700082273091230230FF10C051E0282F2171CE
:100A8000213009F050E041E0282F2871283009F08A
:100A900040E0541711F029E0822731FF10C041E0F7
:100AA000282F2171213109F040E031E0282F2871F1
:100AB000283109F030E0431711F029E0822794FD36
:100AC000877E089582389105B9F1B0F4813391059C
:100AD00009F47DC048F48932910509F46DC08A3269
:100AE000910509F47BC008958533910509F45FC031
:100AF0008933910509F10895833E9105D9F138F4C0
:100B0000803E910529F1823E910579F10895863E56
:100B10009105D9F1873E910509F43EC0843E9105C7
:100B200041F52091230221FF24C08091220284FDFF
:100B300019C087EE90E0089520912202237009F0F9
:100B40005AC02091230223FF14C089E290E0089547
:100B50002091220220FD38C03091230230FF09C0CD
:100B600024FF43C090E080E008952091220222FDFE
:100B7000F7CF08952091220222FD3AC0309123023E
:100B800030FD39C024FFF5CFEDCF2091220223FFA5
:100B9000F0CF24FDE7CFCDCF2091220223FD2EC040
:100BA0003091230231FFEECF84EE90E00895209142
:100BB000220225FFDECFC9CF2091220225FD21C0D0
:100BC0002091230223FFD5CF89E390E0D2CF20915B
:100BD000220226FFCECF8AE290E0089520912202E1
:100BE00026FFC7CF81E390E0089583EE90E008955B
:100BF00082EE90E0089580EE90E0089586EE90E019
:100C0000089585E390E00895972F7530B8F46F301C
:100C1000A8F48230B0F470E02FE0929F600D711D57
:100C20001124FB019BE4899FE00DF11D1124EE0FBF
:100C3000FF1FE455FF4F85919491089580E090E067
:100C4000089581E0FCCF1F93CF93DF930E9462054C
:100C5000EC01C11580E5D807F0F5C11580E4D8078F
:100C600008F09CC0C03ED10520F5CD3CD10508F070
:100C700082C0C83AD10578F4C53AD10508F073C0EE
:100C8000C130D10519F1209709F1C430D105F0F434
:100C9000D0E0C0E01BC0C33CD105D0F7C85AD0E0BB
:100CA000CC0FDD1FCF5EDE4F0990D881C02DD464FC
:100CB0000DC0C11580E2D80708F0D1C0C11581E090
:100CC000D80708F05AC0C83ED10510F7CE01DF9111
:100CD000CF911F910895C03682E5D80718F5C0342A
:100CE00082E5D80708F06BC0C03282E5D80708F06B
:100CF0005FC0C11582E5D80708F497C02C2F269550
:100D0000269580E2289F900111248C2F8370C1E0EA
:100D1000D0E002C0CC0FDD1F8A95E2F7C22BD32BA7
:100D2000DD68D4CFC03A82E5D80760F4C03882E5E8
:100D3000D80708F459C0CF71D0E0DC2FCC27C46F9E
:100D4000D06AC4CFC03C82E5D80708F462C0C03E78
:100D500082E5D80708F09CCFDC2FCC27CC27DF71A9
:100D6000C06FD06AB3CFC55AD0E0C25FDE4FC88132
:100D7000D0E0D064ABCFD065A9CF8D2F0E941305F2
:100D8000182FCE0199270E946205C12FD0E0DC2FD9
:100D9000CC27CC27DF71C82BD92B98CFCE01992730
:100DA0000E946205CC27DF70C82BD92BD06A8ECF6A
:100DB000CF71D0E0DC2FCC27C16FD06A87CF2C2F2A
:100DC00026952695277080E2289F900111248C2F6C
:100DD0008370C1E0D0E002C0CC0FDD1F8A95E2F73E
:100DE000C22BD32BDC6872CF2C2F2695269527702B
:100DF00080E2289F900111248C2F8370C1E0D0E005
:100E000002C0CC0FDD1F8A95E2F7C22BD32BDA6824
:100E10005DCF8C2F8F710E941305C82FD0E0DC2F7F
:100E2000CC27CC27DF71D06251CF8C2F8F710E94DD
:100E3000130555E0D695C7955A95E1F7CF70D0E0E8
:100E4000DC2FCC27282F30E084FF05C044E0220FA0
:100E5000331F4A95E1F7C22BD32BD06937CF8D2FA3
:100E60008F710E941305182FCE0199270E946205E9
:100E7000C12FD0E0DC2FCC27CC27DF71C82BD92B9A
:100E8000D2CF80959091E40198239093E401089546
:100E90008091E4019091BB01892B9091BA01992333
:100EA00091F0892B90910C01913071F49091220274
:100EB00097FF0AC09EE128E631E040E0915040F4FF
:100EC00041111092BA01089596E020E631E0F5CF85
:100ED000F90151919F01552389F34F5FEFCF809125
:100EE000770290913E02981301C008958F5F87703A
:100EF000FACFB0E0A0E0EFE7F7E00C946F1C7C01C4
:100F00000091F6011091F7018091F4019091F501A3
:100F1000082B192BCFE0D0E0CC24C394D12CBC2ECD
:100F2000C6010C2E02C0880F991F0A94E2F7802395
:100F30009123892B49F4219790F7B12C8B2DCDB7B4
:100F4000DEB7E9E00C948B1CB7018C2F0E940406DD
:100F50000E942306019779F3F1CFCF93DF93EC0141
:100F60000E947907BE010E9404060E942306DF91B9
:100F7000CF910895953078F58F3068F5E82FF0E03F
:100F80008FE0989FE00DF11D11249E2F977083E054
:100F9000F695E7958A95E1F7EE0FFF1FEE0FFF1F1D
:100FA000E657FE4F50E040E080E0219130E0092E0E
:100FB00002C0369527950A94E2F721703327042E54
:100FC00001C0220F0A94EAF7822B4F5F5F4F443033
:100FD000510559F7089580E00895953098F58F30C0
:100FE00088F5E82FF0E08FE0989FE00DF11D1124C7
:100FF0008E2F877041E001C0440F8A95EAF783E0A5
:10100000F695E7958A95E1F7EE0FFF1FEE0FFF1FAC
:10101000E657FE4F30E020E070E05191DF0111977C
:10102000CB01022E02C0969587950A94E2F7817053
:1010300081958527842385278C932F5F3F4F24300C
:10104000310559F708959093F7018093F6010895BB
:1010500021E030E002C0220F331F8A95E2F720958D
:1010600030958091F6019091F701822393230E949D
:10107000230808959091B901809589238093B9013F
:10108000282F277069F4891759F09091230292FF55
:1010900007C08695869586950E9428081092B9010A
:1010A000089521E030E002C0220F331F8A95E2F755
:1010B0008091F6019091F701822B932B0E942308D7
:1010C00008959093F5018093F4010895FC01248123
:1010D0002223C1F0808191810E94AD0792959F707B
:1010E000963091F058F4925F9F70923058F4803FA0
:1010F00019F030F4883E30F481E008959A5FF4CF1F
:10110000843FD1F380E00895883EB0F3813FD1F76A
:10111000F3CF662309F45DC08D3C41F40E94CC04FA
:101120008195809319020E94830408958E3C19F4DE
:101130000E94CC04F6CF8F3C31F40E94CC04819500
:1011400080931802F0CF803D19F40E94CC04F8CFB0
:10115000893D29F40E94AA0480931A02E4CF8A3DB3
:1011600021F40E94AA048195F7CF8B3D31F40E94AF
:10117000AA04819580931B02D6CF8C3D19F40E945E
:10118000AA04F8CF9FE2980F983070F4815D990B14
:1011900021E030E001C0220F8A95EAF78091170222
:1011A000822B80931702BFCF8D3D31F480911102C5
:1011B000816080931102B7CF8E3D21F4809111029E
:1011C0008260F7CF8F3D09F0AECF8091110284602D
:1011D000F0CF409118028D3C59F48091190287FF9D
:1011E0000DC01092190241110BC010920F0208C0DD
:1011F0008E3C81F48091190218169CF3442381F0EF
:1012000080911A0290911B02892B09F08CCF1092C9
:10121000100289CF8F3C49F447FFF0CF109218029B
:10122000809119028111ECCFE0CF803D19F41416A2
:10123000ACF3E4CF90911A02893D29F41916F4F623
:1012400010921A02DBCF8A3D19F497FFD7CFF8CF5F
:1012500090911B028B3D29F497FFD0CF10921B0277
:10126000CDCF8C3D19F41916CCF3C8CF9FE2980F5F
:10127000983090F4815D990B21E030E0B90102C013
:10128000660F771F8A95E2F7CB0180959091170240
:10129000892380931702B2CF8D3D31F480911102E2
:1012A0008E7F80931102AACF8E3D21F4809111028E
:1012B0008D7FF7CF8F3D09F0A1CF809111028B7FF9
:1012C000F0CFA6E0B0E0E7E6F9E00C94751C4983A6
:1012D0005A8349815A819923A1F0222391F0CA01AE
:1012E0000E947907182F682F89819A810E94ED0743
:1012F00069817A81812F0E9404062696E3E00C948E
:10130000911CCA010E94BA07182FF2CF9C019A952E
:1013100081159F4130F4832F817031FF03C08260BB
:10132000089580E008950F931F93CF93DF938B016F
:10133000EA0190913402943061F58093E9008FEFD7
:101340009091E800815095FD06C095ED9A95F1F7D2
:1013500000008111F5CF8091E80085FF1AC00E943E
:101360007402811111C08091E80085FD06C0809152
:10137000E8008E778093E800F2CFF80181918F0129
:101380008093F100219779F78091E8008E77809320
:10139000E800DF91CF911F910F91089543E050E055
:1013A000BC0182E00E949309089546E050E0BC0130
:1013B00082E00E949309089540E250E0BC0182E07F
:1013C0000E9493090895CF93DF93EC0148E050E029
:1013D000BC0181E00E94930988E0FE01AAE2B2E02C
:1013E00001900D928A95E1F7DF91CF91089581E008
:1013F0008093E00080E28093D8001092C9008FE1D2
:101400009EE40197F1F700C0000087E090EBDC015B
:1014100080937B0290937C02A0937D02B0937E0226
:1014200088E19CE00FB6F894A895809360000FBE09
:1014300090936000FFCF80930E02682F8CE090E0C5
:101440000E94CF1C08959091230292FB222720F93D
:10145000281779F080FB92F9909323026091220281
:101460007091230284E090E00E94ED1C82E00E94D3
:101470003A08089580910C01813059F5809122023B
:1014800087FF27C00E9448078093670140E250E031
:101490006CEB71E086E691E00E94031D892BC1F0A0
:1014A00080E2E6E6F1E0ACEBB1E001900D928A95C6
:1014B000E1F7E0911E02F0911F02309749F086E0BB
:1014C000809366010480F581E02D86E691E0099520
:1014D00008950E94480780935E0148E050E06CED5B
:1014E00071E08EE591E00E94031D892B89F388E06D
:1014F000EEE5F1E0ACEDB1E001900D928A95E1F7F7
:10150000E0911E02F0911F02309711F30280F381E7
:10151000E02D8EE591E0DBCF1092E40180910C018B
:10152000813039F58091220287FF23C0E8E6F1E09F
:101530008EE1DF011D928A95E9F790E080E00E943C
:10154000510490E080E00E942C041092BB010E94A4
:101550003A0A86E0E6E1F2E0DF011D928A95E9F7BA
:1015600010920F0210921002109211020E94830436
:101570000895E0E6F1E086E0DCCFAAE2B0E0E3EC3B
:10158000FAE00C94751C86E392E02091F100FC01D6
:101590002193CF01F2E08E339F07B9F78091370294
:1015A000833009F470C0B8F4813009F447C0823048
:1015B00009F4B5C08091E80083FF89C280913602AA
:1015C000909137029A3008F082C2E92FF0E0EE5E87
:1015D000F24E0C94601C8A3009F490C08B3009F4F0
:1015E0006FC0893039F780913602813219F78091C6
:1015F0003A0290913B020297E8F68091E800877FDB
:101600008093E8008091E80082FF38C09091F30059
:101610008091F200029731F48091F100813011F055
:10162000863021F48091F10080930B018091E800D5
:101630008B778093E8000E94A502BCCF8091360290
:10164000813A09F0B7CF8091E800877F8093E80066
:1016500080913A0290913B02892B61F468E08AE222
:1016600092E070E00E9451038091E8008B778093B4
:10167000E800A0CF60E090E080E0F3CF80913402FA
:101680008111C0CF97CF80913602813A09F092CF75
:1016900080913A0290913B02892B09F08BCF809187
:1016A000E800877F8093E8008091E80080FFFCCF0E
:1016B00080910C018093F1008091E8008E77B9CF82
:1016C00080913602813209F075CF80913A02909173
:1016D0003B02892B09F06ECF8091E800877F8093D1
:1016E000E8000E94A50281E090913802911101C0AA
:1016F00080E080930C010E948C0A5CCF80913602BE
:10170000813209F057CF8091E800877F8093E8000D
:101710000E94A5028091390280930A014BCF8091EB
:101720003602813A09F046CF8091E800877F8093A6
:10173000E8008091E80080FFFCCF80910A01BACFD9
:10174000803899F0823809F0C2C180913A028F70D6
:10175000873008F0BCC18093E9008091EB0085FBE5
:10176000882780F91092E90006C08091320290919A
:101770003302911182609091E800977F9093E80086
:101780008093F1001092F1008091E8008E779BC168
:10179000882309F489C1823009F099C18091380207
:1017A00081118CC180913A028F702FEF280F263063
:1017B00008F08DC18093E9002091EB0020FF7EC1ED
:1017C000933031F48091EB0080628093EB0076C11E
:1017D0009091EB0090619093EB0021E030E001C02C
:1017E000220F8A95EAF72093EA001092EA0080918E
:1017F000EB008860EACF81116AC1109138021F772F
:101800008091E3008078812B8093E3008091E80051
:10181000877F8093E8000E94A5028091E80080FF06
:10182000FCCF8091E30080688093E30082E0111197
:1018300083E0809334024BC18058823008F047C166
:1018400080913802909139028C3D23E09207A1F5F6
:1018500083E08A838AE289834FB7F894DE01139686
:1018600020E03EE051E2E32FF0E050935700E49196
:1018700020FF03C0E295EF703F5FEF708E2F90E086
:10188000EA30C0F0C7968D939D932F5F243159F7AE
:101890004FBF8091E800877F8093E8006AE270E0A4
:1018A000CE0101960E9451038091E8008B778093CE
:1018B000E8000DC1C096E7CF40913A0250913B023B
:1018C000292F33272330310509F444C078F521301E
:1018D000310509F46FC08BE390E0E2E8F3E02230D9
:1018E000310509F0F4C02091E800277F2093E8003B
:1018F00020913C0230913D028217930708F49C012D
:1019000040E02115310509F064C0411162C08091A9
:10191000E80082FDC9CF80913402882329F2853006
:1019200019F28091E80083FFF2CFBECF213231055A
:10193000A9F12232310509F0CAC04115510509F457
:1019400043C04130510509F0C2C086EB90E0E8E8A1
:10195000F2E0C9CF992781309105C1F0009759F085
:10196000029709F0B4C0EFECF3E0E4918E2F90E021
:10197000EFECF3E007C0E3EFF3E0E4918E2F90E0AB
:10198000E3EFF3E0009709F4A2C0ADCFEFEDF3E091
:10199000E4918E2F90E0EFEDF3E0F4CF4115510587
:1019A00071F04130510509F092C089E090E0EDEA14
:1019B000F3E099CF82E190E0EDEBF3E094CF89E0A2
:1019C00090E0E4E9F3E08FCF84E490E0EEE3F3E02D
:1019D0008ACF80913402882309F466CF853009F4D8
:1019E00063CF8091E80083FD5FCF8091E80082FDA6
:1019F0008ECF8091E80080FF84CF9091F30080919A
:101A0000F2002115310519F08830910550F041E0C0
:101A1000089709F040E08091E8008E778093E80015
:101A200070CF44914093F1003196215031090196D5
:101A3000E8CF803809F04BC08091E800877F809321
:101A4000E800809135028093F1009ECE81113FC065
:101A5000109138021230D8F58091E800877F80938A
:101A6000E800109335020E94A502112311F084E0D2
:101A700005C08091E30087FDFACF81E080933402B6
:101A800042E061EC81E00E94C40242E261EC82E04B
:101A90000E94C40280913402843021F081E080935E
:101AA0000D0115C082E0FBCF80913802813079F4BE
:101AB00081E0933009F080E0809333021092E900D6
:101AC0008091E800877F8093E8000E94A5028091C2
:101AD000E80083FF0AC08091E800877F8093E800D8
:101AE0008091EB0080628093EB00AA96E3E00C9477
:101AF000911C0E948C0A2FEF84E39CE021508040CF
:101B00009040E1F700C0000088E19CE00FB6F89437
:101B1000A895809360000FBE90936000FFCF88234C
:101B200041F080959091BB0189238093BB010E9475
:101B30003A0A0895882339F09091BB01982B90932D
:101B4000BB010E943A0A0895882321F00E944107B0
:101B50000E943A0A0895882339F09091E401982B65
:101B60009093E4010E943A0A0895882381F19CEF42
:101B7000980F913A28F40E94CD030E943A0A0895E2
:101B800090E2980F983050F4877091E001C0990F5F
:101B90008A95EAF7892F0E944107EFCF9BE5980FBE
:101BA000933028F490E080E00E945104089598E575
:101BB000980F9B3128F490E080E00E942C04089557
:101BC00093E3980F933118F460E00E948908089518
:101BD000CF93C82F8823B9F18CEF8C0F813AA8F5E9
:101BE00080910C01813001F58091220287FF1CC099
:101BF000EC2FE695E695E695F0E0EA59FE4F8281F6
:101C000090E04C2F477021E030E002C0220F331FDC
:101C10004A95E2F782239323892B81F08C2F0E942F
:101C2000CD030E943A0A0AC0E0E6F1E086E691E0C0
:101C30002191C21799F38E179F07D1F78C2F0E941D
:101C4000F8030E943A0ACF91089580E28C0F883001
:101C500068F4C77021E030E001C0220FCA95EAF7AE
:101C60008091E401822B8093E401EBCFEBE5EC0F54
:101C7000E33040F4F0E0E25FFE4F808190E00E94AC
:101C80005104E1CFE8E5EC0FEB3150F4F0E0EE0F5A
:101C9000FF1FEF5EFE4F808191810E942C04D3CF05
:101CA00083E38C0F833178F661E08C2F0E948908E2
:101CB000CACF1F93CF93DF93182FEB010E94E80D3B
:101CC000209739F4812F0E94B50DDF91CF911F919C
:101CD00008958FE99FE00197F1F700C00000219778
:101CE000EFCF70E060E0893311F460E570E00E94AE
:101CF000590E08950F931F93CF93DF93C62FD42FC0
:101D0000022FFC0185818823A9F060937A020E944A
:101D1000BE039093790280937802C77081E001C07E
:101D2000880FCA95EAF70E94AB0DDF91CF911F9102
:101D30000F91089580917A02681332C080917802E1
:101D4000909179020E94AF03883C910548F510E21A
:101D50001D0FCD17B9F080E28C0F883040F4C770AA
:101D600081E001C0880FCA95EAF70E94A40D1830DF
:101D700048F481E09D2F977001C0880F9A95EAF78B
:101D80000E94AB0D802F0E94710E183070F6D77034
:101D900081E001C0880FDA95EAF70E94A40DC5CF53
:101DA000C77081E001C0880FCA95EAF7F6CFB0E0AE
:101DB000A0E0EDEDFEE00C94711CE82FF0E0E85F90
:101DC000FD4FD490282F26952695269530E0F901D1
:101DD000E850FE4F0491877010E0082E02C0159560
:101DE00007950A94E2F701701127F901E851FE4FB7
:101DF000E490F12C082E02C0F594E7940A94E2F7DF
:101E000091E0E922FF24F901E852FE4FC491D0E0AD
:101E100002C0D595C7958A95E2F7C170DD270115F7
:101E2000110519F081EE0E94E80DE114F10419F09A
:101E300086EE0E94E80D70E060E08D2D0E94590E44
:101E4000E114F10419F086EE0E94B50D011511059B
:101E500019F081EE0E94B50DCD2B19F08CE20E9495
:101E6000710ECDB7DEB7E7E00C948D1C90910E0299
:101E7000923071F48A3050F490E009966AE070E094
:101E80000E944C1C875A0E94710E08958650FBCF09
:101E900096EF980F963020F0805D0E94D70E08953F
:101EA000895AFBCF8F929F92AF92BF92EF92FF928F
:101EB0000F931F93CF93DF934B015C01D0910E02E0
:101EC0008CE1E82EF12C07E010E021E0D501C401FF
:101ED0000E2C04C0B695A795979587950A94D2F7CE
:101EE000C82FCF70222339F0D43051F4CA3040F0DB
:101EF00080E00E94360F8C2F0E94360F20E005C034
:101F0000C111F9CF04301105B4F30150110984E077
:101F1000E81AF1080F3F1007C9F6DF91CF911F9122
:101F20000F91FF90EF90BF90AF909F908F9008958A
:101F3000CF92DF92EF92FF920F931F93CF938C017A
:101F40007B016C0180EEC81AD108C8010E94860985
:101F5000C82F98E0C916D104D0F40E94AB0D802F91
:101F60000E94E80DE114F104A9F4802F0E94B50D40
:101F700088E0C816D104C0F48C2F0E94A40DCF9124
:101F80001F910F91FF90EF90DF90CF9008950E94E6
:101F90009A0DE5CF8FE99FE00197F1F700C00000AF
:101FA00091E0E91AF108DECF8C2F0E948F0DE7CF68
:101FB000B0E0A0E0EEEDFFE00C946E1C8C01FC01A3
:101FC0008481882309F419C121E040815181628113
:101FD000738195810E946109EC01F8018581882354
:101FE00001F1C433FCE7DF0709F481C050F4C233C8
:101FF0003CE7D30799F0C3338CE7D80791F481E02D
:102000000EC0C6339CE7D90709F475C008F471C047
:10201000C733FCE7DF0729F485E001C080E00E94B8
:102020001B0AF8018581882309F4C7C0D7FFC5C002
:102030000E9476048093870190910E02913029F4DA
:1020400081FF03C089E30E94710E8091E4018093B7
:1020500086011092E4011092BB0180910E02823041
:1020600009F46CC008F049C0882309F45CC08130D1
:1020700009F45DC0EFE3FCE93197F1F700C000001F
:10208000BE017F7790E080E00E94520F80910E02A7
:10209000823009F487C008F06AC0882309F473C04D
:1020A000813009F474C0809186018093E401F801C5
:1020B0008581882309F453C410927A029E01305717
:1020C0002332310508F036C484E090E00E94B91C48
:1020D0009093230280932202FE01E150F047E23206
:1020E000F10508F0A6C0E45EF24E0C94601C82E09C
:1020F00096CF83E094CF84E092CF843099F18530FD
:1021000009F0B8CF70E060E08BE191E00E94980F99
:1021100070E060E085E290E00E94980F70E060E07F
:1021200088E290E008C082EE0E94E80DA3CF70E044
:1021300060E088E193E00E94980F9CCF8091870136
:1021400080FD03C083E50E94710E82EE0E94E80DBF
:102150008FE39CE90197F1F700C0000087E50E943A
:10216000710E88CF86EE0E94710E88E1F8CF843020
:1021700011F1853009F097CF70E060E088E290E0DF
:102180000E94980F90CF82EE0E94B50D8CCF8CE20A
:102190000E94710E8091870181FF85CF89E30E94A3
:1021A000710E81CF82EE0E94B50D8091870180FD76
:1021B0007ACF83E5F4CF88E2F2CFFE01E851FC4705
:1021C000E730F10508F073CFE25CF24E0C94601C2E
:1021D00026E241EE61EEC8010E947A0E8091B901BB
:1021E000877059F0F8018581882339F080912302A6
:1021F00082FF03C082E00E943A08CDB7DEB7EAE072
:102200000C948A1C27E245EE65EEE5CF26E241EE0E
:1022100060EEE1CF27E245EE64EEDDCF26E241EE4F
:1022200062EED9CF27E245EE66EED5CF28E241E057
:10223000EBCF8091220281608093220295C0809131
:1022400023028860809323028FC0809122028260E3
:10225000F3CF809122028460EFCF809122028860C8
:10226000EBCF809123028160EDCF809123028260C9
:10227000E9CF809122028061DFCF809122028062CB
:10228000DBCF809122028064D7CF0E948C0A80919C
:1022900022028068D1CF809122028C60CDCF8091C4
:1022A00023028360CFCF809122028E7FC5CF8091A1
:1022B0002302877FC7CF809122028D7FBDCF80917F
:1022C00022028B7FB9CF80912202877FB5CF809188
:1022D00023028E7FB7CF809123028D7FB3CF809171
:1022E00022028F7EA9CF809122028F7DA5CF80917F
:1022F00022028F7BA1CF0E948C0A809122028F77CD
:102300009BCF80912202837F97CF809123028C7F85
:1023100099CF8091220282FB992790F921E09227A0
:1023200090FB82F990FB83F987CF80912302982F4D
:10233000909591708E7F892B90FB81F983CF90913E
:102340002202892F8F7B96FF806476CF0E948C0AB1
:1023500090912202892F97FB87F980586DCF61E019
:102360008EE090E00E94CF1C6091220270912302C7
:1023700084E090E00E94ED1C0E948C0A2FCF60E068
:10238000EFCF90912202892F8F7E94FF806154CFEE
:1023900090912202892F8E7F90FF81604DCF909186
:1023A0002302892F877F93FF88604CCF85E3D2C2B9
:1023B00085E3DFC29E01205E324520323105A8F45C
:1023C000811115C0CF7181E090E09C0102C0220F05
:1023D000331FCA95E2F7E901622F83E090E00E9483
:1023E000CF1CCE010E946108F9CE882381F0C33052
:1023F0003CE7D30709F478C008F05BC0C1159CE73F
:10240000D90709F464C0C130DC4709F473C0F8018E
:102410008581C081D181882309F47AC0CE010E94D0
:102420007907F82E682FCE010E94ED07BE018F2D8F
:102430000E9404060E942306D82FC92FA82EF80157
:10244000C580B680B2943FE0B3228091B901877015
:1024500009F1EC2CCC20F9F0892F807F803469F0D1
:1024600080E28D0F8830B0F0892F807E803229F491
:10247000F1E0FD1778F4BB2069F08091230282FF20
:1024800009C082E00E943A088091B9018770EE2469
:10249000E3948111E12CDC2ED2942FE0D2222BE0A8
:1024A0002D1508F49AC0ED2DF0E0EB5BF24E0C9484
:1024B000601CCB35FCE7DF0749F1CC352CE7D207B0
:1024C000D9F0CA35DC4709F0A2CF81E01CC00E94D8
:1024D0008C0A8FEF94E3ECE081509040E040E1F70C
:1024E00000C000000E94F7096FEF7FEF90E080E0EE
:1024F0000E94ED1C0E94790D8091230282FB8827A7
:1025000080F991E089270E94230A81CF80E0FBCFE8
:10251000CE010E94BA07F82E89CF3C2F3F70F32ED0
:10252000C07F19F0F29490EFF922CC20B9F0FF208F
:1025300069F080E28D0F883010F0A11009C0809101
:10254000E401F82AF092E4010E943A0A8D2F43C078
:102550008091BB01F82AF092BB01F6CF8D2F0E942B
:10256000B50DFF20D1F1D05ED83010F0A11004C01D
:102570008F2D0E94410706C0F0948091BB01F82284
:10258000F092BB010E943A0A28C08C2F8F70F82E5F
:10259000C07FC03219F0F29480EFF822AA2059F0DF
:1025A00091E0A91609F478C0CC2009F484C0BB20BE
:1025B00009F446C0CBCF8091230282FD3DC0CC20E0
:1025C000A9F1FF2039F08091E401F82AF092E401AA
:1025D0000E943A0A80E00E94E80DED2DE850FF0BC2
:1025E000349710F40E947604EE20A9F08091B9018E
:1025F00080FD11C0F80115828695869586950E940A
:102600005108C8010E94D80F8091B901869586951E
:1026100086950E94280820E0F8014081518162815E
:102620007381848195810E946109E7CD80E00E94D9
:10263000B50DFF2091F29CCFCC20A1F0B11004C0C9
:102640008F2D0E94AB0DC9CFE1E0BE12C6CF8091A5
:10265000BA019F2D9823F91609F4BFCFF82AF092FA
:10266000BA01BBCFB110B9CF8F2D0E94A40D9091AC
:10267000BA018F2D892329F08F2D8095892380938E
:10268000BA01809189019F2D982309F4A6CFF09477
:10269000F822F0928901A1CFCC2029F0F5E0FB15BA
:1026A00008F49BCFCDCF24E02B1508F496CF8F2DC7
:1026B0000E94A40D92CFBB20D1F339E3A31209C02D
:1026C0008FEF97EEE3E081509040E040E1F700C0EB
:1026D00000008D2F0E94B50D80CF8C2F869586959A
:1026E000837069F0813009F078CF8D2F9C2F937023
:1026F000C11002C080E090E00E942C046ECF8D2FAC
:102700009C2F9370C11002C080E090E00E945104A1
:1027100064CF6C2D8D2F0E9489085FCF8C2F837022
:1027200009F03FC0C11059CF4D2F429546954770D3
:10273000440F440F2D2F2F7030E0042E02C0220FC3
:10274000331F0A94E2F790E080E0D4FF09C08FE0E5
:1027500090E002C0880F991F4A95E2F78095909506
:10276000C695C695C370C23099F078F44091F401D3
:102770005091F501C13039F0822B932B842395239E
:102780000E9461082ACF242B352B822B932BF8CF64
:10279000822B932B2091F4013091F501822793270E
:1027A000EFCF8695CC2011F08C2F8170882309F40F
:1027B00014CF4D2F429546954770440F440F2D2F4F
:1027C0002F7030E0042E02C0220F331F0A94E2F76C
:1027D00090E080E0D4FF09C08FE090E002C0880F55
:1027E000991F4A95E2F780959095C695C695C37056
:1027F000C23099F078F44091F6015091F701C13060
:1028000039F0822B932B842395230E942308E5CE55
:10281000242B352B822B932BF8CF822B932B2091BB
:10282000F6013091F70182279327EFCFCF70CC20AC
:1028300029F08C2F0E9451088D2F03CF8D2F0E94DD
:10284000A40D8C2F0E942808C8CE8D2FF2EFAF1652
:1028500099F1FA1570F020EFA216D1F031EFA3161E
:1028600091F0CC2009F456C0B11070CE8C2F8F712E
:1028700027C093EFA91639F1E4EFAE12F2CF909191
:10288000230292FD2EC08C2F8F71CC20D9F218C05C
:10289000CC2069F0F4E0FB1508F49FCECF7181E005
:1028A00090E002C0880F991FCA95E2F7B8CF25E0E3
:1028B0002B1508F492CEF2CF8C2F8F71C110C2CF9E
:1028C0000E9451088ACE90E080E0CC2009F49DCF90
:1028D000CF7181E090E002C0880F991FCA95E2F79E
:1028E00094CFCC2061F08C2F8F7192FFE9CF98E0CC
:1028F000899F9001112423602093B901E1CF81E0E9
:102900000E943A08E1E0EB1508F067CE82E00E94F1
:102910003A0863CEBB2059F0893309F0DACEFFEFD5
:1029200027EE33E0F15020403040E1F7D0CE8C2F3D
:102930008F7188CFC631FCE7DF0709F03BCD80916E
:10294000E4018A7A91E009F490E090938801811182
:102950002DCD89E20E94F8030E943A0A3FCCC6318D
:102960002CE7D20709F026CD80918801811120CD76
:1029700089E20E94CD03F0CFCF93DF938091B8011D
:10298000807F09F04DC08091B701882309F448C0C9
:10299000E091770250913E02C091B301D091B20113
:1029A0006091B4017091B50147E05E17C9F18E2FB7
:1029B00090E0E49FF0011124E15CFD4F248122238B
:1029C00091F1489FF001499FF00D1124DF01A15CB6
:1029D000BD4F11962C9111972C1325C02C912D13BE
:1029E00022C015962C91159721111DC012962D917C
:1029F0003C91261B370B283C3105A8F48091B80187
:102A00008F7080618093B801EB5BFD4F80818F7088
:102A10008061808382EB91E00E94D80F0E946F0753
:102A2000DF91CF910895FC013196E770BECFA4E10C
:102A3000B0E0EDE1F5E10C946C1C8C0186E0F8014E
:102A4000DE011F9601900D928A95E1F7F8018481CD
:102A5000E58092EBA92E91E0B92E9091B6019111EB
:102A600028C0882319F1EE20F1F0C8010E94660801
:102A7000F82E8823C1F087E0F801D50101900D926E
:102A80008A95E1F78091B601813031F48091B201ED
:102A90009091B3010E94AD070E94BC148F2D6496E3
:102AA000ECE00C94881CC8010E94D80FFF24F3941A
:102AB000F5CFD080C18082809380F090B7012091C3
:102AC000B4013091B501A401421B530BFF2009F45E
:102AD000D9C0483C510508F092C08823F9F2909182
:102AE000B3018091B801282F207F09F056C0C91288
:102AF00014C09091B201D91210C0E11048C08F707B
:102B000080618093B80182EB91E00E94D80F8091A0
:102B1000B801F8018683F12CC1CFE11038C06C2DCB
:102B20008D2D0E9436026C2D8D2D0E943602E82ECE
:102B30008111F1CFDF86C88A8F8598890E94AD0701
:102B4000292F22952F70243058F49F70223088F05E
:102B5000992399F0F8019681907F79F4FE2C9ECF0D
:102B60002A5F2F70223068F0C8010E94D80FEF2C26
:102B7000F5CF992311F0882389F3805E883070F3B4
:102B8000F3CF803F58F3815F833070F7E7CF8091B8
:102B9000B80181608093B801BECFC91207C090917F
:102BA000B201D91203C0EE2009F48DC0C8010E9401
:102BB0006608882309F477CFEE2009F474CF80915A
:102BC000B801803288F02091B2013091B301398789
:102BD00028879B868A869091B6019C871D868E8762
:102BE000CE0108960E94D80F87E0F801A2EBB1E071
:102BF00001900D928A95E1F70E94BC1457CF9091F5
:102C0000B801292F207F51F482EB91E00E94D80F68
:102C100087E0F50111928A95E9F77DCF882309F4C1
:102C20003DCF8091B3018C1110C08091B201D812B8
:102C30000CC0E1100AC09683C8010E94D80F87E03B
:102C4000F50111928A95E9F729CFC8010E9466081B
:102C5000882309F428CFEE2009F425CF8091B8010C
:102C6000803210F22091B2013091B3013A8329836E
:102C70009C828B829091B6019D831E828F83CE01B0
:102C80000196B0CF483C5105D0F6882309F40ECF09
:102C9000FE2CEE2009F407CF8091B3018C1120C0E7
:102CA0008091B201D8121CC08091B80180FD0FC084
:102CB000982F907F61F08683903F31F0982F907F1E
:102CC000905F8F70892B8683C8010E94D80F87E0A0
:102CD000F801A2EBB1E001900D928A95E1F7DECE0A
:102CE000C8010E94660881117FCF8091B801816080
:102CF0008093B801C8010E94D80FD0CEABE1B0E0FC
:102D0000E4E8F6E10C94741C4E8B5F8B688F798F2E
:102D10008A8F9B8F192F91111092BB011D8A86E01B
:102D2000FE017696DE011F9601900D928A95E1F7DD
:102D30000A8D002341F021E04F85588969897A89FD
:102D4000C8010E9461090B8B1C8B87E0FE013F9636
:102D5000DE01189601900D928A95E1F7CE01089652
:102D60000E94171581112AC087E0FE013896DE0106
:102D7000119601900D928A95E1F78C858823F1F0E8
:102D800020913E0230E0C901019687709927409159
:102D9000770248171906E9F097E0929FD001939FB8
:102DA000B00D1124A15CBD4FFE01319601900D9232
:102DB0009A95E1F780933E020E946F0717E0809199
:102DC000770290913E02891312C06B96E4E00C9456
:102DD000901C0E948C0A10923E021092770287E0AB
:102DE000E2EBF1E0DF011D928A95E9F7E7CF819FE1
:102DF000C0011124815C9D4F0E941715882329F37F
:102E00008091770290E001968770992780937702EE
:102E1000D6CFA6E0B0E0EFE0F7E10C94741C0E947E
:102E2000BE038C018091E5019091E6018017910726
:102E300081F019821A820E94BE03682F49815A814B
:102E4000792F80E090E00E947E161093E6010093B7
:102E5000E5012696E4E00C94901CAAE0B0E0E3E3E0
:102E6000F7E10C94681C8E010F5F1F4F8AE0F80198
:102E700011928A95E9F797E4E92E91E0F92E68011D
:102E80002CE4422E21E0522E66246394712C4BE5F3
:102E9000842E41E0942EF70181917F018F3F09F448
:102EA00045C0F894E82FE295EF70F0E021A18F7013
:102EB000A30102C0440F551F8A95E2F7CA01922F61
:102EC000982B91A392A18095892382A3789400C026
:102ED000ECE4F1E021E030E0B12CA12C41914F3F36
:102EE00009F44BC0A42FA295AF70B0E090968C91DE
:102EF00090E04F7002C0959587954A95E2F780FD66
:102F00003CC0C901A82AB92A220F331F8E169F067A
:102F100029F7F701319780818F3F11F00E94FC045F
:102F200050EA5A95F1F7F601B182A082F2E0CF0E95
:102F3000D11C4E145F0409F0AECF4AE050E0B80156
:102F40008AEE91E00E94031D892BE1F08AE0F801EE
:102F5000AAEEB1E001900D928A95E1F781E08093AD
:102F6000E9010E94BE039093E8018093E70110E01D
:102F7000812F2A96E0E10C94841C90E080E0C2CF7F
:102F800010E01FC01091E901112389F38091E7013E
:102F90009091E8010E94AF03059748F34AE050E0A2
:102FA0006AEE71E088EF91E00E94031D892B41F3E6
:102FB0008AE0EAEEF1E0A8EFB1E001900D928A9587
:102FC000E1F71092E901D4CF1F920F920FB60F9242
:102FD00011242F933F934F935F936F937F938F931E
:102FE0009F93AF93BF93CF93DF93EF93FF93D091D2
:102FF000E900DF708091EC00C82FC17080FDC0E84F
:103000001092E9008091F000877F8093F00078941F
:103010000E94BD0A1092E9008091F00088608093C0
:10302000F000CD2BCF70C093E900FF91EF91DF91BD
:10303000CF91BF91AF919F918F917F916F915F9150
:103040004F913F912F910F900FBE0F901F901895A9
:103050001F920F920FB60F9211242F933F934F930D
:103060005F936F937F938F939F93AF93BF93EF93F0
:10307000FF938091E10082FF09C08091E20082FF0E
:1030800005C08091E1008B7F8093E1008091DA00A0
:1030900080FF24C08091D80080FF20C08091DA009A
:1030A0008E7F8093DA008091D90080FFAAC080E1F2
:1030B00089BD82E189BD09B400FEFDCF81E0809326
:1030C000340280912902811109C00E9455020E9498
:1030D000F6028091E20084608093E2008091E1003A
:1030E00080FF1AC08091E20080FF16C08091E2004C
:1030F0008E7F8093E2008091E20080618093E20005
:103100008091D80080628093D80019BC85E08093BC
:10311000340283E080930D018091E10084FF30C090
:103120008091E20084FF2CC080E189BD82E189BDED
:1031300099B5892F817090FFFBCF9091D8009F7D2A
:103140009093D8009091E1009F7E9093E100909140
:10315000E2009F7E9093E2009091E2009160909354
:10316000E20090913502992309F451C094E09093C4
:10317000340290913402943009F482E080930D017E
:103180008091E10083FF2CC08091E20083FF28C082
:103190008091E100877F8093E10082E08093340298
:1031A000109235028091E1008E7F8093E100809142
:1031B000E2008E7F8093E2008091E2008061809344
:1031C000E20042E060E080E00E94C4028091F000F2
:1031D00088608093F00081E080930D0180930C0162
:1031E000FF91EF91BF91AF919F918F917F916F91DF
:1031F0005F914F913F912F910F900FBE0F901F90B5
:10320000189519BC109234021092290267CF909140
:10321000E30097FD02C0982FAACF93E0A8CF78943F
:103220001F921FB61F9211248F939F93AF93BF934A
:103230008091250290912602A0912702B091280248
:103240000196A11DB11D8093250290932602A093A3
:103250002702B0932802BF91AF919F918F911F9049
:103260001FBE1F9018951F921FB61F9211248F9397
:103270009F93AF93BF9380912402811113C08091DB
:10328000250290912602A0912702B0912802419632
:10329000A11DB11D8093250290932602A0932702C1
:1032A000B0932802BF91AF919F918F911F901FBE45
:1032B0001F901895CDB7DEB72E970FB6F894DEBFE6
:1032C0000FBECDBF85B7806885BF85B7806885BFD5
:1032D00084B7877F84BF0FB6F894A895809160006B
:1032E000886180936000109260000FBE80E890E0DB
:1032F0000FB6F89480936100909361000FBE81E057
:1033000080930D018AEF94E090935D0180935C01BE
:103310000E9455020E94F6028091E2008460809330
:10332000E2007894809134028823A1F01091E900A2
:103330001F709091EC00892F817090FD80E8182B10
:103340001092E9008091E80083FD0E94BD0A1F7081
:103350001093E90082E084BD93E095BD9AEF97BD9C
:1033600080936E0007E411E0D8018D918D018F3FAD
:1033700011F00E94FC04B1E00C341B07A9F70CE427
:1033800011E0F80181918F018F3F11F00E94FC0440
:10339000F1E00B351F07A9F78AE0E8EFF1E0DF0164
:1033A000282F1D922A95E9F7EAEEF1E0DF011D9240
:1033B0008A95E9F790E080E00E94B91C853E9E4F17
:1033C00009F461C065EE7EEF90E080E00E94ED1CA4
:1033D00060E082E090E00E94CF1C81E090E090935A
:1033E000F5018093F40161E083E090E00E94CF1C3E
:1033F00060E074E184E090E00E94ED1C60E086E013
:1034000090E00E94CF1C60E087E090E00E94CF1C1B
:1034100040E050E0BA0188E090E00E94E11C60E0EA
:1034200083E290E00E94CF1C60E08CE090E00E947C
:10343000CF1C60E08DE090E00E94CF1C19821A82C0
:103440001B821C821D821E821F82188648E050E06B
:1034500067E170E0CE0101960E94BF1C40E050E0A1
:10346000BA018FE190E00E94E11C40E050E0BA0117
:103470008FE090E00E94E11C40E050E0BA0183E15F
:1034800090E00E94E11C82E090E00E94B11C8093D9
:10349000020284E090E00E94B91C90932302809382
:1034A00022020E942D17EFEFF6E721E0E150F040F5
:1034B0002040E1F700C000000E942D178091F80124
:1034C00080FF08C06FEF7FEF90E080E00E94ED1C6E
:1034D0000E94F70983E090E00E94B11C90E00E94F6
:1034E00061088CE090E00E94B11C80930E0280E0A5
:1034F00091E090931F0280931E024DE0642E42E003
:10350000742E4424439422242394809134028530E1
:1035100049F480913402853009F462C00E948C0A1B
:103520000E9476040E942D1723E0A22E22E0B22EE4
:1035300038EF832E31E0932ED401F50121913191A2
:103540008D919D916E167F0609F480C0281739076A
:10355000A9F3512CD4010D911D914D01F501C1909C
:10356000D1905F01C016D10659F1312CEE24E394BD
:10357000F12CC026D126C6018E219F21892BB1F0C6
:1035800039865A860E94BE039C878B872D8691E0E0
:1035900098012E213F21232B09F490E09E87498535
:1035A0005A856B857C858D850E947E163394EE0C42
:1035B000FF1CFFE03F12DFCFF5013297118300833C
:1035C000539425E05212C6CF8FB7F894409125024C
:1035D0005091260260912702709128028FBF3CC053
:1035E00080913402843021F11092240288E190E02D
:1035F000A0E40FB6F894A895809360000FBEA09346
:10360000600083B7817F846083BF83B7816083BF9D
:103610007894889583B78E7F83BF0FB6F894A8956A
:1036200080916000886180936000109260000FBEFE
:103630000E942D17E8EFF1E081919191892B09F01B
:10364000FFC0B2E0E230FB07B9F763CF28173907B4
:1036500009F07FCF0E94091786E0E6E1F2E0DE0183
:10366000119601900D928A95E1F7D0901702009182
:103670001802F0901902E0901A0210911B021092A9
:1036800018021092190210921A0210921B02802F37
:103690008F2909F445C080911402909115020E946F
:1036A000AF039C0190910F02992309F4F0C02531DA
:1036B0003105B0F19F3F19F09F5F90930F020023F7
:1036C00059F00E94CC049FEF10160CF491E0899FF2
:1036D000802D112480931802FF2059F00E94CC0401
:1036E00091E01F140CF09FEF899F802D112480938F
:1036F000190280911802882399F0C0901902CC20F9
:1037000079F00E94EC04882309F48EC0809318029B
:103710008C2D0E94EC04882309F489C0809319023F
:103720008E2D812B09F445C08091120290911302D5
:103730000E94AF039C0190911002992309F4A2C04A
:1037400021353105B0F19F3F19F09F5F9093100232
:10375000EE2059F00E94AA049FEF1E140CF491E091
:10376000899F802D112480931A02112359F00E9401
:10377000AA0491E011160CF09FEF899F802D11246F
:1037800080931B0280911A02882399F0E0901B021B
:10379000EE2079F00E94EC04882309F44BC080935A
:1037A0001A028E2D0E94EC04882309F446C08093EF
:1037B0001B0280911702D81217C08091180288232B
:1037C00011F0081311C020911902222311F02F11BA
:1037D0000BC090911B02992311F0191305C0309171
:1037E0001A02332309F449C00E94830486E0FE01D3
:1037F0003196A6E1B2E001900D928A95E1F70E9420
:10380000760490910D02891709F47FCE80930D0202
:103810008FB7F894409125025091260260912702BB
:10382000709128028FBF71CE4092180271CF4092E2
:10383000190276CF40921A02B4CF40921B02B9CF40
:1038400080913302882309F464CEE0E1E9BDF2E11E
:10385000F9BD09B400FEFDCF8091D8008F7D809323
:10386000D8008091E00082608093E0008091E000C9
:1038700081FDFCCF0E948C0A4CCE822B892B09F44F
:10388000B5CFB2CF2B30310508F05FCF92CF2B30C0
:10389000310508F011CF44CF97FB072E16F40094A2
:1038A00007D077FD09D00E949D1C07FC05D03EF48F
:1038B000909581959F4F0895709561957F4F0895DC
:1038C000EE0FFF1F0590F491E02D09942F923F9287
:1038D0004F925F926F927F928F929F92AF92BF9220
:1038E000CF92DF92EF92FF920F931F93CF93DF93CC
:1038F000CDB7DEB7CA1BDB0B0FB6F894DEBF0FBE29
:10390000CDBF09942A88398848885F846E847D8475
:103910008C849B84AA84B984C884DF80EE80FD8077
:103920000C811B81AA81B981CE0FD11D0FB6F894ED
:10393000DEBF0FBECDBFED010895AA1BBB1B51E139
:1039400007C0AA1FBB1FA617B70710F0A61BB70B0F
:10395000881F991F5A95A9F780959095BC01CD01B4
:103960000895F999FECF92BD81BDF89A992780B547
:103970000895A8E1B0E042E050E00C94F51CDC01B1
:10398000A40FB51F4150504048F0CB01840F951F44
:103990002E910E94D01C41505040D0F70895262F00
:1039A000F999FECF92BD81BDF89A019700B4021635
:1039B00039F01FBA20BD0FB6F894FA9AF99A0FBEE3
:1039C00008950396272F0E94D01C0E94CF1C252FFC
:1039D0000E94D01C242F0C94D01C0196272F0E94EB
:1039E000D01C0C94CF1CDC01CB01FC01F999FECF5B
:1039F00006C0F2BDE1BDF89A319600B40D92415077
:103A00005040B8F70895FB01DC0104C08D9101908E
:103A1000801921F441505040C8F7881B990B089534
:103A2000F894FFCFA00BC80B670DC80B670DFB0BFD
:103A30001C0C670D190D260D5311C8115B112511B2
:103A400029115F112D1163116F113911C1113D1130
:103A50007311411177119F1145117B11A6114B1163
:103A6000811189113111671135116B114F118511B8
:103A70009511AF11BF111F115711CF1106110A1166
:103A8000E81002110E11121116118D128D12C512AD
:103A9000C5126D138913ED12ED128E131614251431
:023AA0002514EB
:103AA200CA03E309DC09D509CE09000001008182BD
:103AB20083E200E900EA00B500B600B700CD00835A
:103AC20001CC008A019201940121022302240225E1
:103AD20002260227022A02B300B4006F0070009F80
:103AE20001CB019F02A002313233F1F0C637959625
:0C3AF200973435366667F7F6F5F493005C
:00000001FF
