:100000000C94C5020C9446260C94E2020C94E20275
:100010000C94E2020C94E2020C94E2020C94E202D0
:100020000C94E2020C94E2020C9477200C9433209E
:100030000C9474210C94E2020C94E2020C94E202FF
:100040000C94E2020C94E2020C94E2020C94E202A0
:100050000C94E2020C9450210C94E2020C94E20203
:100060000C94E2020C94E2020C94E2020C94E20280
:100070000C94E2020C94E2020C94E2020C94E20270
:100080000C94E2020C94E2020C94E2020C94E20260
:100090000C94E2020C94E2020C94E2020C94E20250
:1000A0000C94E2020C94E2020C94E202167C1E0014
:1000B0001F0020002100220023003B002B00140021
:1000C0001A000800150017003C003D00390004002C
:1000D0001600070009000A003E003F00E100400052
:1000E0001D001B000600190005004100E000E200B1
:1000F000E3003A00215242002C00430000000000BF
:1001000000000000000000000000000024002500A6
:10011000260027002D002E004C002A001C0018008D
:100120000C00120013002F00300031000B000D00F6
:100130000E000F00330034004B00280011001000A7
:10014000360037004E003800E500520021522C00E6
:100150004F00E600E400E7005000510000000000FE
:1001600000000000000000004A004D00167C3A002C
:100170003B003C003D003E003F000100207821781C
:100180000100520001000100010001000100010016
:10019000500051004F00010001000100010001006A
:1001A0000100010001000100010001003502010011
:1001B0000100010001000100010001000000000039
:1001C00000000000000000000000000040004100AE
:1001D00042004300440045004C002A000100010099
:1001E0000100010001000100010001000100010007
:1001F00001000100010001000100010001000100F7
:1002000001000100010001000100010001000100E6
:1002100001000100010001000100010000000000D8
:100220000000000000000000010001001E0F05009A
:10023000047F3F1F643214643214783C1E1E140A7B
:100240000500010101010101010101020202020296
:10025000020202020303030303030303040404046E
:100260000404040505050505060606060607070736
:10027000070708080808090909090A0A0A0B0B0BED
:100280000C0C0C0D0D0D0E0E0E0F0F0F101011118A
:10029000111212131314141515161617171818190E
:1002A000191A1A1B1B1C1D1D1E1E1F202021222275
:1002B000232424252626272829292A2B2C2D2D2EB8
:1002C0002F30313232333435363738393A3B3C3DD2
:1002D0003E3F404142434445464748494A4C4D4EC3
:1002E0004F50515354555658595A5B5D5E5F616289
:1002F00064656668696B6C6D6F7072737577787A18
:100300007B7D7E8082838587888A8C8E8F91939572
:1003100096989A9C9EA0A2A3A5A7A9ABADAFB1B396
:10032000B5B7BABCBEC0C2C4C6C9CBCDCFD1D4D676
:10033000D8DBDDDFE2E4E7E9EBEEF0F3F5F8FAFD18
:10034000FFFFAA7F55402223252628292A2C2D2F5E
:100350003032333536383A3B3D3E404243454749DB
:100360004A4C4E5051535557595A5C5E6062646610
:1003700068696B6D6F71737577797B7D7F8183851C
:1003800087898A8C8E90929496989A9C9E9FA1A31E
:10039000A5A7A8AAACAEAFB1B3B4B6B8B9BBBCBE42
:1003A000BFC1C2C3C5C6C7C9CACBCCCDCED0D1D2BE
:1003B000D2D3D4D5D6D7D7D8D9D9DADADBDBDBDCC0
:1003C000DCDCDCDCDDDDDDDDDCDCDCDCDCDBDBDB6C
:1003D000DADAD9D9D8D7D7D6D5D4D3D2D2D1D0CECC
:1003E000CDCCCBCAC9C7C6C5C3C2C1BFBEBCBBB9D1
:1003F000B8B6B4B3B1AFAEACAAA8A7A5A3A19F9E4F
:100400009C9A98969492908E8C8A89878583817F16
:100410007D7B79777573716F6D6B696866646260F7
:100420005E5C5A5957555351504E4C4A49474543C3
:1004300042403E3D3B3A3836353332302F2D2C2A60
:1004400029282625232205010902A1018502090187
:10045000A100050919012908150025019508750154
:1004600081020501093009311581257F9502750842
:10047000810609381581257F950175088106050CCF
:100480000A38021581257F950175088106C0C005CF
:10049000010980A101850319012AB700150126B7BA
:1004A00000950175108100C0050C0901A1018504AA
:1004B00019012AA002150126A002950175108100DC
:1004C000C005010906A101050719E029E715002566
:1004D00001950875018102950175088101050719CB
:1004E0000029FF150026FF00950675088100050804
:1004F0001901290515002501950575019102950140
:1005000075039101C009023B00020100A0FA090431
:100510000000010301010009211101000122440032
:100520000705810308000109040100010300000020
:10053000092111010001227B00070582032000012F
:10054000120100020000000810CB57120001010246
:10055000000122035100750065006600720065000D
:100560006E006300790020005200650076002E00C6
:100570002000310000000E034B00650065006200A2
:1005800069006F0000000403090411241FBECFEFAF
:10059000DAE0DEBFCDBF23E0A4ECB1E001C01D92E4
:1005A000AF37B207E1F711E0A0E0B1E0E0E5F3E535
:1005B00002C005900D92A43CB107D9F70E949B217F
:1005C0000C9452290C940000482F20917B039091A9
:1005D000420357E0291302C080E0089530E0529FA3
:1005E000F001539FF00D1124ED5BFC4F81816813E6
:1005F00006C08081481303C085818111EECF2F5F33
:100600003F4F2770E7CFFC01AC014A5F5F4F8FEF90
:1006100091E32191822728E030E087FF09C0880F0D
:10062000892721503109C9F7E417F50791F7089593
:10063000880FF7CFE8EDF0E080818E7F8083109205
:10064000E2001092DA001092E100A0EEB0E08C918E
:1006500081608C9380818F77808319BCA7EDB0E097
:100660008C918E7F8C9380818F7E808310922B0360
:1006700008952091E4003091E50095E6A9012091CC
:10068000EC00822F817020FF06C08091E80080FF7F
:1006900006C080E008952091E80022FD1AC08091F4
:1006A0003803882389F0853089F08091EB0085FD3F
:1006B0000FC02091E4003091E50042175307F9F292
:1006C0009150E1F684E0089582E0089583E0089572
:1006D00081E0089580913A0387FF13C08091E8007C
:1006E00082FF06C08091E8008B778093E80004C009
:1006F000809138038111F2CF0895809138038823C7
:10070000D9F38091E80080FFF8CF8091E8008E77E0
:10071000ECCF982F9093E900242F762F50E0891783
:1007200031F07091EC002091ED005091F00021FD2E
:1007300007C09F5F973071F78093E90081E00895CB
:100740003091EB003E7F3093EB003091ED003D7F28
:100750003093ED003091EB0031603093EB007093FB
:10076000EC002093ED005093F0002091EE0027FD67
:10077000E0CF80E00895B0E0A0E0E1ECF3E00C947D
:100780006C27C8EDD0E088818F7E8883E7EDF0E0AC
:1007900080818160808384E082BF81E080932B032D
:1007A00088818E7F888302EE10E0F801108210921B
:1007B000DA0081EEC82ED12CF601108288818F7765
:1007C000888388818068888388818F7D888319BC2D
:1007D00010923803109239031092370310923603A7
:1007E00090EEE92EF12CF70180818B7F8083888148
:1007F0008160888342E060E080E00E948903F60126
:1008000080818E7F8083F8018081816080838081F8
:1008100088608083F70180818E7F808388818061FA
:100820008883CDB7DEB7E8E00C948827FC0180917F
:1008300040039091410386179707A0F06115710559
:1008400029F49091E8009E779093E80090E061157C
:10085000710551F4911108C08091E80082FF34C005
:1008600080E00895BC01F2CF809138038823C1F164
:100870008530C1F18091E80083FD30C08091E800AF
:1008800082FDEACF8091E80080FFE1CF8091F30004
:100890002091F200382F6115710519F028303105CB
:1008A00058F091E02830310509F090E02091E800FF
:1008B0002E772093E800CBCF81918093F100615097
:1008C00071092F5F3F4FE7CF80913803882341F0B4
:1008D000853041F08091E80083FFBECF81E008952C
:1008E00082E0089583E0089580912D0308959C018E
:1008F0004FB7F8948091270390912803A091290382
:10090000B0912A034FBF821B930B08952FB7F89421
:1009100060912703709128038091290390912A0305
:100920002FBF08952FB7F894809127039091280343
:10093000A0912903B0912A032FBF0895A3E0B0E04E
:10094000E4EAF4E00C94722720912403309125030B
:1009500028173907A1F09093250380932403E09191
:100960002203F0912303309751F024E029839B83E5
:100970008A830680F781E02DCE01019609952396A2
:10098000E2E00C948E27A3E0B0E0E9ECF4E00C94F4
:100990007227209120033091210328173907A1F0F5
:1009A0009093210380932003E0912203F09123038D
:1009B000309751F023E029839B838A830680F78157
:1009C000E02DCE01019609952396E2E00C948E2746
:1009D000FA01811101C0FB01099508950895E2E92A
:1009E000F2E01182828184608283089580911803ED
:1009F000982F9E7F29F48170826080931803089558
:100A00008635E8F381708465F8CFAF92BF92DF92AC
:100A1000EF92FF920F931F93CF93DF93082F162F20
:100A2000E901E42FF0E0EF5BFD4F611110C0E491AC
:100A30005E2F4E2F4983E8835A83DF91CF911F9118
:100A40000F91FF90EF90DF90BF90AF900895E62E4A
:100A5000F12C4491D42EE42FF0E026E0829FC001D7
:100A600011242FEF30E0B9010E94A527802F90E0DC
:100A7000880F991F55E5569FD001579FB00D11243F
:100A80008A1B9B0B982F990F890F5901AE18BF082D
:100A9000AE9ED001AF9EB00DBE9EB00D11245B2F57
:100AA000189F80011124012F11275901A01AB10AA2
:100AB000AE9E8001AF9E100DBE9E100D11245901F7
:100AC000A81AB108AE9CC001AF9C900DBE9C900DC1
:100AD0001124892F9927281B390B2E9FC0012F9F86
:100AE000900D3E9F900D1124E92F62307105A1F009
:100AF00050F46115710509F49DCF6130710581F0E5
:100B0000EB2F512F97CF6430710569F080F066307C
:100B1000710509F48FCFF4CFE42F4B2F592F8ACFD3
:100B2000E42F412F87CFEB2F542F492F83CF4B2F0B
:100B30005D2DE12F7FCF0E9492049C01909188024D
:100B400080918902982B21F03093850220938402B2
:100B500090918A0280918B02982B21F0309383022E
:100B600020938202E0912203F0912303309749F011
:100B700082E0809386020480F581E02D86E892E091
:100B8000099508958091810280FD16C081FD16C0EF
:100B900082FD16C0809180028823A1F0883280F403
:100BA00028E0829FC001112468E270E00E94B9270A
:100BB000862F672B39F0089582E0089584E0089528
:100BC00088E0089581E008958091810280FD14C03D
:100BD00081FD14C082FD16C080917F02882381F0C0
:100BE0008E3180F420E5829FC00111246EE170E017
:100BF0000E94B927862F089584E1089588E2089518
:100C000088E0089580E50895282F35EB2303C0017F
:100C1000112497FF04C080589109892F08958058A6
:100C20009F4FFBCF80E00895F894E82FE295EF7096
:100C3000F0E031A1282F2F7081E090E001C0880FF3
:100C40002A95EAF7982F9095932391A392A1892B47
:100C500082A37894089590915F0292FF10C041E0C2
:100C6000282F2471243009F040E031E0282F28712A
:100C7000283009F030E0431711F02CE0822793FF71
:100C800010C041E0282F2471243109F040E031E008
:100C9000282F2871283109F030E0431711F02CE09B
:100CA00082273091600230FF10C051E0282F21715F
:100CB000213009F050E041E0282F2871283009F058
:100CC00040E0541711F029E0822731FF10C041E0C5
:100CD000282F2171213109F040E031E0282F2871BF
:100CE000283109F030E0431711F029E0822794FD04
:100CF000877E089582389105B9F1B0F4813391056A
:100D000009F47DC048F48932910509F46DC08A3236
:100D1000910509F47BC008958533910509F45FC0FE
:100D20008933910509F10895833E9105D9F138F48D
:100D3000803E910529F1823E910579F10895863E24
:100D40009105D9F1873E910509F43EC0843E910595
:100D500041F52091600221FF24C080915F0284FD53
:100D600019C087EE90E0089520915F02237009F08A
:100D70005AC02091600223FF14C089E290E00895D8
:100D800020915F0220FD38C03091600230FF09C021
:100D900024FF43C090E080E0089520915F0222FD8F
:100DA000F7CF089520915F0222FD3AC03091600292
:100DB00030FD39C024FFF5CFEDCF20915F0223FF36
:100DC000F0CF24FDE7CFCDCF20915F0223FD2EC0D1
:100DD0003091600231FFEECF84EE90E008952091D3
:100DE0005F0225FFDECFC9CF20915F0225FD21C024
:100DF0002091600223FFD5CF89E390E0D2CF2091EC
:100E00005F0226FFCECF8AE290E0089520915F0234
:100E100026FFC7CF81E390E0089583EE90E0089528
:100E200082EE90E0089580EE90E0089586EE90E0E6
:100E3000089585E390E008957C30C8F46830B8F4F4
:100E40008230C0F4E72FF0E09CE0899FE00DF11DB7
:100E5000112483E0EE0FFF1F8A95E1F7E60FF11DE5
:100E6000EE0FFF1FE455FF4F85919491089580E0A8
:100E700090E0089581E0FCCF1F93CF93DF930E9411
:100E80007A06EC01C11580E5D807F0F5C11580E4BC
:100E9000D80708F09CC0C03ED10520F5CD3CD10557
:100EA00008F082C0C83AD10578F4C53AD10508F0F7
:100EB00073C0C130D10519F1209709F1C430D105B3
:100EC000F0F4D0E0C0E01BC0C33CD105D0F7C85A55
:100ED000D0E0CC0FDD1FC05ADE4F0990D881C02D65
:100EE000D4640DC0C11580E2D80708F0D1C0C11587
:100EF00081E0D80708F05AC0C83ED10510F7CE01EE
:100F0000DF91CF911F910895C03682E5D80718F57B
:100F1000C03482E5D80708F06BC0C03282E5D8073C
:100F200008F05FC0C11582E5D80708F497C02C2FE0
:100F30002695269580E2289F900111248C2F83709E
:100F4000C1E0D0E002C0CC0FDD1F8A95E2F7C22BD2
:100F5000D32BDD68D4CFC03A82E5D80760F4C0381F
:100F600082E5D80708F459C0CF71D0E0DC2FCC2738
:100F7000C46FD06AC4CFC03C82E5D80708F462C011
:100F8000C03E82E5D80708F09CCFDC2FCC27CC27C9
:100F9000DF71C06FD06AB3CFC55AD0E0C35ADE4FFD
:100FA000C881D0E0D064ABCFD065A9CF8D2F0E948F
:100FB0002B06182FCE0199270E947A06C12FD0E068
:100FC000DC2FCC27CC27DF71C82BD92B98CFCE01B3
:100FD00099270E947A06CC27DF70C82BD92BD06ABC
:100FE0008ECFCF71D0E0DC2FCC27C16FD06A87CFF6
:100FF0002C2F26952695277080E2289F900111249A
:101000008C2F8370C1E0D0E002C0CC0FDD1F8A9529
:10101000E2F7C22BD32BDC6872CF2C2F26952695B6
:10102000277080E2289F900111248C2F8370C1E0EB
:10103000D0E002C0CC0FDD1F8A95E2F7C22BD32B84
:10104000DA685DCF8C2F8F710E942B06C82FD0E0FD
:10105000DC2FCC27CC27DF71D06251CF8C2F8F7142
:101060000E942B0655E0D695C7955A95E1F7CF70AB
:10107000D0E0DC2FCC27282F30E084FF05C044E0EF
:10108000220F331F4A95E1F7C22BD32BD06937CFFC
:101090008D2F8F710E942B06182FCE0199270E9449
:1010A0007A06C12FD0E0DC2FCC27CC27DF71C82BEC
:1010B000D92BD2CF8095909112029823909312024F
:1010C0000895E8ECF1E09191891303C0DF011197D5
:1010D0001C9291E0EE3CF907B1F70895A8ECB1E05D
:1010E000EFEF90E02D91821751F0EF3F19F42111AD
:1010F00001C0E92F9F5F9630A9F7EF3F09F40895EB
:101100000E2E000CFF0BEA53FE4F82830895809150
:101110007B0390914203981301C008958F5F8770FD
:10112000FACFB0E0A0E0E7E9F8E00C946B277C018F
:1011300000915D0210915E02809113029091140261
:10114000082B192BCFE0D0E0CC24C394D12CBC2E9B
:10115000C6010C2E02C0880F991F0A94E2F7802363
:101160009123892B49F4219790F7B12C8B2DCDB782
:10117000DEB7E9E00C948727B7018C2F0E941C078B
:101180000E943C07019779F3F1CFCF93DF93EC01F5
:101190000E949108BE010E941C070E943C07DF913B
:1011A000CF9108959C3070F5883060F528E0929FCB
:1011B000F0011124E80FF11D6E2F677083E0F695A2
:1011C000E7958A95E1F7EE0FFF1FEE0FFF1FE05343
:1011D000FE4F50E040E080E0219130E0062E02C05A
:1011E000369527950A94E2F721703327042E01C023
:1011F000220F0A94EAF7822B4F5F5F4F443051056C
:1012000059F7089580E008959C3090F5883080F576
:1012100028E0929FF0011124E80FF11D2E2F277076
:1012200041E001C0440F2A95EAF783E0F695E7957F
:101230008A95E1F7EE0FFF1FEE0FFF1FE053FE4F01
:1012400030E020E070E05191DF011197CB01022ED8
:1012500002C0969587950A94E2F78170819585275B
:10126000842385278C932F5F3F4F2430310559F716
:10127000089590935E0280935D02089521E030E02E
:1012800002C0220F331F8A95E2F720953095809196
:101290005D0290915E02822393230E943909089592
:1012A000909107028095892380930702282F277049
:1012B00069F4891759F09091600292FF07C08695F2
:1012C000869586950E943E0910920702089521E0B6
:1012D00030E002C0220F331F8A95E2F780915D0251
:1012E00090915E02822B932B0E943909089590936E
:1012F0001402809313020895FC0124812223C1F07B
:10130000808191810E94C50892959F70963091F0DE
:1013100058F4925F9F70923058F4803F19F030F487
:10132000883E30F481E008959A5FF4CF843FD1F392
:1013300080E00895883EB0F3813FD1F7F3CF662374
:1013400009F45DC08D3C41F40E94E40581958093D1
:1013500089020E949B0508958E3C19F40E94E405C1
:10136000F6CF8F3C31F40E94E4058195809388028A
:10137000F0CF803D19F40E94E405F8CF893D29F4AF
:101380000E94C20580938A02E4CF8A3D21F40E9424
:10139000C2058195F7CF8B3D31F40E94C20581953E
:1013A00080938B02D6CF8C3D19F40E94C205F8CFF2
:1013B0009FE2980F983070F4815D990B21E030E046
:1013C00001C0220F8A95EAF780918702822B8093D1
:1013D0008702BFCF8D3D31F480918102816080937F
:1013E0008102B7CF8E3D21F4809181028260F7CFD8
:1013F0008F3D09F0AECF809181028460F0CF4091A3
:1014000088028D3C59F48091890287FF0DC01092AB
:10141000890241110BC010927F0208C08E3C81F4FA
:101420008091890218169CF3442381F080918A02EE
:1014300090918B02892B09F08CCF1092800289CF7A
:101440008F3C49F447FFF0CF1092880280918902C7
:101450008111ECCFE0CF803D19F41416ACF3E4CF4A
:1014600090918A02893D29F41916F4F610928A02A5
:10147000DBCF8A3D19F497FFD7CFF8CF90918B023D
:101480008B3D29F497FFD0CF10928B02CDCF8C3DAE
:1014900019F41916CCF3C8CF9FE2980F983090F446
:1014A000815D990B21E030E0B90102C0660F771F22
:1014B0008A95E2F7CB0180959091870289238093EA
:1014C0008702B2CF8D3D31F4809181028E7F80936F
:1014D0008102AACF8E3D21F4809181028D7FF7CFCA
:1014E0008F3D09F0A1CF809181028B7FF0CFA6E0E4
:1014F000B0E0EDE7FAE00C94712749835A83498103
:101500005A819923A1F0222391F0CA010E949108E7
:10151000182F682F89819A810E94040969817A8134
:10152000812F0E941C072696E3E00C948D27CA01A8
:101530000E94D208182FF2CF0F931F93CF93DF93FF
:101540008B01EA0190913803943061F58093E900B2
:101550008FEF9091E800815095FD06C095ED9A952A
:10156000F1F700008111F5CF8091E80085FF1AC0E6
:101570000E943903811111C08091E80085FD06C0E9
:101580008091E8008E778093E800F2CFF801819196
:101590008F018093F100219779F78091E8008E7791
:1015A0008093E800DF91CF911F910F91089543E060
:1015B00050E0BC0182E00E949C0A089546E050E0A1
:1015C000BC0182E00E949C0A0895CF93DF93EC0156
:1015D00048E050E0BC0181E00E949C0A88E0FE01E6
:1015E000AEE2B3E001900D928A95E1F7DF91CF91E1
:1015F000089560914A018091180380FF20C0809176
:10160000490143E0849FC001112488569D4F539A9D
:101610002BB1277F3BB138605FB7F894FC01649F22
:10162000E00DF11D1124BF0168177907D1F45FBFE8
:101630008FE594E00197F1F700C0000008958091D4
:101640004B0190914C0123E0829FF0011124E85658
:10165000FD4F8917A0F61182108212828F5F339698
:10166000F8CFFC014191CF01E8E03BB9000000C098
:1016700047FF2BB9440F000000C000C000C02BB9C9
:1016800000C0EA9591F7D0CF0F931F93CF93DF93CC
:10169000EC0110E000E090914D019017110609F067
:1016A0006CF40E94F90A8C8190E001968170992770
:1016B0008C83DF91CF911F910F91089520914B0161
:1016C000A801420F511D9A01220F331F240F351F0D
:1016D00028563D4F4C8160911A03809119039695CD
:1016E0009017110651F04CF0442349F040911B0330
:1016F0000E9405050F5F1F4FCECF4423B9F340E092
:10170000F7CFB0E0A0E0E7E8FBE00C946827EC013D
:101710004C81042F10E09801D8010E9443299B01BD
:10172000AC010E940E294B015C01E0E2F0E0E01BFD
:10173000F10BA5E5B0E0AC019B010E940E296B0105
:101740007C019F01DF010E94D3279B01AC010E9415
:1017500019299B01AC01280D391D4A1D5B1DC701CC
:10176000B6010E942129F22E822F90E039E23F1526
:1017700020F143E0249F9001112435952795122FE5
:10178000109500E085E5E82EEF1880914D010817CF
:1017900018F10E94F90A9C8181E0992319F0903296
:1017A00019F48FEF8093480180914801890F8C8351
:1017B000CDB7DEB7ECE00C94842725E530E0B90125
:1017C000681B790B9B01220F331F260F371F37FF32
:1017D000D4CF2F5F3F4FD1CF8E2D01FD8F2D209184
:1017E0004B01622F600F7727771F9B01220F331F5A
:1017F000260F371F28563D4F412F60911A030E9434
:1018000005050F5FC2CFEF92FF920F931F93CF9307
:10181000DF93EC018C81811109C081E08C831092EF
:10182000960292E0909347018093460180914B018C
:1018300090914C0123E0829FF0011124E856FD4F66
:10184000891758F110E003E060914D01161758F127
:101850000E94F90A8091460120919602280F209358
:10186000960290914701980F90934701191654F4EE
:10187000022E000C330B40914D014150550B2417A3
:10188000350734F0819580934601813009F41C823C
:10189000CDB7DEB7E6E00C948A271182108212825F
:1018A0008F5F3396CDCFE12EF12C70E0C7010E94FF
:1018B000B92720914B01820F482F50E020919602CA
:1018C000022E000C330BE216F306BCF02091470108
:1018D000022E000C330B2E153F057CF0809F9001EB
:1018E000112428563D4F40911B0360911A038091AB
:1018F00019030E9405051F5FA7CFFA01EE0FFF1F16
:10190000E40FF51FE856FD4F118210821282F3CFCB
:10191000B0E0A0E0EEE8FCE00C946927EC018A81DD
:10192000BB24BA9480FD02C0BB24B394A0904D01A7
:101930008C81811109C081E0B8121EC08FEF8A0D21
:101940008093950281E08C83F12CE12CEA14B8F0AD
:101950000E94F90A8091950291E0B91254C0811158
:101960004DC080914D018150809395021C82CDB76E
:10197000DEB7EBE00C94852710929502E3CF00913F
:101980004B010E0D1F2D111DC801880F991F080F47
:10199000191F08561D4FF80111821082128234E07F
:1019A000C32ED12C912C80919502890D813114F197
:1019B0008F70082E000C990B8E159F0591F4809165
:1019C0001B038C9DA0018D9D500D112455954795AD
:1019D00055954795980160911A03809119030E94CB
:1019E00005059B0CF1E0CF1AD108E9F68FEFE81A54
:1019F000F80AACCF87FFDDCF8A0DDBCF8150809313
:101A00009502BC82B4CF90E0019660914D0170E0E8
:101A10000E94B927809395028C83A9CFEF92FF9201
:101A20001F93CF93DF93EC0110E0EE24EA94F12CA6
:101A300060914D01161770F00E94F90A9A818C810D
:101A400090FF27C08F5F8C83DF91CF911F91FF9014
:101A5000EF90089520914B01422F410F5527551FBC
:101A6000CA019A01220F331F280F391F28563D4FF4
:101A700070E0C7010E94B927962F8C8140911B030B
:101A800060911A03199F800D11240E9405051F5FA4
:101A9000CFCF8150D8CF9091180390FF0EC0909176
:101AA0004B0120914C0133E0939FF0011124E85643
:101AB000FD4F921718F00E94F90A08958183608300
:101AC00042839F5F3396F5CFA3E0B0E0EAE6FDE006
:101AD0000C9470278C018091970281110AC09E019D
:101AE0002F5F3F4F4FEF6FEF0E9405058A81809374
:101AF0009702F8016481613069F08091970240E0BB
:101B0000662361F040E0623011F44091970280E07A
:101B100060E004C06091970240E080E00E944B0DBD
:101B2000F801848190E0019663E070E00E94B9279B
:101B300084832396E4E00C948C27A3E0B0E0E3EAEE
:101B4000FDE00C9472279091180390FF0AC09E014B
:101B50002F5F3F4F0E9405054B8169818A810E945A
:101B60004B0D2396E2E00C948E27CF93DF93EC018C
:101B7000E8E1F3E0438162818C810E949D0D8C81BC
:101B80008F5F8C83DF91CF910895CF93DF93EC012A
:101B9000EC81F0E0EA5BFC4F4491E8E1F3E0628124
:101BA00081810E949D0D8C818F5F8C83DF91CF910D
:101BB0000895B0E0A0E0EFEDFDE00C946A277C0111
:101BC0005B016A0180914A0201E010E08A3010F462
:101BD0000AE010E0C1E0D0E0B501C701F6010995C7
:101BE000811104C021960C171D072CF4CDB7DEB768
:101BF000EAE00C948627CC9F9001CD9F300D300DEC
:101C0000112490E080E045E34A95F1F70000019649
:101C100082179307C1F7E0CF80912102811110C094
:101C20008091D80080618093D8008AE18A95F1F78D
:101C300000C08091D90080FF0AC081E0809321021A
:101C400081E090912102913009F080E0089582E0D6
:101C5000809321020E941A0310923803F1CF0E9450
:101C60000C0E882359F0E0912203F0912303309762
:101C700029F00190F081E02D0995089580E0089504
:101C80000F931F930E940C0E882329F00E94860454
:101C90001F910F9108950E94860400914B021091AC
:101CA0004C0220914D0230914E02600F711F821F35
:101CB000931FEECF0E940C0E882319F00E9492040D
:101CC00008950E94400ECB010895B0E0A0E0EBE63D
:101CD000FEE00C946427FC016280448081E08483F0
:101CE000E6E4F3E07490E5ECF3E0E491C0911B03CB
:101CF000C695C158D0E0CC0FDD1FCD2FDD27812C3C
:101D000075E0972EAA24AA94B12C55245A94E71969
:101D1000EE2EF12C80914D01881638F00E94F90AC0
:101D2000CDB7DEB7E0E10C948027C82CD12C82E03F
:101D3000861568F09C9CF0019D9CF00D1124E853E1
:101D4000FD4F80911903808380911A038183411094
:101D500023C09C9CF0019D9CF00D1124E853FD4F85
:101D60001382128220914B01C601820F911D9C01AA
:101D7000220F331F280F391F28563D4F9C9CF0011E
:101D80009D9CF00D1124E853FD4F428161818081BB
:101D90000E9405058394BECF9C9C80019D9C100DE4
:101DA000112408531D4FF80183818823F1F08150DD
:101DB0008383859DC0011124648170E00E94A52762
:101DC000FB01FF27EA5BFC4F8491E82FE719E59DB3
:101DD000C0011124B7010E94A52780911B03689FB1
:101DE000B0011124F8017283BDCF0E946428B501AF
:101DF0000E94B9278C179D070CF0B4CFF2E0F615BE
:101E000098F40E946428B5010E94B927F8018083E4
:101E10000E94642820911A032695622F70E00E9488
:101E2000B927280FF80121839C9CF0019D9CF00D9F
:101E30001124E853FD4F128280911B03893C58F016
:101E400088EC9C9CF0019D9CF00D1124E853FD4F03
:101E50008483838387CF8431A0F784E1F2CF6091BC
:101E60001803669570E04BE050E08BE391E00E9430
:101E70007428892B19F481E0809393020E945A0EF2
:101E800090938D0280938C02809194028460809361
:101E900094020895B0E0A0E0E0E5FFE00C9468272C
:101EA00049015A016B017C010E94F6048401A401DE
:101EB0006A2D7B2D88E090E00E94CD2894014A2D68
:101EC0005B2DB601C70100E20E94FD27622F84E26C
:101ED00090E00E94BB28CDB7DEB7ECE00C948427DD
:101EE000A3E0B0E0E6E7FFE00C946B27082FE62EB6
:101EF000F42EC22E9091180390FF40C02091190338
:101F0000281308C080911A03861304C080911B0314
:101F1000841729F080919402826080939402E92FC3
:101F2000E695AE2FB0E0A856BE4F8C9180939202FA
:101F30009E7F923039F59E012F5F3F4F4F2D6E2DC2
:101F4000802F0E9405054B8169818A810E944B0D7B
:101F500000931903E0921A03F0921B03CC2071F056
:101F60002091180360911C0370911D03302FA7016D
:101F700080911E0390911F030E944A0F2396E9E06F
:101F80000C948727823019F4F0901B03E1CF863040
:101F9000A1F1893091F18931D9F6E9516E2F617043
:101FA000B62EE695F0E0EF5BFC4F1491D12C6091DA
:101FB0004D01D61618F00E94F90ACACFD19EC00171
:101FC000112470E00E94A527802FB11014C0860F45
:101FD00020914B01622F6D0D7727771F9B01220FF8
:101FE000331F260F371F28563D4F4F2D6E2D0E9451
:101FF0000505D394DCCF861BEBCF022FA9CFE8E1F8
:10200000F3E0438121E1421B08F440E021E06281DA
:1020100081810E94700F0895E8E1F3E0438121E19E
:10202000420F08F44FEF21E0628181810E94700F1E
:102030000895E8E1F3E0628121E1621B08F460E0C9
:1020400021E0438181810E94700F0895E8E1F3E06F
:10205000628121E1620F08F46FEF21E04381818109
:102060000E94700F0895E8E1F3E0818121E043814F
:10207000628188500E94700F0895E8E1F3E0818149
:1020800021E043816281885F0E94700F08958091F2
:102090001C03882319F0815080931C03209118039E
:1020A0003091190340911A0350911B0360911C0356
:1020B00070911D0380911E0390911F030E944A0F8F
:1020C000089580911C03833018F48F5F80931C0364
:1020D000209118033091190340911A0350911B036A
:1020E00060911C0370911D0380911E0390911F034A
:1020F0000E944A0F08959091180390FF39C0917083
:10210000811137C09260909318038091940281608E
:1021100080939402662391F0209118033091190363
:1021200040911A0350911B0360911C0370911D0391
:1021300080911E0390911F030E944A0F6091180323
:10214000669570E04BE050E08BE391E00E947428CC
:10215000892BB1F00E94EF0481E080938F0220E090
:1021600040911B0360911A03809119030E94700F24
:1021700008958B3210F09465C6CF880F982BC3CF8B
:102180000E942F0FE9CF61E00E947B10089580919B
:1021900018038695815009F48AE261E00E947B1061
:1021A00008958091180386958F5F8B3208F081E047
:1021B00061E00E947B1008959091180390FF08C081
:1021C0009695981728F0961718F40E94D110089544
:1021D0000E94C3100895E8E1F3E083E08083118258
:1021E0008FEF828383831482A2E9B2E012968C91EE
:1021F0001297836012968C93758123E030E04FEF45
:102200005FEF60E0868197810E944A0F0895A4E005
:10221000B0E0EDE0F1E10C94712740912C02509177
:102220002D0260912E0270912F022FB7F8948091A9
:10223000270390912803A0912903B0912A032FBF6F
:10224000841B950BA60BB70B11E084369105A105F5
:10225000B10570F10E94400E6E5F7F4F8F4F9F4F10
:1022600069837A838B839C838091150190911601F9
:10227000805D9D4F4091140150E04530510510F0B4
:1022800044E050E0BE016F5F7F4F0E948E2882E0E5
:1022900090E00E94EC26182F882351F00E948604BB
:1022A00060932C0270932D0280932E0290932F0244
:1022B000812F2496E3E00C948D27ABE0B0E0E3E6B9
:1022C000F1E10C94722788E0E8E1F3E0DE01119679
:1022D00001900D928A95E1F780919202909193027C
:1022E000A091940289879A87AB872B8540914602FB
:1022F0005091470260914802709149023FB7F894AB
:102300008091270390912803A0912903B0912A037B
:102310003FBF841B950BA60BB70B84369105A10517
:10232000B10510F4222319F180911D0190911E0135
:10233000805D9D4F40911C0150E04C30510510F0E4
:102340004BE050E0BE016F5F7F4F0E948E2883E01C
:1023500090E00E94EC26882369F00E948604609336
:10236000460270934702809348029093490210926C
:10237000940281E02B96E2E00C948E27EF92FF927C
:102380001F93CF93DF9300D000D000D00F92CDB732
:10239000DEB77B0190E080E00E94EC26182F8823B6
:1023A00009F46AC04091070150E04115510511F050
:1023B00041E050E06091080170910901605D7D4F3E
:1023C000CE0107960E948E28409128025091290242
:1023D00060912A0270912B022FB7F8948091270305
:1023E00090912803A0912903B0912A032FBF841B49
:1023F000950BA60BB70B84369105A105B10538F4F2
:1024000081E392E00E9403039F818917A9F181E093
:1024100090E00E94EC26882309F44EC040910F0101
:1024200050E04730510510F046E050E06091100157
:1024300070911101605D7D4FCE0101960E948E2842
:1024400081E392E00E9403039F81891335C00E94BB
:102450008604609328027093290280932A02909345
:102460002B0286E0FE013196A2E2B2E001900D92CD
:102470008A95E1F711E00BC086E0E1E3F2E0DE01CE
:10248000119601900D928A95E1F71111EACF86E03D
:10249000E2E2F2E0D70101900D928A95E1F7812FF7
:1024A00027960FB6F894DEBF0FBECDBFDF91CF9158
:1024B0001F91FF90EF90089510E0E9CFA7E1B0E001
:1024C000E4E6F2E10C9467278E010F5F1F4F8CE06A
:1024D000D8011D928A95E9F78CE2C82E81E0D82EAA
:1024E000F12CE12CAA24A394B12C2CE2822E21E021
:1024F000922EF60181916F018F3F09F442C0F8944A
:10250000E82FE295EF70F0E021A18F70A50102C0E5
:10251000440F551F8A95E2F7CA01922F982B91A379
:1025200092A18095892382A3789400C0E4E2F1E02F
:10253000712C31E021912F3F09F46BC0A22FA2959D
:10254000AF70B0E090968C9190E02F7002C095959E
:1025500087952A95E2F780FD5CC0832F782A330F98
:102560008E169F0639F7F601319780818F3F11F063
:102570000E94140650EA5A95F1F7F801EE0DFF1D7E
:1025800070828FEFE81AF80AA6E0EA16F10409F063
:10259000B0CF4CE050E0B8018FE492E00E94812877
:1025A000009741F02CE0F801AFE4B2E001900D9209
:1025B0002A95E1F700915C02892B69F181E0809313
:1025C00019020E949204909318028093170280913E
:1025D0001702909118020E947704059700F110E00D
:1025E0000E591D4F46E050E06FE472E0C8010E94B2
:1025F0008128D12C892B51F086E0EFE4F2E0D8015C
:1026000001900D928A95E1F7DD24D394109219027E
:1026100007C080E0A3CF809119028111D8CFD12CBF
:102620000E940C0EC82EE0915C02882309F475C04C
:102630007E01BDE0EB0EF11C86E0D7011D928A956C
:10264000E9F70E2F10E00E591D4F80914A028A3093
:1026500090F54EEB51E1B701C8010E94D90D8823D6
:1026600009F44AC047E051E1B701C8010E94D90D01
:10267000882309F441C04DE551E1B701C8010E942A
:10268000D90D8823C9F110924A0280915B0290E033
:1026900046E050E0B7018E599D4F0E94812821E00D
:1026A00020932002892BD9F4C12C8C2D8D2967967B
:1026B000EDE00C94832780911A0290911B020E94F6
:1026C0007704843F914028F680912002882361F3AB
:1026D00086E0F70111928A95E9F710922002A09105
:1026E0005B02B0E0AE59BD4F86E0FE013D96019021
:1026F0000D928A95E1F7D9CF80914A028F3F31F050
:102700008F5F80934A028A3008F4BFCF0E94920400
:1027100090931B0280931A02D7CFF0E0EE59FD4F41
:1027200086E0A1E3B2E001900D928A95E1F781E3A2
:1027300092E00E94030380933002809037029090D1
:102740003802A0903902B0903A0280911C02909118
:102750001D02A0911E02B0911F0288169906AA06BA
:10276000BB06D1F080921C0290921D02A0921E0224
:10277000B0921F020E940C0E81110EC00E948604AE
:10278000861A970AA80AB90A80924B0290924C02C4
:10279000A0924D02B0924E028BE0EBE3F2E0DE013C
:1027A0001D9601900D928A95E1F72D85822F8695D1
:1027B000FE84EF84B8880E891F8910924502112388
:1027C00009F473CF10FF0AC09091180320FF1AC0BC
:1027D00091609093180360E00E947B1011FF06C087
:1027E00020E04B2D6E2D8F2D0E94700F12FF04C024
:1027F0000023A9F00E942F0F13FF57CF81E0809391
:102800008F0253CF9E7F909318030E94EF04809114
:1028100094028160809394020E94F90ADFCF0E94A3
:10282000EF04EACF8091120290911102892B8093DC
:10283000C60190911002992391F0892B8093C601D3
:1028400020E088EC91E0FC013191CF0131112F5F44
:10285000F1E08E3C9F07B9F721111092100248E079
:1028600050E068E072E086EC91E00E948128892BBC
:10287000A9F088E0E6ECF1E0A8E0B2E001900D926A
:102880008A95E1F7E0912203F0912303309731F02C
:102890000280F381E02D86EC91E009950895CF93B5
:1028A00010921202C6E0E8ECF1E0DF018C2F1D92DD
:1028B0008A95E9F790E080E00E94C30490E080E010
:1028C0000E949E04109211020E941214E6E8F2E0A7
:1028D000DF011D92CA95E9F710927F0210928002E3
:1028E000109281020E949B05CF910895AAE2B0E068
:1028F000ECE7F4E10C9471278AE393E02091F10076
:10290000FC012193CF01F3E082349F07B9F7809156
:102910003B03833009F470C0B8F4813009F447C038
:10292000823009F4B1C08091E80083FF7EC28091BB
:102930003A0390913B039A3008F077C2E92FF0E018
:10294000EC5AF64D0C94CD278A3009F48CC08B30AC
:1029500009F46FC0893039F780913A03813219F751
:1029600080913E0390913F030297E8F68091E80042
:10297000877F8093E8008091E80082FF38C09091C3
:10298000F3008091F200029731F48091F1008130E0
:1029900011F0863021F48091F10080932D03809115
:1029A000E8008B778093E8000E946A03BCCF809197
:1029B0003A03813A09F0B7CF8091E800877F80938E
:1029C000E80080913E0390913F03892B61F468E019
:1029D0008EE293E070E00E9416048091E8008B770D
:1029E0008093E800A0CF60E090E080E0F3CF80919A
:1029F00038038111C0CF97CF80913A03813A09F013
:102A000092CF80913E0390913F03892B09F08BCFA9
:102A10008091E800877F8093E8008091E80080FF44
:102A2000FCCF80914E018093F1008091E8008E7779
:102A3000B9CF80913A03813209F075CF80913E037E
:102A400090913F03892B09F06ECF8091E800877F3A
:102A50008093E8000E946A0380913C0380934E01BA
:102A60000E944F1460CF80913A03813209F05BCF0E
:102A70008091E800877F8093E8000E946A0380913C
:102A80003D0380932C034FCF80913A03813A09F0A4
:102A90004ACF8091E800877F8093E8008091E8002A
:102AA00080FFFCCF80912C03BECF803899F0823814
:102AB00009F0BBC180913E038F70873008F0B5C12B
:102AC0008093E9008091EB0085FB882780F91092C4
:102AD000E90006C08091360390913703911182601E
:102AE0009091E800977F9093E8008093F100109216
:102AF000F1008091E8008E7794C1882309F482C1A7
:102B0000823009F092C180913C03811185C180918E
:102B10003E038F702FEF280F263008F086C1809378
:102B2000E9002091EB0020FF77C1933031F48091D0
:102B3000EB0080628093EB006FC19091EB0090619D
:102B40009093EB0021E030E001C0220F8A95EAF774
:102B50002093EA001092EA008091EB008860EACFAF
:102B6000811163C110913C031F778091E30080784D
:102B7000812B8093E3008091E800877F8093E800B9
:102B80000E946A038091E80080FFFCCF8091E300FF
:102B900080688093E30082E0111183E08093380322
:102BA00044C18058823008F040C180913C0390912C
:102BB0003D038C3D23E09207A1F583E08A838AE2FE
:102BC00089834FB7F894DE01139620E03EE051E28E
:102BD000E32FF0E050935700E49120FF03C0E2950B
:102BE000EF703F5FEF708E2F90E0EA30C0F0C79635
:102BF0008D939D932F5F243159F74FBF8091E8004B
:102C0000877F8093E8006AE270E0CE0101960E941F
:102C100016048091E8008B778093E80006C1C09687
:102C2000E7CF40913E0350913F03292F33272330B4
:102C3000310509F444C078F52130310509F46FC03D
:102C40008BE390E0E5E0F5E02230310509F0EDC0DE
:102C50002091E800277F2093E800209140033091E5
:102C600041038217930708F49C0140E021153105C8
:102C700009F064C0411162C08091E80082FDC9CFB3
:102C800080913803882329F2853019F28091E80079
:102C900083FFF2CFBECF21323105A9F122323105B7
:102CA00009F0C3C04115510509F443C04130510535
:102CB00009F0BBC08BE790E0E6E4F4E0C9CF9927C8
:102CC00081309105C1F0009759F0029709F0ADC02D
:102CD000E2E5F5E0E4918E2F90E0E2E5F5E007C053
:102CE000E6E8F5E0E4918E2F90E0E6E8F5E0009765
:102CF00009F49BC0ADCFE6E7F5E0E4918E2F90E0BC
:102D0000E6E7F5E0F4CF4115510571F0413051058A
:102D100009F08BC089E090E0E0E3F5E099CF82E133
:102D200090E0E0E4F5E094CF89E090E0E7E1F5E0C1
:102D30008FCF84E490E0E1ECF4E08ACF8091380317
:102D4000882309F466CF853009F463CF8091E800C9
:102D500083FD5FCF8091E80082FD8ECF8091E800F7
:102D600080FF84CF9091F3008091F200211531050E
:102D700019F08830910550F041E0089709F040E0E3
:102D80008091E8008E778093E80070CF4491409363
:102D9000F1003196215031090196E8CF803809F0D1
:102DA00044C08091E800877F8093E80080913903D8
:102DB0008093F1009ECE811138C010913C031230F7
:102DC000A0F58091E800877F8093E8001093390395
:102DD0000E946A03112311F084E005C08091E30092
:102DE00087FDFACF81E08093380342E061EC81E017
:102DF0000E94890342E261EC82E00E948903809193
:102E0000380313C080913C03813079F481E0933022
:102E100009F080E0809337031092E9008091E80088
:102E2000877F8093E8000E946A038091E80083FF17
:102E30000AC08091E800877F8093E8008091EB00D2
:102E400080628093EB00AA96E3E00C948D270E94A9
:102E50004F142FEF84E39CE0215080409040E1F735
:102E600000C0000088E19AE00FB6F894A89580931E
:102E700060000FBE90936000FFCF882321F00E9476
:102E80005A080E9412140895882339F09091120272
:102E9000982B909312020E9412140895882309F42B
:102EA00056C0823879F40E942F0E81FF50C089E30A
:102EB0000E946E080E94121489E30E9461080E9419
:102EC00012140895833859F40E942F0E80FF3FC0DA
:102ED00083E50E946E080E94121483E5EECF8438C9
:102EE00059F40E942F0E82FF32C087E40E946E08C0
:102EF0000E94121487E4E1CF9CEF980F913AE8F218
:102F000090E2980F983050F4877091E001C0990FCB
:102F10008A95EAF7892F0E945A08D1CF9BE5980F2E
:102F2000933028F490E080E00E94C304089598E56F
:102F3000980F9B3128F490E080E00E949E04089551
:102F400093E3980F933118F460E00E949F0908956D
:102F5000CF93C82F8823C9F08238C9F40E942F0E5E
:102F600081FD13C089E30E946E080E9412142FEFA6
:102F700087EE93E0215080409040E1F700C00000D0
:102F800089E30E9461080E941214CF91089583384A
:102F9000A1F40E942F0E80FDF8CF83E50E946E08F9
:102FA0000E9412142FEF81EE94E021508040904057
:102FB000E1F700C0000083E5E4CF8438A1F40E946B
:102FC0002F0E82FDE2CF87E40E946E080E94121449
:102FD0002FEF81EE94E0215080409040E1F700C057
:102FE000000087E4CECF8CEF8C0F813A70F4E8ECD0
:102FF000F1E08EEC91E02191C217E1F18E179F076D
:10300000D1F78C2F0E946E08BECF80E28C0F8830E3
:1030100068F4C77021E030E001C0220FCA95EAF7DA
:1030200080911202822B80931202ADCFEBE5EC0F60
:10303000E33040F4F0E0E35AFE4F808190E00E94DC
:10304000C304A3CFE8E5EC0FEB3150F4F0E0EE0F52
:10305000FF1FE05AFE4F808191810E949E0495CF10
:1030600083E38C0F833108F090CF61E08C2F0E94B6
:103070009F098BCF8C2F0E9461080E941214C1CF30
:103080000F931F93CF93DF93C62FD42F022FFC01F2
:1030900085818823A9F060937E030E949204909317
:1030A0007D0380937C03C77081E001C0880FCA95BF
:1030B000EAF70E944417DF91CF911F910F91089575
:1030C00080917E03681335C080917C0390917D03CD
:1030D0000E947704883C910560F510E21D0FCD1722
:1030E000B9F080E28C0F883040F4C77081E001C0F5
:1030F000880FCA95EAF70E943D17183048F481E01E
:103100009D2F977001C0880F9A95EAF70E94441787
:10311000802F0E94A817802F0E944E17183058F653
:10312000D77081E001C0880FDA95EAF70E943D1759
:10313000C2CFC77081E001C0880FCA95EAF7F6CF09
:10314000A8E0B0E0E6EAF8E10C94722766EE7EEFC4
:1031500090E080E00E94D92860E082E090E00E9448
:10316000BB2860E083E090E00E94BB28109214022C
:103170001092130260E074E184E090E00E94D9288C
:1031800060E086E090E00E94BB286FEF87E090E06F
:103190000E94BB2840E050E0BA0188E090E00E9425
:1031A000CD2860E084E290E00E94BB2860E087E1E7
:1031B00090E00E94BB2860E08CE090E00E94BB2879
:1031C00060E08DE090E00E94BB2819821A821B8289
:1031D0001C821D821E821F82188648E050E068E132
:1031E00070E0CE0101960E94AB2840E050E0BA01A9
:1031F00080E290E00E94CD28E8E1F3E080818160E8
:10320000808386950E94C31021E04FEF6FEF80E02E
:103210000E94700F8BE00E94C31040E050E0BA01A2
:103220008FE090E00E94CD2840E050E0BA0183E1B9
:1032300090E00E94CD282896E2E00C948E27909191
:10324000600292FB222720F9281779F080FB92F97F
:103250009093600260915F027091600284E090E060
:103260000E94D92882E00E9450090895B0E0A0E0B1
:10327000ECE3F9E10C946A278C01FC01848188233A
:1032800041F121E0408151816281738195810E94E9
:10329000770AEC01FC01E851FC47E730F105A8F59D
:1032A000E25AF64D0C94CD2726E241EE61EEC801BC
:1032B0000E94401880910702877059F0F8018581BB
:1032C000882339F08091600282FF03C082E00E946F
:1032D0005009CDB7DEB7EAE00C94862727E245EE29
:1032E00065EEE5CF26E241EE60EEE1CF27E245EE66
:1032F00064EEDDCF26E241EE62EED9CF27E245EE65
:1033000066EED5CF28E241E0EBCFF8018581882336
:1033100009F4FEC310927E03CE019057839708F004
:10332000E3C384E090E00E94A5289093600280931C
:103330005F02FE01E150F047E232F10520F4EB5963
:10334000F64D0C94CD2780915F02816080935F02DF
:1033500095C0809160028860809360028FC08091E8
:103360005F028260F3CF80915F028460EFCF809133
:103370005F028860EBCF809160028160EDCF809129
:1033800060028260E9CF80915F028061DFCF80912F
:103390005F028062DBCF80915F028064D7CF0E94A2
:1033A0004F1480915F028068D1CF80915F028C6062
:1033B000CDCF809160028360CFCF80915F028E7FFE
:1033C000C5CF80916002877FC7CF80915F028D7FDC
:1033D000BDCF80915F028B7FB9CF80915F02877FE5
:1033E000B5CF809160028E7FB7CF809160028D7FD4
:1033F000B3CF80915F028F7EA9CF80915F028F7DD6
:10340000A5CF80915F028F7BA1CF0E944F14809146
:103410005F028F779BCF80915F02837F97CF8091F0
:1034200060028C7F99CF80915F0282FB992790F98F
:1034300021E0922790FB82F990FB83F987CF80915E
:103440006002982F909591708E7F892B90FB81F967
:1034500083CF90915F02892F8F7B96FF806476CF18
:103460000E944F1490915F02892F97FB87F9805833
:103470006DCF61E08EE090E00E94BB2860915F021A
:103480007091600284E090E00E94D9280E944F145D
:1034900011CF60E0EFCF90915F02892F8F7E94FF74
:1034A000806154CF90915F02892F8E7F90FF816061
:1034B0004DCF90916002892F877F93FF88604CCF1A
:1034C00085E321C385E32DC32091180320FF1DC090
:1034D0002E7F209318033091190340911A035091C5
:1034E0001B0360911C0370911D0380911E0390913A
:1034F0001F030E944A0F0E94EF0480919402816092
:10350000809394020E94F90AD5CE822F8160809325
:10351000180386950E94C310CDCE47EC50E161EDB3
:1035200070E10E94E804C6CE41ED50E167EC70E125
:10353000F8CF43E350E16DE370E1F3CF4DE350E1A9
:1035400063E370E1EECF49E150E166E270E1E9CF7B
:1035500046E250E169E170E1E4CF4FEF5FE06CE0FB
:1035600070E1DFCF4CE050E16FEF7FE0DACF47E46E
:1035700050E161E670E1D5CF41E650E167E470E1EA
:10358000D0CF81E0C7CF65E082E00E94DC1092CE10
:1035900068E086E0FACF6EE089E0F7CF64E18FE083
:1035A000F4CF67E185E1F1CF88E1B4CF62E289E150
:1035B000ECCF83E2AFCF6AE285E2E7CF0E944F14FF
:1035C000FFEF24E33CE0F15020403040E1F700C041
:1035D000000087E797E7909301088093000888E14F
:1035E0009AE00FB6F894A895809360000FBE909370
:1035F0006000FFCF6FEF7FEF90E080E00E94D9285E
:103600000E9427178091600282FB882780F991E051
:1036100089270E941F19F8018581C081D1818823E3
:1036200009F44AC0CE010E949108F82E682FCE01FD
:103630000E940409BE018F2D0E941C070E943C07B6
:10364000D82FC92FA82EF801C580B680B2943FE0CC
:10365000B322809107028770F1F0EC2CCC20E1F0CE
:10366000892F807F803451F080E28D0F883098F070
:10367000B11004C0892F807E803269F08091600291
:1036800082FF09C082E00E94500980910702877082
:10369000EE24E3948111E12CDC2ED2942FE0D2228F
:1036A000FBE0FD1508F46DC0ED2DF0E0E957F64D97
:1036B0000C94CD2780E0ADCFCE010E94D208F82E29
:1036C000B9CF2C2F2F70F22EC07F19F0F29490EF0B
:1036D000F922CC20B9F0FF2069F080E28D0F88300C
:1036E00010F0A11009C080911202F82AF092120283
:1036F0000E9412148D2F43C080911102F82AF0927B
:103700001102F6CF8D2F0E944E17FF20D1F1D05E0F
:10371000D83010F0A11004C08F2D0E945A0806C0A6
:10372000F09480911102F822F09211020E9412147A
:1037300028C03C2F3F70F32EC07FC03219F0F294A6
:1037400080EFF822AA2059F081E0A81609F479C088
:10375000CC2009F485C0BB2009F447C0CBCF8091B1
:10376000600282FD3EC0CC20B1F1FF2039F0809193
:103770001202F82AF09212020E94121480E00E94B3
:10378000A8172D2D2850330B2430310510F40E943A
:103790002F0EEE20A9F08091070280FD11C0F801E4
:1037A00015828695869586950E946709C8010E94B4
:1037B0003619809107028695869586950E943E0966
:1037C00020E0F8014081518162817381848195817B
:1037D0000E94770A7ECD80E00E944E17FF2089F27A
:1037E0009BCFCC20A1F0B11004C08F2D0E944417B4
:1037F000C8CF91E0B912C5CF809110029F2D9823B8
:10380000F91609F4BECFF82AF0921002BACFB1101F
:10381000B8CF8F2D0E943D17909110028F2D8923D4
:1038200029F08F2D80958923809310028091CF01FC
:103830009F2D982309F4A5CFF094F822F092CF01A0
:10384000A0CFCC2029F0E5E0EB1508F49ACFCDCF3E
:10385000F4E0FB1508F495CF8F2D0E943D1791CF12
:10386000BB20D1F329E3A21209C03FEF87EE93E01A
:10387000315080409040E1F700C000008D2F0E9441
:103880004E177FCF8C2F86958695837069F0813097
:1038900009F077CF8D2F9C2F9370C11002C080E06C
:1038A00090E00E949E046DCF8D2F9C2F9370C110CD
:1038B00002C080E090E00E94C30463CF6C2D8D2F86
:1038C0000E949F095ECF8C2F837009F03FC0C1100A
:1038D00058CF4D2F429546954770440F440F2D2FDA
:1038E0002F7030E0042E02C0220F331F0A94E2F73B
:1038F00090E080E0D4FF09C08FE090E002C0880F24
:10390000991F4A95E2F780959095C695C695C37024
:10391000C23099F078F44091130250911402C130F2
:1039200039F0822B932B842395230E94770929CF8A
:10393000242B352B822B932BF8CF822B932B20918A
:1039400013023091140282279327EFCF8695CC2063
:1039500011F08C2F8170882309F413CF4D2F4295DD
:1039600046954770440F440F2D2F2F7030E0042EE2
:1039700002C0220F331F0A94E2F790E080E0D4FFE8
:1039800009C08FE090E002C0880F991F4A95E2F7C6
:1039900080959095C695C695C370C23099F078F41D
:1039A00040915D0250915E02C13039F0822B932B21
:1039B000842395230E943909E4CE242B352B822BB6
:1039C000932BF8CF822B932B20915D0230915E02D6
:1039D00082279327EFCFCF70CC2029F08C2F0E9425
:1039E00067098D2F03CF8D2F0E943D178C2F0E94CA
:1039F0003E09C7CE8D2FE2EFAE1699F1EA1570F0B1
:103A0000F0EFAF16D1F021EFA21691F0CC2009F41F
:103A10005BC0B1106FCE8C2F8F7127C033EFA31610
:103A200039F194EFA912F2CF8091600282FD2EC08D
:103A30008C2F8F71CC20D9F218C0CC2069F0E4E033
:103A4000EB1508F49ECECF7181E090E002C0880FA4
:103A5000991FCA95E2F7B8CFF5E0FB1508F491CEAF
:103A6000F2CF8C2F8F71C110C2CF0E94670989CE0F
:103A700090E080E0CC2009F49DCFCF7181E090E010
:103A800002C0880F991FCA95E2F794CFCC2089F025
:103A9000CF718C2F0E9467098091600282FF07C05E
:103AA00028E0C29FC00111248360809307028C2FFD
:103AB000DCCF81E00E94500931E03B1508F061CE77
:103AC00082E00E9450095DCEBB2059F0893309F095
:103AD000D5CE8FEF97EEE3E081509040E040E1F7E4
:103AE000CBCE8C2F8F7183CFC631FCE7DF07E1F49B
:103AF000809112028A7A91E009F490E09093CE01CD
:103B00008111DECC89E20E946E080E941214D2CB91
:103B1000C6312CE7D20741F58091CE018111D2CC7C
:103B200089E20E946108F1CFC3303CE7D30709F472
:103B300061CD50F4C1159CE7D90709F43FCDC130E0
:103B4000DC4709F45DCD67CDCB35FCE7DF0709F431
:103B5000B1CDCC352CE7D20709F454CDCA35DC47BA
:103B600009F059CD81E055CD809112028272FE019B
:103B7000E052F847E531F10508F04DCDED56F64D30
:103B80000C94CD27CF93DF9380910602807F09F0BC
:103B90004DC080910502882309F448C0E0917B0361
:103BA00050914203C0910102D09100026091020243
:103BB0007091030247E05E17C9F18E2F90E0E49FF9
:103BC000F0011124ED5BFC4F2481222391F1489FE9
:103BD000F001499FF00D1124DF01AD5BBC4F119640
:103BE0002C9111972C1325C02C912D1322C01596C2
:103BF0002C91159721111DC012962D913C91261BD9
:103C0000370B283C3105A8F4809106028F70806143
:103C100080930602E75BFC4F80818F708061808318
:103C200080E092E00E9436190E948708DF91CF91D0
:103C30000895FC013196E770BECFA4E1B0E0E3E265
:103C4000FEE10C9468278C0186E0F801DE011F96E6
:103C500001900D928A95E1F7F8018481E58090E06A
:103C6000A92E92E0B92E90910402911128C08823C8
:103C700019F1EE20F1F0C8010E947C09F82E88238A
:103C8000C1F087E0F801D50101900D928A95E1F726
:103C900080910402813031F4809100029091010200
:103CA0000E94C5080E94C21D8F2D6496ECE00C9402
:103CB0008427C8010E943619FF24F394F5CFD080E1
:103CC000C18082809380F0900502209102023091A1
:103CD0000302A401421B530BFF2009F4D9C0483C46
:103CE000510508F092C08823F9F290910102809169
:103CF0000602282F207F09F056C0C91214C09091E7
:103D00000002D91210C0E11048C08F70806180930A
:103D1000060280E092E00E94361980910602F801C6
:103D20008683F12CC1CFE11038C06C2D8D2D0E94FF
:103D3000E4026C2D8D2D0E94E402E82E8111F1CF5A
:103D4000DF86C88A8F8598890E94C508292F229509
:103D50002F70243058F49F70223088F0992399F006
:103D6000F8019681907F79F4FE2C9ECF2A5F2F7008
:103D7000223068F0C8010E943619EF2CF5CF992344
:103D800011F0882389F3805E883070F3F3CF803F91
:103D900058F3815F833070F7E7CF8091060281602E
:103DA00080930602BECFC91207C090910002D912BB
:103DB00003C0EE2009F48DC0C8010E947C0988234D
:103DC00009F477CFEE2009F474CF80910602803297
:103DD00088F02091000230910102398728879B8664
:103DE0008A86909104029C871D868E87CE01089654
:103DF0000E94361987E0F801A0E0B2E001900D9230
:103E00008A95E1F70E94C21D57CF90910602292F93
:103E1000207F51F480E092E00E94361987E0F5019E
:103E200011928A95E9F77DCF882309F43DCF8091DF
:103E300001028C1110C080910002D8120CC0E11058
:103E40000AC09683C8010E94361987E0F5011192D5
:103E50008A95E9F729CFC8010E947C09882309F4D3
:103E600028CFEE2009F425CF80910602803210F28F
:103E700020910002309101023A8329839C828B8237
:103E8000909104029D831E828F83CE010196B0CF54
:103E9000483C5105D0F6882309F40ECFFE2CEE20C5
:103EA00009F407CF809101028C1120C0809100029B
:103EB000D8121CC08091060280FD0FC0982F907F01
:103EC00061F08683903F31F0982F907F905F8F70E4
:103ED000892B8683C8010E94361987E0F801A0E08B
:103EE000B2E001900D928A95E1F7DECEC8010E9402
:103EF0007C0981117FCF8091060281608093060248
:103F0000C8010E943619D0CEABE1B0E0EAE8FFE18B
:103F10000C9470274E8B5F8B688F798F8A8F9B8F65
:103F2000192F9111109211021D8A86E0FE017696DA
:103F3000DE011F9601900D928A95E1F70A8D00230C
:103F400041F021E04F85588969897A89C8010E942A
:103F5000770A0B8B1C8B87E0FE013F96DE011896DB
:103F600001900D928A95E1F7CE0108960E941D1EE0
:103F700081112AC087E0FE013896DE01119601907A
:103F80000D928A95E1F78C858823F1F02091420308
:103F900030E0C90101968770992740917B0348174B
:103FA0001906E9F097E0929FD001939FB00D11247C
:103FB000AD5BBC4FFE01319601900D929A95E1F7F1
:103FC000809342030E94870817E080917B039091C1
:103FD0004203891312C06B96E4E00C948C270E9474
:103FE0004F141092420310927B0387E0E0E0F2E06E
:103FF000DF011D928A95E9F7E7CF819FC001112467
:104000008D5B9C4F0E941D1E882329F380917B03AA
:1040100090E001968770992780937B03D6CFA6E026
:10402000B0E0E5E1F0E20C9470270E9492048C016C
:1040300080911502909116028017910781F01982E4
:104040001A820E949204682F49815A81792F80E058
:1040500090E00E94841F109316020093150226968A
:10406000E4E00C948C271F920F920FB60F9211244C
:104070002F933F934F935F936F937F938F939F9370
:10408000AF93BF93CF93DF93EF93FF93D091E9006A
:10409000DF708091EC00C82FC17080FDC0E81092E5
:1040A000E9008091F000877F8093F00078940E946F
:1040B00076141092E9008091F00088608093F000FF
:1040C000CD2BCF70C093E900FF91EF91DF91CF919D
:1040D000BF91AF919F918F917F916F915F914F9120
:1040E0003F912F910F900FBE0F901F9018951F9228
:1040F0000F920FB60F9211242F933F934F935F931C
:104100006F937F938F939F93AF93BF93EF93FF939F
:104110008091E10082FF09C08091E20082FF05C02A
:104120008091E1008B7F8093E1008091DA0080FF35
:1041300024C08091D80080FF20C08091DA008E7F5B
:104140008093DA008091D90080FF9DC080E189BD15
:1041500082E189BD09B400FEFDCF81E08093380380
:1041600080912B03811109C00E941A030E94BB0396
:104170008091E20084608093E2008091E10080FF02
:1041800017C08091E20080FF13C08091E2008E7F13
:104190008093E2008091E20080618093E200809150
:1041A000D80080628093D80019BC85E080933803E2
:1041B0008091E10084FF2BC08091E20084FF27C042
:1041C00080E189BD82E189BD89B5982F917080FF1A
:1041D000FBCF8091D8008F7D8093D8008091E10043
:1041E0008F7E8093E1008091E2008F7E8093E200D9
:1041F0008091E20081608093E200809139038823FE
:1042000009F447C084E0809338038091380380919B
:10421000E10083FF27C08091E20083FF23C08091EB
:10422000E100877F8093E10082E080933803109261
:1042300039038091E1008E7F8093E1008091E2005C
:104240008E7F8093E2008091E20080618093E200A3
:1042500042E060E080E00E9489038091F000886085
:104260008093F000FF91EF91BF91AF919F918F915B
:104270007F916F915F914F913F912F910F900FBE62
:104280000F901F90189519BC1092380310922B03B1
:1042900074CF8091E30087FD93E090933803B5CF0E
:1042A00078941F921FB61F9211248F939F93AF9300
:1042B000BF938091270390912803A0912903B09187
:1042C0002A030196A11DB11D809327039093280313
:1042D000A0932903B0932A03BF91AF919F918F912F
:1042E0001F901FBE1F9018951F921FB61F9211247A
:1042F0008F939F93AF93BF9380912603811113C037
:104300008091270390912803A0912903B0912A035B
:104310004196A11DB11D8093270390932803A0937C
:104320002903B0932A03BF91AF919F918F911F9062
:104330001FBE1F901895CDB7DEB72E970FB6F89415
:10434000DEBF0FBECDBF85B7806885BF85B78068EB
:1043500085BF84B7877F84BF0FB6F894A8958091F6
:104360006000886180936000109260000FBE80E85A
:1043700090E00FB6F89480936100909361000FBEB7
:1043800082E196E09093C5018093C4010E941A03D4
:104390000E94BB038091E20084608093E2007894E5
:1043A000809138038823A1F01091E9001F7090914B
:1043B000EC00892F817090FD80E8182B1092E900A5
:1043C0008091E80083FD0E9476141F701093E9002D
:1043D00082E084BD93E095BD9AEF97BD80936E0017
:1043E00010924B0210924C0210924D0210924E020B
:1043F00052985A988FE891E00197F1F700C00000B9
:1044000089B182FB882780F9809332018091320143
:10441000882309F474C11092490188E080934A010D
:104420000E940C0E81110E940026809132018111A0
:1044300027C086E0EFE4F1E0DE01199601900D92CD
:104440008A95E1F7FE013996ACE2B1E0CE010F9614
:104450009F0141914D93E817F907D9F788E0E5E509
:10446000F1E0DE01119601900D928A95E1F7FE01CF
:104470003196A4E2B1E081918D93E217F307D9F769
:104480008091320196E0811190E090935C0286E089
:10449000891B80935B020CE211E092E3E92E91E02C
:1044A000F92ED8018D918D018F3F11F00E941406D5
:1044B000E016F106B1F704E211E08CE2E82E81E0AB
:1044C000F82EF80181918F018F3F11F00E941406A0
:1044D000E016F106B1F78CE0E2E6F2E0DF01282F0A
:1044E0001D922A95E9F7EFE4F2E0DF011D928A952B
:1044F000E9F790E080E00E94A528863E9E4F11F0EB
:104500000E94A01882E090E00E94972880936E029B
:1045100084E090E00E94A5289093600280935F025F
:1045200083E090E00E94972890E00E9477098091B4
:10453000610281117BC090E080E00E94A528863E48
:104540009E4F21F00E94A0180E94EB1088E090E09E
:104550000E949F284B015C0184E290E00E94972812
:10456000282F30E040E050E060E070E080E090E034
:1045700000E20E94E227282939294A295B29209351
:1045800018033093190340931A0350931B0360934D
:104590001C0370931D0380931E0390931F0380914F
:1045A00094028360809394022E7F89F50E94EB1021
:1045B00088E090E00E949F286B017C0184E290E0FB
:1045C0000E949728282F30E040E050E060E070E043
:1045D00080E090E00E94E227B22FA32FF42FE52F76
:1045E0005B0197018601BC29A12BFE29E32BB09327
:1045F0001803A0931903F0931A03E0931B0360932D
:104600001C03B0921D0380931E0390931F030E940E
:10461000F6040E94EF048091180380FF04C060E05C
:1046200086950E947B1081E0809361020E940C0EAF
:10463000811102C00E94032683E391E0909323033B
:104640008093220318E1612E712C0EE6C02E02E049
:10465000D02EBBE7AB2EB2E0BB2E8091380300E139
:1046600012E1853009F483C00E945E120FE612E069
:10467000A2E6EA2EA2E0FA2ED701F80191918D91DF
:10468000AE16BF0609F47DC09817C1F30E940C0E48
:10469000282E912CD7018D907D01F80131908F014A
:1046A000381431F1512C442443943824832D84212F
:1046B000B9F02220A9F059869A860E9492049C871C
:1046C0008B87F1E0FD8791E0842D882109F490E04B
:1046D0009E8749855A856B857C858D850E94841FC0
:1046E0005394440C28E05212E1CFF80131978082B4
:1046F00093944CE09412CECF0E94400E46C088E0C6
:10470000809349018BCE80913803843011F110924F
:104710002603F0E40FB6F894A895609260000FBEEF
:10472000F093600083B7817F846083BF83B781602B
:1047300083BF7894889583B78E7F83BF0FB6F89434
:10474000A89580916000886180936000109260005D
:104750000FBE80913703882351F00E945E12E2E67B
:10476000F2E081918111CFC1CE16DF06D1F78091A1
:104770003803853009F4C7CF0E944F140E942F0ED2
:1047800073CF981383CF0E940F200E940C0E80914C
:104790009302882309F464C080919202E091180387
:1047A000E695E81BE0938E02823009F038C1F0E014
:1047B000E35CFD4FE4910E2F10E0F5ECEF2EFDE0F1
:1047C000FF2E80918F02882361F010928F020E9449
:1047D0005A0E90938D0280938C0210929102109247
:1047E00090020E945A0EE0918C02F0918D029C0181
:1047F0002E1B3F0B2F3F3F4798F520917D02222330
:10480000B1F010927D0220917B0230917C02821BDC
:10481000930B8F3F9F4758F4205D3A4830937C02BA
:1048200020937B0280919402886080939402809010
:10483000900290909102E00FF11FF0938D02E093AF
:104840008C028CE892E0F70109958091900290919A
:104850009102892B29F4892819F081E080937D0247
:1048600086E0E6E8F2E0DE01119601900D928A956D
:10487000E1F790908702F090880200918902E09021
:104880008A0210918B021092880210928902109273
:104890008A0210928B02802F8F2909F445C08091E3
:1048A0008402909185020E9477049C0190917F027E
:1048B000992309F448C125313105B0F19F3F19F022
:1048C0009F5F90937F02FF2059F00E94E4059FEFC5
:1048D0001F140CF491E0899F802D1124809388028D
:1048E000002359F00E94E40591E010160CF09FEFB0
:1048F000899F802D112480938902809188028823CA
:1049000099F080908902882079F00E94040688231B
:1049100009F4F1C080938802882D0E940406882340
:1049200009F4EBC080938902812F8E2909F445C0D8
:1049300080918202909183020E9477049C01909161
:104940008002992309F4FAC021353105B0F19F3F67
:1049500019F09F5F90938002EE2059F00E94C205EB
:104960009FEF1E140CF491E0899F802D11248093F9
:104970008A02112359F00E94C20591E011160CF031
:104980009FEF899F802D112480938B0280918A0252
:10499000882399F0E0908B02EE2079F00E940406C3
:1049A000882309F4ACC080938A028E2D0E940406ED
:1049B000882309F4A6C080938B0280918702981205
:1049C00017C080918802882311F08F1111C02091A7
:1049D0008902222311F002130BC090918B029923BC
:1049E00011F0191305C030918A02332309F4A1C0D4
:1049F0000E949B0586E0FE013196A6E8B2E0019098
:104A00000D928A95E1F70E942F0E90917E028917F0
:104A100009F423CE80937E020E9486041ACE86304B
:104A200059F4F0E0E65CFD4FE4910E2F10E0E5EB69
:104A3000EE2EEDE0FE2EC5CE893061F4E695F0E075
:104A4000E95CFD4FE4910E2F10E07EE0E72E7DE063
:104A5000F72EB7CE8F3061F4E695F0E0EC5CFD4FB9
:104A6000E4910E2F10E068E8E62E6CE0F62EA9CE59
:104A7000853159F4F0E0EF5CFD4FE4910E2F10E02A
:104A800053E0E52E5CE0F52E9CCE08E210E021E834
:104A9000E22E2BE0F22E883109F493CE833249F4D2
:104AA000EFE2F2E00591149144E6E42E4DE0F42E9D
:104AB00088CE04EF11E094E4E92E9BE0F92E8432D5
:104AC00009F47FCE853281F48E2F63E00E9499270E
:104AD000E92FF0E0E45DFD4FE4910E2F10E035E6A4
:104AE000E32E3EE0F32E6DCE00ED17E08EEEE82EC5
:104AF00084E0F82E66CE81E00DCF81E013CF81E017
:104B000052CF81E058CF09BD19BD09B400FEFDCFD9
:104B10008091D8008F7D8093D8008091E0008260E2
:104B20008093E0008091E00081FDFCCF0E944F1453
:104B30001ECE822B892B09F45DCF5ACF2B30310545
:104B400008F007CF3ACF2B30310508F0B9CEECCEC4
:104B50008EE1489B02C08150E1F7489BFECF08954B
:104B6000589880E28A95F1F7589A0895FC013BE045
:104B70003A95F1F798E020E080E031E040E14A9595
:104B8000F1F7880F489B02C08160232742E04A95D5
:104B9000F1F7000040E14A95F1F7915079F790E183
:104BA0009A95F1F799B132E03A95F1F7000040E1BA
:104BB0004A95F1F7917092272081920F9083089582
:104BC000A1E0B0E0E6EEF5E20C946E2719828C01CC
:104BD0007C01E60EF11C0E151F0541F481E0998160
:104BE000911180E02196E6E00C948A270E94A82586
:104BF000CE0101960E94B625F80181938F01EBCF7B
:104C0000509A589A08955098589AE89AE9E6F0E030
:104C100080818C7F808308956150770B91E001C083
:104C2000990F6A95EAF720E031E0911108C022233C
:104C300091F0589A80E28A95F1F758980895492F93
:104C4000482339F0589A232740E24A95F1F7969580
:104C5000ECCF5898F9CF5898EDCFFF920F931F9350
:104C6000CF93DF93EC018C01060F111DC017D10704
:104C700029F4CDB7DEB7E5E00C948B27F9900E94BC
:104C8000B02568E08F2D0E940C26F0CF1F920F9266
:104C90000FB60F9211240F931F932F933F934F93AF
:104CA0005F936F937F938F939F93AF93BF93EF9394
:104CB000FF93CF93DF930F92CDB7DEB719820E9497
:104CC000A825CE0101960E94B625082F06950695C7
:104CD0000695282F22952570902F9570290F922FD9
:104CE000937026952695920F982797708981982B17
:104CF00009F05CC0053008F059C080E18A95F1F7F1
:104D0000589A509A82E08A95F1F700C0589888E046
:104D1000089F80011124D801AC5FBE4F1696ED911B
:104D2000FC9117973097A9F06091960170919701C7
:104D300014962D913C911597260F371F11968D9142
:104D40009C911297680F791F13964C9113978C9131
:104D50000995F801EC5FFE4F6381662351F02091C5
:104D600096013091970184819581820F931F0E9453
:104D70002D260E94B02580E18A95F1F75898509829
:104D8000589A80E18A95F1F7F801EC5FFE4F608157
:104D9000662351F020919601309197018181928193
:104DA000820F931F0E94E0250E94A8250F90DF919B
:104DB000CF91FF91EF91BF91AF919F918F917F9193
:104DC0006F915F914F913F912F911F910F910F9094
:104DD0000FBE0F901F9018950F931F93CF93DF93E3
:104DE000EC0105970CF04CC0F894509A589885E067
:104DF0008A95F1F700009C2F969595708C2F857001
:104E0000980F892F83709695969523E0CC0FDD1F20
:104E10002A95E1F7980F8E01092B0E94B02500C05A
:104E200068E0802F0E940C2680E18A95F1F7509867
:104E3000589A489B1EC087E090E048991CC0FE012C
:104E4000EC5FFE4F63816623F9F02091960130916B
:104E5000970184819581820F931F0E94E025811123
:104E600013C0509A589A7894DF91CF911F910F9167
:104E7000089500C0DECF019729F4509A589A78948B
:104E800080E0F2CF00C0D9CF0E94A82580E28A95A9
:104E9000F1F75898509A80E18A95F1F7CC5FDE4F90
:104EA0006881662351F020919601309197018981A4
:104EB0009A81820F931F0E942D260E94B02578941C
:104EC00081E0D2CF2F923F924F925F926F927F926A
:104ED0008F929F92AF92BF92CF92DF92EF92FF920A
:104EE0000F931F93CF93DF93CDB7DEB7CA1BDB0BB6
:104EF0000FB6F894DEBF0FBECDBF09942A8839885B
:104F000048885F846E847D848C849B84AA84B98461
:104F1000C884DF80EE80FD800C811B81AA81B9816D
:104F2000CE0FD11D0FB6F894DEBF0FBECDBFED0181
:104F30000895991B79E004C0991F961708F0961BF5
:104F4000881F7A95C9F780950895AA1BBB1B51E16C
:104F500007C0AA1FBB1FA617B70710F0A61BB70BE9
:104F6000881F991F5A95A9F780959095BC01CD018E
:104F7000089597FB072E16F4009407D077FD09D00B
:104F80000E94A52707FC05D03EF4909581959F4F80
:104F90000895709561957F4F0895EE0FFF1F05905E
:104FA000F491E02D09940E944329332312F48A1BC3
:104FB0009B0B0C94DD270E944329B7FF0895821BA9
:104FC000930B0895002E083090F0982F872F762F9E
:104FD000652F542F432F322F22270850F4CF220F52
:104FE000331F441F551F661F771F881F991F0A957F
:104FF000B2F7002D089597FD1094002E083098F018
:105000000850232F342F452F562F672F782F892FA5
:10501000912DF4CF1594979587957795679557952A
:105020004795379527950A95AAF71124002D0895DD
:105030008F929F92AF92BF92CF92DF92EF92FF92A8
:10504000CF93DF93EC01688179818A819B8161151F
:1050500071058105910521F464E279ED8BE597E016
:105060002DE133EF41E050E00E94EF2849015A0161
:105070009B01AC01A7EAB1E40E940E296B017C01FF
:10508000ACEEB4EFA50194010E941C29DC01CB0118
:105090008C0D9D1DAE1DBF1DB7FF03C00197A1095B
:1050A000B04888839983AA83BB839F77DF91CF9190
:1050B000FF90EF90DF90CF90BF90AF909F908F9038
:1050C00008950E941828089580E091E00E94182811
:1050D0000895B0E0A0E08093000190930101A093B7
:1050E0000201B09303010895FC014150504030F09B
:1050F00001900616D1F73197CF0108958827992797
:105100000895FB01DC0104C08D910190801921F408
:1051100041505040C8F7881B990B0895FB01DC01F2
:1051200002C001900D9241505040D8F70895F9996E
:10513000FECF92BD81BDF89A992780B50895A6E16A
:10514000B0E044E050E00C94E128A8E1B0E042E097
:1051500050E00C94E128DC01A40FB51F41505040F1
:1051600048F0CB01840F951F2E910E94BC2841501E
:105170005040D0F70895262FF999FECF92BD81BDFA
:10518000F89A019700B4021639F01FBA20BD0FB685
:10519000F894FA9AF99A0FBE08950396272F0E9461
:1051A000BC280E94BB28252F0E94BC28242F0C94C9
:1051B000BC280196272F0E94BC280C94BB28DC0138
:1051C000CB01FC01F999FECF06C0F2BDE1BDF89A12
:1051D000319600B40D9241505040B8F70895052E15
:1051E00097FB1EF400940E94062957FD07D00E94E9
:1051F000212907FC03D04EF40C94062950954095C4
:10520000309521953F4F4F4F5F4F08959095809572
:10521000709561957F4F8F4F9F4F08950E9443294E
:10522000A59F900DB49F900DA49F800D911D1124FA
:105230000895B7FF0C940E290E940E29821B930B30
:105240000895A1E21A2EAA1BBB1BFD010DC0AA1FC7
:10525000BB1FEE1FFF1FA217B307E407F50720F0DF
:10526000A21BB30BE40BF50B661F771F881F991F5A
:105270001A9469F760957095809590959B01AC01A3
:10528000BD01CF010895A29FB001B39FC001A39FAC
:10529000700D811D1124911DB29F700D811D11246F
:1052A000911D0895F894FFCF55157D1515177D159F
:1052B0001517B015D1151517CE16DB1672197619FC
:1052C00054196E197A197E198219DD19521AE519C5
:1052D000AF19B319E919B719ED19F919C3194B1A0F
:1052E000C719FD19CB19011A291ACF19051A301A35
:1052F000D5190B1A131ABB19F119BF19F519D919B8
:105300000F1A1F1A391A491AA919E119591A611BDA
:10531000611B991B991B421C5E1CC11BC11B631C9A
:10532000EB1CFA1CFA1C641A8D1A941A991A9E1A0C
:10533000A31AA81AAD1AB21AB71ABC1AC11AC31AFC
:10534000C81ACB1ACE1AD11AD41AD61AD91ADB1AFD
:105350000100000000000001000000000000000645
:105360000100000004070000000000000B0B00001B
:1053700000000000F5F6F73133323635F49497C665
:105380003466017404E50ADE0AD70A01191A1B1CE7
:105390001D1E1F202122010201001000101001F427
:1053A0009497C63435F5F6F7313332366681828309
:1053B000E200E900EA00B500B600B700CD008301C5
:1053C000CC008A01920194012102230224022502C9
:1053D000260227022A02B300B4006F0070009F016A
:1053E000CB019F02A0023002000102020202060667
:1053F000060909090909090F0F0F0F0F0F151515D8
:1054000018191919191919191919192324252525D4
:045410002525250029
:00000001FF
