:100000000C94FD000C9435010C9435010C943501D1
:100010000C9435010C9435010C9435010C94350188
:100020000C9435010C9435010C94FC210C94D022D5
:100030000C94CA1C0C9435010C9435010C943501B8
:100040000C9435010C9435010C9435010C94350158
:100050000C9435010C94421D0C9435010C9435011F
:100060000C9435010C9435010C9435010C94350138
:100070000C9435010C9435010C9435010C94350128
:100080000C9435010C9435010C9435010C94350118
:100090000C9435010C9435010C9435010C94350108
:1000A0000C9435010C9435010C943501D100D3002A
:1000B000D200D400D5001E0354007200610063001A
:1000C0006B00620061006C006C0020004D00690054
:1000D0006E0069000000120350006C006F006F009A
:1000E0007000790043006F00000004030904090256
:1000F0003B00020100A032090400000103010100DD
:1001000009211101000122440007058103080001B3
:10011000090401000103000000092111010001226E
:100120007B0007058203200001120100020000008D
:10013000084350AB1E01000102000105010902A1A4
:100140000185020901A100050919012908150025E9
:1001500001950875018102050109300931158125D4
:100160007F95027508810609381581257F950175EF
:10017000088106050C0A38021581257F950175084E
:100180008106C0C005010980A101850319012AB7B4
:1001900000150126B700950175108100C0050C09F6
:1001A00001A101850419012AA002150126A00295CA
:1001B0000175108100C005010906A101050719E0BC
:1001C00029E715002501950875018102950175083B
:1001D00081010507190029FF150026FF0095067506
:1001E00008810005081901290515002501950575E7
:1001F000019102950175039101C011241FBECFEF3B
:10020000DAE0DEBFCDBF04B603FE18C08091A403C0
:100210009091A503A091A603B091A7038730904BBE
:10022000A740B04B59F41092A4031092A50310926A
:10023000A6031092A703E0E0F8E3099511E0A0E01F
:10024000B1E0E2E5FEE402C005900D92A23BB107E9
:10025000D9F723E0A2EBB1E001C01D92A43AB207A6
:10026000E1F70E9419140C94E8260C9400001092F7
:100270003C031092B4021092F8028FEF93E0909337
:10028000FA028093F90210923F0310923E031092FB
:10029000FB021092830310928A031092890310923A
:1002A0008703109286031092B5021092F702909382
:1002B0008503809384031092750210927402109249
:1002C00040031092B602109244031092430310921E
:1002D000FD021092FC0210923D03109288031092CE
:1002E0004203109241031092B8021092B70208958F
:1002F000FC01208131812E3131052CF42F5F3F4FDD
:100300003183208308951182108281E0FB01808374
:100310000895A2E0B0E0EFE8F1E00C944326FC0180
:100320003B012A013A832983DB018D919C9111972E
:10033000E817F90714F4ED93FC93D2018D919C9189
:1003400011978E179F0714F4ED93FC93D2012D9013
:100350003C90D3012D913C91C101821B930B8A30BB
:100360009105B4F163E070E00E942926620F731FCB
:10037000E617F7070CF06FC0F8018081882309F4B5
:1003800065C0D401ED91FC91EE0FFF1FEC0DFD1D3A
:1003900031822082698D7A8DC4010E947801F30137
:1003A00020813181D2018D919C91821B930B97FD0D
:1003B000019695958795820F931FF3019183808312
:1003C000D2018D939C93E981FA811082D8011C920D
:1003D000A98DBA8D8C91882309F456C0F601960137
:1003E000225C3F4F90E080E041915191840F951F36
:1003F0002E173F07C9F76FE170E00E9429269B0185
:10040000EF89F88D8081882309F458C0F701A7018E
:10041000425C5F4F90E080E061917191860F971F81
:100420004E175F07C9F76FE170E00E942926FB01B4
:10043000C9018E1B9F0B63E070E00E942926CB014F
:100440008E0F9F1F2296E2E10C945F2681E0E981E6
:10045000FA818083BDCF6E177F070CF0B9CFA981D9
:10046000BA818C91882369F0D501ED91FC91EE0F52
:10047000FF1FEE0DFF1D318320836F89788DC5012D
:100480008CCF81E0F801E5CFF401608171816115C5
:10049000710581F0F60130E020E090E080E0261761
:1004A00037070CF0AACF41915191840F951F2F5F10
:1004B0003F4FF5CFD2012D913C91A2CFD5016D9147
:1004C0007C916115710581F0F70150E040E090E00A
:1004D00080E0461757070CF0A8CFA191B1918A0F81
:1004E0009B1F4F5F5F4FF5CFD301ED91FC91A0CFE4
:1004F0008F929F92AF92BF92CF92DF92EF92FF9234
:100500000F931F9327EF32E03F932F9325EB32E0B9
:100510003F932F9326E8822E23E0922E39E8A32ED4
:1005200033E0B32E4EEFC42E42E0D42E55E4E52E38
:1005300053E0F52E03E813E02BEF32E04EE353E0F7
:1005400069EF72E00E948901909342038093410316
:100550000F900F900F900F901F910F91FF90EF90C1
:10056000DF90CF90BF90AF909F908F9008958F9223
:100570009F92AF92BF92CF92DF92EF92FF920F9332
:100580001F9328E833E03F932F932DE333E03F930D
:100590002F932CEF822E22E0922E33E4A32E33E011
:1005A000B32E49EBC42E42E0D42E56E7E52E52E09E
:1005B000F52E06EB12E020E433E044E752E064E875
:1005C00073E00E9489019093B8028093B7020F9064
:1005D0000F900F900F901F910F91FF90EF90DF9071
:1005E000CF90BF90AF909F908F9008950F931F93DF
:1005F000CF93DF938C01EB018091B502882321F02A
:100600008091F702811103C0C8010E947802809195
:100610003D03882321F080918803811103C0CE011E
:100620000E94B70240914103509142038091B7026A
:100630009091B80220913C03211125C004171507A1
:10064000A0F4C817D90710F480E00AC083E08093B3
:100650003C038091F8028823B9F31092F80281E0FC
:10066000DF91CF911F910F910895C817D90760F7B7
:1006700081E080933C038091B402882329F3109297
:10068000B4028FEFEDCF2130A1F40417150750F01D
:10069000C817D907C8F210923C032093F8021092B1
:1006A000B402D2CFC817D90778F682E080933C0312
:1006B000F4CF223001F50417150770F0C817D907D9
:1006C00018F681E080933C038091B402882309F4FA
:1006D000BBCF1092B402C3CFC817D90708F4B4CF68
:1006E00083E080933C038091F802882309F4ACCF27
:1006F0001092F802C6CF0417150760F0C817D90783
:1007000008F4A2CF10923C0381E08093B4021092CF
:10071000F8029ACFC817D90708F096CF82E08093E5
:100720003C03F2CFCF93DF93D62F0E948416C82FBD
:10073000882329F08AEDD11189ED0E94A8078C2F1A
:10074000DF91CF91089530910101E32FE295EF7091
:10075000F0E041A13F7081E090E0BC0102C0660F73
:10076000771F3A95E2F79B012095242321A330912E
:100770000101E32FE295EF70F0E042A13F70BC0170
:1007800002C0660F771F3A95E2F79B01209524235C
:1007900022A330910001E32FE295EF70F0E041A138
:1007A0003F70BC0102C0660F771F3A95E2F79B01CC
:1007B0002095242321A320910001E22FE295EF70E0
:1007C000F0E032A12F7001C0880F2A95EAF78095DA
:1007D000832382A30E9437010895CF93DF938091F2
:1007E00001010E94EB1DEC01809100010E94EB1DB4
:1007F000BC01CE010E94F602C82F8091B4019091F5
:10080000B5010E94B91C84369105D8F08091B601DB
:100810009091B7010E94B91C059798F08091C10191
:1008200081110FC0CC2369F061E01C160CF060E070
:1008300080E00E9476160E942A1D9093B701809353
:10084000B601DF91CF9108958091C00191E0892791
:100850008093C0010895CF93DF93CBE8D3E08881E4
:1008600090E0019665E070E00E9415268883609113
:100870008B0370918C0380918D0390918E030E9465
:100880009E0FE881F0E0EE0FFF1FEE5FFE4F8081CC
:1008900091810E941F15DF91CF910895ACE0B0E0E7
:1008A000E4E5F4E00C9449264F8358878B879C87B6
:1008B000172F8091C001882309F46AC0062E000C0E
:1008C000770B880B990B0E941C2520E030E040E05C
:1008D0005EE30E94A8252091BC013091BD014091AA
:1008E000BE015091BF010E9478244B015C01612F31
:1008F000110F770B880B990B0E941C2520E030E02C
:1009000040E05EE30E94A8252091B8013091B90132
:100910004091BA015091BB010E9478246B017C0187
:10092000C501B4010E94E424062F6C87C701B601FB
:100930000E94E424162F6B87602F000F770B880B23
:10094000990B0E941C259B01AC01C501B4010E94BA
:1009500077246093BC017093BD018093BE01909396
:10096000BF01612F110F770B880B990B0E941C257B
:100970009B01AC01C701B6010E9477246093B801C6
:100980007093B9018093BA019093BB0110E060E0CD
:100990004F815885712F8B859C850E94341480E08F
:1009A00090E02C96ECE00C9465260F931F93CF9368
:1009B000DF938C01EB018881813061F489818111A1
:1009C00009C00E942A1D9093B5018093B4018D81C6
:1009D0008093C101BE01C8010E948705882351F0A0
:1009E00001159EE7190759F4CD81CC2319F00E9417
:1009F0002B048C2FDF91CF911F910F91089501301F
:100A00001E47C1F7CD81CC23A9F30E942404F1CF66
:100A1000ACE0B0E0EEE0F5E00C9451268CE0E7E2CB
:100A2000F1E0DE01119601900D928A95E1F7FE0149
:100A30003196AE01435F5F4F61E070E08191A82F76
:100A4000A295AF70B0E091962C9191978F708B0129
:100A500002C0000F111F8A95E2F7C801922F982B50
:100A600091969C93919792969C91929780958923C9
:100A700092968C934E175F0709F70E9474102C967C
:100A8000E4E00C946D2681E080938B0360918B03EE
:100A900070918C0380918D0390918E030E949E0F24
:100AA0000E94AC0F08950E94990F60938B0370937E
:100AB0008C0380938D0390938E03663010F00E9418
:100AC0004305E0918B03F0E0EE0FFF1FEE5FFE4F5A
:100AD000808191810E941F150895862B59F445301D
:100AE00048F4E42FF0E0EE0FFF1FE455FF4F85912F
:100AF0009491089581E090E008950E946D05089515
:100B000081E008950E948005089581E008950E9483
:100B10008005089508950E948A050895A6E0B0E032
:100B2000E4E9F5E00C94522649835A839E83309180
:100B3000C70189819A8131111AC03E81332399F00E
:100B4000222389F00E944C0B182F682F89819A81EB
:100B50000E94310B69817A81812F0E943B12269677
:100B6000E3E00C946E260E943E0B182FF3CF0E94F8
:100B70004C0B69817A81F1CFFC01262F4081518194
:100B800062817381848195810E948E050895CF933F
:100B9000DF93EC0161E00E94BC05BE010E9482056A
:100BA000DF91CF910895CF93DF93EC0160E00E9435
:100BB000BC05BE010E948B05DF91CF91089521E015
:100BC00030E0A90102C0440F551F8A95E2F7CA011F
:100BD0000E94530A0895CF93C82F81E090E00C2E15
:100BE00002C0880F991F0A94E2F70E94880F8C2F89
:100BF0000E94DF05CF91089581E008950E94FC05D1
:100C00000895CF93C82F0E94060A8C2F0E94FE05DC
:100C10002FEF84E39CE0215080409040E1F700C03A
:100C20000000CF91089581E00E9401060E94661D98
:100C3000089580E00E9401060E948A1D08950F9386
:100C40001F93CF93DF938C0161E00E94BC05EC0100
:100C5000B8010E94D504811106C080E0DF91CF91D8
:100C60001F910F910895B801CE010E94E31A8823C5
:100C7000A1F3B801CE010E940417882371F3B801D3
:100C8000CE010E94DA16882341F3B801CE010E94FA
:100C90003F13882311F3F8018581882361F0C33065
:100CA000FCE7DF07E9F058F4C115ECE7DE07A9F02F
:100CB000C130DC47B9F0C8010E948505CFCFCB35E4
:100CC0008CE7D807A9F0CC35ECE7DE0771F0CA3520
:100CD000DC4789F70E94630FEECF0E941306BDCF59
:100CE0000E946B0F0E941906B8CF0E94590FE3CFE4
:100CF0000E94670FE0CF0E94A21C0E949D060E94E6
:100D0000BA1408950E94A1060E94A71C089581E0CC
:100D100008950895CF93DF93D82F0E948706C82F98
:100D2000882319F08D2F0E9489068C2FDF91CF9197
:100D3000089508950E948A06089580E00E949A0608
:100D400008950E942C1B0E949A060895CF930E943A
:100D50002C1BC82F8091C2018C1779F0C093C2015F
:100D60000E94361D6093C3017093C4018093C50136
:100D70009093C6018C2F0E949A06CF910895ADE002
:100D8000B0E0E5ECF6E00C945326488759876A8773
:100D90007B878C879D8791110E94990E1F8286E028
:100DA000FE013896DE01119601900D928A95E1F7C9
:100DB0008D8181110DC029813A814B815C816D81CA
:100DC0007E818F810E94E30D2D96E2E00C946F26C8
:100DD000CE0101960E94C7058111EDCFF5CFFC0130
:100DE0002481213021F4808191810E947E0B08951D
:100DF000CF93DF93C82FD62F662381F00E9465180A
:100E00008C2F90E09C01215D31092830310548F498
:100E10006D2F0E942815DF91CF9108950E94BF1871
:100E2000EFCF0E943819F7CFCF93C82F882399F0BE
:100E30008CEF8C0F813A88F48C2F0E94B11B882391
:100E400029F08C2F0E94F41B0E94080F8C2F0E9407
:100E5000EC1B0E94080FCF91089580E28C0F883020
:100E600048F4C77081E001C0880FCA95EAF70E9474
:100E70007C0EEFCFEBE5EC0FE33040F4F0E0E75908
:100E8000FE4F808190E00E94521BE5CFE8E5EC0F19
:100E9000EB3150F4F0E0EE0FFF1FED5CFE4F808170
:100EA00091810E94771BD7CF83E38C0F833198F613
:100EB00061E08C2F0E94F806CECF882381F19CEF51
:100EC000980F913A28F40E94F41B0E94080F08958D
:100ED00090E2980F983050F4877091E001C0990F1C
:100EE0008A95EAF7892F0E94820EEFCF9BE5980F33
:100EF000933028F490E080E00E94521B089598E51A
:100F0000980F9B3128F490E080E00E94771B0895B1
:100F100093E3980F933118F460E00E94F806089567
:100F20001F93CF93DF93182FEB010E941407209794
:100F300039F4812F0E945D07DF91CF911F910895B1
:100F40008FE99FE00197F1F700C000002197EFCFF4
:100F500070E060E0893311F460E570E00E94900772
:100F60000895882321F00E947C0E0E94080F0895A6
:100F7000882321F00E94820E0E94080F0895B0E09D
:100F8000A0E0E5ECF7E00C944C266C01D62FC72FBF
:100F9000FC011581068102950F700E94720EE82EE9
:100FA0008823F9F0E12E1123E1F08C2F807F80342B
:100FB00061F080E28D0F883008F18C2F807E8032C6
:100FC00021F4D230D8F00023C9F08091900382FF41
:100FD00015C082E00E942D0F0E94720E91E0E82E53
:100FE000E926BC2EB2949FE0B922FBE0FB15B8F1D4
:100FF000EB2DF0E0E651F94D0C943D26E12CF1CFBC
:101000000C2F0F70C07F11F00295007F112399F013
:10101000002359F080E28D0F883010F0D11107C005
:10102000802F0E947C0E0E94080F8D2F48C0802FB9
:101030000E948C0EF8CF8D2F0E945D07002379F05F
:1010400080E28D0F883010F0D11104C0802F0E94F3
:10105000820E03C0802F0E94920E0E94080FEB2D7B
:10106000E850FF0B349708F06BC10E942C1B0E94C4
:101070009A06CDB7DEB7E9E00C9468262C2F2F70C6
:10108000F22EC07FC03219F0F29480EFF822DD23F7
:1010900041F0D130C9F1112309F443C00023E9F034
:1010A000C4CF8091900382FD14C0112359F0FF201A
:1010B00029F08F2D0E947C0E0E94080F80E00E9474
:1010C0001407CDCF80E00E945D07FF2041F28F2DF5
:1010D000BECF112369F0011104C08F2D0E94B1070A
:1010E000BECF013009F0BBCF8F2D0E94B00EB7CF1D
:1010F0000111B5CF8F2D0E94B8078F2D0E94BC0E15
:101100008F2D0E94A00EABCF112321F0063008F0E6
:10111000A6CFE3CF053008F0A2CF8F2D0E94B807ED
:101120009ECF0023D1F3D93349F43FEF87EE93E00C
:10113000315080409040E1F700C000008D2F0E94A8
:101140005D078DCF8C2F86958695837069F08130F1
:1011500009F085CF8D2F9C2F9370111102C080E074
:1011600090E00E94771B7BCF8D2F9C2F93701111E5
:1011700002C080E090E00E94521B71CF612F8D2F42
:101180000E94F8066CCF8C2F8370A1F5111167CFE8
:101190004D2F429546954770440F440F2D2F2F70C9
:1011A00030E0042E02C0220F331F0A94E2F790E0D1
:1011B00080E0D4FF09C08FE090E002C0880F991F43
:1011C0004A95E2F780959095C695C695C370822B97
:1011D000932BC23049F058F4C13019F00E945F0AD5
:1011E0003ECF0E94560A3BCF0E94680A38CF0E9429
:1011F000530A35CF8695112311F08C2F81708823E7
:1012000009F42DCF4D2F429546954770440F440F5A
:101210002D2F2F7030E0042E02C0220F331F0A94AE
:10122000E2F790E080E0D4FF09C08FE090E002C0D8
:10123000880F991F4A95E2F780959095C695C695B7
:10124000C370822B932BC23049F058F4C13019F08F
:101250000E94CA0A04CF0E94C10A01CF0E94D30A89
:10126000FECE0E94770AFBCECF70112329F08C2F7F
:101270000E948F0A8D2F32CF8D2F0E94B8078C2F9E
:101280000E949F0AECCED23F41F160F4D03FB9F00A
:10129000D13F81F0112309F443C00111C6CE8C2F38
:1012A0008F711FC0D33F01F1D43FA1F7809190030C
:1012B00082FD24C08C2F8F71112311F312C01123D2
:1012C00041F0053008F0CBCE8C2F8F710E94B10A0F
:1012D000C6CE063008F0C3CEF7CF8C2F8F71111118
:1012E000CFCF0E948F0ABBCE112329F08C2F8F7194
:1012F0000E94830AB4CE0E947E0AB1CE112331F03F
:1013000063E08C2F8F710E940F0FA9CE81E00E94A5
:101310002D0F023008F4A3CE82E00E942D0F9FCE45
:10132000002359F0D93309F009CFEFEFF7EE23E0AE
:10133000E150F0402040E1F7FFCE8C2F8F71A0CF1D
:10134000EE2009F496CE0E946E0E80FD92CEF6013C
:1013500015820E94680E0E948F0AC6010E94CD0964
:101360000E94680E0E949F0A84CE0F931F93CF9312
:10137000DF93EC01688179818D810E94890B8C015A
:101380000E94DC0A0E94520AB801CE010E94BF07E7
:10139000DF91CF911F910F910895CF93DF93EC01CF
:1013A0008C81882399F0CE010E941F06811111C003
:1013B0000E94720E882351F08D81882339F080912C
:1013C000900382FF03C082E00E942D0FDF91CF9136
:1013D0000895CE010E94B509CE010E94D305F6CF33
:1013E00090E080E00E94521B90E080E00E94771B1A
:1013F0000E94990E0E94080F0E9454190E943819E9
:1014000008950E94FC1B0E94F00908950E94890E15
:101410000E94010A089592959F70963091F058F4B9
:10142000925F9F70923058F4803F19F030F4883EFC
:1014300030F481E008959A5FF4CF843FD1F380E0E7
:101440000895883EB0F3813FD1F7F3CFFC012481AA
:10145000222339F0808191810E947E0B0E940B0A29
:10146000089580E00895A6E0B0E0E9E3FAE00C9486
:1014700053262696E2E00C946F26A7E0B0E0E3E462
:10148000FAE00C9453262796E2E00C946F26089518
:101490000E94470A08950E94480A9093CF018093C2
:1014A000CE01089508950E944B0A08952091CE011F
:1014B0003091CF01822B932B0E944B0A08952091EB
:1014C000CE013091CF01822393230E944B0A0895CD
:1014D0002091CE013091CF01822793270E944B0AA1
:1014E00008950E94470A08950E94710A08950E9473
:1014F000740A9093CD018093CC01089590E080E030
:101500000E94770A089521E030E0A90102C0440F4B
:10151000551F8A95E2F7CA010E94770A089521E0D3
:1015200030E002C0220F331F8A95E2F78091CC0190
:101530009091CD01822B932B0E94770A089521E090
:1015400030E002C0220F331F8A95E2F720953095D4
:101550008091CC019091CD01822393230E94770A40
:10156000089521E030E002C0220F331F8A95E2F790
:101570008091CC019091CD01822793270E94770A18
:1015800008952091CC013091CD01822B932B0E94A4
:10159000770A08952091CC013091CD0182239323C5
:1015A0000E94770A08952091CC013091CD018227C5
:1015B00093270E94770A08950895262F277091E0B7
:1015C00001C0990F2A95EAF723E0769567952A9549
:1015D000E1F7660F771F660F771FFA01E60FF71F17
:1015E00050E040E0682F70E08191DF0111979B018E
:1015F000042E02C0369527950A94E2F721702195B2
:101600002827292328272C934F5F5F4F443051050B
:1016100059F70895A82FA77023E0969587952A95E6
:10162000E1F7880F991F880F991FFB01E80FF91F39
:1016300050E040E080E0219130E00A2E02C0369573
:1016400027950A94E2F721703327042E01C0220F58
:101650000A94EAF7822B4F5F5F4F4430510559F7E8
:101660000895262F911109C0853038F4682F70E055
:1016700048EC51E0822F0E94DD0A089591110AC0C2
:10168000853030F468EC71E090E00E940A0B982FEE
:10169000892F089590E0FCCFB0E0A0E0E2E5FBE008
:1016A0000C944C267C010091CC011091CD018091CD
:1016B000CE019091CF01082B192BCFE0D0E0CC24A4
:1016C000C394D12CBC2EC6010C2E02C0880F991FCA
:1016D0000A94E2F780239123892B49F4219790F70C
:1016E000B12C8B2DCDB7DEB7E9E00C946826B7019D
:1016F0008C2F0E944712019789F3F3CFCF93DF938A
:10170000EC010E944C0BBE010E944712DF91CF9169
:1017100008951F93CF93DF93EB019091C701992315
:1017200039F0CB010E947E0BDF91CF911F9108957C
:10173000882369F0CB010E944C0B182F682FCE0133
:101740000E94310BBE01812F0E944712EDCFCB01C9
:101750000E943E0B182FF6CF1F93CF93DF93C091BB
:10176000D00117E08091D1018C1304C0DF91CF919B
:101770001F910895D0E01C9FF0011D9FF00D1124D2
:10178000EE52FE4F20813181428153816481758107
:1017900086810E943D0A2196C770E4CF20910A02FB
:1017A00030910B0240910C0250910D0260910E029B
:1017B00070910F02809110020E943D0A0895CF930C
:1017C000DF9380911002807F09F04DC080910F025D
:1017D000882309F448C0E091D0015091D101C09113
:1017E0000B02D0910A0260910C0270910D0247E049
:1017F0005E17C9F18E2F90E0E49FF0011124EE52A4
:10180000FE4F2481222391F1489FF001499FF00D62
:101810001124DF01AE52BE4F11962C9111972C135B
:1018200025C02C912D1322C015962C9115972111AE
:101830001DC012962D913C91261B370B283C31057B
:10184000A8F4809110028F70806180931002E8529A
:10185000FE4F80818F70806180838AE092E00E94D9
:10186000CD090E94AC0BDF91CF910895FC01319618
:10187000E770BECF482F2091D0019091D10157E061
:10188000291302C080E0089530E0529FF001539F79
:10189000F00D1124EE52FE4F8181681306C0808145
:1018A000481303C085818111EECF2F5F3F4F277012
:1018B000E7CFA4E1B0E0EFE5FCE00C9449268C0111
:1018C00086E0F801DE011F9601900D928A95E1F7FE
:1018D000F8018481E5809AE0A92E92E0B92E9091DA
:1018E0000E0291111FC08823D1F0EE20A9F0C8018B
:1018F0000E94260AF82E882379F087E0F801D501A6
:1019000001900D928A95E1F7C5010E94EF060E94B1
:10191000DF0B0E94CE0B5FC0C8010E94CD09FF24DF
:10192000F39459C0C080D18082809380F0900F02E0
:1019300020910C0230910D02A401421B530BFF2099
:1019400009F4F9C0483C510508F0A7C0882309F400
:1019500042C090910B0280911002282F207F09F045
:101960005CC09D1116C090910A02C91212C0E1100C
:101970004EC08F708061809310020E94CE0B8AE06F
:1019800092E00E94CD0980911002F8018683F12C2B
:1019900022C0E1103CC06D2D8C2D0E943A0C6D2DA3
:1019A0008C2D0E943A0CE82E8111F1CFCF86D88A77
:1019B0008F8598890E947E0B292F22952F702430C5
:1019C00078F49F702230A8F09923B9F0F80196813D
:1019D000907F99F4FE2C8F2D6496ECE00C94652694
:1019E0002A5F2F70223068F0C8010E94CD09EF2CC9
:1019F000F1CF992311F0882369F3805E883050F38A
:101A0000F3CF803F38F3815F833070F7E3CF80916D
:101A10001002816080931002BACF9D1113C0909183
:101A20000A02C9120FC0E1100DC08683C8010E94CE
:101A3000CD0987E0F801AAE0B2E001900D928A9505
:101A4000E1F767CFC8010E94260A882309F464CF12
:101A5000EE2009F461CF80911002803288F020914D
:101A60000A0230910B02398728879B868A869091DB
:101A70000E029C871D868E87CE0108960E94CD0996
:101A800087E0F801AAE0B2E001900D928A95E1F7B3
:101A90000E94DF0B0E94CE0B42CF90911002292FA3
:101AA000207FA1F4682D9A8A898AA6017A899E2DC1
:101AB0000E94330A8AE092E00E94CD0987E0F50196
:101AC00011928A95E9F70E94CE0B61CF882309F421
:101AD00082CF80910B028D1110C080910A02C81232
:101AE0000CC0E1100AC09683C8010E94CD0987E0AE
:101AF000F50111928A95E9F76ECFC8010E94260A76
:101B0000882309F409CFEE2009F406CF8091100252
:101B1000803208F4B5CF20910A0230910B023A834B
:101B200029839C828B8290910E029D831E828F83DB
:101B3000CE010196A3CF483C5105B8F5882309F49E
:101B4000EECEFE2CEE2009F4E7CE80910B028D1133
:101B50001EC080910A02C8121AC08091100280FD36
:101B60000DC0982F907F51F08683903F09F45ECF8F
:101B7000982F907F905F8F70892B57CF87E0F80167
:101B8000AAE0B2E001900D928A95E1F724CFC80156
:101B90000E94260A811174CF809110028160809387
:101BA0001002C8010E94CD0916CF682D9A8A898A31
:101BB000A6017A899E2D0E94330A87E0F5011192D1
:101BC0008A95E9F7A6CEAEE0B0E0E9EEFDE00C9430
:101BD0005226288739874A875B876C877D878E875F
:101BE000CE0108960E94590C8823B1F06C856623BB
:101BF00041F0288539854A855B857D858E850E94E3
:101C00003D0A17E08091D0019091D10189133DC028
:101C10002E96E3E00C946E2687E0FE013896DE01F6
:101C2000119601900D928A95E1F78C85882349F3EE
:101C30002091D10130E0C901019687709927409128
:101C4000D0014817190699F097E0929FD001939F11
:101C5000B00D1124AE52BE4FFE01319601900D928F
:101C60009A95E1F78093D1010E94AC0BCACF0E94F4
:101C7000060A1092D1011092D00187E0EAE0F2E06A
:101C8000DF011D928A95E9F7BCCF819FC001112425
:101C90008E529E4F0E94590C882309F4B9CFE091CF
:101CA000D0011E9FF0011124EE52FE4F20813181A0
:101CB000428153816481758186810E943D0A8091B1
:101CC000D00190E00196877099278093D0019ACF38
:101CD00080911902869586958695089580911902BE
:101CE0008770089590911902977081E009F480E05F
:101CF000089580912502089590912502892B809363
:101D000025020895809590912502982390932502AD
:101D1000089510922502089590912402892B8093B2
:101D20002402089580959091240298239093240290
:101D3000089510922402089508950E949C0E08951B
:101D400090911A02292F282331F0809589238093BE
:101D50001A020E949D0E089508950E94AC0E0895E7
:101D600090911B02292F2823281729F0982B909354
:101D70001B020E94AD0E089590911B02292F28236B
:101D800031F08095892380931B020E94AD0E089547
:101D900080911B02882329F010921B0280E00E9490
:101DA000AD0E08950F931F93CF93DF9300910C0115
:101DB00010910D01C091250280912402C82B8091C1
:101DC0001B02882331F0C82B0E949C1B81110E94AA
:101DD000C80EF801C083C0910C01D0910D0148E0FC
:101DE00050E061E172E0CE010E947A26892B59F021
:101DF00088E0FE01A1E1B2E001900D928A95E1F741
:101E0000CE010E94391BDF91CF911F910F91089550
:101E10000E94D20E089508950E940B0F089590918C
:101E2000900392FF11C098E0899F90011124622BCA
:101E3000609319020E948F0A8091190286958695F7
:101E400086950E940C0F08950E948F0A08951092A3
:101E5000190280E00E940C0F08959091190280955C
:101E6000892380931902282F277069F4891759F064
:101E70009091900392FF07C08695869586950E9463
:101E80009F0A0E94270F08959091900392FB2227AA
:101E900020F9281769F080FB92F9909390038091C4
:101EA0008F03909190030E94930F82E00E942D0F68
:101EB00008958091900382FB882780F991E089271B
:101EC0000E94440F089581E00E94440F089580E02D
:101ED0000E94440F08956FEF7FEF90E080E00E9432
:101EE000D226089590E080E00E949E2621E0853E63
:101EF0009E4F09F020E0822F089582E090E00E943A
:101F00009026089583E090E00E94902690E0089546
:101F1000682F83E090E00E94B426089584E090E06A
:101F20000E949E260895BC0184E090E00E94D22683
:101F300008958FE090E00E9498260895AB01BC01BF
:101F40008FE090E00E94C6260895AB01BC0183E1BA
:101F500090E00E94C626089560E070E0CB010E94E8
:101F6000A50F0895A8E0B0E0E8EBFFE00C9453263D
:101F700065EE7EEF90E080E00E94D22660E082E095
:101F800090E00E94B42681E090E09093CF0180938E
:101F9000CE010E94880F60E074E184E090E00E942E
:101FA000D22660E086E090E00E94B42660E087E000
:101FB00090E00E94B42640E050E0BA0188E090E052
:101FC0000E94C62660E083E290E00E94B42660E0B2
:101FD0008CE090E00E94B42660E08DE090E00E94EA
:101FE000B42619821A821B821C821D821E821F82C5
:101FF000188648E050E067E170E0CE0101960E944B
:10200000A42640E050E0BA018FE190E00E94C6268D
:102010000E9443052896E2E00C946F260E94B20FBE
:102020000895682F8EE090E00E94B4260895A6E0FF
:10203000B0E0EDE1F0E10C9451260E942A1D8C01E4
:1020400080912602909127028017910781F01982D2
:102050001A820E942A1D682F49815A81792F80E0B7
:1020600090E00E94BF061093270200932602269656
:10207000E4E00C946D260E94361D60933502709347
:102080003602809337029093380260933102709346
:102090003202809333029093340208950E94361DD9
:1020A0006093350270933602809337029093380222
:1020B00060932D0270932E0280932F029093300232
:1020C00008950E94361D6093350270933602809306
:1020D0003702909338026093290270932A0280930A
:1020E0002B0290932C0208950895089508950E945C
:1020F000761008958DE393E10E942E140E947510CE
:102100000E940805089581E008950E9483100895B3
:102110000E9483100895089508950E948B100E94D4
:102120008C1008950E94720F811102C00E940E103F
:102130000E947D0F809339020E948E0F909390032E
:1021400080938F030E94D7160E94820F0E94530A29
:102150008091CC019091CD010E94740A08950E9453
:10216000211D0E9419160E94AB130E9492100E941A
:1021700099060E9462140E9477100895A6E0B0E0CC
:10218000E4ECF0E10C944D260E948510811114C0FE
:102190000E9417100E94861681110E944E100E9404
:1021A000BA1481110E9461100E9491190E94A60622
:1021B0002696E8E00C9469260E94B7131091280235
:1021C00080E00E945913181719F38091390281FD9C
:1021D0000E945F130E948810D82E80E00E9459133D
:1021E000182F80912802181729F100E0FF24F3949A
:1021F000E12EE826CC24C3948E2D8F21A9F0DD207A
:1022000099F009831A820E942A1D9C838B83CD82B8
:1022100091E0812F8F2109F490E049815A816B81EF
:102220007C818D810E94BF060F5FFF0C053021F776
:10223000109328020E943B10ADCF1F93CF93DF93E2
:102240000E944C12EC01C11580E5D807F0F5C115CC
:1022500080E4D80708F09CC0C03ED10520F5CD3CF5
:10226000D10508F082C0C83AD10578F4C53AD10545
:1022700008F073C0C130D10519F1209709F1C430BD
:10228000D105F0F4D0E0C0E01BC0C33CD105D0F7CD
:10229000C85AD0E0CC0FDD1FC459DE4F0990D88159
:1022A000C02DD4640DC0C11580E2D80708F0D1C09C
:1022B000C11581E0D80708F05AC0C83ED10510F713
:1022C000CE01DF91CF911F910895C03682E5D807E6
:1022D00018F5C03482E5D80708F06BC0C03282E53B
:1022E000D80708F05FC0C11582E5D80708F497C089
:1022F0002C2F2695269580E2289F900111248C2F63
:102300008370C1E0D0E002C0CC0FDD1F8A95E2F7F8
:10231000C22BD32BDD68D4CFC03A82E5D80760F456
:10232000C03882E5D80708F459C0CF71D0E0DC2F5F
:10233000CC27C46FD06AC4CFC03C82E5D80708F46C
:1023400062C0C03E82E5D80708F09CCFDC2FCC27C6
:10235000CC27DF71C06FD06AB3CFC55AD0E0CE555D
:10236000DE4FC881D0E0D064ABCFD065A9CF8D2F30
:102370000E94EE12182FCE0199270E944C12C12FF5
:10238000D0E0DC2FCC27CC27DF71C82BD92B98CFFE
:10239000CE0199270E944C12CC27DF70C82BD92B75
:1023A000D06A8ECFCF71D0E0DC2FCC27C16FD06A3E
:1023B00087CF2C2F26952695277080E2289F9001A5
:1023C00011248C2F8370C1E0D0E002C0CC0FDD1F40
:1023D0008A95E2F7C22BD32BDC6872CF2C2F26957F
:1023E0002695277080E2289F900111248C2F8370FE
:1023F000C1E0D0E002C0CC0FDD1F8A95E2F7C22B0E
:10240000D32BDA685DCF8C2F8F710E94EE12C82F0C
:10241000D0E0DC2FCC27CC27DF71D06251CF8C2FBE
:102420008F710E94EE1255E0D695C7955A95E1F747
:10243000CF70D0E0DC2FCC27282F30E084FF05C000
:1024400044E0220F331F4A95E1F7C22BD32BD0690A
:1024500037CF8D2F8F710E94EE12182FCE01992742
:102460000E944C12C12FD0E0DC2FCC27CC27DF718B
:10247000C82BD92BD2CF462F711106C0653020F45E
:1024800060E00E947D05089590E080E008950E943C
:102490003B120E941D11089582389105B9F1B0F4E4
:1024A0008133910509F47DC048F48932910509F41E
:1024B0006DC08A32910509F47BC00895853391057A
:1024C00009F45FC08933910509F10895833E9105B0
:1024D000D9F138F4803E910529F1823E910579F1D8
:1024E0000895863E9105D9F1873E910509F43EC0D5
:1024F000843E910541F52091900321FF24C08091F5
:102500008F0384FD19C087EE90E0089520918F031A
:10251000237009F05AC02091900323FF14C089E270
:1025200090E0089520918F0320FD38C030919003F2
:1025300030FF09C024FF43C090E080E0089520915F
:102540008F0322FDF7CF089520918F0322FD3AC01B
:102550003091900330FD39C024FFF5CFEDCF2091AD
:102560008F0323FFF0CF24FDE7CFCDCF20918F0342
:1025700023FD2EC03091900331FFEECF84EE90E02A
:10258000089520918F0325FFDECFC9CF20918F03BF
:1025900025FD21C02091900323FFD5CF89E390E052
:1025A000D2CF20918F0326FFCECF8AE290E008950C
:1025B00020918F0326FFC7CF81E390E0089583EE3B
:1025C00090E0089582EE90E0089580EE90E0089506
:1025D00086EE90E0089585E390E0089590918F0352
:1025E00092FF10C041E0282F2471243009F040E010
:1025F00031E0282F2871283009F030E0431711F01E
:102600002CE0822793FF10C041E0282F2471243151
:1026100009F040E031E0282F2871283109F030E03E
:10262000431711F02CE082273091900330FF10C047
:1026300051E0282F2171213009F050E041E0282F8E
:102640002871283009F040E0541711F029E0822762
:1026500031FF10C041E0282F2171213109F040E005
:1026600031E0282F2871283109F030E0431711F0AC
:1026700029E0822794FD877E089580E00895CF9316
:102680009C01205E3245C1E02032310538F4FB0167
:10269000C581C11103C08F710E94EB058C2FCF91B2
:1026A000089508950E945113089508950E945513A6
:1026B0000895E82FF0E0EE56FC4F808108950895CC
:1026C000A5EAB1E041E050E08D918F3F91F0E82F15
:1026D000E295EF70F0E061A18F709A0101C0220FC6
:1026E0008A95EAF7922F9095962391A382A1822B47
:1026F00082A381E0AA3AB80739F70895CF93DF9310
:10270000AC01A62FB0E085E0689FF0011124EB55E5
:10271000FE4F70E081E060E091919F3FD1F0C92FC2
:10272000C295CF70D0E028A130E09F7002C03595EF
:1027300027959A95E2F720FD0CC0282F622B7F5F2A
:10274000880F753049F7A40FB51F6C93DF91CF91B7
:10275000089520E0F3CF0E9460131092920310922C
:10276000910381E00E94DC130E9452130895A1E0BE
:10277000B0E0EDEBF3E10C945226198260E0CE015B
:1027800001960E947E1390919103898121E0981314
:1027900001C020E098138093910341E062E973E067
:1027A00081E993E00E94DD13182F0E945613812FB8
:1027B0002196E3E00C946E260895B0E0A0E0E3EEED
:1027C000F3E10C944D266C017B01042FC22F2223D0
:1027D00079F081E080933C020E942A1D90933B0295
:1027E00080933A0280E0CDB7DEB7E8E00C9469262A
:1027F000D0913C02DD23B1F380913A0290913B02EB
:102800000E94B91C059770F310E0A801B601C7013A
:102810000E947A26892B31F0A801B601C7010E94D7
:102820008726CD2F10923C028C2FDDCF0E94BE1048
:1028300008950E94C31C0E94331F0E947A100E94B8
:102840004D1F0E94AF100E945A1F0E945F1F0E94DE
:1028500016140E94791F0E948D10F7CF9093B30138
:102860008093B20108950895ACE0B0E0EAE3F4E1AA
:102870000C9453264F83588769877A878B879C8768
:1028800086E0FE013796DE01119601900D928A9541
:10289000E1F729813A814B815C816D817E8180E005
:1028A00090E02C96E2E00C946F2621E030E001C02D
:1028B000220F4A95EAF7662311F0822B089520959E
:1028C00082230895E0910E01F0910F010190F081B3
:1028D000E02D09950E9453050E9433140895CF936B
:1028E0006DE372E084E492E00E94071CC82F882305
:1028F00021F084E492E00E94441B9091450286E01E
:10290000E4E4F2E0DF01282F1D922A95E9F7909385
:102910004502ADE3B2E001900D928A95E1F781E0C6
:10292000C11103C0911101C080E08170CF91089561
:10293000ACE0B0E0EEE9F4E10C9453264F83588705
:102940008B879C87719579876A8786E0FE01379629
:10295000DE01119601900D928A95E1F729813A8165
:102960004B815C816D817E8180E090E02C96E2E07D
:102970000C946F26A6E0B0E0E0ECF4E10C94532652
:10298000E0910E01F0910F010280F381E02D409162
:102990004402509145026091460270914702809135
:1029A0004802909149020995F42FE52FCB0120931D
:1029B000440230934502F0934602E093470260934D
:1029C000480290934902A9016F2F7E2F0E9498140C
:1029D000F42FE52FCB012093440230934502F0936E
:1029E0004602E09347026093480290934902A9018E
:1029F0006F2F7E2F0E944E04209344023093450295
:102A000040934602509347026093480270934902F4
:102A10000E94621980914502832B809345020E9497
:102A20006F14811109C0809143021092430281709A
:102A30002696E2E00C946F2681E090E0F6CFE091DC
:102A40000E01F0910F010480F581E02D09950895A4
:102A50009C01215D31092830310550F44FE2480FC7
:102A6000809145020E945514809345020E946F1484
:102A700008952C9808952C9A08953E98469898E0C9
:102A800080E02F9825E02A95F1F7000026B126FB7B
:102A9000222720F9880F822B2F9A25E02A95F1F71B
:102AA0000000915071F708953E9A27E030E090E0E1
:102AB0002F98AC01022E02C0559547950A94E2F773
:102AC00040FF0EC0469A4AE04A95F1F700C02F9A9F
:102AD0002150310968F785E18A95F1F700000895E2
:102AE0004698F1CFCF93C82F0E9439158C2F0E94A2
:102AF00054150E943D15C82F85E08A95F1F7000016
:102B00000E943B158C2FCF91089589E10E94721588
:102B100080712DE7829FC00111240895CF93DF9328
:102B2000D82FC62F0E9439158D2F80680E9454150A
:102B30008C2F0E9454150E943B15DF91CF91089570
:102B400061E08D37910548F06DE0863D26E0920703
:102B500020F46DE770E00E941526606189E10E9413
:102B60008E15089587FD80680895CF93DF930E94A6
:102B7000391580914A02C0E090E0811113C083E6CC
:102B80000E9454150E943D15C82F0E943D15D82F54
:102B90000E943B158C2F0E94B215C82F8D2F0E94CA
:102BA000B215982F8C2FDF91CF910895279A3E9AD6
:102BB000249A6AE58AE30E948E152FE78FEA92E055
:102BC000215080409040E1F700C0000010924A027E
:102BD0000E94B5150895ACE0B0E0E1EFF5E10C948A
:102BE00051264F8358878B879C87162F072F0E946B
:102BF000B515811104C0911102C0902F812F8987D2
:102C00009A8786E0FE013796DE01119601900D92BB
:102C10008A95E1F729813A814B815C816D817E81C2
:102C200080E090E02C96E4E00C946D260E948310E6
:102C30000895ECE4F2E088E0DF011D928A95E9F75F
:102C40000E94A3030895FC01228130E02F5F3F4FD3
:102C500023703327938181E09217130609F080E0F7
:102C600008950F931F93CF93DF93EC01162F042F3A
:102C70000E942316811119C08A8190E0FE01E80F9D
:102C8000F91F1F7764816078612B00FB67F964830B
:102C90000196837099278A8388818F5F888381E07A
:102CA000DF91CF911F910F91089580E0F9CFFC0142
:102CB000A38182818A17C1F0AE0FBF2FB11D149678
:102CC0008C9187FB992790F98F77DB018C93DA0140
:102CD0009C93838190E001968370992783838181FF
:102CE0008F5F818381E0089580E00895462F682FEB
:102CF0008CE492E00E9431160895AB01BC018CE493
:102D000092E00E945716089581E00895A2E0B0E095
:102D1000ECE8F6E10C94512680914B02882351F0A7
:102D200010924B0280914E0280934F0280914C0290
:102D300080934D020E94ED030E941616182F8823DF
:102D400089F010E005C069818A810E949203102FEA
:102D5000BE016F5F7F4FCE0102960E947D16082F45
:102D60008111F1CF812F2296E4E00C946D260E9410
:102D70006B0F089580E00E94591383FB882780F928
:102D800008950E94B7132FEF86E791E0215080400D
:102D90009040E1F700C000000E94B7130E94BA16ED
:102DA000882321F00E94B7160E94661D08950E9494
:102DB000C1160895CF93DF93EB0186319C4711F53F
:102DC0000E94790E9D81992399F08A7A91E009F405
:102DD00090E090935402811109C089E20E94EC1B9B
:102DE0000E94080F80E0DF91CF91089585E3F6CF30
:102DF00080915402811104C089E20E94F41BF0CF3B
:102E000085E3FBCF81E0EFCFCF93DF93EC01FB01B4
:102E10008581882309F4D2C09E01305723323105C1
:102E200008F0B2C00E948E0F9093900380938F039E
:102E3000FE01E150F047E232F10520F4EA50F94D8D
:102E40000C943D2680918F03816080938F0393C003
:102E5000809190038860809390038DC080918F0350
:102E60008260F3CF80918F038460EFCF80918F03D6
:102E70008860EBCF809190038160EDCF80919003CB
:102E80008260E9CF80918F038061DFCF80918F03D3
:102E90008062DBCF80918F038064D7CF0E94060AC7
:102EA00080918F038068D1CF80918F038C60CDCFCC
:102EB000809190038360CFCF80918F038E7FC5CFA9
:102EC00080919003877FC7CF80918F038D7FBDCF87
:102ED00080918F038B7FB9CF80918F03877FB5CF90
:102EE000809190038E7FB7CF809190038D7FB3CF79
:102EF00080918F038F7EA9CF80918F038F7DA5CF87
:102F000080918F038F7BA1CF0E94060A80918F034F
:102F10008F779BCF80918F03837F97CF8091900392
:102F20008C7F99CF80918F0382FB992790F921E0C4
:102F3000922790FB82F990FB83F987CF80919003D1
:102F4000982F909591708E7F892B90FB81F983CF7C
:102F500090918F03892F8F7B96FF806476CF0E949C
:102F6000060A90918F03892F97FB87F980586DCFC0
:102F700081E00E94111080918F03909190030E9434
:102F8000930F0E94060A80E0DF91CF91089580E0C0
:102F9000F0CF90918F03892F8F7E94FF806155CF62
:102FA00090918F03892F8E7F90FF81604ECF9091FB
:102FB0009003892F877F93FF88604DCF81E0E4CF16
:102FC000282F35EB2303C001112497FF04C080583C
:102FD0009109892F089580589F4FFBCF80915B0204
:102FE00080FF0DC06091150170E0660F771F60389B
:102FF000710570F56115710569F1862F089581FFDE
:1030000007C06091150184E0689FB0011124EFCFE3
:103010006091150182FD0AC080915A028823A9F0AF
:103020002091140160911501821710F088E0ECCF17
:10303000869FC001112433E0880F991F3A95E1F76C
:10304000622F70E00E942926D2CF68E070E0D5CFD1
:103050008FE7089581E0089580915B0280FF0CC0A6
:103060006091110170E0759567957595679561158B
:10307000710549F1862F089581FF06C06091110105
:1030800070E075956795F3CF6091110182FD0BC0DB
:10309000909159029923A1F0609110018091110142
:1030A000961738F0682F70E06038710500F38FE7ED
:1030B0000895899FC001112470E00E942926F4CF51
:1030C00061E070E0D7CF81E008958D3C31F40E943B
:1030D000EE17819580935F0208958E3C19F40E944B
:1030E000EE17F8CF8F3C31F40E94EE178195809354
:1030F0005E020895803D19F40E94EE17F8CF893DD5
:1031000029F40E942C188093600208958A3D21F4CE
:103110000E942C188195F7CF8B3D31F40E942C181A
:1031200081958093610208958C3D19F40E942C18BA
:10313000F8CF9FE2980F983070F4815D990B21E0F1
:1031400030E001C0220F8A95EAF780915D02822B60
:1031500080935D0208958D3D31F480915B02816022
:1031600080935B0208958E3D21F480915B02826022
:10317000F7CF8F3DB9F780915B028460F1CF40912A
:103180005E028D3C59F480915F0287FF0DC0109262
:103190005F0241110BC010925A0208C08E3C81F4AC
:1031A00080915F0218169CF3442381F080916002A5
:1031B00090916102892B09F05AC01092590208952A
:1031C0008F3C49F447FFF0CF10925E0280915F027E
:1031D0008111ECCFE0CF803D19F41416ACF3E4CFAD
:1031E00090916002893D29F41916F4F6109260025C
:1031F000DBCF8A3D19F497FFD7CFF8CF90916102CA
:103200008B3D29F497FFD0CF10926102CDCF8C3D3A
:1032100019F41916CCF3C8CF9FE2980F983090F4A8
:10322000815D990B21E030E0B90102C0660F771F84
:103230008A95E2F7CB01809590915D028923809376
:103240005D02B2CF8D3D31F480915B028E7F809321
:103250005B02AACF8E3D21F480915B028D7FF7CF78
:103260008F3D09F0A1CF80915B028B7FF0CF089555
:103270000E942A1D9C0190915E0280915F02982B12
:1032800021F0309358022093570290916002809170
:103290006102982B21F030935602209355028CE561
:1032A00092E00E94441B089586E0ECE5F2E0DF0125
:1032B0001D928A95E9F710925A02109259021092C3
:1032C0005B020895A6E0B0E0E8E6F9E10C9453262D
:1032D00086E0ECE5F2E0DE01119601900D928A9510
:1032E000E1F729813A814B815C816D817E8180E0AB
:1032F00090E02696E2E00C946F26FC018281811119
:103300000EC0838181110BC08481811108C091E0BE
:103310008581811101C090E0892F8170089581E03D
:10332000FCCFA6E0B0E0E7E9F9E10C94522686E094
:10333000ECE5F2E0DE01119601900D928A95E1F73D
:1033400010925E0210925F0210926002109261026F
:103350008B819C81892B89F0809157029091580232
:103360000E94B91CAC0190915A029923C9F1809135
:1033700016018417150608F440C08D819E81892BA3
:1033800091F080915502909156020E94B91CAC01B7
:1033900090915902992309F46AC08091120184170F
:1033A000150608F472C0BE016F5F7F4F8CE592E096
:1033B0000E94071C811105C08CE592E00E947D19D6
:1033C00081110E94381986E0FE013196ACE5B2E029
:1033D00001900D928A95E1F72696E3E00C946E2613
:1033E000209117018AE0289F9001112424173507A6
:1033F00020F69F5F90935A0202C09F3FD1F71B8136
:10340000112359F00E94EE179FEF11160CF491E072
:10341000899F802D112480935E021C81112359F015
:103420000E94EE179FEF11160CF491E0899F802DFA
:10343000112480935F0280915E02882309F49DCF5E
:1034400010915F02112309F498CF0E94E01788239E
:1034500051F080935E02812F0E94E017882329F0AB
:1034600080935F028ACF81E0F4CF81E0F9CF209191
:1034700013018AE0289F900111242417350708F0D2
:1034800092CF9F5F9093590202C09F3FD1F71D8159
:10349000112359F00E942C189FEF11160CF491E0A3
:1034A000899F802D1124809360021E81112359F081
:1034B0000E942C189FEF11160CF491E0899F802D2B
:1034C00011248093610280916002882309F46BCFFC
:1034D00010916102112309F466CF0E94E01788233E
:1034E00051F080936002812F0E94E017882329F019
:1034F0008093610258CF81E0F4CF81E0F9CF0F9340
:103500001F93CF93DF93C42FD22FFC018581882393
:10351000C9F0409364020E942A1D90936302809335
:10352000620280E28C0F883040F4C77081E001C0F5
:10353000880FCA95EAF70E94B107DF91CF911F91DA
:103540000F91089510916402141332C080916202A9
:10355000909163020E94B91C883C910548F5C0E235
:10356000CD0F1D17B9F080E2810F883040F417703D
:1035700081E001C0880F1A95EAF70E94B807C830A9
:1035800048F481E09D2F977001C0880F9A95EAF763
:103590000E94B107802F0E94A807C83070F6D7702C
:1035A00081E001C0880FDA95EAF70E94B807C5CF1D
:1035B00080E28C0F883008F6C77081E001C0880F68
:1035C000CA95EAF7F2CF0F93DB0188519C47873009
:1035D0009105A0F5FC01E85EF84D0C943D2606E24D
:1035E00021EE41EE6AE17CE7CD010E947F1A80E086
:1035F0000F91089507E225EE45EE6BE17CE7F4CFED
:1036000006E221EE40EE68E17CE7EECF07E225EE30
:1036100044EE69E17CE7E8CF06E221EE42EE6CE1A0
:103620007CE7E2CF07E225EE46EE6DE17CE7DCCFFA
:1036300008E221E045EE6EE17CE7D6CF15968C914D
:10364000882319F010926402D3CF81E0D1CF9093F8
:103650006A02809369020895E0916902F0916A021A
:10366000309729F00190F081E02D0995089580E0D0
:103670000895E0916902F0916A02309721F002808A
:10368000F381E02D09950895E0916902F0916A02B5
:10369000309739F022E0DC012C930680F781E02D91
:1036A00009950895A3E0B0E0E8E5FBE10C9453260A
:1036B000209167023091680228173907A1F0909392
:1036C000680280936702E0916902F0916A02309784
:1036D00051F023E029839B838A830084F185E02DC8
:1036E000CE01019609952396E2E00C946F26A3E0A3
:1036F000B0E0EDE7FBE10C94532620916502309198
:10370000660228173907A1F090936602809365023C
:10371000E0916902F0916A02309751F024E0298328
:103720009B838A830084F185E02DCE010196099563
:103730002396E2E00C946F2640910C0150910D010C
:103740009A012E5F3F4F485F5F4F80E02417350797
:1037500009F40895F90191919F019923B9F38F5FBD
:10376000F5CF882371F020910C0130910D01F90102
:103770003296285F3F4F9191981729F0E217F3078F
:10378000D1F780E0089581E008959C01FC01329614
:103790009FEF80E04191461751F09F3F19F441118E
:1037A00001C0982F8F5F8630A9F79F3F09F40895D5
:1037B000290F311D97FD3A95F90162830895FC01A7
:1037C000329608962191261303C0DF0111971C92AF
:1037D000E817F907B9F70895682F80910C019091C7
:1037E0000D010E94C51B0895682F80910C019091D6
:1037F0000D010E94DF1B0895E0910C01F0910D0175
:10380000329686E0DF011D928A95E9F70895DC0182
:10381000FB0111969C9111978181981322C01296F9
:103820008C911297882319F0928189131AC01396EC
:103830008C911397882319F09381891312C01596E0
:103840008C911597882319F0958189130AC01496D5
:103850009C91992321F081E02481291303C080E009
:1038600001C081E08170089508950E94341C08957C
:1038700081110EC081E080931B016091180170914D
:10388000190180911A0190911B010E94351C089525
:1038900082E0F1CF83E080931B0160911801709169
:1038A000190180911A0190911B010E94351C089505
:1038B0000E94381C089581E080931B0160911801DB
:1038C0007091190180911A0190911B010E94351C81
:1038D00008950E945B1C089591E0811101C090E061
:1038E00090931A01609118017091190180911A0149
:1038F00090911B010E94351C089580911A01089532
:1039000080931901609118017091190180911A0139
:1039100090911B010E94351C089580911901089512
:1039200080931801609118017091190180911A011A
:1039300090911B010E94351C0895809118010895F3
:10394000089508950E94A11C0895089508950E9465
:10395000A01C08950E94A51C0E94B7130E94A61CDB
:1039600080E00E94591391E0811101C090E0892FFD
:103970000895CF93DF93EC010E942A1D8C1B9D0BB1
:10398000DF91CF91089585B7806885BF85B780683E
:1039900085BF08951F921FB61F9211248F939F9386
:1039A000AF93BF9380916B02811113C080919303F9
:1039B00090919403A0919503B09196034196A11D17
:1039C000B11D8093930390939403A0939503B093B8
:1039D0009603BF91AF919F918F911F901FBE1F9033
:1039E000189580919B03843031F10E947B061092E0
:1039F0006B0288E190E020E40FB6F894A8958093DC
:103A000060000FBE2093600083B7817F846083BF16
:103A100083B7816083BF7894889583B78E7F83BF97
:103A20000FB6F894A895809160008861809360003B
:103A3000109260000FBE08950E94060A0E9482063E
:103A4000089582E084BD93E095BD9AEF97BD809381
:103A50006E0008952FB7F89480919303909194038A
:103A6000A0919503B09196032FBF08952FB7F894B6
:103A700060919303709194038091950390919603C4
:103A80002FBF089578941F921FB61F9211248F9311
:103A90009F93AF93BF938091930390919403A091D0
:103AA0009503B09196030196A11DB11D80939303D8
:103AB00090939403A0939503B0939603BF91AF9115
:103AC0009F918F911F901FBE1F90189581E080934A
:103AD000E00080E28093D8001092C9008FE19EE45C
:103AE0000197F1F700C0000087E090EBDC018093C4
:103AF000A4039093A503A093A603B093A70388E122
:103B00009CE00FB6F894A895809360000FBE909348
:103B10006000FFCF88E19CE00FB6F894A8958093F1
:103B200060000FBE90936000FFCF873901F178F4F9
:103B30008633F9F030F48433F1F08533F1F08FE11E
:103B400008958439E1F08639D1F781E20895843F00
:103B5000C1F030F4803FB9F0813F89F781E00895EA
:103B6000863F99F0A0F0873F51F787E0089582E201
:103B7000089585E2089583E2089584E2089580E23D
:103B8000089584E0089580E0089586E0089585E032
:103B9000089596E890937A00982F90729068909389
:103BA0007B008F7190911C01892B80937C00809108
:103BB0007A00806480937A0080917A0086FDFCCF41
:103BC000809178002091790090917A009F7790936E
:103BD0007A00922F08950E94951D0E94C91D089594
:103BE00008959B01BA0190919B039430E9F48F7082
:103BF0008093E9009FEF8091E800915085FD06C019
:103C000085ED8A95F1F700009111F5CF8091E800DC
:103C100085FF0AC050E040E0C9010E94F01F80917A
:103C2000E8008E778093E800089543E050E0BC01FF
:103C300082E00E94F11D089546E050E0BC0182E060
:103C40000E94F11D0895CF93DF93EC010E947D1C2B
:103C500048E050E0BE0181E00E94F11D88E0FE01D5
:103C6000ACE6B2E001900D928A95E1F7DF91CF9139
:103C7000089580919A03811109C00E9480210E94B9
:103C8000DD218091E20084608093E200089510922B
:103C90009A0308950E945B1C81E00E946C1C0895A9
:103CA0006091970381E0611101C080E00E944A1C8D
:103CB000089590919B0381E0943009F080E0609139
:103CC00097030E94581C089542E061EC81E00E9435
:103CD000FC2042E261EC82E00E94FC2090919B0378
:103CE00081E0943009F080E0609197030E94381CD5
:103CF000089580919D03833009F461C030F48130D0
:103D0000D1F1823009F49EC008958A3009F48AC046
:103D10008B3009F46FC0893009F050C080919C034A
:103D2000813209F04BC08091A0039091A1030297CA
:103D300008F044C08091E800877F8093E80080917C
:103D4000E80082FF37C09091F3008091F200029763
:103D500031F48091F100813011F0863021F48091AE
:103D6000F1000E94801C8091E8008B778093E8002E
:103D70000E94302123C080919C03813AF9F4809104
:103D8000E800877F8093E8008091A0039091A103D1
:103D9000892B61F468E08CE692E070E00E943F209D
:103DA0008091E8008B778093E800089560E090E0D0
:103DB00080E0F3CF80919B038111C1CF0895809162
:103DC0009C03813AD9F78091A0039091A103892B9C
:103DD000A9F78091E800877F8093E8008091E80050
:103DE00080FFFCCF0E947D1C8093F1008091E80051
:103DF0008E77BCCF80919C03813201F78091A00324
:103E00009091A103892BD1F68091E800877F809360
:103E1000E8000E94302180919E030E946C1C0E9449
:103E2000060A089580919C03813241F68091E80052
:103E3000877F8093E8000E94302180919F030E9439
:103E4000901C089580919C03813A09F0B7CF80912E
:103E5000E800877F8093E8008091E80080FFFCCF36
:103E60000E949D1CC1CF84B7877F84BF0FB6F89492
:103E7000A895809160008861809360001092600036
:103E80000FBE80E890E00FB6F894809361009093A5
:103E900061000FBE0E94691C08950E9480210E944B
:103EA000DD21E2EEF0E080818460808378940E94DE
:103EB0005C2408958DE191E00E94271B0895809174
:103EC0009B03853031F480919B03853019F00E946B
:103ED0001C1D08950E94F11C0E94AA1C882399F3BE
:103EE00080919903882379F30E94DA1F0E94060AC1
:103EF000EACF08959A014091A2035091A3030E9432
:103F0000821F0895492F55274330510519F168F450
:103F10004130510509F444C04230510509F445C00F
:103F200090E080E050E040E025C04132510549F189
:103F300042325105A9F784E490E046EB51E0611567
:103F40007105C1F08BE790E04BE351E06130710502
:103F500089F0E6CF99278130910581F0009729F00B
:103F60000297F1F6E6EBF0E002C0EAEEF0E08491B1
:103F700090E0AF01F901518340830895E6EDF0E050
:103F8000F6CF89E090E040E051E06115710591F3D2
:103F900089E090E049E151E06130710559F3C0CF0B
:103FA00082E190E049E251E0E5CF8BE390E04EEE14
:103FB00050E0E0CF80E189BD82E189BD09B400FE17
:103FC000FDCF8091D8008F7D8093D8008091E00054
:103FD00082608093E0008091E00081FDFCCF089535
:103FE000AF92BF92CF92DF92FF920F931F93CF9326
:103FF000DF936C01EB018A010E944F21F82E8111A1
:1040000023C00115110539F0F80180819181C81B89
:10401000D90BC80ED91EB12CA12C2097A9F08091E4
:10402000E80085FD22C08091E8008E778093E8004B
:1040300001151105A1F0F80180819181A80EB91E2A
:10404000B182A08285E0F82E8F2DDF91CF911F9154
:104050000F91FF90DF90CF90BF90AF9008950E9496
:104060004F218823D1F2F82EEFCFF60181916F0115
:104070008093F1002197FFEFAF1ABF0ACECFFC016A
:104080008091A2039091A30386179707A0F0611572
:10409000710529F49091E8009E779093E80090E0F4
:1040A0006115710551F4911108C08091E80082FFFB
:1040B00034C080E00895BC01F2CF80919B03882337
:1040C000C1F18530C1F18091E80083FD30C080915D
:1040D000E80082FDEACF8091E80080FFE1CF809187
:1040E000F3002091F200382F6115710519F0283086
:1040F000310558F091E02830310509F090E0209129
:10410000E8002E772093E800CBCF81918093F100D7
:10411000615071092F5F3F4FE7CF80919B03882348
:1041200041F0853041F08091E80083FFBECF81E00F
:10413000089582E0089583E00895FC018091A20330
:104140009091A30386179707A0F06115710529F4D4
:104150008091E8008E778093E80090E0611571050A
:1041600051F4911108C08091E80082FF35C080E0D1
:104170000895BC01F2CF80919B038823C9F185305B
:10418000C9F18091E80083FD31C08091E80082FD93
:10419000EACF8091E80080FFE1CF8091F300209189
:1041A000F200382F6115710519F02830310558F0EB
:1041B00091E02830310509F090E08091E8008E7799
:1041C0008093E800CBCF84918093F10031966150C9
:1041D00071092F5F3F4FE6CF80919B03882341F009
:1041E000853041F08091E80083FFBDCF81E00895E4
:1041F00082E0089583E00895982F973028F08F701B
:104200008093E90081E008959093E900242F762FB0
:1042100050E0981731F07091EC002091ED00509132
:10422000F00021FD02C09F5FE8CF3091EB003E7FA0
:104230003093EB003091ED003D7F3093ED003091F5
:10424000EB0031603093EB007093EC002093ED00B5
:104250005093F0002091EE0027FDE5CF80E0089517
:1042600080919C0387FF13C08091E80082FF06C005
:104270008091E8008B778093E80004C080919B03D5
:104280008111F2CF089580919B038823D9F3809107
:10429000E80080FFF8CF8091E8008E77ECCF209186
:1042A000E4003091E50095E6A9012091EC00822F11
:1042B000817020FF06C08091E80080FF06C080E08A
:1042C00008952091E80022FD1AC080919B03882365
:1042D00089F0853089F08091EB0085FD0FC0209139
:1042E000E4003091E50042175307F9F29150E1F6EE
:1042F00084E0089582E0089583E0089581E00895C0
:104300000E94EF210E94F721E0EEF0E080818160C1
:104310008083E8EDF0E080818F77808319BCA7ED82
:10432000B0E08C918E7F8C9380818F7E8083109201
:104330009A0308950F931F93CF93DF930E94EF2169
:104340000E94F721C8EDD0E088818F77888388812B
:104350008068888388818F7D888319BC10929B0335
:1043600010929703109299031092980300EE10E0B8
:10437000F80180818B7F808388818160888342E01F
:1043800060E080E00E94FC20E1EEF0E080818E7F22
:104390008083E2EEF0E080818160808380818860AC
:1043A0008083F80180818E7F80838881806188830B
:1043B000DF91CF911F910F910895E8EDF0E080819A
:1043C0008F7E8083E7EDF0E080818160808384E0F0
:1043D00082BF81E080939A030E949A210895E8EDBC
:1043E000F0E080818E7F80831092E2000895109229
:1043F000DA001092E10008951F920F920FB60F920B
:1044000011242F933F934F935F936F937F938F93D9
:104410009F93AF93BF93EF93FF938091E10082FF4F
:104420000BC08091E20082FF07C08091E1008B7F8A
:104430008093E1000E945B248091DA0080FF19C024
:104440008091D80080FF15C08091DA008E7F809324
:10445000DA008091D90080FF96C080E189BD82E1B9
:1044600089BD09B400FEFDCF81E080939B030E94CB
:10447000391E8091E10080FF19C08091E20080FF29
:1044800015C08091E2008E7F8093E2008091E2006F
:1044900080618093E2008091D80080628093D80090
:1044A00019BC85E080939B030E94501E8091E1001F
:1044B00084FF2BC08091E20084FF27C080E189BD8A
:1044C00082E189BD89B5982F917080FFFBCF8091E3
:1044D000D8008F7D8093D8008091E1008F7E8093FB
:1044E000E1008091E2008F7E8093E2008091E20003
:1044F00081608093E20080919703882309F449C08A
:1045000084E080939B030E94591E8091E10083FF09
:1045100029C08091E20083FF25C08091E100877F60
:104520008093E10082E080939B0310929703809137
:10453000E1008E7F8093E1008091E2008E7F809386
:10454000E2008091E20080618093E20042E060E05E
:1045500080E00E94FC208091F00088608093F00051
:104560000E944A1EFF91EF91BF91AF919F918F9151
:104570007F916F915F914F913F912F910F900FBE5F
:104580000F901F90189519BC10929B030E94471E14
:1045900070CF8091E30087FD93E090939B03B3CFAE
:1045A0001F920F920FB60F9211242F933F934F93A8
:1045B0005F936F937F938F939F93AF93BF93CF93AB
:1045C000DF93EF93FF93D091E900DF708091EC00CF
:1045D000C82FC17080FDC0E81092E9008091F00002
:1045E000877F8093F00078940E9414231092E90052
:1045F0008091F00088608093F000CD2BCF70C09345
:10460000E900FF91EF91DF91CF91BF91AF919F9121
:104610008F917F916F915F914F913F912F910F906B
:104620000FBE0F901F901895AAE2B0E0EAE1F3E206
:104630000C9452268CE993E02091F100FC01219327
:10464000CF01F3E0843A9F07B9F70E94791E809169
:10465000E80083FF1EC180919C0390919D039A30D6
:1046600008F017C1E92FF0E0E15EF84D0C943D260B
:10467000803899F0823809F00CC18091A0038F70C6
:10468000873008F006C18093E9008091EB0085FB3C
:10469000882780F91092E90006C0809198039091D4
:1046A0009903911182609091E800977F9093E800C0
:1046B0008093F1001092F1008091E8008E77E5C0C0
:1046C000882309F4D3C0823009F0E3C080919E03AF
:1046D0008111D6C08091A0038F702FEF280F263054
:1046E00008F0D7C08093E9002091EB0020FFC8C0FC
:1046F000933031F48091EB0080628093EB00C0C076
:104700009091EB0090619093EB0021E030E001C0CC
:10471000220F8A95EAF72093EA001092EA0080912E
:10472000EB008860EACF8111B4C010919E031F771F
:104730008091E3008078812B8093E3008091E800F2
:10474000877F8093E8000E9430218091E80080FFFD
:10475000FCCF8091E30080688093E30082E0111138
:1047600083E080939B0395C08058823008F091C00D
:1047700080919E0390919F038C3D23E09207A1F5C9
:1047800083E08A838AE289834FB7F894DE01139627
:1047900020E03EE051E2E32FF0E050935700E49137
:1047A00020FF03C0E295EF703F5FEF708E2F90E027
:1047B000EA30C0F0C7968D939D932F5F243159F74F
:1047C0004FBF8091E800877F8093E8006AE270E045
:1047D000CE0101960E943F208091E8008B77809364
:1047E000E80057C0C096E7CF6091A0037091A10385
:1047F000AE014F5F5F4F0E947A1FBC01892B09F405
:1048000048C09091E800977F9093E80089819A8151
:104810000E949D20E1CF8038E1F58091E800877FFC
:104820008093E800809197038093F10045CF811138
:1048300030C090919E03923060F58091E800877FB0
:104840008093E800909397030E9430218091970312
:10485000882311F084E005C08091E30087FDFACF42
:1048600081E080939B030E94641E13C080919E038D
:10487000813079F481E0933009F080E080939903EE
:104880001092E9008091E800877F8093E8000E9401
:1048900030218091E80083FF0AC08091E800877F83
:1048A0008093E8008091EB0080628093EB00AA96F1
:1048B000E3E00C946E260895CF9380919B038823A8
:1048C000A1F0C091E900CF709091EC00892F817028
:1048D00090FD80E8C82B1092E9008091E80083FDEC
:1048E0000E941423CF70C093E900CF9108955058CF
:1048F000BB27AA270E948F240C946E250E94602556
:1049000038F00E94672520F039F49F3F19F426F40F
:104910000C945D250EF4E095E7FB0C945725E92FE8
:104920000E947F2558F3BA1762077307840795071B
:1049300020F079F4A6F50C94A1250EF4E0950B2E49
:10494000BA2FA02D0B01B90190010C01CA01A001E1
:104950001124FF27591B99F0593F50F4503E68F13C
:104960001A16F040A22F232F342F4427585FF3CF7D
:10497000469537952795A795F0405395C9F77EF44E
:104980001F16BA0B620B730B840BBAF09150A1F097
:10499000FF0FBB1F661F771F881FC2F70EC0BA0F1D
:1049A000621F731F841F48F4879577956795B795A5
:1049B000F7959E3F08F0B0CF9395880F08F09927A0
:1049C000EE0F9795879508950E94EB246894B11196
:1049D0000C94A22508950E94872588F09F5798F08F
:1049E000B92F9927B751B0F0E1F0660F771F881FF4
:1049F000991F1AF0BA95C9F714C0B13091F00E940E
:104A0000A125B1E008950C94A125672F782F882760
:104A1000B85F39F0B93FCCF3869577956795B39534
:104A2000D9F73EF490958095709561957F4F8F4FA3
:104A30009F4F0895E89409C097FB3EF490958095A8
:104A4000709561957F4F8F4F9F4F9923A9F0F92F54
:104A500096E9BB279395F695879577956795B795D2
:104A6000F111F8CFFAF4BB0F11F460FF1BC06F5FB8
:104A70007F4F8F4F9F4F16C0882311F096E911C0CA
:104A8000772321F09EE8872F762F05C0662371F0EB
:104A900096E8862F70E060E02AF09A95660F771FFF
:104AA000881FDAF7880F9695879597F9089597F9F3
:104AB0009F6780E870E060E008959FEF80EC0895C4
:104AC00000240A94161617061806090608950024ED
:104AD0000A9412161306140605060895092E039467
:104AE000000C11F4882352F0BB0F40F4BF2B11F4DB
:104AF00060FF04C06F5F7F4F8F4F9F4F089557FD3A
:104B00009058440F551F59F05F3F71F04795880F3B
:104B100097FB991F61F09F3F79F0879508951216D2
:104B200013061406551FF2CF4695F1DF08C016167E
:104B300017061806991FF1CF86957105610508942F
:104B40000895E894BB2766277727CB0197F9089546
:104B50000E94BB250C946E250E94602538F00E94AF
:104B6000672520F0952311F00C9457250C945D25B2
:104B700011240C94A2250E947F2570F3959FC1F308
:104B8000950F50E0551F629FF001729FBB27F00DFB
:104B9000B11D639FAA27F00DB11DAA1F649F662750
:104BA000B00DA11D661F829F2227B00DA11D621F9F
:104BB000739FB00DA11D621F839FA00D611D221F59
:104BC000749F3327A00D611D231F849F600D211D3D
:104BD000822F762F6A2F11249F5750409AF0F1F0C0
:104BE00088234AF0EE0FFF1FBB1F661F771F881F29
:104BF00091505040A9F79E3F510580F00C945725E5
:104C00000C94A2255F3FE4F3983ED4F38695779504
:104C10006795B795F795E7959F5FC1F7FE2B880FCE
:104C2000911D9695879597F90895AA1BBB1B51E195
:104C300007C0AA1FBB1FA617B70710F0A61BB70B0C
:104C4000881F991F5A95A9F780959095BC01CD01B1
:104C5000089597FB072E16F4009407D077FD09D02E
:104C60000E94152607FC05D03EF4909581959F4F34
:104C70000895709561957F4F0895EE0FFF1F059081
:104C8000F491E02D09942F923F924F925F926F9290
:104C90007F928F929F92AF92BF92CF92DF92EF92CC
:104CA000FF920F931F93CF93DF93CDB7DEB7CA1B4D
:104CB000DB0B0FB6F894DEBF0FBECDBF09942A8878
:104CC000398848885F846E847D848C849B84AA8420
:104CD000B984C884DF80EE80FD800C811B81AA81AD
:104CE000B981CE0FD11D0FB6F894DEBF0FBECDBF78
:104CF000ED010895FB01DC0104C08D910190801944
:104D000021F441505040C8F7881B990B0895FB01CE
:104D1000DC0102C001900D9241505040D8F7089537
:104D2000F999FECF92BD81BDF89A992780B5089573
:104D3000A6E1B0E044E050E00C94DA26A8E1B0E04F
:104D400042E050E00C94DA26DC01A40FB51F41507C
:104D5000504048F0CB01840F951F2E910E94B5263C
:104D600041505040D0F70895262FF999FECF92BDBB
:104D700081BDF89A019700B4021639F01FBA20BD20
:104D80000FB6F894FA9AF99A0FBE08950396272F52
:104D90000E94B5260E94B426252F0E94B526242FF6
:104DA0000C94B5260196272F0E94B5260C94B426A4
:104DB000DC01CB01FC01F999FECF06C0F2BDE1BDDB
:104DC000F89A319600B40D9241505040B8F70895CA
:104DD000F894FFCF000800083E083E08A208BE086D
:104DE0002F082F08C3083409430943095C17D0175B
:104DF00064172E173217681736176C177817421773
:104E0000C91746177C174A178017A8174E1784171B
:104E1000AF1754178A1792173A1770173E1774175F
:104E200058178E179E17B817C71728176017D71768
:104E3000001B061BEF1AFA1A0C1B121B181B382337
:104E400060234924602349249323B42349240B2459
:024E5000172425
:104E5200F4F058028403B004400660091C02AA015F
:104E6200280850011E0A140100000100408D1C2375
:104E72001EF01D1C1E151E35679091939596F1F339
:104E8200F5F6F7E200E900EA00B500B600B700CD9A
:104E9200008301CC008A01920194012102230224A1
:104EA200022502260227022A02B300B4006F007014
:104EB200009F01CB019F02A002818283E200E900F0
:104EC200EA00B500B600B700CD008301CC008A012C
:104ED20092019401210223022402250226022702C2
:104EE2002A02B300B4006F0070009F01CB019F0241
:104EF200A0028182839492C63697D615EB15A0152F
:024F0200851513
:00000001FF
