:100000000C94B1020C94E9020C94E9020C94E902FC
:100010000C94E9020C94E9020C94E9020C94E902B4
:100020000C94E9020C94E9020C94E9020C94062960
:100030000C94B7290C9452240C94E9020C94071FD9
:100040000C94E9020C94E9020C94F71F0C94D92447
:100050000C94E9020C94E9020C94E9020C94E90274
:100060000C94E9020C94E9020C94E9020C94E90264
:100070000C94E9022B000800150018000C004C003D
:1000800014001A0017001C00120013002921070099
:1000900009000D000E003400040016000A000B00D9
:1000A0000F003300E10006001900100036002800A0
:1000B0001D001B0005001100370038004600E3005A
:1000C000C152C25250004F00E000E2002C002C0050
:1000D00051005200350220022102240225022A008A
:1000E0001E021F02220223022602270238002000DD
:1000F00021002400250031001E001F0022002300E3
:100100002600270001000100010057002E00010019
:1001100001000100010001000100010001002903AC
:10012000010001000100010029004C05010001004F
:10013000640035000100520001002D0201000100A1
:1001400001000100010001002F00300001005100FA
:100150004F002D00010001000100500001000100CE
:100160002F0230023A003D003E00410042004500AF
:100170003B003C003F00400043004400007C010085
:100180000100010001000100010001000100010067
:10019000010001001E0F0500047F3F1F643214643C
:1001A0003214783C1E1E140A052223252628292AEB
:1001B0002C2D2F3032333536383A3B3D3E404243CA
:1001C0004547494A4C4E5051535557595A5C5E6009
:1001D00062646668696B6D6F71737577797B7D7F1B
:1001E00081838587898A8C8E90929496989A9C9E1A
:1001F0009FA1A3A5A7A8AAACAEAFB1B3B4B6B8B936
:10020000BBBCBEBFC1C2C3C5C6C7C9CACBCCCDCE9D
:10021000D0D1D2D2D3D4D5D6D7D7D8D9D9DADADB80
:10022000DBDBDCDCDCDCDCDDDDDDDDDCDCDCDCDC0C
:10023000DBDBDBDADAD9D9D8D7D7D6D5D4D3D2D24B
:10024000D1D0CECDCCCBCAC9C7C6C5C3C2C1BFBE33
:10025000BCBBB9B8B6B4B3B1AFAEACAAA8A7A5A39E
:10026000A19F9E9C9A98969492908E8C8A8987855D
:1002700083817F7D7B79777573716F6D6B6968663C
:100280006462605E5C5A5957555351504E4C4A490E
:1002900047454342403E3D3B3A3836353332302FB6
:1002A0002D2C2A292826252322FFAA7F554000002D
:1002B0000000000000000000000101020304050628
:1002C000080A0C0F1114181C2024292E33393F461C
:1002D0004C535B626A7179818A929AA2AAB2B9C1BF
:1002E000C8CFD5DCE1E7EBF0F4F7FAFCFDFEFFFE4A
:1002F000FDFCFAF7F4F0EBE7E1DCD5CFC8C1B9B209
:10030000AAA29A928A8179716A625B534C463F39FC
:10031000332E2924201C1814110F0C0A080605047A
:1003200003020101000000000000000000000001C5
:1003300001010101010101010202020202020202A5
:100340000203030303030303030404040404040477
:10035000050505050506060606060707070707083B
:10036000080808090909090A0A0A0B0B0B0C0C0CEE
:100370000D0D0D0E0E0E0F0F0F1010111111121288
:1003800013131414151516161717181819191A1A05
:100390001B1B1C1D1D1E1E1F202021222223242466
:1003A000252626272829292A2B2C2D2D2E2F3031A2
:1003B0003232333435363738393A3B3C3D3E3F40B4
:1003C0004142434445464748494A4C4D4E4F50519F
:1003D0005354555658595A5B5D5E5F616264656659
:1003E00068696B6C6D6F7072737577787A7B7D7EE0
:1003F0008082838587888A8C8E8F91939596989A30
:100400009C9EA0A2A3A5A7A9ABADAFB1B3B5B7BA47
:10041000BCBEC0C2C4C6C9CBCDCFD1D4D6D8DBDD1B
:10042000DFE2E4E7E9EBEEF0F3F5F8FAFDFF16039F
:1004300051007500610072006B00200050006C00DC
:100440007500730000000A034E0061007300700025
:1004500000000403090409023B00020100A0FA099C
:1004600004000001030101000921110100012244DF
:1004700000070581030800010904010001030000D1
:1004800000092111010001227B00070582032000E1
:1004900001120100020000000870704453010001C5
:1004A00002000105010902A10185020901A100055F
:1004B0000919012908150025019508750181020512
:1004C00001093009311581257F95027508810609DA
:1004D000381581257F950175088106050C0A3802BB
:1004E0001581257F950175088106C0C00501098029
:1004F000A101850319012AB700150126B70095014E
:1005000075108100C0050C0901A101850419012A9B
:10051000A002150126A002950175108100C00501F9
:100520000906A101050719E029E71500250195082D
:10053000750181029501750881010507190029FFE0
:10054000150026FF00950675088100050819012988
:100550000515002501950575019102950175039119
:1005600001C011241FBECFEFD4E0DEBFCDBF04B663
:1005700003FE18C08091600390916103A091620313
:10058000B09163038730904BA740B04B59F4109261
:100590006003109261031092620310926303E0E023
:1005A000F8E3099511E0A0E0B1E0EAE7FBE502C05D
:1005B00005900D92A03FB107D9F723E0A0EFB1E07D
:1005C00001C01D92A036B207E1F70E94E8120C9418
:1005D000602D0C9400001F93CF93DF93182FC62F2C
:1005E0000E945721D82F882389F0113039F489EDE2
:1005F000C11109C08AED0E94A40508C0111106C0EE
:10060000CC2349F089EA0E94A405DC2F8D2FDF91CD
:10061000CF911F9108958AEAEECF282F8330E0F41E
:100620006830D0F44630C0F4862F90E066E070E089
:100630000E94672BFC01E40FF11D822F90E060E324
:1006400070E00E94672BE80FF91FEE0FFF1FEC58B8
:10065000FF4F85919491089581E090E008950E9464
:100660000D03089581E008950E943203089581E00A
:1006700008950E94320308950E9439030895089551
:100680000E943F030895A6E0B0E0E9E4F3E00C9493
:100690000A2C49835A839E833091F70189819A817C
:1006A00031111AC03E81332399F0222389F00E9430
:1006B0005509182F682F89819A810E942C09698118
:1006C0007A81812F0E945F102696E3E00C94262CFD
:1006D0000E944109182FF3CF0E94550969817A8140
:1006E000F1CFFC01262F4081518162817381848189
:1006F00095810E9443030895CF93DF93EC0161E05D
:100700000E947103BE010E943403DF91CF910895CE
:10071000CF93DF93EC0160E00E947103BE010E9461
:100720004003DF91CF91089508950E9401080E942F
:1007300094032FEF84E39CE0215080409040E1F748
:1007400000C0000008950E9495030E94FD240895B2
:100750000E9495030E94212508950F931F93CF9324
:10076000DF938C0161E00E947103EC01B8010E94EB
:100770003C03811106C080E0DF91CF911F910F9162
:100780000895B801CE010E94621E8823A1F3B8012A
:10079000CE010E94D522882371F3B801CE010E94B8
:1007A0007420882341F3B801CE010E944722882398
:1007B00011F3B801CE010E94D81C8823E1F2F801A0
:1007C0008581882361F0C330FCE7DF07E9F058F446
:1007D000C115ECE7DE07A9F0C130DC47B9F0C8016C
:1007E0000E943703C9CFCB358CE7D807A9F0CC35A9
:1007F000ECE7DE0771F0CA35DC4789F70E94910DFE
:10080000EECF0E94A303B7CF0E94990D0E94A803C8
:10081000B2CF0E94870DE3CF0E94950DE0CF0E94DA
:10082000352480E00E94411E0E943B0408950E94EE
:100830008E1D0E943F040E943A240895089581E08D
:1008400008950895CF93DF93D82F0E941F04C82FD7
:10085000882319F08D2F0E9421048C2FDF91CF91D6
:1008600008950895CF93C82F0E941E048C2F0E94D4
:100870002204CF91089580E00E94320408950E94DE
:100880001E230E9432040895CF930E941E23C82F76
:100890008091F2018C1779F0C093F2010E94BE247E
:1008A0006093F3017093F4018093F5019093F60146
:1008B0008C2F0E943204CF910895ADE0B0E0E3E6C2
:1008C000F4E00C940B2C488759876A877B878C87C8
:1008D0009D8791110E94BF0C1F8286E0FE01389611
:1008E000DE01119601900D928A95E1F78D818111BB
:1008F0000DC029813A814B815C816D817E818F8120
:100900000E94ED0B2D96E2E00C94272CCE0101966F
:100910000E947C038111EDCFF5CFFC0124812130B1
:1009200021F4808191810E9487090895662329F02E
:100930000E948A130E945D1408950E94E413FACF66
:10094000CF93C82F8823C9F08238C9F40E942B2383
:1009500081FD13C089E30E94770C0E94F80C2FEFF1
:1009600087EE93E0215080409040E1F700C0000006
:1009700089E30E947F0C0E94F80CCF910895833880
:10098000A1F40E942B2380FDF8CF83E50E94770C11
:100990000E94F80C2FEF81EE94E0215080409040AF
:1009A000E1F700C0000083E5E4CF8438A1F40E94A1
:1009B0002B2382FDE2CF87E40E94770C0E94F80C83
:1009C0002FEF81EE94E0215080409040E1F700C08D
:1009D000000087E4CECF8CEF8C0F813A90F46C2F1F
:1009E00080910401909105010E94A323882329F09E
:1009F0008C2F0E947F0C0E94F80C8C2F0E94770C89
:100A0000BACF80E28C0F883048F4C77081E001C013
:100A1000880FCA95EAF70E94A20CADCFEBE5EC0F68
:100A2000E33040F4F0E0EE59FE4F808190E00E9408
:100A30004723A3CFE8E5EC0FEB3150F4F0E0EE0FE5
:100A4000FF1FE45DFE4F808191810E946C2395CF52
:100A500083E38C0F833108F090CF61E08C2F0E94EC
:100A600096048BCF882309F456C0823879F40E940B
:100A70002B2381FF50C089E30E94770C0E94F80C61
:100A800089E30E947F0C0E94F80C0895833859F482
:100A90000E942B2380FF3FC083E50E94770C0E94B9
:100AA000F80C83E5EECF843859F40E942B2382FFA3
:100AB00032C087E40E94770C0E94F80C87E4E1CFF3
:100AC0009CEF980F913AE8F290E2980F983050F42A
:100AD000877091E001C0990F8A95EAF7892F0E94EB
:100AE000A80CD1CF9BE5980F933028F490E080E0DC
:100AF0000E944723089598E5980F9B3128F490E0D1
:100B000080E00E946C23089593E3980F933118F4CA
:100B100060E00E94960408951F93CF93DF93182FEF
:100B2000EB010E94A004209739F4812F0E94320526
:100B3000DF91CF911F9108958FE99FE00197F1F721
:100B400000C000002197EFCF70E060E0893311F41E
:100B500060E570E00E948C050895882321F00E94D2
:100B6000A20C0E94F80C0895882321F00E94A80C82
:100B70000E94F80C0895B0E0A0E0E1ECF5E00C94E0
:100B8000042C6C01D62FC72FFC011581068102951C
:100B90000F700E94980CE82E8823E9F0E12E1123B3
:100BA000D1F08C2F807F803451F080E28D0F88301F
:100BB000F8F0011104C08C2F807E8032C9F0809142
:100BC0000B0382FF15C082E00E945B0D0E94980C0F
:100BD00091E0E82EE926BC2EB2949FE0B922FBE01A
:100BE000FB15B8F1EB2DF0E0EE59F24D0C94F52B1E
:100BF000E12CF1CF0C2F0F70C07F11F00295007F18
:100C0000112399F0002359F080E28D0F883010F005
:100C1000D11107C0802F0E94A20C0E94F80C8D2FCA
:100C20005AC0802F0E94B20CF8CF8D2F0E9432053F
:100C3000002379F080E28D0F883010F0D11104C0CC
:100C4000802F0E94A80C03C0802F0E94B80C0E9425
:100C5000F80CEB2DE850FF0B349720F40E941E2374
:100C60000E943204EE2089F00E94940C80FD0DC099
:100C7000F60115820E948E0C0E948A08C6010E940D
:100C8000C8070E948E0C0E949A08CDB7DEB7E9E033
:100C90000C94202C2C2F2F70F22EC07FC03219F014
:100CA000F29480EFF822DD2341F0D130D1F111230D
:100CB00009F444C00023F1F0B2CF80910B0382FD10
:100CC00015C0112359F0FF2029F08F2D0E94A20C8E
:100CD0000E94F80C80E00E94A004BBCF80E00E943C
:100CE0003205FF2009F4B5CF8F2DABCF112369F06A
:100CF000011104C08F2D0E94AD05ABCF013009F06A
:100D0000A8CF8F2D0E94D60CA4CF0111A2CF8F2D7A
:100D10000E94B4058F2D0E94E20C8F2D0E94C60CFC
:100D200098CF112321F0033008F093CFE3CF0230A6
:100D300008F08FCF8F2D0E94B4058BCF0023D1F305
:100D4000D93349F43FEF87EE93E031508040904033
:100D5000E1F700C000008D2F0E9432057ACF8C2F62
:100D600086958695837069F0813009F072CF8D2F5A
:100D70009C2F9370111102C080E090E00E946C23C0
:100D800068CF8D2F9C2F9370111102C080E090E0EE
:100D90000E9447235ECF612F8D2F0E94960459CF6A
:100DA0008C2F8370A1F5111154CF4D2F429546958C
:100DB0004770440F440F2D2F2F7030E0042E02C0D7
:100DC000220F331F0A94E2F790E080E0D4FF09C0BD
:100DD0008FE090E002C0880F991F4A95E2F7809556
:100DE0009095C695C695C370822B932BC23049F05F
:100DF00058F4C13019F00E945A082BCF0E945108B4
:100E000028CF0E94630825CF0E944E0822CF8695E6
:100E1000112311F08C2F8170882309F41ACF4D2FE4
:100E2000429546954770440F440F2D2F2F7030E0A8
:100E3000042E02C0220F331F0A94E2F790E080E0F4
:100E4000D4FF09C08FE090E002C0880F991F4A9537
:100E5000E2F780959095C695C695C370822B932B2B
:100E6000C23049F058F4C13019F00E94C508F1CEE3
:100E70000E94BC08EECE0E94CE08EBCE0E94720803
:100E8000E8CECF70112329F08C2F0E948A088D2F75
:100E900032CF8D2F0E94B4058C2F0E949A08D9CE94
:100EA000D23F41F160F4D03FB9F0D13F81F011233E
:100EB00009F446C00111B3CE8C2F8F711FC0D33FF0
:100EC00001F1D43FA1F780910B0382FD24C08C2F48
:100ED0008F71112311F312C0112341F0023008F079
:100EE000B8CE8C2F8F710E94AC08B3CE033008F0BF
:100EF000B0CEF7CF8C2F8F711111CFCF0E948A08FF
:100F0000A8CE112329F08C2F8F710E947E08A1CECC
:100F10000E9479089ECE112349F0CF718C2F0E9438
:100F20008A0863E08C2F0E943D0D93CE81E00E94E1
:100F30005B0D023008F48DCE82E00E945B0D89CEFD
:100F4000002359F0D93309F006CFEFEFF7EE23E095
:100F5000E150F0402040E1F7FCCE8C2F8F719DCF07
:100F60000F931F93CF93DF93EC01688179818D817B
:100F70000E9492098C010E94D7080E944D08B80176
:100F8000CE010E94BB05DF91CF911F910F91089573
:100F9000CF93DF93EC018C81882399F0CE010E94DE
:100FA000AD03811111C00E94980C882351F08D81EE
:100FB000882339F080910B0382FF03C082E00E94F6
:100FC0005B0DDF91CF910895CE010E94B007CE0155
:100FD0000E948803F6CF90E080E00E94472390E0D3
:100FE00080E00E946C230E94BF0C0E94F80C0E94BB
:100FF00079140E945D1408950E94870C0E94EB07EB
:1010000008950E94AF0C0E94FC07089592959F706E
:10101000963091F058F4925F9F70923058F4803F70
:1010200019F030F4883E30F481E008959A5FF4CFEF
:10103000843FD1F380E00895883EB0F3813FD1F73B
:10104000F3CFFC012481222339F0808191810E9419
:1010500087090E940608089580E00895A6E0B0E0A0
:10106000E4E3F8E00C940B2C2696E2E00C94272C99
:10107000A7E0B0E0EEE3F8E00C940B2C2796E2E05A
:101080000C94272C08950E94420808950E9443085A
:101090009093130280931202089508950E944608C7
:1010A00008952091120230911302822B932B0E94FB
:1010B000460808952091120230911302822393234F
:1010C0000E9446080895209112023091130282274F
:1010D00093270E94460808950E94420808950E949E
:1010E0006C0808950E946F0890931102809310027B
:1010F000089590E080E00E947208089521E030E0B9
:10110000A90102C0440F551F8A95E2F7CA010E9447
:101110007208089521E030E002C0220F331F8A9543
:10112000E2F78091100290911102822B932B0E9482
:101130007208089521E030E002C0220F331F8A9523
:10114000E2F7209530958091100290911102822350
:1011500093230E947208089521E030E002C0220F1C
:10116000331F8A95E2F78091100290911102822735
:1011700093270E9472080895209110023091110265
:10118000822B932B0E9472080895209110023091B7
:101190001102822393230E94720808952091100265
:1011A00030911102822793270E94720808950895B2
:1011B000262F277091E001C0990F2A95EAF723E0C6
:1011C000769567952A95E1F7660F771F660F771F6B
:1011D000FA01E60FF71F50E040E0682F70E08191C0
:1011E000DF0111979B01042E02C0369527950A94C2
:1011F000E2F7217021952827292328272C934F5F78
:101200005F4F4430510559F70895A82FA77023E088
:10121000969587952A95E1F7880F991F880F991F52
:10122000FB01E80FF91F50E040E080E0219130E041
:101230000A2E02C0369527950A94E2F721703327CB
:10124000042E01C0220F0A94EAF7822B4F5F5F4FF2
:101250004430510559F70895282F362F983080F4DF
:10126000863070F4892F90E066E070E00E94672B72
:10127000BC01620F711D48EF51E0832F0E94D80816
:101280000895282F983078F4863068F4892F90E0FC
:1012900066E070E00E94672B68EF71E0820F911D9D
:1012A0000E940509089580E00895B0E0A0E0EBE514
:1012B000F9E00C94042C7C010091100210911102B1
:1012C0008091120290911302082B192BCFE0D0E0ED
:1012D000CC24C394D12CBC2EC6010C2E02C0880F86
:1012E000991F0A94E2F780239123892B49F42197CF
:1012F00090F7B12C8B2DCDB7DEB7E9E00C94202C04
:10130000B7018C2F0E946B10019789F3F3CFCF9315
:10131000DF93EC010E945509BE010E946B10DF9122
:10132000CF9108951F93CF93DF93EB019091F70135
:10133000992339F0CB010E948709DF91CF911F914A
:101340000895882369F0CB010E945509182F682F52
:10135000CE010E942C09BE01812F0E946B10EDCF9F
:10136000CB010E944109182FF6CFCF93DF93C09194
:101370001402809115028C1303C0DF91CF91089560
:10138000D0E0CE0167E070E00E94672BFC01EA5ECE
:10139000FD4F208131814281538164817581868135
:1013A0000E9438082196C770E4CF20914E023091F8
:1013B0004F0240915002509151026091520270913F
:1013C0005302809154020E9438080895CF93DF930E
:1013D00080915402807F09F04FC08091530288238E
:1013E00009F44AC02091140240911502A0914F02C5
:1013F000B0914E02C0915002D09151024217E1F1DA
:1014000030E0C90167E070E00E94672B8A5E9D4F63
:10141000FC018481882399F1C90167E070E00E9492
:10142000672BFC01EA5EFD4F81818A1328C0808111
:101430008B1325C08581811122C0828193818C1BF1
:101440009D0B883C9105D8F4809154028F70806187
:1014500080935402C90167E070E00E94672BFC0191
:10146000E45EFD4F90819F70906190838EE492E0E6
:101470000E94C8070E94B509DF91CF9108952F5FA0
:101480003F4F2770BBCFA82FB62F20911402409159
:101490001502241302C080E0089530E0C90167E01E
:1014A00070E00E94672BFC01EA5EFD4F8181B8135A
:1014B00006C08081A81303C085818111EDCF2F5F05
:1014C0003F4F2770E6CFA4E1B0E0E9E6FAE00C94E4
:1014D000012C8C0186E0F801DE011F9601900D922F
:1014E0008A95E1F7F8018481E5809EE4A92E92E0D7
:1014F000B92E9091520291111FC08823D1F0EE2095
:10150000A9F0C8010E942108F82E882379F087E00D
:10151000F801D50101900D928A95E1F7C5010E946D
:101520008D040E94E6090E94D5095FC0C8010E948F
:10153000C807FF24F39459C0C080D1808280938073
:10154000F09053022091500230915102A401421BAD
:10155000530BFF2009F4F9C0483C510508F0A7C01F
:10156000882309F442C090914F0280915402282FA1
:10157000207F09F05CC09D1116C090914E02C912E7
:1015800012C0E1104EC08F708061809354020E949F
:10159000D5098EE492E00E94C80780915402F801B8
:1015A0008683F12C22C0E1103CC06D2D8C2D0E9451
:1015B000430A6D2D8C2D0E94430AE82E8111F1CF34
:1015C000CF86D88A8F8598890E948709292F2295EE
:1015D0002F70243078F49F702230A8F09923B9F04E
:1015E000F8019681907F99F4FE2C8F2D6496ECE0A3
:1015F0000C941D2C2A5F2F70223068F0C8010E94C5
:10160000C807EF2CF1CF992311F0882369F3805E8E
:10161000883050F3F3CF803F38F3815F833070F729
:10162000E3CF80915402816080935402BACF9D1120
:1016300013C090914E02C9120FC0E1100DC08683F5
:10164000C8010E94C80787E0F801AEE4B2E001904B
:101650000D928A95E1F767CFC8010E94210888237F
:1016600009F464CFEE2009F461CF809154028032F6
:1016700088F020914E0230914F02398728879B864F
:101680008A86909152029C871D868E87CE0108968D
:101690000E94C80787E0F801AEE4B2E001900D9225
:1016A0008A95E1F70E94E6090E94D50942CF909100
:1016B0005402292F207FA1F4682D9A8A898AA601D5
:1016C0007A899E2D0E942E088EE492E00E94C8071F
:1016D00087E0F50111928A95E9F70E94D50961CF5B
:1016E000882309F482CF80914F028D1110C0809120
:1016F0004E02C8120CC0E1100AC09683C8010E94B5
:10170000C80787E0F50111928A95E9F76ECFC80105
:101710000E942108882309F409CFEE2009F406CF9E
:1017200080915402803208F4B5CF20914E0230915E
:101730004F023A8329839C828B82909152029D832F
:101740001E828F83CE010196A3CF483C5105B8F588
:10175000882309F4EECEFE2CEE2009F4E7CE80912A
:101760004F028D111EC080914E02C8121AC0809186
:10177000540280FD0DC0982F907F51F08683903FDA
:1017800009F45ECF982F907F905F8F70892B57CF91
:1017900087E0F801AEE4B2E001900D928A95E1F79E
:1017A00024CFC8010E942108811174CF8091540276
:1017B000816080935402C8010E94C80716CF682D2B
:1017C0009A8A898AA6017A899E2D0E942E0887E02E
:1017D000F50111928A95E9F7A6CEAEE0B0E0E3EF0D
:1017E000FBE00C940B2C288739874A875B876C8732
:1017F0007D878E87CE0108960E94630A8823A9F010
:101800006C85662341F0288539854A855B857D8511
:101810008E850E94380880911402909115028913D8
:101820003EC02E96E2E00C94272C87E0FE0138960D
:10183000DE01119601900D928A95E1F78C8588233F
:1018400051F38091150290E09C012F5F3F4F27706C
:101850003327409114024217130699F067E070E0B5
:101860000E94672BDC01AA5EBD4F97E0FE01319616
:1018700001900D929A95E1F7209315020E94B50907
:10188000CACF0E940108109215021092140287E03C
:10189000EEE4F2E0DF011D928A95E9F7BCCF90E01B
:1018A00067E070E00E94672B8A5E9D4F0E94630A8A
:1018B000882309F4B6CF8091140290E067E070E0CD
:1018C0000E94672BFC01EA5EFD4F2081318142813D
:1018D00053816481758186810E9438088091140249
:1018E00090E00196877099278093140294CF682F17
:1018F00080910401909105010E94D9230895682FD9
:1019000080910401909105010E94DC23089580914B
:101910000401909105010E94DF23089580915D02EA
:10192000869586958695089580915D0287700895C5
:1019300090915D02977081E009F480E008958091B4
:101940006902089590916902892B80936902089534
:10195000809590916902982390936902089510925E
:101960006902089590916802892B80936802089516
:101970008095909168029823909368020895109240
:101980006802089508950E94C20C089590915E0225
:10199000292F282331F08095892380935E020E94AD
:1019A000C30C089508950E94D20C089590915F028F
:1019B000292F2823281729F0982B90935F020E9443
:1019C000D30C089590915F02292F282331F0809540
:1019D000892380935F020E94D30C089580915F0257
:1019E000882329F010925F0280E00E94D30C0895B2
:1019F000CF93DF93E0910401F0910501809169029A
:101A00008083E0910401F09105018081909168024A
:101A1000892B808390915F02992381F0E0910401EA
:101A2000F09105018081892B808380910401909140
:101A300005010E94912381110E94EE0CC0910401C6
:101A4000D091050148E050E065E572E0CE010E94CA
:101A5000D32C892B59F088E0FE01A5E5B2E0019076
:101A60000D928A95E1F7CE010E942E23DF91CF914E
:101A7000089508950E94390D089590910B0392FFE7
:101A800011C0982F990F990F990F962B90935D0283
:101A90000E948A0880915D028695869586950E94AF
:101AA0003A0D08950E948A08089510925D0280E020
:101AB0000E943A0D089590915D028095892380934C
:101AC0005D02282F277069F4891759F090910B0354
:101AD00092FF07C08695869586950E949A080E9477
:101AE000550D089590910B0392FB222720F928179A
:101AF00069F080FB92F990930B0380910A03909117
:101B00000B030E94BA0D82E00E945B0D0895809144
:101B10000B0382FB882780F991E089270E94720DD0
:101B2000089581E00E94720D089580E00E94720D78
:101B300008956FEF7FEF90E080E00E942B2D0895D5
:101B400090E080E00E94F72C21E0863E9E4F09F055
:101B500020E0822F089582E090E00E94E92C089511
:101B600083E090E00E94E92C089584E090E00E94D8
:101B7000F72C0895BC0184E090E00E942B2D08957D
:101B8000AB01BC018FE090E00E941F2D0895AB01D6
:101B9000BC0183E190E00E941F2D089560E070E099
:101BA000CB010E94C70D089560E070E0CB010E9458
:101BB000C00D0E94CE0D0895A8E0B0E0E2EEFDE079
:101BC0000C940B2C66EE7EEF90E080E00E942B2DB3
:101BD00060E082E090E00E940D2D60E083E090E004
:101BE0000E940D2D109213021092120260E074E117
:101BF00084E090E00E942B2D60E086E090E00E945F
:101C00000D2D6FEF87E090E00E940D2D40E050E039
:101C1000BA0188E090E00E941F2D60E084E290E02D
:101C20000E940D2D60E087E190E00E940D2D60E0A4
:101C30008CE090E00E940D2D60E08DE090E00E942D
:101C40000D2D19821A821B821C821D821E821F8208
:101C5000188648E050E068E170E0CE0101960E94ED
:101C6000FD2C40E050E0BA0180E290E00E941F2D80
:101C70000E94D40D2896E2E00C94272C0E94DC0DE3
:101C80000895682F8EE090E00E940D2D0895A6E043
:101C9000B0E0EDE4FEE00C94092C0E94B2248C012B
:101CA00080916A0290916B028017910781F01982EE
:101CB0001A820E94B224682F49815A81792F80E0CC
:101CC00090E00E945D0410936B0200936A022696D6
:101CD000E4E00C94252C0E94BE2460937C02709357
:101CE0007D0280937E0290937F02609378027093CE
:101CF000790280937A0290937B0208950E94BE2419
:101D000060937C0270937D0280937E0290937F02A9
:101D100060937402709375028093760290937702B9
:101D20000895089508950E94910E089508950E94BF
:101D3000960E089581E691E10E94F5120E94920E9E
:101D40000E94930E089581E008950E94A30E0895C5
:101D50000E94A30E0895089508950E94AB0E0E945C
:101D6000AC0E08950E9480110E9431040E9431201F
:101D700008950E94A9240E9459210E944B120E949A
:101D8000B20E0E948E1D0E94DC1B0E94970E0895C9
:101D9000A6E0B0E0EEECFEE00C94022C0E94A50E52
:101DA000811113C00E94470E0E941F1C0E94701FC9
:101DB0000E94CA2181110E947E0E0E949B140E94E3
:101DC00044042696EBE00C941E2C0E9461128CE6D3
:101DD000A82E82E0B82E750110E0F70101917F0175
:101DE000812F0E94A6111F5F183009F441C0081707
:101DF000A1F38091800281FD0E94AC110E94A80E87
:101E0000C82E10E099249394812F0E94A611082FC8
:101E1000F50181915F01081729F1F12CEE24E3947B
:101E2000D02ED8268D2D8E21A9F0CC2099F0F982C4
:101E30001A830E94B2249C838B839D8291E0802F21
:101E40008E2109F490E049815A816B817C818D81DA
:101E50000E945D04F394EE0CF6E0FF12E3CFF5016F
:101E6000319700831F5F183079F60E946B0E9CCF6C
:101E70000813BFCF97CF1F93CF93DF930E947010AB
:101E8000EC01C11580E5D807F0F5C11580E4D8074D
:101E900008F09EC0C03ED10520F5CD3CD10508F02C
:101EA00084C0C83AD10578F4C53AD10508F075C0A8
:101EB000C130D10519F1209709F1C430D105F0F4F2
:101EC000D0E0C0E01BC0C33CD105D0F7C85AD0E079
:101ED000CC0FDD1FCB59DE4F0990D881C02DD464C3
:101EE0000DC0C11580E2D80708F0D7C0C11581E048
:101EF000D80708F05CC0C83ED10510F7CE01DF91CD
:101F0000CF911F910895C03682E5D80728F5C034D7
:101F100082E5D80708F06DC0C03282E5D80708F026
:101F200061C0C11582E5D80708F49DC02C2F269505
:101F3000269530E085E0220F331F8A95E1F78C2F3C
:101F40008370C1E0D0E002C0CC0FDD1F8A95E2F7BC
:101F5000C22BD32BDD68D2CFC03A82E5D80760F41C
:101F6000C03882E5D80708F45BC0CF71D0E0DC2F21
:101F7000CC27C46FD06AC2CFC03C82E5D80708F432
:101F800066C0C03E82E5D80708F09ACFDC2FCC2788
:101F9000CC27DF71C06FD06AB1CFC55AD0E0C5562B
:101FA000DE4FC881D0E0D064A9CFD065A7CF8D2FF8
:101FB0000E941211182FCE0199270E947010C12F74
:101FC000D0E0DC2FCC27CC27DF71C82BD92B96CFC4
:101FD000CE0199270E947010CC27DF70C82BD92B17
:101FE000D06A8CCFCF71D0E0DC2FCC27C16FD06A04
:101FF00085CF2C2F26952695277030E0B5E0220F4F
:10200000331FBA95E1F78C2F8370C1E0D0E002C096
:10201000CC0FDD1F8A95E2F7C22BD32BDC686ECF85
:102020002C2F26952695277030E0A5E0220F331F30
:10203000AA95E1F78C2F8370C1E0D0E002C0CC0FED
:10204000DD1F8A95E2F7C22BD32BDA6857CF8C2F8E
:102050008F710E941211C82FD0E0DC2FCC27CC2723
:10206000DF71D0624BCF8C2F8F710E94121155E01F
:10207000D695C7955A95E1F7CF70D0E0DC2FCC27E5
:10208000282F30E084FF05C044E0220F331F4A951B
:10209000E1F7C22BD32BD06931CF8D2F8F710E94E6
:1020A0001211182FCE0199270E947010C12FD0E075
:1020B000DC2FCC27CC27DF71C82BD92BD2CF462FD2
:1020C000783030F4663020F4672F0E942F03089593
:1020D00090E080E008950E945F100E943B0F0895F9
:1020E00082389105B9F1B0F48133910509F47DC0CE
:1020F00048F48932910509F46DC08A32910509F4DA
:102100007BC008958533910509F45FC0893391053B
:1021100009F10895833E9105D9F138F4803E910587
:1021200029F1823E910579F10895863E9105D9F114
:10213000873E910509F43EC0843E910541F520910A
:102140000B0321FF24C080910A0384FD19C087EE90
:1021500090E0089520910A03237009F05AC020915D
:102160000B0323FF14C089E290E0089520910A0335
:1021700020FD38C030910B0330FF09C024FF43C05D
:1021800090E080E0089520910A0322FDF7CF0895A2
:1021900020910A0322FD3AC030910B0330FD39C073
:1021A00024FFF5CFEDCF20910A0323FFF0CF24FDCC
:1021B000E7CFCDCF20910A0323FD2EC030910B0332
:1021C00031FFEECF84EE90E0089520910A0325FFC1
:1021D000DECFC9CF20910A0325FD21C020910B033A
:1021E00023FFD5CF89E390E0D2CF20910A0326FFC9
:1021F000CECF8AE290E0089520910A0326FFC7CF50
:1022000081E390E0089583EE90E0089582EE90E0FF
:10221000089580EE90E0089586EE90E0089585E3BD
:1022200090E0089590910A0392FF10C041E0282F9A
:102230002471243009F040E031E0282F2871283043
:1022400009F030E0431711F02CE0822793FF10C013
:1022500041E0282F2471243109F040E031E0282F9B
:102260002871283109F030E0431711F02CE0822763
:1022700030910B0330FF10C051E0282F2171213025
:1022800009F050E041E0282F2871283009F040E0A3
:10229000541711F029E0822731FF10C041E0282FA8
:1022A0002171213109F040E031E0282F28712831D7
:1022B00009F030E0431711F029E0822794FD877E72
:1022C000089580E008950E94990D08950E9461127A
:1022D0002FEF86E791E0215080409040E1F700C069
:1022E00000000E94611280E00E94A61180FF04C0DD
:1022F0000E9463110E94FD2408950E9466110895B2
:102300000E94A00D811102C00E943E0E0E94AB0DE2
:10231000809380020E94B50D90930B0380930A0373
:102320000E947D110E94B00D90E00E944E088091A5
:102330001002909111020E946F08089508950E9462
:102340009E11089508950E94A2110895E82FF0E0CB
:10235000EC5EFC4F80810895089580EA8A95F1F73C
:10236000089500C008950E94AD110895F894E82FD3
:10237000E295EF70F0E031A1282F2F7081E090E01E
:1023800001C0880F2A95EAF7982F9095932391A37F
:1023900092A1892B82A3789408950F931F93CF93D2
:1023A000DF93C4EAD1E089918F3F11F00E94B6110A
:1023B00081E0CC3AD807B9F7CEE9D1E004EA11E0E0
:1023C00089918F3F11F00E94B6110C171D07C1F7BC
:1023D000DF91CF911F910F910895B0E0A0E0E3EF5E
:1023E000F1E10C94052CEC01D62E062F10E0C8016B
:1023F0008C559E4F7C01FC0180818F3F09F444C0C5
:10240000F894E82FE295EF70F0E091A18F7021E051
:1024100030E001C0220F8A95EAF7892F822B81A331
:1024200082A12095282322A378940E94B111EEE97D
:10243000F1E031E0C12C21912F3F59F1A22FA2955B
:10244000AF70B0E090968C9190E02F7002C095959F
:1024500087952A95E2F780FD1CC0832FC82A330F89
:1024600081E0E43AF80739F7F70180818F3F11F0F6
:102470000E94B61161E0C11001C060E08D2D0E9484
:10248000B311C00FD11FC882CDB7DEB7E8E00C94FE
:10249000212C80E0E3CF0E94CD1188E0E4E1F3E05D
:1024A000DF01982F1D929A95E9F7ECE0F3E0DF0148
:1024B0001D928A95E9F788E00E949C120E949F1164
:1024C0000895A8E0B0E0E7E6F2E10C94082C8E0154
:1024D0000F5F1F4F88E0F80111928A95E9F7F12C00
:1024E0006F2DC8010E94ED11F394F8E0FF12F8CFB0
:1024F00048E050E0B8018CE093E00E94D32C21E04A
:10250000009709F420E0892B41F088E0F801ACE065
:10251000B3E001900D928A95E1F748E064E173E041
:102520008CE093E00E949D12182F0E94A311812F2E
:102530002896E5E00C94242C0895CF92DF92EF9238
:10254000FF920F931F93CF936C017B01042F2223E3
:1025500049F081E0809383020E94B224909382022A
:1025600080938102C0918302C1110AC0C0E08C2F08
:10257000CF911F910F91FF90EF90DF90CF90089532
:1025800080918102909182020E94CA24059770F383
:1025900010E0A801B601C7010E94D32C892B41F09D
:1025A000A801B601C7010E94E02C10928302DFCF80
:1025B000C0E0FBCF0E9473260E94B90E0E948026C5
:1025C00008950E9485260E94C80E0E949F260895A5
:1025D0000E9451240E9459260E949A0E0E94DA12EB
:1025E0000E94E1120E94AD0EFBCF9093F101809307
:1025F000F0010895082E000C990B65EB70E00E9425
:10260000672B97FF04C080589109892F089580583F
:102610009F4FFBCF80918A0280FF0DC060910B011C
:1026200070E0660F771F60387105A8F561157105B8
:10263000A1F1862F089581FF08C060910B0170E021
:10264000660F771F660F771FEECF60910B0170E06A
:1026500082FD0BC0809189028823D1F020910A016C
:1026600060910B0170E0821730F043E0660F771F36
:102670004A95E1F7D8CF90E00E94672B33E0880FAE
:10268000991F3A95E1F7622F70E00E94BF2BCBCFE4
:1026900068E070E0CECF8FE7089581E008958091E3
:1026A0008A0280FF0CC06091070170E07595679504
:1026B000759567956115710559F1862F089581FF0C
:1026C00006C06091070170E075956795F3CF609142
:1026D000070170E082FD0CC0609188026623A9F0BA
:1026E000209106018091070190E0621730F0BC0153
:1026F00060387105F8F28FE7089570E00E94672B4B
:10270000622F70E00E94BF2BF3CF61E070E0D5CF65
:1027100081E008958D3C31F40E940A1381958093E5
:102720008E0208958E3C19F40E940A13F8CF8F3C54
:1027300031F40E940A13819580938D020895803DA3
:1027400019F40E940A13F8CF893D29F40E944F130F
:1027500080938F0208958A3D21F40E944F13819542
:10276000F7CF8B3D31F40E944F13819580939002F7
:1027700008958C3D19F40E944F13F8CF9FE2980FF3
:10278000983070F4815D990B21E030E001C0220F98
:102790008A95EAF780918C02822B80938C020895AF
:1027A0008D3D31F480918A02816080938A02089580
:1027B0008E3D21F480918A028260F7CF8F3DB9F778
:1027C00080918A028460F1CF40918D028D3C59F452
:1027D00080918E0287FF0DC010928E0241110BC0B6
:1027E0001092890208C08E3C81F480918E021816E6
:1027F0009CF3442381F080918F0290919002892B69
:1028000009F05AC01092880208958F3C49F447FF9E
:10281000F0CF10928D0280918E028111ECCFE0CF2B
:10282000803D19F41416ACF3E4CF90918F02893DEA
:1028300029F41916F4F610928F02DBCF8A3D19F4B1
:1028400097FFD7CFF8CF909190028B3D29F497FF57
:10285000D0CF10929002CDCF8C3D19F41916CCF345
:10286000C8CF9FE2980F983090F4815D990B21E0DA
:1028700030E0B90102C0660F771F8A95E2F7CB01FD
:10288000809590918C02892380938C02B2CF8D3DEC
:1028900031F480918A028E7F80938A02AACF8E3D86
:1028A00021F480918A028D7FF7CF8F3D09F0A1CF6F
:1028B00080918A028B7FF0CF08950E94B2249C0100
:1028C00090918D0280918E02982B21F03093870297
:1028D0002093860290918F0280919002982B21F094
:1028E00030938502209384028BE892E00E94392382
:1028F000089586E0EBE8F2E0DF011D928A95E9F7A2
:10290000109289021092880210928A020895FC01A6
:10291000828181110EC0838181110BC0848181115C
:1029200008C091E08581811101C090E0892F8170FC
:10293000089581E0FCCFA6E0B0E0E1EAF4E10C9478
:102940000A2C86E0EBE8F2E0DE01119601900D9290
:102950008A95E1F710928D0210928E0210928F02EA
:10296000109290028B819C81892B89F08091860244
:10297000909187020E94CA24FC012091890222239F
:10298000C9F180910C018E171F0608F441C08D819A
:102990009E81892B91F080918402909185020E9402
:1029A000CA24FC0120918802222309F469C0809185
:1029B00008018E171F0608F472C0BE016F5F7F4FBB
:1029C0008BE892E00E94E623811105C08BE892E03B
:1029D0000E94871481110E945D1486E0FE013196E9
:1029E000ABE8B2E001900D928A95E1F72696E3E01C
:1029F0000C94262C80910D0190E06AE070E00E941A
:102A0000672B8E179F0718F62F5F2093890202C04D
:102A10002F3FD1F71B81112351F00E940A136FEF52
:102A200011160CF461E00E945E2B80938D021C81D4
:102A3000112351F00E940A136FEF11160CF461E09C
:102A40000E945E2B80938E0280918D02882309F470
:102A50009ECF10918E02112309F499CF0E94FA1291
:102A6000882351F080938D02812F0E94FA128823CF
:102A700029F080938E028BCF81E0F4CF81E0F9CFF3
:102A80008091090190E06AE070E00E94672B8E1748
:102A90009F0708F092CF2F5F2093880202C02F3F3C
:102AA000D1F71D81112351F00E944F136FEF1116C2
:102AB0000CF461E00E945E2B80938F021E81112333
:102AC00051F00E944F136FEF11160CF461E00E9459
:102AD0005E2B8093900280918F02882309F46DCF42
:102AE00010919002112309F468CF0E94FA128823F2
:102AF00051F080938F02812F0E94FA12882329F0CF
:102B0000809390025ACF81E0F4CF81E0F9CFEF9229
:102B1000FF920F931F93CF93DF93982F71110FC0E4
:102B2000442329F0E82FF0E0E25DFC4F9491692FF7
:102B3000792F892FCDB7DEB7E6E00C94232C262F12
:102B400030E0C72FD0E0E82FF0E0442321F0E25D31
:102B5000FC4FE491F0E0C90166E070E00E94672B51
:102B60000FEF10E0B8010E94AB2BDB01220F331FE7
:102B7000CB0165E570E00E94672B281B390BE22E24
:102B8000EE0CE20EC8018C1B9D0BBF010E94672B4F
:102B9000292FF12CC701BE010E94672B492F50E05D
:102BA000C801841B950BBF010E94672B392FC801F8
:102BB0008E199F09BE010E94672B492F50E0C80162
:102BC000841B950BBF010E94672B892F7E2FA2309B
:102BD000B10589F038F4109759F0119781F0922FD0
:102BE000232F06C0A430B10569F080F01697B9F71D
:102BF000692F822F9FCF9E2F722F282FF9CF9E2FC4
:102C0000732FF6CF922F2E2F782FF2CF722F2E2FD9
:102C1000932FEECF41E00E948715089508950E94FA
:102C20000A160895CF93DF93762FE901682F842F3A
:102C30000E940F16798368838A83DF91CF9108956C
:102C400080911C03982F9E7F29F48170826080936D
:102C50001C0308958635E8F381708465F8CFB0E0F1
:102C6000A0E0E5E3F6E10C94052C88E090E00E94FA
:102C7000F12C6B017C0184E290E00E94E92C282F6A
:102C800030E040E050E060E070E080E090E000E2A2
:102C90000E94322CB22FA32FF42FE52FD62FC72F4F
:102CA00097018601BC29A12BFE295E2F532B2B2FC8
:102CB0003A2F4F2F6D2F7C2FCDB7DEB7E8E00C9465
:102CC000212CB0E0A0E0E7E6F6E10C94012C4901EC
:102CD0005A016B017C010E9420168401A4016A2D17
:102CE0007B2D88E090E00E941F2D94014A2D5B2DE2
:102CF000B601C70100E20E944D2C622F84E290E0F1
:102D00000E940D2DCDB7DEB7ECE00C941D2CECE14C
:102D1000F3E083E0808311828FEF828383831482C8
:102D2000758123E030E04FEF5FEF60E086819781AF
:102D30000E946116089580911C0380FF02C0869551
:102D4000089580E0089590912003933018F49F5FD8
:102D500090932003882391F020911C0330911D0350
:102D600040911E0350911F03609120037091210335
:102D700080912203909123030E946116089581E0BF
:102D80000E94A316089590912003992319F0915061
:102D900090932003882391F020911C0330911D0310
:102DA00040911E0350911F036091200370912103F5
:102DB00080912203909123030E946116089581E07F
:102DC0000E94C316089570E00E9447200895309134
:102DD000120180911C0380FF0DC08091110190E0D1
:102DE00063E070E00E94672B632F8C5D9C4F0E9414
:102DF000E31608952091130140911401822F90E071
:102E000063E070E00E94672BFC01EC5DFC4F24172F
:102E100020F71182108212822F5F3396F8CFA82FED
:102E2000B62F80911C0380FF11C0209113013091B7
:102E30001401822F90E063E070E00E94672BFC0198
:102E4000EC5DFC4F231718F00E94E7160895A1834C
:102E5000B08342832F5F3396F5CFA3E0B0E0E3E386
:102E6000F7E10C940B2C90911C0390FF0AC09E017B
:102E70002F5F3F4F0E9412164B8169818A810E9409
:102E80000F172396E2E00C94272CCF93DF93EC01ED
:102E9000EC81F0E0E755FE4F4491ECE1F3E0628114
:102EA00081810E942D178C818F5F8C83DF91CF9160
:102EB0000895CF93DF93EC01ECE1F3E0438162816D
:102EC0008C810E942D178C818F5F8C83DF91CF9135
:102ED0000895A3E0B0E0EFE6F7E10C94092C8C0133
:102EE0008091910281110AC09E012F5F3F4F4FEFE9
:102EF0006FEF0E9412168A8180939102F80164811B
:102F0000613069F08091910240E0662361F040E019
:102F1000623011F44091910280E060E004C0609161
:102F2000910240E080E00E940F17F801848190E058
:102F3000019663E070E00E94BF2B84832396E4E057
:102F40000C94252CA3E0B0E0E8EAF7E10C94032C04
:102F5000F82ED62EE42EC22E90911C0390FF2EC088
:102F6000E92FE695AE2FB0E0A455BE4F8C9180932B
:102F7000E1029E7F923031F59E012F5F3F4F8F2DF2
:102F80000E9412164B8169818A810E940F17F0926C
:102F90001D03D0921E03E0921F03CC2079F02091F4
:102FA0001C0360912003709121033F2D4D2D5E2D58
:102FB00080912203909123030E9461162396EAE0F8
:102FC0000C941F2C823019F4E0901F03E0CF863060
:102FD00019F4F0901D03DBCF8930D9F38931B9F6AC
:102FE000E9518E2F8170B82EE695F0E0E755FD4F40
:102FF000E491A12C0E2F10E040911501A41618F0B9
:103000000E94E716C4CF2A2D30E0C901B8010E9402
:10301000672B642F70E00E94AB2BEF2DB11014C012
:10302000E60F80911301820F932F911D63E070E0F2
:103030000E94672B9C012C5D3C4F4E2D6D2D8E2FD9
:103040000E941216A394D8CFE61BEBCFECE1F3E07D
:103050009181282F438162818CE0890F0E94A21701
:10306000089581E00E9426180895ECE1F3E0918133
:10307000282F4381628184EF890F0E94A21708954F
:1030800081E00E9435180895ECE1F3E062812CE0C4
:10309000620F08F46FEF282F438181810E94A217ED
:1030A000089581E00E9444180895ECE1F3E0628104
:1030B0002CE0621B08F460E0282F438181810E948C
:1030C000A217089581E00E9455180895ECE1F3E0FD
:1030D00043812CE0420F08F44FEF282F6281818159
:1030E0000E94A217089581E00E9466180895ECE1FD
:1030F000F3E043812CE0421B08F440E0282F62817A
:1031000081810E94A217089581E00E947718089596
:1031100020E00E94A2170895EF92FF921F93CF9391
:10312000DF93EC0110E0EE24EA94F12C30911501CC
:10313000131770F00E94E7169A818C8190FF27C0C8
:103140008F5F8C83DF91CF911F91FF90EF90089557
:1031500080911301810F9927991F63E070E00E940D
:10316000672BFC01EC5DFC4F632F70E0C7010E94F0
:10317000BF2B812F0E945E2B9C819F0140911F03DA
:1031800060911E03890F0E9412161F5FCFCF8150DE
:10319000D8CFB0E0A0E0EFECF8E10C94032CFC01F8
:1031A0008281DFEF80FFD1E0C0E03EE0A32E80917E
:1031B0001501C81798F00E94E71680919302D1304C
:1031C00009F04EC0811102C0809115018150809399
:1031D0009302CDB7DEB7EAE00C941F2C8091130167
:1031E000CC2ED12C8C0D9D2D911D63E070E00E94A2
:1031F000672B8C5D9C4F7C01FC0111821082128236
:1032000004E010E0B12C809193028B0D8F3014F10B
:103210006A2D0E949D2B892F082E000C990BC81631
:10322000D90691F480911F0390E0B8010E94672BAA
:1032300095958795959587959701482F60911E03E1
:1032400080911D030E941216BD0E01501109D9F67E
:10325000CF5FADCF87FFE0CF90911501890FDCCF15
:1032600090E001966091150170E00E94BF2BAFCFF6
:10327000CF932091130130911401822F90E063E0ED
:1032800070E00E94672BFC01EC5DFC4F231720F1DE
:10329000C0E060911501C61728F10E94E716209141
:1032A0000F0180919202820F8093920290911001FF
:1032B000920F90931001191654F4082E000C990BDC
:1032C000409115014150550B841795071CF021952D
:1032D00020930F01CF9108951182108212822F5FE7
:1032E0003396D4CFEC2FF0E070E0CF010E94BF2BDB
:1032F00090911301890F90E020919202022E000C10
:10330000330B63E070E00E94672BE217F307ACF029
:1033100020911001022E000C330B2E173F076CF08A
:103320009C012C5D3C4F40911F0360911E038091D6
:103330001D030E941216CF5FACCFFC01EC5DFC4F69
:10334000118210821282F7CFB0E0A0E0EAEAF9E140
:103350000C94FD2B8C01FC01C481CC2ED12CF12CC2
:10336000E12CA7019601C701B6010E94782BA701A5
:1033700096010E94782B2B013C0130E2C32ED12C08
:10338000CC1AD1080D2C000CEE08FF0825E530E022
:1033900040E050E00E94782B4B015C01A7019601B0
:1033A000C701B6010E94782BA70196010E94782BD5
:1033B0009B01AC01240D351D461D571DC501B401EF
:1033C0000E94D32BD22F822F90E02A3240F563E067
:1033D00070E00E94672B97FD019695958795C82F01
:1033E000C095F12C85E5E82EED1A80911501F816AF
:1033F000E8F00E94E716F801948181E0992319F022
:10340000903219F48FEF80930E0180910E01890F95
:10341000F8018483CDB7DEB7E0E10C94192C25E5E3
:1034200030E0A901481B590BCA01D1CFEE2DF1FCA8
:10343000ED2F809113018F0D9927991F63E070E0A4
:103440000E94672B9C012C5D3C4F4C2F60911E030A
:103450008E2F0E941216F394C8CF0F931F93CF9311
:10346000DF938C01D0E0C0E0309115013C171D06C0
:1034700009F074F40E94E716F801848190E0019647
:10348000817099278483DF91CF911F910F910895C7
:10349000809113018C0F9D2F911D63E070E00E94BD
:1034A000672BAC014C5D5C4FF801948160911E0369
:1034B00080911D0336953C171D0651F04CF0992361
:1034C00049F09A0140911F030E9412162196CCCF19
:1034D0009923B9F39A0140E0F7CFB0E0A0E0E3E729
:1034E000FAE10C94FF2BFC017280648081E08483FC
:1034F000E9EAF1E08490E8E2F2E0E491C0911F0390
:10350000C695C158D0E0CC0FDD1FCD2EDD24912C07
:10351000AA24AA94B12CE8190E2F10E0809115016D
:10352000981638F00E94E716CDB7DEB7EEE00C949F
:103530001B2CE92CF12C82E0871570F0C70165E0A7
:1035400070E00E94672BFC01EC56FD4F80911D033B
:10355000808380911E038183C70165E070E00E9433
:10356000672B611020C0FC01EC56FD4F13821282C4
:10357000809113018E0D9F2D911D63E070E00E94DC
:10358000672B9C012C5D3C4FC70165E070E00E94F9
:10359000672BFC01EC56FD4F4281618180810E94C6
:1035A00012169394BBCFEC01CC56DD4F8B81882350
:1035B00021F181508B8390E06FEF70E00E94672BC8
:1035C0006C8170E00E94AB2BFB01FF27E755FE4F9B
:1035D000E491E8198E2F90E06FEF70E00E94672B66
:1035E000B8010E94AB2B20911F0330E0862F90E0A2
:1035F000B9010E94672B9A83BBCF0E94B62CB501FC
:103600000E94BF2B8C159D050CF0B2CFE2E0E715B0
:1036100088F40E94B62CB5010E94BF2B88830E94BB
:10362000B62C20911E032695622F70E00E94BF2BBE
:10363000280F2983C70165E070E00E94672B8C5634
:103640009D4FFC01128220911F03293C60F028EC61
:10365000C70165E070E00E94672BFC01EC56FD4F4E
:103660002483238385CF243198F724E1F1CFECE143
:10367000F3E020812E7F2083318142815381648158
:103680007581868197810E9461161092E2020E94E4
:10369000E716089560911C03669570E04BE050E0DA
:1036A00086E191E00E94C62C892B19F481E0809379
:1036B000E2020E94B2249093DB028093DA02089522
:1036C00090911C0390FF33C09170811131C09260C2
:1036D00090931C03662391F020911C0330911D03ED
:1036E00040911E0350911F036091200370912103AC
:1036F00080912203909123030E94611660911C0324
:10370000669570E04BE050E086E191E00E94C62CA7
:10371000892BA9F01092E20281E08093DD024091B2
:103720001F0360911E0380911D030E948818089555
:103730008B3210F09465CCCF880F982BC9CF0E94A4
:103740004A1BEACF682F90911C03969581E0890F60
:103750008B3208F081E00E94601B089581E00E9496
:10376000A21B0895682F90911C0396958FEF890FE7
:1037700009F48AE20E94601B089581E00E94B21B56
:10378000089561E00E94601B0895ECE1F3E0808100
:103790008160808386950E94C11B089580911C03DF
:1037A00080FF03C00E94371B08950E94C51B089527
:1037B00060E00E94601B08958091E00281113EC08C
:1037C0000E94A00D811104C00E943E0E0E94871627
:1037D0000E942F1620931C0330931D0340931E0359
:1037E00050931F036093200370932103809322035F
:1037F000909323032E7FA1F40E9487160E942F1618
:1038000020931C0330931D0340931E0350931F030A
:1038100060932003709321038093220390932303EA
:103820000E9420161092E20280911C0380FF03C0C8
:1038300086950E94D81B81E08093E00208950F9343
:103840001F93CF93DF938091E2028823B9F1809197
:10385000E102E0911C03E695E81BE093DC02823074
:1038600091F5F0E0EB55FE4FE491CE2FD0E005E46A
:1038700017E18091DD02882361F01092DD020E9441
:10388000B2249093DB028093DA021092DF0210924E
:10389000DE020E94B224E091DA02F091DB028E1B7C
:1038A0009F0B8F3F9F4750F4EC0FFD1FF093DB02FF
:1038B000E093DA028AED92E0F8010995DF91CF9169
:1038C0001F910F910895863049F4F0E0EE55FE4FB8
:1038D000E491CE2FD0E009E517E1CBCF893051F448
:1038E000E695F0E0E156FE4FE491CE2FD0E00CE8F3
:1038F00018E1BFCF8F3051F4E695F0E0E456FE4F6B
:10390000E491CE2FD0E009EC18E1B3CF853149F432
:10391000F0E0E756FE4FE491CE2FD0E008E319E146
:10392000A8CFC8E2D0E004EA19E1883109F4A1CFB8
:10393000833239F4E7E9F1E0C591D49109E617E162
:1039400098CFC4EFD1E00DE21AE1843209F491CFAF
:10395000C0EDD7E00EE016E1853209F08ACF8E2F58
:1039600063E00E94912BE92FF0E0EC56FE4FE491CA
:10397000CE2FD0E00DE61AE17CCFFA01811101C013
:10398000FB0109950895CF93DF93C82FD62F0E948E
:103990009B168C1748F00E949B168D1728F40E94E6
:1039A000AE1BDF91CF9108958C2F0E94C11BF9CFE0
:1039B0001F93CF93DF93EC01FB011581111110C010
:1039C0000E949F0C8272FE01E052F847E531F1053A
:1039D00008F05EC0E259F24D0C94F52B0E94CE1B0C
:1039E000812FDF91CF911F9108954DEB5BE16EEA3E
:1039F0007BE10E94BD1CF4CF4EEA5BE16DEB7BE105
:103A0000F8CF40E458E161E378E1F3CF41E358E1D6
:103A100060E478E1EECF42E658E161E578E1E9CF94
:103A200041E558E162E678E1E4CF44E858E163E734
:103A300078E1DFCF43E758E164E878E1DACF4FED92
:103A400056E16FEB76E1D5CF4FEB56E16FED76E1C6
:103A5000D0CF81E00E94C11BC3CF65E082E00E940D
:103A6000C31CBECF68E086E0FACF6EE089E0F7CFF6
:103A700064E18FE0F4CF67E185E1F1CF88E1EACF3F
:103A800062E289E1ECCF83E2E5CF6AE285E2E7CF4B
:103A900011E0A6CF86E090E00E94E92C0895682FFF
:103AA00086E090E00E940D2D0895EEE4F3E0808121
:103AB0008470816380830E944F1D089580914E031E
:103AC000869586958695089580914E0381FD07C061
:103AD000826080934E030E944F1D0E94711F0895C3
:103AE00080914E0381FF07C08D7F80934E030E941B
:103AF0004F1D0E947B1F089580914E0381FF03C0DC
:103B00000E94701D08950E94641D089580914E03C7
:103B10008695817008958091210108950E94A00DDD
:103B2000811104C00E943E0E0E94551D0E944A1D34
:103B300080934E03883320F08770806380934E0318
:103B400090914E03892F817090FF04C0892F869534
:103B5000869586950E942B1F089580914E03982F7D
:103B6000969596959695963040F49F5F990F990F8C
:103B7000990F8770892B80934E0380914E0381604B
:103B800080934E030E944F1D80914E03869586952B
:103B900086950E942B1F089580914E03982F987F41
:103BA00079F0885080934E03887F91E009F490E08B
:103BB00080914E0390FB80F980934E030E944F1D2D
:103BC00080914E038695869586950E942B1F0895B9
:103BD00080914E0380FD13C0816080934E0381303D
:103BE00019F489E080934E0380914E030E944F1D8B
:103BF00080914E038695869586950E942B1F089589
:103C000080914E0380FF08C08E7F80934E030E94F8
:103C10004F1D80E00E942B1F089580914E0380FF6E
:103C200003C00E94001E08950E94E81D089590910F
:103C30004E03892F8695869586958F5F8F71977035
:103C40008730E0F4880F880F880F892B80934E030C
:103C500080914E03887F91E009F490E080914E03BB
:103C600090FB80F980934E030E944F1D80914E037C
:103C70008695869586950E942B1F089590934E03F6
:103C8000E7CF873008F086E090914E039770282F99
:103C9000220F220F220F922B90934E03987F21E048
:103CA00009F420E090914E0320FB90F990934E038D
:103CB0000E942B1F08950E94411E80914E030E9476
:103CC0004F1D0895FC01DB0115968C918823F1F0BE
:103CD000F857E730F105D8F4ED57F24D0C94F52B79
:103CE00086E00E945B1E80E0089580E0FACF0E948B
:103CF000CC1DF9CF0E94AD1DF6CF0E940D1EF3CF53
:103D00000E94171EF0CF0E947C1DEDCF81E0089528
:103D10003C9A44980895449A089544980895B0E0D0
:103D2000A0E0E5E9FEE10C94012C8C018091860075
:103D3000909187006CE070E00E94AB2B60177107D8
:103D400058F0C80169E070E00E94AB2BCB01CDB701
:103D5000DEB7ECE00C941D2C8091860090918700DA
:103D6000E0908600F0908700C0908600D090870099
:103D7000C6E0D0E0BE010E94AB2B30E020E0060F91
:103D8000171F211D311D4801590185E0880C991C20
:103D9000AA1CBB1C8A95D1F7C701BE010E94AB2BA0
:103DA000F12CE12CA7019601260F371F411D511D53
:103DB000C501B4010E94D32B69017A01C09186002C
:103DC000D0918700CA01B9010E94782B9E0150E072
:103DD00040E00E94782BA70196010E94782B2FE0EB
:103DE00096958795779567952A95D1F700918600E6
:103DF0001091870030E020E00617170728073907E1
:103E000008F0A4CF60918600709187009FCF1F9229
:103E10000F920FB60F9211242F933F934F935F93FE
:103E20006F937F938F939F93AF93BF93EF93FF9382
:103E30000E948D1EFF91EF91BF91AF919F918F9145
:103E40007F916F915F914F913F912F910F900FBE96
:103E50000F901F901895CF93C82F873078F5811158
:103E60002EC08091880090918900892B51F080911B
:103E70006F008D7F80936F0080916F008E7F8093A5
:103E80006F000E948D1E609186007091870090E007
:103E900080E02C2F30E050E040E00E94782B26E0BC
:103EA00030E040E050E00E94D32BC9010E948F1EF9
:103EB0009093890080938800CF910895C6E0809107
:103EC000880090918900892BF1F680916F008260C3
:103ED00080936F0080916F00816080936F00D3CFDB
:103EE00008951092E5021092E4021092E60281E039
:103EF0008093E30208951092E3020E945E1D0E94E7
:103F00002B1F08950F931F93CF93DF93809122016E
:103F1000823041F08F5F80932201DF91CF911F911A
:103F20000F91089581E0809322010E948B1D182F2C
:103F3000C091E402D091E50221960E948B1D90E091
:103F400068E770E00E94672BBC01CE010E94AB2B9A
:103F50009C019093E5028093E402812F90E068E752
:103F600070E00E94672BBC01660F672F661F770BFE
:103F70007195C9010E94AB2B67FD6FE78091E60246
:103F8000823029F4603439F41092E30204C08130A5
:103F900011F46F37C9F3E62FF0E0E255FD4FC491FD
:103FA00000918600109187000E945E1DD82F6C2F13
:103FB00070E090E080E0980150E040E00E94782BB3
:103FC0002FEF30E040E050E00E94D32BC90166E0C3
:103FD00070E00E94AB2BCB016D2F70E00E94672B2D
:103FE0000E948F1E909389008093880096CF1F9225
:103FF0000F920FB60F9211242F933F934F935F931D
:104000006F937F938F939F93AF93BF93EF93FF93A0
:104010008091E30281110E94821F209188003091DB
:10402000890080918600909187006AEF70E00E947D
:10403000AB2B6B5F7F4F6217730710F40E948B1ED0
:10404000FF91EF91BF91AF919F918F917F916F9170
:104050005F914F913F912F910F900FBE0F901F9046
:1040600018950E94881E82E08093800089E18093E9
:1040700081008FEF9FEF90938700809386000E94CE
:104080008E1D0E94861D81110E94711F08959C0142
:10409000CB013D9A48B14F7DE8B1E062FFB7F8949B
:1040A00063E070E00E94672B820F931F82179307D3
:1040B00041F4FFBF8FE594E00197F1F700C00000E5
:1040C0000895D9015D919D0168E0E8B9000000C044
:1040D00057FF48B9550F000000C000C000C048B9E4
:1040E00000C06A9591F7E2CFCF93DF93EC01FB011B
:1040F0008581882309F4D2C09E01305723323105CF
:1041000008F0B2C00E94B50D90930B0380930A0390
:10411000FE01E150F047E232F10520F4E657F24D9E
:104120000C94F52B80910A03816080930A0393C05D
:1041300080910B03886080930B038DC080910A03EC
:104140008260F3CF80910A038460EFCF80910A03ED
:104150008860EBCF80910B038160EDCF80910B03E2
:104160008260E9CF80910A038061DFCF80910A03EA
:104170008062DBCF80910A038064D7CF0E94010860
:1041800080910A038068D1CF80910A038C60CDCFE3
:1041900080910B038360CFCF80910A038E7FC5CFC0
:1041A00080910B03877FC7CF80910A038D7FBDCF9E
:1041B00080910A038B7FB9CF80910A03877FB5CFA7
:1041C00080910B038E7FB7CF80910B038D7FB3CF90
:1041D00080910A038F7EA9CF80910A038F7DA5CF9E
:1041E00080910A038F7BA1CF0E94010880910A036E
:1041F0008F779BCF80910A03837F97CF80910B03AA
:104200008C7F99CF80910A0382FB992790F921E056
:10421000922790FB82F990FB83F987CF80910B0363
:10422000982F909591708E7F892B90FB81F983CF89
:1042300090910A03892F8F7B96FF806476CF0E942E
:10424000010890910A03892F97FB87F980586DCF59
:1042500081E00E94410E80910A0390910B030E941D
:10426000BA0D0E94010880E0DF91CF91089580E0AF
:10427000F0CF90910A03892F8F7E94FF806155CFF4
:1042800090910A03892F8E7F90FF81604ECF90918D
:104290000B03892F877F93FF88604DCF81E0E4CFA8
:1042A0008FE891E00197F1F700C00000089581E0E8
:1042B0000895FF920F931F93CF93DF9384E0809331
:1042C000EB020BEE11E0C7EED1E0AE01D80121E028
:1042D00030E08D91E82FE295EF70F0E0F1A08F7063
:1042E000B90101C0660F8A95EAF7962F90959F2134
:1042F00091A382A1862B82A3FA018191AF01E82FBD
:10430000E295EF70F0E0F1A08F70B90101C0660F87
:104310008A95EAF7962F90959F2191A382A1862BEB
:1043200082A3F1E0AF3EBF07A1F60E945021609149
:10433000EB0240EF52E0FA018E2F841B861728F023
:10434000CDB7DEB7E5E00C94242CD8012D918D017A
:10435000A22FA295AF70B0E090968C9190E02F7054
:1043600002C0959587952A95E2F781709991A92FBA
:10437000A295AF70B0E090962C9130E09F7002C093
:10438000359527959A95E2F790E020FD92E0892BEC
:104390008193D2CFB0E0A0E0E0EDF1E20C94052CE7
:1043A000F12CE12C84E0C82ED12C8091EB02F81680
:1043B00030F08E2DCDB7DEB7E8E00C94212C0F2D18
:1043C00010E0F801E551FE4F8081E82FE295EF7093
:1043D000F0E0E0A1F0E08F7002C0F595E7958A95D6
:1043E000E2F7E170D801A951BE4F2C91A22FA295FE
:1043F000AF70B0E090968C9190E02F7002C09595D0
:1044000087952A95E2F780FD40C080E08E2BD80189
:10441000A051BD4FEC919E2F93709817A1F1EE0F14
:10442000EE0FE82BEC93EF70F0E0E952FE4FE8015D
:10443000C451DD4F80819881890F888320E08430CA
:104440005CF0F801E951FD4F80818F5F808360E06F
:104450008F2D0E94EB0221E088818D3F5CF4F801F2
:10446000E951FD4F80818150808361E08F2D0E9452
:10447000EB0221E08881082E000C990BB6010E9406
:10448000BF2B8883E22AF39490CF82E0BFCFCF93F3
:10449000DF93EB0186319C4711F50E949F0C9D81B3
:1044A000992399F08A7A91E009F490E09093F402CC
:1044B000811109C089E20E94770C0E94F80C80E00B
:1044C000DF91CF91089585E3F6CF8091F4028111B9
:1044D00004C089E20E947F0CF0CF85E3FBCF81E02E
:1044E000EFCF0F931F93CF93DF93C42FD22FFC01F5
:1044F00085818823C9F04093F7020E94B2249093EB
:10450000F6028093F50280E28C0F883040F4C77089
:1045100081E001C0880FCA95EAF70E94AD05DF91DE
:10452000CF911F910F9108951091F702141332C08B
:104530008091F5029091F6020E94CA24883C910570
:1045400048F5C0E2CD0F1D17B9F080E2810F883029
:1045500040F4177081E001C0880F1A95EAF70E94B5
:10456000B405C83048F481E09D2F977001C0880FD2
:104570009A95EAF70E94AD05802F0E94A405C830E5
:1045800070F6D77081E001C0880FDA95EAF70E94D3
:10459000B405C5CF80E28C0F883008F6C77081E083
:1045A00001C0880FCA95EAF7F2CF0F93DB0188515B
:1045B0009C4787309105A0F5FC01E455F24D0C9421
:1045C000F52B06E221EE41EE6AE17CE7CD010E9487
:1045D000712280E00F91089507E225EE45EE6BE130
:1045E0007CE7F4CF06E221EE40EE68E17CE7EECF17
:1045F00007E225EE44EE69E17CE7E8CF06E221EE32
:1046000042EE6CE17CE7E2CF07E225EE46EE6DE19B
:104610007CE7DCCF08E221E045EE6EE17CE7D6CF17
:1046200015968C91882319F01092F702D3CF81E070
:10463000D1CF9093FD028093FC020895E091FC029B
:10464000F091FD02309729F00190F081E02D09955D
:10465000089580E008950E941E230895E091FC02D1
:10466000F091FD02309721F00280F381E02D099551
:104670000895E091FC02F091FD02309739F022E0BC
:10468000DC012C930480F581E02D09950895A3E0C9
:10469000B0E0EDE4F3E20C940B2C2091FA0230919F
:1046A000FB0228173907A1F09093FB028093FA02CE
:1046B000E091FC02F091FD02309751F023E0298354
:1046C0009B838A830680F781E02DCE0101960995B0
:1046D0002396E2E00C94272CA3E0B0E0E2E7F3E2BB
:1046E0000C940B2C2091F8023091F902281739070D
:1046F000A1F09093F9028093F802E091FC02F0910E
:10470000FD02309751F024E029839B838A83068041
:10471000F781E02DCE01019609952396E2E00C94F5
:10472000272C9C012E5F3F4FAC01485F5F4F80E01C
:104730002417350709F40895F90191919F019923F0
:10474000B9F38F5FF5CF662349F0FC0132960896E6
:104750002191261729F0E817F907D1F780E008958D
:1047600081E008959C01FC0132969FEF80E0419129
:10477000461751F09F3F19F4411101C0982F8F5FE8
:104780008630A9F79F3F09F40895290F311D97FD41
:104790003A95F90162830895FC01329608962191B9
:1047A000261303C0DF0111971C92E817F907B9F728
:1047B00008950E94B22308950E94CC230895029682
:1047C00026E0FC0111922A95E9F70895DC01FB012E
:1047D00011969C9111978181981322C012968C9109
:1047E0001297882319F0928189131AC013968C911D
:1047F0001397882319F09381891312C015968C9111
:104800001597882319F0958189130AC014969C91F5
:10481000992321F081E02481291303C080E001C0A5
:1048200081E08170089508950E94132408958111F4
:1048300006C081E08093FE020E941424089582E065
:10484000F9CF83E08093FE020E94142408950E9411
:104850001724089581E08093FE020E941424089595
:104860000E942A240895089508950E9434240895EA
:10487000089508950E9433240895CF930E94382408
:104880000E9461120E943924C0E08C2F0E94A61160
:10489000811105C0CF5FC830C1F7CF91089581E085
:1048A000FCCF08951F921FB61F9211248F939F93E0
:1048B000AF93BF938091FF02811113C080914F038A
:1048C00090915003A0915103B09152034196A11DC4
:1048D000B11D80934F0390935003A0935103B09365
:1048E0005203BF91AF919F918F911F901FBE1F9058
:1048F000189580915703843031F10E940F04109273
:10490000FF0288E190E020E40FB6F894A895809328
:1049100060000FBE2093600083B7817F846083BFF7
:1049200083B7816083BF7894889583B78E7F83BF78
:104930000FB6F894A895809160008861809360001C
:10494000109260000FBE08950E9401080E94170493
:10495000089582E084BD93E095BD9AEF97BD809362
:104960006E0008952FB7F89480914F0390915003F3
:10497000A0915103B09152032FBF08952FB7F8941F
:1049800060914F03709150038091510390915203B5
:104990002FBF08959C014FB7F89480914F039091D9
:1049A0005003A0915103B09152034FBF821B930B50
:1049B000089578941F921FB61F9211248F939F938E
:1049C000AF93BF9380914F0390915003A0915103F7
:1049D000B09152030196A11DB11D80934F03909396
:1049E0005003A0935103B0935203BF91AF919F9195
:1049F0008F911F901FBE1F90189581E08093E0005B
:104A000080E28093D8001092C9008FE19EE4019764
:104A1000F1F700C0000087E090EBDC0180936003B9
:104A200090936103A0936203B093630388E19CE0D9
:104A30000FB6F894A895809360000FBE9093600025
:104A4000FFCF88E19CE00FB6F894A89580936000B2
:104A50000FBE90936000FFCF8091080308959B01E3
:104A6000BA01909157039430E9F48F708093E90074
:104A70009FEF8091E800915085FD06C085ED8A95F5
:104A8000F1F700009111F5CF8091E80085FF0AC091
:104A900050E040E0C9010E9416278091E8008E771F
:104AA0008093E800089543E050E0BC0182E00E945A
:104AB0002F25089546E050E0BC0182E00E942F259A
:104AC0000895CF93DF93EC0148E050E0BC0181E012
:104AD0000E942F2588E0FE01A0E0B3E001900D9236
:104AE0008A95E1F7DF91CF9108950E942A240895D5
:104AF0006091530381E0611101C080E00E94212494
:104B000008959091570381E0943009F080E060911E
:104B100053030E942724089542E061EC81E00E9443
:104B20001E2842E261EC82E00E941E289091570309
:104B300081E0943009F080E0609153030E941724D3
:104B4000089580915903833009F45FC030F48130B7
:104B5000C1F1823009F49CC008958A3009F488C0FC
:104B60008B3009F46DC0893009F04EC08091580334
:104B7000813209F049C080915C0390915D030297F6
:104B800008F042C08091E800877F8093E800809120
:104B9000E80082FF35C08091F200823031F48091CC
:104BA000F100813011F0863021F48091F100809382
:104BB00008038091E8008B778093E8000E945228D8
:104BC00023C080915803813AF9F48091E800877FEF
:104BD0008093E80080915C0390915D03892B61F4E0
:104BE00068E080E093E070E00E9465278091E80033
:104BF0008B778093E800089560E090E080E0F3CF49
:104C0000809157038111C3CF089580915803813A51
:104C1000D9F780915C0390915D03892BA9F780916E
:104C2000E800877F8093E8008091E80080FFFCCF58
:104C300080912B018093F1008091E8008E77BCCFAA
:104C400080915803813201F780915C0390915D035C
:104C5000892BD1F68091E800877F8093E8000E943D
:104C6000522880915A0380932B010E9401080895D5
:104C700080915803813241F68091E800877F8093CC
:104C8000E8000E94522880915B03809309030895F5
:104C900080915803813A09F0B7CF8091E800877F6F
:104CA0008093E8008091E80080FFFCCF80910903A9
:104CB000C1CF84B7877F84BF0FB6F894A895809141
:104CC0006000886180936000109260000FBE80E8F1
:104CD00090E00FB6F89480936100909361000FBE4E
:104CE0000E94302408950E94A2280E94F528E2EE36
:104CF000F0E080818460808378940E94432B089543
:104D000083E291E00E941923089580915703853032
:104D100031F480915703853019F00E94A42408953E
:104D20000E94792480915503882399F30E943D24A1
:104D3000882379F30E9400270E940108EACF089592
:104D40009A0140915E0350915F030E94A826089546
:104D5000492F55274330510519F168F44130510569
:104D600009F444C04230510509F445C090E080E0A8
:104D700050E040E025C04132510549F14232510531
:104D8000A9F784E490E04EE155E061157105C1F0AA
:104D90008BE790E043EA54E06130710589F0E6CF9B
:104DA00099278130910581F0009729F00297F1F65B
:104DB000EEE2F4E002C0E2E5F4E0849190E0AF01BD
:104DC000F901518340830895E6E4F4E0F6CF89E0E9
:104DD00090E048E654E06115710591F389E090E0B8
:104DE00041E854E06130710559F3C0CF82E190E0B1
:104DF00041E954E0E5CF8BE390E046E554E0E0CFB5
:104E000084E089BD86E089BD09B400FEFDCF8091B4
:104E1000D8008F7D8093D8008091E00082608093DD
:104E2000E0008091E00081FDFCCF0895AF92BF9239
:104E3000CF92DF92FF920F931F93CF93DF936C017A
:104E4000EB018A010E947128F82E811123C00115FF
:104E5000110539F0F80180819181C81BD90BC80E6A
:104E6000D91EB12CA12C2097A9F08091E80085FDD6
:104E700022C08091E8008E778093E800011511052B
:104E8000A1F0F80180819181A80EB91EB182A082A3
:104E900085E0F82E8F2DDF91CF911F910F91FF901C
:104EA000DF90CF90BF90AF9008950E947128882323
:104EB000D1F2F82EEFCFF60181916F018093F100CE
:104EC0002197FFEFAF1ABF0ACECFFC0180915E039E
:104ED00090915F0386179707A0F06115710529F47B
:104EE0009091E8009E779093E80090E0611571053D
:104EF00051F4911108C08091E80082FF32C080E037
:104F00000895BC01F2CF809157038823B1F1853019
:104F1000B1F18091E80083FD2EC08091E80082FD10
:104F2000EACF8091E80080FFE1CF2091F20030E0ED
:104F30006115710519F02830310558F091E02830DD
:104F4000310509F090E02091E8002E772093E800E9
:104F5000CDCF81918093F100615071092F5F3F4F58
:104F6000E7CF80915703882341F0853041F080914D
:104F7000E80083FFC0CF81E0089582E0089583E0D8
:104F80000895FC0180915E0390915F038617970757
:104F9000A0F06115710529F48091E8008E77809367
:104FA000E80090E06115710551F4911108C08091FD
:104FB000E80082FF33C080E00895BC01F2CF809109
:104FC00057038823B9F18530B9F18091E80083FD5A
:104FD0002FC08091E80082FDEACF8091E80080FF39
:104FE000E1CF2091F20030E06115710519F0283011
:104FF000310558F091E02830310509F090E08091BA
:10500000E8008E778093E800CDCF84918093F10003
:105010003196615071092F5F3F4FE6CF8091570362
:10502000882341F0853041F08091E80083FFBFCFB5
:1050300081E0089582E0089583E00895982F9530E7
:1050400028F08F708093E90081E008959093E90043
:10505000242F762F50E0981731F07091EC002091BA
:10506000ED005091F00021FD02C09F5FE8CF30912C
:10507000EB003E7F3093EB003091ED003D7F3093AD
:10508000ED003091EB0031603093EB007093EC0059
:105090002093ED005093F0002091EE0027FDE5CF26
:1050A00080E008958091580387FF13C08091E80045
:1050B00082FF06C08091E8008B778093E80004C0EF
:1050C000809157038111F2CF08958091570388236F
:1050D000D9F38091E80080FFF8CF8091E8008E77C7
:1050E000ECCF2091E4003091E50095E6A9012091F4
:1050F000EC00822F817020FF06C08091E80080FFC5
:1051000006C080E008952091E80022FD1AC0809139
:105110005703882389F0853089F08091EB0085FD65
:105120000FC02091E4003091E50042175307F9F2D7
:105130009150E1F684E0089582E0089583E00895B7
:1051400081E008950E9400290E940329E0EEF0E02A
:10515000808181608083E8EDF0E080818F778083BB
:1051600019BCE3E6F0E080818160808310925603F1
:1051700008950E9400290E9403298091D8008F770A
:105180008093D8008091D80080688093D800809167
:10519000D8008F7D8093D80084E089BD86E089BDEA
:1051A00009B400FEFDCF10925703109253031092E2
:1051B00055031092540342E060E080E00E941E28F4
:1051C0008091E1008E7F8093E1008091E200816018
:1051D0008093E2008091E20088608093E2008091F9
:1051E000E0008E7F8093E0000895E3E6F0E08081A8
:1051F0008E7F808381E0809356030E94B9280895B2
:105200001092E20008951092E10008951F920F920B
:105210000FB60F9211242F933F934F935F936F9389
:105220007F938F939F93AF93BF93EF93FF9380915F
:10523000E10082FF0BC08091E20082FF07C08091F5
:10524000E1008B7F8093E1000E94422B8091E1007E
:1052500080FF19C08091E20080FF15C08091E200BC
:105260008E7F8093E2008091E20080618093E20073
:105270008091D80080628093D80019BC85E080932B
:1052800057030E9478258091E10084FF2BC0809114
:10529000E20084FF27C084E089BD86E089BD89B52E
:1052A000982F917080FFFBCF8091D8008F7D8093E5
:1052B000D8008091E1008F7E8093E1008091E20030
:1052C0008F7E8093E2008091E20081608093E20013
:1052D00080915303882309F443C084E080935703EB
:1052E0000E9481258091E10083FF29C08091E20026
:1052F00083FF25C08091E100877F8093E10082E0F9
:1053000080935703109253038091E1008E7F809326
:10531000E1008091E2008E7F8093E2008091E200C4
:1053200080618093E20042E060E080E00E941E28FD
:105330008091F00088608093F0000E947525FF91B5
:10534000EF91BF91AF919F918F917F916F915F91FD
:105350004F913F912F910F900FBE0F901F90189576
:105360008091E30087FD93E090935703B9CF1F929C
:105370000F920FB60F9211242F933F934F935F9389
:105380006F937F938F939F93AF93BF93CF93DF934D
:10539000EF93FF93D091E900DF708091EC00C82F6C
:1053A000C17080FDC0E81092E9008091F000877F15
:1053B0008093F00078940E94FB291092E90080917C
:1053C000F00088608093F000CD2BCF70C093E9008F
:1053D000FF91EF91DF91CF91BF91AF919F918F910D
:1053E0007F916F915F914F913F912F910F900FBEE1
:1053F0000F901F901895AAE2B0E0E1E0FAE20C9459
:105400000A2C88E593E02091F100FC012193CF0163
:10541000F3E080369F07B9F70E94A1258091E8004C
:1054200083FF1EC180915803909159039A3008F070
:1054300017C1E92FF0E0ED54F24D0C94F52B8038B4
:1054400099F0823809F00CC180915C038F7085302F
:1054500008F006C18093E9008091EB0085FB882766
:1054600080F91092E90006C0809154039091550391
:10547000911182609091E800977F9093E80080936B
:10548000F1001092F1008091E8008E77E5C088234A
:1054900009F4D3C0823009F0E3C080915A0381112E
:1054A000D6C080915C038F702FEF280F243008F056
:1054B000D7C08093E9002091EB0020FFC8C0933053
:1054C00031F48091EB0080628093EB00C0C090913A
:1054D000EB0090619093EB0021E030E001C0220FDF
:1054E0008A95EAF72093EA001092EA008091EB0097
:1054F0008860EACF8111B4C010915A031F77809160
:10550000E3008078812B8093E3008091E800877F1F
:105510008093E8000E9452288091E80080FFFCCF31
:105520008091E30080688093E30082E0111183E0C2
:105530008093570395C08058823008F091C08091C5
:105540005A0390915B038C3D23E09207A1F583E021
:105550008A838AE289834FB7F894DE01139620E0AC
:105560003EE051E2E32FF0E050935700E49120FF3A
:1055700003C0E295EF703F5FEF708E2F90E0EA304E
:10558000C0F0C7968D939D932F5F243159F74FBF7D
:105590008091E800877F8093E8006AE270E0CE01A6
:1055A00001960E9465278091E8008B778093E80040
:1055B00057C0C096E7CF60915C0370915D03AE0168
:1055C0004F5F5F4F0E94A026BC01892B09F448C0A1
:1055D0009091E800977F9093E80089819A810E94DA
:1055E000C127E1CF8038E1F58091E800877F809383
:1055F000E800809153038093F10045CF811130C0C2
:1056000090915A03923060F58091E800877F8093F3
:10561000E800909353030E945228809153038823FB
:1056200011F084E005C08091E30087FDFACF81E0AE
:10563000809357030E948C2513C080915A038130B8
:1056400079F481E0933009F080E080935503109263
:10565000E9008091E800877F8093E8000E9452284B
:105660008091E80083FF0AC08091E800877F8093E3
:10567000E8008091EB0080628093EB00AA96E3E063
:105680000C94262C0895CF93809157038823A1F082
:10569000C091E900CF709091EC00892F817090FD4E
:1056A00080E8C82B1092E9008091E80083FD0E94F9
:1056B000FB29CF70C093E900CF910895002480FDAD
:1056C000060E660F11F08695D1F7802D08950024FF
:1056D000552704C0080E591F880F991F009729F0FD
:1056E00076956795B8F37105B9F7802D952F0895D4
:1056F000EE27FF27AA27BB2708C0A20FB31FE41F6E
:10570000F51F220F331F441F551F969587957795D8
:10571000679598F37040A9F7009799F7BD01CF01FD
:105720000895991B79E004C0991F961708F0961BFD
:10573000881F7A95C9F78095089587FB082E06265D
:1057400087FD819567FD61950E94912B0EF49195DF
:1057500007FC81950895AA1BBB1B51E107C0AA1F36
:10576000BB1FA617B70710F0A61BB70B881F991F02
:105770005A95A9F780959095BC01CD01089597FBA6
:10578000072E16F4009407D077FD09D00E94AB2BAA
:1057900007FC05D03EF4909581959F4F0895709534
:1057A00061957F4F0895A1E21A2EAA1BBB1BFD0134
:1057B0000DC0AA1FBB1FEE1FFF1FA217B307E407F0
:1057C000F50720F0A21BB30BE40BF50B661F771F48
:1057D000881F991F1A9469F7609570958095909528
:1057E0009B01AC01BD01CF010895EE0FFF1F059095
:1057F000F491E02D09942F923F924F925F926F9215
:105800007F928F929F92AF92BF92CF92DF92EF9250
:10581000FF920F931F93CF93DF93CDB7DEB7CA1BD1
:10582000DB0B0FB6F894DEBF0FBECDBF09942A88FC
:10583000398848885F846E847D848C849B84AA84A4
:10584000B984C884DF80EE80FD800C811B81AA8131
:10585000B981CE0FD11D0FB6F894DEBF0FBECDBFFC
:10586000ED010895002E083090F0982F872F762FA5
:10587000652F542F432F322F22270850F4CF220FA9
:10588000331F441F551F661F771F881F991F0A95D6
:10589000B2F7002D089597FD1094002E083098F06F
:1058A0000850232F342F452F562F672F782F892FFD
:1058B000912DF4CF15949795879577956795579582
:1058C0004795379527950A95AAF71124002D089535
:1058D0008F929F92AF92BF92CF92DF92EF92FF9200
:1058E000CF93DF93EC01688179818A819B81611577
:1058F00071058105910521F464E279ED8BE597E06E
:105900002DE133EF41E050E00E94412D49015A0161
:1059100027EA31E440E050E00E94782B6B017C01E3
:105920002CEE34EF4FEF5FEFC501B4010E94782BEE
:10593000DC01CB018C0D9D1DAE1DBF1DB7FF03C04B
:105940000197A109B04888839983AA83BB839F7775
:10595000DF91CF91FF90EF90DF90CF90BF90AF900D
:105960009F908F9008950E94682C089580E091E0A8
:105970000E94682C0895B0E0A0E08093000190930D
:105980000101A0930201B09303010895FC0141506D
:10599000504030F001900616D1F73197CF010895AD
:1059A000882799270895FB01DC0104C08D9101909F
:1059B000801921F441505040C8F7881B990B089575
:1059C000FB01DC0102C001900D9241505040D8F71C
:1059D0000895F999FECF92BD81BDF89A992780B5B7
:1059E0000895A6E1B0E044E050E00C94332DA8E126
:1059F000B0E042E050E00C94332DDC01A40FB51F61
:105A00004150504048F0CB01840F951F2E910E94C9
:105A10000E2D41505040D0F70895262FF999FECF12
:105A200092BD81BDF89A019700B4021639F01FBAF1
:105A300020BD0FB6F894FA9AF99A0FBE089503960E
:105A4000272F0E940E2D0E940D2D252F0E940E2D16
:105A5000242F0C940E2D0196272F0E940E2D0C94AE
:105A60000D2DDC01CB01FC01F999FECF06C0F2BD82
:105A7000E1BDF89A319600B40D9241505040B8F70C
:105A80000895052E97FB1EF400940E94582D57FD93
:105A900007D00E94D32B07FC03D04EF40C94582D52
:105AA00050954095309521953F4F4F4F5F4F08954A
:105AB00090958095709561957F4F8F4F9F4F08957A
:105AC000F894FFCFFA05FA054A064A06AF06CB0658
:105AD00029062906D006410750075007EE1CF51C81
