:100000000C94DE070C9416080C9416080C94160831
:100010000C9416080C9416080C9416080C941608E8
:100020000C9416080C9416080C94FF260C94BB260E
:100030000C9452280C9416080C9416080C9416086C
:100040000C9416080C9404290C9416080C941608A9
:100050000C9479280C942E280C9416080C941608ED
:100060000C9416080C9416080C9416080C94160898
:100070000C9416080C9416080C9416080C94160888
:100080000C9416080C9416080C9416080C94160878
:100090000C9416080C9416080C9416080C94160868
:1000A0000C9416080C9416080C9416080631FF09D7
:1000B00074A1010975150026FF00952075088102BD
:1000C0000976150026FF00952075089102C00501EC
:1000D0000980A101850319012AB700150126B7007F
:1000E000950175108100C0050C0901A10185041955
:1000F000012AA002150126A002950175108100C0F9
:1001000005010906A1018506050719E029E7150083
:1001100025019508750181020507190029EF1500D1
:10012000250195F07501810205081901290595053C
:1001300075019102950175039101C005010906A1A0
:1001400001050719E029E7150025019508750181CA
:10015000029501750881010507190029FF15002680
:10016000FF0095067508810005081901290515008D
:100170002501950575019102950175039101C062F4
:1001800061636B6C69676874206465637265617331
:10019000653A2025750A006261636B6C6967687453
:1001A00020696E6372656173653A2025750A006285
:1001B00061636B6C696768742064697361626C6504
:1001C0000A006261636B6C6967687420656E6162C6
:1001D0006C650A006261636B6C6967687420746F98
:1001E00067676C653A2025750A006261636B6C690C
:1001F00067687420737465703A2025750A0062611F
:10020000636B6C6967687420627265617468696E9B
:10021000672064697361626C650A006261636B6C7C
:100220006967687420627265617468696E672065C9
:100230006E61626C650A006261636B6C6967687409
:1002400020627265617468696E6720746F67676C9D
:10025000653A2025750A007267626C6967687420C8
:1002600064697361626C65205B454550524F4D5D1A
:100270003A207267626C696768745F636F6E666963
:10028000672E656E61626C65203D2025750A0072DF
:1002900067626C6967687420656E61626C65205B7B
:1002A000454550524F4D5D3A207267626C696768F0
:1002B000745F636F6E6669672E656E61626C652040
:1002C0003D2025750A007267626C69676874207446
:1002D0006F67676C65205B454550524F4D5D3A2016
:1002E0007267626C696768745F636F6E6669672EB8
:1002F000656E61626C65203D2025750A00444542AB
:1003000055473A2064697361626C65642E0A004443
:10031000454255473A20656E61626C65642E0A005D
:100320003F00433E20004F6E6573686F743A206152
:1003300063746976653A2025640A000A0025303224
:100340005820006B6579626F6172645F7265706FCF
:1003500072743A200029001E001F00200021002294
:1003600000230000004C002B0014001A00080015A8
:1003700000170000004B00390004001600070009B8
:10038000000A0000004E00E1001D001B00060019DD
:1003900000050000000000E0000000E20000002C6A
:1003A00000215200002A002E002D002700260025E3
:1003B0000024002A0030002F00130012000C001847
:1003C000001C0031000000340033000F000E000D4F
:1003D000000B002800E5003800370036001000113F
:1003E000000500E500E40000000000E60000002C2D
:1003F000000000000006783A003B003C003D003E53
:10040000003F00000005782178237824782578269D
:100410007827780000207801000100010001000128
:1004200000010000000100010001000100010001C5
:1004300000010000000000010000000100000001B8
:10044000000100000001004500440043004200415B
:100450000040000100010001000100010001000155
:1004600000287801000000010001000100010001E6
:100470000001000100010001000100010001000174
:100480000001000100010000000000010000000167
:1004900000000000007267626C696768745F636FD8
:1004A0006E6669672E7370656564203D2025640A59
:1004B000007267626C696768745F636F6E66696714
:1004C0002E76616C203D2025640A007267626C699B
:1004D0006768745F636F6E6669672E736174203D31
:1004E0002025640A007267626C696768745F636FD5
:1004F0006E6669672E687565203D2025640A007266
:1005000067686C696768745F636F6E6669672E6D94
:100510006F6465203D2025640A007267626C69671C
:1005200068745F636F6E6669672E656E61626C6585
:10053000203D2025640A007267626C696768745FF9
:10054000636F6E66696720454550524F4D3A0A0009
:100550007267626C696768745F696E69742072673C
:10056000626C696768745F636F6E6669672E6D6F32
:100570006465203D20302E205772697465206465C3
:100580006661756C742076616C75657320746F207C
:10059000454550524F4D2E0A007267626C6967687C
:1005A000745F696E6974206565636F6E6669672044
:1005B0006973206E6F7420656E61626C65642E0ACB
:1005C000007267626C696768745F696E6974207332
:1005D00074617274210A007267626C696768745F83
:1005E000696E69742063616C6C65642E0A007267C1
:1005F000626C696768742064697361626C65205B12
:100600004E4F454550524F4D5D3A207267626C69BE
:100610006768745F636F6E6669672E656E61626C92
:1006200065203D2025750A007267626C69676874F1
:1006300020656E61626C65205B4E4F454550524FA0
:100640004D5D3A207267626C696768745F636F6EB4
:100650006669672E656E61626C65203D2025750AAE
:100660000073757370656E64696E67206B6579627F
:100670006F6172640D0A000A0025303862003A206A
:100680000025303258000A722F6320303132333463
:100690003536370A001E0F0500047F3F1F643214F1
:1006A000643214783C1E1E140A050A0025303258A4
:1006B000006C65645F7461736B3A20000001010196
:1006C000010101010101020202020202020202030F
:1006D00003030303030303040404040404040505DF
:1006E00005050506060606060707070707080808A2
:1006F00008090909090A0A0A0B0B0B0C0C0C0D0D51
:100700000D0E0E0E0F0F0F101011111112121313E8
:100710001414151516161717181819191A1A1B1B61
:100720001C1D1D1E1E1F20202122222324242526BD
:1007300026272829292A2B2C2D2D2E2F30313232F5
:10074000333435363738393A3B3C3D3E3F40414201
:10075000434445464748494A4C4D4E4F50515354E7
:10076000555658595A5B5D5E5F616264656668699B
:100770006B6C6D6F7072737577787A7B7D7E80821B
:10078000838587888A8C8E8F91939596989A9C9E64
:10079000A0A2A3A5A7A9ABADAFB1B3B5B7BABCBE74
:1007A000C0C2C4C6C9CBCDCFD1D4D6D8DBDDDFE241
:1007B000E4E7E9EBEEF0F3F5F8FAFDFF7267626C3F
:1007C00069676874206D6F6465205B4E4F454550C6
:1007D000524F4D5D3A2025750A007267626C696759
:1007E0006874206D6F6465205B454550524F4D5DC8
:1007F0003A2025750A007267626C69676874207315
:10080000657420687376205B4E4F454550524F4DBE
:100810005D3A2025752C25752C25750A00726762B6
:100820006C696768742073657420687376205B4513
:100830004550524F4D5D3A2025752C25752C257558
:100840000A007267626C69676874207261696E621F
:100850006F7720736574206873763A2025642C25A1
:10086000642C25642C25750A00FFAA7F5540726709
:10087000626C696768742074696D657220656E6169
:10088000626C65642E0A007267626C696768742026
:1008900074696D65722064697361626C652E0A000B
:1008A0002223252628292A2C2D2F3032333536387D
:1008B0003A3B3D3E4042434547494A4C4E505153D6
:1008C0005557595A5C5E6062646668696B6D6F71FA
:1008D000737577797B7D7F81838587898A8C8E90FC
:1008E000929496989A9C9E9FA1A3A5A7A8AAACAE05
:1008F000AFB1B3B4B6B8B9BBBCBEBFC1C2C3C5C645
:10090000C7C9CACBCCCDCED0D1D2D2D3D4D5D6D7ED
:10091000D7D8D9D9DADADBDBDBDCDCDCDCDCDDDD2B
:10092000DDDDDCDCDCDCDCDBDBDBDADAD9D9D8D71B
:10093000D7D6D5D4D3D2D2D1D0CECDCCCBCAC9C7BD
:10094000C6C5C3C2C1BFBEBCBBB9B8B6B4B3B1AFF4
:10095000AEACAAA8A7A5A3A19F9E9C9A9896949294
:10096000908E8C8A89878583817F7D7B797775736B
:10097000716F6D6B6968666462605E5C5A59575549
:100980005351504E4C4A4947454342403E3D3B3A05
:100990003836353332302F2D2C2A2928262523228C
:1009A000000000000000000000000001010203043C
:1009B0000506080A0C0F1114181C2024292E33399F
:1009C0003F464C535B626A7179818A929AA2AAB2BD
:1009D000B9C1C8CFD5DCE1E7EBF0F4F7FAFCFDFED6
:1009E000FFFEFDFCFAF7F4F0EBE7E1DCD5CFC8C180
:1009F000B9B2AAA29A928A8179716A625B534C4613
:100A00003F39332E2924201C1814110F0C0A080614
:100A100005040302010100000000000000000000C6
:100A20006261636B6C696768745F636F6E66696748
:100A30002E7261773A20253032580A2E656E616237
:100A40006C653A2025750A2E6C6576656C3A202512
:100A5000750A006B65796D61705F636F6E666967BB
:100A60002E7261773A20253032580A2E73776170E2
:100A70005F636F6E74726F6C5F636170736C6F63D2
:100A80006B3A2025750A2E636170736C6F636B5F20
:100A9000746F5F636F6E74726F6C3A2025750A2EE7
:100AA000737761705F6C63746C5F6C6775693A2013
:100AB00025750A2E737761705F7263746C5F72675D
:100AC00075693A2025750A2E737761705F6C616CC9
:100AD000745F6C6775693A2025750A2E73776170AB
:100AE0005F72616C745F726775693A2025750A2EB2
:100AF0006E6F5F6775693A2025750A2E737761708E
:100B00005F67726176655F6573633A2025750A2EAB
:100B1000737761705F6261636B736C6173685F624E
:100B200061636B73706163653A2025750A2E6E6B85
:100B3000726F3A2025750A2E737761705F65736353
:100B40006170655F636170736C6F636B3A202575CC
:100B50000A0064656275675F636F6E6669672E720F
:100B600061773A20253032580A2E656E61626C65D5
:100B70003A2025750A2E6D61747269783A202575C0
:100B80000A2E6B6579626F6172643A2025750A2EB0
:100B90006D6F7573653A2025750A006565636F6E24
:100BA0006669673A0A64656661756C745F6C617941
:100BB00065723A2025750A000A092D204D61676982
:100BC00063202D0A443A094465627567204D6573B8
:100BD0007361676520546F67676C650A583A094D01
:100BE0006174726978204465627567204D6F646531
:100BF00020546F67676C65202D2053686F77206BDA
:100C000065797072657373657320696E206D6174A8
:100C100072697820677269640A4B3A094B65796298
:100C20006F61726420446562756720546F67676CFA
:100C300065202D2053686F77206B6579707265731E
:100C400073207265706F72740A4D3A09446562755B
:100C500067204D6F75736520546F67676C650A5622
:100C60003A0956657273696F6E0A533A0953746193
:100C70007475730A433A0941637469766174652037
:100C8000436F6E736F6C65204D6F64650A46312D3E
:100C90004631303A0953776974636820746F204C89
:100CA0006179657220302D392028463130203D2071
:100CB0004C30290A302D393A09537769746368201A
:100CC000746F204C6179657220302D390A4752418A
:100CD00056453A0953776974636820746F204C61F4
:100CE00079657220302028616C7465726E6174655C
:100CF000290A423A094A756D7020746F20426F6F5D
:100D0000746C6F616465720A4553433A094A756DA4
:100D10007020746F20426F6F746C6F616465722015
:100D200028616C7465726E617465290A453A0950D0
:100D300072696E7420454550524F4D20536574744E
:100D4000696E67730A4241434B53504143453A0928
:100D5000436C65617220454550524F4D0A4E3A0929
:100D60004E4B524F20546F67676C650A000A092D7D
:100D700020436F6E736F6C65202D0A4553432F71AE
:100D80003A09717569740A002573000A092D205308
:100D90007461747573202D0A686F73745F6B657965
:100DA000626F6172645F6C65647328293A20253034
:100DB00032580A6B6579626F6172645F70726F742A
:100DC0006F636F6C3A20253032580A6B6579626F19
:100DD0006172645F69646C653A20253032580A6B31
:100DE00065796D61705F636F6E6669672E6E6B7299
:100DF0006F3A20253032580A74696D65725F7265EA
:100E00006164333228293A202530386C580A003F73
:100E1000004E4B524F3A206F66660A004E4B524FBF
:100E20003A206F6E0A000A6D6F7573653A206F661F
:100E3000660A000A6D6F7573653A206F6E0A000AC4
:100E40006B6579626F6172643A206F66660A000AA8
:100E50006B6579626F6172643A206F6E0A000A6D89
:100E600061747269783A206F66660A000A6D61746F
:100E70007269783A206F6E0A000A64656275673A93
:100E8000206F66660A000A64656275673A206F6EB5
:100E90000A000A0A4A756D70696E6720746F2062D5
:100EA0006F6F746C6F616465722E2E2E2000433E4E
:100EB0002000436C656172696E6720454550524F52
:100EC0004D0A004C25640A006164645F6B65795FBC
:100ED0006269743A2063616E2774206164643A2009
:100EE000253032580A0064656C5F6B65795F626912
:100EF000743A2063616E27742064656C3A20253053
:100F000032580A005B435D005B445D005B535D004B
:100F10005B575D005B525D0009025B00030100A0AE
:100F2000FA09040000010301010009211101000177
:100F300022440007058103080001090401000103A0
:100F4000000000092111010001226D000705820344
:100F50002000010904020002030000000921110120
:100F60000001222200070583032000010705030377
:100F700020000112010002000000084B540500018E
:100F800000010200010E034F0053004100200076D3
:100F90000032000000200354006800650020004B70
:100FA0000065007900200043006F006D0070006153
:100FB000006E0079000000040309040011241FBE24
:100FC000CFEFDAE0DEBFCDBF04B603FE18C08091DC
:100FD000E6039091E703A091E803B091E90387301D
:100FE000904BA740B04B59F41092E6031092E703E0
:100FF0001092E8031092E903E0E0F8E3099523E09A
:10100000A6E6B2E001C01D92A63EB207E1F712E0EB
:10101000A0E0B1E0EEEBFFE502C005900D92A63630
:10102000B107D9F70E9406290C94432F0C940000B5
:10103000FF93EF93E0916602F0916702309709F019
:101040000995EF91FF910895FC018591803011F091
:10105000EFDFFBCF0895FF27E0E230E247FF0CC04F
:10106000419597FF09C0EDE2609570958095909548
:10107000611D711D811D911D27FF02C0219530E367
:1010800050E2AA27660F771F881F991FAA1FA4176F
:1010900010F0A41B63955A95A9F7AA3008F0A95F30
:1010A000A05DAF93F395611571058105910541F739
:1010B000ED3211F4EF93F395F21718F43F93F39593
:1010C000FBCF8F91B5DFFA95E1F70895E991F9919A
:1010D0008591803021F0853219F0AADFF9CF08958B
:1010E00020E0E89455915532C1F3503311F46894DF
:1010F00055915A3348F4505390F3220F022E220F89
:10110000220F200D250FF4CF0EF42195899199918E
:10111000533619F3533729F1533559F1BC01882758
:101120009927E8945C3621F48991999168945591B6
:10113000543639F446EF7EF077FF0DC08FEF9FEF06
:101140000AC055374AE039F0583540E121F05236AF
:1011500042E009F00895FF93EF937DDFEF91FF9157
:10116000B7CFFF93EF93FC0181918030B9F360DF3B
:10117000FBCFFF93EF9368DFF1CFDF93CF93CDB732
:10118000DEB72596A3DFCF91DF910895482F2091F8
:10119000DE039091A50357E0291302C080E0089573
:1011A00030E0529FF001539FF00D1124EA55FC4F9F
:1011B0008181681306C08081481303C08581811135
:1011C000EECF2F5F3F4F2770E7CFE8EDF0E0808153
:1011D0008E7F80831092E2001092DA001092E1007C
:1011E000A0EEB0E08C9181608C9380818F778083BA
:1011F00019BCA7EDB0E08C918E7F8C9380818F7E9F
:1012000080831092760308952091E4003091E500E8
:1012100095E6A9012091EC00822F817020FF06C085
:101220008091E80080FF06C080E008952091E800EA
:1012300022FD1AC080919B03882389F0853089F0B4
:101240008091EB0085FD0FC02091E4003091E50016
:1012500042175307F9F29150E1F684E0089582E0D5
:10126000089583E0089581E0089580919D0387FFAC
:1012700013C08091E80082FF06C08091E8008B7760
:101280008093E80004C080919B038111F2CF089500
:1012900080919B038823D9F38091E80080FFF8CFE9
:1012A0008091E8008E77ECCF982F9093E900242F5F
:1012B000762F50E0891731F07091EC002091ED000D
:1012C0005091F00021FD07C09F5F973071F7809328
:1012D000E90081E008953091EB003E7F3093EB0010
:1012E0003091ED003D7F3093ED003091EB003160A7
:1012F0003093EB007093EC002093ED005093F000DE
:101300002091EE0027FDE0CF80E00895B0E0A0E05E
:10131000ECE8F9E00C94AF2DC8EDD0E088818F7E29
:101320008883E7EDF0E080818160808384E082BF84
:1013300081E08093760388818E7F888302EE10E0BF
:10134000F80110821092DA0081EEC82ED12CF6013D
:10135000108288818F7788838881806888838881DC
:101360008F7D888319BC10929B0310929C0310926E
:101370009A031092990390EEE92EF12CF7018081E7
:101380008B7F808388818160888342E060E080E099
:101390000E945409F60180818E7F8083F80180814C
:1013A00081608083808188608083F70180818E7F67
:1013B0008083888180618883CDB7DEB7E8E00C94B4
:1013C000CB2DFC018091A3039091A403861797076E
:1013D000A0F06115710529F49091E8009E77909333
:1013E000E80090E06115710551F4911108C08091F9
:1013F000E80082FF34C080E00895BC01F2CF809104
:101400009B038823C1F18530C1F18091E80083FD01
:1014100030C08091E80082FDEACF8091E80080FF33
:10142000E1CF8091F3002091F200382F6115710512
:1014300019F02830310558F091E02830310509F0D5
:1014400090E02091E8002E772093E800CBCF8191A7
:101450008093F100615071092F5F3F4FE7CF80917A
:101460009B03882341F0853041F08091E80083FFA1
:10147000BECF81E0089582E0089583E00895089545
:1014800008958091780308952FB7F8948091DF0331
:101490009091E003A091E103B091E2032FBF089582
:1014A000A3E0B0E0E6E5FAE00C94B52D20916D03E1
:1014B00030916E0328173907A1F090936E03809343
:1014C0006D03E0916B03F0916C03309751F024E0D1
:1014D00029839B838A830680F781E02DCE010196C4
:1014E00009952396E2E00C94D12DA3E0B0E0EBE760
:1014F000FAE00C94B52D2091690330916A03281706
:101500003907A1F090936A0380936903E0916B031C
:10151000F0916C03309751F023E029839B838A83F9
:101520000680F781E02DCE01019609952396E2E031
:101530000C94D12DE0916B03F0916C03309729F05E
:101540000190F081E02D0995089580E00895B0E0C4
:10155000A0E0EDEAFAE00C94AB2D8C0180918600BE
:10156000909187006CE070E00E94682D6017710711
:1015700058F0C80169E070E00E94682DCB01CDB73A
:10158000DEB7ECE00C94C72D809186009091870027
:10159000E0908600F0908700C0908600D090870091
:1015A000C6E0D0E0BE010E94682D30E020E0060FCA
:1015B000171F211D311D4801590185E0880C991C18
:1015C000AA1CBB1C8A95D1F7C701BE010E94682DD9
:1015D000F12CE12CA7019601260F371F411D511D4B
:1015E000C501B4010E94122F69017A01E0918600C1
:1015F000F0918700CA01B9010E943E2D9B01AC0108
:10160000DF010E94FF2E9B01AC01C701B6010E94C1
:101610003E2D2FE096958795779567952A95D1F77A
:10162000009186001091870030E020E00617170730
:101630002807390708F0A2CF6091860070918700D3
:101640009DCF843048F5811128C0209188003091C9
:101650008900232B51F090916F009D7F90936F0034
:1016600090916F009E7F90936F005E98A09186008E
:10167000B0918700282F30E00E94342F23E030E023
:1016800040E050E00E94122FC9010E94A70A9093E7
:10169000890080938800089583E02091880030912C
:1016A0008900232B19F790916F00926090936F003F
:1016B00090916F00916090936F00D8CF282F220FE8
:1016C000220F220F909163039770922B90936303E4
:1016D000987F21E009F420E09091630320FB90F9CA
:1016E000909363030E94210B0895FA01811101C0B8
:1016F000FB010995089580915B03982F9E7F29F443
:101700008170826080935B0308958635E8F3817071
:101710008465F8CFAF92BF92DF92EF92FF920F9362
:101720001F93CF93DF93082F162FE901E42FF0E0EA
:10173000E454F94F611110C0E4915E2F4E2F49839C
:10174000E8835A83DF91CF911F910F91FF90EF9023
:10175000DF90BF90AF900895E62EF12C4491D42EE7
:10176000E42FF0E026E0829FC00111242FEF30E04B
:10177000B9010E94682D802F90E0880F991F55E5D0
:10178000569FD001579FB00D11248A1B9B0B982F99
:10179000990F890F5901AE18BF08AE9ED001AF9EB8
:1017A000B00DBE9EB00D11245B2F189F8001112437
:1017B000012F11275901A01AB10AAE9E8001AF9ED8
:1017C000100DBE9E100D11245901A81AB108AE9C2F
:1017D000C001AF9C900DBE9C900D1124892F9927BC
:1017E000281B390B2E9FC0012F9F900D3E9F900DFF
:1017F0001124E92F62307105A1F050F461157105D3
:1018000009F49DCF6130710581F0EB2F512F97CFF7
:101810006430710569F080F06630710509F48FCF8E
:10182000F4CFE42F4B2F592F8ACFE42F412F87CFAE
:10183000EB2F542F492F83CF4B2F5D2DE12F7FCFDF
:10184000F894E82FE295EF70F0E031A1282F2F7087
:1018500081E090E001C0880F2A95EAF7982F9095D3
:10186000932391A392A1892B82A3789408959091B8
:10187000710392FF10C041E0282F2471243009F039
:1018800040E031E0282F2871283009F030E043177C
:1018900011F02CE0822793FF10C041E0282F247123
:1018A000243109F040E031E0282F2871283109F077
:1018B00030E0431711F02CE082273091720330FFA3
:1018C00010C051E0282F2171213009F050E041E093
:1018D000282F2871283009F040E0541711F029E032
:1018E000822731FF10C041E0282F2171213109F0FA
:1018F00040E031E0282F2871283109F030E043170B
:1019000011F029E0822794FD877E089582389105A1
:10191000B9F1B0F48133910509F47DC048F48932FE
:10192000910509F46DC08A32910509F47BC00895D0
:101930008533910509F45FC08933910509F1089554
:10194000833E9105D9F138F4803E910529F1823E1C
:10195000910579F10895863E9105D9F1873E91056B
:1019600009F43EC0843E910541F52091720321FFA8
:1019700024C08091710384FD19C087EE90E0089522
:1019800020917103237009F05AC02091720323FF44
:1019900014C089E290E008952091710320FD38C0C1
:1019A0003091720330FF09C024FF43C090E080E013
:1019B00008952091710322FDF7CF089520917103BE
:1019C00022FD3AC03091720330FD39C024FFF5CFBB
:1019D000EDCF2091710323FFF0CF24FDE7CFCDCFD2
:1019E0002091710323FD2EC03091720331FFEECFA1
:1019F00084EE90E008952091710325FFDECFC9CFDA
:101A00002091710325FD21C02091720323FFD5CFC2
:101A100089E390E0D2CF2091710326FFCECF8AE2F6
:101A200090E008952091710326FFC7CF81E390E0F5
:101A3000089583EE90E0089582EE90E0089580EEA0
:101A400090E0089586EE90E0089585E390E0089593
:101A50007A30C8F46830B8F48230C0F4E72FF0E090
:101A60009AE0899FE00DF11D112483E0EE0FFF1F26
:101A70008A95E1F7E60FF11DEE0FFF1FEB5AFC4FC1
:101A800085919491089580E090E0089581E0FCCFE5
:101A90001F93CF93DF930E94860CEC01C11580E564
:101AA000D807F0F5C11580E4D80708F09CC0C03E07
:101AB000D10520F5CD3CD10508F082C0C83AD1054A
:101AC00078F4C53AD10508F073C0C130D10519F1D9
:101AD000209709F1C430D105F0F4D0E0C0E01BC07C
:101AE000C33CD105D0F7C85AD0E0CC0FDD1FCC5194
:101AF000DE4F0990D881C02DD4640DC0C11580E29D
:101B0000D80708F0D1C0C11581E0D80708F05AC045
:101B1000C83ED10510F7CE01DF91CF911F910895F6
:101B2000C03682E5D80718F5C03482E5D80708F03A
:101B30006BC0C03282E5D80708F05FC0C11582E5EE
:101B4000D80708F497C02C2F2695269580E2289F69
:101B5000900111248C2F8370C1E0D0E002C0CC0F23
:101B6000DD1F8A95E2F7C22BD32BDD68D4CFC03AB4
:101B700082E5D80760F4C03882E5D80708F459C078
:101B8000CF71D0E0DC2FCC27C46FD06AC4CFC03C6B
:101B900082E5D80708F462C0C03E82E5D80708F0A5
:101BA0009CCFDC2FCC27CC27DF71C06FD06AB3CF9E
:101BB000C55AD0E0CF51DE4FC881D0E0D064ABCF62
:101BC000D065A9CF8D2F0E94370C182FCE019927F1
:101BD0000E94860CC12FD0E0DC2FCC27CC27DF71F0
:101BE000C82BD92B98CFCE0199270E94860CCC27E1
:101BF000DF70C82BD92BD06A8ECFCF71D0E0DC2F0D
:101C0000CC27C16FD06A87CF2C2F269526952770B9
:101C100080E2289F900111248C2F8370C1E0D0E0D6
:101C200002C0CC0FDD1F8A95E2F7C22BD32BDC68F4
:101C300072CF2C2F26952695277080E2289F900141
:101C400011248C2F8370C1E0D0E002C0CC0FDD1FC7
:101C50008A95E2F7C22BD32BDA685DCF8C2F8F7178
:101C60000E94370CC82FD0E0DC2FCC27CC27DF71A7
:101C7000D06251CF8C2F8F710E94370C55E0D695D2
:101C8000C7955A95E1F7CF70D0E0DC2FCC27282FED
:101C900030E084FF05C044E0220F331F4A95E1F78E
:101CA000C22BD32BD06937CF8D2F8F710E94370C69
:101CB000182FCE0199270E94860CC12FD0E0DC2F6F
:101CC000CC27CC27DF71C82BD92BD2CF8095909110
:101CD000DC0298239093DC0208958091DE039091BA
:101CE000A503981301C008958F5F8770FACFB0E005
:101CF000A0E0EDE7FEE00C94AE2D7C010091EE0239
:101D00001091EF028091DD029091DE02082B192BD9
:101D1000CFE0D0E0CC24C394D12CBC2EC6010C2E35
:101D200002C0880F991F0A94E2F780239123892B20
:101D300049F4219790F7B12C8B2DCDB7DEB7E9E0B0
:101D40000C94CA2DB7018C2F0E94280D0E94480DBB
:101D5000019779F3F1CFCF93DF93EC010E94770ED7
:101D6000BE010E94280D0E94480DDF91CF91089579
:101D70009A3070F5883060F528E0929FF0011124C8
:101D8000E80FF11D6E2F677083E0F695E7958A9551
:101D9000E1F7EE0FFF1FEE0FFF1FE657FD4F50E07C
:101DA00040E080E0219130E0062E02C03695279574
:101DB0000A94E2F721703327042E01C0220F0A94FF
:101DC000EAF7822B4F5F5F4F4430510559F7089572
:101DD00080E008959A3090F5883080F528E0929F51
:101DE000F0011124E80FF11D2E2F277041E001C0F2
:101DF000440F2A95EAF783E0F695E7958A95E1F78F
:101E0000EE0FFF1FEE0FFF1FE657FD4F30E020E003
:101E100070E05191DF011197CB01022E02C096951F
:101E200087950A94E2F78170819585278423852719
:101E30008C932F5F3F4F2430310559F708959093CD
:101E4000EF028093EE02089521E030E002C0220FFD
:101E5000331F8A95E2F7209530958091EE0290919C
:101E6000EF02822393230E941F0F08959091B902DD
:101E7000809589238093B902282F277069F48917E8
:101E800059F09091720392FF07C0869586958695CA
:101E90000E94240F1092B902089521E030E002C0A0
:101EA000220F331F8A95E2F78091EE029091EF02A4
:101EB000822B932B0E941F0F08959093DE02809334
:101EC000DD020895FC0124812223C1F080819181EB
:101ED0000E94AB0E92959F70963091F058F4925FED
:101EE0009F70923058F4803F19F030F4883E30F4FF
:101EF00081E008959A5FF4CF843FD1F380E00895A4
:101F0000883EB0F3813FD1F7F3CF829590E09C01FA
:101F1000220F331F220F331F2C7C959587959595A3
:101F200087958373282B30E0C901880F991F8A7A1F
:101F3000359527952575822B0895A6E0B0E0E3EA54
:101F4000FFE00C94B42D49835A8349815A81992327
:101F5000A1F0222391F0CA010E94770E182F682F5A
:101F600089819A810E94EA0E69817A81812F0E947B
:101F7000280D2696E3E00C94D02DCA010E94B80EDD
:101F8000182FF2CF80FF09C0479A81FF08C0469AF8
:101F900082FF07C02E9A81E008954798F6CF4698B1
:101FA000F7CF2E98F8CF9FB7F894109274039FBF85
:101FB00090919B03943009F048C02091E9002F7064
:101FC0003091EC00932F917030FD90E8922B23E03C
:101FD0002093E9002091EB0020FF34C02091EE0017
:101FE00027FF30C020917303222321F02091E800C5
:101FF00025FF28C01092730326E03091E80035FFDA
:1020000014C08093F1008091E80085FD27C0809185
:10201000E80080FFFCCF8091E8008E778093E80095
:102020009F709093E90080E0089530919B033430D5
:1020300049F43091EB0035FD05C0215041F481E0B9
:10204000809373039F709093E9008FEF0895EFE9F9
:10205000FFE03197F1F700C00000CFCF8FB7F894C1
:1020600021E0209374038FBFDBCF0F931F93CF9397
:10207000DF938B01EA0190919B03943061F580938B
:10208000E9008FEF9091E800815095FD06C095ED35
:102090009A95F1F700008111F5CF8091E80085FF56
:1020A0001AC00E940409811111C08091E80085FDC9
:1020B00006C08091E8008E778093E800F2CFF801A7
:1020C00081918F018093F100219779F78091E80049
:1020D0008E778093E800DF91CF911F910F91089543
:1020E00043E050E0BC0182E00E9435100895CF9398
:1020F000DF93EC0180911B01811111C048E050E099
:10210000BE0181E00E94351080E2FE01A9E7B3E044
:1021100001900D928A95E1F7DF91CF91089580911A
:10212000710387FF05C040E282E050E0BE01EACFC4
:1021300048E081E0FACF81E08093E00080E2809384
:10214000D8001092C9008FE19EE40197F1F700C01A
:10215000000087E090EBDC018093E6039093E703B7
:10216000A093E803B093E90388E19CE00FB6F894EC
:10217000A895809360000FBE90936000FFCF809180
:102180005B0380FD0AC0E3E1F3E01182108212825A
:10219000339653E0EE32F507C1F7549A3BB13F7ED8
:1021A0002BB120614FB7F89483E193E0FC0151918A
:1021B000CF0168E02BB9000000C057FF3BB9550FB5
:1021C000000000C000C000C03BB900C06A9591F794
:1021D000F3E08E329F0751F74FBF8FE594E00197F0
:1021E000F1F700C000000895EF92FF920F931F9344
:1021F000CF93DF938C01C3E1D3E0F12CE12CF80104
:10220000948160915D0380915C03F4E0EF16F1042A
:10221000ECF49923E9F09E0140915E030E948A0B41
:102220002FEFE21AF20A239689E0E816F10439F753
:102230000E94BF10F801848190E001968170992777
:102240008483CDB7DEB7E6E00C94CD2D992319F346
:102250009E0140E0E3CFB0E0A0E0E1E3F1E10C94C7
:10226000AB2DEC014C81042F10E09801D8010E94A5
:10227000342F9B01AC010E94FF2E4B015C01E0E278
:10228000F0E0E01BF10BA5E5B0E0AC019B010E9482
:10229000FF2E6B017C019F01DF010E94962D9B01A7
:1022A000AC010E940A2F9B01AC01280D391D4A1D6B
:1022B0005B1DC701B6010E94122FF22E822F90E003
:1022C00039E23F1598F143E0249F900111243595A0
:1022D0002795122F109593E1C92E93E0D92E00E097
:1022E00085E5E82EEF188E2D01FD8F2D9601412FEB
:1022F00060915D030E948A0B0F5F53E0C50ED11CF5
:10230000093089F70E94BF109C8181E0992319F060
:10231000903219F48FEF8093190180911901890F80
:102320008C83CDB7DEB7ECE00C94C72D25E530E00B
:10233000A901481B590BCA019A01220F331F280F0C
:10234000391F37FFC4CF2F5F3F4FC1CF0F931F936C
:10235000CF93DF93C3E1D3E0FE011182108212829A
:10236000339683E0EE32F807C1F710E000E0809189
:102370001103082E000C990B081719078CF1809196
:102380001801082E000C990B801791074CF19E0143
:1023900040915E0360915D0380915C030E948A0B13
:1023A0000F5F1F4F23960930110509F70E94BF10D8
:1023B0008091170190911103980F90931103209130
:1023C0001801280F20931801121614F498301CF0ED
:1023D000819580931701DF91CF911F910F910895FF
:1023E000198218821A82DCCFB0E0A0E0EAEFF1E1B6
:1023F0000C94AE2DFC018281DD24DA9480FD02C0B4
:10240000DD24D39403E113E0D0E0C0E029E0B22E54
:10241000F80111821082128294E0E92EF12CC12C75
:10242000809110038C0D8A30C4F16B2D0E945A2DBF
:10243000892F082E000C990B8C179D0791F4809121
:102440005E038E9DA0018F9D500D112455954795DB
:1024500055954795980160915D0380915C030E94BA
:102460008A0BCD0CF1E0EF1AF108D1F621960D5F41
:102470001F4FC930D10561F60E94BF108091100333
:1024800091E0D91210C081110CC088E08093100334
:10249000CDB7DEB7E9E00C94CA2D87FFCACF875FBE
:1024A000C8CF8150F3CF90E00196BE010E947C2DF1
:1024B000EDCFEF92FF921F93CF93DF93EC0183E177
:1024C000E82E83E0F82E10E08C81970140915E03A6
:1024D00060915D03810F0E948A0B145E83E0E80E19
:1024E000F11C1C3F89F70E94BF109A818C8190FFDC
:1024F00008C08F5F8C83DF91CF911F91FF90EF9089
:1025000008958150F7CF90915B0390FF0CC0E3E1F9
:10251000F3E0818360834283339693E0EE32F907E0
:10252000C1F70E94BF100895A3E0B0E0EAE9F2E12C
:102530000C94B32D8C018091120381110AC09E016D
:102540002F5F3F4F4FEF6FEF0E948A0B8A8180937E
:102550001203F8016481613069F08091120340E058
:10256000662361F040E0623011F44091120380E094
:1025700060E004C06091120340E080E00E9483129A
:10258000F801848190E0019663E070E00E947C2D68
:1025900084832396E4E00C94CF2DA3E0B0E0E3ED38
:1025A000F2E10C94B52D90915B0390FF0AC09E015F
:1025B0002F5F3F4F0E948A0B4B8169818A810E9465
:1025C00083122396E2E00C94D12DCF93DF93EC019C
:1025D000EBE5F3E0438162818C810E94CD128C8116
:1025E0008F5F8C83DF91CF910895CF93DF93EC01C0
:1025F000EC81F0E0E056F74F4491EBE5F3E06281C7
:1026000081810E94CD128C818F5F8C83DF91CF916D
:10261000089520911B01222351F12091710327FF7E
:1026200026C0E62FE695E695E695EE3178F4E80FBC
:10263000F92FF11D677021E030E001C0220F6A958B
:10264000EAF72095828128232283089580916F03E1
:1026500080FF19C01F926F9386EE9EE09F938F9329
:102660000E94BD080F900F900F900F900895FC01ED
:10267000329608962191621303C0DF0111971C92D4
:10268000E817F907B9F7089520911B01222349F1B2
:102690002091710327FF25C0E62FE695E695E69584
:1026A000EE3170F4E80FF92FF11D677021E030E092
:1026B00001C0220F6A95EAF78281822B82830895F6
:1026C00080916F0380FF1EC01F926F9388EC9EE085
:1026D0009F938F930E94BD080F900F900F900F90C3
:1026E0000895FC0132962FEF30E04191641751F0CC
:1026F0002F3F19F4411101C0232F3F5F3630A9F756
:102700002F3F09F40895820F911D27FD9A95FC0132
:102710006283089510920F0380916F0380FF08C0B9
:1027200087E898E09F938F930E94BD080F900F90C9
:102730000895682F86E090E00E94AC2E0895B0E0E6
:10274000A0E0E5EAF3E10C94A72DFC01628044804F
:1027500081E08483E0EAF8E07490EFE1F9E0E4914D
:1027600000915E030695015810E0000F111F012F24
:102770001127CEE2D3E023E1C22E23E0D22E3BE5A7
:10278000832E33E0932EAA24AA94B12C55245A9474
:10279000E719EE2EF12C82E0861530F080915C0373
:1027A000888380915D038983411016C01B821A8241
:1027B00096014A81698188810E948A0B259683E06F
:1027C000C80ED11C8C169D0631F70E94BF10CDB7E4
:1027D000DEB7E0E10C94C32D8B818823E9F08150B2
:1027E0008B83859DC00111246C8170E00E94682D4F
:1027F000FB01FF27E056F74F8491E82FE719E59D8D
:10280000C0011124B7010E94682D80915E03689F6A
:10281000B00111247A83CCCF0E945E2EB5010E94B4
:102820007C2D8017910724F682E0861588F40E949B
:102830005E2EB5010E947C2D88830E945E2E209121
:102840005D032695622F70E00E947C2D280F29835E
:102850001A8280915E03893C20F088EC8C838B8304
:10286000A7CF8431D8F784E1F9CF60915B036695F7
:1028700070E04BE050E08CE091E00E946E2E892BDE
:1028800019F481E080930F030E94440A9093090396
:102890008093080380916F0380FF08C08EE698E064
:1028A0009F938F930E94BD080F900F900895B0E002
:1028B000A0E0EDE5F4E10C94AB2D49015A016B0168
:1028C0007C010E947B0B8401A4016A2D7B2D88E092
:1028D00090E00E94BE2E94014A2D5B2DB601C701E7
:1028E00000E20E94F72D622F84E290E00E94AC2E5D
:1028F000CDB7DEB7ECE00C94C72DA7E0B0E0E3E87D
:10290000F4E10C94A52D582E262E442E2F83909161
:102910005B0390FF4CC0E92FE695AE2FB0E0A45DBD
:10292000BD4F8C9180930E039E7F923009F043C07F
:102930009E012F5F3F4F852D0E948A0B4B8169813D
:102940008A810E94831250925C0320925D03409220
:102950005E038F81882309F491C020915B0360910D
:102960005F0370916003352D422D542D80916103DA
:10297000909162030E94571480916F0380FF17C0EB
:1029800080915E031F928F9380915D031F928F93BE
:1029900080915C031F928F938DE198E09F938F93BA
:1029A0000E94BD080FB6F894DEBF0FBECDBF2796BC
:1029B000E2E10C94C12D823019F440905E03C3CF44
:1029C000863019F450905C03BECF8930D9F3893139
:1029D00009F0B9CFE9518E2F81708D838E2F8095AC
:1029E00081708E83E695F0E0E759F74F94919C83D0
:1029F000692E712C83E1E82E83E0F82ED12CC12CB6
:102A000010E000E099E0892E912C22E4A22E28E02B
:102A1000B22EC601B4010E94682D8D81352C811122
:102A20002BC0360E80916F0380FF13C01F929C81D4
:102A30009F931F928E818F931F923F921F930F93AC
:102A4000BF92AF920E94BD080FB6F894DEBF0FBED2
:102A5000CDBF9701442D622D832D0E948A0B0F5FFD
:102A60001F4FC60CD71C93E0E90EF11C093011056D
:102A700081F60E94BF1067CF361AD4CF80916F03C2
:102A800080FF95CF1F924F921F922F921F925F92BD
:102A900086EF97E083CFEBE5F3E0438121E1421B32
:102AA00008F440E021E0628181810E947D14089554
:102AB000EBE5F3E0438121E1420F08F44FEF21E021
:102AC000628181810E947D140895EBE5F3E06281CB
:102AD00021E1621B08F460E021E0438181810E94D2
:102AE0007D140895EBE5F3E0628121E1620F08F4C3
:102AF0006FEF21E0438181810E947D140895EBE511
:102B0000F3E0818121E04381628188500E947D143D
:102B10000895EBE5F3E0818121E043816281885FE4
:102B20000E947D14089580915F03882319F08150DD
:102B300080935F0320915B0330915C0340915D03C0
:102B400050915E0360915F03709160038091610317
:102B5000909162030E945714089580915F0383301F
:102B600018F48F5F80935F0320915B0330915C03C7
:102B700040915D0350915E0360915F03709160032B
:102B800080916103909162030E945714089590917F
:102B90005B0390FF48C09170811146C09260909392
:102BA0005B0320915B03662309F445C030915C030D
:102BB00040915D0350915E0360915F0370916003EB
:102BC00080916103909162030E94571480916F037A
:102BD00080FF0FC080915B0386951F928F938AEDD3
:102BE00097E09F938F930E94BD080F900F900F90D6
:102BF0000F9060915B03669570E04BE050E08CE0D5
:102C000091E00E946E2E892B01F10E948A1381E0CF
:102C100080930B0320E040915E0360915D038091FF
:102C20005C030E947D1408958B3210F09465B7CF39
:102C3000880F982BB4CF80916F0380FFDACF269551
:102C40001F922F938CEB97E0CCCF0E943514DFCFEF
:102C500080915B038695815009F48AE261E00E94CD
:102C6000C715089580915B0386958F5F8B3208F0BE
:102C700081E061E00E94C715089590915B0390FF89
:102C800008C09695981728F0961718F40E943216E7
:102C9000089561E00E94C7150895EBE5F3E083E035
:102CA000808311828FEF828383831482758123E076
:102CB00030E04FEF5FEF60E0868197810E9457140C
:102CC0000895CF93C82F8091720382FB992790F9C2
:102CD0009C17F9F0C0FB82F9809372036091710335
:102CE0007091720384E090E00E94CA2E82E00E94FC
:102CF000360F80916F0380FF0CC01F92CF9386E246
:102D000093E09F938F930E94BD080F900F900F90B8
:102D10000F90CF9108950F931F93CF93DF938091DE
:102D2000DC029091DB02892B809368029091DA0299
:102D30009923B1F0892B8093680280911B0188232D
:102D400009F46FC08091710387FF6BC08EE1EAE6E2
:102D5000F2E090E0815008F066C091111092DA0222
:102D600040E250E06AEB72E088E692E00E947B2E3F
:102D7000892B09F451C080E2E8E6F2E0AAEBB2E068
:102D800001900D928A95E1F7E0916B03F0916C034D
:102D9000309709F441C080911B01882359F080913C
:102DA000710387FF07C0809168028093690286E003
:102DB000809368020280F381E02D88E692E0099515
:102DC00080916F0382FF28C080FF04C083E493E0FA
:102DD0000E942408D0E0C0E00DE313E080916F036F
:102DE00080FF0EC0FE01E859FD4F80811F928F9336
:102DF0001F930F930E94BD080F900F900F900F909C
:102E00002196C830D10551F780916F0380FF04C02F
:102E10008BE393E00E942408DF91CF911F910F91E3
:102E2000089586E094CF2191222309F493CF9F5FE8
:102E300091CF1092DC0280911B01EAE6F2E0882338
:102E4000B1F08091710387FF12C08EE1DF011D9206
:102E50008A95E9F790E080E00E94750A90E080E0B2
:102E60000E94500A1092DB020E948B16089586E0A1
:102E7000EDCFAAE2B0E0EFE3F7E10C94B42D8DE9D9
:102E800093E02091F100DC012D93CD01B3E0853A70
:102E90009B07B9F780919E03833009F470C0B8F4A2
:102EA000813009F447C0823009F4B1C08091E80054
:102EB00083FF84C280919D0390919E039A3008F015
:102EC0007DC2E92FF0E0EB5BF04D0C94902D8A3041
:102ED00009F48CC08B3009F46FC0893039F78091C8
:102EE0009D03813219F78091A1039091A20302976B
:102EF000E8F68091E800877F8093E8008091E80001
:102F000082FF38C09091F3008091F200029731F473
:102F10008091F100813011F0863021F48091F10030
:102F2000809378038091E8008B778093E8000E947B
:102F30003509BCCF80919D03813A09F0B7CF8091CC
:102F4000E800877F8093E8008091A1039091A2031D
:102F5000892B61F460E289E793E070E00E94E10967
:102F60008091E8008B778093E800A0CF60E090E04C
:102F700080E0F3CF80919B038111C0CF97CF8091E8
:102F80009D03813A09F092CF8091A1039091A20311
:102F9000892B09F08BCF8091E800877F8093E80030
:102FA0008091E80080FFFCCF80911B018093F100AD
:102FB0008091E8008E77B9CF80919D03813209F02E
:102FC00075CF8091A1039091A203892B09F06ECF58
:102FD0008091E800877F8093E8000E943509809106
:102FE0009F0380931B010E94191760CF80919D035E
:102FF000813209F05BCF8091E800877F8093E80001
:103000000E9435098091A003809377034FCF809170
:103010009D03813A09F04ACF8091E800877F809331
:10302000E8008091E80080FFFCCF80917703BECF5D
:10303000803899F0823809F0C1C18091A1038F7066
:10304000873008F0BBC18093E9008091EB0085FBDD
:10305000882780F91092E90006C080919903909129
:103060009A03911182609091E800977F9093E80015
:103070008093F1001092F1008091E8008E779AC160
:10308000882309F488C1823009F098C180919F0398
:1030900081118BC18091A1038F702FEF280F2630F3
:1030A00008F08CC18093E9002091EB0020FF7DC1E6
:1030B000933031F48091EB0080628093EB0075C116
:1030C0009091EB0090619093EB0021E030E001C023
:1030D000220F8A95EAF72093EA001092EA00809185
:1030E000EB008860EACF811169C110919F031F77BF
:1030F0008091E3008078812B8093E3008091E80049
:10310000877F8093E8000E9435098091E80080FF66
:10311000FCCF8091E30080688093E30082E011118E
:1031200083E080939B034AC18058823008F046C1F7
:1031300020919F033091A0032C3DE3E03E07A1F5D1
:1031400083E08A838AE289834FB7F894DE0113967D
:1031500020E03EE051E2E32FF0E050935700E4918D
:1031600020FF03C0E295EF703F5FEF708E2F90E07D
:10317000EA30C0F0C7968D939D932F5F243159F7A5
:103180004FBF8091E800877F8093E8006AE270E09B
:10319000CE0101960E94E1098091E8008B7780932F
:1031A000E8000CC1C096E7CF8091A1039091A203E3
:1031B000432F55274330510509F44AC078F5413073
:1031C000510509F47AC08BE590E0E8E1FFE0423078
:1031D000510509F0F3C02091E800277F2093E80013
:1031E0002091A3033091A4038217930708F49C0154
:1031F00040E02115310509F065C0411163C080919F
:10320000E80082FDC9CF80919B03882329F2853095
:1032100019F28091E80083FFF2CFBECF4132510511
:1032200009F43CC04232510509F0C8C08330910511
:1032300008F0C4C0FC01EE0FFF1FE65AFD4F0190DD
:10324000F081E02D895A9D4FDC018C9190E01AC0ED
:10325000332721303105D1F02115310561F02230BD
:10326000310509F0ABC0E5E8FFE0E4918E2F90E076
:10327000E5E8FFE007C0E7EBFFE0E4918E2F90E088
:10328000E7EBFFE0009709F499C0A5CFE5E9FFE07F
:10329000E4918E2F90E0E5E9FFE0F4CF83309105D3
:1032A00008F08CC0880F991FFC01E05AFD4F019077
:1032B000F081E02D89E090E08ECF82E190E0E3E7BD
:1032C000FFE089CF80919B03882309F465CF853087
:1032D00009F462CF8091E80083FD5ECF8091E80021
:1032E00082FD8DCF8091E80080FF83CF9091F30025
:1032F0008091F2002115310519F08830910550F0C8
:1033000041E0089709F040E08091E8008E778093D3
:10331000E8006FCF44914093F1003196215031097C
:103320000196E8CF803809F049C08091E800877F96
:103330008093E80080919C038093F1009DCE8111E1
:103340003DC010919F031230C8F58091E800877F3F
:103350008093E80010939C030E943509112311F01B
:1033600084E005C08091E30087FDFACF81E080937F
:103370009B0342E061EC81E00E94540942E261EC6F
:1033800082E00E94540942E261EC83E00E94540909
:1033900080919B0313C080919F03813079F481E079
:1033A000933009F080E080939A031092E9008091B5
:1033B000E800877F8093E8000E9435098091E8004B
:1033C00083FF0AC08091E800877F8093E8008091A6
:1033D000EB0080628093EB00AA96E3E00C94D02D82
:1033E000CF93C82F1F928F9383EC9EE09F938F9370
:1033F0000E94BD0881E090E002C0880F991FCA9525
:10340000E2F70E945D0F0E9419170F900F900F9026
:103410000F90CF9108950E9419172FEF84E39CE03D
:10342000215080409040E1F700C0000088E19CE01E
:103430000FB6F894A895809360000FBE909360003B
:10344000FFCF882321F00E94660E0E948B160895FC
:10345000882339F09091DC02982B9093DC020E9433
:103460008B160895882351F19CEF980F913A40F400
:10347000682F88E692E00E9409130E948B16089537
:1034800090E2980F983050F4877091E001C0990F46
:103490008A95EAF7892F0E94660EEFCF9BE5980F79
:1034A000933028F490E080E00E94750A0895885ACD
:1034B0008B3120F490E080E00E94500A0895AAE049
:1034C000B0E0E5E6FAE10C94AC2D8E010F5F1F4FE2
:1034D0008AE0F80111928A95E9F78AE1C82E82E024
:1034E000D82EF12CE12CAA24A394B12CF6018191C1
:1034F0006F018F3F09F443C0F894E82FE295EF7015
:10350000F0E021A18F70A50102C0440F551F8A95DC
:10351000E2F7CA01922F982B91A392A1809589235B
:1035200082A3789400C0E4E2F2E0912C31E0219192
:103530002F3F09F470C0A22FA295AF70B0E0909613
:103540008C9190E02F7002C0959587952A95E2F7AF
:1035500080FD61C0832F982A330F52E0EC32F507CB
:1035600031F7F601319780818F3F11F00E94200CD6
:1035700080EA8A95F1F7F801EE0DFF1D9082EFEFDA
:10358000EE1AFE0AFAE0EF16F10409F0AFCF4AE0B6
:1035900050E0B80184EE92E00E947B2E892BE9F185
:1035A0008AE0F801A4EEB2E001900D928A95E1F76D
:1035B00081E08093E3020E94440A9093E2028093A8
:1035C000E1022091E1023091E2024FB7F89480913C
:1035D000DF039091E003A091E103B091E2034FBFBC
:1035E000821B930B0597E8F04AE050E064EE72E02E
:1035F00083EF92E00E947B2E892BC1F08AE0E4EEFB
:10360000F2E0A3EFB2E001900D928A95E1F781E03C
:103610001092E30207C080E09ECF8091E302811107
:10362000D0CF80E02A96EBE00C94C82D80E0F0CF5C
:10363000A8E0B0E0EEE1FBE10C94B52D66EE7EEF84
:1036400090E080E00E94CA2E60E082E090E00E945C
:10365000AC2E60E083E090E00E94AC2E1092DE027F
:103660001092DD0260E074E184E090E00E94CA2ED6
:1036700060E086E090E00E94AC2E6FEF87E090E083
:103680000E94AC2E40E050E0BA0188E090E00E9439
:10369000BE2E60E084E290E00E94AC2E60E087E104
:1036A00090E00E94AC2E60E08CE090E00E94AC2E96
:1036B00060E08DE090E00E94AC2E19821A821B829D
:1036C0001C821D821E821F82188648E050E068E13D
:1036D00070E0CE0101960E949C2E40E050E0BA01BD
:1036E00080E290E00E94BE2E40E050E0BA018FE000
:1036F00090E00E94BE2E40E050E0BA0183E190E0ED
:103700000E94BE2E2896E2E00C94D12DCF92DF923B
:10371000EF92FF921F93CF93DF93EBEFE80FEF331E
:1037200008F074C1F0E0E15BF04D0C94902D83E063
:1037300090E00E94882E1F928F938BE99BE09F93CD
:103740008F930E94BD0882E090E00E94882E83FB48
:10375000992790F91F929F9382FB992790F91F92C6
:103760009F9381FB992790F91F929F93982F9170B7
:103770001F929F931F928F9382E59BE09F938F935D
:103780000E94BD0884E090E00E94962E93FB2227C1
:1037900020F91F922F9387FB222720F91F922F9346
:1037A00086FB222720F91F922F9385FB222720F9E1
:1037B0001F922F9384FB222720F91F922F9383FBC4
:1037C000222720F91F922F9382FB222720F91F9294
:1037D0002F9391FB222720F91F922F93292F2170DD
:1037E0001F922F9381FB222720F91F922F93282FBE
:1037F00021701F922F939F938F9383E59AE09F935D
:103800008F930E94BD088DB79EB78A960FB6F89425
:103810009EBF0FBE8DBF86E090E00E94882E982F3D
:103820009695969596951F929F93982F91701F92BB
:103830009F931F928F9380E29AE09F938F930E94B1
:10384000BD088DB79EB708960FB6F8949EBF0FBE01
:103850008DBF81E01CC082EB9EE00E9424080E9484
:10386000181BF7CF88EB9BE00E942408F2CF8091D1
:103870006F03807F80936F038DE69DE00E94240894
:103880008EEA9EE00E94240881E080936803DF9125
:10389000CF911F91FF90EF90DF90CF90089582E934
:1038A0009EE00E9424080E9419179FEF24E38CE0F9
:1038B000915020408040E1F700C000000E949B1022
:1038C00090916F03892F8E7F90FF816080936F03AB
:1038D00080FF03C086E89EE0C7CF89E79EE00E9494
:1038E000240880916F03817F80936F03B2CF909102
:1038F0006F03892F8D7F91FF826080936F0381FF1B
:1039000008C08CE69EE00E94240880916F038160CD
:10391000EBCF8EE59EE0A8CF90916F03892F8B7F30
:1039200092FF846080936F0382FF03C08FE49EE068
:10393000EACF8FE39EE098CF90916F03892F877F26
:1039400093FF886080936F0383FF03C083E39EE04F
:10395000DACF86E29EE088CF8CE191E09F938F934F
:1039600088E89DE09F938F930E94BD080F900F9071
:103970000F900F906ECF8FB7F894C090DF03D09068
:10398000E003E090E103F090E2038FBFC091710388
:10399000C7FBCC27C0F910917703D0911B010E947F
:1039A0009A0AFF92EF92DF92CF921F92CF931F92CB
:1039B0001F931F92DF931F928F938BE89DE09F933D
:1039C0008F930E94BD088DB79EB70E960FB6F894E0
:1039D0009EBF0FBE8DBF3DCF0E94191790917103FE
:1039E000892F97FB87F980588093710387FF03C065
:1039F0008CE19EE039CF81E19EE036CF80E00E94ED
:103A0000F01927CF8953FBCF8D51F9CF8FE09EE07E
:103A10000E94240880E03BCFCF93C82F8823E9F190
:103A20008CEF8C0F813A08F06DC080916803882379
:103A300059F18130A1F11092680380911B01882314
:103A400009F44EC08091710387FF4AC0EC2FE695C0
:103A5000E695E695F0E0E859FD4F828190E04C2F25
:103A6000477021E030E002C0220F331F4A95E2F791
:103A700082239323892BF1F16C2F88E692E00E9438
:103A800009130E948B1636C08091DC028232A9F69F
:103A90008C2F0E94861B882381F2CF9108958091FC
:103AA000DC028232A9F3C431B9F038F4CB3049F0EA
:103AB00080E293E00E94240811C0C93269F0C83343
:103AC000B9F78DE69DE00E94240882E293E00E940F
:103AD000240881E08170DFCF1092680380E0FACF84
:103AE000EAE6F2E080E792E02191C21729F28E1710
:103AF0009F07D1F76C2F88E692E00E9444130E9442
:103B00008B16CBCF80E28C0F883068F4C77021E031
:103B100030E001C0220FCA95EAF78091DC02822BC7
:103B20008093DC02ECCFEBE5EC0FE33040F4F0E007
:103B3000EF51FE4F808190E00E94750AAECFC85AC7
:103B4000CB3108F0AACFEC2FF0E0EE0FFF1FEC51C5
:103B5000FE4F808191810E94500A9FCF0F931F9347
:103B6000CF93DF93C62FD42F022FFC0185818823AA
:103B7000A9F06093E5030E94440A9093E4038093C4
:103B8000E303C77081E001C0880FCA95EAF70E947D
:103B9000281ADF91CF911F910F9108958091E5032D
:103BA000681341C02091E3033091E4034FB7F894C8
:103BB0008091DF039091E003A091E103B091E203D3
:103BC0004FBF821B930B883C910568F510E21D0FD7
:103BD0006D17B9F080E2860F883040F4C77081E03D
:103BE00001C0880FCA95EAF70E94211A183048F4DC
:103BF00081E09D2F977001C0880F9A95EAF70E9487
:103C0000281A802F0E940C1D802F0E94321A183013
:103C100008F0BFCFD77081E001C0880FDA95EAF7CE
:103C20000E94211AB6CFC77081E001C0880FCA95E3
:103C3000EAF7F6CFB0E0A0E0E0E2FEE10C94AD2DB3
:103C40008C01FC018481882371F121E04081518144
:103C50006281738195810E949D0FEC01F80185813D
:103C6000FE01882309F4D4C5F857E730F10508F0C0
:103C7000C4C5E257F04D0C94902D83E00E945E0B7A
:103C8000809163030E9499138091B902877059F063
:103C9000F8018581882339F08091720382FF03C087
:103CA00082E00E94360FCDB7DEB7EAE00C94C92D52
:103CB00080E0E4CF80916303982F987F79F088505B
:103CC00080936303887F91E009F490E0809163031F
:103CD00090FB80F9809363030E94991380916F0396
:103CE00080FF20C5809163038695869586951F92F7
:103CF0008F938FE791E09F938F930E94BD080F9061
:103D00000F900F900F900EC580916303982F96959A
:103D100096959695933040F49F5F990F990F990F60
:103D20008770892B80936303809163038160809304
:103D300063030E94991380916F0380FFF3C4809105
:103D400063038695869586951F928F9387E991E008
:103D5000D2CFC0916303C17080916F0380FFC4C450
:103D60001F92CF9384ED91E09F938F930E94BD08A3
:103D70000F900F900F900F90CC2309F4B7C480914F
:103D8000630380FF81CF809163038E7F8093630301
:103D90000E94991380916F0380FF08C08FEA91E021
:103DA0009F938F930E94BD080F900F9080E00E9418
:103DB000210B6ACF90916303892F8695869586950E
:103DC0008F5F8F719770843010F5880F880F880F80
:103DD000892B8093630380916303887F91E009F4CA
:103DE00090E08091630390FB80F9809363030E94CD
:103DF000991380916F0380FF95C48091630386952A
:103E0000869586951F928F938AEE91E074CF90935A
:103E10006303E1CFC0916303C695C17080916F03C6
:103E200080FF86C41F92CF9387E392E09F938F9386
:103E30000E94BD080F900F900F900F90CC2309F4B3
:103E400079C48091630381FF1FCF809163038D7FCD
:103E5000809363030E94991380916F0380FF08C0D1
:103E60008EEF91E09F938F930E94BD080F900F906B
:103E70001092640357C426E241EE61EEC8010E942D
:103E8000AE1D02CF27E245EE65EEF8CF26E241EE09
:103E900060EEF4CF27E245EE64EEF0CF26E241EE8D
:103EA00062EEECCF27E245EE66EEE8CF28E241E095
:103EB000EBCF1092E503CE019057839708F059C4D9
:103EC00084E090E00E94962E909372038093710399
:103ED000FE01E150F047E232F10520F4EB56F04DDF
:103EE0000C94902D8091710381608093710395C033
:103EF000809172038860809372038FC080917103F8
:103F00008260F3CF809171038460EFCF8091710361
:103F10008860EBCF809172038160EDCF8091720356
:103F20008260E9CF809171038061DFCF809171035E
:103F30008062DBCF809171038064D7CF0E94191714
:103F4000809171038068D1CF809171038C60CDCF57
:103F5000809172038360CFCF809171038E7FC5CF34
:103F600080917203877FC7CF809171038D7FBDCF12
:103F7000809171038B7FB9CF80917103877FB5CF1B
:103F8000809172038E7FB7CF809172038D7FB3CF04
:103F9000809171038F7EA9CF809171038F7DA5CF12
:103FA000809171038F7BA1CF0E94191780917103BB
:103FB0008F779BCF80917103837F97CF809172031E
:103FC0008C7F99CF8091710382FB992790F921E032
:103FD000922790FB82F990FB83F987CF809172033F
:103FE000982F909591708E7F892B90FB81F983CFCC
:103FF00090917103892F8F7B96FF806476CF0E940A
:10400000191790917103892F97FB87F980586DCF0D
:1040100061E08EE090E00E94AC2E6091710370919F
:10402000720384E090E00E94CA2E0E9419172CCEE1
:1040300060E0EFCF90917103892F8F7E94FF8061B4
:1040400054CF90917103892F8E7F90FF81604DCF67
:1040500090917203892F877F93FF88604CCF809166
:10406000880269E2811165E388E692E00E94091303
:1040700093C380916F0380FF10C080915B03809594
:1040800081701F928F9386EC92E09F938F930E9492
:10409000BD080F900F900F900F9020915B0320FFB1
:1040A0002BC02E7F20935B0330915C0340915D0316
:1040B00050915E0360915F03709160038091610392
:1040C000909162030E94571480916F0380FF0FC08C
:1040D00080915B0381701F928F9387E592E09F939D
:1040E0008F930E94BD080F900F900F900F900E9429
:1040F0008A130E94BF10C8CD216020935B0380917A
:104100006F0380FF0DC01F9281E08F938FE892E0D4
:104110009F938F930E94BD080F900F900F900F9068
:1041200080915B0361E086950E94C715ADCD48E2A2
:1041300056E162E376E10E94750BA6CD42E356E1BB
:1041400068E276E1F8CF4FE755E169E875E1F3CF32
:1041500049E855E16FE775E1EECF45E655E162E7E5
:1041600075E1E9CF42E755E165E675E1E4CF4BE45F
:1041700055E168E575E1DFCF48E555E16BE475E1B0
:10418000DACF43E955E16DEA75E1D5CF4DEA55E166
:1041900063E975E1D0CF61E081E0C6CF65E082E000
:1041A0000E943D1671CD68E086E0FACF6EE089E0AE
:1041B000F7CF64E18FE0F4CF67E185E1F1CF61E013
:1041C00088E1B2CF62E289E1EBCF61E083E2ACCF7C
:1041D0006AE285E2E5CF90916F03892F8E7F90FF91
:1041E000816080936F0380FF05C08FE093E00E94A1
:1041F00024084ACD8DEF92E0FACF6FEF7FEF90E089
:1042000080E00E94CA2E0E940B1A8091720382FBEA
:10421000882780F991E089270E946116F80185813D
:10422000C081D181882309F44AC0CE010E94770E53
:10423000F82E682FCE010E94EA0EBE018F2D0E943B
:10424000280D0E94480DD82FC92FA82EF801C5802F
:10425000B680B2943FE0B3228091B9028770F1F04A
:10426000FC2CCC20E1F0892F807F803451F080E25B
:104270008D0F883098F0B11004C0892F807E803275
:1042800069F08091720382FF09C082E00E94360FBC
:104290008091B9028770FF24F3948111F12CEC2EE8
:1042A000E2942FE0E222FBE0FE1508F46DC0EE2D53
:1042B000F0E0E954F04D0C94902D80E0ADCFCE01AC
:1042C0000E94B80EF82EB9CF2C2F2F70D22EC07F9F
:1042D00019F0D29490EFD922CC20B9F0DD2069F00A
:1042E00080E28D0F883010F0A11009C08091DC02AF
:1042F000D82AD092DC020E948B168D2F43C0809169
:10430000DB02D82AD092DB02F6CF8D2F0E94321A20
:10431000DD20D1F1D05ED83010F0A11004C08D2D79
:104320000E94660E06C0D0948091DB02D822D09203
:10433000DB020E948B1628C03C2F3F70D32EC07F1B
:10434000C03219F0D29480EFD822AA2059F081E02F
:10435000A81609F47BC0CC2009F487C0BB2009F45F
:1043600049C0CBCF8091720382FD40C0CC20C1F107
:10437000DD2039F08091DC02D82AD092DC020E9444
:104380008B1680E00E940C1D2E2D2850330B2430FC
:10439000310520F40E949A0A0E94C20FFF20A9F062
:1043A0008091B90280FD11C0F8011582869586952D
:1043B00086950E944D0FC8010E941A1E8091B90275
:1043C0008695869586950E94240F20E0F80140810D
:1043D000518162817381848195810E949D0F63CC9C
:1043E00080E00E94321ADD2079F299CFCC20A1F032
:1043F000B11004C08D2D0E94281AC6CF91E0B912C9
:10440000C3CF8091DA029D2D9823D91609F4BCCF31
:10441000D82AD092DA02B8CFB110B6CF8D2D0E9433
:10442000211A9091DA028D2D892329F08D2D809506
:1044300089238093DA02809189029D2D982309F4C3
:10444000A3CFD094D822D09289029ECFCC2029F03D
:10445000E5E0EB1508F498CFCDCFF4E0FB1508F4B8
:1044600093CF8D2D0E94211A8FCFBB20D1F329E34A
:10447000A21209C03FEF87EE93E031508040904098
:10448000E1F700C000008D2F0E94321A7DCF8C2FE3
:1044900086958695837069F0813009F075CF8D2FF0
:1044A0009C2F9370C11002C080E090E00E94500ADF
:1044B0006BCF8D2F9C2F9370C11002C080E090E0D5
:1044C0000E94750A61CF8C2F837009F03FC0C11024
:1044D0005BCF4D2F429546954770440F440F2D2FCB
:1044E0002F7030E0042E02C0220F331F0A94E2F72F
:1044F00090E080E0D4FF09C08FE090E002C0880F18
:10450000991F4A95E2F780959095C695C695C37018
:10451000C23099F078F44091DD025091DE02C13052
:1045200039F0822B932B842395230E945D0F2CCF8F
:10453000242B352B822B932BF8CF822B932B20917E
:10454000DD023091DE0282279327EFCF8695CC20C3
:1045500011F08C2F8170882309F416CF4D2F4295CE
:1045600046954770440F440F2D2F2F7030E0042ED6
:1045700002C0220F331F0A94E2F790E080E0D4FFDC
:1045800009C08FE090E002C0880F991F4A95E2F7BA
:1045900080959095C695C695C370C23099F078F411
:1045A0004091EE025091EF02C13039F0822B932BF3
:1045B000842395230E941F0FE7CE242B352B822BBB
:1045C000932BF8CF822B932B2091EE023091EF02A8
:1045D00082279327EFCFCF70CC2029F08C2F0E9419
:1045E0004D0F8D2F08CF8D2F0E94211A8C2F0E94E6
:1045F000240FCACE8D2FE2EFAE1699F1EA1570F0B6
:10460000F0EFAF16D1F021EFA21691F0CC2009F413
:104610005BC0B11072CE8C2F8F7127C033EFA31601
:1046200039F194EFA912F2CF8091720382FD2EC06E
:104630008C2F8F71CC20D9F218C0CC2069F0E4E027
:10464000EB1508F4A1CECF7181E090E002C0880F95
:10465000991FCA95E2F7B8CFF5E0FB1508F494CEA0
:10466000F2CF8C2F8F71C110C2CF0E944D0F8CCE14
:1046700090E080E0CC2009F49DCFCF7181E090E004
:1046800002C0880F991FCA95E2F794CFCC2089F019
:10469000CF718C2F0E944D0F8091720382FF07C053
:1046A00028E0C29FC001112483608093B9028C2F3F
:1046B000DCCF81E00E94360F31E03B1508F064CE7C
:1046C00082E00E94360F60CEBB2059F0893309F09A
:1046D000DACE8FEF97EEE3E081509040E040E1F7D3
:1046E000D0CE8C2F8F7183CFC1114DCB80916303BE
:1046F00080FDCACA816080936303813019F489E028
:1047000080936303809163030E94991380916F03E8
:1047100080FF08C082EC91E09F938F930E94BD08B8
:104720000F900F90809163038695869586953FCB79
:10473000C1118BCB8091630381FDA6CA82608093F7
:1047400063030E94991380916F0380FF08C08BE17F
:1047500092E09F938F930E94BD080F900F9010924C
:104760006703109266031092650381E080936403EF
:104770008BCAC631FCE7DF0791F48091DC028A7AAC
:1047800091E009F490E09093880269E2811165E379
:1047900088E692E00E9444130E948B1675CAC330CB
:1047A0003CE7D30709F429CDC0F4C1309CE7D90711
:1047B00009F429CD08F00FCDC115DC4709F02ECD45
:1047C0000E941917FFEF24E33CE0F15020403040F5
:1047D000E1F700C000000E949B10CB352CE7D20708
:1047E00009F46BCDCC353CE7D30709F40ECDCA35BF
:1047F000DC4709F013CD81E00FCDFE01E851FC4705
:10480000E730F10508F055CBED53F04D0C94902DA9
:10481000E851FC47E730F105B8F3C6312CE7D20781
:1048200009F41DCC8091DC028272FE01E052F8474F
:10483000E531F10508F0F2CCE653F04D0C94902DE3
:10484000CF93DF938091B802807F09F04DC08091B3
:10485000B702882309F448C0E091DE035091A50314
:10486000C091B302D091B2026091B4027091B502CE
:1048700047E05E17C9F18E2F90E0E49FF00111240C
:10488000EA55FC4F2481222391F1489FF001499F72
:10489000F00D1124DF01AA55BC4F11962C911197F0
:1048A0002C1325C02C912D1322C015962C911597F1
:1048B00021111DC012962D913C91261B370B283CCF
:1048C0003105A8F48091B8028F7080618093B8029E
:1048D000E455FC4F80818F708061808382EB92E091
:1048E0000E941A1E0E946D0EDF91CF910895FC0167
:1048F0003196E770BECFA4E1B0E0E1E8F4E20C94B9
:10490000AB2D8C0186E0F801DE011F9601900D921F
:104910008A95E1F7F8018481E58092EBA92E92E077
:10492000B92E9091B602911128C0882319F1EE207A
:10493000F1F0C8010E94620FF82E8823C1F087E0D1
:10494000F801D50101900D928A95E1F78091B602A8
:10495000813031F48091B2029091B3020E94AB0E8B
:104960000E9420248F2D6496ECE00C94C72DC80182
:104970000E941A1EFF24F394F5CFD080C18082805C
:104980009380F090B7022091B4023091B502A40157
:10499000421B530BFF2009F4D9C0483C510508F0D5
:1049A00092C08823F9F29091B3028091B802282F27
:1049B000207F09F056C0C91214C09091B202D912DA
:1049C00010C0E11048C08F7080618093B80282EB04
:1049D00092E00E941A1E8091B802F8018683F12CA1
:1049E000C1CFE11038C06C2D8D2D0E94C6086C2DF2
:1049F0008D2D0E94C608E82E8111F1CFDF86C88A6E
:104A00008F8598890E94AB0E292F22952F70243014
:104A100058F49F70223088F0992399F0F80196811C
:104A2000907F79F4FE2C9ECF2A5F2F70223068F0A1
:104A3000C8010E941A1EEF2CF5CF992311F088238C
:104A400089F3805E883070F3F3CF803F58F3815F45
:104A5000833070F7E7CF8091B80281608093B8020D
:104A6000BECFC91207C09091B202D91203C0EE2086
:104A700009F48DC0C8010E94620F882309F477CF22
:104A8000EE2009F474CF8091B802803288F0209132
:104A9000B2023091B302398728879B868A8690912B
:104AA000B6029C871D868E87CE0108960E941A1E2C
:104AB00087E0F801A2EBB2E001900D928A95E1F750
:104AC0000E94202457CF9091B802292F207F51F4C3
:104AD00082EB92E00E941A1E87E0F50111928A95FE
:104AE000E9F77DCF882309F43DCF8091B3028C1183
:104AF00010C08091B202D8120CC0E1100AC0968397
:104B0000C8010E941A1E87E0F50111928A95E9F703
:104B100029CFC8010E94620F882309F428CFEE2014
:104B200009F425CF8091B802803210F22091B202B0
:104B30003091B3023A8329839C828B829091B60292
:104B40009D831E828F83CE010196B0CF483C5105D4
:104B5000D0F6882309F40ECFFE2CEE2009F407CFFF
:104B60008091B3028C1120C08091B202D8121CC077
:104B70008091B80280FD0FC0982F907F61F08683EE
:104B8000903F31F0982F907F905F8F70892B8683B4
:104B9000C8010E941A1E87E0F801A2EBB2E0019062
:104BA0000D928A95E1F7DECEC8010E94620F811155
:104BB0007FCF8091B80281608093B802C8010E94C3
:104BC0001A1ED0CEABE1B0E0E8EEF5E20C94B32DC6
:104BD0004E8B5F8B688F798F8A8F9B8F192F9111E6
:104BE0001092DB021D8A86E0FE017696DE011F969A
:104BF00001900D928A95E1F70A8D002341F021E0A2
:104C00004F85588969897A89C8010E949D0F0B8B4D
:104C10001C8B87E0FE013F96DE01189601900D92F5
:104C20008A95E1F7CE0108960E947B2481112AC063
:104C300087E0FE013896DE01119601900D928A956B
:104C4000E1F78C858823F1F02091A50330E0C901BC
:104C50000196877099274091DE0348171906E9F0FD
:104C600097E0929FD001939FB00D1124AA55BC4F9D
:104C7000FE01319601900D929A95E1F78093A5037C
:104C80000E946D0E17E08091DE039091A5038913B9
:104C900012C06B96E4E00C94CF2D0E94191710926D
:104CA000A5031092DE0387E0E2EBF2E0DF011D9244
:104CB0008A95E9F7E7CF819FC00111248A559C4F5F
:104CC0000E947B24882329F38091DE0390E00196E3
:104CD000877099278093DE03D6CFA6E0B0E0E3E7A4
:104CE000F6E20C94B32D0E94440A8C018091DF02FD
:104CF0009091E0028017910781F019821A820E9438
:104D0000440A682F49815A81792F80E090E00E94FF
:104D1000E2251093E0020093DF022696E4E00C9473
:104D2000CF2D90E080E00E94962E863E9E4F51F05F
:104D30000E94181B809163038470896180936303D0
:104D40000E94991386E090E00E94882E809363036E
:104D5000803220F0877088618093630390916303B1
:104D6000892F817090FF04C0892F8695869586953E
:104D70000E94210B08951F920F920FB60F921124DB
:104D80002F933F934F935F936F937F938F939F9353
:104D9000AF93BF93CF93DF93EF93FF93D091E9004D
:104DA000DF708091EC00C82FC17080FDC0E81092C8
:104DB000E9008091F000877F8093F00078940E9452
:104DC00039171092E9008091F00088608093F0001C
:104DD000CD2BCF70C093E900FF91EF91DF91CF9180
:104DE000BF91AF919F918F917F916F915F914F9103
:104DF0003F912F910F900FBE0F901F9018951F920B
:104E00000F920FB60F9211242F933F934F935F93FE
:104E10006F937F938F939F93AF93BF93EF93FF9382
:104E20008091E10082FF15C08091E20082FF11C0F5
:104E30008091E1008B7F8093E100209175032F5FCB
:104E4000822F62E30E944E2D992309F4C0C0209363
:104E500075038091DA0080FF28C08091D80080FF20
:104E600024C08091DA008E7F8093DA008091D9008F
:104E700080FFE3C080E189BD82E189BD09B400FE05
:104E8000FDCF81E080939B0384E09FE00E94240893
:104E900080917603811109C00E94E5080E9486096D
:104EA0008091E20084608093E2008091E10080FFC5
:104EB0001BC08091E20080FF17C08091E2008E7FCE
:104EC0008093E2008091E20080618093E200809113
:104ED000D80080628093D80019BC85E080939B0342
:104EE0008CE09FE00E9424088091E10084FF2FC0A5
:104EF0008091E20084FF2BC080E189BD82E189BD01
:104F000089B5982F917080FFFBCF8091D8008F7D5D
:104F10008093D8008091E1008F7E8093E1008091A2
:104F2000E2008F7E8093E2008091E20081608093B6
:104F3000E20080919C03882309F489C084E0809377
:104F40009B0380E19FE00E94240880919B03809155
:104F5000E10083FF2BC08091E20083FF27C0809196
:104F6000E100877F8093E10082E080939B031092B1
:104F70009C038091E1008E7F8093E1008091E200AC
:104F80008E7F8093E2008091E20080618093E20056
:104F900042E060E080E00E9454098091F000886067
:104FA0008093F00084E19FE00E942408FF91EF913C
:104FB000BF91AF919F918F917F916F915F914F9131
:104FC0003F912F910F900FBE0F901F901895109248
:104FD000750380917403882309F43BCF80919B0370
:104FE0008430C1F49091E9009F702091EC00822FF1
:104FF000817020FD80E8892B93E09093E9009091E7
:10500000EB0090FF04C09091EE0097FD08C08F70F8
:105010008093E900109274031CCF1092F1009091DC
:10502000E80095FDFACF9091E80090FFF0CF9091C5
:10503000E8009E779093E800EACF19BC10929B039A
:1050400088E09FE00E942408109276032ECF809182
:10505000E30087FD93E090939B0373CF78941F92B6
:105060001FB61F9211248F939F93AF93BF9380918C
:10507000DF039091E003A091E103B091E203019678
:10508000A11DB11D8093DF039093E003A093E10382
:10509000B093E203BF91AF919F918F911F901FBE7C
:1050A0001F9018951F921FB61F9211248F939F93E4
:1050B000AF93BF9380917003811113C08091DF0380
:1050C0009091E003A091E103B091E2034196A11D0C
:1050D000B11D8093DF039093E003A093E103B093AD
:1050E000E203BF91AF919F918F911F901FBE1F90C0
:1050F00018951F920F920FB60F9211242F933F9382
:105100004F935F936F937F938F939F93AF93BF93CF
:10511000EF93FF9380916403882339F080911A0103
:10512000823031F18F5F80931A0120918800309195
:10513000890080918600909187006AEF70E00E945C
:10514000682D6B5F7F4F6217730708F45E9AFF91BB
:10515000EF91BF91AF919F918F917F916F915F91EF
:105160004F913F912F910F900FBE0F901F90189568
:1051700081E080931A018091660390916703019604
:1051800060ED72E00E94682D909367038093660340
:1051900065E070E00E94682D67FD6FE78091650310
:1051A000823029F4603439F41092640304C08130F1
:1051B00011F46F37C9F3E62FF0E0E056F64F249173
:1051C000A0918600B091870030E00E94342F2FEF2D
:1051D00030E040E050E00E94122FC90163E070E02F
:1051E0000E94682D80916303869586958695282F69
:1051F000269FC001279F900D11240E94A70A90931B
:1052000089008093880091CF5E98189500D000D0D7
:1052100000D0CDB7DEB785B7806885BF85B7806819
:1052200085BF84B7877F84BF0FB6F894A895809117
:105230006000886180936000109260000FBE80E87B
:1052400090E00FB6F89480936100909361000FBED8
:1052500083ED9FE090936702809366023F9A3E9AA7
:10526000269A0E94E5080E9486098091E2008460E7
:105270008093E200789480919B038823A1F01091A1
:10528000E9001F709091EC00892F817090FD80E8FB
:10529000182B1092E9008091E80083FD0E943917D5
:1052A0001F701093E90082E084BD93E095BD9AEFF2
:1052B00097BD80936E000AE112E0D8018D918D01B7
:1052C0008F3F11F00E94200CB2E004321B07A9F7B7
:1052D00004E212E05CE2E52E52E0F52EF801819145
:1052E0008F018F3F11F00E94200CE016F106B1F7FC
:1052F0008AE0E3EFF2E0DF01282F1D922A95E9F71B
:10530000E4EEF2E0DF011D928A95E9F790E080E09B
:105310000E94962E863E9E4F11F00E94181B82E03E
:1053200090E00E94882E80936F0384E090E00E94BA
:10533000962E90937203809371030E945F1AEFEF91
:10534000F6E721E0E150F0402040E1F700C0000026
:105350000E945F1A8091F30280FF08C06FEF7FEF19
:1053600090E080E00E94CA2E0E949B1083E090E0B3
:105370000E94882E90E00E945D0F569A5E9882E00F
:105380008093800089E1809381008FEF9FEF90935D
:105390008700809386000E9491268091630381FF9D
:1053A00009C010926703109266031092650381E0B2
:1053B000809364030E9491268091F002811121C1A3
:1053C00080916F0380FF14C087ED95E09F938F93CA
:1053D0000E94BD0880916F030F900F9080FF08C05E
:1053E00081EC95E09F938F930E94BD080F900F90E2
:1053F00090E080E00E94962E863E9E4F81F0809144
:105400006F0380FF08C089E995E09F938F930E9406
:10541000BD080F900F900E94181B0E944D1688E047
:1054200090E00E94902E4B015C0184E290E00E948B
:10543000882E282F30E040E050E060E070E080E00F
:1054400090E000E20E94DC2D282939294A295B29B5
:1054500020935B0330935C0340935D0350935E03A2
:1054600060935F0370936003809361039093620382
:105470002E7FF1F580916F0380FF08C080E595E0F5
:105480009F938F930E94BD080F900F900E944D161E
:1054900088E090E00E94902E6B017C0184E290E015
:1054A0000E94882E282F30E040E050E060E070E05D
:1054B00080E090E000E20E94DC2DB22FA32FF42FB9
:1054C000E52F5B0197018601BC29A12BFE29E32B67
:1054D000B0935B03A0935C03F0935D03E0935E03E2
:1054E00060935F03B09260038093610390936203C3
:1054F0000E947B0B80916F0380FF76C087E395E06D
:105500009F938F930E94BD0880916F030F900F901F
:1055100080FF6AC080915B0381701F928F938AE144
:1055200095E09F938F930E94BD0880916F030F9029
:105530000F900F900F9080FF57C080915B0386956E
:105540001F928F938FEF94E09F938F930E94BD08DB
:1055500080916F030F900F900F900F9080FF44C0C9
:1055600080915C031F928F9385EE94E09F938F93BD
:105570000E94BD0880916F030F900F900F900F90C5
:1055800080FF32C080915D031F928F938BEC94E07B
:105590009F938F930E94BD0880916F030F900F908F
:1055A0000F900F9080FF20C080915E031F928F9319
:1055B00081EB94E09F938F930E94BD0880916F03CD
:1055C0000F900F900F900F9080FF0EC080915F039F
:1055D0001F928F9385E994E09F938F930E94BD085B
:1055E0000F900F900F900F9010920F0380915B031C
:1055F00080FF04C060E086950E94C71581E080931B
:10560000F00284E091E090936C0380936B033EEE94
:10561000232E35E0332E4DEF442E42E0542E809160
:105620009B038530E9F580916F0380FF04C081E61C
:1056300096E00E942408FF24F39400E112E1809197
:105640009B03853009F483C00E9419170E9491269C
:105650000E949A0A0E94C20F1092F2028091F102F7
:105660008823E1F080915B03816080935B038091EC
:105670006F0380FF0DC01F9281E08F9388E296E058
:105680009F938F930E94BD080F900F900F900F90E3
:1056900080915B0360E086950E94C7150E943514D7
:1056A0000E945F1A9DEFE92E92E0F92E23EF622E01
:1056B00022E0722E27E033E0D301F70191918D9122
:1056C0002E173F0709F4A5C09817C1F380916F0307
:1056D00081FD1CC110E0AA24A394D3010D913D01CA
:1056E000F701B1907F01B01619F1D12CCC24C394ED
:1056F000B0268B2D8C21A1F0D9821A830E94440AF6
:105700009C838B83AD8291E0802F8C2109F490E003
:105710009E8349815A816B817C818D810E94E22523
:10572000D394CC0CF8E0DF12E4CFF701319700837B
:105730001F5F1A3091F68FB7F8944091DF035091B4
:10574000E0036091E1037091E2038FBF66C0809136
:105750009B03843009F44DC080E00E945E0B80E022
:105760000E94C20F0E948A138091F20281111DC013
:10577000F092F20280915B03982F91709093F10266
:105780008E7F80935B0380916F0380FF0AC01F921E
:105790001F923F922F920E94BD080F900F900F9082
:1057A0000F900E948A130E94BF1010927003E8E1CC
:1057B000F0E020E40FB6F894A895E09360000FBEE7
:1057C0002093600083B7817F846083BF83B781604B
:1057D00083BF7894889583B78E7F83BF0FB6F89484
:1057E000A8958091600088618093600010926000AD
:1057F0000FBE80919A03882309F421CF0E945F1A7B
:10580000E3EFF2E08191811123C14E165F06D1F7DB
:1058100016CF98135BCF0E946D2680910F038823CB
:10582000D1F180910E03E0915B03E695E81BE093D4
:105830000A03823009F0A0C0F0E0EA55F94FE49184
:105840000E2F10E0F5EFEF2EF2E1FF2E80910B030B
:10585000882361F010920B030E94440A909309037D
:105860008093080310920D0310920C030E94440AC7
:10587000E0910803F09109038E1B9F0B8F3F9F4718
:1058800050F4E00FF11FF0930903E093080388E060
:1058900093E0F70109950E949A0A182F8091070357
:1058A000181709F4BCCE109307038FB7F8944091F2
:1058B000DF035091E0036091E1037091E2038FBF39
:1058C00080916F0382FF1EC080FF1CC081EB96E0B9
:1058D0000E94240880916F0380FF14C01F921F93C1
:1058E0008CEA96E09F938F930E94BD0880916F038E
:1058F0000F900F900F900F9080FF04C08AEA96E0FF
:105900000E942408812F0E94C20F89CE86E896E06B
:105910000E942408A3EFAA2EA2E0BA2E10E000E015
:10592000B1E88B2EB6E09B2E89E7C82E86E0D82EF4
:105930001F930F939F928F920E94BD088EE796E06F
:105940000E942408D5018D915D010E94850F1F9250
:105950008F93DF92CF920E94BD0887E796E00E9466
:1059600024080F5F1F4F0FB6F894DEBF0FBECDBFE8
:105970000A301105E9F6AECE863059F4F0E0ED5567
:10598000F94FE4910E2F10E0E5EEEE2EE2E1FE2E4F
:105990005DCF893061F4E695F0E0E056F94FE4918F
:1059A0000E2F10E079E5E72E72E1F72E4FCF8F3002
:1059B00061F4E695F0E0E356F94FE4910E2F10E024
:1059C00064EFE62E61E1F62E41CF853159F4F0E027
:1059D000E656F94FE4910E2F10E056EAE52E51E11C
:1059E000F52E34CF08E210E02BE2E22E21E1F22E78
:1059F000883109F42BCF833249F4E8E9F6E00591C8
:105A0000149144E9E42E42E1F42E20CF04EF11E09A
:105A100094EFE92E90E1F92E843209F417CF853204
:105A200081F48E2F63E00E944E2DE92FF0E0EB56BB
:105A3000F94FE4910E2F10E03FE9E32E33E1F32E0E
:105A400005CF00ED17E08FE3E82E8AE0F82EFECEBA
:105A500009BD19BD09B400FEFDCF8091D8008F7D2E
:105A60008093D8008091E00082608093E000809174
:105A7000E00081FDFCCF0E941917E1CDDB018F937F
:105A80009F930E94FF2EBF91AF91A29F800D911D09
:105A9000A39F900DB29F900D11240895991B79E05A
:105AA00004C0991F961708F0961B881F7A95C9F7AE
:105AB0008095089587FB082E062687FD819567FD52
:105AC00061950E944E2D0EF4919507FC81950895E5
:105AD000AA1BBB1B51E107C0AA1FBB1FA617B70714
