:100000000C94A5010C94DD010C94DD010C94DD0130
:100010000C94DD010C94DD010C94DD010C94DD01E8
:100020000C94DD010C94DD010C94AB150C94671558
:100030000C94B6160C94DD010C94DD010C94DD01DA
:100040000C94DD010C94DD010C94DD010C94DD01B8
:100050000C94DD010C9492160C94DD010C94DD01DE
:100060000C94DD010C94DD010C94DD010C94DD0198
:100070000C94DD010C94DD010C94DD010C94DD0188
:100080000C94DD010C94DD010C94DD010C94DD0178
:100090000C94DD010C94DD010C94DD010C94DD0168
:1000A0000C94DD010C94DD010C94DD0129001E008F
:1000B0001F0020002100220023002400250026002C
:1000C00027002D002E0031004A002B0014001A00DA
:1000D0000800150017001C0018000C001200130087
:1000E0002F0030002A004B003900040016000700E2
:1000F00009000A000B000D000E000F003300340051
:1001000028004C004E00E1001D001B0006001900F5
:100110000500110010003600370038000000E5002F
:1001200052002152E000E300E20000000000000065
:100130002C00000000000000E6000000500051000C
:100140004F0001003A003B003C003D003E003F00F4
:10015000400041004200430044004500010001000E
:100160000100010001000100010001000100010087
:100170000100010001000100010001000100010077
:100180000100010001000100010001000100010067
:100190000100010001000100010001000100010057
:1001A0000100010001000100010001000100010047
:1001B0000100000001000100010001000100010038
:1001C000000000000000010000000000000001002D
:1001D000000001000100010005010902A1018502E2
:1001E0000901A10005091901290815002501950833
:1001F000750181020501093009311581257F9502BC
:100200007508810609381581257F950175088106D5
:10021000050C0A38021581257F950175088106C0F5
:10022000C005010980A101850319012AB700150144
:1002300026B700950175108100C0050C0901A101C8
:10024000850419012AA002150126A0029501751046
:100250008100C005010906A1018506050719E029ED
:10026000E715002501950875018102050719002988
:10027000EF1500250195F075018102050819012986
:1002800005950575019102950175039101C0050160
:100290000906A101050719E029E7150025019508C0
:1002A000750181029501750881010507190029FF73
:1002B000150026FF0095067508810005081901291B
:1002C00005150025019505750191029501750391AC
:1002D00001C009023B00020100A0FA09040000016C
:1002E00003010100092111010001224400070581D9
:1002F00003080001090401000103000000092111A5
:1003000001000122B600070582032000011201004E
:10031000020000000869EB01650100010200011202
:100320000341007000650072007400750072006582
:100330000000001003420069007A0075006E006F33
:100340000077000000040309040011241FBECFEF52
:10035000DAE0DEBFCDBF04B603FE18C0809178029C
:1003600090917902A0917A02B0917B028730904BF4
:10037000A740B04B59F41092780210927902109273
:100380007A0210927B02E0E0F8E3099511E0A0E028
:10039000B1E0E4EAF5E302C005900D92AC35B10797
:1003A000D9F722E0ACE5B1E001C01D92A837B20751
:1003B000E1F70E94DD160C94911A0C940000482F6E
:1003C0002091740290913B0257E0291302C080E013
:1003D000089530E0529FF001539FF00D1124E45C2A
:1003E000FD4F8181681306C08081481303C0858159
:1003F0008111EECF2F5F3F4F2770E7CFE8EDF0E0A0
:1004000080818E7F80831092E2001092DA00109239
:10041000E100A0EEB0E08C9181608C9380818F77B9
:10042000808319BCA7EDB0E08C918E7F8C93808186
:100430008F7E80831092260208952091E4003091EF
:10044000E50095E6A9012091EC00822F817020FF44
:1004500006C08091E80080FF06C080E008952091EA
:10046000E80022FD1AC080913102882389F085308E
:1004700089F08091EB0085FD0FC02091E400309160
:10048000E50042175307F9F29150E1F684E0089530
:1004900082E0089583E0089581E008958091330219
:1004A00087FF13C08091E80082FF06C08091E800BA
:1004B0008B778093E80004C0809131028111F2CFE4
:1004C0000895809131028823D9F38091E80080FF5C
:1004D000F8CF8091E8008E77ECCF982F9093E900C9
:1004E000242F762F50E0891731F07091EC00209185
:1004F000ED005091F00021FD07C09F5F973071F72C
:100500008093E90081E008953091EB003E7F3093C5
:10051000EB003091ED003D7F3093ED003091EB002A
:1005200031603093EB007093EC002093ED0050931A
:10053000F0002091EE0027FDE0CF80E00895B0E0CC
:10054000A0E0E5EAF2E00C94F119C8EDD0E0888172
:100550008F7E8883E7EDF0E080818160808384E096
:1005600082BF81E08093260288818E7F888302EE9D
:1005700010E0F80110821092DA0081EEC82ED12C22
:10058000F601108288818F778883888180688883CC
:1005900088818F7D888319BC1092310210923202BB
:1005A0001092300210922F0290EEE92EF12CF701FA
:1005B00080818B7F808388818160888342E060E0D6
:1005C00080E00E946D02F60180818E7F8083F801B9
:1005D000808181608083808188608083F701808151
:1005E0008E7F8083888180618883CDB7DEB7E8E025
:1005F0000C940D1AFC018091390290913A028617F1
:100600009707A0F06115710529F49091E8009E7795
:100610009093E80090E06115710551F4911108C0C4
:100620008091E80082FF34C080E00895BC01F2CFE1
:10063000809131028823C1F18530C1F18091E800B9
:1006400083FD30C08091E80082FDEACF8091E80010
:1006500080FFE1CF8091F3002091F200382F6115E7
:10066000710519F02830310558F091E02830310536
:1006700009F090E02091E8002E772093E800CBCF9E
:1006800081918093F100615071092F5F3F4FE7CF57
:1006900080913102882341F0853041F08091E8005B
:1006A00083FFBECF81E0089582E0089583E008953E
:1006B0002FB7F8948091220290912302A0912402F6
:1006C000B09125022FBF089580910B01089590915C
:1006D0000C019130D1F490911F0297FF16C0E82FC2
:1006E000E695E695E695EE31E0F4F0E0EA59FE4F46
:1006F000282F277081E090E001C0880F2A95EAF743
:1007000080959281892382830895E0E6F1E09191BA
:10071000891303C0DF0111971C9291E0E636F907B7
:10072000B1F7089590910C019130C1F490911F029E
:1007300097FF14C0E82FE695E695E695EE31F8F4BC
:10074000F0E0EA59FE4F877021E030E001C0220F4F
:100750008A95EAF78281822B82830895A0E6B1E030
:10076000EFEF90E02D91821751F0EF3F19F4211136
:1007700001C0E92F9F5F9630A9F7EF3F09F4089574
:100780000E2E000CFF0BE25AFE4FE6CFA3E0B0E0C6
:10079000ECECF3E00C94F71920911D0230911E024D
:1007A00028173907A1F090931E0280931D02E09153
:1007B0001B02F0911C02309751F024E029839B83A7
:1007C0008A830084F185E02DCE0101960995239658
:1007D000E2E00C94131AA3E0B0E0E1EFF3E00C9434
:1007E000F7192091190230911A0228173907A1F040
:1007F00090931A0280931902E0911B02F0911C025F
:10080000309751F023E029839B838A830084F1850C
:10081000E02DCE01019609952396E2E00C94131A7F
:10082000E0911B02F0911C02309729F00190F081B9
:10083000E02D0995089580E008950E9458039C01D9
:100840009091150280911602982B21F0309312029C
:10085000209311029091170280911802982B21F099
:100860003093100220930F02E0911B02F0911C02C2
:10087000309749F082E0809313020680F781E02DE3
:1008800083E192E00995089580910E0280FD16C0E3
:1008900081FD16C082FD16C080910D028823A1F053
:1008A000883280F428E0829FC001112468E270E061
:1008B0000E94CD19862F672B39F0089582E00895A4
:1008C00084E0089588E0089581E0089580910E0203
:1008D00080FD14C081FD14C082FD16C080910C0201
:1008E000882381F08E3180F420E5829FC00111249D
:1008F0006EE170E00E94CD19862F089584E108957D
:1009000088E2089588E0089580E50895282F35EB62
:100910002303C001112497FF04C080589109892F37
:10092000089580589F4FFBCF80E00895F894E82FFA
:10093000E295EF70F0E031A1282F2F7081E090E078
:1009400001C0880F2A95EAF7982F9095932391A3D9
:1009500092A1892B82A37894089590911F0292FF0F
:1009600010C041E0282F2471243009F040E031E02C
:10097000282F2871283009F030E0431711F02CE0BF
:10098000822793FF10C041E0282F2471243109F001
:1009900040E031E0282F2871283109F030E043177A
:1009A00011F02CE082273091200230FF10C051E07E
:1009B000282F2171213009F050E041E0282F2871C3
:1009C000283009F040E0541711F029E0822731FF68
:1009D00010C041E0282F2171213109F040E031E0C1
:1009E000282F2871283109F030E0431711F029E051
:1009F000822794FD877E089582389105B9F1B0F47D
:100A00008133910509F47DC048F48932910509F4D8
:100A10006DC08A32910509F47BC008958533910534
:100A200009F45FC08933910509F10895833E91056A
:100A3000D9F138F4803E910529F1823E910579F192
:100A40000895863E9105D9F1873E910509F43EC08F
:100A5000843E910541F52091200221FF24C0809120
:100A60001F0284FD19C087EE90E0089520911F02B7
:100A7000237009F05AC02091200223FF14C089E29C
:100A800090E0089520911F0220FD38C0309120028F
:100A900030FF09C024FF43C090E080E0089520911A
:100AA0001F0222FDF7CF089520911F0222FD3AC0B8
:100AB0003091200230FD39C024FFF5CFEDCF2091D9
:100AC0001F0223FFF0CF24FDE7CFCDCF20911F02DF
:100AD00023FD2EC03091200231FFEECF84EE90E056
:100AE000089520911F0225FFDECFC9CF20911F025C
:100AF00025FD21C02091200223FFD5CF89E390E07E
:100B0000D2CF20911F0226FFCECF8AE290E0089537
:100B100020911F0226FFC7CF81E390E0089583EE66
:100B200090E0089582EE90E0089580EE90E00895C0
:100B300086EE90E0089585E390E00895972F753054
:100B4000B8F46F30A8F48230B0F470E02FE0929FD8
:100B5000600D711D1124FB019BE4899FE00DF11DC7
:100B60001124EE0FFF1FE455FF4F859194910895D6
:100B700080E090E0089581E0FCCF1F93CF93DF9356
:100B80000E94FC04EC01C11580E5D807F0F5C11501
:100B900080E4D80708F09CC0C03ED10520F5CD3CCC
:100BA000D10508F082C0C83AD10578F4C53AD1051C
:100BB00008F073C0C130D10519F1209709F1C43094
:100BC000D105F0F4D0E0C0E01BC0C33CD105D0F7A4
:100BD000C85AD0E0CC0FDD1FCF5EDE4F0990D88120
:100BE000C02DD4640DC0C11580E2D80708F0D1C073
:100BF000C11581E0D80708F05AC0C83ED10510F7EA
:100C0000CE01DF91CF911F910895C03682E5D807BC
:100C100018F5C03482E5D80708F06BC0C03282E511
:100C2000D80708F05FC0C11582E5D80708F497C05F
:100C30002C2F2695269580E2289F900111248C2F39
:100C40008370C1E0D0E002C0CC0FDD1F8A95E2F7CF
:100C5000C22BD32BDD68D4CFC03A82E5D80760F42D
:100C6000C03882E5D80708F459C0CF71D0E0DC2F36
:100C7000CC27C46FD06AC4CFC03C82E5D80708F443
:100C800062C0C03E82E5D80708F09CCFDC2FCC279D
:100C9000CC27DF71C06FD06AB3CFC55AD0E0C25F36
:100CA000DE4FC881D0E0D064ABCFD065A9CF8D2F07
:100CB0000E94AD04182FCE0199270E94FC04C12F79
:100CC000D0E0DC2FCC27CC27DF71C82BD92B98CFD5
:100CD000CE0199270E94FC04CC27DF70C82BD92BAA
:100CE000D06A8ECFCF71D0E0DC2FCC27C16FD06A15
:100CF00087CF2C2F26952695277080E2289F90017C
:100D000011248C2F8370C1E0D0E002C0CC0FDD1F16
:100D10008A95E2F7C22BD32BDC6872CF2C2F269555
:100D20002695277080E2289F900111248C2F8370D4
:100D3000C1E0D0E002C0CC0FDD1F8A95E2F7C22BE4
:100D4000D32BDA685DCF8C2F8F710E94AD04C82F32
:100D5000D0E0DC2FCC27CC27DF71D06251CF8C2F95
:100D60008F710E94AD0455E0D695C7955A95E1F76D
:100D7000CF70D0E0DC2FCC27282F30E084FF05C0D7
:100D800044E0220F331F4A95E1F7C22BD32BD069E1
:100D900037CF8D2F8F710E94AD04182FCE01992768
:100DA0000E94FC04C12FD0E0DC2FCC27CC27DF71C0
:100DB000C82BD92BD2CF80959091E20198239093A4
:100DC000E20108958091E2019091B901892B9091FF
:100DD000B801992391F0892B90910C01913071F415
:100DE00090911F0297FF0AC09EE128E631E040E0A3
:100DF000915040F441111092B801089596E020E618
:100E000031E0F5CFF90151919F01552389F34F5FEF
:100E1000EFCF8091740290913B02981301C0089526
:100E20008F5F8770FACFB0E0A0E0E9E1F7E00C94C3
:100E3000F0197C010091F4011091F5018091F2010B
:100E40009091F301082B192BCFE0D0E0CC24C39470
:100E5000D12CBC2EC6010C2E02C0880F991F0A94FB
:100E6000E2F780239123892B49F4219790F7B12C45
:100E70008B2DCDB7DEB7E9E00C940C1AB7018C2F9F
:100E80000E949E050E94BD05019779F3F1CFCF9393
:100E9000DF93EC010E941307BE010E949E050E9491
:100EA000BD05DF91CF910895953078F58F3068F5C5
:100EB000E82FF0E08FE0989FE00DF11D11249E2FA8
:100EC000977083E0F695E7958A95E1F7EE0FFF1F9F
:100ED000EE0FFF1FE857FE4F50E040E080E0219109
:100EE00030E0092E02C0369527950A94E2F721706A
:100EF0003327042E01C0220F0A94EAF7822B4F5F9A
:100F00005F4F4430510559F7089580E008959530BA
:100F100098F58F3088F5E82FF0E08FE0989FE00D8E
:100F2000F11D11248E2F877041E001C0440F8A9576
:100F3000EAF783E0F695E7958A95E1F7EE0FFF1F54
:100F4000EE0FFF1FE857FE4F30E020E070E05191B8
:100F5000DF011197CB01022E02C0969587950A9466
:100F6000E2F7817081958527842385278C932F5FF5
:100F70003F4F2430310559F708959093F501809340
:100F8000F401089521E030E002C0220F331F8A955A
:100F9000E2F7209530958091F4019091F50182233C
:100FA00093230E94BD0708959091B70180958923EE
:100FB0008093B701282F277069F4891759F0909111
:100FC000200292FF07C08695869586950E94C207EB
:100FD0001092B701089521E030E002C0220F331FC4
:100FE0008A95E2F78091F4019091F501822B932B81
:100FF0000E94BD0708959093F3018093F201089534
:10100000FC0124812223C1F0808191810E94470745
:1010100092959F70963091F058F4925F9F70923045
:1010200058F4803F19F030F4883E30F481E00895A0
:101030009A5FF4CF843FD1F380E00895883EB0F307
:10104000813FD1F7F3CF662309F45DC08D3C41F4B5
:101050000E9466048195809316020E941D040895E3
:101060008E3C19F40E946604F6CF8F3C31F40E9446
:101070006604819580931502F0CF803D19F40E949B
:101080006604F8CF893D29F40E9444048093170236
:10109000E4CF8A3D21F40E9444048195F7CF8B3D33
:1010A00031F40E944404819580931802D6CF8C3D80
:1010B00019F40E944404F8CF9FE2980F983070F41E
:1010C000815D990B21E030E001C0220F8A95EAF79B
:1010D00080911402822B80931402BFCF8D3D31F496
:1010E00080910E02816080930E02B7CF8E3D21F475
:1010F00080910E028260F7CF8F3D09F0AECF8091D4
:101100000E028460F0CF409115028D3C59F480911D
:10111000160287FF0DC01092160241110BC01092EB
:101120000C0208C08E3C81F48091160218169CF3C4
:10113000442381F08091170290911802892B09F0C5
:101140008CCF10920D0289CF8F3C49F447FFF0CF2E
:1011500010921502809116028111ECCFE0CF803DF4
:1011600019F41416ACF3E4CF90911702893D29F4D9
:101170001916F4F610921702DBCF8A3D19F497FF87
:10118000D7CFF8CF909118028B3D29F497FFD0CF9D
:1011900010921802CDCF8C3D19F41916CCF3C8CF9C
:1011A0009FE2980F983090F4815D990B21E030E038
:1011B000B90102C0660F771F8A95E2F7CB018095CF
:1011C00090911402892380931402B2CF8D3D31F4A3
:1011D00080910E028E7F80930E02AACF8E3D21F465
:1011E00080910E028D7FF7CF8F3D09F0A1CF8091C6
:1011F0000E028B7FF0CFA6E0B0E0E1E0F9E00C94C6
:10120000F61949835A8349815A819923A1F02223EF
:1012100091F0CA010E941307182F682F89819A81C3
:101220000E94870769817A81812F0E949E052696F8
:10123000E3E00C94121ACA010E945407182FF2CF4F
:101240000F931F93CF93DF938B01EA0190913102AB
:10125000943061F58093E9008FEF9091E800815020
:1012600095FD06C095ED9A95F1F700008111F5CF37
:101270008091E80085FF1AC00E941D02811111C0F3
:101280008091E80085FD06C08091E8008E7780930C
:10129000E800F2CFF80181918F018093F10021974E
:1012A00079F78091E8008E778093E800DF91CF9105
:1012B0001F910F91089543E050E0BC0182E00E942D
:1012C0002009089546E050E0BC0182E00E94200918
:1012D000089540E250E0BC0182E00E942009089598
:1012E000CF93DF93EC0148E050E0BC0181E00E9425
:1012F000200988E0FE01A7E2B2E001900D928A95F4
:10130000E1F7DF91CF91089581E08093E00080E2E2
:101310008093D8001092C9008FE19EE40197F1F705
:1013200000C0000087E090EBDC018093780290938E
:101330007902A0937A02B0937B0288E19CE00FB619
:10134000F894A895809360000FBE90936000FFCF43
:101350009091200292FB222720F9281779F080FB38
:1013600092F99093200260911F027091200284E014
:1013700090E00E946E1A82E00E94D4070895809146
:101380000C01813059F580911F0287FF27C00E9410
:10139000E2068093670140E250E06AEB71E086E686
:1013A00091E00E94841A892BC1F080E2E6E6F1E028
:1013B000AAEBB1E001900D928A95E1F7E0911B0252
:1013C000F0911C02309749F086E08093660104801A
:1013D000F581E02D86E691E0099508950E94E206E8
:1013E00080935E0148E050E06AED71E08EE591E0A7
:1013F0000E94841A892B89F388E0EEE5F1E0AAEDDA
:10140000B1E001900D928A95E1F7E0911B02F09115
:101410001C02309711F30280F381E02D8EE591E0FC
:10142000DBCF1092E20180910C01813039F580917F
:101430001F0287FF23C0E8E6F1E08EE1DF011D9285
:101440008A95E9F790E080E00E94EB0390E080E06D
:101450000E94C6031092B9010E94BF0986E0E3E131
:10146000F2E0DF011D928A95E9F710920C021092CA
:101470000D0210920E020E941D040895E0E6F1E0B4
:1014800086E0DCCFAAE2B0E0E8E4FAE00C94F619DA
:1014900083E392E02091F100FC012193CF01F2E07F
:1014A0008B339F07B9F780913402833009F470C001
:1014B000B8F4813009F447C0823009F4B5C0809196
:1014C000E80083FF89C280913302909134029A3000
:1014D00008F082C2E92FF0E0ED56F54E0C94E119C8
:1014E0008A3009F490C08B3009F46FC0893039F725
:1014F00080913302813219F780913702909138023E
:101500000297E8F68091E800877F8093E800809159
:10151000E80082FF38C09091F3008091F2000297BA
:1015200031F48091F100813011F0863021F4809106
:10153000F10080930B018091E8008B778093E800A5
:101540000E944E02BCCF80913302813A09F0B7CF9E
:101550008091E800877F8093E80080913702909126
:101560003802892B61F468E087E292E070E00E9423
:10157000FA028091E8008B778093E800A0CF60E0CA
:1015800090E080E0F3CF809131028111C0CF97CFFE
:1015900080913302813A09F092CF80913702909185
:1015A0003802892B09F08BCF8091E800877F8093E8
:1015B000E8008091E80080FFFCCF80910C018093CF
:1015C000F1008091E8008E77B9CF809133028132AB
:1015D00009F075CF8091370290913802892B09F07C
:1015E0006ECF8091E800877F8093E8000E944E02D2
:1015F00081E090913502911101C080E080930C014F
:101600000E94110A5CCF80913302813209F057CFDA
:101610008091E800877F8093E8000E944E028091CD
:10162000360280930A014BCF80913302813A09F050
:1016300046CF8091E800877F8093E8008091E800A2
:1016400080FFFCCF80910A01BACF803899F08238B0
:1016500009F0C2C1809137028F70873008F0BCC199
:101660008093E9008091EB0085FB882780F9109238
:10167000E90006C080912F029091300291118260A2
:101680009091E800977F9093E8008093F10010928A
:10169000F1008091E8008E779BC1882309F489C10D
:1016A000823009F099C18091350281118CC18091FD
:1016B00037028F702FEF280F263008F08DC18093EE
:1016C000E9002091EB0020FF7EC1933031F480913E
:1016D000EB0080628093EB0076C19091EB0090610B
:1016E0009093EB0021E030E001C0220F8A95EAF7E9
:1016F0002093EA001092EA008091EB008860EACF24
:1017000081116AC1109135021F778091E3008078C2
:10171000812B8093E3008091E800877F8093E8002D
:101720000E944E028091E80080FFFCCF8091E30090
:1017300080688093E30082E0111183E0809331029E
:101740004BC18058823008F047C18091350290919A
:1017500036028C3D23E09207A1F583E08A838AE27A
:1017600089834FB7F894DE01139620E03EE051E202
:10177000E32FF0E050935700E49120FF03C0E2957F
:10178000EF703F5FEF708E2F90E0EA30C0F0C796A9
:101790008D939D932F5F243159F74FBF8091E800BF
:1017A000877F8093E8006AE270E0CE0101960E9494
:1017B000FA028091E8008B778093E8000DC1C09613
:1017C000E7CF4091370250913802292F3327233039
:1017D000310509F444C078F52130310509F46FC0B2
:1017E0008BE390E0E2EDF2E02230310509F0F4C045
:1017F0002091E800277F2093E80020913902309162
:101800003A028217930708F49C0140E02115310544
:1018100009F064C0411162C08091E80082FDC9CF27
:1018200080913102882329F2853019F28091E800F5
:1018300083FFF2CFBECF21323105A9F1223231052B
:1018400009F0CAC04115510509F443C041305105A2
:1018500009F0C2C086EB90E0E8EDF1E0C9CF99272E
:1018600081309105C1F0009759F0029709F0B4C09A
:10187000EFE1F3E0E4918E2F90E0EFE1F3E007C0B9
:10188000E5E4F3E0E4918E2F90E0E5E4F3E00097E7
:1018900009F4A2C0ADCFE3E3F3E0E4918E2F90E032
:1018A000E3E3F3E0F4CF4115510571F04130510508
:1018B00009F092C089E090E0EDEFF2E099CF82E18B
:1018C00090E0EDE0F3E094CF89E090E0E4EEF2E028
:1018D0008FCF84E490E0EEE8F2E08ACF809131028D
:1018E000882309F466CF853009F463CF8091E8003E
:1018F00083FD5FCF8091E80082FD8ECF8091E8006C
:1019000080FF84CF9091F3008091F2002115310582
:1019100019F08830910550F041E0089709F040E057
:101920008091E8008E778093E80070CF44914093D7
:10193000F1003196215031090196E8CF803809F045
:101940004BC08091E800877F8093E800809132024D
:101950008093F1009ECE81113FC01091350212306C
:10196000D8F58091E800877F8093E80010933202D9
:101970000E944E02112311F084E005C08091E30023
:1019800087FDFACF81E08093310242E061EC81E093
:101990000E946D0242E261EC82E00E946D02809141
:1019A0003102843021F081E080930D0115C082E086
:1019B000FBCF80913502813079F481E0933009F0DA
:1019C00080E0809330021092E9008091E800877FE8
:1019D0008093E8000E944E028091E80083FF0AC0D5
:1019E0008091E800877F8093E8008091EB0080621F
:1019F0008093EB00AA96E3E00C94121A0E94110A5D
:101A00002FEF84E39CE0215080409040E1F700C03C
:101A1000000088E19CE00FB6F894A89580936000E0
:101A20000FBE90936000FFCF882321F00E94DB0659
:101A30000E94BF090895882339F09091E201982B04
:101A40009093E2010E94BF090895882381F19CEFE1
:101A5000980F913A28F40E9467030E94BF090895E5
:101A600090E2980F983050F4877091E001C0990F80
:101A70008A95EAF7892F0E94DB06EFCF9BE5980F46
:101A8000933028F490E080E00E94EB03089598E5FD
:101A9000980F9B3128F490E080E00E94C6030895DF
:101AA00093E3980F933118F460E00E94230808959F
:101AB000CF93C82F8823B9F18CEF8C0F813AA8F50A
:101AC00080910C01813001F580911F0287FF1CC0BD
:101AD000EC2FE695E695E695F0E0EA59FE4F828117
:101AE00090E04C2F477021E030E002C0220F331FFE
:101AF0004A95E2F782239323892B81F08C2F0E9451
:101B000067030E94BF090AC0E0E6F1E086E691E0C3
:101B10002191C21799F38E179F07D1F78C2F0E943E
:101B200092030E94BF09CF91089580E28C0F883004
:101B300068F4C77021E030E001C0220FCA95EAF7CF
:101B40008091E201822B8093E201EBCFEBE5EC0F79
:101B5000E33040F4F0E0E25FFE4F808190E00E94CD
:101B6000EB03E1CFE8E5EC0FEB3150F4F0E0EE0FE2
:101B7000FF1FEF5EFE4F808191810E94C603D3CF8D
:101B800083E38C0F833178F661E08C2F0E94230869
:101B9000CACFEF92FF920F931F93CF93DF93C62F7D
:101BA000D42F022FFC0185818823A9F0609377024E
:101BB0000E9458039093760280937502C77081E06B
:101BC00001C0880FCA95EAF70E941B0DCDB7DEB79A
:101BD000E6E00C940F1A80917702681337C0E0900A
:101BE0007502F09076020E9458038E199F09883C76
:101BF000910560F510E21D0FCD17B9F080E28C0F52
:101C0000883040F4C77081E001C0880FCA95EAF7B8
:101C10000E94140D183048F481E09D2F977001C088
:101C2000880F9A95EAF70E941B0D802F0E94580D8D
:101C3000802F0E94250D183048F6D77081E001C032
:101C4000880FDA95EAF70E94140DC0CFC77081E0C3
:101C500001C0880FCA95EAF7F6CFB0E0A0E0E3E351
:101C6000FEE00C94EF198C01FC018481882341F182
:101C700021E0408151816281738195810E94FB083E
:101C8000EC01FC01E851FC47E730F105A8F5E3560B
:101C9000F54E0C94E11926E241EE61EEC8010E9476
:101CA000C90D8091B701877059F0F80185818823AB
:101CB00039F08091200282FF03C082E00E94D407A5
:101CC000CDB7DEB7EAE00C940B1A27E245EE65EEDD
:101CD000E5CF26E241EE60EEE1CF27E245EE64EE8D
:101CE000DDCF26E241EE62EED9CF27E245EE66EE89
:101CF000D5CF28E241E0EBCFF8018581882309F4B4
:101D0000B1C3109277029E0130572332310508F09B
:101D100094C384E090E00E943A1A9093200280934A
:101D20001F02FE01E150F047E232F10520F4EC55CC
:101D3000F54E0C94E11980911F02816080931F027F
:101D400095C0809120028860809320028FC080918E
:101D50001F028260F3CF80911F028460EFCF8091D9
:101D60001F028860EBCF809120028160EDCF8091CF
:101D700020028260E9CF80911F028061DFCF8091D5
:101D80001F028062DBCF80911F028064D7CF0E9448
:101D9000110A80911F028068D1CF80911F028C6050
:101DA000CDCF809120028360CFCF80911F028E7FA4
:101DB000C5CF80912002877FC7CF80911F028D7F82
:101DC000BDCF80911F028B7FB9CF80911F02877F8B
:101DD000B5CF809120028E7FB7CF809120028D7F7A
:101DE000B3CF80911F028F7EA9CF80911F028F7D7C
:101DF000A5CF80911F028F7BA1CF0E94110A8091F5
:101E00001F028F779BCF80911F02837F97CF809196
:101E100020028C7F99CF80911F0282FB992790F935
:101E200021E0922790FB82F990FB83F987CF809184
:101E30002002982F909591708E7F892B90FB81F9CD
:101E400083CF90911F02892F8F7B96FF806476CF7E
:101E50000E94110A90911F02892F97FB87F98058E1
:101E60006DCF61E08EE090E00E94501A60911F02F9
:101E70007091200284E090E00E946E1A0E94110A84
:101E800010CF60E0EFCF90911F02892F8F7E94FFDB
:101E9000806154CF90911F02892F8E7F90FF8160C7
:101EA0004DCF90912002892F877F93FF88604CCF80
:101EB00085E3D3C285E3E0C29E01205E3245203235
:101EC0003105A8F4811115C0CF7181E090E09C012B
:101ED00002C0220F331FCA95E2F7E901622F83E0A7
:101EE00090E00E94501ACE010E94FB07DACE8823B0
:101EF00081F0C3303CE7D30709F478C008F05BC039
:101F0000C1159CE7D90709F464C0C130DC4709F466
:101F100073C0F8018581C081D181882309F47AC01A
:101F2000CE010E941307F82E682FCE010E9487076A
:101F3000BE018F2D0E949E050E94BD05D82FC92F7E
:101F4000A82EF801C580B680B2943FE0B3228091FC
:101F5000B701877009F1EC2CCC20F9F0892F807F34
:101F6000803469F080E28D0F8830B0F0892F807E58
:101F7000803229F4F1E0FD1778F4BB2069F08091FC
:101F8000200282FF09C082E00E94D4078091B7013D
:101F90008770EE24E3948111E12CDC2ED2942FE0A3
:101FA000D2222BE02D1508F499C0ED2DF0E0EA5374
:101FB000F54E0C94E119CB35FCE7DF0749F1CC3540
:101FC0002CE7D207D9F0CA35DC4709F0A2CF81E06F
:101FD0001CC00E94110A8FEF94E3ECE08150904006
:101FE000E040E1F700C000000E9484096FEF7FEF3E
:101FF00090E080E00E946E1A0E94FE0C8091200208
:1020000082FB882780F991E089270E94A80981CF67
:1020100080E0FBCFCE010E945407F82E89CF3C2FE1
:102020003F70F32EC07F19F0F29490EFF922CC208C
:10203000B9F0FF2069F080E28D0F883010F0A11018
:1020400009C08091E201F82AF092E2010E94BF09E2
:102050008D2F42C08091B901F82AF092B901F6CFD4
:102060008D2F0E94250DFF20C9F1D05ED83010F0D1
:10207000A11004C08F2D0E94DB0606C0F094809151
:10208000B901F822F092B9010E94BF0927C08C2F34
:102090008F70F82EC07FC03219F0F29480EFF822D2
:1020A000AA2051F091E0A91609F460C0CC2009F4EF
:1020B0006CC0BB2081F1CCCF8091200282FD27C073
:1020C000CC20F9F0FF2039F08091E201F82AF0925B
:1020D000E2010E94BF0980E00E94580DED2DE850FA
:1020E000FF0B349708F090C10E94100420E0F80123
:1020F0004081518162817381848195810E94FB08B6
:10210000DFCD80E00E94250DFF2041F3B3CFCC202E
:1021100099F0B11004C08F2D0E941B0DDFCFE1E0BC
:10212000BE12DCCF8091B8019F2D9823F916B1F231
:10213000F82AF092B801D2CFB110D0CF8F2D0E94E3
:10214000140D9091B8018F2D892329F08F2D809542
:1021500089238093B801809187019F2D982309F4EA
:10216000BDCFF094F822F0928701B8CFCC2029F0AF
:10217000F5E0FB1508F4B2CFCECF24E02B1508F420
:10218000ADCF8F2D0E94140DA9CFBB20D1F339E321
:10219000A31209C08FEF97EEE3E081509040E0403A
:1021A000E1F700C000008D2F0E94250D97CF8C2FE6
:1021B00086958695837069F0813009F08FCF8D2FD9
:1021C0009C2F9370C11002C080E090E00E94C60373
:1021D00085CF8D2F9C2F9370C11002C080E090E0BE
:1021E0000E94EB037BCF6C2D8D2F0E94230876CFAE
:1021F0008C2F837009F03FC0C11070CF4D2F4295D6
:1022000046954770440F440F2D2F2F7030E0042E59
:1022100002C0220F331F0A94E2F790E080E0D4FF5F
:1022200009C08FE090E002C0880F991F4A95E2F73D
:1022300080959095C695C695C370C23099F078F494
:102240004091F2015091F301C13039F0822B932B70
:10225000842395230E94FB0741CF242B352B822B0F
:10226000932BF8CF822B932B2091F2013091F30125
:1022700082279327EFCF8695CC2011F08C2F817089
:10228000882309F42BCF4D2F429546954770440F74
:10229000440F2D2F2F7030E0042E02C0220F331F69
:1022A0000A94E2F790E080E0D4FF09C08FE090E06C
:1022B00002C0880F991F4A95E2F780959095C695C0
:1022C000C695C370C23099F078F44091F4015091F2
:1022D000F501C13039F0822B932B842395230E9482
:1022E000BD07FCCE242B352B822B932BF8CF822BD2
:1022F000932B2091F4013091F50182279327EFCFA2
:10230000CF70CC2029F08C2F0E94EB078D2F04CFAB
:102310008D2F0E94140D8C2F0E94C207DFCE8D2FAF
:10232000F2EFAF1699F1FA1570F020EFA216D1F086
:1023300031EFA31691F0CC2009F456C0B11088CE2D
:102340008C2F8F7127C093EFA91639F1E4EFAE12ED
:10235000F2CF9091200292FD2EC08C2F8F71CC2055
:10236000D9F218C0CC2069F0F4E0FB1508F4B6CE21
:10237000CF7181E090E002C0880F991FCA95E2F703
:10238000B8CF25E02B1508F4A9CEF2CF8C2F8F7192
:10239000C110C2CF0E94EB07A1CE90E080E0CC201C
:1023A00009F49DCFCF7181E090E002C0880F991FA2
:1023B000CA95E2F794CFCC2061F08C2F8F7192FFF9
:1023C000E9CF98E0899F9001112423602093B70101
:1023D000E1CF81E00E94D407E1E0EB1508F07ECE6A
:1023E00082E00E94D4077ACEBB2059F0893309F0ED
:1023F000DACEFFEF27EE33E0F15020403040E1F736
:10240000D0CE8C2F8F7188CFEE2009F46FCE8091C3
:10241000B70180FD6BCEF80115828695869586956D
:102420000E94EB07C8010E942D0E8091B70186958E
:10243000869586950E94C20759CEC631FCE7DF0714
:1024400009F03ACD8091E2018A7A91E009F490E0B6
:102450009093860181112CCD89E20E9492030E9403
:10246000BF091FCCC6312CE7D20709F025CD8091DA
:10247000860181111FCD89E20E946703F0CFCF93BF
:10248000DF938091B601807F09F04DC08091B50146
:10249000882309F448C0E091740250913B02C09136
:1024A000B101D091B0016091B2017091B30147E0E8
:1024B0005E17C9F18E2F90E0E49FF0011124E45CD7
:1024C000FD4F2481222391F1489FF001499FF00D97
:1024D0001124DF01A45CBD4F11962C9111972C1390
:1024E00025C02C912D1322C015962C9115972111E2
:1024F0001DC012962D913C91261B370B283C3105AF
:10250000A8F48091B6018F7080618093B601EE5B74
:10251000FD4F80818F708061808380EB91E00E940D
:102520002D0E0E940907DF91CF910895FC0131968D
:10253000E770BECFA4E1B0E0E0EAF2E10C94ED195F
:102540008C0186E0F801DE011F9601900D928A95BC
:10255000E1F7F8018481E58090EBA92E91E0B92E96
:102560009091B401911128C0882319F1EE20F1F067
:10257000C8010E940008F82E8823C1F087E0F80106
:10258000D50101900D928A95E1F78091B4018130D7
:1025900031F48091B0019091B1010E9447070E94EF
:1025A0003F128F2D6496ECE00C94091AC8010E942A
:1025B0002D0EFF24F394F5CFD080C18082809380CC
:1025C000F090B5012091B2013091B301A401421BFA
:1025D000530BFF2009F4D9C0483C510508F092C0C4
:1025E0008823F9F29091B1018091B601282F207FC4
:1025F00009F056C0C91214C09091B001D91210C090
:10260000E11048C08F7080618093B60180EB91E04B
:102610000E942D0E8091B601F8018683F12CC1CF66
:10262000E11038C06C2D8D2D0E94DF016C2D8D2D99
:102630000E94DF01E82E8111F1CFDF86C88A8F85E5
:1026400098890E944707292F22952F70243058F42B
:102650009F70223088F0992399F0F8019681907F3D
:1026600079F4FE2C9ECF2A5F2F70223068F0C801CB
:102670000E942D0EEF2CF5CF992311F0882389F3BA
:10268000805E883070F3F3CF803F58F3815F8330F2
:1026900070F7E7CF8091B60181608093B601BECF1D
:1026A000C91207C09091B001D91203C0EE2009F4FD
:1026B0008DC0C8010E940008882309F477CFEE205E
:1026C00009F474CF8091B601803288F02091B00176
:1026D0003091B101398728879B868A869091B40111
:1026E0009C871D868E87CE0108960E942D0E87E05E
:1026F000F801A0EBB1E001900D928A95E1F70E94FC
:102700003F1257CF9091B601292F207F51F480EBD3
:1027100091E00E942D0E87E0F50111928A95E9F76C
:102720007DCF882309F43DCF8091B1018C1110C079
:102730008091B001D8120CC0E1100AC09683C80184
:102740000E942D0E87E0F50111928A95E9F729CFB5
:10275000C8010E940008882309F428CFEE2009F45C
:1027600025CF8091B601803210F22091B0013091D6
:10277000B1013A8329839C828B829091B4019D831D
:102780001E828F83CE010196B0CF483C5105D0F612
:10279000882309F40ECFFE2CEE2009F407CF809198
:1027A000B1018C1120C08091B001D8121CC0809161
:1027B000B60180FD0FC0982F907F61F08683903F17
:1027C00031F0982F907F905F8F70892B8683C8019E
:1027D0000E942D0E87E0F801A0EBB1E001900D9270
:1027E0008A95E1F7DECEC8010E94000881117FCFF3
:1027F0008091B60181608093B601C8010E942D0EC0
:10280000D0CEABE1B0E0E7E0F4E10C94F5194E8BEB
:102810005F8B688F798F8A8F9B8F192F9111109200
:10282000B9011D8A86E0FE017696DE011F960190B1
:102830000D928A95E1F70A8D002341F021E04F8542
:10284000588969897A89C8010E94FB080B8B1C8B07
:1028500087E0FE013F96DE01189601900D928A9561
:10286000E1F7CE0108960E949A1281112AC087E0F2
:10287000FE013896DE01119601900D928A95E1F7DE
:102880008C858823F1F020913B0230E0C90101964C
:10289000877099274091740248171906E9F097E06C
:1028A000929FD001939FB00D1124A45CBD4FFE01F7
:1028B000319601900D929A95E1F780933B020E9428
:1028C000090717E08091740290913B02891312C0AE
:1028D0006B96E4E00C94111A0E94110A10923B02CC
:1028E0001092740287E0E0EBF1E0DF011D928A951F
:1028F000E9F7E7CF819FC0011124845C9D4F0E94BE
:102900009A12882329F38091740290E001968770CF
:10291000992780937402D6CFA6E0B0E0E2E9F4E113
:102920000C94F5190E9458038C018091E301909159
:10293000E4018017910781F019821A820E945803DE
:10294000682F49815A81792F80E090E00E9401141C
:102950001093E4010093E3012696E4E00C94111A2D
:10296000AAE0B0E0E6EBF4E10C94EB198E010F5F06
:102970001F4F8AE0F80111928A95E9F797E4E92E52
:1029800091E0F92E680166246394712C3BE5832E57
:1029900031E0932EF70181917F018F3F09F445C00B
:1029A000F894E82FE295EF70F0E021A18F70A30179
:1029B00002C0440F551F8A95E2F7CA01922F982B47
:1029C00091A392A18095892382A3789400C0ECE41E
:1029D000F1E021E030E0B12CA12C41914F3F09F40E
:1029E0004DC0A42FA295AF70B0E090968C9190E06E
:1029F0004F7002C0959587954A95E2F780FD3EC0DD
:102A0000C901A82AB92A220F331F8E169F0629F75B
:102A1000F701319780818F3F11F00E94960450EAB0
:102A20005A95F1F7F601B182A082F2E0CF0ED11CE7
:102A30004CE4E41641E0F40609F0ACCF4AE050E083
:102A4000B80188EE91E00E94841A892BE1F08AE0B7
:102A5000F801A8EEB1E001900D928A95E1F781E0CE
:102A60008093E7010E9458039093E6018093E5016B
:102A700010E0812F2A96EEE00C94071A90E080E097
:102A8000C0CF10E021C01091E701112389F3E0903D
:102A9000E501F090E6010E9458038E199F09059701
:102AA00038F34AE050E068EE71E086EF91E00E9472
:102AB000841A892B31F38AE0E8EEF1E0A6EFB1E069
:102AC00001900D928A95E1F71092E701D2CF1F9203
:102AD0000F920FB60F9211242F933F934F935F9352
:102AE0006F937F938F939F93AF93BF93CF93DF9316
:102AF000EF93FF93D091E900DF708091EC00C82F35
:102B0000C17080FDC0E81092E9008091F000877FDD
:102B10008093F00078940E94420A1092E90080911C
:102B2000F00088608093F000CD2BCF70C093E90057
:102B3000FF91EF91DF91CF91BF91AF919F918F91D5
:102B40007F916F915F914F913F912F910F900FBEA9
:102B50000F901F9018951F920F920FB60F9211248D
:102B60002F933F934F935F936F937F938F939F9395
:102B7000AF93BF93EF93FF938091E10082FF09C071
:102B80008091E20082FF05C08091E1008B7F8093FD
:102B9000E1008091DA0080FF24C08091D80080FF9E
:102BA00020C08091DA008E7F8093DA008091D90076
:102BB00080FFAAC080E189BD82E189BD09B400FE21
:102BC000FDCF81E08093310280912602811109C0FE
:102BD0000E94FE010E949F028091E2008460809327
:102BE000E2008091E10080FF1AC08091E20080FF46
:102BF00016C08091E2008E7F8093E2008091E20017
:102C000080618093E2008091D80080628093D80038
:102C100019BC85E08093310283E080930D0180919F
:102C2000E10084FF30C08091E20084FF2CC080E18D
:102C300089BD82E189BD99B5892F817090FFFBCF55
:102C40009091D8009F7D9093D8009091E1009F7E55
:102C50009093E1009091E2009F7E9093E20090912A
:102C6000E20091609093E20090913202992309F47E
:102C700051C094E09093310290913102943009F464
:102C800082E080930D018091E10083FF2CC0809150
:102C9000E20083FF28C08091E100877F8093E100FC
:102CA00082E080933102109232028091E1008E7FA7
:102CB0008093E1008091E2008E7F8093E20080911A
:102CC000E20080618093E20042E060E080E00E94E8
:102CD0006D028091F00088608093F00081E0809325
:102CE0000D0180930C01FF91EF91BF91AF919F91E6
:102CF0008F917F916F915F914F913F912F910F90A5
:102D00000FBE0F901F90189519BC109231021092AF
:102D1000260267CF9091E30097FD02C0982FAACFBB
:102D200093E0A8CF78941F921FB61F9211248F931F
:102D30009F93AF93BF938091220290912302A09121
:102D40002402B09125020196A11DB11D809322029B
:102D500090932302A0932402B0932502BF91AF91D8
:102D60009F918F911F901FBE1F9018951F921FB6A5
:102D70001F9211248F939F93AF93BF938091210251
:102D8000811113C08091220290912302A09124020C
:102D9000B09125024196A11DB11D8093220290930E
:102DA0002302A0932402B0932502BF91AF919F917B
:102DB0008F911F901FBE1F901895CDB7DEB72E972D
:102DC0000FB6F894DEBF0FBECDBF85B7806885BF54
:102DD00085B7806885BF84B7877F84BF0FB6F894B6
:102DE000A8958091600088618093600010926000D7
:102DF0000FBE80E890E00FB6F89480936100909346
:102E000061000FBE81E080930D0184E994E090930E
:102E10005D0180935C010E94FE010E949F028091EF
:102E2000E20084608093E2007894809131028823EC
:102E3000A1F01091E9001F709091EC00892F817032
:102E400090FD80E8182B1092E9008091E80083FD46
:102E50000E94420A1F701093E90082E084BD93E053
:102E600095BD9AEF97BD80936E0007E411E0D801FD
:102E70008D918D018F3F11F00E949604B1E00C34CA
:102E80001B07A9F70CE411E0F80181918F018F3F36
:102E900011F00E949604F1E00B351F07A9F78AE0B4
:102EA000E6EFF1E0DF01282F1D922A95E9F7E8EE21
:102EB000F1E0DF011D928A95E9F790E080E00E9441
:102EC0003A1A853E9E4F09F461C065EE7EEF90E0B0
:102ED00080E00E946E1A60E082E090E00E94501A4A
:102EE00081E090E09093F3018093F20161E083E050
:102EF00090E00E94501A60E074E184E090E00E944B
:102F00006E1A60E086E090E00E94501A60E087E070
:102F100090E00E94501A40E050E0BA0188E090E052
:102F20000E94621A60E083E290E00E94501A60E022
:102F30008CE090E00E94501A60E08DE090E00E94EA
:102F4000501A19821A821B821C821D821E821F82C5
:102F5000188648E050E067E170E0CE0101960E94DB
:102F6000401A40E050E0BA018FE190E00E94621AFE
:102F700040E050E0BA018FE090E00E94621A40E029
:102F800050E0BA0183E190E00E94621A82E090E092
:102F90000E94321A8093000284E090E00E943A1A64
:102FA0009093200280931F020E94B014EFEFF6E787
:102FB00021E0E150F0402040E1F700C000000E9415
:102FC000B0148091F60180FF08C06FEF7FEF90E0B2
:102FD00080E00E946E1A0E94840983E090E00E94C3
:102FE000321A90E00E94FB0780E091E090931C026F
:102FF00080931B024BE0642E42E0742E44244394E1
:103000002224239480913102853049F48091310249
:10301000853009F462C00E94110A0E9410040E94C7
:10302000B01421E0A22E22E0B22E36EF832E31E042
:10303000932ED401F501219131918D919D916E16C0
:103040007F0609F480C028173907A9F3512CD40151
:103050000D911D914D01F501C190D1905F01C016F8
:10306000D10659F1312CEE24E394F12CC026D1265F
:10307000C6018E219F21892BB1F039865A860E9484
:1030800058039C878B872D8691E098012E213F2144
:10309000232B09F490E09E8749855A856B857C85B2
:1030A0008D850E9401143394EE0CFF1CFFE03F124B
:1030B000DFCFF501329711830083539425E052123C
:1030C000C6CF8FB7F89440912202509123026091AD
:1030D0002402709125028FBF3CC080913102843060
:1030E00021F11092210288E190E0A0E40FB6F8945B
:1030F000A895809360000FBEA093600083B7817F86
:10310000846083BF83B7816083BF7894889583B7D9
:103110008E7F83BF0FB6F894A89580916000886178
:1031200080936000109260000FBE0E94B014E6EF22
:10313000F1E081919191892B09F003C1B2E0E03077
:10314000FB07B9F763CF2817390709F07FCF0E9433
:103150008C1486E0E3E1F2E0DE01119601900D921D
:103160008A95E1F7B0901402E0901502D090160213
:10317000C0901702F09018021092150210921602D9
:1031800010921702109218028E2D8D2909F447C053
:1031900000911102109112020E9458039C01201B01
:1031A000310B90910C02992309F4F2C025313105BD
:1031B000B0F19F3F19F09F5F90930C02EE2059F001
:1031C0000E9466049FEF1E140CF491E0899F802DED
:1031D000112480931502DD2059F00E94660491E0CD
:1031E0001D140CF09FEF899F802D112480931602EF
:1031F00080911502882399F010911602112379F01D
:103200000E948604882309F490C080931502812FC0
:103210000E948604882309F48BC0809316028C2DAB
:103220008F2909F447C000910F02109110020E94EB
:1032300058039C01201B310B90910D02992309F436
:10324000A2C021353105B0F19F3F19F09F5F9093E7
:103250000D02CC2059F00E9444049FEF1C140CF482
:1032600091E0899F802D112480931702FF2059F04F
:103270000E94440491E01F140CF09FEF899F802D61
:1032800011248093180280911702882399F01091DD
:103290001802112379F00E948604882309F44BC098
:1032A00080931702812F0E948604882309F446C068
:1032B00080931802809114028B1117C0809115021F
:1032C000882311F0E81211C020911602222311F078
:1032D0002D110BC090911802992311F0F91205C01D
:1032E00030911702332309F449C00E941D0486E07F
:1032F000FE013196A3E1B2E001900D928A95E1F7CB
:103300000E94100490910B02891709F47BCE8093E0
:103310000B028FB7F89440912202509123026091E2
:103320002402709125028FBF6DCE409215026FCF9F
:103330004092160274CF40921702B4CF4092180206
:10334000B9CF80913002882309F460CEE0E1E9BD75
:10335000F2E1F9BD09B400FEFDCF8091D8008F7D68
:103360008093D8008091E00082608093E00080919B
:10337000E00081FDFCCF0E94110A48CE822B892BF0
:1033800009F4B5CFB2CF2B30310508F05FCF92CF23
:103390002B30310508F00FCF42CF97FB072E16F4E4
:1033A000009407D077FD09D00E941E1A07FC05D0B3
:1033B0003EF4909581959F4F0895709561957F4F4C
:1033C0000895EE0FFF1F0590F491E02D09942F92C0
:1033D0003F924F925F926F927F928F929F92AF92A5
:1033E000BF92CF92DF92EF92FF920F931F93CF93F2
:1033F000DF93CDB7DEB7CA1BDB0B0FB6F894DEBF89
:103400000FBECDBF09942A88398848885F846E84AE
:103410007D848C849B84AA84B984C884DF80EE80F8
:10342000FD800C811B81AA81B981CE0FD11D0FB601
:10343000F894DEBF0FBECDBFED010895AA1BBB1BE4
:1034400051E107C0AA1FBB1FA617B70710F0A61BA4
:10345000B70B881F991F5A95A9F780959095BC01C5
:10346000CD010895F999FECF92BD81BDF89A9927B3
:1034700080B50895A8E1B0E042E050E00C94761ADF
:10348000DC01A40FB51F4150504048F0CB01840F20
:10349000951F2E910E94511A41505040D0F7089527
:1034A000262FF999FECF92BD81BDF89A019700B4FD
:1034B000021639F01FBA20BD0FB6F894FA9AF99A9D
:1034C0000FBE08950396272F0E94511A0E94501A8A
:1034D000252F0E94511A242F0C94511A0196272F40
:1034E0000E94511A0C94501ADC01CB01FC01F9998D
:1034F000FECF06C0F2BDE1BDF89A319600B40D9240
:1035000041505040B8F70895FB01DC0104C08D9193
:103510000190801921F441505040C8F7881B990B45
:103520000895F894FFCF250B4D0BEC0C4D0BEC0CD4
:10353000800BA10BEC0C9E0CAB0C690E6D0E4B0EB0
:10354000650E710E750E790ED50E4A0FDD0EA70EA3
:10355000AB0EE10EAF0EE50EF10EBB0E430FBF0E2C
:10356000F50EC30EF90E210FC70EFD0E280FCD0E5E
:10357000030F0B0FB30EE90EB70EED0ED10E070FB2
:10358000170F310F410FA10ED90E510F0F100F1051
:1035900047104710D710F3106E106E10F8108011FE
:0435A0008F118F11E7
:1035A40064037009690962095B09000001008182F2
:1035B40083E200E900EA00B500B600B700CD00835D
:1035C40001CC008A019201940121022302240225E4
:1035D40002260227022A02B300B4006F0070009F83
:1035E40001CB019F02A0029190F7F5F637F0F1F4B8
:0C35F400676636353497969495939200E4
:00000001FF
