:100000000C943A010C9457010C9457010C9457012D
:100010000C9457010C9457010C9457010C94570100
:100020000C9457010C9457010C949B200C946F2155
:100030000C94D11B0C9457010C9457010C9457014C
:100040000C9457010C9457010C9457010C945701D0
:100050000C9457010C94491C0C9457010C945701B3
:100060000C9457010C9457010C9457010C945701B0
:100070000C9457010C9457010C9457010C945701A0
:100080000C9457010C9457010C9457010C94570190
:100090000C9457010C9457010C9457010C94570180
:1000A0000C9457010C9457010C94570108001A0046
:1000B000000014001A000800150017001C001800AA
:1000C0000C001200130004001600070009000A00CB
:1000D0000B000D000E000F0028001D0000001B008B
:1000E00006001900050011001000360037001E0040
:1000F0001F002000000021002C00210020001F0014
:10010000007C1403660072006100730065007200D9
:10011000710061007A0000000E0369006300650051
:1001200061006700650000000403090409023B0048
:10013000020100A0FA0904000001030101000921E5
:100140001101000122440007058103080001090490
:100150000100010300000009211101000122B60085
:10016000070582032000011201000200000008EDD3
:10017000FE606001000102000105010902A1018584
:10018000020901A100050919012908150025019599
:1001900008750181020501093009311581257F9516
:1001A000027508810609381581257F95017508813A
:1001B00006050C0A38021581257F95017508810610
:1001C000C0C005010980A101850319012AB70015E6
:1001D0000126B700950175108100C0050C0901A129
:1001E00001850419012AA002150126A002950175B6
:1001F000108100C005010906A1018506050719E067
:1002000029E71500250195087501810205071900E8
:1002100029EF1500250195F07501810205081901E6
:100220002905950575019102950175039101C00598
:10023000010906A101050719E029E7150025019527
:1002400008750181029501750881010507190029CA
:10025000FF150026FF0095067508810005081901A5
:100260002905150025019505750191029501750374
:100270009101C00011241FBECFEFDAE0DEBFCDBF79
:1002800011E0A0E0B1E0E8E4F8E402C005900D92CE
:10029000A23AB107D9F723E0A2EAB1E001C01D926A
:1002A000AB33B207E1F70E94B6110C94E3230C9430
:1002B0000000811112C0643080F44A3070F4E42FE1
:1002C000F0E08AE0689FE00DF11D1124EE0FFF1FA2
:1002D000EE54FF4F85919491089581E090E0089548
:1002E0000E945901089581E090E00895892B19F446
:1002F00080E091E0089590E080E008950E9476010A
:10030000089581E008950E948101089581E0089593
:100310000E94810108950E948801089508950E9415
:100320008E010895A6E0B0E0E8E9F1E00C943F23E7
:1003300049835A839E833091A90189819A81311121
:100340001AC03E81332399F0222389F00E94F707D7
:10035000182F682F89819A810E94D30769817A8139
:10036000812F0E94530F2696E3E00C945B230E949A
:10037000E507182FF3CF0E94F70769817A81F1CF43
:10038000FC01262F87819085009741F4408151819F
:1003900062817381848195810E9492010895CF9337
:1003A000DF93EC0161E00E94C001BE010E94830165
:1003B000882359F061E0CE010E94C001BE010E9475
:1003C00098138170DF91CF91089580E0FACFCF9399
:1003D000DF93EC0160E00E94C001BE010E948F012A
:1003E000DF91CF91089521E030E0A90102C0440FD0
:1003F000551F8A95E2F7CA010E94F5060895CF932A
:10040000C82F81E090E00C2E02C0880F991F0A943B
:10041000E2F70E94AA0C8C2F0E94F301CF9108955D
:1004200081E008950E9410020895CF93C82F0E9482
:10043000A1068C2F0E9412022FEF84E39CE0215032
:1004400080409040E1F700C00000CF91089581E026
:100450000E9415020E946D1C089580E00E94150202
:100460000E947E1C08950F931F93CF93DF938C01FE
:1004700061E00E94C001EC01B8010E948B01811172
:1004800006C080E0DF91CF911F910F910895B801D0
:10049000CE010E9442198823A1F3B801CE010E9427
:1004A0007E15882371F3B801CE010E94541588236C
:1004B00041F3B801CE010E945710882311F3F801CF
:1004C0008581882361F0C330FCE7DF07E9F058F449
:1004D000C115ECE7DE07A9F0C130DC47B9F0C8016F
:1004E0000E948601CFCFCB358CE7D807A9F0CC3559
:1004F000ECE7DE0771F0CA35DC4789F70E94850C0E
:10050000EECF0E942702BDCF0E948D0C0E942D02CB
:10051000B8CF0E947B0CE3CF0E94890CE0CF0E94F1
:10052000A31B0E94D30208950E94D7020E94A81B19
:100530000895292F332740E02115310511F0C90115
:1005400048E09C0164E0369527956A95E1F721150E
:10055000310511F04C5FC9019C0136952795369500
:1005600027952115310511F04E5FC90196958795A4
:10057000892B09F04F5F842F089581E00895089535
:10058000CF93DF93D82F0E94BD02C82F882319F084
:100590008D2F0E94BF028C2FDF91CF910895089577
:1005A0000E94C002089580E00E94D00208950E9437
:1005B0008B190E94D0020895CF930E948B19C82FE7
:1005C0008091A4018C1779F0C093A4010E943D1C76
:1005D0006093A5017093A6018093A7019093A80151
:1005E0008C2F0E94D002CF910895AFE0B0E0EBEFE6
:1005F000F2E00C943E234A875B876C877D878E8769
:100600009F8791110E948B0B1F821886198686E0A6
:10061000FE013A96DE01119601900D928A95E1F75E
:100620008D8181110FC009811A812B813C814D81FF
:100630005E816F81788589850E94CE0A2F96E4E0DD
:100640000C945A23CE0101960E94CF018111EBCF69
:10065000F5CFFC012481213021F4808191810E9419
:1006600029080895662329F00E94DF160E94B21718
:1006700008950E943917FACFCF93C82F8823C9F065
:100680008238C9F40E94981981FD13C089E30E9441
:10069000BA1A0E941F0C2FEF87EE93E02150804082
:1006A0009040E1F700C0000089E30E94D41A0E9444
:1006B0001F0CCF9108958338A1F40E94981980FDF2
:1006C000F8CF83E50E94BA1A0E941F0C2FEF81EE2B
:1006D00094E0215080409040E1F700C0000083E5A5
:1006E000E4CF8438A1F40E94981982FDE2CF87E418
:1006F0000E94BA1A0E941F0C2FEF81EE94E0215045
:1007000080409040E1F700C0000087E4CECF8CEF3E
:100710008C0F813A70F48C2F0E942E1A882329F0B6
:100720008C2F0E94D41A0E941F0C8C2F0E94BA1A80
:10073000BECF80E28C0F883048F4C77081E001C0E2
:10074000880FCA95EAF70E946E0BB1CFEBE5EC0F6C
:10075000E33040F4F0E0E85AFE4F808190E00E94E0
:10076000C219A7CFE8E5EC0FEB3150F4F0E0EE0F43
:10077000FF1FEE5DFE4F808191810E94E71999CFA6
:1007800083E38C0F833108F094CF61E08C2F0E94BB
:1007900032038FCF882309F456C0823879F40E943F
:1007A000981981FF50C089E30E94BA1A0E941F0C59
:1007B00089E30E94D41A0E941F0C0895833859F4CB
:1007C0000E94981980FF3FC083E50E94BA1A0E94D8
:1007D0001F0C83E5EECF843859F40E94981982FFEC
:1007E00032C087E40E94BA1A0E941F0C87E4E1CF4E
:1007F0009CEF980F913AE8F290E2980F983050F4FD
:10080000877091E001C0990F8A95EAF7892F0E94BD
:10081000740BD1CF9BE5980F933028F490E080E0E3
:100820000E94C219089598E5980F9B3128F490E032
:1008300080E00E94E719089593E3980F933118F42C
:1008400060E00E94320308951F93CF93DF93182F27
:10085000EB010E943C03209739F4812F0E94CA03C8
:10086000DF91CF911F9108958FE99FE00197F1F7F4
:1008700000C000002197EFCF70E060E0893311F4F1
:1008800060E570E00E9424040895882321F00E940E
:100890006E0B0E941F0C0895882321F00E94740B98
:1008A0000E941F0C0895B0E0A0E0E9E5F4E00C948C
:1008B00039236C01D62FC72FFC01158106810295C3
:1008C0000F700E94640BE82E8823F9F0E12E1123AB
:1008D000E1F08C2F807F803461F080E28D0F8830D2
:1008E00008F18C2F807E803221F4D230D8F00023A2
:1008F000C9F08091190382FF15C082E00E944F0C5D
:100900000E94640B91E0E82EE926BC2EB2949FE091
:10091000B922FBE0FB15B8F1EB2DF0E0EB51FC4DFB
:100920000C942A23E12CF1CF0C2F0F70C07F11F013
:100930000295007F112399F0002359F080E28D0F7A
:10094000883010F0D11107C0802F0E946E0B0E94DA
:100950001F0C8D2F48C0802F0E947E0BF8CF8D2F4B
:100960000E94CA03002379F080E28D0F883010F0D6
:10097000D11104C0802F0E94740B03C0802F0E94ED
:10098000840B0E941F0CEB2DE850FF0B349708F0EE
:100990006BC10E948B190E94D002CDB7DEB7E9E08F
:1009A0000C9455232C2F2F70F22EC07FC03219F0DB
:1009B000F29480EFF822DD2341F0D130C9F1112308
:1009C00009F443C00023E9F0C4CF8091190382FDEC
:1009D00014C0112359F0FF2029F08F2D0E946E0BB7
:1009E0000E941F0C80E00E943C03CDCF80E00E945B
:1009F000CA03FF2041F28F2DBECF112369F00111F0
:100A000004C08F2D0E944504BECF013009F0BBCF3A
:100A10008F2D0E94A20BB7CF0111B5CF8F2D0E9451
:100A20004C048F2D0E94AE0B8F2D0E94920BABCFEA
:100A3000112321F0063008F0A6CFE3CF053008F0EF
:100A4000A2CF8F2D0E944C049ECF0023D1F3D93327
:100A500049F43FEF87EE93E0315080409040E1F75A
:100A600000C000008D2F0E94CA038DCF8C2F869569
:100A70008695837069F0813009F085CF8D2F9C2F8A
:100A80009370111102C080E090E00E94E7197BCFC3
:100A90008D2F9C2F9370111102C080E090E00E9476
:100AA000C21971CF612F8D2F0E9432036CCF8C2F12
:100AB0008370A1F5111167CF4D2F42954695477070
:100AC000440F440F2D2F2F7030E0042E02C0220F50
:100AD000331F0A94E2F790E080E0D4FF09C08FE072
:100AE00090E002C0880F991F4A95E2F78095909593
:100AF000C695C695C370822B932BC23049F058F42B
:100B0000C13019F00E9401073ECF0E94F8063BCF8A
:100B10000E940A0738CF0E94F50635CF869511232B
:100B200011F08C2F8170882309F42DCF4D2F429521
:100B300046954770440F440F2D2F2F7030E0042E40
:100B400002C0220F331F0A94E2F790E080E0D4FF46
:100B500009C08FE090E002C0880F991F4A95E2F724
:100B600080959095C695C695C370822B932BC23005
:100B700049F058F4C13019F00E946C0704CF0E946C
:100B8000630701CF0E947507FECE0E941907FBCEB6
:100B9000CF70112329F08C2F0E9431078D2F32CF77
:100BA0008D2F0E944C048C2F0E944107ECCED23F27
:100BB00041F160F4D03FB9F0D13F81F0112309F445
:100BC00043C00111C6CE8C2F8F711FC0D33F01F1DE
:100BD000D43FA1F78091190382FD24C08C2F8F711F
:100BE000112311F312C0112341F0053008F0CBCED0
:100BF0008C2F8F710E945307C6CE063008F0C3CEEB
:100C0000F7CF8C2F8F711111CFCF0E943107BBCE40
:100C1000112329F08C2F8F710E942507B4CE0E94DA
:100C20002007B1CE112331F063E08C2F8F710E9429
:100C3000310CA9CE81E00E944F0C023008F4A3CE03
:100C400082E00E944F0C9FCE002359F0D93309F067
:100C500009CFEFEFF7EE23E0E150F0402040E1F75D
:100C6000FFCE8C2F8F71A0CFEE2009F496CE0E947C
:100C7000600B80FD92CEF60115820E945A0B0E94F5
:100C80003107C6010E9468060E945A0B0E94410764
:100C900084CE0F931F93CF93DF93EC018F819885C0
:100CA000009781F00E94350E8C010E947E070E9401
:100CB000F406B801CE010E945304DF91CF911F9139
:100CC0000F910895688179818D810E943408ECCF5D
:100CD000CF93DF93EC018C81882399F0CE010E94A1
:100CE0003302811111C00E94640B882351F08D8161
:100CF000882339F08091190382FF03C082E00E94AB
:100D00004F0CDF91CF910895CE010E944906CE018C
:100D10000E94E701F6CF90E080E00E94C21990E0C7
:100D200080E00E94E7190E948B0B0E941F0C0E941A
:100D3000CE170E94B21708950E94EE1A0E948B06E9
:100D400008950E947B0B0E949C06089592959F70C7
:100D5000963091F058F4925F9F70923058F4803F33
:100D600019F030F4883E30F481E008959A5FF4CFB2
:100D7000843FD1F380E00895883EB0F3813FD1F7FE
:100D8000F3CFFC018481882371F0878190850097DF
:100D900029F00E94350E0E94A60608958081918157
:100DA0000E942908F8CF80E00895A6E0B0E0EBEDBE
:100DB000F6E00C9440232696E2E00C945C23A9E034
:100DC000B0E0E5EEF6E00C943E232996E4E00C94C6
:100DD0005A2308950E94E90608950E94EA06909316
:100DE000C1018093C001089508950E94ED06089501
:100DF0002091C0013091C101822B932B0E94ED06FE
:100E000008952091C0013091C101822393230E9453
:100E1000ED0608952091C0013091C10182279327EA
:100E20000E94ED0608950E94E90608950E941307A6
:100E300008950E9416079093BF018093BE01089504
:100E400090E080E00E941907089521E030E0A901B8
:100E500002C0440F551F8A95E2F7CA010E94190784
:100E6000089521E030E002C0220F331F8A95E2F797
:100E70008091BE019091BF01822B932B0E94190794
:100E8000089521E030E002C0220F331F8A95E2F777
:100E9000209530958091BE019091BF0182239323CC
:100EA0000E941907089521E030E002C0220F331F8D
:100EB0008A95E2F78091BE019091BF018227932726
:100EC0000E94190708952091BE013091BF01822B25
:100ED000932B0E94190708952091BE013091BF0104
:100EE000822393230E94190708952091BE01309117
:100EF000BF01822793270E94190708950895262F7E
:100F0000277091E001C0990F2A95EAF723E07695C2
:100F100067952A95E1F7660F771F660F771FFA012D
:100F2000E60FF71F50E040E0682F70E08191DF018D
:100F300011979B01042E02C0369527950A94E2F77B
:100F4000217021952827292328272C934F5F5F4F55
:100F50004430510559F70895A82FA77023E09695BE
:100F600087952A95E1F7880F991F880F991FFB0134
:100F7000E80FF91F50E040E080E0219130E00A2EB8
:100F800002C0369527950A94E2F721703327042E84
:100F900001C0220F0A94EAF7822B4F5F5F4F443063
:100FA000510559F70895262F943070F48A3060F473
:100FB000682F70E08AE0989F600D711D11244AEA45
:100FC00051E0822F0E947F070895292F943068F402
:100FD0008A3058F490E06AEA71E03AE0239F800D8D
:100FE000911D11240E94AC07089580E00895B0E09F
:100FF000A0E0EDEFF7E00C9439237C010091BE01F5
:101000001091BF018091C0019091C101082B192B53
:10101000CFE0D0E0CC24C394D12CBC2EC6010C2E42
:1010200002C0880F991F0A94E2F780239123892B2D
:1010300049F4219790F7B12C8B2DCDB7DEB7E9E0BD
:101040000C945523B7018C2F0E945F0F019789F3F1
:10105000F3CFCF93DF93EC010E94F707BE010E940C
:101060005F0FDF91CF9108951F93CF93DF93EB0133
:101070009091A901992339F0CB010E942908DF91B1
:10108000CF911F910895882369F0CB010E94F70743
:10109000182F682FCE010E94D307BE01812F0E9416
:1010A0005F0FEDCFCB010E94E507182FF6CFFF921F
:1010B0000F931F93CF93DF93C091C20189E0F82E65
:1010C0008091C3018C1305C0CDB7DEB7E5E00C9469
:1010D0005923D0E0FC9EF001FD9EF00D1124EC534D
:1010E000FE4F0081118122813381448155816681C7
:1010F000778180850E94DF062196C770E1CF0F932C
:101100001F9300910C0210910D0220910E0230915C
:101110000F024091100250911102609112027091E1
:101120001302809114020E94DF061F910F9108950F
:10113000CF93DF9380911202807F09F04DC08091A0
:101140001102882309F448C0E091C2015091C30103
:10115000C0910D02D0910C0260910E0270910F02AD
:1011600049E05E17C9F18E2F90E0E49FF001112451
:10117000EC53FE4F2481222391F1489FF001499FB7
:10118000F00D1124DF01AC53BE4F11962C91119735
:101190002C1325C02C912D1322C015962C91159738
:1011A00021111DC012962D913C91261B370B283C16
:1011B0003105A8F4809112028F7080618093120231
:1011C000E653FE4F80818F70806180838CE092E0D7
:1011D0000E9468060E945708DF91CF910895FC0194
:1011E0003196E770BECF482F2091C2019091C30184
:1011F00059E0291302C080E0089530E0529FF001C9
:10120000539FF00D1124EC53FE4F8181681306C0EB
:101210008081481303C085818111EECF2F5F3F4F3E
:101220002770E7CFA8E1B0E0E8E1F9E00C943623BD
:101230008C0186E0F801DE01539601900D928A95AB
:10124000E1F7F8018481E5809CE0A92E92E0B92EB7
:101250009091100291111FC08823D1F0EE20A9F0C7
:10126000C8010E94C106F82E882379F089E0F801B0
:10127000D50101900D928A95E1F7C5010E942903DD
:101280000E9498080E947F0868C0C8010E946806F2
:10129000FF24F39462C0C080D18082809380F0905C
:1012A000110220910E0230910F02A401421B530B38
:1012B000FF2009F420C1483C510508F0BFC0882335
:1012C00009F44BC090910D0280911202282F207FCB
:1012D00009F065C09D111FC090910C02C9121BC07E
:1012E0004091130250911402278130854217530711
:1012F00091F4E1104EC08F708061809312020E94C1
:101300007F088CE092E00E94680680911202F8014A
:101310008683F12C22C0E1103CC06D2D8C2D0E94E3
:10132000F3086D2D8C2D0E94F308E82E8111F1CF6A
:10133000CB8ADC8A8B899C890E942908292F2295D7
:101340002F70243078F49F702230A8F09923B9F0E0
:10135000F8019681907F99F4FE2C8F2D6896ECE031
:101360000C9452232A5F2F70223068F0C8010E942B
:101370006806EF2CF1CF992311F0882369F3805E82
:10138000883050F3F3CF803F38F3815F833070F7BC
:10139000E3CF80911202816080931202BACF9D1137
:1013A0001CC090910C02C91218C0409113025091B8
:1013B0001402278130854217530779F4E1100DC0DC
:1013C0008683C8010E94680689E0F801ACE0B2E0BB
:1013D00001900D928A95E1F755CFC8010E94C10690
:1013E000882309F452CFEE2009F44FCF80911202E6
:1013F0008032B8F020910C0230910D023B872A8791
:101400009D868C86909110029E871F86888B809186
:101410001302909114029A8B898BCE010A960E9436
:10142000680689E0F801ACE0B2E001900D928A957F
:10143000E1F70E9498080E947F082ACF909112023B
:10144000292F207FA1F4682D9E8A8D8AA6017E898E
:101450009E2D0E94D5068CE092E00E94680689E0ED
:10146000F50111928A95E9F70E947F0852CF8823EF
:1014700009F473CF80910D028D1119C080910C0277
:10148000C81215C040911302509114022781308573
:101490004217530761F4E1100AC09683C8010E9405
:1014A000680689E0F50111928A95E9F756CFC801DF
:1014B0000E94C106882309F4E8CEEE2009F4E5CEA7
:1014C00080911202803208F4ACCF20910C0230914E
:1014D0000D023A8329839C828B82909110029D8316
:1014E0001E828F83809113029091140299878887BE
:1014F000CE01019694CF483C510508F041C08823A5
:1015000009F4C6CEFE2CEE2009F4BFCE80910D0268
:101510008D1128C080910C02C81224C020911302A2
:10152000309114028781908528173907D9F490915A
:10153000120290FD0EC0907F61F0809112028683AE
:10154000903F09F43ECF982F907F905F8F70892B4A
:1015500037CF89E0F801ACE0B2E001900D928A95B6
:10156000E1F7FBCEC8010E94C10681115ACF8091DC
:101570001202816080931202C8010E946806EDCEBB
:10158000682D9E8A8D8AA6017E899E2D0E94D50691
:1015900089E0F50111928A95E9F774CEA2E1B0E0F5
:1015A000E4EDFAE00C943D230A871B872C873D87E6
:1015B0004E875F87688B798B8A8BCE010A960E9453
:1015C00012098823C9F04E85442351F00A851B85F2
:1015D0002C853D855F85688979898A890E94DF0627
:1015E00089E0F82E8091C2019091C30189133DC01A
:1015F0006296E5E00C94592389E0FE013A96DE01FB
:10160000119601900D928A95E1F78E85882341F31A
:101610002091C30130E0C90101968770992740915C
:10162000C2014817190699F099E0929FD001939F43
:10163000B00D1124AC53BE4FFE01319601900D92B6
:101640009A95E1F78093C3010E945708C9CF0E9481
:10165000A1061092C3011092C20189E0ECE0F2E011
:10166000DF011D928A95E9F7BBCF8F9DC001112440
:101670008C539E4F0E941209882309F4B9CFE09140
:10168000C201FE9EF0011124EC53FE4F0081118136
:1016900022813381448155816681778180850E94D2
:1016A000DF068091C20190E00196877099278093B0
:1016B000C20198CF80913D028695869586950895C2
:1016C00080913D028770089590913D02977081E06E
:1016D00009F480E00895809169020895909169026B
:1016E000892B8093690208958095909169029823CF
:1016F000909369020895109269020895909168028A
:10170000892B8093680208958095909168029823B0
:1017100090936802089510926802089508950E94B7
:101720008E0B089590913E02292F282331F0809549
:10173000892380933E020E948F0B089508950E9492
:101740009E0B089590913F02292F2823281729F0F6
:10175000982B90933F020E949F0B089590913F0217
:10176000292F282331F08095892380933F020E94FE
:101770009F0B089580913F02882329F010923F0229
:1017800080E00E949F0B0895CF93C09169028091E1
:101790006802C82B80913F02882331F0C82B0E9439
:1017A0000C1A81110E94BA0B8C2FCF910895CF9300
:1017B000DF93C0910901D0910A010E94C40B888374
:1017C000C0910901D0910A0148E050E065E372E060
:1017D000CE010E947B23892B59F088E0FE01A5E30E
:1017E000B2E001900D928A95E1F7CE010E949B191B
:1017F000DF91CF910895CF93DF93C0910701D091EE
:1018000008010E94C40B8983C0910701D09108018F
:1018100040E250E065E172E0CE010E947B23892B1B
:1018200059F080E2FE01A5E1B2E001900D928A95A7
:10183000E1F7CE010E94A619DF91CF9108950E9491
:101840007E1B813039F48091180387FF03C00E940A
:10185000FB0B08950E94D70B089508950E942D0C4C
:1018600008959091190392FF11C098E0899F90010B
:101870001124622B60933D020E94310780913D024A
:101880008695869586950E942E0C08950E943107B4
:10189000089510923D0280E00E942E0C08959091D0
:1018A0003D028095892380933D02282F277069F49B
:1018B000891759F09091190392FF07C08695869574
:1018C00086950E9441070E94490C08959091190342
:1018D00092FB222720F9281769F080FB92F9909358
:1018E000190380911803909119030E94B50C82E0AE
:1018F0000E944F0C08958091190382FB882780F97C
:1019000091E089270E94660C089581E00E94660C90
:10191000089580E00E94660C08956FEF7FEF90E0DD
:1019200080E00E94CD23089590E080E00E949923FA
:1019300021E0853E9E4F09F020E0822F089582E04D
:1019400090E00E949123089583E090E00E9491230B
:1019500090E00895682F83E090E00E94AF230895FF
:1019600084E090E00E9499230895BC0184E090E017
:101970000E94CD230895AB01BC018FE090E00E944E
:10198000C1230895AB01BC0183E190E00E94C12313
:10199000089560E070E0CB010E94C20C089560E001
:1019A00070E0CB010E94BB0C0E94C90C0895A8E016
:1019B000B0E0EDEDFCE00C94402365EE7EEF90E0AE
:1019C00080E00E94CD2360E082E090E00E94AF239F
:1019D00081E090E09093C1018093C0010E94AA0C25
:1019E00060E074E184E090E00E94CD2360E086E056
:1019F00090E00E94AF2360E087E090E00E94AF2378
:101A000040E050E0BA0188E090E00E94C12360E02D
:101A100083E290E00E94AF2360E08CE090E00E94BF
:101A2000AF2360E08DE090E00E94AF2319821A821C
:101A30001B821C821D821E821F82188648E050E095
:101A400067E170E0CE0101960E949F2340E050E0E4
:101A5000BA018FE190E00E94C1230E94CF0C28962A
:101A6000E2E00C945C230E94D70C0895682F8EE06E
:101A700090E00E94AF230895A6E0B0E0E2E4FDE02C
:101A80000C943E230E94311C8C0180916A0290913B
:101A90006B028017910781F019821A820E94311C13
:101AA000682F49815A81792F80E090E00E94F502E9
:101AB00010936B0200936A022696E4E00C945A237A
:101AC0000E943D1C609378027093790280937A02A1
:101AD00090937B02609374027093750280937602F8
:101AE000909377020895089508950E94730D0895C4
:101AF00008950E94780D089585E590E10E94CB112C
:101B00000E94740D0E94750D089581E008950E9451
:101B1000850D08950E94850D0895089508950E94E9
:101B20008D0D0E948E0D08950E94940C811102C0AB
:101B30000E94330D0E949F0C80937C020E94B00C87
:101B400090931903809318030E94EE110E94A40C35
:101B50000E94F5068091BE019091BF010E94160778
:101B600008950E94281C0E9426110E94940D0E9434
:101B7000CF020E94790D0895A6E0B0E0E2ECFDE00E
:101B80000C9434230E94870D81110CC00E943C0DDF
:101B90000E9451130E94F0170E94DC022696EEE08C
:101BA0000C9450230E943C112CE6822E22E0922EAF
:101BB000640110E0F601E190F1906F01812F0E9425
:101BC00071101F5F143009F44BC0E816F90691F349
:101BD00080917C0281FD0E947A100E948A0D782EED
:101BE00010E066246394812F0E9471107C01F4013F
:101BF000A190B1904F018A159B0561F100E0CC24C2
:101C0000C394D12CAE24BF24C5018C219D21892BE6
:101C1000C1F07720B1F009831A830E94311C9C83A4
:101C20008B836D8221E0C7018C219D21892B09F4D2
:101C300020E049815A816B817C818D81922F0E94A5
:101C4000F5020F5FCC0CDD1C0A30F1F6F40132977F
:101C5000F182E0821F5F143031F60E94600D98CF50
:101C6000E816F90609F0B4CF91CF1F93CF93DF9315
:101C70000E94640FEC01C11580E5D807F0F5C1158D
:101C800080E4D80708F09CC0C03ED10520F5CD3CCB
:101C9000D10508F082C0C83AD10578F4C53AD1051B
:101CA00008F073C0C130D10519F1209709F1C43093
:101CB000D105F0F4D0E0C0E01BC0C33CD105D0F7A3
:101CC000C85AD0E0CC0FDD1FC55ADE4F0990D8812D
:101CD000C02DD4640DC0C11580E2D80708F0D1C072
:101CE000C11581E0D80708F05AC0C83ED10510F7E9
:101CF000CE01DF91CF911F910895C03682E5D807BC
:101D000018F5C03482E5D80708F06BC0C03282E510
:101D1000D80708F05FC0C11582E5D80708F497C05E
:101D20002C2F2695269580E2289F900111248C2F38
:101D30008370C1E0D0E002C0CC0FDD1F8A95E2F7CE
:101D4000C22BD32BDD68D4CFC03A82E5D80760F42C
:101D5000C03882E5D80708F459C0CF71D0E0DC2F35
:101D6000CC27C46FD06AC4CFC03C82E5D80708F442
:101D700062C0C03E82E5D80708F09CCFDC2FCC279C
:101D8000CC27DF71C06FD06AB3CFC55AD0E0CF5631
:101D9000DE4FC881D0E0D064ABCFD065A9CF8D2F06
:101DA0000E940610182FCE0199270E94640FC12FA0
:101DB000D0E0DC2FCC27CC27DF71C82BD92B98CFD4
:101DC000CE0199270E94640FCC27DF70C82BD92B36
:101DD000D06A8ECFCF71D0E0DC2FCC27C16FD06A14
:101DE00087CF2C2F26952695277080E2289F90017B
:101DF00011248C2F8370C1E0D0E002C0CC0FDD1F16
:101E00008A95E2F7C22BD32BDC6872CF2C2F269554
:101E10002695277080E2289F900111248C2F8370D3
:101E2000C1E0D0E002C0CC0FDD1F8A95E2F7C22BE3
:101E3000D32BDA685DCF8C2F8F710E940610C82FCC
:101E4000D0E0DC2FCC27CC27DF71D06251CF8C2F94
:101E50008F710E94061055E0D695C7955A95E1F707
:101E6000CF70D0E0DC2FCC27282F30E084FF05C0D6
:101E700044E0220F331F4A95E1F7C22BD32BD069E0
:101E800037CF8D2F8F710E940610182FCE01992702
:101E90000E94640FC12FD0E0DC2FCC27CC27DF714C
:101EA000C82BD92BD2CF462F743030F46A3020F4AF
:101EB000672F0E947001089590E080E008950E94CD
:101EC000530F0E94350E089582389105B9F1B0F490
:101ED0008133910509F47DC048F48932910509F4F4
:101EE0006DC08A32910509F47BC008958533910550
:101EF00009F45FC08933910509F10895833E910586
:101F0000D9F138F4803E910529F1823E910579F1AD
:101F10000895863E9105D9F1873E910509F43EC0AA
:101F2000843E910541F52091190321FF24C0809141
:101F3000180384FD19C087EE90E0089520911803DE
:101F4000237009F05AC02091190323FF14C089E2BD
:101F500090E008952091180320FD38C030911903B6
:101F600030FF09C024FF43C090E080E00895209135
:101F7000180322FDF7CF08952091180322FD3AC0DF
:101F80003091190330FD39C024FFF5CFEDCF2091FA
:101F9000180323FFF0CF24FDE7CFCDCF2091180306
:101FA00023FD2EC03091190331FFEECF84EE90E077
:101FB00008952091180325FFDECFC9CF2091180383
:101FC00025FD21C02091190323FFD5CF89E390E09F
:101FD000D2CF2091180326FFCECF8AE290E0089559
:101FE0002091180326FFC7CF81E390E0089583EE88
:101FF00090E0089582EE90E0089580EE90E00895DC
:1020000086EE90E0089585E390E00895909118039E
:1020100092FF10C041E0282F2471243009F040E0E5
:1020200031E0282F2871283009F030E0431711F0F3
:102030002CE0822793FF10C041E0282F2471243127
:1020400009F040E031E0282F2871283109F030E014
:10205000431711F02CE082273091190330FF10C094
:1020600051E0282F2171213009F050E041E0282F64
:102070002871283009F040E0541711F029E0822738
:1020800031FF10C041E0282F2171213109F040E0DB
:1020900031E0282F2871283109F030E0431711F082
:1020A00029E0822794FD877E089580E00895CF93EC
:1020B0009C01205E3245C1E02032310538F4FB013D
:1020C000C581C11103C08F710E94FF018C2FCF9178
:1020D000089508950E946910089508950E946D1052
:1020E0000895E82FF0E0EE0FFF1FEE5DFC4F8081BA
:1020F00091810895089580EA8A95F1F7089500C0C6
:1021000008950E947B100895F894E82FE295EF70EF
:10211000F0E031A1282F2F7081E090E001C0880FFE
:102120002A95EAF7982F9095932391A392A1892B52
:1021300082A378940895CF93DF9385E90E94841059
:1021400084E90E94841086E90E94841086E60E9439
:102150008410C4E9D1E089918F3F11F00E9484106E
:1021600081E0CE39D807B9F7DF91CF910895AF92CA
:10217000BF92DF92EF92FF920F931F93CF93DF9363
:102180008C01D62EC62FD0E0CE0182569E4F7C0108
:10219000FC0120812F3F09F44CC0F894E22FE29516
:1021A000EF70F0E031A12F7081E090E001C0880F66
:1021B0002A95EAF7932F982B91A392A180958923D2
:1021C00082A378940E947F10E4E9F1E041E050E0BE
:1021D000B12CA12C21912F3FB1F1A22FA295AF706C
:1021E000B0E090968C9190E02F7002C09595879505
:1021F0002A95E2F780FD27C0CA01A82AB92A440F10
:10220000551F81E0EE39F80729F7F70180818F3FEC
:1022100011F00E94841061E0A114B10409F460E09F
:102220008D2D0E948110CC0FDD1FC00FD11FB982F0
:10223000A882DF91CF911F910F91FF90EF90DF90D7
:10224000BF90AF90089590E080E0D7CF0E949B10A0
:1022500088E0E2E2F3E0DF01982F1D929A95E9F71A
:10226000EAE1F3E0DF011D928A95E9F784E00E943C
:1022700077110E946A100895A8E0B0E0E2E4F1E16D
:102280000C943D238E010F5F1F4F88E0F8011192DF
:102290008A95E9F7F12C6F2DC8010E94B710F394CD
:1022A000F4E0FF12F8CF48E050E0B8018AE193E093
:1022B0000E947B2321E0009709F420E0892B41F064
:1022C00088E0F801AAE1B3E001900D928A95E1F768
:1022D00044E062E273E08AE193E00E947811182FF3
:1022E0000E946E10812F2896E5E00C9459230895E2
:1022F000B0E0A0E0EEE7F1E10C943A236C017B0141
:10230000042FC22F222379F081E080937F020E9464
:10231000311C90937E0280937D0280E0CDB7DEB7C2
:10232000E8E00C945623D0917F02DD23B1F3809135
:102330007D0290917E020E94C01B059770F310E011
:10234000000F111FA801B601C7010E947B23892B32
:1023500031F0A801B601C7010E948823CD2F109249
:102360007F028C2FDBCF0E94BC0D08950E94CA1BF8
:102370000E94D21D0E947C0D0E94EC1D0E94B10D96
:102380000E94F91D0E94FE1D0E94B3110E94181E9A
:102390000E948F0DF7CF9093A3018093A20108951F
:1023A0000E948D0C089580E00E9471108170089544
:1023B0000E943C112FEF86E791E021508040904031
:1023C000E1F700C000000E943C110E94D311882355
:1023D00021F00E94D0110E946D1C08950E94D81116
:1023E00008950895EF92FF920F931F93CF93DF9379
:1023F0008091F302882361F0E09180028DE0F82E55
:102400008091F302E81748F01092F30210928002D4
:10241000CDB7DEB7E6E00C945823EE24E394EE0E3D
:10242000E0928002CE2FD0E0EF9DF0011124E5571D
:10243000FD4F84818823B1F087819085892BA1F499
:10244000818592858F3F980779F061E00E94F111B4
:10245000FC9EF001FD9EF00D1124E557FD4F148206
:102460000E948B0BEE2DCCCF008111812281338114
:10247000448155816681778180850E94CE0AE8CFAC
:102480000895CF93DF931092F5021092F402D0E0FA
:10249000C0E00E947301C817D90718F0DF91CF91EF
:1024A0000895CE010E947E01FC018581811102C048
:1024B000148216822196EDCF1F93CF93DF93109154
:1024C000890220918A022117D1F0C12FD0E0FE01AC
:1024D000EE0FFF1FEF57FD4F4081518148175907FD
:1024E00091F40E947E0121E0FC0124838091890205
:1024F000811305C02196C370DD27C0938902DF9147
:10250000CF911F91089521961C2F1370DCCFB0E05E
:10251000A0E0EDE8F2E10C943523EB012C812111D0
:1025200053C07090F302ABE8B2E030E020E0812CC1
:1025300061E070E0271508F045C01B96CD90DC9057
:102540001C97A880B9804FEF5FEF912CE92CF12CFC
:10255000F701EE0FFF1FEA0DFB1D05911491C01648
:10256000D10609F4A7010115110511F09394EECFDE
:102570004F3F540789F1FB0102C0EE0FFF1F4A9540
:10258000E2F78E2AAB01092C02C0440F551F0A94B2
:10259000E2F74150510984161506D9F44A815B814E
:1025A0006DE0629FF001639FF00D1124E557FD4F30
:1025B0005087478324E02483108211829287818789
:1025C00021E02D830E945C12CDB7DEB7EDE00C94C4
:1025D000512314961C9214972F5F3F4F1D96AACF3C
:1025E0000F931F93CF93DF93C091890280918A024A
:1025F0008C1309C00E94F2110E944112DF91CF9109
:102600001F910F910895D0E08E01000F111F0F57F9
:102610001D4FF801808191810E947E01BC01F8016B
:10262000808191810E9487122196C370DFCFEF9243
:10263000FF921F93CF93DF93FC012081318110E043
:1026400040E050E0E52FF0E0EE0FFF1FE20FF31F38
:10265000A591B4911097B9F0FB01C081D18140E000
:1026600005C0AE15BF0509F411E04F5FE42FF0E09F
:10267000EE0FFF1FEC0FFD1FE590F490E114F10445
:1026800081F75F5FDFCF112349F0451708F4CB01D5
:10269000DF91CF911F91FF90EF90089590E080E03F
:1026A000F7CF80910B01882341F18091F602909140
:1026B000F702009711F10E94C01B2091F4023091A3
:1026C000F50228173907C8F49091890280918A028F
:1026D000981759F00E94F0121092F5021092F4022D
:1026E0001092F7021092F60208950E94F2111092D1
:1026F000F7021092F6020E94411208951092F7021A
:102700001092F60210920B0180918A028093890246
:102710000E9441120E94F211089580910B018823BA
:1027200019F00E947E13089581E080930B010895B3
:10273000ACE0B0E0EEE9F3E10C9430234C016B0126
:1027400080352CE7920761F4FB0115811123E9F034
:1027500081E080930B01812F2C96E2E10C944C23B5
:102760008135FCE79F0739F4FB011581112369F0DE
:102770000E947E13F0CF82359C4739F4FB0115810E
:10278000112319F00E948D13E6CF2091BE013091E4
:10279000BF018091C0019091C101822B932B0E94B7
:1027A0009902182F0E944012181731F0F60160812B
:1027B00071810E94530F4C01B12CA12C1C86662400
:1027C0006394712CCE0101969B878A870E947301C6
:1027D000A816B906C0F1F6018581882309F452C113
:1027E000FC85FF2309F44EC10E94311C9093F7022F
:1027F0008093F6028091F302883008F591E0980FFB
:102800009093F30299E0F601DE01119601900D928A
:102810009A95E1F72DE0829FC001112485579D4FC5
:1028200029E0FE013196DC0101900D922A95E1F735
:102830002FEF3FEFFC0132872187948683861C852A
:102840001095117088CFC5010E947E017C01FC01AA
:102850004081518144244A94542C60E0262F30E07A
:10286000F901EE0FFF1FE40FF51F85919491881673
:10287000990609F42901892B11F06F5FEFCF80E0F1
:10288000FFEF4F165F0609F448C0F701448130900E
:102890000B01832D411180E0F82FF1703F2EF701DD
:1028A00025808681F6019581992309F487C033201C
:1028B00009F484C0211016C09301042C01C0220F1A
:1028C0000A94EAF7822BF70186838091F4029091B3
:1028D000F502883C910530F488EC90E09093F50285
:1028E0008093F402C30102C0880F991F6A95E2F732
:1028F0000197F70126812817190691F58091F602B4
:102900009091F702009781F00E94C01B893C9105CD
:1029100058F021E0F701248381E0FC85F82BFC8747
:102920002FEFA21AB20A52CF2090890290E080E0E5
:1029300020918A02221216C0E816F90689F0422C6C
:10294000512CF201EE0FFF1FEF57FD4FB182A08215
:102950002FEF421A520A83E04822552440928A02FD
:10296000832DDBCF422C512CF201EE0FFF1FEF57CE
:10297000FD4F808191810E947E018C01B7010E94F0
:1029800017130097A1F021E0FC012483E816F90653
:1029900039F32091890222120AC00817190739F465
:1029A00092012F5F3F4F2370332720938902EFEF6F
:1029B0004E1A5E0AF42DF3702F2EBACF90E021103C
:1029C0001FC0930102C0220F331F6A95E2F7215006
:1029D00031092817390731F4442309F451C0C501DE
:1029E0000E945C12C301042C01C0880F0A94EAF70C
:1029F000982F9095F701868189238683322CB0CF5A
:102A0000AC01042C02C0559547950A94E2F7BA012F
:102A1000617077279C012150310982239323892BF0
:102A200059F5672B49F1F70182819381892BF9F0E0
:102A3000EA85FB8527E011922A95E9F70E94311C6F
:102A4000282F8B839C8384E08D83F701828193817F
:102A5000782F8887998709811A813C8144E05E81BB
:102A60006F81892F0E94CE0AF7011582BBCF60E0EB
:102A7000C5010E94F111F8CFF42FF1702F2EB2CFC3
:102A8000232CB0CF9091890280918A02981719F077
:102A90000E94F012D4CE0E94F2111092F70210920E
:102AA000F6020E944112CBCECF93DF93EB01863129
:102AB0009C4711F50E946B0B9D81992399F08A7AAE
:102AC00091E009F490E09093F802811109C089E245
:102AD0000E94BA1A0E941F0C80E0DF91CF910895E6
:102AE00085E3F6CF8091F802811104C089E20E944B
:102AF000D41AF0CF85E3FBCF81E0EFCFCF93DF9304
:102B0000EC01FB018581882309F4D2C09E01305776
:102B10002332310508F0B2C00E94B00C9093190323
:102B200080931803FE01E150F047E232F10520F4F2
:102B3000EF50FC4D0C942A23809118038160809300
:102B4000180393C0809119038860809319038DC086
:102B5000809118038260F3CF809118038460EFCFD7
:102B6000809118038860EBCF809119038160EDCFCD
:102B7000809119038260E9CF809118038061DFCFD3
:102B8000809118038062DBCF809118038064D7CFD7
:102B90000E94A106809118038068D1CF809118030C
:102BA0008C60CDCF809119038360CFCF80911803C3
:102BB0008E7FC5CF80911903877FC7CF809118037F
:102BC0008D7FBDCF809118038B7FB9CF8091180383
:102BD000877FB5CF809119038E7FB7CF809119037E
:102BE0008D7FB3CF809118038F7EA9CF809118037A
:102BF0008F7DA5CF809118038F7BA1CF0E94A10666
:102C0000809118038F779BCF80911803837F97CF94
:102C1000809119038C7F99CF8091180382FB9927AB
:102C200090F921E0922790FB82F990FB83F987CFFE
:102C300080911903982F909591708E7F892B90FB2E
:102C400081F983CF90911803892F8F7B96FF806441
:102C500076CF0E94A10690911803892F97FB87F9E0
:102C600080586DCF81E00E94360D809118039091BD
:102C700019030E94B50C0E94A10680E0DF91CF915C
:102C8000089580E0F0CF90911803892F8F7E94FFF4
:102C9000806155CF90911803892F8E7F90FF8160BE
:102CA0004ECF90911903892F877F93FF88604DCF76
:102CB00081E0E4CF282F35EB2303C001112497FFD7
:102CC00004C080589109892F089580589F4FFBCFE9
:102CD0008091FF0280FF0DC06091110170E0660FCE
:102CE000771F6038710570F56115710569F1862FE0
:102CF000089581FF07C06091110184E0689FB001D1
:102D00001124EFCF6091110182FD0AC08091FE0273
:102D10008823A9F02091100160911101821710F011
:102D200088E0ECCF869FC001112433E0880F991F03
:102D30003A95E1F7622F70E00E941623D2CF68E047
:102D400070E0D5CF8FE7089581E008958091FF026C
:102D500080FF0CC060910D0170E0759567957595C9
:102D600067956115710549F1862F089581FF06C0A9
:102D700060910D0170E075956795F3CF60910D013D
:102D800082FD0BC09091FD029923A1F060910C018E
:102D900080910D01961738F0682F70E0603871054A
:102DA00000F38FE70895899FC001112470E00E940D
:102DB0001623F4CF61E070E0D7CF81E008958D3C19
:102DC00031F40E94681681958093030308958E3C28
:102DD00019F40E946816F8CF8F3C31F40E946816EF
:102DE0008195809302030895803D19F40E9468162E
:102DF000F8CF893D29F40E94A61680930403089514
:102E00008A3D21F40E94A6168195F7CF8B3D31F4BF
:102E10000E94A61681958093050308958C3D19F4B0
:102E20000E94A616F8CF9FE2980F983070F4815D4B
:102E3000990B21E030E001C0220F8A95EAF78091DA
:102E40000103822B8093010308958D3D31F480911D
:102E5000FF0281608093FF0208958E3D21F48091EE
:102E6000FF028260F7CF8F3DB9F78091FF02846047
:102E7000F1CF409102038D3C59F48091030387FF09
:102E80000DC01092030341110BC01092FE0208C046
:102E90008E3C81F48091030318169CF3442381F047
:102EA0008091040390910503892B09F05AC0109278
:102EB000FD0208958F3C49F447FFF0CF10920203C2
:102EC000809103038111ECCFE0CF803D19F41416FB
:102ED000ACF3E4CF90910403893D29F41916F4F67C
:102EE00010920403DBCF8A3D19F497FFD7CFF8CFB8
:102EF000909105038B3D29F497FFD0CF10920503E5
:102F0000CDCF8C3D19F41916CCF3C8CF9FE2980FA2
:102F1000983090F4815D990B21E030E0B90102C056
:102F2000660F771F8A95E2F7CB0180959091010398
:102F3000892380930103B2CF8D3D31F48091FF024C
:102F40008E7F8093FF02AACF8E3D21F48091FF02F5
:102F50008D7FF7CF8F3D09F0A1CF8091FF028B7F4E
:102F6000F0CF08950E94311C9C0190910203809142
:102F70000303982B21F03093FC022093FB029091E5
:102F8000040380910503982B21F03093FA022093DB
:102F9000F90280E093E00E94B419089586E0E0E031
:102FA000F3E0DF011D928A95E9F71092FE0210927C
:102FB000FD021092FF020895FC01828181110EC072
:102FC000838181110BC08481811108C091E08581CA
:102FD000811101C090E0892F8170089581E0FCCFBC
:102FE000A6E0B0E0E6EFF7E10C943F2386E0E0E0F6
:102FF000F3E0DE01119601900D928A95E1F71092AF
:1030000002031092030310920403109205038B81B4
:103010009C81892B89F08091FB029091FC020E9497
:10302000C01BAC019091FE029923C9F1809112015D
:103030008417150608F440C08D819E81892B91F07C
:103040008091F9029091FA020E94C01BAC0190910C
:10305000FD02992309F46AC080910E0184171506B8
:1030600008F472C0BE016F5F7F4F80E093E00E9462
:10307000081B811105C080E093E00E94DC178111DC
:103080000E94B21786E0FE013196A0E0B3E0019005
:103090000D928A95E1F72696E3E00C945B2320914C
:1030A00013018AE0289F900111242417350720F688
:1030B0009F5F9093FE0202C09F3FD1F71B811123B7
:1030C00059F00E9468169FEF11160CF491E0899F49
:1030D000802D1124809302031C81112359F00E943A
:1030E00068169FEF11160CF491E0899F802D112432
:1030F0008093030380910203882309F49DCF1091EC
:103100000303112309F498CF0E945A16882351F023
:1031100080930203812F0E945A16882329F08093FE
:1031200003038ACF81E0F4CF81E0F9CF20910F0132
:103130008AE0289F900111242417350708F092CFC8
:103140009F5F9093FD0202C09F3FD1F71D81112325
:1031500059F00E94A6169FEF11160CF491E0899F7A
:10316000802D1124809304031E81112359F00E94A5
:10317000A6169FEF11160CF491E0899F802D112463
:103180008093050380910403882309F46BCF109189
:103190000503112309F466CF0E945A16882351F0C3
:1031A00080930403812F0E945A16882329F080936C
:1031B000050358CF81E0F4CF81E0F9CF0F931F933F
:1031C000CF93DF93C42FD22FFC0185818823C9F0D0
:1031D000409308030E94311C9093070380930603D9
:1031E00080E28C0F883040F4C77081E001C0880F06
:1031F000CA95EAF70E944504DF91CF911F910F9184
:10320000089510910803141332C080910603909121
:1032100007030E94C01B883C910548F5C0E2CD0F12
:103220001D17B9F080E2810F883040F4177081E0FB
:1032300001C0880F1A95EAF70E944C04C83048F480
:1032400081E09D2F977001C0880F9A95EAF70E9440
:103250004504802F0E943C04C83070F6D77081E08E
:1032600001C0880FDA95EAF70E944C04C5CF80E2CE
:103270008C0F883008F6C77081E001C0880FCA95AE
:10328000EAF7F2CF0F93DB0188519C478730910515
:10329000A0F5FC01ED5EFB4D0C942A2306E221EE25
:1032A00041EE6AE17CE7CD010E94DE1880E00F91DB
:1032B000089507E225EE45EE6BE17CE7F4CF06E2E8
:1032C00021EE40EE68E17CE7EECF07E225EE44EE2A
:1032D00069E17CE7E8CF06E221EE42EE6CE17CE7B3
:1032E000E2CF07E225EE46EE6DE17CE7DCCF08E2B7
:1032F00021E045EE6EE17CE7D6CF15968C918823D0
:1033000019F010920803D3CF81E0D1CF90930E0330
:1033100080930D030895E0910D03F0910E03309713
:1033200029F00190F081E02D0995089580E008953D
:103330000E948B190895E0910D03F0910E033097D0
:1033400021F00280F381E02D09950895E0910D03AD
:10335000F0910E03309739F026E0DC012C930480C5
:10336000F581E02D09950895E0910D03F0910E038C
:10337000309739F022E0DC012C930680F781E02DB4
:1033800009950895A3E0B0E0E8ECF9E10C9440233E
:1033900020910B0330910C0328173907A1F090936B
:1033A0000C0380930B03E0910D03F0910E03309713
:1033B00051F023E029839B838A830084F185E02DEB
:1033C000CE01019609952396E2E00C945C23A3E0DC
:1033D000B0E0EDEEF9E10C94402320910903309127
:1033E0000A0328173907A1F090930A038093090371
:1033F000E0910D03F0910E03309751F024E0298302
:103400009B838A830084F185E02DCE010196099586
:103410002396E2E00C945C23CF93DF93C0910901E3
:10342000D0910A0122960E947E1B813081F4809106
:10343000180387FF0CC0C0910701D09108012296A4
:103440009EE180E0915028F4DF91CF91089596E0BD
:10345000F8CF29912223B1F38F5FF4CFCF93C82FF8
:10346000811102C080E024C00E947E1B813011F5D2
:103470008091180387FF1EC0EC2FE695E695E69530
:10348000EE3180F78091070190910801E80FF92F44
:10349000F11D228130E0C77081E090E002C0880F0A
:1034A000991FCA95E2F72823392381E0232BD1F213
:1034B000CF9108958091090190910A01FC01329603
:1034C000089621912C1721F0E817F907D1F7CACFF8
:1034D00081E0EECF9C01FC0132969FEF80E04191AC
:1034E000461751F09F3F19F4411101C0982F8F5F8B
:1034F0008630A9F79F3F09F40895290F311D97FDE4
:103500003A95F90162830895FC013296089621915B
:10351000261303C0DF0111971C92E817F907B9F7CA
:103520000895E62FE695E695E695EE3168F4E80F06
:10353000F92FF11D677021E030E001C0220F6A957C
:10354000EAF78281822B82830895E62FE695E6953D
:10355000E695EE3170F4E80FF92FF11D677021E068
:1035600030E001C0220F6A95EAF720958281282376
:1035700022830895CF93C82F0E947E1B6C2F813029
:1035800061F48091180387FF08C080910701909132
:1035900008010E94911ACF9108958091090190919C
:1035A0000A010E946A1AF7CFCF93C82F0E947E1B90
:1035B0006C2F813061F48091180387FF08C08091DF
:1035C0000701909108010E94A51ACF91089580915A
:1035D000090190910A010E94841AF7CF0E947E1B74
:1035E000813079F48091180387FF0BC0E0910701C7
:1035F000F091080132968EE1DF011D928A95E9F77C
:103600000895E0910901F0910A01329686E0F4CF25
:10361000DC01FB0111969C9111978181981322C0C6
:1036200012968C911297882319F0928189131AC0EF
:1036300013968C911397882319F09381891312C0E4
:1036400015968C911597882319F0958189130AC0D6
:1036500014969C91992321F081E02481291303C0C1
:1036600080E001C081E08170089508950E94351BBB
:10367000089581110EC081E08093170160911401BB
:103680007091150180911601909117010E94361BCF
:10369000089582E0F1CF83E08093170160911401D7
:1036A0007091150180911601909117010E94361BAF
:1036B00008950E94391B089581E08093170160915D
:1036C00014017091150180911601909117010E94CB
:1036D000361B08950E945C1B089591E0811101C082
:1036E00090E0909316016091140170911501809102
:1036F0001601909117010E94361B089580911601C2
:1037000008958093150160911401709115018091C5
:103710001601909117010E94361B089580911501A2
:1037200008958093140160911401709115018091A6
:103730001601909117010E94361B08958091140183
:103740000895089508950E94A21B0895089508956C
:103750000E94A11B0895CF930E94A61B0E943C11BA
:103760000E94A71BC0E08C2F0E947110892B31F49E
:10377000CF5FC430C1F780E0CF91089581E0FCCFE6
:10378000CF93DF93EC010E94311C8C1B9D0BDF91CA
:10379000CF91089585B7806885BF85B7806885BF5C
:1037A00008951F921FB61F9211248F939F93AF937A
:1037B000BF9380910F03811113C080912A039091D0
:1037C0002B03A0912C03B0912D034196A11DB11D97
:1037D00080932A0390932B03A0932C03B0932D0383
:1037E000BF91AF919F918F911F901FBE1F90189511
:1037F00080913203843031F10E948F0210920F03C6
:1038000088E190E020E40FB6F894A89580936000DA
:103810000FBE2093600083B7817F846083BF83B72E
:10382000816083BF7894889583B78E7F83BF0FB6FE
:10383000F894A89580916000886180936000109250
:1038400060000FBE08950E94A1060E949402089590
:1038500082E084BD93E095BD9AEF97BD80936E00A2
:1038600008952FB7F89480912A0390912B03A0918B
:103870002C03B0912D032FBF08952FB7F8946091BA
:103880002A0370912B0380912C0390912D032FBF5D
:10389000089578941F921FB61F9211248F939F93BF
:1038A000AF93BF9380912A0390912B03A0912C0397
:1038B000B0912D030196A11DB11D80932A03909311
:1038C0002B03A0932C03B0932D03BF91AF919F9135
:1038D0008F911F901FBE1F90189587E797E79093D1
:1038E00001088093000888E19AE00FB6F894A89543
:1038F000809360000FBE90936000FFCF88E19AE054
:103900000FB6F894A895809360000FBE9093600066
:10391000FFCF9B01BA01909132039430E9F48F708C
:103920008093E9009FEF8091E800915085FD06C0EB
:1039300085ED8A95F1F700009111F5CF8091E800AF
:1039400085FF0AC050E040E0C9010E948F1E8091AF
:10395000E8008E778093E800089543E050E0BC01D2
:1039600082E00E94891C089546E050E0BC0182E09C
:103970000E94891C089540E250E0BC0182E00E9450
:10398000891C0895CF93DF93EC010E947E1B48E0D1
:1039900050E0BE0181E00E94891C88E0FE01A0E1A8
:1039A000B3E001900D928A95E1F7DF91CF910895F0
:1039B00080913103811109C00E941F200E947C2048
:1039C0008091E20084608093E200089510923103B8
:1039D00008950E945C1B81E00E946D1B0895609118
:1039E0002E0381E0611101C080E00E944B1B08950D
:1039F0009091320381E0943009F080E060912E03D1
:103A00000E94591B089542E061EC81E00E949B1FD7
:103A100042E261EC82E00E949B1F9091320381E0C0
:103A2000943009F080E060912E030E94391B0895C4
:103A300080913403833009F461C030F48130D1F1D6
:103A4000823009F49EC008958A3009F48AC08B3010
:103A500009F46FC0893009F050C08091330381327E
:103A600009F04BC08091370390913803029708F01A
:103A700044C08091E800877F8093E8008091E8004F
:103A800082FF37C09091F3008091F200029731F4E9
:103A90008091F100813011F0863021F48091F100A5
:103AA0000E94811B8091E8008B778093E8000E9440
:103AB000CF1F23C080913303813AF9F48091E8004D
:103AC000877F8093E8008091370390913803892B9A
:103AD00061F468E080E193E070E00E94DE1E809176
:103AE000E8008B778093E800089560E090E080E044
:103AF000F3CF809132038111C1CF089580913303B8
:103B0000813AD9F78091370390913803892BA9F72F
:103B10008091E800877F8093E8008091E80080FF33
:103B2000FCCF0E947E1B8093F1008091E8008E778D
:103B3000BCCF80913303813201F78091370390919C
:103B40003803892BD1F68091E800877F8093E800C5
:103B50000E94CF1F809135030E946D1B0E94A10619
:103B6000089580913303813241F68091E800877F88
:103B70008093E8000E94CF1F809136030E94911B22
:103B8000089580913303813A09F0B7CF8091E8001E
:103B9000877F8093E8008091E80080FFFCCF0E943F
:103BA0009E1BC1CF84B7877F84BF0FB6F894A895BA
:103BB00080916000886180936000109260000FBE69
:103BC00080E890E00FB6F8948093610090936100D4
:103BD0000FBE0E946A1B08950E941F200E947C2035
:103BE000E2EEF0E080818460808378940E94FB2282
:103BF000089588E191E00E9486190895809132032A
:103C0000853031F480913203853019F00E94231CF5
:103C100008950E94F81B0E94AB1B882399F38091A2
:103C20003003882379F30E94791E0E94A106EACF0F
:103C300008959A014091390350913A030E94211E40
:103C40000895492F55274330510519F168F4413043
:103C5000510509F444C04230510509F445C090E0D3
:103C600080E050E040E025C04132510549F1423248
:103C70005105A9F784E490E04FE252E06115710527
:103C8000C1F086EB90E049E751E06130710589F0C1
:103C9000E6CF99278130910581F0009729F00297AE
:103CA000F1F6E2E0F1E002C0E8E2F1E0849190E0B8
:103CB000AF01F901518340830895E8E1F1E0F6CFC7
:103CC00089E090E04EE351E06115710591F389E0E0
:103CD00090E047E551E06130710559F3C0CF82E1D2
:103CE00090E047E651E0E5CF8BE390E04CE251E015
:103CF000E0CF80E189BD82E189BD09B400FEFDCF3E
:103D00008091D8008F7D8093D8008091E000826000
:103D10008093E0008091E00081FDFCCF0895AF9298
:103D2000BF92CF92DF92FF920F931F93CF93DF93B7
:103D30006C01EB018A010E94EE1FF82E811123C055
:103D40000115110539F0F80180819181C81BD90B4B
:103D5000C80ED91EB12CA12C2097A9F08091E800A3
:103D600085FD22C08091E8008E778093E8000115E0
:103D70001105A1F0F80180819181A80EB91EB182D0
:103D8000A08285E0F82E8F2DDF91CF911F910F91AA
:103D9000FF90DF90CF90BF90AF9008950E94EE1FEC
:103DA0008823D1F2F82EEFCFF60181916F01809335
:103DB000F1002197FFEFAF1ABF0ACECFFC0180912F
:103DC000390390913A0386179707A0F061157105A2
:103DD00029F49091E8009E779093E80090E06115B7
:103DE000710551F4911108C08091E80082FF34C040
:103DF00080E00895BC01F2CF809132038823C1F1A5
:103E00008530C1F18091E80083FD30C08091E800E9
:103E100082FDEACF8091E80080FFE1CF8091F3003E
:103E20002091F200382F6115710519F02830310505
:103E300058F091E02830310509F090E02091E80039
:103E40002E772093E800CBCF81918093F1006150D1
:103E500071092F5F3F4FE7CF80913203882341F0F4
:103E6000853041F08091E80083FFBECF81E0089566
:103E700082E0089583E00895FC01809139039091D8
:103E80003A0386179707A0F06115710529F4809110
:103E9000E8008E778093E80090E06115710551F499
:103EA000911108C08091E80082FF35C080E008953C
:103EB000BC01F2CF809132038823C9F18530C9F16A
:103EC0008091E80083FD31C08091E80082FDEACF57
:103ED0008091E80080FFE1CF8091F3002091F20013
:103EE000382F6115710519F02830310558F091E02F
:103EF0002830310509F090E08091E8008E778093BA
:103F0000E800CBCF84918093F10031966150710924
:103F10002F5F3F4FE6CF80913203882341F08530F9
:103F200041F08091E80083FFBDCF81E0089582E0F9
:103F3000089583E00895982F973028F08F7080932C
:103F4000E90081E008959093E900242F762F50E056
:103F5000981731F07091EC002091ED005091F00035
:103F600021FD02C09F5FE8CF3091EB003E7F309390
:103F7000EB003091ED003D7F3093ED003091EB0090
:103F800031603093EB007093EC002093ED00509380
:103F9000F0002091EE0027FDE5CF80E008958091AC
:103FA000330387FF13C08091E80082FF06C0809131
:103FB000E8008B778093E80004C080913203811180
:103FC000F2CF0895809132038823D9F38091E800DD
:103FD00080FFF8CF8091E8008E77ECCF2091E4004D
:103FE0003091E50095E6A9012091EC00822F8170C7
:103FF00020FF06C08091E80080FF06C080E00895A1
:104000002091E80022FD1AC080913203882389F0B4
:10401000853089F08091EB0085FD0FC02091E40090
:104020003091E50042175307F9F29150E1F684E030
:10403000089582E0089583E0089581E008950E9444
:104040008E200E949620E0EEF0E0808181608083E7
:10405000E8EDF0E080818F77808319BCA7EDB0E0B8
:104060008C918E7F8C9380818F7E80831092310320
:1040700008950F931F93CF93DF930E948E200E9489
:104080009620C8EDD0E088818F778883888180680A
:10409000888388818F7D888319BC109232031092A7
:1040A0002E031092300310922F0300EE10E0F8015F
:1040B00080818B7F808388818160888342E060E09B
:1040C00080E00E949B1FE1EEF0E080818E7F808384
:1040D000E2EEF0E08081816080838081886080836F
:1040E000F80180818E7F8083888180618883DF9161
:1040F000CF911F910F910895E8EDF0E080818F7EC0
:104100008083E7EDF0E080818160808384E082BF7E
:1041100081E0809331030E9439200895E8EDF0E0BA
:1041200080818E7F80831092E20008951092DA00E1
:104130001092E10008951F920F920FB60F92112472
:104140002F933F934F935F936F937F938F939F939F
:10415000AF93BF93EF93FF938091E10082FF0BC079
:104160008091E20082FF07C08091E1008B7F809305
:10417000E1000E94FA228091DA0080FF19C080914C
:10418000D80080FF15C08091DA008E7F8093DA001E
:104190008091D90080FF96C080E189BD82E189BD10
:1041A00009B400FEFDCF81E0809332030E94D81C49
:1041B0008091E10080FF19C08091E20080FF15C06E
:1041C0008091E2008E7F8093E2008091E200806126
:1041D0008093E2008091D80080628093D80019BC5F
:1041E00085E0809332030E94EF1C8091E10084FF00
:1041F0002BC08091E20084FF27C080E189BD82E16D
:1042000089BD89B5982F917080FFFBCF8091D80030
:104210008F7D8093D8008091E1008F7E8093E100B4
:104220008091E2008F7E8093E2008091E2008160C5
:104230008093E20080912E03882309F449C084E032
:10424000809332030E94F81C8091E10083FF29C013
:104250008091E20083FF25C08091E100877F8093F9
:10426000E10082E08093320310922E038091E100FE
:104270008E7F8093E1008091E2008E7F8093E20048
:104280008091E20080618093E20042E060E080E0A3
:104290000E949B1F8091F00088608093F0000E9434
:1042A000E91CFF91EF91BF91AF919F918F917F9109
:1042B0006F915F914F913F912F910F900FBE0F9093
:1042C0001F90189519BC109232030E94E61C70CF03
:1042D0008091E30087FD93E090933203B3CF1F9268
:1042E0000F920FB60F9211242F933F934F935F932A
:1042F0006F937F938F939F93AF93BF93CF93DF93EE
:10430000EF93FF93D091E900DF708091EC00C82F0C
:10431000C17080FDC0E81092E9008091F000877FB5
:104320008093F00078940E94B3211092E90080916C
:10433000F00088608093F000CD2BCF70C093E9002F
:10434000FF91EF91DF91CF91BF91AF919F918F91AD
:104350007F916F915F914F913F912F910F900FBE81
:104360000F901F901895AAE2B0E0E9EBF1E20C94EF
:104370003F2383E393E02091F100FC012193CF01DF
:10438000F3E08B339F07B9F70E94181D8091E80076
:1043900083FF1EC180913303909134039A3008F05B
:1043A00017C1E92FF0E0E65EFB4D0C942A2380381C
:1043B00099F0823809F00CC1809137038F708730F3
:1043C00008F006C18093E9008091EB0085FB882707
:1043D00080F91092E90006C080912F03909130037C
:1043E000911182609091E800977F9093E80080930C
:1043F000F1001092F1008091E8008E77E5C08823EB
:1044000009F4D3C0823009F0E3C0809135038111F3
:10441000D6C0809137038F702FEF280F263008F019
:10442000D7C08093E9002091EB0020FFC8C09330F3
:1044300031F48091EB0080628093EB00C0C09091DA
:10444000EB0090619093EB0021E030E001C0220F7F
:104450008A95EAF72093EA001092EA008091EB0037
:104460008860EACF8111B4C0109135031F77809125
:10447000E3008078812B8093E3008091E800877FC0
:104480008093E8000E94CF1F8091E80080FFFCCF5E
:104490008091E30080688093E30082E0111183E063
:1044A0008093320395C08058823008F091C080918B
:1044B0003503909136038C3D23E09207A1F583E00C
:1044C0008A838AE289834FB7F894DE01139620E04D
:1044D0003EE051E2E32FF0E050935700E49120FFDB
:1044E00003C0E295EF703F5FEF708E2F90E0EA30EF
:1044F000C0F0C7968D939D932F5F243159F74FBF1E
:104500008091E800877F8093E8006AE270E0CE0146
:1045100001960E94DE1E8091E8008B778093E80070
:1045200057C0C096E7CF6091370370913803AE0152
:104530004F5F5F4F0E94191EBC01892B09F448C0D0
:104540009091E800977F9093E80089819A810E947A
:104550003C1FE1CF8038E1F58091E800877F8093B0
:10456000E80080912E038093F10045CF811130C087
:1045700090913503923060F58091E800877F8093B9
:10458000E80090932E030E94CF1F80912E03882372
:1045900011F084E005C08091E30087FDFACF81E04F
:1045A000809332030E94031D13C080913503813034
:1045B00079F481E0933009F080E080933003109229
:1045C000E9008091E800877F8093E8000E94CF1F78
:1045D0008091E80083FF0AC08091E800877F809384
:1045E000E8008091EB0080628093EB00AA96E3E004
:1045F0000C945B230895CF93809132038823A1F01C
:10460000C091E900CF709091EC00892F817090FDEE
:1046100080E8C82B1092E9008091E80083FD0E9499
:10462000B321CF70C093E900CF91089597FB072E77
:1046300016F4009407D077FD09D00E94672307FC89
:1046400005D03EF4909581959F4F089570956195A2
:104650007F4F0895EE0FFF1F0590F491E02D099410
:104660002F923F924F925F926F927F928F929F9282
:10467000AF92BF92CF92DF92EF92FF920F931F9370
:10468000CF93DF93CDB7DEB7CA1BDB0B0FB6F89421
:10469000DEBF0FBECDBF09942A88398848885F8461
:1046A0006E847D848C849B84AA84B984C884DF80D2
:1046B000EE80FD800C811B81AA81B981CE0FD11DB6
:1046C0000FB6F894DEBF0FBECDBFED010895AA1B53
:1046D000BB1B51E107C0AA1FBB1FA617B70710F0ED
:1046E000A61BB70B881F991F5A95A9F7809590951F
:1046F000BC01CD010895FB01DC0104C08D91019046
:10470000801921F441505040C8F7881B990B089537
:10471000FB01DC0102C001900D9241505040D8F7DE
:104720000895F999FECF92BD81BDF89A992780B579
:104730000895A8E1B0E042E050E00C94D523DC01FC
:10474000A40FB51F4150504048F0CB01840F951F76
:104750002E910E94B02341505040D0F70895262F4B
:10476000F999FECF92BD81BDF89A019700B4021667
:1047700039F01FBA20BD0FB6F894FA9AF99A0FBE15
:1047800008950396272F0E94B0230E94AF23252F60
:104790000E94B023242F0C94B0230196272F0E944F
:1047A000B0230C94AF23DC01CB01FC01F999FECFBF
:1047B00006C0F2BDE1BDF89A319600B40D924150A9
:1047C0005040B8F70895F894FFCF94049404D204AD
:1047D000D20436055205C304C3045705C805D705DE
:1047E000D705D6154A16DE15A815AC15E215B01575
:1047F000E615F215BC154316C015F615C415FA15C5
:104800002216C815FE152916CE1504160C16B41559
:10481000EA15B815EE15D2150816181632164116F7
:10482000A215DA1551165F1965194E1959196B1928
:1048300071197719D721FF21E822FF21E8223222BE
:084840005322E822AA22B6224D
:10484800AC00290000000040026002012808500165
:104858001E0A1401000001008E1BC21CBB1CB41CE4
:10486800AD1CE200E900EA00B500B600B700CD00D3
:104878008301CC008A0192019401210223022402BF
:104888002502260227022A02B300B4006F00700036
:104898009F01CB019F02A002818283E200E900EA26
:1048A80000B500B600B700CD008301CC008A0192A4
:1048B8000194012102230224022502260227022A4A
:1048C80002B300B4006F0070009F01CB019F02A0EB
:1048D8000281828390919293F7F6F5F4F1F0959422
:0248E8009666D2
:00000001FF
