:100000000C9440020C945D020C945D020C945D0211
:100010000C945D020C945D020C945D020C945D02E4
:100020000C945D020C945D020C9469250C943D26A1
:100030000C949F200C945D020C945D020C945D0264
:100040000C945D020C945D020C945D020C945D02B4
:100050000C945D020C9417210C945D020C945D02CB
:100060000C945D020C945D020C945D020C945D0294
:100070000C945D020C945D020C945D020C945D0284
:100080000C945D020C945D020C945D020C945D0274
:100090000C945D020C945D020C945D020C945D0264
:1000A0000C945D020C945D020C945D0253005400AC
:1000B000550056005F006000610057005C005D0065
:1000C0005E002A0059005A005B006700620046008B
:1000D0006341580001002378247828780100A900A2
:1000E00020782778AC00A800AB0001000100AA002E
:1000F00001000100007C0100010021781E0F0500B5
:10010000047F3F1F643214643214783C1E1E140AAC
:10011000052223252628292A2C2D2F303233353647
:10012000383A3B3D3E4042434547494A4C4E505188
:10013000535557595A5C5E6062646668696B6D6FAF
:1001400071737577797B7D7F81838587898A8C8EB2
:1001500090929496989A9C9E9FA1A3A5A7A8AAACBA
:10016000AEAFB1B3B4B6B8B9BBBCBEBFC1C2C3C5F4
:10017000C6C7C9CACBCCCDCED0D1D2D2D3D4D5D696
:10018000D7D7D8D9D9DADADBDBDBDCDCDCDCDCDDC9
:10019000DDDDDDDCDCDCDCDCDBDBDBDADAD9D9D8AD
:1001A000D7D7D6D5D4D3D2D2D1D0CECDCCCBCAC945
:1001B000C7C6C5C3C2C1BFBEBCBBB9B8B6B4B3B174
:1001C000AFAEACAAA8A7A5A3A19F9E9C9A9896940F
:1001D00092908E8C8A89878583817F7D7B797775E4
:1001E00073716F6D6B6968666462605E5C5A5957C3
:1001F000555351504E4C4A4947454342403E3D3B82
:100200003A3836353332302F2D2C2A29282625230B
:1002100022FFAA7F554000010101010101010101F6
:1002200002020202020202020203030303030303A7
:100230000304040404040404050505050506060674
:100240000606070707070708080808090909090A31
:100250000A0A0B0B0B0C0C0C0D0D0D0E0E0E0F0FD6
:100260000F10101111111212131314141515161664
:100270001717181819191A1A1B1B1C1D1D1E1E1FD3
:100280002020212222232424252626272829292A22
:100290002B2C2D2D2E2F303132323334353637384A
:1002A000393A3B3C3D3E3F40414243444546474846
:1002B000494A4C4D4E4F50515354555658595A5B1C
:1002C0005D5E5F616264656668696B6C6D6F7072BC
:1002D000737577787A7B7D7E8082838587888A8C28
:1002E0008E8F91939596989A9C9EA0A2A3A5A7A95C
:1002F000ABADAFB1B3B5B7BABCBEC0C2C4C6C9CB53
:10030000CDCFD1D4D6D8DBDDDFE2E4E7E9EBEEF008
:10031000F3F5F8FAFDFF0C03540045004E004B00C6
:10032000490000000E035000690078006C00750061
:10033000700000000403090409023B00020100A050
:10034000FA09040000010301010009211101000163
:10035000224400070581030800010904010001038C
:1003600000000009211101000122B60007058203E7
:1003700020000112010002000000085850455401FD
:10038000100102000105010902A10185020901A174
:100390000005091901290815002501950875018135
:1003A000020501093009311581257F950275088103
:1003B0000609381581257F950175088106050C0A07
:1003C00038021581257F950175088106C0C0050199
:1003D0000980A101850319012AB700150126B7007C
:1003E000950175108100C0050C0901A10185041952
:1003F000012AA002150126A002950175108100C0F6
:1004000005010906A1018506050719E029E7150080
:1004100025019508750181020507190029EF1500CE
:10042000250195F075018102050819012905950539
:1004300075019102950175039101C005010906A19D
:1004400001050719E029E7150025019508750181C7
:10045000029501750881010507190029FF1500267D
:10046000FF0095067508810005081901290515008A
:100470002501950575019102950175039101C00053
:1004800011241FBECFEFDAE0DEBFCDBF11E0A0E048
:10049000B1E0ECE5F4E502C005900D92A03EB10795
:1004A000D9F723E0A0EEB1E001C01D92AB30B20756
:1004B000E1F70E9415120C94E2290C94000082309E
:1004C000C0F46530B0F44430A0F4E62FF0E095E0DD
:1004D000899FE00DF11D1124EE0FFF1FEE0FFF1F8E
:1004E000E40FF11DEE0FFF1FE455FF4F859194912E
:1004F000089581E090E008950E945F02089581E0F0
:1005000008950E947F02089581E008950E947F026D
:1005100008950E948602089508950E948C0208950D
:10052000A6E0B0E0E6E9F2E00C948E2849835A8315
:100530009E833091E70189819A8131111AC03E81F1
:10054000332399F0222389F00E94BE08182F682FC8
:1005500089819A810E949B0869817A81812F0E94FA
:10056000C80F2696E3E00C94AA280E94AC08182F26
:10057000F3CF0E94BE0869817A81F1CFFC01262F5A
:100580004081518162817381848195810E949002B2
:100590000895CF93DF93EC0161E00E94BE02BE019B
:1005A0000E948102DF91CF910895CF93DF93EC01F8
:1005B00060E00E94BE02BE010E948D02DF91CF91D9
:1005C000089521E030E0A90102C0440F551F8A952B
:1005D000E2F7CA010E94BD070895CF93C82F81E0BA
:1005E00090E00C2E02C0880F991F0A94E2F70E9437
:1005F0002A0D8C2F0E94E102CF91089581E0089589
:100600000E94FE020895CF93C82F0E9470078C2F7E
:100610000E9400032FEF84E39CE021508040904033
:10062000E1F700C00000CF91089581E00E9403032C
:100630000E943B21089580E00E9403030E944C2108
:1006400008950F931F93CF93DF938C0161E00E9475
:10065000BE02EC01F801858181110E94BF19B80129
:10066000CE010E948902811106C080E0DF91CF9106
:100670001F910F910895B801CE010E94111E882389
:10068000A1F3B801CE010E944D1A882371F3B8017D
:10069000CE010E94231A882341F3B801CE010E94A3
:1006A0002F12882311F3B801CE010E94CC108823A9
:1006B000E1F2F8018581882361F0C330FCE7DF07B0
:1006C000E9F058F4C115ECE7DE07A9F0C130DC47CA
:1006D000B9F0C8010E948402C9CFCB358CE7D80796
:1006E000A9F0CC35ECE7DE0771F0CA35DC4789F7B5
:1006F0000E94050DEECF0E941503B7CF0E940D0D8D
:100700000E941B03B2CF0E94FB0CE3CF0E94090D95
:10071000E0CF0E9472200E94AD030E94221808952B
:100720000E94B1030E9416190E947720089581E06B
:1007300008950895CF93DF93D82F0E949703C82F71
:10074000882319F08D2F0E9499038C2FDF91CF9170
:10075000089508950E949A03089580E00E94AA03D4
:1007600008950E945A1E0E94AA030895CF930E94E2
:100770005A1EC82F8091E2018C1779F0C093E201D4
:100780000E940B216093E3017093E4018093E501E3
:100790009093E6018C2F0E94AA03CF910895ADE0BB
:1007A000B0E0E5EDF3E00C948F28488759876A871D
:1007B0007B878C879D8791110E940B0C1F8286E09E
:1007C000FE013896DE01119601900D928A95E1F7AF
:1007D0008D8181110DC029813A814B815C816D81B0
:1007E0007E818F810E94550B2D96E2E00C94AB2800
:1007F000CE0101960E94C9028111EDCFF5CFFC0117
:100800002481213021F4808191810E94F008089593
:10081000662329F00E94AE1B0E94811C08950E944D
:10082000081CFACFCF93C82F8823C9F08238C9F4A7
:100830000E94671E81FD13C089E30E94891F0E94E8
:100840009F0C2FEF87EE93E0215080409040E1F71E
:1008500000C0000089E30E94A31F0E949F0CCF915B
:1008600008958338A1F40E94671E80FDF8CF83E5C8
:100870000E94891F0E949F0C2FEF81EE94E021506F
:1008800080409040E1F700C0000083E5E4CF843869
:10089000A1F40E94671E82FDE2CF87E40E94891FB7
:1008A0000E949F0C2FEF81EE94E0215080409040F9
:1008B000E1F700C0000087E4CECF8CEF8C0F813AC7
:1008C00070F48C2F0E94FD1E882329F08C2F0E942B
:1008D000A31F0E949F0C8C2F0E94891FBECF80E215
:1008E0008C0F883048F4C77081E001C0880FCA952A
:1008F000EAF70E94EE0BB1CFEBE5EC0FE33040F4EA
:10090000F0E0E959FE4F808190E00E94911EA7CF50
:10091000E8E5EC0FEB3150F4F0E0EE0FFF1FEF5C79
:10092000FE4F808191810E94B61E99CF83E38C0F88
:10093000833108F094CF61E08C2F0E9408048FCFA0
:10094000882309F456C0823879F40E94671E81FF1B
:1009500050C089E30E94891F0E949F0C89E30E9476
:10096000A31F0E949F0C0895833859F40E94671EAC
:1009700080FF3FC083E50E94891F0E949F0C83E592
:10098000EECF843859F40E94671E82FF32C087E49C
:100990000E94891F0E949F0C87E4E1CF9CEF980F73
:1009A000913AE8F290E2980F983050F4877091E015
:1009B00001C0990F8A95EAF7892F0E94F40BD1CFD5
:1009C0009BE5980F933028F490E080E00E94911E00
:1009D000089598E5980F9B3128F490E080E00E94FC
:1009E000B61E089593E3980F933118F460E00E94C7
:1009F000080408951F93CF93DF93182FEB010E94F3
:100A00001204209739F4812F0E94A004DF91CF9126
:100A10001F9108958FE99FE00197F1F700C0000052
:100A20002197EFCF70E060E0893311F460E570E06A
:100A30000E94FA040895882321F00E94EE0B0E9480
:100A40009F0C0895882321F00E94F40B0E949F0CB4
:100A50000895B0E0A0E0EFE2F5E00C9488286C0186
:100A6000D62FC72FFC011581068102950F700E94B9
:100A7000E40BE82E8823F9F0E12E1123E1F08C2F0E
:100A8000807F803461F080E28D0F883008F18C2FF8
:100A9000807E803221F4D230D8F00023C9F08091DA
:100AA000DE0282FF15C082E00E94CF0C0E94E40BA0
:100AB00091E0E82EE926BC2EB2949FE0B922FBE03B
:100AC000FB15B8F1EB2DF0E0EC51F64D0C944828F5
:100AD000E12CF1CF0C2F0F70C07F11F00295007F39
:100AE000112399F0002359F080E28D0F883010F027
:100AF000D11107C0802F0E94EE0B0E949F0C8D2FFA
:100B000048C0802F0E94FE0BF8CF8D2F0E94A004BA
:100B1000002379F080E28D0F883010F0D11104C0ED
:100B2000802F0E94F40B03C0802F0E94040C0E94AF
:100B30009F0CEB2DE850FF0B349708F06BC10E941F
:100B40005A1E0E94AA03CDB7DEB7E9E00C94A42890
:100B50002C2F2F70F22EC07FC03219F0F29480EF4C
:100B6000F822DD2341F0D130C9F1112309F443C04B
:100B70000023E9F0C4CF8091DE0282FD14C011236E
:100B800059F0FF2029F08F2D0E94EE0B0E949F0C40
:100B900080E00E941204CDCF80E00E94A004FF20DC
:100BA00041F28F2DBECF112369F0011104C08F2DAA
:100BB0000E941B05BECF013009F0BBCF8F2D0E94D4
:100BC000220CB7CF0111B5CF8F2D0E9422058F2D9A
:100BD0000E942E0C8F2D0E94120CABCF112321F0FE
:100BE000063008F0A6CFE3CF053008F0A2CF8F2D56
:100BF0000E9422059ECF0023D1F3D93349F43FEF61
:100C000087EE93E0315080409040E1F700C0000053
:100C10008D2F0E94A0048DCF8C2F86958695837092
:100C200069F0813009F085CF8D2F9C2F93701111C1
:100C300002C080E090E00E94B61E7BCF8D2F9C2FDB
:100C40009370111102C080E090E00E94911E71CF5C
:100C5000612F8D2F0E9408046CCF8C2F8370A1F51B
:100C6000111167CF4D2F429546954770440F440FA1
:100C70002D2F2F7030E0042E02C0220F331F0A9454
:100C8000E2F790E080E0D4FF09C08FE090E002C07E
:100C9000880F991F4A95E2F780959095C695C6955D
:100CA000C370822B932BC23049F058F4C13019F035
:100CB0000E94C9073ECF0E94C0073BCF0E94D207C7
:100CC00038CF0E94BD0735CF8695112311F08C2FA8
:100CD0008170882309F42DCF4D2F4295469547709A
:100CE000440F440F2D2F2F7030E0042E02C0220F2E
:100CF000331F0A94E2F790E080E0D4FF09C08FE050
:100D000090E002C0880F991F4A95E2F78095909570
:100D1000C695C695C370822B932BC23049F058F408
:100D2000C13019F00E94340804CF0E942B0801CF73
:100D30000E943D08FECE0E94E107FBCECF7011233A
:100D400029F08C2F0E94F9078D2F32CF8D2F0E9412
:100D500022058C2F0E940908ECCED23F41F160F4AD
:100D6000D03FB9F0D13F81F0112309F443C0011104
:100D7000C6CE8C2F8F711FC0D33F01F1D43FA1F796
:100D80008091DE0282FD24C08C2F8F71112311F31C
:100D900012C0112341F0053008F0CBCE8C2F8F719B
:100DA0000E941B08C6CE063008F0C3CEF7CF8C2FAA
:100DB0008F711111CFCF0E94F907BBCE112329F0FB
:100DC0008C2F8F710E94ED07B4CE0E94E807B1CE40
:100DD000112331F063E08C2F8F710E94B10CA9CEEA
:100DE00081E00E94CF0C023008F4A3CE82E00E9482
:100DF000CF0C9FCE002359F0D93309F009CFEFEF84
:100E0000F7EE23E0E150F0402040E1F7FFCE8C2FD9
:100E10008F71A0CFEE2009F496CE0E94E00B80FDEA
:100E200092CEF60115820E94DA0B0E94F907C601E4
:100E30000E9437070E94DA0B0E94090884CE0F93A4
:100E40001F93CF93DF93EC01688179818D810E949C
:100E5000FB088C010E9446080E94BC07B801CE0125
:100E60000E942905DF91CF911F910F910895CF9393
:100E7000DF93EC018C81882399F0CE010E9421033D
:100E8000811111C00E94E40B882351F08D818823C9
:100E900039F08091DE0282FF03C082E00E94CF0C15
:100EA000DF91CF910895CE010E941F07CE010E94CD
:100EB000D502F6CF90E080E00E94911E90E080E0A5
:100EC0000E94B61E0E940B0C0E949F0C0E949D1C4B
:100ED0000E94811C08950E94BD1F0E945A07089518
:100EE0000E94FB0B0E946B07089592959F709630AD
:100EF00091F058F4925F9F70923058F4803F19F04F
:100F000030F4883E30F481E008959A5FF4CF843F56
:100F1000D1F380E00895883EB0F3813FD1F7F3CF5D
:100F2000FC012481222339F0808191810E94F00804
:100F30000E947507089580E00895A6E0B0E0E3EA16
:100F4000F7E00C948F282696E2E00C94AB28A7E0FB
:100F5000B0E0EDEAF7E00C948F282796E2E00C94DD
:100F6000AB2808950E94B10708950E94B20790939C
:100F7000F7018093F601089508950E94B50708953A
:100F80002091F6013091F701822B932B0E94B50737
:100F900008952091F6013091F701822393230E9456
:100FA000B50708952091F6013091F7018227932724
:100FB0000E94B50708950E94B10708950E94DB07BB
:100FC00008950E94DE079093F5018093F40108953F
:100FD00090E080E00E94E107089521E030E0A9015F
:100FE00002C0440F551F8A95E2F7CA010E94E1072B
:100FF000089521E030E002C0220F331F8A95E2F706
:101000008091F4019091F501822B932B0E94E107CE
:10101000089521E030E002C0220F331F8A95E2F7E5
:10102000209530958091F4019091F50182239323CE
:101030000E94E107089521E030E002C0220F331F33
:101040008A95E2F78091F4019091F5018227932728
:101050000E94E10708952091F4013091F501822B5F
:10106000932B0E94E10708952091F4013091F5013E
:10107000822393230E94E10708952091F401309187
:10108000F501822793270E94E10708950895262FEE
:10109000277091E001C0990F2A95EAF723E0769531
:1010A00067952A95E1F7660F771F660F771FFA019C
:1010B000E60FF71F50E040E0682F70E08191DF01FC
:1010C00011979B01042E02C0369527950A94E2F7EA
:1010D000217021952827292328272C934F5F5F4FC4
:1010E0004430510559F70895A82FA77023E096952D
:1010F00087952A95E1F7880F991F880F991FFB01A3
:10110000E80FF91F50E040E080E0219130E00A2E26
:1011100002C0369527950A94E2F721703327042EF2
:1011200001C0220F0A94EAF7822B4F5F5F4F4430D1
:10113000510559F70895262F953068F4843058F4F6
:1011400034E0939FB0011124680F711D48EE51E007
:10115000822F0E9447080895953070F4843060F41F
:1011600044E0949F9001112468EE71E0820F932F68
:10117000911D0E947408089580E00895B0E0A0E0F9
:10118000E4ECF8E00C9488287C010091F4011091C3
:10119000F5018091F6019091F701082B192BCFE012
:1011A000D0E0CC24C394D12CBC2EC6010C2E02C09E
:1011B000880F991F0A94E2F780239123892B49F421
:1011C000219790F7B12C8B2DCDB7DEB7E9E00C94C9
:1011D000A428B7018C2F0E94D40F019789F3F3CF75
:1011E000CF93DF93EC010E94BE08BE010E94D40F92
:1011F000DF91CF9108951F93CF93DF93EB019091EF
:10120000E701992339F0CB010E94F008DF91CF91DB
:101210001F910895882369F0CB010E94BE08182F02
:10122000682FCE010E949B08BE01812F0E94D40F1F
:10123000EDCFCB010E94AC08182FF6CF1F93CF93B0
:10124000DF93C091F80117E08091F9018C1304C07D
:10125000DF91CF911F910895D0E01C9FF0011D9F59
:10126000F00D1124E650FE4F2081318142815381DF
:101270006481758186810E94A7072196C770E4CF9B
:101280002091320230913302409134025091350264
:101290006091360270913702809138020E94A70750
:1012A0000895CF93DF9380913802807F09F04DC07D
:1012B00080913702882309F448C0E091F8015091E9
:1012C000F901C0913302D0913202609134027091E1
:1012D000350247E05E17C9F18E2F90E0E49FF001E0
:1012E0001124E650FE4F2481222391F1489FF00102
:1012F000499FF00D1124DF01A650BE4F11962C918D
:1013000011972C1325C02C912D1322C015962C91CA
:10131000159721111DC012962D913C91261B370B5C
:10132000283C3105A8F4809138028F708061809349
:101330003802E050FE4F80818F708061808382E3AD
:1013400092E00E9437070E941E09DF91CF91089515
:10135000FC013196E770BECF482F2091F8019091A3
:10136000F90157E0291302C080E0089530E0529F50
:10137000F001539FF00D1124E650FE4F8181681358
:1013800006C08081481303C085818111EECF2F5F95
:101390003F4F2770E7CFA4E1B0E0E1EDF9E00C9416
:1013A00085288C0186E0F801DE011F9601900D92E0
:1013B0008A95E1F7F8018481E58092E3A92E92E015
:1013C000B92E9091360291111FC08823D1F0EE20E2
:1013D000A9F0C8010E949007F82E882379F087E0D1
:1013E000F801D50101900D928A95E1F7C5010E949F
:1013F000FF030E9451090E9440095FC0C8010E947A
:101400003707FF24F39459C0C080D1808280938035
:10141000F09037022091340230913502A401421B32
:10142000530BFF2009F4F9C0483C510508F0A7C050
:10143000882309F442C09091330280913802282F0A
:10144000207F09F05CC09D1116C090913202C91234
:1014500012C0E1104EC08F708061809338020E94EC
:10146000400982E392E00E94370780913802F80138
:101470008683F12C22C0E1103CC06D2D8C2D0E9482
:10148000AC096D2D8C2D0E94AC09E82E8111F1CF95
:10149000CF86D88A8F8598890E94F008292F2295B7
:1014A0002F70243078F49F702230A8F09923B9F07F
:1014B000F8019681907F99F4FE2C8F2D6496ECE0D4
:1014C0000C94A1282A5F2F70223068F0C8010E9476
:1014D0003707EF2CF1CF992311F0882369F3805E51
:1014E000883050F3F3CF803F38F3815F833070F75B
:1014F000E3CF80913802816080933802BACF9D118A
:1015000013C090913202C9120FC0E1100DC0868342
:10151000C8010E94370787E0F801A2E3B2E001901A
:101520000D928A95E1F767CFC8010E949007882342
:1015300009F464CFEE2009F461CF80913802803243
:1015400088F02091320230913302398728879B86B8
:101550008A86909136029C871D868E87CE010896DA
:101560000E94370787E0F801A2E3B2E001900D92F4
:101570008A95E1F70E9451090E94400942CF90915B
:101580003802292F207FA1F4682D9A8A898AA60122
:101590007A899E2D0E949D0782E392E00E94370780
:1015A00087E0F50111928A95E9F70E94400961CF21
:1015B000882309F482CF809133028D1110C080916D
:1015C0003202C8120CC0E1100AC09683C8010E9402
:1015D000370787E0F50111928A95E9F76ECFC801C8
:1015E0000E949007882309F409CFEE2009F406CF62
:1015F00080913802803208F4B5CF209132023091C8
:1016000033023A8329839C828B82909136029D8398
:101610001E828F83CE010196A3CF483C5105B8F5B9
:10162000882309F4EECEFE2CEE2009F4E7CE80915B
:1016300033028D111EC080913202C8121AC08091EF
:10164000380280FD0DC0982F907F51F08683903F27
:1016500009F45ECF982F907F905F8F70892B57CFC2
:1016600087E0F801A2E3B2E001900D928A95E1F7DC
:1016700024CFC8010E949007811174CF8091380255
:10168000816080933802C8010E94370716CF682D09
:101690009A8A898AA6017A899E2D0E949D0787E0F1
:1016A000F50111928A95E9F7A6CEAEE0B0E0EBE540
:1016B000FBE00C948E28288739874A875B876C87E4
:1016C0007D878E87CE0108960E94CB098823B1F0D2
:1016D0006C85662341F0288539854A855B857D8543
:1016E0008E850E94A70717E08091F8019091F9017B
:1016F00089133DC02E96E3E00C94AA2887E0FE01F2
:101700003896DE01119601900D928A95E1F78C854D
:10171000882349F32091F90130E0C90101968770CF
:1017200099274091F8014817190699F097E0929F80
:10173000D001939FB00D1124A650BE4FFE013196EB
:1017400001900D929A95E1F78093F9010E941E098C
:10175000CACF0E9470071092F9011092F80187E039
:10176000E2E3F2E0DF011D928A95E9F7BCCF819FA9
:10177000C001112486509E4F0E94CB09882309F492
:10178000B9CFE091F8011E9FF0011124E650FE4F01
:1017900020813181428153816481758186810E94DB
:1017A000A7078091F80190E00196877099278093B0
:1017B000F8019ACF80916102869586958695089565
:1017C000809161028770089590916102977081E025
:1017D00009F480E0089580918D02089590918D0222
:1017E000892B80938D020895809590918D02982386
:1017F00090938D02089510928D02089590918C021D
:10180000892B80938C020895809590918C02982367
:1018100090938C02089510928C02089508950E946E
:101820000E0C089590916202292F282331F08095A3
:101830008923809362020E940F0C089508950E94EC
:101840001E0C089590916302292F2823281729F050
:10185000982B909363020E941F0C0895909163024D
:10186000292F282331F080958923809363020E94D9
:101870001F0C089580916302882329F0109263025F
:1018800080E00E941F0C0895CF93C0918D0280913B
:101890008C02C82B80916302882331F0C82B0E94F0
:1018A000DB1E81110E943A0C8C2FCF910895CF93AB
:1018B000DF93C0910601D09107010E94440C8883F8
:1018C000C0910601D091070148E050E069E572E05F
:1018D000CE010E945529892B59F088E0FE01A9E527
:1018E000B2E001900D928A95E1F7CE010E946A1E46
:1018F000DF91CF910895CF93DF93C0910401D091F0
:1019000005010E94440C8983C0910401D091050116
:1019100040E250E069E372E0CE010E945529892B34
:1019200059F080E2FE01A9E3B2E001900D928A95A0
:10193000E1F7CE010E94751EDF91CF9108950E94BC
:101940004D20813039F48091DD0287FF03C00E9471
:101950007B0C08950E94570C089508950E94AD0CC9
:1019600008959091DE0292FF11C098E0899F900146
:101970001124622B609361020E94F9078091610239
:101980008695869586950E94AE0C08950E94F9076B
:1019900008951092610280E00E94AE0C089590912B
:1019A00061028095892380936102282F277069F452
:1019B000891759F09091DE0292FF07C086958695AF
:1019C00086950E9409080E94C90C08959091DE0234
:1019D00092FB222720F9281769F080FB92F9909357
:1019E000DE028091DD029091DE020E94350D82E0E0
:1019F0000E94CF0C08958091DE0282FB882780F937
:101A000091E089270E94E60C089581E00E94E60C8F
:101A1000089580E00E94E60C08956FEF7FEF90E05C
:101A200080E00E94AD29089590E080E00E9479292D
:101A300021E0853E9E4F09F020E0822F089582E04C
:101A400090E00E946B29089583E090E00E946B294A
:101A500090E00895682F83E090E00E948F29089518
:101A600084E090E00E9479290895BC0184E090E030
:101A70000E94AD290895AB01BC018FE090E00E9467
:101A8000A1290895AB01BC0183E190E00E94A12946
:101A9000089560E070E0CB010E94420D089560E07F
:101AA00070E0CB010E943B0D0E94490D0895A8E013
:101AB000B0E0EDE5FDE00C948F2865EE7EEF90E060
:101AC00080E00E94AD2960E082E090E00E948F29D2
:101AD00081E090E09093F7018093F6010E942A0D37
:101AE00060E074E184E090E00E94AD2960E086E06F
:101AF00090E00E948F2960E087E090E00E948F29AB
:101B000040E050E0BA0188E090E00E94A12960E046
:101B100083E290E00E948F2960E08CE090E00E94D8
:101B20008F2960E08DE090E00E948F2919821A824F
:101B30001B821C821D821E821F82188648E050E094
:101B400067E170E0CE0101960E947F2940E050E0FD
:101B5000BA018FE190E00E94A1290E944F0D2896C2
:101B6000E2E00C94AB280E94570D0895682F8EE098
:101B700090E00E948F290895A6E0B0E0E2ECFDE03D
:101B80000C948D280E94FF208C0180918E029091F0
:101B90008F028017910781F019821A820E94FF201C
:101BA000682F49815A81792F80E090E00E94CF030D
:101BB00010938F0200938E022696E4E00C94A928DD
:101BC0000E940B216093990270939A0280939B026A
:101BD00090939C0260939502709396028093970273
:101BE000909398020895089508950E94F30D089522
:101BF00008950E94F80D08958AEC90E10E942A123F
:101C00000E94F40D0E94F50D089581E008950E9450
:101C1000050E08950E94050E0895089508950E94E6
:101C20000D0E0E940E0E08950E94140D811102C027
:101C30000E94B30D0E941F0D80939D020E94300DE3
:101C40009093DE028093DD020E94201A0E94240DF0
:101C50000E94BD078091F4019091F5010E94DE077A
:101C600008950E94F6200E9487110E94140E0E947F
:101C7000A9030E94CB180E94F90D0895A6E0B0E0D8
:101C8000E4E4FEE00C9486280E94070E81110CC04B
:101C90000E94BC0D0E94C0190E94BF1C0E94B60386
:101CA0002696EBE00C94A2280E949D1180E9A82EB4
:101CB00082E0B82E750110E0F70101917F01812FBC
:101CC0000E94E6101F5F153009F441C00817A1F308
:101CD00080919D0281FD0E94EC100E940A0EC82E88
:101CE00010E099249394812F0E94E610082FF501AB
:101CF00081915F01081729F1F12CEE24E394D02E95
:101D0000D8268D2D8E21A9F0CC2099F0F9821A8346
:101D10000E94FF209C838B839D8291E0802F8E21E7
:101D200009F490E049815A816B817C818D810E9408
:101D3000CF03F394EE0CF4E0FF12E3CFF5013197FB
:101D400000831F5F153079F60E94E00DA3CF0813C2
:101D5000BFCF9ECF1F93CF93DF930E94D90FEC018B
:101D6000C11580E5D807F0F5C11580E4D80708F063
:101D70009CC0C03ED10520F5CD3CD10508F082C005
:101D8000C83AD10578F4C53AD10508F073C0C1301E
:101D9000D10519F1209709F1C430D105F0F4D0E054
:101DA000C0E01BC0C33CD105D0F7C85AD0E0CC0F6F
:101DB000DD1FC659DE4F0990D881C02DD4640DC0F7
:101DC000C11580E2D80708F0D1C0C11581E0D8075D
:101DD00008F05AC0C83ED10510F7CE01DF91CF916F
:101DE0001F910895C03682E5D80718F5C03482E502
:101DF000D80708F06BC0C03282E5D80708F05FC092
:101E0000C11582E5D80708F497C02C2F2695269592
:101E100080E2289F900111248C2F8370C1E0D0E0D4
:101E200002C0CC0FDD1F8A95E2F7C22BD32BDD68F1
:101E3000D4CFC03A82E5D80760F4C03882E5D8072D
:101E400008F459C0CF71D0E0DC2FCC27C46FD06A22
:101E5000C4CFC03C82E5D80708F462C0C03E82E52A
:101E6000D80708F09CCFDC2FCC27CC27DF71C06FC0
:101E7000D06AB3CFC55AD0E0C056DE4FC881D0E09B
:101E8000D064ABCFD065A9CF8D2F0E947B10182FC7
:101E9000CE0199270E94D90FC12FD0E0DC2FCC278B
:101EA000CC27DF71C82BD92B98CFCE0199270E9460
:101EB000D90FCC27DF70C82BD92BD06A8ECFCF712A
:101EC000D0E0DC2FCC27C16FD06A87CF2C2F26958E
:101ED0002695277080E2289F900111248C2F837013
:101EE000C1E0D0E002C0CC0FDD1F8A95E2F7C22B23
:101EF000D32BDC6872CF2C2F26952695277080E295
:101F0000289F900111248C2F8370C1E0D0E002C083
:101F1000CC0FDD1F8A95E2F7C22BD32BDA685DCF99
:101F20008C2F8F710E947B10C82FD0E0DC2FCC2724
:101F3000CC27DF71D06251CF8C2F8F710E947B1024
:101F400055E0D695C7955A95E1F7CF70D0E0DC2FD4
:101F5000CC27282F30E084FF05C044E0220F331F38
:101F60004A95E1F7C22BD32BD06937CF8D2F8F71D4
:101F70000E947B10182FCE0199270E94D90FC12FE4
:101F8000D0E0DC2FCC27CC27DF71C82BD92BD2CFC8
:101F9000462F753030F4643020F4672F0E947C02A5
:101FA000089590E080E008950E94C80F0E94AA0E54
:101FB000089582389105B9F1B0F48133910509F49F
:101FC0007DC048F48932910509F46DC08A329105CB
:101FD00009F47BC008958533910509F45FC0893306
:101FE000910509F10895833E9105D9F138F4803EB9
:101FF000910529F1823E910579F10895863E91057A
:10200000D9F1873E910509F43EC0843E910541F522
:102010002091DE0221FF24C08091DD0284FD19C0E1
:1020200087EE90E008952091DD02237009F05AC0F8
:102030002091DE0223FF14C089E290E008952091F0
:10204000DD0220FD38C03091DE0230FF09C024FFE0
:1020500043C090E080E008952091DD0222FDF7CF9B
:1020600008952091DD0222FD3AC03091DE0230FD5C
:1020700039C024FFF5CFEDCF2091DD0223FFF0CF53
:1020800024FDE7CFCDCF2091DD0223FD2EC030917E
:10209000DE0231FFEECF84EE90E008952091DD0264
:1020A00025FFDECFC9CF2091DD0225FD21C0209183
:1020B000DE0223FFD5CF89E390E0D2CF2091DD026D
:1020C00026FFCECF8AE290E008952091DD0226FF20
:1020D000C7CF81E390E0089583EE90E0089582EE0B
:1020E00090E0089580EE90E0089586EE90E00895E7
:1020F00085E390E008959091DD0292FF10C041E0E9
:10210000282F2471243009F040E031E0282F287175
:10211000283009F030E0431711F02CE0822793FFBC
:1021200010C041E0282F2471243109F040E031E053
:10213000282F2871283109F030E0431711F02CE0E6
:1021400082273091DE0230FF10C051E0282F21712C
:10215000213009F050E041E0282F2871283009F0A3
:1021600040E0541711F029E0822731FF10C041E010
:10217000282F2171213109F040E031E0282F28710A
:10218000283109F030E0431711F029E0822794FD4F
:10219000877E089580E00895CF939C01205E3245AC
:1021A000C1E02032310538F4FB01C581C11103C003
:1021B0008F710E94ED028C2FCF91089508950E9497
:1021C000DE10089508950E94E2100895E82FF0E0CF
:1021D000EC51FD4F80810895089580EA8A95F1F7CA
:1021E000089500C008950E94ED100895F894E82F16
:1021F000E295EF70F0E031A1282F2F7081E090E0A0
:1022000001C0880F2A95EAF7982F9095932391A300
:1022100092A1892B82A378940895CF93DF93C7EA84
:10222000D1E089918F3F11F00E94F61081E0CC3A05
:10223000D807B9F784EF0E94F61085EF0E94F610D8
:1022400084E90E94F61080E90E94F610DF91CF9198
:102250000895B0E0A0E0EFE2F1E10C948928EC01F0
:10226000D62E062F10E0C80189559E4F7C01FC0137
:1022700080818F3F09F444C0F894E82FE295EF7015
:10228000F0E091A18F7021E030E001C0220F8A952B
:10229000EAF7892F822B81A382A12095282322A3EC
:1022A00078940E94F110E3EAF1E031E0C12C219131
:1022B0002F3F59F1A22FA295AF70B0E090968C916C
:1022C00090E02F7002C0959587952A95E2F780FDE2
:1022D0001CC0832FC82A330F81E0E73AF80739F78B
:1022E000F70180818F3F11F00E94F61061E0C1106C
:1022F00001C060E08D2D0E94F310C00FD11FC88275
:10230000CDB7DEB7E8E00C94A52880E0E3CF0E94CB
:102310000D1185E0E4EEF2E0DF01982F1D929A9511
:10232000E9F7EFEDF2E0DF011D928A95E9F785E02C
:102330000E94D8110E94DF100895A5E0B0E0E3EA02
:10234000F1E10C948C288E010F5F1F4F85E0F8019E
:1023500011928A95E9F7F12C6F2DC8010E9429117D
:10236000F394F5E0FF12F8CF45E050E0B8018FEDAF
:1023700092E00E94552921E0009709F420E0892B82
:1023800041F085E0F801AFEDB2E001900D928A9541
:10239000E1F745E064EE72E08FED92E00E94D91122
:1023A000182F0E94E310812F2596E5E00C94A828B1
:1023B0000895B0E0A0E0EFEDF1E10C9489286C0104
:1023C0007B01042FC22F222379F081E08093A002A9
:1023D0000E94FF2090939F0280939E0280E0CDB7E1
:1023E000DEB7E8E00C94A528D091A002DD23B1F37C
:1023F00080919E0290919F020E948E20059770F31B
:1024000010E0A801B601C7010E945529892B31F0BF
:10241000A801B601C7010E946229CD2F1092A00227
:102420008C2FDDCF0E943E0E08950E9498200E94BE
:10243000A0220E94FC0D0E94BA220E94310E0E942E
:10244000C7220E94CC220E9412120E94E6220E9401
:102450000F0EF7CF9093E1018093E00108950F9361
:102460001F93CF938C01FB01C581CC2309F447C096
:102470000E94EB0B8272F801E052F847EB30F10555
:1024800038F4E051F64D0C9448280E94BD18C0E085
:102490008C2FCF911F910F910895882329F00E94CE
:1024A000AB18F5CF8823D9F30E949B18F0CF88236F
:1024B00029F00E942815EBCF8823D9F30E94191523
:1024C000E6CF882329F00E944A15E1CF8823D9F36B
:1024D0000E943915DCCF882329F00E946C15D7CFD4
:1024E0008823D9F30E945B15D2CF882329F00E945C
:1024F000F113CDCF8823D9F30E94D113C8CFC1E007
:10250000C7CFEF92FF920F931F93CF93DF939B015F
:10251000682F31110EC0442329F0E82FF0E0EA5E65
:10252000FD4F6491762F862FCDB7DEB7E6E00C9491
:10253000A728C32FD0E0E82FF0E0442321F0EA5E83
:10254000FD4FE491F0E046E0249FC00111240FEF1D
:1025500010E0B8010E94FE27AB01822F90E0880FA7
:10256000991F25E5249FB001259F700D1124861B1E
:10257000970B982F990F980FB8016C1B7D0B6E9FCE
:10258000D0016F9FB00D7E9FB00D11248B2F939FB4
:1025900090011124232F3327B801621B730B6E9F08
:1025A00090016F9F300D7E9F300D11247801E91A44
:1025B000F108EC9EB001ED9E700DFC9E700D112493
:1025C000672F7727061B170B0E9FE0010F9FD00D7B
:1025D0001E9FD00D11247D2F9E2F4230510599F062
:1025E00048F44115510569F04130510581F07B2FC8
:1025F000832F07C04430510569F080F04630510503
:10260000B1F7692F91CF9B2F8D2F7E2FFACF7E2F81
:10261000932FF7CF9D2F7B2F8E2FF3CF732F9B2FD1
:10262000FBCF41E00E948112089508950E9411138A
:10263000089590910B01291B922FE091D901F091FF
:10264000DA01242F462F682F892F90E009950895ED
:10265000CF93DF93762FE901682F842F0E94161302
:10266000962F672F9E01482F892F0E941913DF9103
:10267000CF9108958091E902982F9C7F29F483706F
:1026800084608093E90208958C3AE8F38370886A45
:10269000F8CFB0E0A0E0EFE4F3E10C94892888E003
:1026A00090E00E9473296B017C0183E290E00E941C
:1026B0006B29282F30E040E050E060E070E080E0DF
:1026C00090E000E20E94B628B22FA32FF42FE52F4E
:1026D000D62FC72F97018601BC29A12BFE295E2F7B
:1026E000532B2B2F3A2F4F2F6D2F7C2FCDB7DEB7CB
:1026F000E8E00C94A528B0E0A0E0E1E8F3E10C9458
:10270000852849015A016B017C010E943A1384011A
:10271000A4016A2D7B2D88E090E00E94A1299401FC
:102720004A2D5B2DB601C70100E20E94D128622F1D
:1027300083E290E00E948F29CDB7DEB7ECE00C94E5
:10274000A128E9EEF2E085E0808311828FEF828399
:1027500083831482758125E030E04FEF5FEF60E006
:10276000868197810E947B1308959091ED029330AA
:1027700018F49F5F9093ED02882391F02091E90275
:102780003091EA024091EB025091EC026091ED022F
:102790007091EE028091EF029091F0020E947B1303
:1027A000089581E00E94B51308959091ED02992358
:1027B00019F091509093ED02882391F02091E90255
:1027C0003091EA024091EB025091EC026091ED02EF
:1027D0007091EE028091EF029091F0020E947B13C3
:1027E000089581E00E94D51308950F931F93CF930E
:1027F0008091E90280FF09C0E091DD01F091DE01E6
:102800000995CF911F910F910895C0910D010091ED
:10281000D9011091DA0180910E01C81768F78091F3
:102820000B019C2F981B892F20E040E060E090E096
:10283000F8010995CF5FEFCFEF92FF920F931F93AF
:10284000CF93DF93D82F162F042F8091E90280FFBA
:102850000CC0C0910D01E090D901F090DA01809197
:102860000E01C81738F00E94F513CDB7DEB7E6E0C9
:102870000C94A72880910B019C2F981B892F202F47
:10288000412F6D2F90E0F7010995CF5FE8CF762FAC
:102890009091E90290FF0AC0682F842F0E941113C3
:1028A000962F672F482F892F0E941C140895CF93CD
:1028B000DF93EC01EC81F0E0EF5EFE4F4491E9EE36
:1028C000F2E0628181810E9447148C818F5F8C834A
:1028D000DF91CF910895CF93DF93EC01E9EEF2E021
:1028E000438162818C810E9447148C818F5F8C832D
:1028F000DF91CF910895CF93DF93EC014091EC02EB
:102900009C81892F817090FD842F692F627091FDC9
:10291000642F92FF40E00E941C148C8190E001968D
:10292000877099278C83DF91CF910895B0E0A0E064
:10293000ECE9F4E10C948A28D82FF62E142FE22E1D
:102940009091E90290FF2FC0E92FE695E695AE2F12
:10295000B0E0A455BE4F8C918093BB029C7F943015
:1029600039F56D2F7F2D842F0E941113962F672F1D
:10297000482F892F0E941C14D093EA02F092EB0298
:102980001093EC02EE2079F02091E9026091ED02C3
:102990007091EE023D2F4F2D512F8091EF029091BB
:1029A000F0020E947B13CDB7DEB7E7E00C94A628B7
:1029B000823019F41091EC02DFCF863019F4D091F7
:1029C000EA02DACF8930D9F38931B1F6E9518E2F95
:1029D0008170D82EE695F0E0EF5EFD4FC49100E0E7
:1029E00060910F01061718F00E94F513C5CF0C9FD8
:1029F000C001112470E00E94FE278D2FD1100CC061
:102A0000860F20910D01200F3327331F412F6F2D8B
:102A10000E9428130F5FE4CF861BF3CFE9EEF2E0AC
:102A20009181282F438162818AE0890F0E94961448
:102A3000089581E00E940E150895E9EEF2E091817B
:102A4000282F4381628186EF890F0E949614089592
:102A500081E00E941D150895E9EEF2E062812AE00E
:102A6000620F08F46FEF282F438181810E94961432
:102A7000089581E00E942C150895E9EEF2E062814C
:102A80002AE0621B08F460E0282F438181810E94C4
:102A90009614089581E00E943D150895E9EEF2E054
:102AA00043812AE0420F08F44FEF282F6281818191
:102AB0000E949614089581E00E944E150895E9EE53
:102AC000F2E043812AE0421B08F440E0282F6281B3
:102AD00081810E949614089581E00E945F150895F7
:102AE00020E00E9496140895EF92FF921F93CF93D7
:102AF000DF93EC0110E0EE24EA94F12C60910F01D9
:102B0000161770F00E94F5139A818C8190FF1EC0F9
:102B10008F5F8C83DF91CF911F91FF90EF9008958D
:102B200020910D01210F3327331F70E0C7010E9450
:102B30001228962F8C814091EC026091EB02199F34
:102B4000800D11240E9428131F5FD8CF8150E1CF40
:102B5000B0E0A0E0EEEAF5E10C948728FC01828168
:102B6000DFEF80FFD1E0C0E00091D9011091DA01E0
:102B700023E0A22E80910F01C81798F00E94F51350
:102B80008091A202D13009F050C0811102C0809121
:102B90000F0181508093A202CDB7DEB7EAE00C941A
:102BA000A32880910D0190910B01891B8C0F20E0CF
:102BB00040E060E090E0F801099594E0E92EF12C06
:102BC000B12CCC2ED12C8091A2028B0D84303CF103
:102BD0006A2D0E94F027892F082E000C990BC81629
:102BE000D906B1F420910D012C0D3D2D311D8091A0
:102BF000EC028E9DA0018F9D500D11245595479597
:102C0000559547956091EB028091EA020E94281346
:102C1000BD0EF1E0EF1AF108B1F6CF5FABCF87FF41
:102C2000DBCF90910F01890FD7CF90E00196609193
:102C30000F0170E00E941228ADCF0F931F93CF9326
:102C4000C0910D010091D9011091DA0180910E011E
:102C5000C81750F1C0E00091D9011091DA016091DC
:102C60000F01C61770F10E94F513209109018091A0
:102C7000A102820F8093A10290910A01920F90937A
:102C80000A01191654F4082E000C990B40910F01FB
:102C90004150550B841795071CF02195209309018D
:102CA000CF911F910F91089580910B019C2F981B3C
:102CB000892F20E040E060E090E0F8010995CF5FC7
:102CC000C5CFEC2FF0E070E0CF010E9412282091D8
:102CD0000D01820F2091A102022E000C330BE2178E
:102CE000F307A4F020910A01022E000C330B2E17DB
:102CF0003F0764F0282F30E04091EC026091EB0236
:102D00008091EA020E942813CF5FA9CF90910B0116
:102D1000891B20E040E060E090E0F8010995F4CFE5
:102D2000B0E0A0E0E6E9F6E10C948528EC014C81E6
:102D3000042F10E09801D8010E9456289B01AC0195
:102D40000E946C284B015C01E0E2F0E0E01BF10B1B
:102D5000A5E5B0E0AC019B010E946C286B017C01F1
:102D60009F01DF010E944E289B01AC010E94772841
:102D70009B01AC01280D391D4A1D5B1DC701B60121
:102D80000E942628F22E822F90E039E23F1520F192
:102D900043E0249F9001112435952795122F10951B
:102DA00000E085E5E82EEF1880910F01081720F16B
:102DB0000E94F5139C8181E0992319F0903219F457
:102DC0008FEF8093080180910801890F8C83CDB724
:102DD000DEB7ECE00C94A12825E530E0A901481B02
:102DE000590BCA019A01220F331F280F391F37FFD1
:102DF000D3CF2F5F3F4FD0CF8E2D01FD8F2D209150
:102E00000D01200F3327331F412F6091EB020E94E9
:102E100028130F5FC9CF0F931F93CF93DF938C01BC
:102E2000D0E0C0E090910F019C171D0609F074F4EA
:102E30000E94F513F801848190E001968170992732
:102E40008483DF91CF911F910F910895F801448100
:102E500020910D012C0F3D2F311D6091EB028091CF
:102E6000EA0296959C171D0649F044F0442341F070
:102E70004091EC020E9428132196D4CF4423C1F341
:102E800040E0F8CFB0E0A0E0E8E4F7E10C9481285E
:102E9000FC016280448081E08483E1E1F1E0749090
:102EA000E0E9F1E0E491C091EC02C695C158D0E0B0
:102EB000CC0FDD1FCD2FDD27812C25E0922EAA24FB
:102EC000AA94B12C55245A94E719EE2EF12C809136
:102ED0000F01881638F00E94F513CDB7DEB7E0E198
:102EE0000C949D28C82CD12C82E0861568F09C9CFF
:102EF000F0019D9CF00D1124ED55FD4F8091EA02EB
:102F000080838091EB02818341101CC09C9CF00166
:102F10009D9CF00D1124ED55FD4F138212822091DE
:102F20000D012C0D3D2D311D9C9CF0019D9CF00D43
:102F30001124ED55FD4F4281618180810E9428134B
:102F40008394C5CF9C9C80019D9C100D11240D5530
:102F50001D4FF80183818823F1F081508383859D83
:102F6000C0011124648170E00E94FE27FB01FF274D
:102F7000EF5EFE4F8491E82FE719E59DC001112413
:102F8000B7010E94FE278091EC02689FB0011124D6
:102F9000F8017283C4CF0E943829B5010E9412281B
:102FA0008C179D070CF0BBCFF2E0F61598F40E9449
:102FB0003829B5010E941228F80180830E9438291F
:102FC0002091EB022695622F70E00E941228280FB4
:102FD000F80121839C9CF0019D9CF00D1124ED557E
:102FE000FD4F12828091EC02893C58F088EC9C9C49
:102FF000F0019D9CF00D1124ED55FD4F84838383DA
:103000008ECF8431A0F784E1F2CFE9EEF2E02081A7
:103010002E7F208331814281538164817581868135
:1030200097810E947B131092BC020E94F5130895B1
:10303000E9EEF2E080818E7F80831092BC020E94D4
:10304000F51308951092BC028091B90281110AC053
:1030500081E08093B9028091E90281708093B80287
:103060000E94181808956091E9026695669570E0CF
:103070004BE050E080E191E00E944829892B19F44F
:1030800081E08093BC020E94FF209093B302809362
:10309000B20208959091E90290FF34C093708111BB
:1030A00032C094609093E902662391F02091E90286
:1030B0003091EA024091EB025091EC026091ED02F6
:1030C0007091EE028091EF029091F0020E947B13CA
:1030D0006091E9026695669570E04BE050E080E112
:1030E00091E00E944829892BB1F01092BC0281E046
:1030F0008093B5024091EC026091EB028091EA026C
:103100000E94701508958B3210F0986ACBCF880F0B
:10311000880F982BC7CF0E943318E9CF682F909162
:10312000E9029695969581E0890F8B3208F081E04F
:103130000E944A18089581E00E948E180895682F11
:103140009091E902969596958FEF890F09F48AE29E
:103150000E944A18089581E00E949F18089561E036
:103160000E944A180895E9EEF2E080818160808330
:10317000869586950E94AF1808958091E90280FF98
:1031800003C00E94051808950E94B318089560E0D6
:103190000E944A1808958091BA0281113CC00E9491
:1031A00049132093E9023093EA024093EB025093D3
:1031B000EC026093ED027093EE028093EF02909325
:1031C000F0022C7FA1F40E94A1130E9449132093C6
:1031D000E9023093EA024093EB025093EC026093D1
:1031E000ED027093EE028093EF029093F0020E9442
:1031F0003A131092BC02E091D701F091D8010995E1
:103200008091E90280FF04C0869586950E94C718C8
:1032100081E08093BA020895E9EEF2E08081816056
:103220008083869586950E94C71808951092B902EA
:103230008091B80281110E940C190E9433180895E0
:103240000F931F93CF93DF938091BC028823C1F12A
:103250008091BB02E091E902E695E695E81BE093D8
:10326000B402823091F5F0E0E35FFE4FE491CE2F9F
:10327000D0E007E514E18091B502882361F0109257
:10328000B5020E94FF209093B3028093B202109285
:10329000B7021092B6020E94FF20E091B202F091B4
:1032A000B3028E1B9F0B8F3F9F4750F4EC0FFD1F07
:1032B000F093B302E093B20282EB92E0F801099539
:1032C000DF91CF911F910F910895863049F4F0E07E
:1032D000E65FFE4FE491CE2FD0E00BE614E1CBCFBA
:1032E000893051F4E695F0E0E95FFE4FE491CE2F8E
:1032F000D0E004E715E1BFCF8F3051F4E695F0E060
:10330000EC5FFE4FE491CE2FD0E008EA15E1B3CF99
:10331000853149F4F0E0EF5FFE4FE491CE2FD0E02D
:103320000DE116E1A8CFC8E2D0E000E916E188314E
:1033300009F4A1CF833239F4EFEFF0E0C591D491D5
:103340000BE714E198CFC4EFD1E00BE017E1843232
:1033500009F491CFC0EDD7E005E113E1853209F022
:103360008ACF8E2F63E00E94E427E92FF0E0E4503B
:10337000FF4FE491CE2FD0E002E417E17CCF089517
:103380000E9420190895519A0895FC01EE0FFF1F25
:10339000E80FF91FEF50FD4F6183408322830895AA
:1033A000E1EFF2E08183608342838483638345831A
:1033B00087836683408708953BB13D7F2BB12260B0
:1033C0004FB7F89481EF92E0FC015191CF0168E092
:1033D0002BB9000000C057FF3BB9550F000000C0DB
:1033E00000C000C03BB900C06A9591F7F2E08A3F87
:1033F0009F0751F74FBF8FE594E00197F1F700C0A9
:10340000000008950E940D0D089580E00E94E610CE
:10341000817008950E949D112FEF86E791E0215061
:1034200080409040E1F700C000000E949D110E9482
:10343000051A882321F00E94021A0E943B21089558
:103440000E940A1A0895CF93DF93EB0186319C47BF
:1034500011F50E94EB0B9D81992399F08A7A91E0F6
:1034600009F490E09093BD02811109C089E20E94A5
:10347000891F0E949F0C80E0DF91CF91089585E322
:10348000F6CF8091BD02811104C089E20E94A31F82
:10349000F0CF85E3FBCF81E0EFCFCF93DF93EC015B
:1034A000FB018581882309F4D2C09E013057233265
:1034B000310508F0B2C00E94300D9093DE02809377
:1034C000DD02FE01E150F047E232F10520F4E55063
:1034D000F64D0C9448288091DD0281608093DD02D6
:1034E00093C08091DE0288608093DE028DC080915F
:1034F000DD028260F3CF8091DD028460EFCF8091A6
:10350000DD028860EBCF8091DE028160EDCF80919B
:10351000DE028260E9CF8091DD028061DFCF8091A1
:10352000DD028062DBCF8091DD028064D7CF0E9414
:1035300070078091DD028068D1CF8091DD028C60C0
:10354000CDCF8091DE028360CFCF8091DD028E7F70
:10355000C5CF8091DE02877FC7CF8091DD028D7F4E
:10356000BDCF8091DD028B7FB9CF8091DD02877F57
:10357000B5CF8091DE028E7FB7CF8091DE028D7F46
:10358000B3CF8091DD028F7EA9CF8091DD028F7D48
:10359000A5CF8091DD028F7BA1CF0E947007809123
:1035A000DD028F779BCF8091DD02837F97CF809163
:1035B000DE028C7F99CF8091DD0282FB992790F902
:1035C00021E0922790FB82F990FB83F987CF8091CD
:1035D000DE02982F909591708E7F892B90FB81F958
:1035E00083CF9091DD02892F8F7B96FF806476CF09
:1035F0000E9470079091DD02892F97FB87F9805810
:103600006DCF81E00E94B60D8091DD029091DE02C7
:103610000E94350D0E94700780E0DF91CF910895E0
:1036200080E0F0CF9091DD02892F8F7E94FF806142
:1036300055CF9091DD02892F8E7F90FF81604ECF14
:103640009091DE02892F877F93FF88604DCF81E0C4
:10365000E4CF282F35EB2303C001112497FF04C0CA
:1036600080589109892F089580589F4FFBCF8091F2
:10367000C40280FF0DC06091200170E0660F771FCB
:103680006038710570F56115710569F1862F08952F
:1036900081FF07C06091200184E0689FB001112480
:1036A000EFCF6091200182FD0AC08091C302882380
:1036B000A9F020911F0160912001821710F088E08D
:1036C000ECCF869FC001112433E0880F991F3A95F3
:1036D000E1F7622F70E00E941228D2CF68E070E01C
:1036E000D5CF8FE7089581E008958091C40280FFCF
:1036F0000CC060911C0170E0759567957595679594
:103700006115710549F1862F089581FF06C060910A
:103710001C0170E075956795F3CF60911C0182FDE7
:103720000BC09091C2029923A1F060911B0180917E
:103730001C01961738F0682F70E06038710500F3AF
:103740008FE70895899FC001112470E00E9412281C
:10375000F4CF61E070E0D7CF81E008958D3C31F483
:103760000E94371B81958093C80208958E3C19F4FE
:103770000E94371BF8CF8F3C31F40E94371B819594
:103780008093C7020895803D19F40E94371BF8CF3B
:10379000893D29F40E94751B8093C90208958A3DD2
:1037A00021F40E94751B8195F7CF8B3D31F40E9467
:1037B000751B81958093CA0208958C3D19F40E946F
:1037C000751BF8CF9FE2980F983070F4815D990BCC
:1037D00021E030E001C0220F8A95EAF78091C6020D
:1037E000822B8093C60208958D3D31F48091C402EE
:1037F00081608093C40208958E3D21F48091C402BB
:103800008260F7CF8F3DB9F78091C4028460F1CF19
:103810004091C7028D3C59F48091C80287FF0DC0CA
:103820001092C80241110BC01092C30208C08E3C16
:1038300081F48091C80218169CF3442381F0809192
:10384000C9029091CA02892B09F05AC01092C20293
:1038500008958F3C49F447FFF0CF1092C702809142
:10386000C8028111ECCFE0CF803D19F41416ACF3FF
:10387000E4CF9091C902893D29F41916F4F610920B
:10388000C902DBCF8A3D19F497FFD7CFF8CF9091CB
:10389000CA028B3D29F497FFD0CF1092CA02CDCF38
:1038A0008C3D19F41916CCF3C8CF9FE2980F9830CD
:1038B00090F4815D990B21E030E0B90102C0660F00
:1038C000771F8A95E2F7CB0180959091C6028923F4
:1038D0008093C602B2CF8D3D31F48091C4028E7FB9
:1038E0008093C402AACF8E3D21F48091C4028D7FC3
:1038F000F7CF8F3D09F0A1CF8091C4028B7FF0CF2D
:1039000008950E94FF209C019091C7028091C802F7
:10391000982B21F03093C1022093C0029091C902EC
:103920008091CA02982B21F03093BF022093BE02EF
:1039300085EC92E00E94831E089586E0E5ECF2E0BB
:10394000DF011D928A95E9F71092C3021092C2021C
:103950001092C4020895FC01828181110EC08381FE
:1039600081110BC08481811108C091E08581811192
:1039700001C090E0892F8170089581E0FCCFA6E01E
:10398000B0E0E5ECFCE10C948E2886E0E5ECF2E09A
:10399000DE01119601900D928A95E1F71092C7020F
:1039A0001092C8021092C9021092CA028B819C81A7
:1039B000892B89F08091C0029091C1020E948E20D3
:1039C000AC019091C3029923C9F180912101841720
:1039D000150608F440C08D819E81892B91F080915D
:1039E000BE029091BF020E948E20AC019091C20253
:1039F000992309F46AC080911D018417150608F403
:103A000072C0BE016F5F7F4F85EC92E00E94D71FAE
:103A1000811105C085EC92E00E94AB1C81110E94CF
:103A2000811C86E0FE013196A5ECB2E001900D927A
:103A30008A95E1F72696E3E00C94AA2820912201CA
:103A40008AE0289F900111242417350720F69F5FF4
:103A50009093C30202C09F3FD1F71B81112359F0FD
:103A60000E94371B9FEF11160CF491E0899F802D67
:103A700011248093C7021C81112359F00E94371B27
:103A80009FEF11160CF491E0899F802D11248093F3
:103A9000C8028091C702882309F49DCF1091C80203
:103AA000112309F498CF0E94291B882351F0809399
:103AB000C702812F0E94291B882329F08093C80206
:103AC0008ACF81E0F4CF81E0F9CF20911E018AE016
:103AD000289F900111242417350708F092CF9F5F8B
:103AE0009093C20202C09F3FD1F71D81112359F06C
:103AF0000E94751B9FEF11160CF491E0899F802D99
:103B000011248093C9021E81112359F00E94751B54
:103B10009FEF11160CF491E0899F802D1124809362
:103B2000CA028091C902882309F46BCF1091CA029E
:103B3000112309F466CF0E94291B882351F080933A
:103B4000C902812F0E94291B882329F08093CA0271
:103B500058CF81E0F4CF81E0F9CF0F931F93CF933B
:103B6000DF93C42FD22FFC0185818823C9F04093B5
:103B7000CD020E94FF209093CC028093CB0280E282
:103B80008C0F883040F4C77081E001C0880FCA955F
:103B9000EAF70E941B05DF91CF911F910F910895C5
:103BA0001091CD02141332C08091CB029091CC02BF
:103BB0000E948E20883C910548F5C0E2CD0F1D176C
:103BC000B9F080E2810F883040F4177081E001C0C5
:103BD000880F1A95EAF70E942205C83048F481E060
:103BE0009D2F977001C0880F9A95EAF70E941B05D8
:103BF000802F0E941205C83070F6D77081E001C096
:103C0000880FDA95EAF70E942205C5CF80E28C0F73
:103C1000883008F6C77081E001C0880FCA95EAF7BE
:103C2000F2CF0F93DB0188519C4787309105A0F5B7
:103C3000FC01E35EF54D0C94482806E221EE41EECE
:103C40006AE17CE7CD010E94AD1D80E00F910895EF
:103C500007E225EE45EE6BE17CE7F4CF06E221EECC
:103C600040EE68E17CE7EECF07E225EE44EE69E145
:103C70007CE7E8CF06E221EE42EE6CE17CE7E2CFA2
:103C800007E225EE46EE6DE17CE7DCCF08E221E0BD
:103C900045EE6EE17CE7D6CF15968C91882319F01E
:103CA0001092CD02D3CF81E0D1CF9093D3028093F5
:103CB000D2020895E091D202F091D302309729F018
:103CC0000190F081E02D0995089580E008950E940B
:103CD0005A1E0895E091D202F091D302309721F05C
:103CE0000280F381E02D09950895E091D202F091D0
:103CF000D302309739F026E0DC012C930480F58163
:103D0000E02D09950895E091D202F091D302309709
:103D100039F022E0DC012C930680F781E02D099533
:103D20000895A3E0B0E0E7E9FEE10C948F2820912C
:103D3000D0023091D10228173907A1F09093D10217
:103D40008093D002E091D202F091D302309751F0EB
:103D500023E029839B838A830084F185E02DCE01B3
:103D6000019609952396E2E00C94AB28A3E0B0E01D
:103D7000ECEBFEE10C948F282091CE023091CF0223
:103D800028173907A1F09093CF028093CE02E091DB
:103D9000D202F091D302309751F024E029839B8323
:103DA0008A830084F185E02DCE0101960995239642
:103DB000E2E00C94AB28CF93DF93C0910601D09141
:103DC000070122960E944D20813081F48091DD020E
:103DD00087FF0CC0C0910401D091050122969EE19D
:103DE00080E0915028F4DF91CF91089596E0F8CFCC
:103DF00029912223B1F38F5FF4CFCF93C82F811184
:103E000002C080E024C00E944D20813011F58091D5
:103E1000DD0287FF1EC0EC2FE695E695E695EE31B4
:103E200080F78091040190910501E80FF92FF11DB1
:103E3000228130E0C77081E090E002C0880F991FB6
:103E4000CA95E2F72823392381E0232BD1F2CF91C1
:103E500008958091060190910701FC013296089621
:103E600021912C1721F0E817F907D1F7CACF81E08B
:103E7000EECF9C01FC0132969FEF80E04191461706
:103E800051F09F3F19F4411101C0982F8F5F863088
:103E9000A9F79F3F09F40895290F311D97FD3A9521
:103EA000F90162830895FC01329608962191261348
:103EB00003C0DF0111971C92E817F907B9F70895BD
:103EC000E62FE695E695E695EE3168F4E80FF92FD2
:103ED000F11D677021E030E001C0220F6A95EAF71A
:103EE0008281822B82830895E62FE695E695E695FA
:103EF000EE3170F4E80FF92FF11D677021E030E02A
:103F000001C0220F6A95EAF7209582812823228337
:103F10000895CF93C82F0E944D206C2F813061F4FB
:103F20008091DD0287FF08C0809104019091050116
:103F30000E94601FCF910895809106019091070122
:103F40000E94391FF7CFCF93C82F0E944D206C2FAE
:103F5000813061F48091DD0287FF08C08091040107
:103F6000909105010E94741FCF91089580910601E0
:103F7000909107010E94531FF7CF0E944D2081307E
:103F800079F48091DD0287FF0BC0E0910401F0918C
:103F9000050132968EE1DF011D928A95E9F70895B9
:103FA000E0910601F0910701329686E0F4CFDC0142
:103FB000FB0111969C9111978181981322C0129652
:103FC0008C911297882319F0928189131AC0139645
:103FD0008C911397882319F09381891312C0159639
:103FE0008C911597882319F0958189130AC014962E
:103FF0009C91992321F081E02481291303C080E062
:1040000001C081E08170089508950E940420089500
:1040100081110EC081E0809326016091230170918F
:10402000240180912501909126010E940520089588
:1040300082E0F1CF83E080932601609123017091AB
:10404000240180912501909126010E940520089568
:104050000E940820089581E0809326016091230149
:104060007091240180912501909126010E940520E4
:1040700008950E942B20089591E0811101C090E0E5
:104080009093250160912301709124018091250175
:10409000909126010E9405200895809125010895A0
:1040A0008093240160912301709124018091250166
:1040B000909126010E940520089580912401089581
:1040C0008093230160912301709124018091250147
:1040D000909126010E940520089580912301089562
:1040E000089508950E9471200895089508950E94EA
:1040F00070200895CF930E9475200E949D110E9408
:104100007620C0E08C2F0E94E610811105C0CF5FA1
:10411000C530C1F7CF91089581E0FCCFCF93DF93F5
:10412000EC010E94FF208C1B9D0BDF91CF91089525
:1041300085B7806885BF85B7806885BF08951F9261
:104140001FB61F9211248F939F93AF93BF938091BB
:10415000D402811113C08091FA029091FB02A091C8
:10416000FC02B091FD024196A11DB11D8093FA029F
:104170009093FB02A093FC02B093FD02BF91AF911C
:104180009F918F911F901FBE1F90189580910203E1
:10419000843031F10E9489031092D40288E190E0CA
:1041A00020E40FB6F894A895809360000FBE20938A
:1041B000600083B7817F846083BF83B7816083BFE2
:1041C0007894889583B78E7F83BF0FB6F894A895AF
:1041D00080916000886180936000109260000FBE43
:1041E00008950E9470070E949003089582E084BDA4
:1041F00093E095BD9AEF97BD80936E0008952FB719
:10420000F8948091FA029091FB02A091FC02B09187
:10421000FD022FBF08952FB7F8946091FA027091B4
:10422000FB028091FC029091FD022FBF08957894CB
:104230001F921FB61F9211248F939F93AF93BF932A
:104240008091FA029091FB02A091FC02B091FD02D4
:104250000196A11DB11D8093FA029093FB02A093D9
:10426000FC02B093FD02BF91AF919F918F911F907F
:104270001FBE1F90189587E797E7909301088093DA
:10428000000888E19AE00FB6F894A8958093600042
:104290000FBE90936000FFCF88E19AE00FB6F894CC
:1042A000A895809360000FBE90936000FFCF9B01A4
:1042B000BA01909102039430E9F48F708093E90081
:1042C0009FEF8091E800915085FD06C085ED8A95AD
:1042D000F1F700009111F5CF8091E80085FF0AC049
:1042E00050E040E0C9010E945D238091E8008E7794
:1042F0008093E800089543E050E0BC0182E00E9412
:104300005721089546E050E0BC0182E00E94572109
:10431000089540E250E0BC0182E00E9457210895D8
:10432000CF93DF93EC010E944D2048E050E0BE01A6
:1043300081E00E94572188E0FE01A5EDB2E00190E6
:104340000D928A95E1F7DF91CF9108958091010355
:10435000811109C00E94ED240E944A258091E2004B
:1043600084608093E20008951092010308950E94F2
:104370002B2081E00E943C2008956091FE0281E0A4
:10438000611101C080E00E941A20089590910203FB
:1043900081E0943009F080E06091FE020E942820C4
:1043A000089542E061EC81E00E94692442E261EC00
:1043B00082E00E9469249091020381E0943009F028
:1043C00080E06091FE020E9408200895809104031D
:1043D000833009F461C030F48130D1F1823009F4C6
:1043E0009EC008958A3009F48AC08B3009F46FC0EA
:1043F000893009F050C080910303813209F04BC02D
:104400008091070390910803029708F044C08091BF
:10441000E800877F8093E8008091E80082FF37C042
:104420009091F3008091F200029731F48091F100B5
:10443000813011F0863021F48091F1000E945020EB
:104440008091E8008B778093E8000E949D2423C030
:1044500080910303813AF9F48091E800877F80938B
:10446000E8008091070390910803892B61F468E0CC
:1044700085ED92E070E00E94AC238091E8008B779C
:104480008093E800089560E090E080E0F3CF8091B1
:1044900002038111C1CF089580910303813AD9F7B6
:1044A0008091070390910803892BA9F78091E80078
:1044B000877F8093E8008091E80080FFFCCF0E9416
:1044C0004D208093F1008091E8008E77BCCF8091E1
:1044D0000303813201F78091070390910803892B30
:1044E000D1F68091E800877F8093E8000E949D24A8
:1044F000809105030E943C200E94700708958091DE
:104500000303813241F68091E800877F8093E800C1
:104510000E949D24809106030E946020089580914E
:104520000303813A09F0B7CF8091E800877F809339
:10453000E8008091E80080FFFCCF0E946D20C1CF91
:1045400084B7877F84BF0FB6F894A89580916000E8
:10455000886180936000109260000FBE80E890E058
:104560000FB6F89480936100909361000FBE0E9493
:10457000392008950E94ED240E944A25E2EEF0E0E1
:1045800080818460808378940E94C927089587E29F
:1045900091E00E94551E089580910203853031F408
:1045A00080910203853019F00E94F12008950E9445
:1045B000C6200E947A20882399F3809100038823E3
:1045C00079F30E9447230E947007EACF08959A0169
:1045D0004091090350910A030E94EF220895492F48
:1045E00055274330510519F168F44130510509F45C
:1045F00044C04230510509F445C090E080E050E0ED
:1046000040E025C04132510549F142325105A9F738
:1046100084E490E04BE354E061157105C1F086EB52
:1046200090E045E853E06130710589F0E6CF9927C5
:104630008130910581F0009729F00297F1F6E6E1CB
:10464000F3E002C0E4E3F3E0849190E0AF01F9010C
:10465000518340830895E4E2F3E0F6CF89E090E0EF
:104660004AE453E06115710591F389E090E043E677
:1046700053E06130710559F3C0CF82E190E043E728
:1046800053E0E5CF8BE390E048E353E0E0CF80E1F7
:1046900089BD82E189BD09B400FEFDCF8091D800BB
:1046A0008F7D8093D8008091E00082608093E0004D
:1046B0008091E00081FDFCCF0895AF92BF92CF9230
:1046C000DF92FF920F931F93CF93DF936C01EB0167
:1046D0008A010E94BC24F82E811123C00115110506
:1046E00039F0F80180819181C81BD90BC80ED91E01
:1046F000B12CA12C2097A9F08091E80085FD22C063
:104700008091E8008E778093E80001151105A1F0F3
:10471000F80180819181A80EB91EB182A08285E046
:10472000F82E8F2DDF91CF911F910F91FF90DF9089
:10473000CF90BF90AF9008950E94BC248823D1F2FF
:10474000F82EEFCFF60181916F018093F100219750
:10475000FFEFAF1ABF0ACECFFC0180910903909101
:104760000A0386179707A0F06115710529F4909147
:10477000E8009E779093E80090E06115710551F490
:10478000911108C08091E80082FF34C080E0089554
:10479000BC01F2CF809102038823C1F18530C1F1C1
:1047A0008091E80083FD30C08091E80082FDEACF6F
:1047B0008091E80080FFE1CF8091F3002091F2002A
:1047C000382F6115710519F02830310558F091E046
:1047D0002830310509F090E02091E8002E772093F1
:1047E000E800CBCF81918093F100615071092F5F78
:1047F0003F4FE7CF80910203882341F0853041F09D
:104800008091E80083FFBECF81E0089582E00895A3
:1048100083E00895FC018091090390910A038617B3
:104820009707A0F06115710529F48091E8008E7753
:104830008093E80090E06115710551F4911108C072
:104840008091E80082FF35C080E00895BC01F2CF7E
:10485000809102038823C9F18530C9F18091E80075
:1048600083FD31C08091E80082FDEACF8091E800AD
:1048700080FFE1CF8091F3002091F200382F611585
:10488000710519F02830310558F091E028303105D4
:1048900009F090E08091E8008E778093E800CBCF1C
:1048A00084918093F1003196615071092F5F3F4FE1
:1048B000E6CF80910203882341F0853041F080915A
:1048C000E80083FFBDCF81E0089582E0089583E092
:1048D0000895982F973028F08F708093E90081E039
:1048E00008959093E900242F762F50E0981731F027
:1048F0007091EC002091ED005091F00021FD02C07C
:104900009F5FE8CF3091EB003E7F3093EB0030911A
:10491000ED003D7F3093ED003091EB00316030933E
:10492000EB007093EC002093ED005093F000209189
:10493000EE0027FDE5CF80E008958091030387FF17
:1049400013C08091E80082FF06C08091E8008B7759
:104950008093E80004C0809102038111F2CF089592
:10496000809102038823D9F38091E80080FFF8CF7B
:104970008091E8008E77ECCF2091E4003091E50043
:1049800095E6A9012091EC00822F817020FF06C0DE
:104990008091E80080FF06C080E008952091E80043
:1049A00022FD1AC080910203882389F0853089F0A6
:1049B0008091EB0085FD0FC02091E4003091E5006F
:1049C00042175307F9F29150E1F684E0089582E02E
:1049D000089583E0089581E008950E945C250E9477
:1049E0006425E0EEF0E0808181608083E8EDF0E016
:1049F00080818F77808319BCA7EDB0E08C918E7F8A
:104A00008C9380818F7E80831092010308950F9391
:104A10001F93CF93DF930E945C250E946425C8ED0D
:104A2000D0E088818F7788838881806888838881B7
:104A30008F7D888319BC109202031092FE0210929F
:104A400000031092FF0200EE10E0F80180818B7FDE
:104A5000808388818160888342E060E080E00E94FA
:104A60006924E1EEF0E080818E7F8083E2EEF0E069
:104A7000808181608083808188608083F80180816B
:104A80008E7F8083888180618883DF91CF911F91A1
:104A90000F910895E8EDF0E080818F7E8083E7ED4F
:104AA000F0E080818160808384E082BF81E0809338
:104AB00001030E9407250895E8EDF0E080818E7FD4
:104AC00080831092E20008951092DA001092E100C3
:104AD00008951F920F920FB60F9211242F933F93B8
:104AE0004F935F936F937F938F939F93AF93BF93F6
:104AF000EF93FF938091E10082FF0BC08091E20071
:104B000082FF07C08091E1008B7F8093E1000E94CB
:104B1000C8278091DA0080FF19C08091D80080FFFB
:104B200015C08091DA008E7F8093DA008091D900E1
:104B300080FF96C080E189BD82E189BD09B400FE95
:104B4000FDCF81E0809302030E94A6218091E100C5
:104B500080FF19C08091E20080FF15C08091E200C3
:104B60008E7F8093E2008091E20080618093E2007A
:104B70008091D80080628093D80019BC85E0809332
:104B800002030E94BD218091E10084FF2BC080912F
:104B9000E20084FF27C080E189BD82E189BD89B53B
:104BA000982F917080FFFBCF8091D8008F7D8093EC
:104BB000D8008091E1008F7E8093E1008091E20037
:104BC0008F7E8093E2008091E20081608093E2001A
:104BD0008091FE02882309F449C084E08093020397
:104BE0000E94C6218091E10083FF29C08091E200EC
:104BF00083FF25C08091E100877F8093E10082E000
:104C0000809302031092FE028091E1008E7F8093D8
:104C1000E1008091E2008E7F8093E2008091E200CB
:104C200080618093E20042E060E080E00E946924BD
:104C30008091F00088608093F0000E94B721FF917E
:104C4000EF91BF91AF919F918F917F916F915F9104
:104C50004F913F912F910F900FBE0F901F9018957D
:104C600019BC109202030E94B42170CF8091E3001E
:104C700087FD93E090930203B3CF1F920F920FB67C
:104C80000F9211242F933F934F935F936F937F93D2
:104C90008F939F93AF93BF93CF93DF93EF93FF9344
:104CA000D091E900DF708091EC00C82FC17080FDC9
:104CB000C0E81092E9008091F000877F8093F000B7
:104CC00078940E9481261092E9008091F00088601B
:104CD0008093F000CD2BCF70C093E900FF91EF914E
:104CE000DF91CF91BF91AF919F918F917F916F9104
:104CF0005F914F913F912F910F900FBE0F901F909A
:104D00001895AAE2B0E0E7E8F6E20C948E2883E07A
:104D100093E02091F100FC012193CF01F3E08B306F
:104D20009F07B9F70E94E6218091E80083FF1EC12A
:104D300080910303909104039A3008F017C1E92F82
:104D4000F0E0EC5DF54D0C944828803899F08238FD
:104D500009F00CC1809107038F70873008F006C1FD
:104D60008093E9008091EB0085FB882780F9109201
:104D7000E90006C08091FF029091000391118260CA
:104D80009091E800977F9093E8008093F100109253
:104D9000F1008091E8008E77E5C0882309F4D3C044
:104DA000823009F0E3C0809105038111D6C0809163
:104DB00007038F702FEF280F263008F0D7C080939D
:104DC000E9002091EB0020FFC8C0933031F48091BE
:104DD000EB0080628093EB00C0C09091EB0090618B
:104DE0009093EB0021E030E001C0220F8A95EAF7B2
:104DF0002093EA001092EA008091EB008860EACFED
:104E00008111B4C0109105031F778091E300807871
:104E1000812B8093E3008091E800877F8093E800F6
:104E20000E949D248091E80080FFFCCF8091E300E8
:104E300080688093E30082E0111183E08093020395
:104E400095C08058823008F091C080910503909100
:104E500006038C3D23E09207A1F583E08A838AE272
:104E600089834FB7F894DE01139620E03EE051E2CB
:104E7000E32FF0E050935700E49120FF03C0E29548
:104E8000EF703F5FEF708E2F90E0EA30C0F0C79672
:104E90008D939D932F5F243159F74FBF8091E80088
:104EA000877F8093E8006AE270E0CE0101960E945D
:104EB000AC238091E8008B778093E80057C0C096C0
:104EC000E7CF6091070370910803AE014F5F5F4F1A
:104ED0000E94E722BC01892B09F448C09091E800A8
:104EE000977F9093E80089819A810E940A24E1CFFC
:104EF0008038E1F58091E800877F8093E800809119
:104F0000FE028093F10045CF811130C090910503DE
:104F1000923060F58091E800877F8093E80090935D
:104F2000FE020E949D248091FE02882311F084E0FD
:104F300005C08091E30087FDFACF81E080930203F2
:104F40000E94D12113C080910503813079F481E062
:104F5000933009F080E0809300031092E900809183
:104F6000E800877F8093E8000E949D248091E800FC
:104F700083FF0AC08091E800877F8093E8008091DA
:104F8000EB0080628093EB00AA96E3E00C94AA28E1
:104F90000895CF93809102038823A1F0C091E90086
:104FA000CF709091EC00892F817090FD80E8C82B24
:104FB0001092E9008091E80083FD0E948126CF7065
:104FC000C093E900CF910895991B79E004C0991F1F
:104FD000961708F0961B881F7A95C9F78095089553
:104FE00087FB082E062687FD819567FD61950E9447
:104FF000E4270EF4919507FC81950895AA1BBB1B2D
:1050000051E107C0AA1FBB1FA617B70710F0A61BC8
:10501000B70B881F991F5A95A9F780959095BC01E9
:10502000CD01089597FB072E16F4009407D077FD65
:1050300009D00E94FE2707FC05D03EF4909581958B
:105040009F4F0895709561957F4F0895A1E21A2EA4
:10505000AA1BBB1BFD010DC0AA1FBB1FEE1FFF1F1C
:10506000A217B307E407F50720F0A21BB30BE40B6C
:10507000F50B661F771F881F991F1A9469F76095B3
:105080007095809590959B01AC01BD01CF0108956D
:10509000EE0FFF1F0590F491E02D09940E94562811
:1050A000332312F48A1B9B0B0C946728A29FB00138
:1050B000B39FC001A39F700D811D1124911DB29F4C
:1050C000700D811D1124911D08950E945628B7FF6F
:1050D0000895821B930B08950E945628A59F900D5A
:1050E000B49F900DA49F800D911D11240895B7FFCA
:1050F0000C946C280E946C28821B930B08952F92AD
:105100003F924F925F926F927F928F929F92AF9257
:10511000BF92CF92DF92EF92FF920F931F93CF93A4
:10512000DF93CDB7DEB7CA1BDB0B0FB6F894DEBF3B
:105130000FBECDBF09942A88398848885F846E8461
:105140007D848C849B84AA84B984C884DF80EE80AB
:10515000FD800C811B81AA81B981CE0FD11D0FB6B4
:10516000F894DEBF0FBECDBFED010895002E0830CC
:1051700090F0982F872F762F652F542F432F322FA3
:1051800022270850F4CF220F331F441F551F661FDC
:10519000771F881F991F0A95B2F7002D089597FD74
:1051A0001094002E083098F00850232F342F452FEC
:1051B000562F672F782F892F912DF4CF159497951F
:1051C00087957795679557954795379527950A95CC
:1051D000AAF71124002D08958F929F92AF92BF924B
:1051E000CF92DF92EF92FF92CF93DF93EC01688131
:1051F00079818A819B81611571058105910521F471
:1052000064E279ED8BE597E02DE133EF41E050E08A
:105210000E94C32949015A019B01AC01A7EAB1E4EC
:105220000E946C286B017C01ACEEB4EFA5019401E7
:105230000E947A28DC01CB018C0D9D1DAE1DBF1D87
:10524000B7FF03C00197A109B04888839983AA8357
:10525000BB839F77DF91CF91FF90EF90DF90CF904E
:10526000BF90AF909F908F9008950E94EC28089572
:1052700080E091E00E94EC280895B0E0A0E08093E7
:10528000000190930101A0930201B09303010895DE
:10529000FC014150504030F001900616D1F7319793
:1052A000CF010895882799270895FB01DC0104C0E8
:1052B0008D910190801921F441505040C8F7881B0E
:1052C000990B0895FB01DC0102C001900D92415041
:1052D0005040D8F70895F999FECF92BD81BDF89A54
:1052E000992780B50895A6E1B0E044E050E00C9421
:1052F000B529A8E1B0E042E050E00C94B529DC010A
:10530000A40FB51F4150504048F0CB01840F951FAA
:105310002E910E94902941505040D0F70895262F99
:10532000F999FECF92BD81BDF89A019700B402169B
:1053300039F01FBA20BD0FB6F894FA9AF99A0FBE49
:1053400008950396272F0E9490290E948F29252FC8
:105350000E949029242F0C9490290196272F0E94B7
:1053600090290C948F29DC01CB01FC01F999FECF27
:1053700006C0F2BDE1BDF89A319600B40D924150DD
:105380005040B8F70895052E97FB1EF400940E9434
:10539000DA2957FD07D00E94262807FC03D04EF4D7
:1053A0000C94DA2950954095309521953F4F4F4FF9
:1053B0005F4F089590958095709561957F4F8F4FC1
:1053C0009F4F0895F894FFCF6A056A05A805A805C0
:1053D0000C062806990599052D069E06AD06AD0614
:1053E00045124D12521257125C12611266126B1264
:1053F000701275127A12A51A191BAD1A771A7B1A38
:10540000B11A7F1AB51AC11A8B1A121B8F1AC51A34
:10541000931AC91AF11A971ACD1AF81A9D1AD31AA3
:10542000DB1A831AB91A871ABD1AA11AD71AE71AF2
:10543000011B101B711AA91A201B2E1E341E1D1EC3
:10544000281E3A1E401E461EA526CD26B627CD266E
:0C545000B62700272127B62778278427DD
:10545C000100000064028402010102000300030346
:10546C0001191A1B1C1D1E1F202122280850011E69
:10547C000A1401000001005D209021892182217B0A
:10548C0021E200E900EA00B500B600B700CD0083C8
:10549C0001CC008A019201940121022302240225ED
:1054AC0002260227022A02B300B4006F0070009F8C
:1054BC0001CB019F02A002818283E200E900EA0095
:1054CC00B500B600B700CD008301CC008A01920173
:1054DC0094012102230224022502260227022A0219
:1054EC00B300B4006F0070009F01CB019F02A002BB
:1054FC00818283F4F594903134F636320001020245
:10550C0002020606060909090909090F0F0F0F0FF8
:10551C000F151515181919191919191919191923FC
:10552C0024252525252525C319C519D019DC1900D5
:00000001FF
