:100000000C94F8040C9420050C9420050C94200505
:100010000C9420050C9420050C9420050C942005CC
:100020000C9420050C9420050C94BB270C948C2870
:100030000C9429210C9420050C9420050C94200587
:100040000C9420050C9420050C9420050C9420059C
:100050000C9420050C9485210C9420050C9420050B
:100060000C9420050C9420050C9420050C9420057C
:100070000C9420050C9420050C9420050C9420056C
:100080000C9420050C9420050C9420050C9420055C
:100090000C9420050C9420050C9420050C9420054C
:1000A0000C9420050C9420050C9420050A002530A2
:1000B00033326C62003A200025303258000A722F29
:1000C0006320303132333435363738394142434496
:1000D000454630313233343536373839414243447E
:1000E00045460A006D63703A207365745F726567F8
:1000F0006973746572202564203D20256420666143
:10010000696C65643A2025730A000000290000002C
:100110003A003B003C003D003E003F0040004100F3
:100120004200430044004500A800AA00A900350091
:100130001E001F00200021002200230024002500B3
:10014000260027002D002E0000002A0049004A004A
:100150004B002B0014001A000800150017000000C7
:100160001C0018000C00120013002F00300031009A
:100170004C004D004E003900040016000700090035
:100180000A0000000B000D000E000F0033003400C9
:1001900000002800000000000000E1001D001B001E
:1001A000060019000500000011001000360037009D
:1001B000380000000000E500000052000000E000F0
:1001C000E200E30000002C00000000002C00000012
:1001D000E7000000E600E400000065005000510068
:1001E0004F0044454255473A2064697361626C652B
:1001F000642E0A0044454255473A20656E61626CA0
:1002000065642E0A000A0025303258006C65645F70
:100210007461736B3A20004F6E6573686F743A2097
:100220006163746976653A2025640A0041542B4263
:100230004C45484944434F4E54524F4C4B45593D11
:100240003078253034780041542B424C454B455989
:10025000424F415244434F44453D253032782D3082
:10026000302D253032782D253032782D25303278DA
:100270002D253032782D253032782D2530327800FA
:1002800073656E64206C6174656E63792025646D9E
:10029000730A0041542B474150474554434F4E4E3B
:1002A0000041542B4556454E54454E41424C453D28
:1002B0003078320041542B4556454E54454E41420C
:1002C0004C453D30783100424C4520646973636F82
:1002D0006E6E65637465640A00424C4520636F6E00
:1002E0006E65637465640A006661696C65642042CA
:1002F0004C4520636F6D6D616E643A2025533A2042
:1003000025730A00680329034F03410310032503E3
:1003100041542B424C45504F5745524C4556454C45
:100320003D2D31320041545A0041542B4741504930
:100330004E54455256414C533D31302C33302C2CC9
:100340000041542B424C45484944454E3D31004103
:10035000542B4741504445564E414D453D4E454B2B
:1003600020547970652041004154453D300077614B
:10037000697465642025646D7320666F72207265F0
:1003800073705F6275660A00626C652073656E64E7
:100390003A2025730A00726573756C743A202573D0
:1003A0000A004F4B00736465705F726563765F701F
:1003B0006B74206661696C65640A007761697420FA
:1003C0006F6E2062756620666F722025730A006664
:1003D00061696C656420746F2073656E642C20778E
:1003E000696C6C2072657472790A0073656E645F63
:1003F0006275665F73656E645F6F6E653A206861F3
:1004000076652025642072656D61696E696E670A84
:100410000077616974696E675F666F725F7265739A
:10042000756C743A2074696D656F75742C207265F3
:1004300073705F6275662073697A652025640A00AF
:1004400072656376206C6174656E63792025646DD6
:10045000730A003F00433E20004C25640A000A094D
:100460002D20537461747573202D0A686F73745F47
:100470006B6579626F6172645F6C65647328293A99
:1004800020253032580A6B6579626F6172645F7043
:10049000726F746F636F6C3A20253032580A6B6547
:1004A00079626F6172645F69646C653A20253032ED
:1004B000580A74696D65725F726561643332282908
:1004C0003A202530386C580A002573000A092D207F
:1004D000436F6E736F6C65202D0A4553432F713A3D
:1004E00009717569740A000A092D204D61676963F5
:1004F000202D0A443A094465627567204D6573737F
:1005000061676520546F67676C650A583A094D61E9
:1005100074726978204465627567204D6F64652048
:10052000546F67676C65202D2053686F77206B656B
:10053000797072657373657320696E206D61747272
:10054000697820677269640A4B3A094B6579626F72
:1005500061726420446562756720546F67676C65DB
:10056000202D2053686F77206B65797072657373E7
:10057000207265706F72740A4D3A0944656275673E
:10058000204D6F75736520546F67676C650A563A26
:100590000956657273696F6E0A533A095374617430
:1005A00075730A433A09416374697661746520433F
:1005B0006F6E736F6C65204D6F64650A46312D4612
:1005C00031303A0953776974636820746F204C6145
:1005D00079657220302D392028463130203D204C5D
:1005E00030290A302D393A095377697463682074C9
:1005F0006F204C6179657220302D390A475241567F
:10060000453A0953776974636820746F204C6179A7
:10061000657220302028616C7465726E6174652982
:100620000A423A094A756D7020746F20426F6F74E8
:100630006C6F616465720A4553433A094A756D707F
:1006400020746F20426F6F746C6F61646572202834
:10065000616C7465726E617465290A453A0950725D
:10066000696E7420454550524F4D2053657474692E
:100670006E67730A4241434B53504143453A094325
:100680006C65617220454550524F4D0A006B65798B
:100690006D61705F636F6E6669672E7261773A2075
:1006A000253032580A2E737761705F636F6E7472F3
:1006B0006F6C5F636170736C6F636B3A2025750AB2
:1006C0002E636170736C6F636B5F746F5F636F6ECB
:1006D00074726F6C3A2025750A2E737761705F6CA7
:1006E00063746C5F6C6775693A2025750A2E7377A1
:1006F00061705F7263746C5F726775693A2025750B
:100700000A2E737761705F6C616C745F6C677569DA
:100710003A2025750A2E737761705F72616C745F81
:10072000726775693A2025750A2E6E6F5F67756965
:100730003A2025750A2E737761705F67726176655E
:100740005F6573633A2025750A2E737761705F6267
:1007500061636B736C6173685F6261636B7370611B
:1007600063653A2025750A2E6E6B726F3A202575E7
:100770000A2E737761705F6573636170655F636193
:1007800070736C6F636B3A2025750A00646562753F
:10079000675F636F6E6669672E7261773A202530F6
:1007A00032580A2E656E61626C653A2025750A2EF4
:1007B0006D61747269783A2025750A2E6B657962CD
:1007C0006F6172643A2025750A2E6D6F7573653AF4
:1007D0002025750A006565636F6E6669673A0A646D
:1007E000656661756C745F6C617965723A20257518
:1007F0000A003F000A6D6F7573653A206F66660ADE
:10080000000A6D6F7573653A206F6E0A000A6B659A
:1008100079626F6172643A206F66660A000A6B65DE
:1008200079626F6172643A206F6E0A000A6D6174BA
:100830007269783A206F66660A000A6D617472699F
:10084000783A206F6E0A000A64656275673A206F15
:1008500066660A000A64656275673A206F6E0A0070
:100860000A0A4A756D70696E6720746F20626F6F37
:10087000746C6F616465722E2E2E2000433E200042
:10088000436C656172696E6720454550524F4D0A51
:10089000000A002530325820006B6579626F617262
:1008A000645F7265706F72743A20005B575D005B25
:1008B000535D005B525D005B445D005B435D001671
:1008C000034E0045004B0020005400790070006585
:1008D000002000410000000C036D0069006B006502
:1008E00000720000000403090409025B0003010018
:1008F000A0FA09040000010301010009211101000F
:1009000001224400070581030800010904010001D8
:1009100003000000092111010001223200070582B5
:100920000320000109040200020300000009211154
:1009300001000122220007058303200001070503AF
:10094000032000011201000200000008EDFE00007B
:100950000100010200010631FF0974A101097515AA
:100960000026FF009520750881020976150026FFF4
:1009700000952075089102C005010980A101850339
:1009800019012AB700150126B700950175108100DD
:10099000C0050C0901A101850419012AA002150155
:1009A00026A002950175108100C005010906A1016C
:1009B000050719E029E71500250195087501810251
:1009C0009501750881010507190029FF150026FF0B
:1009D00000950675088100050819012905150025EF
:1009E00001950575019102950175039101C04E1D98
:1009F00011241FBECFEFDAE0DEBFCDBF12E0A0E0D2
:100A0000B1E0E8E8FCE502C005900D92AE3BB1070D
:100A1000D9F725E0AEEBB2E001C01D92A238B207D3
:100A2000E1F714E0C8EFD4E004C02197FE010E9472
:100A3000582AC73FD107C9F70E944E170C94032EBE
:100A40000C940000FF93EF93E091BE02F091BF027F
:100A5000309709F00995EF91FF910895FC01859178
:100A6000803011F0EFDFFBCF0895FF27E0E230E2A6
:100A700047FF0CC0419597FF09C0EDE26095709566
:100A800080959095611D711D811D911D27FF02C0EC
:100A9000219530E350E2AA27660F771F881F991F20
:100AA000AA1FA41710F0A41B63955A95A9F7AA30A2
:100AB00008F0A95FA05DAF93F395611571058105FD
:100AC000910541F7ED3211F4EF93F395F21718F415
:100AD0003F93F395FBCF8F91B5DFFA95E1F708953A
:100AE000E991F9918591803021F0853219F0AADFE2
:100AF000F9CF089520E0E89455915532C1F3503371
:100B000011F4689455915A3348F4505390F3220FDE
:100B1000022E220F220F200D250FF4CF0EF4219567
:100B200089919991533619F3533729F1533559F176
:100B3000BC0188279927E8945C3621F48991999122
:100B400068945591543639F446EF7EF077FF0DC026
:100B50008FEF9FEF0AC055374AE039F0583540E132
:100B600021F0523642E009F00895FF93EF937DDFC4
:100B7000EF91FF91B7CFFF93EF93FC01819180300C
:100B8000B9F360DFFBCFFF93EF9368DFF1CFDF9323
:100B9000CF93CDB7DEB72596A3DFCF91DF91089530
:100BA00008950E94D005089508950E94D4050895DF
:100BB000CF93DF930E944408ADE0B1E0CFE1D1E0F4
:100BC00041E050E08D91811113C08881E82FE295BA
:100BD000EF70F0E061A18F709A0101C0220F8A9539
:100BE000EAF7922F9095962391A382A1822B82A35C
:100BF000219681E0AF31B80729F7A1E3B1E061E0C8
:100C000070E08D91E82FE295EF70F0E041A18F70D8
:100C10009B0101C0220F8A95EAF7922F90959423A9
:100C200091A382A1822B82A381E0A733B80749F761
:100C3000E8EDF2E0A0ECB2E0119211921192119263
:100C40001D921D921D921D9282E0E03FF807A1F7D0
:100C50000E94D10580E00E943D18DF91CF91089558
:100C6000A5E0B0E0E6E3F6E00C945E2A9FE1292ED1
:100C700091E0392E2DE0C22E21E0D22E1D821C8261
:100C80001C81F10181911F01F60191916F0199235E
:100C900009F499C00E94550850E55A95F1F741E0D2
:100CA00050E060E070E004C0440F551F661F771FDE
:100CB0001A95D2F74A015B0180949094A094B09465
:100CC00080ECE82E82E0F82E81E391E09B838A831A
:100CD00087011982F80181919191A191B1918F01C0
:100CE000EA81FB817190FB83EA83E72DE295EF7047
:100CF000F0E020A130E0E72DEF7002C03595279598
:100D0000EA95E2F7F80134972C013D0120FD70C00F
:100D1000442A552A662A772A408251826282738247
:100D2000408051806280738084159505A605B705C3
:100D300011F0F1E0F98382E0083D180759F6F60159
:100D400031978081882309F458C00E944408598152
:100D5000552349F081E08093F0020E945E21909338
:100D6000F2028093F102EC81FD813196FD83EC83E8
:100D7000729709F085CF8091F0028823E9F0809185
:100D8000F1029091F2020E9476210697A8F028EDD8
:100D900032E0F70181919191A191B1917F01F90127
:100DA00081939193A193B1939F01F8EDEF16F2E037
:100DB000FF0679F71092F0020E94D50581E0259692
:100DC000E2E10C947A2AE82FE295EF70F0E021A19D
:100DD0008F7041E050E002C0440F551F8A95E2F742
:100DE000CA01242B21A392A18095892382A354CFE9
:100DF000482059206A207B208FCFF10131978081D4
:100E0000E82FE295EF70F0E021A18F7041E050E013
:100E100002C0440F551F8A95E2F7CA01942F90959E
:100E2000922391A392A1892B82A391CF94E0899FD1
:100E3000F0011124E852FD4F60817181828193811C
:100E40000895B0E0A0E0E7E2F7E00C94682A8DEBAB
:100E500090E00E942E0588EDE82E82E0F82ED0E08A
:100E6000C0E098EBC92E90E0D92E0EEA10E0DF9397
:100E7000CF93DF92CF920E94C70585EB90E00E944E
:100E80002E05F70161917191819191917F010E94ED
:100E9000B2099F938F937F936F931F930F930E9439
:100EA000C7058CEA90E00E942E0521968DB79EB76B
:100EB0000A960FB6F8949EBF0FBE8DBFC630D105FF
:100EC000B1F6CDB7DEB7E8E00C94842A94EA9093AB
:100ED000BC0094E6699FB0011124AB0120E034EA24
:100EE0004115510509F442C0222331F08093BB0023
:100EF00084E88093BC0027C09091BC0097FF0AC093
:100F00009091B900987F903121F0983351F098304A
:100F100059F421E09AE19A95F1F700C04150510946
:100F2000DFCF3093BC00DCCF84E08093BC0081E055
:100F300008958091BC0087FD10C08AE18A95F1F781
:100F400000C0615071096115710599F783E008953A
:100F500084E98093BC0084E008958091B900887F83
:100F6000883111F08034A1F780E0089584E0809307
:100F7000BC0082E008958093BB0084E88093BC00AD
:100F80008091BC0087FFFCCF9091B900987F81E0F1
:100F9000983209F080E00895B0E0A0E0E2EDF7E0DB
:100FA0000C94672AB42ED52FC22F67018E7F0E9422
:100FB0006607F82E882309F18F2DCDB7DEB7E9E05B
:100FC0000C94832AEC0189910E94BB078823D1F0FD
:100FD000CE01E812F7CFC00ED11E0C151D0549F049
:100FE000F80181918F010E94BB078111F6CF95E036
:100FF000F92E84E98093BC00DFCF8B2D9D2FEC2E42
:10100000EB0CE7CF85E0F82EE6CFA2E0B0E0EBE016
:10101000F8E00C94692AD82E6A838983EE24E3943D
:10102000F12C8E010E5F1F4F21E0AE014F5F5F4F2D
:1010300068EC8EE40E94CC07182F8823F1F087E338
:1010400091E0163040F4E12FF0E0EE0FFF1FE6587C
:10105000FE4F808191819F938F938A811F928F93FE
:101060001F92DF9284EE90E09F938F930E94C705BA
:101070000FB6F894DEBF0FBECDBF81E0111180E046
:101080002296E7E00C94852A6FEF80E00E94050825
:101090006FEF81E00E9405086FEF84E10E94050870
:1010A0006FEF85E10E9405080895CF93982F977000
:1010B00061E070E001C0660F9A95EAF7C62FC0950F
:1010C0006C2F883048F480E00E9405086C2F84E182
:1010D0000E940508CF91089581E00E9405086C2FB9
:1010E00085E1F6CF811112C0663080F4423170F490
:1010F000E42FF0E082E1689FE00DF11D1124EE0F76
:10110000FF1FE65FFE4F85919491089581E090E086
:1011100008950E947208089581E008950E948C0845
:10112000089581E008950E948C0808950E94930814
:10113000089508950E9499080895A6E0B0E0E3EAB2
:10114000F8E00C946D2A49835A839E833091F8020B
:1011500089819A8131111AC03E81332399F022236B
:1011600089F00E94030F182F682F89819A810E94AD
:10117000DF0E69817A81812F0E941F162696E3E097
:101180000C94892A0E94F10E182FF3CF0E94030FAE
:1011900069817A81F1CFFC01262F408151816281E2
:1011A0007381848195810E949D080895CF93DF9378
:1011B000EC0161E00E94CB08BE010E948E08DF9125
:1011C000CF910895CF93DF93EC0160E00E94CB08AC
:1011D000BE010E949A08DF91CF91089508950E9460
:1011E000B40D0E94EE082FE78AE196E0215080407E
:1011F0009040E1F700C0000008950E94EF080E94AF
:10120000A92108950E94EF080E94BA2108950F9322
:101210001F93CF93DF938C0161E00E94CB08EC0118
:10122000B8010E949608811106C080E0DF91CF913D
:101230001F910F910895B801CE010E94B01F88231D
:10124000A1F3B801CE010E946017882371F3B801A1
:10125000CE010E94221F882341F3F8018581882353
:1012600071F0C032FCE7DF0709F446C0C0F4C130BA
:10127000ECE7DE0789F038F4C115DC4741F1C8011D
:101280000E949108D3CFC230ECE7DE0719F1C330DA
:10129000DC47A9F70E9454130E940209C6CFCA3541
:1012A0008CE7D80779F148F4C132FCE7DF0741F158
:1012B000C232DC4721F783E020C0CB35ECE7DE0704
:1012C00021F1CC35DC47D9F60E944213D8CF0E94D9
:1012D000FD08ABCF9091AD03892F8E7F90FF816089
:1012E0008093AD0380FF05C084EF91E00E942E053E
:1012F0009CCF82EE91E0FACF80E00E943D1895CF1E
:1013000082E0FBCF0E944C13BACF0E945013B7CF9C
:101310000E94F0090E941F210895829590E09C018F
:10132000220F331F220F331F2C7C9595879595959F
:1013300087958373282B30E0C901880F991F8A7A1B
:10134000359527952575822B0895CF93DF93D92F57
:101350000E948D09C82F8D2F0E948D099C2FDF912F
:10136000CF910895B0E0A0E0E8EBF9E00C94682A92
:101370006B017C01CB010E94A509EC01C7010E9411
:10138000A5098C01BE0190E080E0CB01772766279C
:1013900030E020E0602B712B822B932BCDB7DEB792
:1013A000E8E00C94842A089581E008950895CF938D
:1013B000DF93D82F0E94D409C82F882319F08D2FCE
:1013C0000E94D6098C2FDF91CF9108950895CF9375
:1013D000C82F0E94D3098C2F0E94D709CF9108955E
:1013E0000E94F91F0E94E7090895CF930E94F91FF8
:1013F000C82F8091F3028C1789F1C093F3020E94E9
:101400006A216093F4027093F5028093F602909340
:10141000F7028091AD0382FF1EC080FF1CC08CE0EC
:1014200092E00E942E058091AD0380FF14C01F92B0
:10143000CF9387E092E09F938F930E94C70580919E
:10144000AD030F900F900F900F9080FF04C085E0C8
:1014500092E00E942E058C2F0E94E709CF910895FB
:10146000ADE0B0E0E6E3FAE00C946E2A48875987D5
:101470006A877B878C879D8791110E9467121F82E4
:1014800086E0FE013896DE01119601900D928A9554
:10149000E1F78D8181110DC029813A814B815C81F9
:1014A0006D817E818F810E949A112D96E2E00C94CD
:1014B0008A2ACE0101960E94D6088111EDCFF5CF80
:1014C000FC012481213021F4808191810E94350F1B
:1014D0000895CF93C82F8823C9F08238C9F40E9499
:1014E000062081FD13C089E30E941F120E94A012F2
:1014F0002FEF83EF91E0215080409040E1F700C052
:10150000000089E30E9427120E94A012CF91089543
:101510008338A1F40E94062080FDF8CF83E50E9465
:101520001F120E94A0122FEF80E792E0215080400E
:101530009040E1F700C0000083E5E4CF8438A1F4D7
:101540000E94062082FDE2CF87E40E941F120E94C3
:10155000A0122FEF80E792E0215080409040E1F709
:1015600000C0000087E4CECF8CEF8C0F813AB8F436
:101570008C2F0E94DF1E8111C9CF6C2F809100013A
:10158000909101010E94BB20882329F08C2F0E949A
:1015900027120E94A0128C2F0E941F12B5CF80E24A
:1015A0008C0F883048F4C77081E001C0880FCA955D
:1015B000EAF70E944A12A8CFEBE5EC0FE33040F4C3
:1015C000F0E0E454FE4F808190E00E9456209ECFD0
:1015D000C85ACB3108F09ACFEC2FF0E0EE0FFF1F86
:1015E000EA57FE4F808191810E947B208FCF882314
:1015F00009F44DC0823879F40E94062081FF47C06B
:1016000089E30E941F120E94A01289E30E94271200
:101610000E94A0120895833859F40E94062080FF8A
:1016200036C083E50E941F120E94A01283E5EECF10
:10163000843859F40E94062082FF29C087E40E9462
:101640001F120E94A01287E4E1CF9CEF980F913AFD
:10165000E8F290E2980F983050F4877091E001C062
:10166000990F8A95EAF7892F0E945012D1CF9BE5F6
:10167000980F933028F490E080E00E94562008955F
:10168000885A8B3120F490E080E00E947B200895FE
:101690001F93CF93DF93182FEB010E94690A2097C5
:1016A00039F4812F0E94F70ADF91CF911F9108959D
:1016B0008FEC97E00197F1F700C000002197EFCF82
:1016C00070E060E0893311F460E570E00E94480B3F
:1016D0000895882321F00E944A120E94A0120895C2
:1016E000882321F00E9450120E94A0120895B0E0B9
:1016F000A0E0EDE7FBE00C94672A6C01D62FC72F22
:10170000FC011581068102950F700E944012E82E9F
:101710008823E9F0E12E1123D1F08C2F807F8034D3
:1017200051F080E28D0F8830F8F0011104C08C2F49
:10173000807E8032C9F08091700582FF15C082E002
:101740000E9403130E94401291E0E82EE926BC2E6D
:10175000B2949FE0B922FBE0FB15B8F1EB2DF0E06D
:10176000EB5FF14D0C94582AE12CF1CF0C2F0F7048
:10177000C07F11F00295007F112399F0002359F0EA
:1017800080E28D0F883010F0D11107C0802F0E94A9
:101790004A120E94A0128D2F5AC0802F0E945A1206
:1017A000F8CF8D2F0E94F70A002379F080E28D0F89
:1017B000883010F0D11104C0802F0E94501203C055
:1017C000802F0E9460120E94A012EB2DE850FF0BA8
:1017D000349720F40E94F91F0E94E709EE2089F057
:1017E0000E943C1280FD0DC0F60115820E94361247
:1017F0000E943D0EC6010E947F0D0E9436120E947B
:101800004D0ECDB7DEB7E9E00C94832A2C2F2F7054
:10181000F22EC07FC03219F0F29480EFF822DD235F
:1018200041F0D130D1F1112309F444C00023F1F08B
:10183000B2CF8091700582FD15C0112359F0FF20B1
:1018400029F08F2D0E944A120E94A01280E00E946F
:10185000690ABBCF80E00E94F70AFF2009F4B5CFE8
:101860008F2DABCF112369F0011104C08F2D0E9481
:10187000690BABCF013009F0A8CF8F2D0E947E12EB
:10188000A4CF0111A2CF8F2D0E94700B8F2D0E942B
:101890008A128F2D0E946E1298CF112321F00630EC
:1018A00008F093CFE3CF053008F08FCF8F2D0E9443
:1018B000700B8BCF0023D1F3D93349F43FEF83EF83
:1018C00091E0315080409040E1F700C000008D2F42
:1018D0000E94F70A7ACF8C2F86958695837069F0DF
:1018E000813009F072CF8D2F9C2F9370111102C09F
:1018F00080E090E00E947B2068CF8D2F9C2F93701A
:10190000111102C080E090E00E9456205ECF8C2F23
:101910008370A1F5111159CF4D2F4295469547700F
:10192000440F440F2D2F2F7030E0042E02C0220FE1
:10193000331F0A94E2F790E080E0D4FF09C08FE003
:1019400090E002C0880F991F4A95E2F78095909524
:10195000C695C695C370822B932BC23049F058F4BC
:10196000C13019F00E940D0E30CF0E94040E2DCF11
:101970000E94160E2ACF0E94010E27CF86951123B2
:1019800011F08C2F8170882309F41FCF4D2F4295C1
:1019900046954770440F440F2D2F2F7030E0042ED2
:1019A00002C0220F331F0A94E2F790E080E0D4FFD8
:1019B00009C08FE090E002C0880F991F4A95E2F7B6
:1019C00080959095C695C695C370822B932BC23097
:1019D00049F058F4C13019F00E94780EF6CE0E94FA
:1019E0006F0EF3CE0E94810EF0CE0E94250EEDCE3A
:1019F000CF70112329F08C2F0E943D0E8D2F37CFF1
:101A00008D2F0E94700B8C2F0E944D0EDECED23F88
:101A100041F160F4D03FB9F0D13F81F0112309F4D6
:101A200046C00111B8CE8C2F8F711FC0D33F01F17A
:101A3000D43FA1F78091700582FD24C08C2F8F7157
:101A4000112311F312C0112341F0053008F0BDCE6F
:101A50008C2F8F710E945F0EB8CE063008F0B5CE85
:101A6000F7CF8C2F8F711111CFCF0E943D0EADCECD
:101A7000112329F08C2F8F710E94310EA6CE0E9467
:101A80002C0EA3CE112349F0CF718C2F0E943D0E56
:101A900063E08C2F0E94E51298CE81E00E94031330
:101AA000023008F492CE82E00E9403138ECE00230F
:101AB00059F0D93309F00BCFEFEFF3EF21E0E1500C
:101AC000F0402040E1F701CF8C2F8F719DCF0F9315
:101AD0001F93CF93DF93EC01688179818D810E9400
:101AE000400F8C010E948A0E0E94000EB801CE01A8
:101AF0000E94770BDF91CF911F910F910895CF93A3
:101B0000DF93EC018C81882399F0CE010E940709B4
:101B1000811111C00E944012882351F08D818823C9
:101B200039F08091700582FF03C082E00E940313A8
:101B3000DF91CF910895CE010E94670DCE010E94E2
:101B4000E208F6CF90E080E00E94562090E080E02E
:101B50000E947B200E9467120E94A01208950E949A
:101B60002F120E94A20D08950E9457120E94AF0DDD
:101B7000089592959F70963091F058F4925F9F70FF
:101B8000923058F4803F19F030F4883E30F481E010
:101B900008959A5FF4CF843FD1F380E00895883EA2
:101BA000B0F3813FD1F7F3CFFC012481222339F038
:101BB000808191810E94350F0E94B90D089580E0C7
:101BC0000895A6E0B0E0E7EEFDE00C946E2A2696BC
:101BD000E2E00C948A2AA7E0B0E0E1EFFDE00C948B
:101BE0006E2A2796E2E00C948A2A08950E94F50D49
:101BF00008950E94F60D9093340380933303089563
:101C000008950E94F90D0895209133033091340313
:101C1000822B932B0E94F90D08952091330330916C
:101C20003403822393230E94F90D089520913303F6
:101C300030913403822793270E94F90D08950E9462
:101C4000F50D08950E941F0E08950E94220E909394
:101C5000320380933103089590E080E00E94250EC6
:101C6000089521E030E0A90102C0440F551F8A9574
:101C7000E2F7CA010E94250E089521E030E002C07B
:101C8000220F331F8A95E2F780913103909132033E
:101C9000822B932B0E94250E089521E030E002C094
:101CA000220F331F8A95E2F72095309580913103FA
:101CB00090913203822393230E94250E089521E000
:101CC00030E002C0220F331F8A95E2F78091310382
:101CD00090913203822793270E94250E0895209128
:101CE000310330913203822B932B0E94250E0895ED
:101CF0002091310330913203822393230E94250ED9
:101D000008952091310330913203822793270E9456
:101D1000250E08950895262F277091E001C0990F90
:101D20002A95EAF723E0769567952A95E1F7660FFD
:101D3000771F660F771FFA01E60FF71F50E040E0AC
:101D4000682F70E08191DF0111979B01042E02C082
:101D5000369527950A94E2F72170219528272923A3
:101D600028272C934F5F5F4F4430510559F7089552
:101D7000A82FA77023E0969587952A95E1F7880FFD
:101D8000991F880F991FFB01E80FF91F50E040E0F1
:101D900080E0219130E00A2E02C0369527950A9402
:101DA000E2F721703327042E01C0220F0A94EAF7CC
:101DB000822B4F5F5F4F4430510559F70895262F0E
:101DC000963070F4823160F4682F70E082E1989F61
:101DD000600D711D112449EF52E0822F0E948B0E7D
:101DE0000895292F963068F4823158F490E069EF15
:101DF00072E032E1239F800D911D11240E94B80EE4
:101E0000089580E00895B0E0A0E0E9E0FFE00C94E0
:101E1000672A7C01009131031091320380913303D2
:101E200090913403082B192BCFE0D0E0CC24C3943D
:101E3000D12CBC2EC6010C2E02C0880F991F0A940B
:101E4000E2F780239123892B49F4219790F7B12C55
:101E50008B2DCDB7DEB7E9E00C94832AB7018C2F28
:101E60000E942B16019789F3F3CFCF93DF93EC01F8
:101E70000E94030FBE010E942B16DF91CF9108959F
:101E80001F93CF93DF93EB019091F802992339F0E0
:101E9000CB010E94350FDF91CF911F9108958823C8
:101EA00069F0CB010E94030F182F682FCE010E940A
:101EB000DF0EBE01812F0E942B16EDCFCB010E94B9
:101EC000F10E182FF6CF1F93CF93DF93C0913503F8
:101ED00017E0809136038C1304C0DF91CF911F91DE
:101EE0000895D0E01C9FF0011D9FF00D1124E95CC6
:101EF000FC4F2081318142815381648175818681CB
:101F00000E94EB0D2196C770E4CF20916F033091B2
:101F1000700340917103509172036091730370914B
:101F20007403809175030E94EB0D0895CF93DF93A6
:101F300080917503807F09F04DC0809174038823E0
:101F400009F448C0E091350350913603C091700305
:101F5000D0916F03609171037091720347E05E1737
:101F6000C9F18E2F90E0E49FF0011124E95CFC4F51
:101F70002481222391F1489FF001499FF00D112403
:101F8000DF01A95CBC4F11962C9111972C1325C031
:101F90002C912D1322C015962C91159721111DC03F
:101FA00012962D913C91261B370B283C3105A8F445
:101FB000809175038F70806180937503E35CFC4FA3
:101FC00080818F70806180838FE693E00E947F0D17
:101FD0000E94630FDF91CF910895FC013196E77065
:101FE000BECF482F209135039091360357E0291337
:101FF00002C080E0089530E0529FF001539FF00D41
:102000001124E95CFC4F8181681306C0808148136C
:1020100003C085818111EECF2F5F3F4F2770E7CF3F
:10202000A4E1B0E0E6E1F0E10C94642A8C0186E0E2
:10203000F801DE011F9601900D928A95E1F7F801F3
:102040008481E5809FE6A92E93E0B92E90917303D9
:1020500091111FC08823D1F0EE20A9F0C8010E9481
:10206000D40DF82E882379F087E0F801D50101908E
:102070000D928A95E1F7C5010E94600A0E94960FB1
:102080000E94850F5FC0C8010E947F0DFF24F3945A
:1020900059C0C080D18082809380F09074032091D9
:1020A000710330917203A401421B530BFF2009F40A
:1020B000F9C0483C510508F0A7C0882309F442C084
:1020C0009091700380917503282F207F09F05CC0E8
:1020D0009D1116C090916F03C91212C0E1104EC03D
:1020E0008F708061809375030E94850F8FE693E067
:1020F0000E947F0D80917503F8018683F12C22C028
:10210000E1103CC06D2D8C2D0E94F10F6D2D8C2D9A
:102110000E94F10FE82E8111F1CFCF86D88A8F85EA
:1021200098890E94350F292F22952F70243078F43A
:102130009F702230A8F09923B9F0F8019681907F22
:1021400099F4FE2C8F2D6496ECE00C94802A2A5F83
:102150002F70223068F0C8010E947F0DEF2CF1CF64
:10216000992311F0882369F3805E883050F3F3CF10
:10217000803F38F3815F833070F7E3CF8091750340
:10218000816080937503BACF9D1113C090916F0346
:10219000C9120FC0E1100DC08683C8010E947F0DD7
:1021A00087E0F801AFE6B3E001900D928A95E1F780
:1021B00067CFC8010E94D40D882309F464CFEE20B4
:1021C00009F461CF80917503803288F020916F030C
:1021D00030917003398728879B868A869091730394
:1021E0009C871D868E87CE0108960E947F0D87E012
:1021F000F801AFE6B3E001900D928A95E1F70E94F5
:10220000960F0E94850F42CF90917503292F207F52
:10221000A1F4682D9A8A898AA6017A899E2D0E9446
:10222000E10D8FE693E00E947F0D87E0F5011192AA
:102230008A95E9F70E94850F61CF882309F482CF40
:10224000809170038D1110C080916F03C8120CC073
:10225000E1100AC09683C8010E947F0D87E0F50156
:1022600011928A95E9F76ECFC8010E94D40D882398
:1022700009F409CFEE2009F406CF8091750380326E
:1022800008F4B5CF20916F03309170033A8329830E
:102290009C828B82909173039D831E828F83CE01DB
:1022A0000196A3CF483C5105B8F5882309F4EECE3A
:1022B000FE2CEE2009F4E7CE809170038D111EC034
:1022C00080916F03C8121AC08091750380FD0DC004
:1022D000982F907F51F08683903F09F45ECF982F1E
:1022E000907F905F8F70892B57CF87E0F801AFE622
:1022F000B3E001900D928A95E1F724CFC8010E94C6
:10230000D40D811174CF8091750381608093750322
:10231000C8010E947F0D16CF682D9A8A898AA6016E
:102320007A899E2D0E94E10D87E0F50111928A9530
:10233000E9F7A6CEAEE0B0E0E0EAF1E10C946D2A58
:10234000288739874A875B876C877D878E87CE0190
:1023500008960E9410108823B1F06C85662341F026
:10236000288539854A855B857D858E850E94EB0DA4
:1023700017E0809135039091360389133DC02E9666
:10238000E3E00C94892A87E0FE013896DE0111967D
:1023900001900D928A95E1F78C85882349F320916D
:1023A000360330E0C90101968770992740913503C3
:1023B0004817190699F097E0929FD001939FB00DAE
:1023C0001124A95CBC4FFE01319601900D929A95A3
:1023D000E1F7809336030E94630FCACF0E94B40DC9
:1023E000109236031092350387E0EFE6F3E0DF0149
:1023F0001D928A95E9F7BCCF819FC0011124895CA9
:102400009C4F0E941010882309F4B9CFE091350346
:102410001E9FF0011124E95CFC4F20813181428133
:1024200053816481758186810E94EB0D8091350313
:1024300090E0019687709927809335039ACF682F93
:1024400080910001909101010E94F1200895682F70
:1024500080910001909101010E94F42008958091E3
:102460000001909101010E94F720089580917E0360
:10247000869586958695089580917E038770089548
:1024800090917E03977081E009F480E00895809137
:102490008A03089590918A03892B80938A03089573
:1024A000809590918A03982390938A0308951092BF
:1024B0008A03089590918903892B80938903089555
:1024C00080959091890398239093890308951092A1
:1024D0008903089508950E946A12089590917F03D8
:1024E000292F282331F08095892380937F030E9430
:1024F0006B12089508950E947A12089590918003B6
:10250000292F2823281729F0982B909380030E94C5
:102510007B12089590918003292F282331F0809514
:102520008923809380030E947B1208958091800309
:10253000882329F01092800380E00E947B12089586
:10254000CF93DF93E0910001F091010180918A0324
:102550008083E0910001F0910101808190918903D5
:10256000892B808390918003992381F0E091000171
:10257000F09101018081892B8083809100019091ED
:1025800001010E94A92081110E949612C0910001B0
:10259000D091010148E050E066E773E0CE010E946F
:1025A000E92A892B59F088E0FE01A6E7B3E0019003
:1025B0000D928A95E1F7CE010E940920DF91CF911B
:1025C000089508950E94E11208959091700592FF78
:1025D00011C098E0899F90011124622B60937E03C3
:1025E0000E943D0E80917E038695869586950E9479
:1025F000E21208950E943D0E089510927E0380E03D
:102600000E94E212089590917E0380958923809321
:102610007E03282F277069F4891759F0909170056F
:1026200092FF07C08695869586950E944D0E0E9462
:10263000FD120895CF93C82F8091700582FB9927D2
:1026400090F99C17E9F0C0FB82F9809370058091A6
:102650006F05909170050E94751382E00E9403132C
:102660008091AD0380FF0CC01F92CF9387E192E071
:102670009F938F930E94C7050F900F900F900F901C
:10268000CF9108958091700582FB882780F991E0B1
:1026900089270E941A13089581E00E941A13089551
:1026A00080E00E941A1308956FEF7FEF90E080E0C2
:1026B0000E94ED2D089590E080E00E94B92D21E068
:1026C000863E9E4F09F020E0822F089582E090E040
:1026D0000E94B12D089583E090E00E94B12D0895ED
:1026E00084E090E00E94B92D0895BC0184E090E060
:1026F0000E94ED2D0895AB01BC018FE090E00E9497
:10270000E12D0895AB01BC0183E190E00E94E12D31
:10271000089560E070E0CB010E948213089560E0AC
:1027200070E0CB010E947B130E9489130895A8E0FA
:10273000B0E0EDE9F3E10C946E2A66EE7EEF90E0F6
:1027400080E00E94ED2D60E082E090E00E94CF2DBD
:1027500060E083E090E00E94CF2D1092340310924D
:10276000330360E074E184E090E00E94ED2D60E0CE
:1027700086E090E00E94CF2D6FEF87E090E00E940E
:10278000CF2D40E050E0BA0188E090E00E94E12DBA
:1027900060E084E290E00E94CF2D60E087E190E06D
:1027A0000E94CF2D60E08CE090E00E94CF2D60E091
:1027B0008DE090E00E94CF2D19821A821B821C822C
:1027C0001D821E821F82188648E050E068E170E09A
:1027D000CE0101960E94BF2D40E050E0BA0180E298
:1027E00090E00E94E12D0E948F132896E2E00C9465
:1027F0008A2A0E9497130895682F8EE090E00E9425
:10280000CF2D0895A6E0B0E0E8E0F4E10C946C2A46
:102810000E945E218C0180918B0390918C03801724
:10282000910781F019821A820E945E21682F4981E6
:102830005A81792F80E090E00E94300A10938C0337
:1028400000938B032696E4E00C94882A0E946A2168
:102850006093A9037093AA038093AB039093AC0396
:102860006093A5037093A6038093A7039093A80396
:102870000895089508950E943914089508950E94B6
:102880003E14089580EC94E20E945B170E943A1473
:102890000E943B14089581E008950E944B1408950E
:1028A0000E944B140895089508950E9453140E94A5
:1028B000541408950E9422170E94E60908950E9468
:1028C00055210E94D8050E945A140E9456180E9451
:1028D0003F140895A8E0B0E0E0E7F4E10C945E2A2C
:1028E0000E944D1481110AC00E9402140E945918BE
:1028F0000E94F5092896E2E10C947A2A0E9430069B
:102900008DE893E098878F837C0110E0F701419078
:102910005190619071907F01812F0E9416071F5F77
:10292000163009F467C0461657066806790671F333
:102930008091AD0381FD0E9421070E945014282E32
:1029400010E033243394812F0E9416076B017C0121
:10295000EF81F8854190519061907190F887EF83F5
:10296000C414D504E604F704F1F100E0812C912CA5
:10297000540183944C245D246E247F24D301C2012E
:1029800088219921AA21BB21892B8A2B8B2BE9F045
:102990002220D9F009831A830E945E219C838B83B5
:1029A0003D8221E0D701C60188219921AA21BB21BE
:1029B000892B8A2B8B2B09F420E049815A816B816A
:1029C0007C818D81922F0E94300A0F5F880C991CA8
:1029D000AA1CBB1C023191F6EF81F8853497C082A6
:1029E000D182E282F3821F5F163009F0ACCF0E94E1
:1029F00026147CCF461657066806790609F098CF4C
:102A000073CF1F93CF93DF930E943016EC01C11553
:102A100080E5D807F0F5C11580E4D80708F09CC020
:102A2000C03ED10520F5CD3CD10508F082C0C83AA2
:102A3000D10578F4C53AD10508F073C0C130D1058D
:102A400019F1209709F1C430D105F0F4D0E0C0E0CD
:102A50001BC0C33CD105D0F7C85AD0E0CC0FDD1F56
:102A6000C154DE4F0990D881C02DD4640DC0C1156A
:102A700080E2D80708F0D1C0C11581E0D80708F07E
:102A80005AC0C83ED10510F7CE01DF91CF911F91FA
:102A90000895C03682E5D80718F5C03482E5D80716
:102AA00008F06BC0C03282E5D80708F05FC0C115DE
:102AB00082E5D80708F497C02C2F2695269580E24A
:102AC000289F900111248C2F8370C1E0D0E002C0B8
:102AD000CC0FDD1F8A95E2F7C22BD32BDD68D4CF54
:102AE000C03A82E5D80760F4C03882E5D80708F418
:102AF00059C0CF71D0E0DC2FCC27C46FD06AC4CFCF
:102B0000C03C82E5D80708F462C0C03E82E5D80721
:102B100008F09CCFDC2FCC27CC27DF71C06FD06AA8
:102B2000B3CFC55AD0E0CB50DE4FC881D0E0D064DF
:102B3000ABCFD065A9CF8D2F0E94D216182FCE0112
:102B400099270E943016C12FD0E0DC2FCC27CC274C
:102B5000DF71C82BD92B98CFCE0199270E94301650
:102B6000CC27DF70C82BD92BD06A8ECFCF71D0E0A5
:102B7000DC2FCC27C16FD06A87CF2C2F26952695C6
:102B8000277080E2289F900111248C2F8370C1E070
:102B9000D0E002C0CC0FDD1F8A95E2F7C22BD32B09
:102BA000DC6872CF2C2F26952695277080E2289F0F
:102BB000900111248C2F8370C1E0D0E002C0CC0FB3
:102BC000DD1F8A95E2F7C22BD32BDA685DCF8C2FFD
:102BD0008F710E94D216C82FD0E0DC2FCC27CC27D3
:102BE000DF71D06251CF8C2F8F710E94D21655E0C9
:102BF000D695C7955A95E1F7CF70D0E0DC2FCC275A
:102C0000282F30E084FF05C044E0220F331F4A958F
:102C1000E1F7C22BD32BD06937CF8D2F8F710E9454
:102C2000D216182FCE0199270E943016C12FD0E05E
:102C3000DC2FCC27CC27DF71C82BD92BD2CF462F46
:102C4000763030F4623120F4672F0E9489080895AD
:102C500090E080E008950E941F160E9401150895DB
:102C600082389105B9F1B0F48133910509F47DC042
:102C700048F48932910509F46DC08A32910509F44E
:102C80007BC008958533910509F45FC089339105B0
:102C900009F10895833E9105D9F138F4803E9105FC
:102CA00029F1823E910579F10895863E9105D9F189
:102CB000873E910509F43EC0843E910541F520917F
:102CC000700521FF24C080916F0584FD19C087EE37
:102CD00090E0089520916F05237009F05AC020916B
:102CE000700523FF14C089E290E0089520916F05DC
:102CF00020FD38C03091700530FF09C024FF43C06B
:102D000090E080E0089520916F0522FDF7CF0895AF
:102D100020916F0522FD3AC03091700530FD39C019
:102D200024FFF5CFEDCF20916F0523FFF0CF24FDD9
:102D3000E7CFCDCF20916F0523FD2EC030917005D8
:102D400031FFEECF84EE90E0089520916F0525FFCE
:102D5000DECFC9CF20916F0525FD21C020917005E0
:102D600023FFD5CF89E390E0D2CF20916F0526FFD6
:102D7000CECF8AE290E0089520916F0526FFC7CF5D
:102D800081E390E0089583EE90E0089582EE90E074
:102D9000089580EE90E0089586EE90E0089585E332
:102DA00090E0089590916F0592FF10C041E0282FA8
:102DB0002471243009F040E031E0282F28712830B8
:102DC00009F030E0431711F02CE0822793FF10C088
:102DD00041E0282F2471243109F040E031E0282F10
:102DE0002871283109F030E0431711F02CE08227D8
:102DF0003091700530FF10C051E0282F2171213033
:102E000009F050E041E0282F2871283009F040E017
:102E1000541711F029E0822731FF10C041E0282F1C
:102E20002171213109F040E031E0282F287128314B
:102E300009F030E0431711F029E0822794FD877EE6
:102E4000089508950E945B13811102C00E94F91336
:102E50000E9466138093AD030E94701390937005D7
:102E600080936F050E9421170E946B1390E00E94CF
:102E7000010E80913103909132030E94220E089539
:102E80000E943C250E945F140E94492508950E94DB
:102E90004E250E946A140E944F2508950E94222107
:102EA0000E9422250E9442140E9440170E94471748
:102EB0000E945514FBCF9093BF028093BE020895E9
:102EC000CF93DF93EC01FB018581882309F4D2C005
:102ED0009E0130572332310508F0B2C00E947013B2
:102EE0009093700580936F05FE01E150F047E23248
:102EF000F10520F4EF5EF14D0C94582A80916F0596
:102F0000816080936F0593C0809170058860809385
:102F100070058DC080916F058260F3CF80916F0541
:102F20008460EFCF80916F058860EBCF8091700552
:102F30008160EDCF809170058260E9CF80916F054F
:102F40008061DFCF80916F058062DBCF80916F055C
:102F50008064D7CF0E94B40D80916F058068D1CF77
:102F600080916F058C60CDCF809170058360CFCF4D
:102F700080916F058E7FC5CF80917005877FC7CF09
:102F800080916F058D7FBDCF80916F058B7FB9CF0D
:102F900080916F05877FB5CF809170058E7FB7CF09
:102FA000809170058D7FB3CF80916F058F7EA9CF03
:102FB00080916F058F7DA5CF80916F058F7BA1CF0D
:102FC0000E94B40D80916F058F779BCF80916F0524
:102FD000837F97CF809170058C7F99CF80916F050B
:102FE00082FB992790F921E0922790FB82F990FBD0
:102FF00083F987CF80917005982F909591708E7F7F
:10300000892B90FB81F983CF90916F05892F8F7B5E
:1030100096FF806476CF0E94B40D90916F05892F42
:1030200097FB87F980586DCF81E00E94FC13809157
:103030006F05909170050E9475130E94B40D80E099
:10304000DF91CF91089580E0F0CF90916F05892FA7
:103050008F7E94FF806155CF90916F05892F8E7F71
:1030600090FF81604ECF90917005892F877F93FFED
:1030700088604DCF81E0E4CF0895CF93C82F0E94A0
:103080003C18C093AE03CF9108950E94322A81115B
:1030900004C00E94EA1B83E0089582E008958091B5
:1030A000AE03811102C00E94451808950E94C71BFB
:1030B00008950E94491C08950E940A1D08950E94C7
:1030C000321D0895EF92FF920F931F93CF93DF93DA
:1030D000EC018B0122E030E040E060E084E30E94FC
:1030E00028220E945E217C0188810E94A0228E3FBE
:1030F0009105E1F40E94002382E48A95F1F700C073
:1031000022E030E040E060E084E30E942822C70132
:103110000E9476218017910738F3C0E00E940023B7
:103120008C2FCDB7DEB7E6E00C94862A6B816F77E3
:1031300070E06D5F7F4FCE0101960E94D022C1E00A
:10314000EDCFEF92FF920F931F93CF93DF93EC019C
:103150007B010E945E218C01669922C082E08A95E3
:10316000F1F700C0C8010E9476218E159F05A0F3DB
:10317000C0E08C2FCDB7DEB7E6E00C94862A63E082
:1031800070E0CE0101960E94E8226B816F77613179
:1031900028F470E0CE0104960E94E822C1E020C02D
:1031A00022E030E040E060E084E30E9428220E94B8
:1031B000B82288838E3F18F30E94002382E48A9508
:1031C000F1F700C022E030E040E060E084E30E94DC
:1031D0002822C8010E9476218E159F0540F3C0E089
:1031E0000E940023C6CFA4E1B0E0E9EFF8E10C941F
:1031F000692AD82EE091B4038091B303E81709F44B
:1032000052C0F0E0EE0FFF1FE155FC4F008111812D
:10321000669B4DC030E4E32E34E0F32E66E970E0A7
:10322000CE0101960E94A1188823E9F18C8187FDC7
:1032300029C08091B4039091B303891769F090E09D
:10324000FC01EE0FFF1FE155FC4F0081118101963B
:10325000817099278093B4038091AD0380FF12C0E1
:103260000E945E21801B910B1F921F929F938F9350
:10327000FF92EF920E94C7050F900F900F900F9052
:103280000F900F90DD2079F0E091B4038091B303AB
:10329000E81749F0F0E0EE0FFF1FE155FC4F008109
:1032A00011816699BBCF6496E7E00C94852AC8012A
:1032B0000E9476218D329140B0F38091AD0380FF62
:1032C00016C08091B3039091B403482F491B550B4E
:1032D00057FD1AC0891B1F928F9381E194E09F9341
:1032E0008F930E94C7050F900F900F900F908091C1
:1032F000B4039091B3038917B1F290E00196817005
:1033000099278093B403CFCF8E5FE4CFA8E2B0E0DB
:10331000ECE8F9E10C94602A6C017B015A01522E11
:10332000FC0101900020E9F7CF0101973C01222325
:1033300081F08091AD0380FF0CC0DF92CF9288E8CE
:1033400093E09F938F930E94C7050F900F900F906B
:103350000F90E114F10411F180E07BEB872E73E014
:10336000972E2091B3039091B4032917A9F08111EE
:103370000EC08091AD0380FF0AC0DF92CF929F9272
:103380008F920E94C7050F900F900F900F9081E0D1
:103390000E94F31881E0E5CFF701108240E1942EFE
:1033A0005AE0852E60E9462EA3014C195D09413192
:1033B0005105CCF09D8A1E8A8F8A488EF601DE0167
:1033C0005996892D01900D928A95E1F7B801CE01A9
:1033D00045960E946218811102C010E058C0F0E1C9
:1033E000CF0ED11CE1CF80E18D8B1E8A8AE08F8BBE
:1033F000842F8F77888F5527B601CE0149960E947A
:10340000F62AB801CE0145960E946218182F88232B
:1034100021F3E114F10409F03FC00E945E217C0118
:103420008091B30390E09C012F5F3F4F21703327C1
:103430004091B403421304C080E00E94F318F0CF1F
:10344000880F991FFC01E155FC4FF182E082209327
:10345000B3030E945E21E816F906C9F02091AD037E
:10346000022F017020FF13C08E199F091F921F9217
:103470009F938F938EE693E09F938F930E94C7054F
:103480000F900F900F900F900F900F90102F812F93
:10349000A896E0E10C947C2AAE0CBF1C87016CE27C
:1034A00071E0CE0101960E94A118811109C080919E
:1034B000AD0380FF92CF85EA93E00E942E058DCF69
:1034C0008981803219F0F701108287CF8C818F7744
:1034D000CA2CC01A8C1508F4C82ECC2051F0D12C5F
:1034E000A601BE016B5F7F4FC8010E94F62A0C0D3A
:1034F0001D1D8C8187FDD3CFF80110820150110969
:10350000E016F10630F4F80180818A30A9F38D309D
:1035100099F36AE070E0C7010E94FF2A0097F9F072
:10352000019662EA73E00E94D02A11E0009709F048
:1035300010E0511003C0892B09F4A9CF8091AD038D
:1035400080FFA5CFFF92EF9286E993E09F938F9340
:103550000E94C7050F900F900F900F9098CFC70152
:10356000E0CFB0E0A0E0E7EBFAE10C94642A8C0134
:103570005B014A01CDB6DEB60E94E02A01962DB766
:103580003EB7281B390B0FB6F8943EBF0FBE2DBFB8
:103590008DB79EB701967C01B8010E94D92A06E931
:1035A00010E020E0A401B501C7010E9486190FB602
:1035B000F894DEBE0FBECDBEECE00C94802AAAE7E4
:1035C000B0E0E5EEFAE10C94642A8C019091B3032B
:1035D0008091B403981369C0809146059091450588
:1035E000891709F462C02AE0289FC00111248B5476
:1035F0009C4FFC01DE01AF58BF4F01900D922A9500
:10360000E1F7FC01F080C180D280E580B680A78020
:10361000908481840E945E2190935205809351058D
:103620008C159D05B1F02091AD0320FF12C08C19BF
:103630009D091F921F929F938F9380E892E09F9322
:103640008F930E94C7050F900F900F900F900F90CF
:103650000F90FF2079F1F1E0FF1609F479C0809115
:10366000460520914505821741F090E0019668E2F9
:1036700070E00E94442A809346058091AD0380FF4C
:1036800014C080914605622F681B770B77FD7DC0C3
:10369000281B1F922F938BEE93E09F938F930E9492
:1036A000C7050F900F900F900F90C658DF4FECE0BA
:1036B0000C94802A67E472E09E012F5F3F4F6901FE
:1036C000C9010E94D92A1F928F921F929F921F9226
:1036D000AF921F92BF921F92EF92E6968FADE69740
:1036E0001F928F93E5968FADE5971F928F93DF9290
:1036F000CF921F9280E38F937E0131E4E30EF11CA1
:10370000FF92EF920E94122B21E050E040E070E027
:1037100060E0C7010E9486190FB6F894DEBF0FBEA5
:10372000CDBF9091AD039170811199CF21F08FECB5
:1037300093E00E942E057FE789EA93E07150804074
:103740009040E1F700C0000081E00E94F318ADCF87
:103750006CE272E0CE0101967C010E94D92AE696C5
:103760008FADE6978F93E5968FADE5978F93FF9298
:10377000EF921F9280E38F937E0191E4E90EF11C9A
:10378000FF92EF920E94122BBFCF285D81CFCF9383
:10379000DF93C7E4D5E019821A8218826E98769872
:1037A0000E942022549A5C9A5C988FE19EE40197D3
:1037B000F1F700C000005C9A9FEF29E688E1915084
:1037C00020408040E1F700C0000081E08983DF9164
:1037D000CF910895809147050895A2E8B0E0E3EF06
:1037E000FBE10C946A2A809148058823E1F110924C
:1037F000490504E013E0CE0101967C0142E050E06F
:10380000B801CE018F579F4F0E94C72A40E850E071
:10381000B701CF57DF4F88819981C158D0400E94AE
:10382000B11A811125C08091AD0380FF1AC0FF92AB
:10383000EF92CE57DF4F8881C258D0408F93CF5739
:10384000DF4F8881C158D0408F9388EE92E09F93DC
:103850008F930E94C7050F900F900F900F900F90BD
:103860000F9080914905CE57DF4FE6E00C94862AF1
:103870000E5F1F4F93E00031190709F0BFCF81E0C1
:10388000809349050E945E219093520580935105D3
:10389000E8CFA0E3B0E0EFE4FCE10C946D2A809166
:1038A0004905811105C00E94ED1B882309F47BC0E6
:1038B00081E00E94F3188AE090E00E94DF1A809174
:1038C0005105909152050E947621893E934008F45B
:1038D00046C080914A05811117C040E350E0BE0107
:1038E0006F5F7F4F84EB92E00E94B11A882349F00A
:1038F00040E350E0BE016F5F7F4F81EA92E00E949B
:10390000B11A81E080934A050E945E21909352058E
:103910008093510540E350E0BE016F5F7F4F83E924
:1039200092E00E94B11A8823D1F0CE0101960E9444
:10393000A92A9C0111E0892B09F410E08091470528
:10394000181769F09091AD039170232B81F19923A1
:1039500021F089ED92E00E942E0510934705809199
:103960004B0590914C050E94762181319742D8F009
:103970009091B3038091B403981315C00E945E2107
:1039800090934C0580934B0585E30E941B22092EE2
:10399000000CAA0BBB0B80934D0590934E05A09392
:1039A0004F05B0935005E096E3E00C94892A9923E3
:1039B000A1F287EC92E0CFCF0F931F93CF93DF93C9
:1039C0009C01FB018C0100571E4FD801CC91D0E027
:1039D000CE01019668E270E00E94442AD901AF56F8
:1039E000BE4F9C919817A1F09AE09C9FD0019D9F9B
:1039F000B00D1124A20FB31F01900D929A95E1F71B
:103A0000F801808381E0DF91CF911F910F9108959C
:103A100080E0F9CFAAE0B0E0E0E1FDE10C946E2A8D
:103A2000FC01198280818C8382818D8383818E83C6
:103A300084818F83858188878681898787818A872A
:103A4000BE016F5F7F4F85EB93E00E94DC1C81110C
:103A500005C086E990E00E94DF1AF2CF2A96E2E0E4
:103A60000C948A2AAAE0B0E0E8E3FDE10C946E2A07
:103A700021E029839D838C83BE016F5F7F4F85EB9F
:103A800093E00E94DC1C811105C086E990E00E9451
:103A9000DF1AF2CF2A96E2E00C948A2A10924505AA
:103AA00010924605EFEAF3E0148215820895CF9351
:103AB000C82F1F928F9389E594E09F938F930E9464
:103AC000C70581E090E002C0880F991FCA95E2F710
:103AD0000E94010E0E94B40D0F900F900F900F9056
:103AE000CF910895EF92FF920F931F93CF93DF939F
:103AF0008B3109F410C108F0B0C08B3009F4CCC090
:103B000008F082C0863009F4DAC048F4853009F440
:103B1000B2C082EF97E00E942E0580E0E0C08730BF
:103B200009F4E2C08830A9F70E946B131F928F93AB
:103B300085ED97E09F938F930E94C7050E946613BF
:103B400083FB992790F91F929F9382FB992790F905
:103B50001F929F9381FB992790F91F929F93982F13
:103B600091701F929F931F928F938CE897E09F9381
:103B70008F930E94C7050E94701393FB222720F9A0
:103B80001F922F9387FB222720F91F922F9386FBEA
:103B9000222720F91F922F9385FB222720F91F92BD
:103BA0002F9384FB222720F91F922F9383FB222738
:103BB00020F91F922F9382FB222720F91F922F9327
:103BC00091FB222720F91F922F93292F21701F92FA
:103BD0002F9381FB222720F91F922F93282F2170EA
:103BE0001F922F939F938F938DE896E09F938F93CF
:103BF0000E94C7058DB79EB78A960FB6F8949EBFF0
:103C00000FBE8DBF81E06BC0803109F49CC080F491
:103C10008E3009F07ECF9091AD03892F8B7F92FF7C
:103C200084608093AD0382FF8BC08DE198E07FC0FC
:103C3000863109F498C0893109F06BCF88EF91E0A3
:103C40009F938F9389EC94E09F938F930E94C70575
:103C50000F900F900F900F90D5CF8A3249F190F4CA
:103C6000873211F128F48E3108F453CF8D511DC0E5
:103C7000893209F04ECF80E698E00E942E050E941E
:103C8000FD08C0CF833468F48A3308F091C08533CF
:103C900059F0883309F03DCF87EE94E00E942E055D
:103CA000B1CF833409F035CF80E00E94571DAACFF1
:103CB00080E898E00E942E050E94F913A3CF80911E
:103CC000AD03807F8093AD038CEC94E00E942E05C1
:103CD0008CE798E00E942E0581E080935305CDB7D4
:103CE000DEB7E6E00C94862A9091AD03892F8E7F93
:103CF00090FF81608093AD0380FF03C084E598E06E
:103D0000CDCF87E498E00E942E058091AD03817F9E
:103D10008093AD0377CF9091AD03892F8D7F91FF75
:103D200082608093AD0381FF08C08AE398E00E941F
:103D30002E058091AD038160EBCF8CE298E0AECF91
:103D40008DE098E0ABCF9091AD03892F877F93FFF3
:103D500088608093AD0383FF03C081E098E0E7CFE4
:103D600084EF97E09BCF0E946A21162F072FF82E31
:103D7000E92ED0916E05C0910C010E94F91FEF92BF
:103D8000FF920F931F931F92DF931F92CF931F9267
:103D90008F938EE594E09F938F930E94C7058DB714
:103DA0009EB70C960FB6F8949EBF0FBE8DBF2ACF5C
:103DB00089537BCF80E008950E94DA1E0895CF9347
:103DC000C82F80915305882331F0813099F01092EB
:103DD000530580E00DC00E9447128232D1F78C2F2C
:103DE0000E94DA1E811119C08C2F0E94721D8170F1
:103DF000CF9108950E944712823289F38C2F0E943E
:103E0000DC1E811119C0C431C9F050F4CB3061F00F
:103E100083E594E00E942E0513C081E090E0E7CF97
:103E2000C93261F0C833A1F78CEC94E00E942E05F2
:103E300085E594E00E942E0581E0D9CF10925305CC
:103E400080E0D5CFCF93DF93EB0186319C4711F50E
:103E50000E9447129D81992399F08A7A91E009F492
:103E600090E090935405811109C089E20E941F12CD
:103E70000E94A01280E0DF91CF91089585E3F6CFF4
:103E800080915405811104C089E20E942712F0CF6D
:103E900085E3FBCF81E0EFCF0F931F93CF93DF93A9
:103EA000C42FD22FFC0185818823C9F04093570588
:103EB0000E945E21909356058093550580E28C0FF9
:103EC000883040F4C77081E001C0880FCA95EAF7D6
:103ED0000E94690BDF91CF911F910F91089510916E
:103EE0005705141332C080915505909156050E94D4
:103EF0007621883C910548F5C0E2CD0F1D17B9F039
:103F000080E2810F883040F4177081E001C0880F93
:103F10001A95EAF70E94700BC83048F481E09D2F93
:103F2000977001C0880F9A95EAF70E94690B802F5D
:103F30000E94600BC83070F6D77081E001C0880F16
:103F4000DA95EAF70E94700BC5CF80E28C0F8830BB
:103F500008F6C77081E001C0880FCA95EAF7F2CF72
:103F60000F93DB0188519C4787309105A0F5FC0138
:103F7000ED5CF14D0C94582A06E221EE41EE6AE127
:103F80007CE7CD010E944C1F80E00F91089507E26D
:103F900025EE45EE6BE17CE7F4CF06E221EE40EE44
:103FA00068E17CE7EECF07E225EE44EE69E17CE7CD
:103FB000E8CF06E221EE42EE6CE17CE7E2CF07E2D9
:103FC00025EE46EE6DE17CE7DCCF08E221E045EE30
:103FD0006EE17CE7D6CF15968C91882319F010926C
:103FE0005705D3CF81E0D1CF90935D0580935C05D9
:103FF0000895E0915C05F0915D05309729F00190FE
:10400000F081E02D0995089580E008950E94F91F40
:104010000895EF92FF920F931F93CF93DF938C013C
:104020000E944F18833041F4C8010E945C18CDB73C
:10403000DEB7E6E00C94862AE0915C05F0915D0520
:104040003097A9F30280F381E02DC8010995809192
:10405000AD0382FFECCF80FF04C089E998E00E94A5
:104060002E05D0E0C0E083E9E82E88E0F82E8091AC
:10407000AD0380FF0EC0F801EC0FFD1F80811F9281
:104080008F93FF92EF920E94C7050F900F900F90B1
:104090000F902196C830D10551F78091AD0380FF74
:1040A000C6CF81E998E00E942E05C1CFA3E0B0E021
:1040B000ECE5F0E20C946E2A20915A0530915B05F4
:1040C00028173907A1F090935B0580935A05E0917A
:1040D0005C05F0915D05309751F023E029839B83C7
:1040E0008A830680F781E02DCE01019609952396FB
:1040F000E2E00C948A2AA3E0B0E0E1E8F0E20C945C
:104100006C2A8C0180915805909159058017910770
:1041100059F010935905009358050E944F188330A9
:1041200039F4C8010E945F182396E4E00C94882AB1
:10413000E0915C05F0915D053097B1F384E08983EF
:104140001B830A830680F781E02DCE010196099535
:10415000EBCF9C012E5F3F4FAC01485F5F4F80E08B
:104160002417350709F40895F90191919F019923C6
:10417000B9F38F5FF5CF662349F0FC0132960896BC
:104180002191261729F0E817F907D1F780E0089563
:1041900081E008959C01FC0132969FEF80E04191FF
:1041A000461751F09F3F19F4411101C0982F8F5FBE
:1041B0008630A9F79F3F09F40895290F311D97FD17
:1041C0003A95F90162830895FC013296089621918F
:1041D000261303C0DF0111971C92E817F907B9F7FE
:1041E00008950E94CA2008950E94E420089502962E
:1041F00026E0FC0111922A95E9F7089508950E949E
:10420000FE200895811106C081E080935E050E9422
:10421000FF20089582E0F9CF83E080935E050E943D
:10422000FF2008950E940221089581E080935E0599
:104230000E94FF2008950E941521089508950E946C
:104240001E21089585B7806885BF85B7806885BFC2
:1042500008951F921FB61F9211248F939F93AF93BF
:10426000BF9380915F05811113C08091710590917A
:104270007205A0917305B09174054196A11DB11D01
:104280008093710590937205A0937305B0937405A4
:10429000BF91AF919F918F911F901FBE1F90189556
:1042A0000E94B40D0E948809089582E084BD93E0C5
:1042B00095BD9DE797BD80936E0008952FB7F89444
:1042C0008091710590917205A0917305B09174056C
:1042D0002FBF08952FB7F894609171057091720502
:1042E00080917305909174052FBF08959C014FB77D
:1042F000F8948091710590917205A0917305B09129
:1043000074054FBF821B930B089578941F921FB6BC
:104310001F9211248F939F93AF93BF938091710548
:1043200090917205A0917305B09174050196A11D3D
:10433000B11D8093710590937205A0937305B0939E
:104340007405BF91AF919F918F911F901FBE1F90D9
:10435000189587E797E7909301088093000888E114
:104360009AE00FB6F894A895809360000FBE9093E2
:104370006000FFCF88E19AE00FB6F894A89580938B
:1043800060000FBE90936000FFCF873901F178F491
:104390008633F9F030F48433F1F08533F1F08FE1B6
:1043A00008958439E1F08639D1F781E20895843F98
:1043B000C1F030F4803FB9F0813F89F781E0089582
:1043C000863F99F0A0F0873F51F787E0089582E299
:1043D000089585E2089583E2089584E2089580E2D5
:1043E000089584E0089580E0089586E0089585E0CA
:1043F000089595E890937A00982F90729068909322
:104400007B008F7190910201892B80937C008091B9
:104410007A00806480937A0080917A0086FDFCCFD8
:10442000809178002091790090917A009F77909305
:104430007A00922F08950E94C5210E94F9210895C3
:10444000289A219A229A23982B9880E58CBD08956A
:10445000909103019F3F09F071C08F3F09F46EC036
:10446000611144C01092610590916105423009F4D8
:1044700041C0433009F442C094604130E1F141E071
:1044800050E042175307E0F190916105403151052A
:1044900009F452C0C0F54230510509F446C0483015
:1044A000510509F446C09CB520916105922B9CBD35
:1044B00090916005992319F09DB591609DBD809301
:1044C0000301E82FE295EF70F0E031A1282F2F7063
:1044D00081E090E001C0880F2A95EAF7382B31A3DC
:1044E00092A18095892382A381E0089590E2909320
:1044F0006105BACF986090936105C1CF9C60FBCFF6
:10450000440F551FBECF4034510549F04038510586
:1045100041F04032510539F621E020936005926068
:1045200001C0936090936105BECF91E090936005C8
:10453000BACF21E0209360059160F4CF80E0089528
:10454000CF93DF938EBD0E945E21EC010DB407FE78
:1045500005C08EB590E0DF91CF9108950E945E2155
:104560008C1B9D0B8436910588F38EEF9FEFF3CF64
:10457000CF93DF931EBC0E945E21EC010DB407FEB9
:1045800005C08EB590E0DF91CF9108950E945E2125
:104590008C1B9D0B8436910588F38EEF9FEFF3CF34
:1045A0000F931F93CF93DF93EC018C01060F171F1E
:1045B000C017D10719F490E080E005C089910E94EE
:1045C000A02297FFF5CFDF91CF911F910F91089512
:1045D0000F931F93CF93DF93EC018C01060F171FEE
:1045E000C017D10739F490E080E0DF91CF911F919F
:1045F0000F9108950E94B82297FDF7CF8993F0CFCD
:10460000809103018F3F29F1E82FE295EF70F0E0F0
:1046100041A18F7021E030E0B90102C0660F771F21
:104620008A95E2F7CB01942F982B91A392A1892B25
:1046300082A38FEF809303018DB58E7F8DBD9CB5D6
:1046400080916105809589238CBD1092610510923F
:104650006005089580916D05089508959B01BA0144
:10466000909179059430E9F48F708093E9009FEF81
:104670008091E800915085FD06C08AE68A95F1F7A1
:1046800000C09111F5CF8091E80085FF0AC050E08D
:1046900040E0C9010E94AF258091E8008E778093A9
:1046A000E800089543E050E0BC0182E00E942E2320
:1046B0000895CF93DF93EC0148E050E0BC0181E026
:1046C0000E942E2388E0FE01A5E6B5E001900D9240
:1046D0008A95E1F7DF91CF9108958BEB98E00E94E6
:1046E0002E0580917805811109C00E943F270E9404
:1046F0009C278091E20084608093E200089587EB1C
:1047000098E00E942E0510927805089583EB98E0BA
:104710000E942E050E94152108958FEA98E00E94BC
:104720002E056091750581E0611101C080E00E9455
:104730000C2108958BEA98E00E942E050E945021DA
:104740009091790581E0943009F080E060917505E1
:104750000E9412210895209163052F5F822F62E34A
:104760000E94382A992319F0209363050895109226
:104770006305809164058823F1F080917905843088
:10478000C1F49091E9009F702091EC00822F81701C
:1047900020FD80E8892B93E09093E9009091EB0055
:1047A00090FF04C09091EE0097FD08C08F70809339
:1047B000E9001092640508951092F1009091E800CC
:1047C00095FDFACF9091E80090FFF0CF9091E8002E
:1047D0009E779093E800EACF42E061EC81E00E948E
:1047E000BB2642E261EC82E00E94BB2642E261EC21
:1047F00083E00E94BB269091790581E0943009F016
:1048000080E0609175050E940221089580917B05EA
:10481000833009F461C030F48130D1F1823009F481
:104820009EC008958A3009F48AC08B3009F46FC0A5
:10483000893009F050C080917A05813209F04BC06F
:1048400080917E0590917F05029708F044C0809189
:10485000E800877F8093E8008091E80082FF37C0FE
:104860009091F3008091F200029731F48091F10071
:10487000813011F0863021F48091F10080936D0534
:104880008091E8008B778093E8000E94EF2623C098
:1048900080917A05813AF9F48091E800877F8093CE
:1048A000E80080917E0590917F05892B61F468E096
:1048B00085E695E070E00E94FE258091E8008B7708
:1048C0008093E800089560E090E080E0F3CF80916D
:1048D00079058111C1CF089580917A05813AD9F780
:1048E00080917E0590917F05892BA9F78091E80042
:1048F000877F8093E8008091E80080FFFCCF809163
:104900000C018093F1008091E8008E77BCCF8091FC
:104910007A05813201F780917E0590917F05892B80
:10492000D1F68091E800877F8093E8000E94EF260F
:1049300080917C0580930C010E94B40D08958091B4
:104940007A05813241F68091E800877F8093E80004
:104950000E94EF2680917D0580936E0508958091D9
:104960007A05813A09F0B7CF8091E800877F80937C
:10497000E8008091E80080FFFCCF80916E05C1CFF8
:104980009FB7F894109264059FBF90917905943079
:1049900009F048C02091E9002F703091EC00932F6E
:1049A000917030FD90E8922B23E02093E900209154
:1049B000EB0020FF34C02091EE0027FF30C0209193
:1049C0006205222321F02091E80025FF28C01092E3
:1049D000620526E03091E80035FF14C08093F100B5
:1049E0008091E80085FD27C08091E80080FFFCCF22
:1049F0008091E8008E778093E8009F709093E900A3
:104A000080E0089530917905343049F43091EB001D
:104A100035FD05C0215041F481E0809362059F700F
:104A20009093E9008FEF0895EFECF7E03197F1F7FD
:104A300000C00000CFCF8FB7F89421E02093640529
:104A40008FBFDBCF84B7877F84BF0FB6F894A8955C
:104A500080916000886180936000109260000FBEBA
:104A600080E890E00FB6F894809361009093610025
:104A70000FBE0E941B2108950E943F270E949C2781
:104A8000E2EEF0E080818460808378940E94172AAF
:104A9000089584E091E00E94F41F08950895089518
:104AA0009A0140918005509181050E9458250895F2
:104AB000492F55274330510521F168F44130510504
:104AC00009F443C04230510509F444C090E080E04D
:104AD00050E040E026C04132510551F142325105CB
:104AE000A9F76330710590F7FB01EE0FFF1FEF543C
:104AF000FD4F4081518162557D4FFB01808190E0E7
:104B000010C099278130910581F0009729F0029714
:104B1000E9F6EFEBF8E002C0E5EEF8E0849190E012
:104B2000AF01F901518340830895E7EDF8E0F6CF36
:104B30006330710558F6660F771FFB01E954FD4F8E
:104B40004081518189E090E0ECCF82E190E044E443
:104B500059E0E7CF8BE590E049EE58E0E2CFAF9225
:104B6000BF92CF92DF92FF920F931F93CF93DF9369
:104B70006C01EB018A010E940E27F82E811123C0DF
:104B80000115110539F0F80180819181C81BD90BFD
:104B9000C80ED91EB12CA12C2097A9F08091E80055
:104BA00085FD22C08091E8008E778093E800011592
:104BB0001105A1F0F80180819181A80EB91EB18282
:104BC000A08285E0F82E8F2DDF91CF911F910F915C
:104BD000FF90DF90CF90BF90AF9008950E940E2776
:104BE0008823D1F2F82EEFCFF60181916F018093E7
:104BF000F1002197FFEFAF1ABF0ACECFFC018091E1
:104C000080059091810586179707A0F061157105C1
:104C100029F49091E8009E779093E80090E0611568
:104C2000710551F4911108C08091E80082FF34C0F1
:104C300080E00895BC01F2CF809179058823C1F10D
:104C40008530C1F18091E80083FD30C08091E8009B
:104C500082FDEACF8091E80080FFE1CF8091F300F0
:104C60002091F200382F6115710519F028303105B7
:104C700058F091E02830310509F090E02091E800EB
:104C80002E772093E800CBCF81918093F100615083
:104C900071092F5F3F4FE7CF80917905882341F05D
:104CA000853041F08091E80083FFBECF81E0089518
:104CB00082E0089583E00895FC0180918005909141
:104CC000810586179707A0F06115710529F4809179
:104CD000E8008E778093E80090E06115710551F44B
:104CE000911108C08091E80082FF35C080E00895EE
:104CF000BC01F2CF809179058823C9F18530C9F1D3
:104D00008091E80083FD31C08091E80082FDEACF08
:104D10008091E80080FFE1CF8091F3002091F200C4
:104D2000382F6115710519F02830310558F091E0E0
:104D30002830310509F090E08091E8008E7780936B
:104D4000E800CBCF84918093F100319661507109D6
:104D50002F5F3F4FE6CF80917905882341F0853062
:104D600041F08091E80083FFBDCF81E0089582E0AB
:104D7000089583E00895982F973028F08F708093DE
:104D8000E90081E008959093E900242F762F50E008
:104D9000981731F07091EC002091ED005091F000E7
:104DA00021FD02C09F5FE8CF3091EB003E7F309342
:104DB000EB003091ED003D7F3093ED003091EB0042
:104DC00031603093EB007093EC002093ED00509332
:104DD000F0002091EE0027FDE5CF80E0089580915E
:104DE0007A0587FF13C08091E80082FF06C080919A
:104DF000E8008B778093E80004C0809179058111E9
:104E0000F2CF0895809179058823D9F38091E80045
:104E100080FFF8CF8091E8008E77ECCF2091E400FE
:104E20003091E50095E6A9012091EC00822F817078
:104E300020FF06C08091E80080FF06C080E0089552
:104E40002091E80022FD1AC080917905882389F01D
:104E5000853089F08091EB0085FD0FC02091E40042
:104E60003091E50042175307F9F29150E1F684E0E2
:104E7000089582E0089583E0089581E008950E94F6
:104E8000AE270E94B627E0EEF0E08081816080834B
:104E9000E8EDF0E080818F77808319BCA7EDB0E06A
:104EA0008C918E7F8C9380818F7E80831092780589
:104EB00008950F931F93CF93DF930E94AE270E9414
:104EC000B627C8EDD0E088818F7788838881806895
:104ED000888388818F7D888319BC10927905109210
:104EE0007505109277051092760500EE10E0F80136
:104EF00080818B7F808388818160888342E060E04D
:104F000080E00E94BB26E1EEF0E080818E7F80830E
:104F1000E2EEF0E080818160808380818860808320
:104F2000F80180818E7F8083888180618883DF9112
:104F3000CF911F910F910895E8EDF0E080818F7E71
:104F40008083E7EDF0E080818160808384E082BF30
:104F500081E0809378050E9459270895E8EDF0E0FC
:104F600080818E7F80831092E20008951092DA0093
:104F70001092E10008951F920F920FB60F92112424
:104F80002F933F934F935F936F937F938F939F9351
:104F9000AF93BF93EF93FF938091E10082FF0BC02B
:104FA0008091E20082FF07C08091E1008B7F8093B7
:104FB000E1000E94AB238091DA0080FF18C080914D
:104FC000D80080FF14C08091DA008E7F8093DA00D1
:104FD0008091D90019BC80FF93C082E089BD09B4DB
:104FE00000FEFDCF81E0809379050E946D238091C2
:104FF000E10080FF19C08091E20080FF15C0809120
:10500000E2008E7F8093E2008091E20080618093D5
:10501000E2008091D80080628093D80019BC85E0BE
:10502000809379050E948D238091E10084FF2AC03E
:105030008091E20084FF26C019BC82E089BD89B559
:10504000982F917080FFFBCF8091D8008F7D809347
:10505000D8008091E1008F7E8093E1008091E20092
:105060008F7E8093E2008091E20081608093E20075
:1050700080917505882309F448C084E08093790500
:105080000E949A238091E10083FF29C08091E20071
:1050900083FF25C08091E100877F8093E10082E05B
:1050A00080937905109275058091E1008E7F809341
:1050B000E1008091E2008E7F8093E2008091E20027
:1050C00080618093E20042E060E080E00E94BB26C5
:1050D0008091F00088608093F0000E948623FF9109
:1050E000EF91BF91AF919F918F917F916F915F9160
:1050F0004F913F912F910F900FBE0F901F901895D9
:10510000109279050E947F2372CF8091E30087FD82
:1051100093E090937905B4CF1F920F920FB60F9240
:1051200011242F933F934F935F936F937F938F93AC
:105130009F93AF93BF93CF93DF93EF93FF93D09160
:10514000E900DF708091EC00C82FC17080FDC0E8DD
:105150001092E9008091F000877F8093F0007894AE
:105160000E94D0281092E9008091F000886080931E
:10517000F000CD2BCF70C093E900FF91EF91DF914C
:10518000CF91BF91AF919F918F917F916F915F91DF
:105190004F913F912F910F900FBE0F901F90189538
:1051A000AAE2B0E0E6EDF8E20C946D2A8AE795E019
:1051B0002091F100FC012193CF01F5E082389F0797
:1051C000B9F70E9406248091E80083FF1EC18091F8
:1051D0007A0590917B059A3008F017C1E92FF0E02D
:1051E000E65CF14D0C94582A803899F0823809F029
:1051F0000CC180917E058F70873008F006C18093C6
:10520000E9008091EB0085FB882780F91092E90086
:1052100006C08091760590917705911182609091FA
:10522000E800977F9093E8008093F1001092F100DE
:105230008091E8008E77E5C0882309F4D3C08230DE
:1052400009F0E3C080917C058111D6C080917E0574
:105250008F702FEF280F263008F0D7C08093E90019
:105260002091EB0020FFC8C0933031F48091EB0017
:1052700080628093EB00C0C09091EB0090619093AE
:10528000EB0021E030E001C0220F8A95EAF720937D
:10529000EA001092EA008091EB008860EACF811169
:1052A000B4C010917C051F778091E3008078812B3A
:1052B0008093E3008091E800877F8093E8000E945C
:1052C000EF268091E80080FFFCCF8091E3008068AA
:1052D0008093E30082E0111183E08093790595C00B
:1052E0008058823008F091C080917C0590917D05B6
:1052F0008C3D23E09207A1F583E08A838AE28983CB
:105300004FB7F894DE01139620E03EE051E2E32F20
:10531000F0E050935700E49120FF03C0E295EF7056
:105320003F5FEF708E2F90E0EA30C0F0C7968D930C
:105330009D932F5F243159F74FBF8091E800877FFD
:105340008093E8006AE270E0CE0101960E94FE259B
:105350008091E8008B778093E80057C0C096E7CF34
:1053600060917E0570917F05AE014F5F5F4F0E9497
:105370005025BC01892B09F448C09091E800977F23
:105380009093E80089819A810E945C26E1CF803861
:10539000E1F58091E800877F8093E80080917505B2
:1053A0008093F10045CF811130C090917C059230FF
:1053B00060F58091E800877F8093E8009093750501
:1053C0000E94EF2680917505882311F084E005C0C6
:1053D0008091E30087FDFACF81E0809379050E94F8
:1053E000EC2313C080917C05813079F481E0933007
:1053F00009F080E0809377051092E9008091E80041
:10540000877F8093E8000E94EF268091E80083FF69
:105410000AC08091E800877F8093E8008091EB00CC
:1054200080628093EB00AA96E3E00C94892ACF93E4
:10543000809179058823A1F0C091E900CF70909107
:10544000EC00892F817090FD80E8C82B1092E90054
:105450008091E80083FD0E94D028CF70C093E900BE
:10546000CF9108958091E300881F8827881F0895B1
:10547000991B79E004C0991F961708F0961B881FA6
:105480007A95C9F78095089597FB072E16F4009436
:1054900007D077FD09D00E94952A07FC05D03EF47D
:1054A000909581959F4F0895709561957F4F0895D0
:1054B000EE0FFF1F0590F491E02D09942F923F927B
:1054C0004F925F926F927F928F929F92AF92BF9214
:1054D000CF92DF92EF92FF920F931F93CF93DF93C0
:1054E000CDB7DEB7CA1BDB0B0FB6F894DEBF0FBE1D
:1054F000CDBF09942A88398848885F846E847D846A
:105500008C849B84AA84B984C884DF80EE80FD806B
:105510000C811B81AA81B981CE0FD11D0FB6F894E1
:10552000DEBF0FBECDBFED010895AA1BBB1B51E12D
:1055300007C0AA1FBB1FA617B70710F0A61BB70B03
:10554000881F991F5A95A9F780959095BC01CD01A8
:105550000895FC0188279927E89421912032E9F3E6
:10556000293010F02E30C8F32B3241F02D3239F4AF
:10557000689404C00E940A2B820F911D2191205330
:105580002A30C0F31EF4909581959F4F0895FB013A
:10559000DC0102C005900D9241505040D8F70895AB
:1055A000FB01DC018D91059080190110D9F3990B55
:1055B0000895FB01DC0105900D920020E1F70895AC
:1055C000FC0105900020E9F7809590958E0F9F1FB4
:1055D0000895FB01DC0104C08D910190801921F434
:1055E00041505040C8F7881B990B0895FB01DC011E
:1055F00002C001900D9241505040D8F70895FC012F
:1056000081E090E00190061609F4CF010020D1F767
:10561000019708957AE0979F902D879F802D910D97
:1056200011240895AEE0B0E0E8E1FBE20C946C2AAE
:105630000D891E898F89988D26E02C831A83098312
:1056400097FF02C080E090E801979E838D83AE01B2
:10565000455E5F4F698D7A8DCE0101960E94422B87
:105660004D815E8157FD0AC02F813885421753074F
:105670000CF49A01020F131FF80110822E96E4E039
:105680000C94882AABE0B0E0E8E4FBE20C945E2ADC
:105690007C013B018A01FC0117821682838181FF14
:1056A000B9C19AE0292ECE0101965C01F7019381E0
:1056B000F30193FD859193FF81913F01882309F4C4
:1056C00046C1853239F493FD859193FF81913F0165
:1056D000853229F4B70190E00E94232DE7CF912C69
:1056E000412C512CFFE1F51538F08B3209F188F48B
:1056F000803201F1833221F157FC3AC020ED280FAE
:105700002A3040F556FE1FC0929C200D1124922E87
:1057100006C08D3291F0803379F7689450F8F30128
:1057200093FD859193FF81913F018111DBCF20C0D3
:10573000689451F8689452F8F2CF689453F8EFCF18
:10574000689454F8ECCF429C200D1124422E6894AA
:1057500055F8E5CF8E3229F456FCF9C0689456F816
:10576000DECF8C3619F4689457F8D9CF8836B9F261
:10577000982F9F7D95549330C0F08336A1F18337E5
:10578000C1F1833509F05BC0F801C190D1908F0160
:10579000692D70E056FC02C06FEF7FEFC6010E94DA
:1057A0000D2D4C01689457F80AC00C5F1F4F2FE372
:1057B000298388248394912C6501E89457F853FC3D
:1057C00004C04814190409F018F5342C811491040C
:1057D00031F5332009F46ACFB70180E290E00E94EE
:1057E000232D3A94F6CFF801808189830E5F1F4FF5
:1057F000E0CFF801C190D1908F01692D70E056FC87
:1058000002C06FEF7FEFC6010E94182D4C01D5CF6B
:10581000B70180E290E00E94232D4A94D2CFF60196
:1058200057FC859157FE81916F01B70190E00E946E
:10583000232D31103A94F1E08F1A9108C7CF8436A6
:1058400019F0893609F074C0F80157FE6AC06191F9
:105850007191819191918F01252D2F76D22E97FFF5
:1058600009C090958095709561957F4F8F4F9F4FA0
:105870006894D7F82AE030E0A5010E94532DC82E85
:10588000CA188C2C5D2CD6FE0CC0E89450F8C914B4
:1058900040F4D4FE05C0D2FC03C0FD2DFE7E5F2E79
:1058A000892C54FE8FC0FE01EC0DF11D80818033E8
:1058B00009F081C0252D297E522E852D8870382E25
:1058C00053FC8FC050FE89C09C2C841418F44C0CDF
:1058D000942C981854FE8BC0B70180E390E00E948E
:1058E000232D52FE09C088E790E051FE02C088E5F2
:1058F00090E0B7010E94232DC91408F484C0CA9413
:10590000D12C9FEFC91AD90ACA0CDB1CF60182916F
:105910006F01B70190E00E94232DAC14BD04B1F7D4
:1059200058CF61917191072E000C880B990B93CF82
:10593000D52CE894D4F82AE030E0853739F1952D5C
:10594000997FD92E8F3601F148F48835A9F0F701F7
:10595000868197812B96E2E10C947A2A803749F070
:105960008837A9F7D4FE02C06894D2F820E130E06D
:105970000DC06894D4F8F6CF54FE03C0E92FE6605A
:10598000DE2E20E132E002C028E030E0F801D7FE50
:105990000DC061917191819191918F01A5010E943A
:1059A000532DC82ECA18E894D7F86BCF6191719126
:1059B00090E080E0F2CF52FC02C083947ECF8394CB
:1059C00083947BCF852D867809F477CFF6CFB70106
:1059D00080E290E00E94232D83948414C0F3312C44
:1059E00079CF342C3818841408F474CFF8CF852D6F
:1059F000867809F481CF8BE251FE80E257FC8DE27C
:105A0000B70190E077CFB70180E390E00E94232DAB
:105A10009A9472CF8FEF9FEF9DCFFC01059061505C
:105A200070400110D8F7809590958E0F9F1F0895B4
:105A3000FC016150704001900110D8F7809590955D
:105A40008E0F9F1F08950F931F93CF93DF93182FEF
:105A5000092FEB018B8181FD09C01FEF0FEF812F13
:105A6000902FDF91CF911F910F91089582FF14C065
:105A70002E813F818C819D81281739073CF4E88174
:105A8000F981CF0101969983888310838E819F814C
:105A900001969F838E83E3CFE885F985812F099551
:105AA000892BA1F3DACFFA01AA27283051F120314E
:105AB00081F1E8946F936E7F6E5F7F4F8F4F9F4FA2
:105AC000AF4FB1E03ED0B4E03CD0670F781F891FE4
:105AD0009A1FA11D680F791F8A1F911DA11D6A0FB2
