:100000000C94D5020C94F2020C940D030C94F202A1
:100010000C94F2020C94F2020C94F2020C94F20290
:100020000C94F2020C94F2020C9418240C94F20238
:100030000C94F2020C94F2020C94F2020C94F20270
:100040000C94F2020C94F2020C94F2020C94F20260
:100050000C94F202000014001A00080015001800A9
:100060000C0012001300E000E30000002B002152FE
:10007000000017001C00300000002F00E1003100DC
:10008000000004001600070009000D000E000F001C
:100090003300E4002A0000000000000000000A0015
:1000A0000B00000000003400E2002C0000001D00E6
:1000B0001B00060019001000360037003100E50073
:1000C00028000000000000000000050011000000F2
:1000D00076003800E60021520000167C0000000087
:1000E000220023002E0000002D00E7003500000054
:1000F0001E001F00200021002400250026002700EC
:1001000000000000000001000100010001000100EA
:100110000100010001000100010000000100215266
:100120000100010001004D0000004A000100010033
:1001300000000100010001000100510052004F00C9
:10014000010001004C000000000000000000010060
:10015000500000000000010001000100000001004B
:1001600001000100010001004B004E0001000100F0
:10017000010000000000000000000100010000007C
:1001800001000100010022520000350000000000C3
:100190003E003F0045000000440001000100000057
:1001A0003A003B003C003D0040004100420043005B
:1001B000000000000000010001000100010001003A
:1001C00001000100010001000100000001002152B6
:1001D0000100010001000100000001000100010018
:1001E0000000010001000100010001000100010008
:1001F00001000100010000000000000000000100FB
:1002000001000000000001000100010000000100E9
:1002100001000100010001000100010001000100D6
:1002200001000000000000000000010001000000CB
:1002300001000100010001000000010000000000B9
:10024000010001000100000001000100007C00002D
:100250000100010001000100010001000100010096
:10026000000000001E0F0500047F3F1F643214646D
:100270003214783C1E1E140A052223252628292A1A
:100280002C2D2F3032333536383A3B3D3E404243F9
:100290004547494A4C4E5051535557595A5C5E6038
:1002A00062646668696B6D6F71737577797B7D7F4A
:1002B00081838587898A8C8E90929496989A9C9E49
:1002C0009FA1A3A5A7A8AAACAEAFB1B3B4B6B8B965
:1002D000BBBCBEBFC1C2C3C5C6C7C9CACBCCCDCECD
:1002E000D0D1D2D2D3D4D5D6D7D7D8D9D9DADADBB0
:1002F000DBDBDCDCDCDCDCDDDDDDDDDCDCDCDCDC3C
:10030000DBDBDBDADAD9D9D8D7D7D6D5D4D3D2D27A
:10031000D1D0CECDCCCBCAC9C7C6C5C3C2C1BFBE62
:10032000BCBBB9B8B6B4B3B1AFAEACAAA8A7A5A3CD
:10033000A19F9E9C9A98969492908E8C8A8987858C
:1003400083817F7D7B79777573716F6D6B6968666B
:100350006462605E5C5A5957555351504E4C4A493D
:1003600047454342403E3D3B3A3836353332302FE5
:100370002D2C2A292826252322FFAA7F554000015B
:100380000101010101010101020202020202020255
:100390000203030303030303030404040404040427
:1003A00005050505050606060606070707070708EB
:1003B000080808090909090A0A0A0B0B0B0C0C0C9E
:1003C0000D0D0D0E0E0E0F0F0F1010111111121238
:1003D00013131414151516161717181819191A1AB5
:1003E0001B1B1C1D1D1E1E1F202021222223242416
:1003F000252626272829292A2B2C2D2D2E2F303152
:100400003232333435363738393A3B3C3D3E3F4063
:100410004142434445464748494A4C4D4E4F50514E
:100420005354555658595A5B5D5E5F616264656608
:1004300068696B6C6D6F7072737577787A7B7D7E8F
:100440008082838587888A8C8E8F91939596989ADF
:100450009C9EA0A2A3A5A7A9ABADAFB1B3B5B7BAF7
:10046000BCBEC0C2C4C6C9CBCDCFD1D4D6D8DBDDCB
:10047000DFE2E4E7E9EBEEF0F3F5F8FAFDFF09025D
:100480003B00020100A0FA09040000010301010081
:100490000921010100012244000705810308000130
:1004A00009040100010300000009210101000122EB
:1004B0007B00070583030800011201100100000002
:1004C00008A0202D420002010200010C0346006139
:1004D0000063006500570000000C035300500052F9
:1004E000006900540000000403090405010902A189
:1004F0000185020901A10005091901290815002536
:100500000195087501810205010930093115812520
:100510007F95027508810609381581257F9501753B
:10052000088106050C0A38021581257F950175089A
:100530008106C0C005010980A101850319012AB700
:1005400000150126B700950175108100C0050C0942
:1005500001A101850419012AA002150126A0029516
:100560000175108100C005010906A101050719E008
:1005700029E7150025019508750181029501750887
:1005800081030507190029FF150026FF0095067550
:100590000881000508190129051500250195057533
:1005A000019102950175039103C011241FBECFE58F
:1005B000D8E0DEBFCDBF11E0A0E6B0E0EEEEF4E59E
:1005C00002C005900D92AA34B107D9F723E0AAE43E
:1005D000B1E001C01D92A332B207E1F70E94AD1352
:1005E0000C94352A0C940000A82FB92F80E090E0DD
:1005F00041E050EA609530E009C02D91822797953F
:10060000879510F084279527305EC8F36F5FA8F3B5
:100610000895EADF8D939D930895CF93CFB7CF933D
:10062000C395839BE9F7839B0EC0839B0CC0839B80
:100630000AC0839B08C0839B06C0C091FA02C39581
:10064000C093FA02A6C0DF93C091F902DD27CF5F05
:10065000DC4F839B02C0DF91E6CF2F930F931F9354
:1006600000B32FEF03FB20F94F933F9310B34FEFED
:10067000012703FB21F93BE031C04E7F012F10B36E
:10068000216028C0102F4D7F2260000000B329C0D8
:100690004B7F2460012F000010B32BC010B3477FA5
:1006A00028602AC04F7E00B320612CC04F7D10B35C
:1006B00020622FC04F7B00B3206432C0422700B3BA
:1006C00049934FEF0000102713FB20F910B31C7063
:1006D000C9F1297F91F2012703FB21F900B3237FA0
:1006E00089F2315058F1102713FB22F910B3277EFD
:1006F00079F2012703FB23F92F7C81F200B3102745
:1007000013FB24F92F7971F200C010B3012703FB0A
:1007100025F92F7359F200C000B3102713FB26F9F7
:10072000223040F200C010B3012703FB27F9243028
:1007300028F64F77206810B30000F9CF10E81ABFF1
:1007400000271CC03B503195C31BD04010E81ABF96
:100750000881033C11F10B3401F12091F60219815B
:10076000110F1213EDCF4A81441F093669F10D3282
:1007700011F0013E29F74F7009F0042F0093FF029A
:100780003F914F911F910F912F91DF91CAB7C7FDF4
:1007900047CFCF91CFBFCF9118952091FF02222351
:1007A00079F31091FD02112309F044C034300AF4AA
:1007B00043C03093FD022093F8021091F9023BE010
:1007C000311B3093F90238C00091FD02013094F5DD
:1007D0000AE54F7049F43091900034FD2FC000932A
:1007E0009000C3EDD2E02EC0433059F0443091F078
:1007F0003091DE0234FD22C00093DE02CFEDD2E064
:1008000021C03091170334FD19C000931703C8E1CC
:10081000D3E018C03091EA0234FD10C00093EA0220
:10082000CBEED2E00FC02795A8F45150A9F4220FC7
:100830000000F9CF4AE503C042ED01C0432FC4E1F7
:10084000D0E032E011B31C60939A11BB02B320E4F4
:100850001CE05F93012756E002BB279520F451501E
:1008600021F4220FF9CF012756E000003B5A02BBCA
:10087000D0F2279528F4515029F4220F0000F9CF27
:10088000012756E0279502BB20F4515021F4220F96
:10089000F9CF012756E02991332302BB21F6037FCC
:1008A0001091FE02110FC651D04002BB11F01093FF
:1008B000F60210E81ABF086011B3137F402F437F80
:1008C0005F9100C000C002BB11BB42BB59CF833057
:1008D000B8F46830A8F44B3098F450E09BE0699F7E
:1008E000400D511D1124FA0198E5899FE00DF11D7D
:1008F0001124EE0FFF1FEC5AFF4F8591949108953C
:1009000081E090E008950E946704089581E00895D1
:100910000E948604089581E008950E948604089547
:100920000E948D04089508950E9493040895A6E0FE
:10093000B0E0EDE9F4E00C94D52849835A839E8316
:100940003091510189819A8131111AC03E8133233E
:1009500099F0222389F00E94720A182F682F89814A
:100960009A810E944E0A69817A81812F0E944911E1
:100970002696E3E00C94F1280E94600A182FF3CF2A
:100980000E94720A69817A81F1CFFC01262F408191
:10099000518162817381848195810E9497040895B9
:1009A000CF93DF93EC0161E00E94C504BE010E9479
:1009B0008804DF91CF910895CF93DF93EC0160E03D
:1009C0000E94C504BE010E949404DF91CF91089556
:1009D00021E030E0A90102C0440F551F8A95E2F7DB
:1009E000CA010E9470090895CF93C82F81E090E05A
:1009F0000C2E02C0880F991F0A94E2F70E949A0EEB
:100A00008C2F0E94E804CF91089581E008950E9400
:100A100005050895CF93C82F0E9423098C2F0E94AB
:100A200007052FEB87E299E0215080409040E1F7E5
:100A300000C00000CF91089581E00E940A050E9445
:100A40003C24089580E00E940A050E944A240895EB
:100A50000F931F93CF93DF938C0161E00E94C50435
:100A6000EC01F801858181110E94231BB801CE01A0
:100A70000E949004811106C080E0DF91CF911F9108
:100A80000F910895B801CE010E94091C8823A1F39B
:100A9000B801CE010E943022882371F3B801CE0143
:100AA0000E946C1E882341F3B801CE010E94421EB1
:100AB000882311F3B801CE010E94C7138823E1F205
:100AC000B801CE010E944D128823B1F2F801858150
:100AD000882361F0C330FCE7DF07E9F058F4C11563
:100AE000ECE7DE07A9F0C130DC47B9F0C8010E948D
:100AF0008B04C3CFCB358CE7D807A9F0CC35ECE716
:100B0000DE0771F0CA35DC4789F70E94750EEECF1B
:100B10000E941C05B1CF0E947D0E0E942205ACCF21
:100B20000E946B0EE3CF0E94790EE0CF0E94BB23A0
:100B300080E00E94E81B0E94C90508950E94381BAE
:100B40000E94CD050E94C023089581E0089580FF92
:100B500005C0909A81FF04C0919A08959098FACFA9
:100B600091980895CF93DF93D82F0E94A505C82FA1
:100B7000882319F08D2F0E94A7058C2FDF91CF912C
:100B80000895889A9098899A919808950E94B2053C
:100B9000089580E00E94C60508950E9479220E946F
:100BA000C6050895CF930E947922C82F80914C01E9
:100BB0008C1779F0C0934C010E94FD2360934D0186
:100BC00070934E0180934F01909350018C2F0E949F
:100BD000C605CF910895ADE0B0E0E1EFF5E00C94EB
:100BE000D628488759876A877B878C879D8791118C
:100BF0000E94BF0D1F8286E0FE013896DE0111962D
:100C000001900D928A95E1F78D8181110DC02981A6
:100C10003A814B815C816D817E818F810E94090DBB
:100C20002D96E2E00C94F228CE0101960E94D004A9
:100C30008111EDCFF5CFFC012481213021F4808199
:100C400091810E94A40A0895662329F00E94CD1F75
:100C50000E94A02008950E942720FACFCF93C82F8A
:100C60008823C1F08CEF8C0F813AB0F48C2F0E9456
:100C7000871D81110FC08C2F0E94FE22882329F02E
:100C80008C2F0E9441230E941A0E8C2F0E94392320
:100C90000E941A0ECF91089580E28C0F883048F49C
:100CA000C77081E001C0880FCA95EAF70E94A20DC3
:100CB000EFCFEBE5EC0FE33040F4F0E0E953FF4F0A
:100CC000808190E00E949F22E5CFE8E5EC0FEB31B8
:100CD00050F4F0E0EE0FFF1FEF56FF4F808191813F
:100CE0000E94C422D7CF83E38C0F833198F661E052
:100CF0008C2F0E942406CECF882381F19CEF980F81
:100D0000913A28F40E9441230E941A0E089590E21D
:100D1000980F983050F4877091E001C0990F8A9530
:100D2000EAF7892F0E94A80DEFCF9BE5980F93302B
:100D300028F490E080E00E949F22089598E5980FA3
:100D40009B3128F490E080E00E94C422089593E350
:100D5000980F933118F460E00E94240608951F93C1
:100D6000CF93DF93182FEB010E942E06209739F4C2
:100D7000812F0E947C06DF91CF911F91089587EB10
:100D80009BE00197F1F700C000002197EFCF70E0E2
:100D900060E0893311F460E570E00E94AF060895C9
:100DA000882321F00E94A20D0E941A0E0895882324
:100DB00021F00E94A80D0E941A0E0895B0E0A0E054
:100DC000E4EEF6E00C94CF286C01D62FC72FFC017F
:100DD0001581068102950F700E94980DE82E8823D8
:100DE000F9F0E12E1123E1F08C2F807F803461F047
:100DF00080E28D0F883008F18C2F807E803221F4C4
:100E0000D230D8F00023C9F08091750282FF15C05E
:100E100082E00E943F0E0E94980D91E0E82EE926A4
:100E2000BC2EB2949FE0B922FBE0FB15B8F1EB2D8C
:100E3000F0E0E95CF54D0C948F28E12CF1CF0C2FFC
:100E40000F70C07F11F00295007F112399F00023ED
:100E500059F080E28D0F883010F0D11107C0802F3B
:100E60000E94A20D0E941A0E8D2F5AC0802F0E9440
:100E7000B20DF8CF8D2F0E947C06002379F080E21E
:100E80008D0F883010F0D11104C0802F0E94A80D62
:100E900003C0802F0E94B80D0E941A0EEB2DE8505F
:100EA000FF0B349720F40E9479220E94C605EE20A1
:100EB00089F00E94940D80FD0DC0F60115820E94FC
:100EC0008E0D0E94AC09C6010E94EA080E948E0D98
:100ED0000E94BC09CDB7DEB7E9E00C94EB282C2FBB
:100EE0002F70F22EC07FC03219F0F29480EFF822FA
:100EF000DD2341F0D130D1F1112309F444C00023A6
:100F0000F1F0B2CF8091750282FD15C0112359F026
:100F1000FF2029F08F2D0E94A20D0E941A0E80E062
:100F20000E942E06BBCF80E00E947C06FF2009F4C1
:100F3000B5CF8F2DABCF112369F0011104C08F2DD8
:100F40000E94D006ABCF013009F0A8CF8F2D0E94B0
:100F5000D60DA4CF0111A2CF8F2D0E94D7068F2DC1
:100F60000E94E20D8F2D0E94C60D98CF112321F013
:100F7000063008F093CFE3CF053008F08FCF8F2DE8
:100F80000E94D7068BCF0023D1F3D93349F43FEF2A
:100F90008DEE92E0315080409040E1F700C00000BB
:100FA0008D2F0E947C067ACF8C2F86958695837034
:100FB00069F0813009F072CF8D2F9C2F9370111141
:100FC00002C080E090E00E94C42268CF8D2F9C2F49
:100FD0009370111102C080E090E00E949F225ECFCA
:100FE000612F8D2F0E94240659CF8C2F8370A1F57D
:100FF000111154CF4D2F429546954770440F440F21
:101000002D2F2F7030E0042E02C0220F331F0A94C0
:10101000E2F790E080E0D4FF09C08FE090E002C0EA
:10102000880F991F4A95E2F780959095C695C695C9
:10103000C370822B932BC23049F058F4C13019F0A1
:101040000E947C092BCF0E94730928CF0E9485093A
:1010500025CF0E94700922CF8695112311F08C2F85
:101060008170882309F41ACF4D2F42954695477019
:10107000440F440F2D2F2F7030E0042E02C0220F9A
:10108000331F0A94E2F790E080E0D4FF09C08FE0BC
:1010900090E002C0880F991F4A95E2F780959095DD
:1010A000C695C695C370822B932BC23049F058F475
:1010B000C13019F00E94E709F1CE0E94DE09EECEA0
:1010C0000E94F009EBCE0E949409E8CECF70112364
:1010D00029F08C2F0E94AC098D2F32CF8D2F0E94CA
:1010E000D7068C2F0E94BC09D9CED23F41F160F4C3
:1010F000D03FB9F0D13F81F0112309F443C0011171
:10110000B3CE8C2F8F711FC0D33F01F1D43FA1F715
:101110008091750282FD24C08C2F8F71112311F3F1
:1011200012C0112341F0053008F0B8CE8C2F8F711A
:101130000E94CE09B3CE063008F0B0CEF7CF8C2F88
:101140008F711111CFCF0E94AC09A8CE112329F0C5
:101150008C2F8F710E94A009A1CE0E949B099ECE68
:10116000112331F063E08C2F8F710E94210E96CEF7
:1011700081E00E943F0E023008F490CE82E00E948F
:101180003F0E8CCE002359F0D93309F009CFEFEF91
:10119000FDEE22E0E150F0402040E1F7FFCE8C2F41
:1011A0008F71A0CF0F931F93CF93DF93EC016881D2
:1011B00079818D810E94AF0A8C010E94F9090E94F9
:1011C0006F09B801CE010E94DE06DF91CF911F9119
:1011D0000F910895CF93DF93EC018C81882399F0D0
:1011E000CE010E942805811111C00E94980D88230C
:1011F00051F08D81882339F08091750282FF03C000
:1012000082E00E943F0EDF91CF910895CE010E94AF
:10121000D208CE010E94DC04F6CF90E080E00E946C
:101220009F2290E080E00E94C4220E94BF0D0E9495
:101230001A0E0E94BC200E94A02008950E944923FB
:101240000E940D0908950E94AF0D0E941E09089585
:1012500092959F70963091F058F4925F9F70923003
:1012600058F4803F19F030F4883E30F481E008955E
:101270009A5FF4CF843FD1F380E00895883EB0F3C5
:10128000813FD1F7F3CFFC012481222339F0808103
:1012900091810E94A40A0E942809089580E008957F
:1012A000A6E0B0E0E6E5F9E00C94D6282696E2E068
:1012B0000C94F228A7E0B0E0E0E6F9E00C94D62820
:1012C0002796E2E00C94F22808950E94640908959C
:1012D0000E9465099093810180938001089508958B
:1012E0000E94680908952091800130918101822B2C
:1012F000932B0E946809089520918001309181010B
:10130000822393230E9468090895209180013091DF
:101310008101822793270E94680908950E94640929
:1013200008950E948E0908950E94910990937F016B
:1013300080937E01089590E080E00E9494090895D2
:1013400021E030E0A90102C0440F551F8A95E2F761
:10135000CA010E949409089521E030E002C0220FE2
:10136000331F8A95E2F780917E0190917F01822B55
:10137000932B0E949409089521E030E002C0220FCF
:10138000331F8A95E2F72095309580917E019091E8
:101390007F01822393230E949409089521E030E085
:1013A00002C0220F331F8A95E2F780917E0190914F
:1013B0007F01822793270E949409089520917E013E
:1013C00030917F01822B932B0E94940908952091E4
:1013D0007E0130917F01822393230E949409089516
:1013E00020917E0130917F01822793270E949409EA
:1013F00008950895262F277091E001C0990F2A952E
:10140000EAF723E0769567952A95E1F7660F771F4F
:10141000660F771FFA01E60FF71F50E040E0682FD4
:1014200070E08191DF0111979B01042E02C0369577
:1014300027950A94E2F72170219528272923282748
:101440002C934F5F5F4F4430510559F70895A82FF3
:10145000A77023E0969587952A95E1F7880F991F45
:10146000880F991FFB01E80FF91F50E040E080E072
:10147000219130E00A2E02C0369527950A94E2F7B2
:1014800021703327042E01C0220F0A94EAF7822B21
:101490004F5F5F4F4430510559F70895262F98301C
:1014A00070F48B3060F4682F70E08BE0989F600DD3
:1014B000711D112442E551E0822F0E94FA0908951E
:1014C000292F983068F48B3058F490E062E571E091
:1014D0003BE0239F800D911D11240E94270A08954F
:1014E00080E00895B0E0A0E0E8E7FAE00C94CF28AF
:1014F0007C0100917E0110917F018091800190918B
:101500008101082B192BCFE0D0E0CC24C394D12C3F
:10151000BC2EC6010C2E02C0880F991F0A94E2F758
:1015200080239123892B49F4219790F7B12C8B2D9F
:10153000CDB7DEB7E9E00C94EB28B7018C2F0E9401
:101540005511019789F3F3CFCF93DF93EC010E94FC
:10155000720ABE010E945511DF91CF9108951F9329
:10156000CF93DF93EB0190915101992339F0CB0197
:101570000E94A40ADF91CF911F910895882369F0FA
:10158000CB010E94720A182F682FCE010E944E0ACA
:10159000BE01812F0E945511EDCFCB010E94600A40
:1015A000182FF6CF1F93CF93DF93C091820117E0DE
:1015B000809183018C1304C0DF91CF911F91089516
:1015C000D0E01C9FF0011D9FF00D1124EC57FE4F41
:1015D00020813181428153816481758186810E949D
:1015E0005A092196C770E4CF2091BC013091BD010A
:1015F0004091BE015091BF016091C0017091C10145
:101600008091C2010E945A090895CF93DF9380917F
:10161000C201807F09F04DC08091C101882309F487
:1016200048C0E091820150918301C091BD01D091E9
:10163000BC016091BE017091BF0147E05E17C9F126
:101640008E2F90E0E49FF0011124EC57FE4F24818F
:10165000222391F1489FF001499FF00D1124DF01F1
:10166000AC57BE4F11962C9111972C1325C02C917D
:101670002D1322C015962C91159721111DC012967D
:101680002D913C91261B370B283C3105A8F4809105
:10169000C2018F7080618093C201E657FE4F808146
:1016A0008F70806180838CEB91E00E94EA080E9439
:1016B000D20ADF91CF910895FC013196E770BECF39
:1016C000482F209182019091830157E0291302C095
:1016D00080E0089530E0529FF001539FF00D1124F7
:1016E000EC57FE4F8181681306C08081481303C008
:1016F00085818111EECF2F5F3F4F2770E7CFA4E1A7
:10170000B0E0E5E8FBE00C94CC288C0186E0F80121
:10171000DE011F9601900D928A95E1F7F801848110
:10172000E5809CEBA92E91E0B92E9091C00191111A
:101730001FC08823D1F0EE20A9F0C8010E94430900
:10174000F82E882379F087E0F801D50101900D92F9
:101750008A95E1F7C5010E941B060E94050B0E94B5
:10176000F40A5FC0C8010E94EA08FF24F39459C03C
:10177000C080D18082809380F090C1012091BE0111
:101780003091BF01A401421B530BFF2009F4F9C0A3
:10179000483C510508F0A7C0882309F442C0909145
:1017A000BD018091C201282F207F09F05CC09D11EE
:1017B00016C09091BC01C91212C0E1104EC08F70CA
:1017C00080618093C2010E94F40A8CEB91E00E9438
:1017D000EA088091C201F8018683F12C22C0E11051
:1017E0003CC06D2D8C2D0E94600B6D2D8C2D0E94A8
:1017F000600BE82E8111F1CFCF86D88A8F8598892A
:101800000E94A40A292F22952F70243078F49F700B
:101810002230A8F09923B9F0F8019681907F99F4CD
:10182000FE2C8F2D6496ECE00C94E8282A5F2F7034
:10183000223068F0C8010E94EA08EF2CF1CF99230A
:1018400011F0882369F3805E883050F3F3CF803F36
:1018500038F3815F833070F7E3CF8091C2018160FC
:101860008093C201BACF9D1113C09091BC01C912DF
:101870000FC0E1100DC08683C8010E94EA0887E00E
:10188000F801ACEBB1E001900D928A95E1F767CFDA
:10189000C8010E944309882309F464CFEE2009F4AB
:1018A00061CF8091C201803288F02091BC013091DB
:1018B000BD01398728879B868A869091C0019C87C5
:1018C0001D868E87CE0108960E94EA0887E0F801FF
:1018D000ACEBB1E001900D928A95E1F70E94050B07
:1018E0000E94F40A42CF9091C201292F207FA1F4D7
:1018F000682D9A8A898AA6017A899E2D0E945009AC
:101900008CEB91E00E94EA0887E0F50111928A953C
:10191000E9F70E94F40A61CF882309F482CF80910D
:10192000BD018D1110C08091BC01C8120CC0E11026
:101930000AC09683C8010E94EA0887E0F501119267
:101940008A95E9F76ECFC8010E944309882309F4FC
:1019500009CFEE2009F406CF8091C201803208F44D
:10196000B5CF2091BC013091BD013A8329839C827F
:101970008B829091C0019D831E828F83CE01019640
:10198000A3CF483C5105B8F5882309F4EECEFE2CD0
:10199000EE2009F4E7CE8091BD018D111EC080912B
:1019A000BC01C8121AC08091C20180FD0DC0982FE1
:1019B000907F51F08683903F09F45ECF982F907FFF
:1019C000905F8F70892B57CF87E0F801ACEBB1E0C7
:1019D00001900D928A95E1F724CFC8010E94430936
:1019E000811174CF8091C20181608093C201C801CE
:1019F0000E94EA0816CF682D9A8A898AA6017A89F8
:101A00009E2D0E94500987E0F50111928A95E9F711
:101A1000A6CEAEE0B0E0EFE0FDE00C94D52828873C
:101A200039874A875B876C877D878E87CE010896CA
:101A30000E947F0B8823B1F06C85662341F02885D6
:101A400039854A855B857D858E850E945A0917E018
:101A5000809182019091830189133DC02E96E3E02D
:101A60000C94F12887E0FE013896DE011196019072
:101A70000D928A95E1F78C85882349F320918301A3
:101A800030E0C9010196877099274091820148177B
:101A9000190699F097E0929FD001939FB00D112401
:101AA000AC57BE4FFE01319601900D929A95E1F729
:101AB000809383010E94D20ACACF0E942309109208
:101AC00083011092820187E0ECEBF1E0DF011D92CF
:101AD0008A95E9F7BCCF819FC00111248C579E4F96
:101AE0000E947F0B882309F4B9CFE09182011E9FE9
:101AF000F0011124EC57FE4F208131814281538146
:101B00006481758186810E945A098091820190E0EA
:101B1000019687709927809382019ACF8091C301A3
:101B200086958695869508958091C301877008955E
:101B30009091C301977081E009F480E0089580914D
:101B4000CF0108959091CF01892B8093CF01089503
:101B500080959091CF0198239093CF010895109292
:101B6000CF0108959091CE01892B8093CE010895E5
:101B700080959091CE0198239093CE010895109274
:101B8000CE01089508950E94C20D08959091C40158
:101B9000292F282331F0809589238093C4010E9446
:101BA000C30D089508950E94D20D08959091C50126
:101BB000292F2823281729F0982B9093C5010E94DC
:101BC000D30D08959091C501292F282331F08095D8
:101BD00089238093C5010E94D30D08958091C5018A
:101BE000882329F01092C50180E00E94D30D08954A
:101BF0000F931F93CF930091640010916500C091E3
:101C0000CF018091CE01C82B8091C501882331F08E
:101C1000C82B0E94E92281110E94EE0DF801C083B9
:101C200080916400909165000E948622CF911F915F
:101C30000F9108950E94F80D089508950E941D0EB9
:101C400008959091750292FF11C098E0899F9001CC
:101C50001124622B6093C3010E94AC098091C301DF
:101C60008695869586950E941E0E08950E94AC0961
:101C700008951092C30180E00E941E0E0895909175
:101C8000C301809589238093C301282F277069F4AD
:101C9000891759F09091750292FF07C08695869535
:101CA00086950E94BC090E94390E08959091750294
:101CB00092FB222720F9281769F080FB92F9909374
:101CC000750280917402909175020E94A50E82E0C7
:101CD0000E943F0E08958091750282FB882780F94B
:101CE00091E089270E94560E089581E00E94560EC9
:101CF000089580E00E94560E08956FEF7FEF90E008
:101D000080E00E94F329089590E080E00E94C029BD
:101D100021E0853E9E4F09F020E0822F089582E069
:101D200090E00E94B229089583E090E00E94B229D9
:101D300090E00895682F83E090E00E94D6290895EE
:101D400084E090E00E94C0290895BC0184E090E006
:101D50000E94F3290895AB01BC018FE090E00E943E
:101D6000E7290895AB01BC0183E190E00E94E729D7
:101D7000089560E070E0CB010E94B20E089560E02B
:101D800070E0CB010E94AB0E0E94B90E0895A8E04E
:101D9000B0E0EDECFEE00C94D62865EE7EEF90E02E
:101DA00080E00E94F32960E082E090E00E94D62962
:101DB00081E090E090938101809380010E949A0ECF
:101DC00060E074E184E090E00E94F32960E086E046
:101DD00090E00E94D62960E087E090E00E94D6293A
:101DE00040E050E0BA0188E090E00E94E72960E01E
:101DF00083E290E00E94D62960E08CE090E00E94AF
:101E0000D62960E08DE090E00E94D62919821A82DE
:101E10001B821C821D821E821F82188648E050E0B1
:101E200067E170E0CE0101960E94C62940E050E0D3
:101E3000BA018FE190E00E94E7290E94BF0E289628
:101E4000E2E00C94F2280E94C70E0895682F8EE0FD
:101E500090E00E94D6290895A6E0B0E0E2E3FFE01A
:101E60000C94D4280E94F1238C018091D001909190
:101E7000D1018017910781F019821A820E94F12303
:101E8000682F49815A81792F80E090E00E94EB050C
:101E90001093D1010093D0012696E4E00C94F02831
:101EA0000E94FD236093E6017093E7018093E801AF
:101EB0009093E9016093E2017093E3018093E40160
:101EC0009093E5010895089508950E94630F089581
:101ED00008950E94680F08958BE492E10E94C21356
:101EE0000E94640F0E94650F089581E008950E948A
:101EF000750F08950E94750F0895089508950E9422
:101F00007D0F0E947E0F08950E94840E811102C0F1
:101F10000E94230F0E948F0E8093EA010E94A00E60
:101F200090937502809374020E94940E0E9470092F
:101F300080917E0190917F010E94910908950E94F5
:101F4000EA230E9420130E94840F0E94C1050E9470
:101F5000C61C0E94381B0E94431A0E94690F0895F4
:101F6000A6E0B0E0E6EBFFE00C94CA280E94770FF1
:101F700081110EC00E942C0F0E94241B0E94C51CC0
:101F80000E94DE200E94D2052696EEE00C94E62800
:101F90000E94361322ED822E21E0922E640110E081
:101FA000F601E190F1906F01812F0E9467121F5F8F
:101FB000183009F44BC0E816F90691F38091EA0154
:101FC00081FD0E9470120E947A0F782E10E0662424
:101FD0006394812F0E9467127C01F401A190B1905B
:101FE0004F018A159B0561F100E0CC24C394D12CEC
:101FF000AE24BF24C5018C219D21892BC1F07720FF
:10200000B1F009831A830E94F1239C838B836D8234
:1020100021E0C7018C219D21892B09F420E0498111
:102020005A816B817C818D81922F0E94EB050F5F1D
:10203000CC0CDD1C0B30F1F6F4013297F182E0821A
:102040001F5F183031F60E94500F96CFE816F90640
:1020500009F0B4CF8FCF1F93CF93DF930E945A1113
:10206000EC01C11580E5D807F0F5C11580E4D8076B
:1020700008F09CC0C03ED10520F5CD3CD10508F04C
:1020800082C0C83AD10578F4C53AD10508F073C0CA
:10209000C130D10519F1209709F1C430D105F0F410
:1020A000D0E0C0E01BC0C33CD105D0F7C85AD0E097
:1020B000CC0FDD1FC653DF4F0990D881C02DD464EB
:1020C0000DC0C11580E2D80708F0D1C0C11581E06C
:1020D000D80708F05AC0C83ED10510F7CE01DF91ED
:1020E000CF911F910895C03682E5D80718F5C03406
:1020F00082E5D80708F06BC0C03282E5D80708F047
:102100005FC0C11582E5D80708F497C02C2F26952B
:10211000269580E2289F900111248C2F8370C1E0C6
:10212000D0E002C0CC0FDD1F8A95E2F7C22BD32B83
:10213000DD68D4CFC03A82E5D80760F4C03882E5C4
:10214000D80708F459C0CF71D0E0DC2FCC27C46F7A
:10215000D06AC4CFC03C82E5D80708F462C0C03E54
:1021600082E5D80708F09CCFDC2FCC27CC27DF7185
:10217000C06FD06AB3CFC55AD0E0C050DF4FC8811E
:10218000D0E0D064ABCFD065A9CF8D2F0E94FC11D9
:10219000182FCE0199270E945A11C12FD0E0DC2FB1
:1021A000CC27CC27DF71C82BD92B98CFCE0199270C
:1021B0000E945A11CC27DF70C82BD92BD06A8ECF42
:1021C000CF71D0E0DC2FCC27C16FD06A87CF2C2F06
:1021D00026952695277080E2289F900111248C2F48
:1021E0008370C1E0D0E002C0CC0FDD1F8A95E2F71A
:1021F000C22BD32BDC6872CF2C2F26952695277007
:1022000080E2289F900111248C2F8370C1E0D0E0E0
:1022100002C0CC0FDD1F8A95E2F7C22BD32BDA6800
:102220005DCF8C2F8F710E94FC11C82FD0E0DC2F66
:10223000CC27CC27DF71D06251CF8C2F8F710E94B9
:10224000FC1155E0D695C7955A95E1F7CF70D0E0CF
:10225000DC2FCC27282F30E084FF05C044E0220F7C
:10226000331F4A95E1F7C22BD32BD06937CF8D2F7F
:102270008F710E94FC11182FCE0199270E945A11CC
:10228000C12FD0E0DC2FCC27CC27DF71C82BD92B76
:10229000D2CF462F783030F46B3020F4672F0E9475
:1022A0008304089590E080E008950E9449110E94FF
:1022B0002B10089582389105B9F1B0F4813391055E
:1022C00009F47DC048F48932910509F46DC08A3261
:1022D000910509F47BC008958533910509F45FC029
:1022E0008933910509F10895833E9105D9F138F4B8
:1022F000803E910529F1823E910579F10895863E4F
:102300009105D9F1873E910509F43EC0843E9105BF
:1023100041F52091750221FF24C08091740284FD53
:1023200019C087EE90E0089520917402237009F09F
:102330005AC02091750223FF14C089E290E00895ED
:102340002091740220FD38C03091750230FF09C021
:1023500024FF43C090E080E008952091740222FDA4
:10236000F7CF08952091740222FD3AC03091750292
:1023700030FD39C024FFF5CFEDCF2091740223FF4B
:10238000F0CF24FDE7CFCDCF2091740223FD2EC0E6
:102390003091750231FFEECF84EE90E008952091E8
:1023A000740225FFDECFC9CF2091740225FD21C024
:1023B0002091750223FFD5CF89E390E0D2CF209101
:1023C000740226FFCECF8AE290E008952091740235
:1023D00026FFC7CF81E390E0089583EE90E0089553
:1023E00082EE90E0089580EE90E0089586EE90E011
:1023F000089585E390E008959091740292FF10C0D3
:1024000041E0282F2471243009F040E031E0282FEA
:102410002871283009F030E0431711F02CE08227B2
:1024200093FF10C041E0282F2471243109F040E0CF
:1024300031E0282F2871283109F030E0431711F0DE
:102440002CE082273091750230FF10C051E0282F18
:102450002171213009F050E041E0282F2871283007
:1024600009F040E0541711F029E0822731FF10C035
:1024700041E0282F2171213109F040E031E0282F7F
:102480002871283109F030E0431711F029E0822744
:1024900094FD877E089580E00895CF939C01205E8F
:1024A0003245C1E02032310538F4FB01C581C1114C
:1024B00003C08F710E94F4048C2FCF91089508956A
:1024C0000E945F12089508950E9463120895E82FF4
:1024D000F0E0EE0FFF1FEA57FD4F808191810895D4
:1024E000089588E78A95F1F7089500C008950E943D
:1024F00071120895F894E82FE295EF70F0E031A999
:10250000282F2F7081E090E001C0880F2A95EAF70C
:10251000982F9095932391AB92A9892B82AB7894B5
:1025200008950F931F93CF93DF93CEE0D1E089916D
:102530008F3F11F00E947A1281E0C631D807B9F7B7
:10254000C3E0D1E00EE011E089918F3F11F00E94CD
:102550007A120C171D07C1F7DF91CF911F910F91D0
:102560000895AF92BF92DF92EF92FF920F931F9365
:10257000CF93DF938C01D62EC62FD0E0CE01825FA1
:102580009E4F7C01FC0120812F3F09F44CC0F89440
:10259000E22FE295EF70F0E031A92F7081E090E03A
:1025A00001C0880F2A95EAF7932F982B91AB92A937
:1025B0008095892382AB78940E947512E3E0F1E064
:1025C00041E050E0B12CA12C21912F3FB1F1A22F7D
:1025D000A295AF70B0E0D0968C9190E02F7002C0C1
:1025E000959587952A95E2F780FD27C0CA01A82A0C
:1025F000B92A440F551F81E0EE30F80729F7F7019B
:1026000080818F3F11F00E947A1261E0A114B10421
:1026100009F460E08D2D0E947712CC0FDD1FC00FF2
:10262000D11FB982A882DF91CF911F910F91FF90A6
:10263000EF90DF90BF90AF90089590E080E0D7CF0B
:102640000E94911280E1E6E8F2E0DF01982F1D92EE
:102650009A95E9F7E6E7F2E0DF011D928A95E9F73E
:1026600088E00E9471130E9460120895A0E1B0E01A
:10267000ECE3F3E10C94D3288E010F5F1F4F80E150
:10268000F80111928A95E9F7F12C6F2DC8010E948B
:10269000B112F394F8E0FF12F8CF40E150E0B80136
:1026A00086E792E00E949C2921E0009709F420E04F
:1026B000892B41F080E1F801A6E7B2E001900D928C
:1026C0008A95E1F748E066E872E086E792E00E94CA
:1026D0007213182F0E946412812F6096E5E00C940B
:1026E000EF280895B0E0A0E0E8E7F3E10C94D028EB
:1026F0006C017B01042FC22F222379F081E08093AB
:10270000ED010E94F1239093EC018093EB0180E0B6
:10271000CDB7DEB7E8E00C94EC28D091ED01DD23D5
:10272000B1F38091EB019091EC010E94092405978F
:1027300070F310E0000F111FA801B601C7010E943D
:102740009C29892B31F0A801B601C7010E94A92953
:10275000CD2F1092ED018C2FDBCF0E94D8230E9449
:102760003A250E946C0F0E9441250E949F0F0E94F3
:1027700052250E9460250E948D250E9499250E9465
:102780007F0FF7CF90934B0180934A0108950F93E9
:102790001F93CF938C01FB01C581CC2309F447C063
:1027A0000E949F0D8272F801E052F847EB30F1056C
:1027B00038F4ED5BF54D0C948F280E94351AC0E07B
:1027C0008C2FCF911F910F910895882329F00E949B
:1027D000231AF5CF8823D9F30E94131AF0CF882348
:1027E00029F00E94C016EBCF8823D9F30E94B116BE
:1027F000E6CF882329F00E94E216E1CF8823D9F39F
:102800000E94D116DCCF882329F00E940417D7CF6D
:102810008823D9F30E94F316D2CF882329F00E948F
:102820008915CDCF8823D9F30E946915C8CFC1E09F
:10283000C7CFEF92FF920F931F93CF93DF939B012C
:10284000682F31110EC0442329F0E82FF0E0E25840
:10285000FC4F6491762F862FCDB7DEB7E6E00C945F
:10286000EE28C32FD0E0E82FF0E0442321F0E25817
:10287000FC4FE491F0E046E0249FC00111240FEFEB
:1028800010E0B8010E944528AB01822F90E0880F2C
:10289000991F25E5249FB001259F700D1124861BEB
:1028A000970B982F990F980FB8016C1B7D0B6E9F9B
:1028B000D0016F9FB00D7E9FB00D11248B2F939F81
:1028C00090011124232F3327B801621B730B6E9FD5
:1028D00090016F9F300D7E9F300D11247801E91A11
:1028E000F108EC9EB001ED9E700DFC9E700D112460
:1028F000672F7727061B170B0E9FE0010F9FD00D48
:102900001E9FD00D11247D2F9E2F4230510599F02E
:1029100048F44115510569F04130510581F07B2F94
:10292000832F07C04430510569F080F046305105CF
:10293000B1F7692F91CF9B2F8D2F7E2FFACF7E2F4E
:10294000932FF7CF9D2F7B2F8E2FF3CF732F9B2F9E
:10295000FBCF41E00E941914089508950E94A91424
:10296000089590916900291B922FE0914301F09105
:102970004401242F462F682F892F90E00995089550
:10298000CF93DF93762FE901682F842F0E94AE1436
:10299000962F672F9E01482F892F0E94B114DF9137
:1029A000CF91089580919602982F9C7F29F483708F
:1029B00084608093960208958C3AE8F38370886A65
:1029C000F8CFB0E0A0E0E7EEF4E10C94D02888E086
:1029D00090E00E94BA296B017C0183E290E00E94A2
:1029E000B229282F30E040E050E060E070E080E065
:1029F00090E000E20E94FD28B22FA32FF42FE52FD4
:102A0000D62FC72F97018601BC29A12BFE295E2F47
:102A1000532B2B2F3A2F4F2F6D2F7C2FCDB7DEB797
:102A2000E8E00C94EC28B0E0A0E0E9E1F5E10C94DA
:102A3000CC2849015A016B017C010E94D214840107
:102A4000A4016A2D7B2D88E090E00E94E729940183
:102A50004A2D5B2DB601C70100E20E941829622FA2
:102A600083E290E00E94D629CDB7DEB7ECE00C946B
:102A7000E828E6E9F2E085E0808311828FEF828327
:102A800083831482758125E030E04FEF5FEF60E0D3
:102A9000868197810E941315089590919A02933030
:102AA00018F49F5F90939A02882391F020919602E8
:102AB00030919702409198025091990260919A0248
:102AC00070919B0280919C0290919D020E9413152F
:102AD000089581E00E944D15089590919A029923DE
:102AE00019F0915090939A02882391F020919602C8
:102AF00030919702409198025091990260919A0208
:102B000070919B0280919C0290919D020E941315EE
:102B1000089581E00E946D1508950F931F93CF9340
:102B20008091960280FF09C0E0914701F091480131
:102B30000995CF911F910F910895C0916B0000915D
:102B400043011091440180916C00C81768F780918F
:102B500069009C2F981B892F20E040E060E090E006
:102B6000F8010995CF5FEFCFEF92FF920F931F937C
:102B7000CF93DF93D82F162F042F8091960280FFDA
:102B80000CC0C0916B00E0904301F0904401809133
:102B90006C00C81738F00E948D15CDB7DEB7E6E09F
:102BA0000C94EE28809169009C2F981B892F202F70
:102BB000412F6D2F90E0F7010995CF5FE8CF762F79
:102BC0009091960290FF0AC0682F842F0E94A9144A
:102BD000962F672F482F892F0E94B4150895CF9301
:102BE000DF93EC01EC81F0E0E758FD4F4491E6E91A
:102BF000F2E0628181810E94DF158C818F5F8C837E
:102C0000DF91CF910895CF93DF93EC01E6E9F2E0F5
:102C1000438162818C810E94DF158C818F5F8C8360
:102C2000DF91CF910895CF93DF93EC01409199020A
:102C30009C81892F817090FD842F692F627091FD96
:102C4000642F92FF40E00E94B4158C8190E00196C1
:102C5000877099278C83DF91CF910895B0E0A0E031
:102C6000E4E3F6E10C94D128D82FF62E142FE22EAF
:102C70009091960290FF2FC0E92FE695E695AE2F32
:102C8000B0E0AA5EBE4F8C91809347029C7F943047
:102C900039F56D2F7F2D842F0E94A914962F672F51
:102CA000482F892F0E94B415D0939702F092980272
:102CB00010939902EE2079F02091960260919A0289
:102CC00070919B023D2F4F2D512F80919C0290912E
:102CD0009D020E941315CDB7DEB7E7E00C94ED28F6
:102CE000823019F410919902DFCF863019F4D09117
:102CF0009702DACF8930D9F38931B1F6E9518E2FB5
:102D00008170D82EE695F0E0E758FC4FC49100E0C2
:102D100060916D00061718F00E948D15C5CF0C9FAD
:102D2000C001112470E00E9445288D2FD1100CC0E5
:102D3000860F20916B00200F3327331F412F6F2DFB
:102D40000E94C0140F5FE4CF861BF3CFE6E9F2E0E8
:102D50009181282F4381628188E0890F0E942E167D
:102D6000089581E00E94A6160895E6E9F2E09181B7
:102D7000282F4381628188EF890F0E942E160895C3
:102D800081E00E94B5160895E6E9F2E0628121E152
:102D9000620F08F46FEF282F438181810E942E1665
:102DA000089581E00E94C4160895E6E9F2E0628188
:102DB00021E1621B08F460E0282F438181810E9499
:102DC0002E16089581E00E94D5160895E6E9F2E0F6
:102DD000438121E1420F08F44FEF282F6281818166
:102DE0000E942E16089581E00E94E6160895E6E9F5
:102DF000F2E0438121E1421B08F440E0282F628188
:102E000081810E942E16089581E00E94F716089590
:102E100020E00E942E160895EF92FF921F93CF9309
:102E2000DF93EC0110E0EE24EA94F12C60916D0048
:102E3000161770F00E948D159A818C8190FF1EC02C
:102E40008F5F8C83DF91CF911F91FF90EF9008955A
:102E500020916B00210F3327331F70E0C7010E94C0
:102E60005928962F8C814091990260919802199F60
:102E7000800D11240E94C0141F5FD8CF8150E1CF74
:102E8000B0E0A0E0E6E4F7E10C94CF28FC018281F9
:102E9000DFEF80FFD1E0C0E00091430110914401D9
:102EA00080916D00C81798F00E948D158091EF01F8
:102EB000D13009F04DC0811102C080916D00815068
:102EC0008093EF01CDB7DEB7E9E00C94EB28809159
:102ED0006B0090916900891B8C0F20E040E060E05E
:102EE00090E0F801099594E0E92EF12CB12CCC2E5C
:102EF000D12C8091EF018B0D813124F18F70082E40
:102F0000000C990BC816D906B1F420916B002C0D5A
:102F10003D2D311D809199028E9DA0018F9D500DF8
:102F20001124559547955595479560919802809144
:102F300097020E94C014BD0EF1E0EF1AF108C9F625
:102F4000CF5FAECF87FFDBCF90916D00890FD7CFDA
:102F500090E0019660916D0070E00E945928B0CF1A
:102F60000F931F93CF93C0916B0000914301109179
:102F7000440180916C00C81750F1C0E000914301FA
:102F80001091440160916D00C61770F10E948D157B
:102F9000209167008091EE01820F8093EE01909165
:102FA0006800920F90936800191654F4082E000CD4
:102FB000990B40916D004150550B841795071CF0FB
:102FC000219520936700CF911F910F9108958091D3
:102FD00069009C2F981B892F20E040E060E090E082
:102FE000F8010995CF5FC5CFEC2FF0E070E0CF017D
:102FF0000E94592820916B00820F2091EE01022E31
:10300000000C330BE217F307A4F020916800022EA6
:10301000000C330B2E173F0764F0282F30E040914F
:10302000990260919802809197020E94C014CF5F2C
:10303000A9CF90916900891B20E040E060E090E01A
:10304000F8010995F4CFB0E0A0E0E9E2F8E10C94D2
:10305000CC28EC014C81042F10E09801D8010E948B
:103060009D289B01AC010E94B3284B015C01E0E26A
:10307000F0E0E01BF10BA5E5B0E0AC019B010E9484
:10308000B3286B017C019F01DF010E9495289B0101
:10309000AC010E94BE289B01AC01280D391D4A1DC0
:1030A0005B1DC701B6010E946D28F22E822F90E0B1
:1030B00039E23F1520F143E0249F9001112435951A
:1030C0002795122F109500E085E5E82EEF188091E6
:1030D0006D00081720F10E948D159C8181E09923D5
:1030E00019F0903219F48FEF80936600809166009A
:1030F000890F8C83CDB7DEB7ECE00C94E82825E58A
:1031000030E0A901481B590BCA019A01220F331F55
:10311000280F391F37FFD3CF2F5F3F4FD0CF8E2DD2
:1031200001FD8F2D20916B00200F3327331F412F7E
:10313000609198020E94C0140F5FC9CF0F931F9334
:10314000CF93DF938C01D0E0C0E090916D009C178D
:103150001D0609F074F40E948D15F801848190E039
:103160000196817099278483DF91CF911F910F91F0
:103170000895F801448120916B002C0F3D2F311DE3
:10318000609198028091970296959C171D0649F0D0
:1031900044F0442341F0409199020E94C0142196CA
:1031A000D4CF4423C1F340E0F8CFB0E0A0E0EBED92
:1031B000F8E10C94C828FC016280448081E084839B
:1031C000E9E7F2E07490E8EFF2E0E491C09199024F
:1031D000C695C158D0E0CC0FDD1FCD2FDD27812C47
:1031E00025E0922EAA24AA94B12C55245A94E719CA
:1031F000EE2EF12C80916D00881638F00E948D150E
:10320000CDB7DEB7E0E10C94E428C82CD12C82E0E5
:10321000861568F09C9CF0019D9CF00D1124E051F6
:10322000FE4F8091970280838091980281834110A4
:103230001CC09C9CF0019D9CF00D1124E051FE4FA0
:103240001382128220916B002C0D3D2D311D9C9C10
:10325000F0019D9CF00D1124E051FE4F42816181EF
:1032600080810E94C0148394C5CF9C9C80019D9C4A
:10327000100D112400511E4FF80183818823F1F0B5
:1032800081508383859DC0011124648170E00E9478
:103290004528FB01FF27E758FD4F8491E82FE719E8
:1032A000E59DC0011124B7010E9445288091990233
:1032B000689FB0011124F8017283C4CF0E947F2956
:1032C000B5010E9459288C179D070CF0BBCFF2E086
:1032D000F61598F40E947F29B5010E945928F8013B
:1032E00080830E947F29209198022695622F70E0AA
:1032F0000E945928280FF80121839C9CF0019D9C75
:10330000F00D1124E051FE4F128280919902893C08
:1033100058F088EC9C9CF0019D9CF00D1124E0512C
:10332000FE4F848383838ECF8431A0F784E1F2CF74
:10333000E6E9F2E020812E7F2083318142815381B2
:1033400064817581868197810E94131510924802CD
:103350000E948D150895609196026695669570E0BD
:103360004BE050E08EE690E00E948F29892B19F403
:1033700081E0809348020E94F12390934102809360
:10338000400208959091960290FF34C0937081118D
:1033900032C0946090939602662391F02091960239
:1033A00030919702409198025091990260919A024F
:1033B00070919B0280919C0290919D020E94131536
:1033C000609196026695669570E04BE050E08EE65F
:1033D00090E00E948F29892BB1F01092480281E081
:1033E00080934302409199026091980280919702E4
:1033F0000E94081708958B3210F0986ACBCF880F7F
:10340000880F982BC7CF0E94AB19E9CF682F9091F6
:1034100096029695969581E0890F8B3208F081E0AF
:103420000E94C219089581E00E94061A0895682F2B
:1034300090919602969596958FEF890F09F48AE2FE
:103440000E94C219089581E00E94171A089561E050
:103450000E94C2190895E6E9F2E0808181608083CC
:10346000869586950E94271A08958091960280FF7E
:1034700003C00E94981908950E942B1A089560E0D5
:103480000E94C21908958091460281113CC00E9499
:10349000E114209396023093970240939802509340
:1034A000990260939A0270939B0280939C0290937E
:1034B0009D022C7FA1F40E9439150E94E1142093F3
:1034C000960230939702409398025093990260932A
:1034D0009A0270939B0280939C0290939D020E949B
:1034E000D21410924802E0914101F09142010995F5
:1034F0008091960280FF04C0869586950E943F1AAF
:1035000081E08093460208950F931F93CF93DF933A
:10351000809148028823C1F180914702E091960290
:10352000E695E695E81BE0934202823091F5F0E0E3
:10353000EB58FD4FE491CE2FD0E00FEE15E18091D6
:103540004302882361F0109243020E94F12390937A
:1035500041028093400210924502109244020E9460
:10356000F123E0914002F09141028E1B9F0B8F3FAF
:103570009F4750F4EC0FFD1FF0934102E09340028F
:1035800080E492E0F8010995DF91CF911F910F91AE
:103590000895863049F4F0E0EE58FD4FE491CE2FC7
:1035A000D0E003E016E1CBCF893051F4E695F0E0AE
:1035B000E159FD4FE491CE2FD0E00CE017E1BFCFF1
:1035C0008F3051F4E695F0E0E459FD4FE491CE2FB1
:1035D000D0E000E417E1B3CF853149F4F0E0E759DA
:1035E000FD4FE491CE2FD0E000EB17E1A8CFC8E269
:1035F000D0E003E218E1883109F4A1CF833239F435
:10360000E7E6F2E0C591D49103E116E198CFC4EF6B
:10361000D1E00EE918E1843209F491CFC0EDD7E092
:103620000DEA14E1853209F08ACF8E2F63E00E9403
:103630003928E92FF0E0EC59FD4FE491CE2FD0E08E
:1036400005ED18E17CCF08950E94841A089586E064
:1036500090E00E94B2290895682F86E090E00E94D1
:10366000D62908958DE180939E020E942C1B089517
:103670000E94271B80939E0282FF0E94321B809132
:103680009E02803220F08770886180939E02909124
:103690009E02892F817090FF04C0892F86958695A0
:1036A00086950E94391C089580919E02982F9695C8
:1036B00096959695933040F49F5F990F990F990FC7
:1036C0008770892B80939E0280919E0281608093F7
:1036D0009E020E942C1B80919E028695869586955F
:1036E0000E94391C089580919E02982F987F79F04E
:1036F000885080939E02887F91E009F490E0809149
:103700009E0290FB80F980939E020E942C1B809168
:103710009E028695869586950E94391C0895809113
:103720009E0280FD13C0816080939E02813019F457
:1037300089E080939E0280919E020E942C1B8091C2
:103740009E028695869586950E94391C08958091E3
:103750009E0280FF08C08E7F80939E020E942C1BD9
:1037600080E00E94391C089580919E0280FF03C072
:103770000E94A71B08950E948F1B089590919E029E
:10378000892F8695869586958F5F8F719770843087
:10379000E0F4880F880F880F892B80939E02809118
:1037A0009E02887F91E009F490E080919E0290FB58
:1037B00080F980939E020E942C1B80919E02869528
:1037C000869586950E94391C089590939E02E7CFB6
:1037D000843008F083E090919E029770282F220F8A
:1037E000220F220F922B90939E02987F21E009F4E2
:1037F00020E090919E0220FB90F990939E020E94FF
:10380000391C08950E94E81B80919E020E942C1B87
:1038100008959C01FB018581882349F12230F8E756
:103820003F07F9F040F42115E8E73E0769F0213041
:10383000384779F00895243098E7390779F058F03F
:103840002530384789F0089583E00E94021C80E00B
:10385000089580E0FACF0E94731BF9CF0E94541B99
:10386000F6CF0E94B41BF3CF0E94BE1BF0CF81E0C5
:1038700008958F929F92AF92BF92EF92FF920F9313
:103880001F93CF93DF93843070F581112DC09FB5C6
:103890009F7D9FBDA6B5B7B5282F30E00E949D281B
:1038A00023E030E040E050E00E946D2889019A0159
:1038B00086B597B56CE070E00E94452860177107E7
:1038C000B0F0C80169E070E00E94452879BD68BD8C
:1038D000DF91CF911F910F91FF90EF90BF90AF902C
:1038E0009F908F90089583E09FB59062D2CF86B568
:1038F00097B5E6B4F7B4E6B5F7B5C6E0D0E0BE01DB
:103900000E944528060F171F211D311D480159012E
:1039100085E0880C991CAA1CBB1C8A95D1F7C701AD
:10392000BE010E9445289F0150E040E0260F371F4E
:10393000411D511DC501B4010E946D2849015A0164
:10394000E6B5F7B5CA01B9010E9429289B01AC016F
:10395000DF010E94B3289B01AC01C501B4010E94A4
:1039600029282FE096958795779567952A95D1F721
:1039700006B517B530E020E0061717072807390706
:1039800008F0A4CF66B577B5A1CF08958C9A949826
:1039900082E28FBD89E18EBD8FEF9FEF97BD86BD1F
:1039A0000E94381B08950E949C240895FC01EE0F8C
:1039B000FF1FE80FF91FE156FD4F6183408322830B
:1039C0000895EFE9F2E0818360834283339692E0C9
:1039D000EF3CF907C1F7089524E630E040E350E0FA
:1039E0006FE972E080EB0E94D62408958B3109F4D0
:1039F00065C040F58B3071F078F4863009F447C02B
:103A000020F4853059F180E00895873009F448C0EA
:103A10008830C9F781E00895803109F45DC068F409
:103A20008E3089F79091EA01892F8B7F92FF846015
:103A30008093EA0182FD4CC0EDCF863159F3893184
:103A400049F3E1CF8A3201F160F48732B1F020F41A
:103A50008E31C8F28D514CC08932A9F60E941C05E6
:103A6000D9CF833440F48A3308F041C0853329F03C
:103A7000883381F2C8CF833431F681E090E00E9430
:103A800070090E942309C6CF0E94230FC3CF8091E3
:103A9000EA01807F8093EA0181E080934C020895DF
:103AA0009091EA01892F8E7F90FF81608093EA01D7
:103AB00080FDB0CF817F8093EA01ACCF9091EA0185
:103AC000892F8D7F91FF82608093EA0181FFA2CFD1
:103AD0008091EA018160EFCF9091EA01892F877F81
:103AE00093FF88608093EA0183FDF2CF93CF8953DF
:103AF00021E030E0A90102C0440F551F8A95E2F78A
:103B0000CA01BDCF80E008950E94821D0895CF9321
:103B1000C82F80914C028130B9F0882331F0823077
:103B2000A1F110924C0280E00DC00E949F0D8232E4
:103B3000D1F78C2F0E94821D81111BC08C2F0E94F7
:103B4000F61C8170CF9108950E949F0D823289F3F7
:103B50008C2F0E94841D81110AC0C43199F060F439
:103B6000CB3029F0C03169F782E080934C0281E0CC
:103B7000E8CF81E090E0E5CFC93221F0C833B9F356
:103B800080E0DFCF10924C02FBCFC93209F440C075
:103B9000F0F4C431E9F1A8F481E0C73099F68093DC
:103BA000800084E180937F008AE080937E008EE134
:103BB00080937D0088E080937A0088E2809379008A
:103BC00004C082EE8C0F8A3070F181E0BBCFC0352B
:103BD00009F450C0B8F48AE0CF34B9F7E091490253
:103BE000F0914A02309789F32081082E000C990B3E
:103BF000820F911D8F3F910509F00CF43FC08FEFAC
:103C00008083E3CFC135C1F181E0C23539F39ACF6A
:103C100080914B028823C9F210924B0210924A0203
:103C200010924902D2CFCD51C0934B02C330C9F09C
:103C300048F4C13099F08FE790E0C23051F0109213
:103C40004B02C3CFC53099F078F089E790E0C630D9
:103C5000B1F790934A0280934902B7CF80E890E091
:103C6000F8CF8EE790E0F5CF8DE790E0F2CF8AE7CE
:103C700090E0EFCF86EFB2CF8FEFB0CF97FFC0CFFE
:103C80001082A3CFCF93DF93EB0186319C4711F5D0
:103C90000E949F0D9D81992399F08A7A91E009F401
:103CA00090E090934D02811109C089E20E9439236E
:103CB0000E941A0E80E0DF91CF91089585E3F6CF40
:103CC00080914D02811104C089E20E944123F0CF0E
:103CD00085E3FBCF81E0EFCFCF93DF93EC01FB01D6
:103CE0008581882309F4D2C09E01305723323105E3
:103CF00008F0B2C00E94A00E9093750280937402E7
:103D0000FE01E150F047E232F10520F4E25BF54DAF
:103D10000C948F288091740281608093740293C008
:103D2000809175028860809375028DC080917402C5
:103D30008260F3CF809174028460EFCF809174022F
:103D40008860EBCF809175028160EDCF8091750224
:103D50008260E9CF809174028061DFCF809174022C
:103D60008062DBCF809174028064D7CF0E942309E8
:103D7000809174028068D1CF809174028C60CDCF25
:103D8000809175028360CFCF809174028E7FC5CF02
:103D900080917502877FC7CF809174028D7FBDCFE0
:103DA000809174028B7FB9CF80917402877FB5CFE9
:103DB000809175028E7FB7CF809175028D7FB3CFD2
:103DC000809174028F7EA9CF809174028F7DA5CFE0
:103DD000809174028F7BA1CF0E942309809174028D
:103DE0008F779BCF80917402837F97CF80917502EC
:103DF0008C7F99CF8091740282FB992790F921E002
:103E0000922790FB82F990FB83F987CF809175020E
:103E1000982F909591708E7F892B90FB81F983CF9D
:103E200090917402892F8F7B96FF806476CF0E94D9
:103E3000230990917402892F97FB87F980586DCFE1
:103E400081E00E94260F80917402909175020E9479
:103E5000A50E0E94230980E0DF91CF91089580E0B4
:103E6000F0CF90917402892F8F7E94FF806155CF9F
:103E700090917402892F8E7F90FF81604ECF909138
:103E80007502892F877F93FF88604DCF81E0E4CF53
:103E9000282F35EB2303C001112497FF04C080585D
:103EA0009109892F089580589F4FFBCF809154022C
:103EB00080FF0DC060917E0070E0660F771F603854
:103EC000710570F56115710569F1862F089581FFFF
:103ED00007C060917E0084E0689FB0011124EFCF9D
:103EE00060917E0082FD0AC0809153028823A9F070
:103EF00020917D0060917E00821710F088E0ECCF69
:103F0000869FC001112433E0880F991F3A95E1F78D
:103F1000622F70E00E945928D2CF68E070E0D5CFC0
:103F20008FE7089581E008958091540280FF0CC0CE
:103F300060917A0070E07595679575956795611544
:103F4000710549F1862F089581FF06C060917A00BE
:103F500070E075956795F3CF60917A0082FD0BC094
:103F6000909152029923A1F06091790080917A009A
:103F7000961738F0682F70E06038710500F38FE70E
:103F80000895899FC001112470E00E945928F4CF40
:103F900061E070E0D7CF81E008958D3C31F40E945C
:103FA000561F81958093580208958E3C19F40E9403
:103FB000561FF8CF8F3C31F40E94561F8195809395
:103FC00057020895803D19F40E94561FF8CF893D8D
:103FD00029F40E94941F8093590208958A3D21F488
:103FE0000E94941F8195F7CF8B3D31F40E94941F5E
:103FF000819580935A0208958C3D19F40E94941F74
:10400000F8CF9FE2980F983070F4815D990B21E012
:1040100030E001C0220F8A95EAF780915602822B88
:104020008093560208958D3D31F480915402816051
:104030008093540208958E3D21F480915402826051
:10404000F7CF8F3DB9F7809154028460F1CF409152
:1040500057028D3C59F48091580287FF0DC0109291
:10406000580241110BC01092530208C08E3C81F4DB
:104070008091580218169CF3442381F080915902D4
:1040800090915A02892B09F05AC010925202089559
:104090008F3C49F447FFF0CF1092570280915802AD
:1040A0008111ECCFE0CF803D19F41416ACF3E4CFCE
:1040B00090915902893D29F41916F4F6109259028B
:1040C000DBCF8A3D19F497FFD7CFF8CF90915A02F2
:1040D0008B3D29F497FFD0CF10925A02CDCF8C3D63
:1040E00019F41916CCF3C8CF9FE2980F983090F4CA
:1040F000815D990B21E030E0B90102C0660F771FA6
:104100008A95E2F7CB01809590915602892380939E
:104110005602B2CF8D3D31F4809154028E7F809350
:104120005402AACF8E3D21F4809154028D7FF7CFA7
:104130008F3D09F0A1CF809154028B7FF0CF08957D
:104140000E94F1239C019091570280915802982B74
:1041500021F03093510220935002909159028091A6
:104160005A02982B21F030934F0220934E0285E59E
:1041700092E00E949122089586E0E5E5F2E0DF01F9
:104180001D928A95E9F710925302109252021092F2
:1041900054020895FC01828181110EC08381811136
:1041A0000BC08481811108C091E08581811101C01B
:1041B00090E0892F8170089581E0FCCFA6E0B0E007
:1041C000E4EEF0E20C94D52886E0E5E5F2E0DE01CD
:1041D000119601900D928A95E1F710925702109274
:1041E00058021092590210925A028B819C81892B9D
:1041F00089F080915002909151020E940924AC01F3
:10420000909153029923C9F180917F00841715067C
:1042100008F440C08D819E81892B91F080914E02DF
:1042200090914F020E940924AC019091520299236F
:1042300009F46AC080917B008417150608F472C0E7
:10424000BE016F5F7F4F85E592E00E94542381118C
:1042500005C085E592E00E94CA2081110E94A0203D
:1042600086E0FE013196A5E5B2E001900D928A95B7
:10427000E1F72696E3E00C94F128209180008AE093
:10428000289F900111242417350720F69F5F9093F3
:10429000530202C09F3FD1F71B81112359F00E94A6
:1042A000561F9FEF11160CF491E0899F802D112469
:1042B000809357021C81112359F00E94561F9FEFD3
:1042C00011160CF491E0899F802D112480935802DF
:1042D00080915702882309F49DCF10915802112331
:1042E00009F498CF0E94481F882351F08093570209
:1042F000812F0E94481F882329F0809358028ACF7B
:1043000081E0F4CF81E0F9CF20917C008AE0289F02
:10431000900111242417350708F092CF9F5F9093E6
:10432000520202C09F3FD1F71D81112359F00E9414
:10433000941F9FEF11160CF491E0899F802D11249A
:10434000809359021E81112359F00E94941F9FEF00
:1043500011160CF491E0899F802D112480935A024C
:1043600080915902882309F46BCF10915A021123CE
:1043700009F466CF0E94481F882351F080935902A8
:10438000812F0E94481F882329F080935A0258CF1A
:1043900081E0F4CF81E0F9CF0F931F93CF93DF93A8
:1043A000C42FD22FFC0185818823C9F040935D0280
:1043B0000E94F12390935C0280935B0280E28C0F59
:1043C000883040F4C77081E001C0880FCA95EAF7D1
:1043D0000E94D006DF91CF911F910F910895109107
:1043E0005D02141332C080915B0290915C020E94C6
:1043F0000924883C910548F5C0E2CD0F1D17B9F09E
:1044000080E2810F883040F4177081E001C0880F8E
:104410001A95EAF70E94D706C83048F481E09D2F2C
:10442000977001C0880F9A95EAF70E94D006802FF6
:104430000E94C706C83070F6D77081E001C0880FAF
:10444000DA95EAF70E94D706C5CF80E28C0F883054
:1044500008F6C77081E001C0880FCA95EAF7F2CF6D
:104460000F93DB0188519C4787309105A0F5FC0133
:10447000E059F54D0C948F2806E221EE41EE6AE1F9
:104480007CE7CD010E94CC2180E00F91089507E2E6
:1044900025EE45EE6BE17CE7F4CF06E221EE40EE3F
:1044A00068E17CE7EECF07E225EE44EE69E17CE7C8
:1044B000E8CF06E221EE42EE6CE17CE7E2CF07E2D4
:1044C00025EE46EE6DE17CE7DCCF08E221E045EE2B
:1044D0006EE17CE7D6CF15968C91882319F0109267
:1044E0005D02D3CF81E0D1CF9093630280936202CB
:1044F0000895E0916202F0916302309729F00190F3
:10450000F081E02D0995089580E00895E091620220
:10451000F0916302309721F00280F381E02D09953C
:104520000895E0916202F0916302309739F022E041
:10453000DC012C930680F781E02D09950895A3E016
:10454000B0E0E5EAF2E20C94D628209160023091C6
:10455000610228173907A1F09093610280936002ED
:10456000E0916202F0916302309751F023E02983D9
:104570009B838A830084F185E02DCE010196099505
:104580002396E2E00C94F228A3E0B0E0EAECF2E239
:104590000C94D62820915E0230915F0228173907CB
:1045A000A1F090935F0280935E02E0916202F0912D
:1045B0006302309751F024E029839B838A8300842F
:1045C000F185E02DCE01019609952396E2E00C9449
:1045D000F22840916400509165009A012E5F3F4F90
:1045E000485F5F4F80E02417350709F40895F9010B
:1045F00091919F019923B9F38F5FF5CF882371F0D3
:104600002091640030916500F9013296285F3F4F98
:104610009191981729F0E217F307D1F780E00895F8
:1046200081E008959C01FC0132969FEF80E041916A
:10463000461751F09F3F19F4411101C0982F8F5F29
:104640008630A9F79F3F09F40895290F311D97FD82
:104650003A95F90162830895FC01329608962191FA
:10466000261303C0DF0111971C92E817F907B9F769
:104670000895682F80916400909165000E94122334
:104680000895682F80916400909165000E942C230A
:104690000895E0916400F0916500329686E0DF01B4
:1046A0001D928A95E9F70895DC01FB0111969C9112
:1046B00011978181981322C012968C9112978823AA
:1046C00019F0928189131AC013968C91139788233D
:1046D00019F09381891312C015968C911597882330
:1046E00019F0958189130AC014969C91992321F0A1
:1046F00081E02481291303C080E001C081E0817042
:10470000089508950E948123089591E0811101C0C8
:1047100090E090938300609181007091820080917D
:104720008300909184000E948223089580918300E9
:104730000895809382006091810070918200809141
:104740008300909184000E948223089580918200CA
:104750000895809381006091810070918200809122
:104760008300909184000E948223089580918100AB
:104770000895089508950E94BA230895089508950C
:104780000E94B9230895CF930E94BE230E9436133E
:104790000E94BF23C0E08C2F0E946712892B31F446
:1047A000CF5FC830C1F780E0CF91089581E0FCCFA2
:1047B00084B7806884BF84B7806884BF089580917F
:1047C000660281110E94960508950E9423090E94A5
:1047D0009E0508958BE083BF8BEB8CBF82E089BF81
:1047E00008952FB7F8948091CF029091D002A091B4
:1047F000D102B091D2022FBF08952FB7F8946091E3
:10480000CF027091D0028091D1029091D2022FBF3D
:1048100008959C014FB7F8948091CF029091D002F7
:10482000A091D102B091D2024FBF821B930B089589
:1048300078941F921FB61F9211248F939F93AF936A
:10484000BF938091CF029091D002A091D102B091FC
:10485000D2020196A11DB11D8093CF029093D00288
:10486000A093D102B093D202BF91AF919F918F914B
:104870001F901FBE1F90189560E081E090E00E949D
:10488000F92988E19CE00FB6F894A89581BD0FBE88
:1048900091BDFFCF88E19CE00FB6F894A89581BD4B
:1048A0000FBE91BDFFCFEF92FF920F931F93CF9357
:1048B000DF93182FEB0116BE84EA86BF0E94F12316
:1048C0007C0106B607FE21C081B1887F883021F0C7
:1048D00081B1887F803169F513B984E886BF0E9471
:1048E000F1238C0106B607FE1DC021B1287F90E0A0
:1048F00080E0283191F081E090E0203411F490E0E4
:1049000080E091958195910908C0C7010E94092412
:10491000C817D907B0F68EEF9FEFCDB7DEB7E6E048
:104920000C94EE28C8010E940924C817D907D0F6B4
:10493000F2CF8FEF9FEFF1CF11B887E080B985B349
:10494000836085BB86B7846086BF86B7816086BF7B
:1049500086B7806486BF08950F931F93CF93DF932C
:10496000EB0183B984E886BF0E94F1238C0106B66F
:1049700007FE10C021B1287F81E090E0283211F4B9
:1049800090E080E0919581959109DF91CF911F9101
:104990000F910895CF3FDC0751F3C8010E9409240D
:1049A000C817D90720F78EEF9FEFEFCFB0E0A0E058
:1049B000ECEDF4E20C94CB28782E5B016A018901BE
:1049C0000E94F1234C01C1E0D0E00431110558F000
:1049D000C5E0D0E00F3F100731F0C80164E170E09E
:1049E0000E944528EB01BE01872D0E9453247C01C3
:1049F00097FF09C00F3F1007B1F3C4010E940924BB
:104A00000817190780F7E501CA0CDB1CCC15DD057A
:104A100011F0F7FE08C084E986BFC701CDB7DEB745
:104A2000EDE00C94E728B80189910E94AC247C0148
:104A3000EDCF8091FA02882369F01092FA020E9469
:104A4000F123909365028093640210926602809134
:104A500066020895809166028111F9CF8091640207
:104A6000909165020E940924069788F381E0809363
:104A70006602EDCF0E94F123909365028093640259
:104A800008950E940E288B9A80E0815019F48B982B
:104A900078940895A895E7EBFBE03197F1F700C013
:104AA0000000F3CF0E9418260E9474222FEB84EDA1
:104AB00091E0215080409040E1F700C0000008954F
:104AC000CF930E941925CCE0811120C0CF91089589
:104AD0000E94DF230E94C3238823C1F0F89491B37E
:104AE000939A892F8C6081BB82B38C2782BB2FE580
:104AF0003AEE80E0215030408040E1F700C00000F5
:104B000082B38C2782BB91BB939878940E9419251D
:104B10008111DECF0E94E523D9CF0E941E2780910C
:104B20000003882329F08091DE0284FD0E94B00FEB
:104B300008950895FF920F931F93CF93DF93D82F7B
:104B40008B01F42EC5E0D13039F0D33071F0CDB700
:104B5000DEB7E5E00C94EF288091DE0284FF0EC002
:104B60006F2DC8010E941427F2CF8091170384FF94
:104B700005C06F2DC8010E941927E9CF0E941E278A
:104B800087E99AE30197F1F700C00000C150D9F618
:104B9000DECFB0E0A0E0EFECF5E20C94D028E82EF8
:104BA0008B01EA016A0183E0D694C7948A95E1F704
:104BB000F12CFC141D0468F0C77031F04C2F50E04C
:104BC000B8018E2D0E949A25CDB7DEB7E8E00C948F
:104BD000EC2848E050E0B8018E2D0E949A25085F2D
:104BE0001F4FF394E6CF43E050E0BC0183E00E9406
:104BF000C925089546E050E0BC0183E00E94C92524
:104C00000895CF93DF93EC010E94962348E050E093
:104C1000BE0181E00E94C92588E0FE01ACE6B2E059
:104C200001900D928A95E1F7DF91CF910895089553
:104C300085E890E00895FC0180818076803241F41F
:104C400081818330C9F130F48130F1F0823041F15B
:104C500080E008958A30B9F18B30C9F18930C1F70D
:104C6000828193818115924069F484819581892B99
:104C700049F481E080936B028681978190936A0268
:104C8000809369028FEF089584819581892B01F7C4
:104C90008CE692E09093FC028093FB0288E00895FA
:104CA0000E94B6238093680288E692E09093FC020B
:104CB0008093FB0281E008950E949623809367020F
:104CC00087E692E0F3CF83810E94A923C1CF84813C
:104CD0009581892B09F0BCCF82810E948523B8CFB2
:104CE000CF932091690230916A02232B79F0C09111
:104CF0006B02C13059F4FC0180810E94992310920B
:104D00006A02109269028C2FCF910895CFEFFBCFEA
:104D10000895FC019381933051F130F49130B9F052
:104D20009230E9F080E008959132D9F19232D1F7D2
:104D300084819581009709F446C0019799F78BEE1D
:104D400094E09093FC028093FB028BE7089589EB3B
:104D500094E09093FC028093FB0282E108958EE739
:104D600094E09093FC028093FB028BE30895828190
:104D7000813079F0882329F08230A1F68BEC94E021
:104D80000AC087EE94E09093FC028093FB0284E0DB
:104D9000089589ED94E09093FC028093FB028CE0EF
:104DA000089584819581009731F0019709F0BACF79
:104DB00089EA94E002C080E994E09093FC02809339
:104DC000FB0289E0089586E695E09093FC028093CB
:104DD000FB0284E408951F93CF93DF93E82F792F8C
:104DE000162FEA01888184FF1CC0298188E82827C2
:104DF0002983CE010296DC012E2F372F512F5E0F13
:104E0000F90121912D939F01452F4E1B1416C4F3D8
:104E1000612F0E9409031C5F1883DF91CF911F91BE
:104E200008958AE58883E5CF4EED52E00E94EB2697
:104E3000089547E153E00E94EB260895CF93DF9356
:104E40006091FD02635067FD12C08091F902CCE0D1
:104E5000D0E0C81BD109CF5FDC4F8091F8028031D0
:104E600008F054C0CE010E9488261092FD02809165
:104E7000900084FF3EC080918F008F3FD1F1C82FFA
:104E8000893008F0C8E0982F9C1B90938F00909178
:104E9000D30228E892279093D3028823E9F08091E7
:104EA000FB029091FC022091F70226FFAEC0FC01AC
:104EB0002C2FA4EDB2E034913D9331962150D9F7D7
:104EC0009C012F5F3F4F8FEF8C0F820F932F911D0F
:104ED0009093FC028093FB026C2F84ED92E00E9481
:104EE0000903CC5FCC3019F08FEF80938F00C09313
:104EF000900084E190B39C7031F48150D9F7109206
:104F0000FE021092F602DF91CF9108958D3209F0E2
:104F100069C0683009F0A9CF83EC8093D3028AE599
:104F2000809390001092F7028881807671F0CE0114
:104F30000E941B268F3FC1F4988197FD8E8190E8D7
:104F40009093F70280938F0090CF2A811092DC0219
:104F50009981911111C01092DD022CED32E082E0B6
:104F60003093FC022093FB029F819111EBCF9E8135
:104F7000981740F7892FE6CF953029F42093FE0249
:104F80002CED32E0EDCF963099F49B81913021F4F5
:104F9000CE010E94892608C09230D1F39330C1F32C
:104FA0009132B1F39232A1F390E49093F702C2CF21
:104FB000983089F0993019F420930003E1CF9A30AA
:104FC00071F09B30E9F69BE49093DF029093180315
:104FD0009093EB02D5CF20E033E081E0C1CF2CED00
:104FE00032E0FBCF8091F70287FF3FCFCE010E94D6
:104FF00070268F3F21F48EE18093900036CF882376
:1050000009F433CF10928F0030CFDC012C2FE4ED68
:10501000F2E03D9131932150E1F752CFCF93DF93EE
:1050200085B7886085BF8BB780688BBFCEEDD2E037
:105030008BE48983A7E1B3E011968C931197EAEE94
:10504000F2E081838AE588838C938083DF91CF911E
:105050000895DB018F939F930E94B328BF91AF9176
:10506000A29F800D911DA39F900DB29F900D1124C2
:105070000895991B79E004C0991F961708F0961BB4
:10508000881F7A95C9F780950895AA1BBB1B51E12B
:1050900007C0AA1FBB1FA617B70710F0A61BB70BA8
:1050A000881F991F5A95A9F780959095BC01CD014D
:1050B000089597FB072E16F4009407D077FD09D0CA
:1050C0000E94452807FC05D03EF4909581959F4F9E
:1050D0000895709561957F4F0895A1E21A2EAA1B3D
:1050E000BB1BFD010DC0AA1FBB1FEE1FFF1FA21798
:1050F000B307E407F50720F0A21BB30BE40BF50B95
:10510000661F771F881F991F1A9469F7609570951D
:10511000809590959B01AC01BD01CF010895EE0FE4
:10512000FF1F0590F491E02D09940E949D283323E0
:1051300012F48A1B9B0B0C94AE28A29FB001B39F64
:10514000C001A39F700D811D1124911DB29F700D90
:10515000811D1124911D08950E949D28B7FF089577
:10516000821B930B08950E949D28A59F900DB49FCC
:10517000900DA49F800D911D11240895B7FF0C94EC
:10518000B3280E94B328821B930B08952F923F925D
:105190004F925F926F927F928F929F92AF92BF9247
:1051A000CF92DF92EF92FF920F931F93CF93DF93F3
:1051B000CDB7DEB7CA1BDB0B0FB6F894DEBF0FBE50
:1051C000CDBF09942A88398848885F846E847D849D
:1051D0008C849B84AA84B984C884DF80EE80FD809F
:1051E0000C811B81AA81B981CE0FD11D0FB6F89415
:1051F000DEBF0FBECDBFED010895002E083090F048
:10520000982F872F762F652F542F432F322F222749
:105210000850F4CF220F331F441F551F661F771FFE
:10522000881F991F0A95B2F7002D089597FD1094D5
:10523000002E083098F00850232F342F452F562F7A
:10524000672F782F892F912DF4CF159497958795F7
:105250007795679557954795379527950A95AAF7B6
:105260001124002D08958F929F92AF92BF92CF92FA
:10527000DF92EF92FF92CF93DF93EC016881798107
:105280008A819B81611571058105910521F464E294
:1052900079ED8BE597E02DE133EF41E050E00E949E
:1052A000162A49015A019B01AC01A7EAB1E40E9408
:1052B000B3286B017C01ACEEB4EFA50194010E9410
:1052C000C128DC01CB018C0D9D1DAE1DBF1DB7FF9C
:1052D00003C00197A109B04888839983AA83BB833F
:1052E0009F77DF91CF91FF90EF90DF90CF90BF90AD
:1052F000AF909F908F9008950E943329089580E683
:1053000090E00E9433290895B0E0A0E0809360000F
:1053100090936100A0936200B09363000895FC0134
:105320004150504030F001900616D1F73197CF012F
:105330000895882799270895FB01DC0104C08D9109
:105340000190801921F441505040C8F7881B990BF7
:105350000895FB01DC0102C001900D9241505040C4
:10536000D8F70895E199FECF9FBB8EBBE09A9927AD
:105370008DB30895A6E1B0E044E050E00C94082A13
:10538000A8E1B0E042E050E00C94082ADC01A40F50
:10539000B51F4150504048F0CB01840F951F2E910E
:1053A0000E94D72941505040D0F70895262FE19907
:1053B000FECF9FBB8EBBE09A01970DB2021631F073
:1053C0002DBB0FB6F894E29AE19A0FBE08950396AA
:1053D000272F0E94D7290E94D629252F0E94D7293E
:1053E000242F0C94D7290196272F0E94D7290C949B
:1053F000D629262FE199FECF9FBB8EBB2DBB0FB6C2
:10540000F894E29AE19A0FBE01960895DC01CB016F
:10541000FC01E199FECF06C0FFBBEEBBE09A3196DE
:105420000DB20D9241505040B8F70895052E97FBEC
:105430001EF400940E942D2A57FD07D00E946D286B
:1054400007FC03D04EF40C942D2A509540953095CE
:1054500021953F4F4F4F5F4F0895909580957095E0
:1054600061957F4F8F4F9F4F0895F894FFCF1F078F
:105470001F076F076F07D407F0074E074E07F507A2
:10548000660875087508DD13E513EA13EF13F413C6
:10549000F913FE13031408140D141214C41E381F3C
:1054A000CC1E961E9A1ED01E9E1ED41EE01EAA1E44
:1054B000311FAE1EE41EB21EE81E101FB61EEC1EEB
:1054C000171FBC1EF21EFA1EA21ED81EA61EDC1E30
:1054D000C01EF61E061F201F2F1F901EC81E3F1F36
:0E54E0004D2253223C22472259225F22652290
:1054EE0001000000C6010101020010001010011998
:1054FE001A1B1C1D1E1F202122280850011E0A14D3
:10550E000100000100A62301261726FA25F325FF28
:10551E005AE200E900EA00B500B600B700CD0083FC
:10552E0001CC008A0192019401210223022402255A
:10553E0002260227022A02B300B4006F0070009FF9
:10554E0001CB019F02A002818283E200E900EA0002
:10555E00B500B600B700CD008301CC008A019201E0
:10556E0094012102230224022502260227022A0286
:10557E00B300B4006F0070009F01CB019F02A00228
:10558E008182839091929394959697373635606188
:10559E00626364656667000102020202060606097E
:1055AE0009090909090F0F0F0F0F0F1515151819F6
:1055BE0019191919191919191923242525252525FC
:0A55CE0025D31CD61CE11CEC1C00C8
:00000001FF
