:100000000C9403020C943B020C943B020C943B02B4
:100010000C943B020C943B020C943B020C943B026C
:100020000C943B020C943B020C94191E0C94ED1E94
:100030000C9442190C943B020C943B020C943B022E
:100040000C943B020C943B020C943B020C943B023C
:100050000C943B020C94BA190C943B020C943B0296
:100060000C943B020C943B020C943B020C943B021C
:100070000C943B020C943B020C943B020C943B020C
:100080000C943B020C943B020C943B020C943B02FC
:100090000C943B020C943B020C943B020C943B02EC
:1000A0000C943B020C943B020C943B024F68206D75
:1000B0007920474F4444442121210A004865792092
:1000C0004E7574696E6120486579477579730A00C9
:1000D00053756273637269626520746F205368613F
:1000E0006E646F6E436F646573204B617070610A5C
:1000F0000029001E001F00200021002200230024F0
:10010000002500260027002D002E002A002B0014B9
:10011000001A000800150017001C0018000C00123F
:100120000013002F003000310039000400160007D2
:100130000009000A000B000D000E000F0033003410
:100140000028000000E1001D001B0006001900054A
:10015000001100100036003700E5005200380000A2
:1001600000E000E300E200000000002C00000000BE
:1001700000E6002152500051004F00000035003AC7
:10018000003B003C003D003E003F0040004100427B
:10019000004300440045004C000000000000000047
:1001A00000007C00000000000000000000000000D3
:1001B000000000000000000000407E0000427E00C1
:1001C000000000000000000000000000000000002F
:1001D00000000000000000000000000000417E0060
:1001E000000000000000000000000000000000000F
:1001F00000000000000000000000000000000000FF
:1002000000000000000000000000000000000000EE
:10021000002A2B2800000000000000000000000061
:100220000000000029000000002C1E3420212224A0
:10023000342627252E362D3738271E1F202122232E
:100240002425263333362E37381F040506070809C0
:100250000A0B0C0D0E0F1011121314151617181986
:100260001A1B1C1D2F3130232D35040506070809E4
:100270000A0B0C0D0E0F1011121314151617181966
:100280001A1B1C1D2F3130354C00000000000000EF
:10029000000000000000000000000000000000005E
:1002A000000000000000000000000000007E0F00C1
:1002B000D4FFFFFFC7000000781E0346006C0079E2
:1002C0000067006F006E00650036003000200052AD
:1002D0000065007600330000001A035300680061D7
:1002E000006E0064006F006E0043006F00640065E4
:1002F00000730000000403090409023B000201002E
:10030000A0FA090400000103010100092111010004
:1003100001224400070581030800010904010001CE
:1003200003000000092111010001227B0007058262
:10033000032000011201000200000008777801008C
:1003400003000102000105010902A1018502090162
:10035000A100050919012908150025019508750155
:1003600081020501093009311581257F9502750843
:10037000810609381581257F950175088106050CD0
:100380000A38021581257F950175088106C0C005D0
:10039000010980A101850319012AB700150126B7BB
:1003A00000950175108100C0050C0901A1018504AB
:1003B00019012AA002150126A002950175108100DD
:1003C000C005010906A101050719E029E715002567
:1003D00001950875018102950175088101050719CC
:1003E0000029FF150026FF00950675088100050805
:1003F0001901290515002501950575019102950141
:1004000075039101C00011241FBECFEFDAE0DEBFFB
:10041000CDBF04B603FE18C0809183029091840280
:10042000A0918502B09186028730904BA740B04BD7
:1004300059F4109283021092840210928502109255
:100440008602E0E0F8E3099511E0A0E0B1E0E4E421
:10045000F3E402C005900D92AE39B107D9F722E05E
:10046000AEE9B1E001C01D92A338B207E1F70E94E6
:10047000F9110C9461210C940000FB0181342EE7EA
:10048000920789F082342EE79207A1F080349E47CC
:10049000C1F485818823B1F060E080ED90E00E9496
:1004A000DA1680E008958581882361F060E08CEBA6
:1004B00090E0F5CF8581882329F060E08CEA90E018
:1004C000EECF81E008958230B8F46530A8F44E3064
:1004D00098F450E09EE0699F400D511D1124FA01EF
:1004E00096E4899FE00DF11D1124EE0FFF1FEF50E0
:1004F000FF4F85919491089581E090E008950E94C6
:100500006302089581E008950E948202089581E0C7
:1005100008950E943D02089508950E948C02089556
:10052000A6E0B0E0E6E9F2E00C94BD2049835A83EE
:100530009E833091A50189819A8131111AC03E8133
:10054000332399F0222389F00E94AF08182F682FD7
:1005500089819A810E948B0869817A81812F0E940A
:10056000920F2696E3E00C94D9200E949D08182F44
:10057000F3CF0E94AF0869817A81F1CFFC01262F69
:100580004081518162817381848195810E949002B2
:100590000895CF93DF93EC0161E00E94BE02BE019B
:1005A0000E948402DF91CF910895CF93DF93EC01F5
:1005B00060E00E94BE02BE010E948D02DF91CF91D9
:1005C000089521E030E0A90102C0440F551F8A952B
:1005D000E2F7CA010E94AD070895CF93C82F81E0CA
:1005E00090E00C2E02C0880F991F0A94E2F70E9437
:1005F000EB0C8C2F0E94E102CF91089581E00895C9
:100600000E94FE020895CF93C82F0E9460078C2F8E
:100610000E9400032FEF84E39CE021508040904033
:10062000E1F700C00000CF91089581E00E9403032C
:100630000E94DE19089580E00E9403030E94021ABE
:1006400008950F931F93CF93DF938C0161E00E9475
:10065000BE02EC01B8010E948902811106C080E04F
:10066000DF91CF911F910F910895B801CE010E94A3
:1006700052178823A1F3B801CE010E945E1288238D
:1006800071F3B801CE010E943412882341F3B801FE
:10069000CE010E949610882311F3F80185818823EA
:1006A00061F0C330FCE7DF07E9F058F4C115ECE76F
:1006B000DE07A9F0C130DC47B9F0C8010E9487020B
:1006C000CFCFCB358CE7D807A9F0CC35ECE7DE07E8
:1006D00071F0CA35DC4789F70E94C60CEECF0E9444
:1006E0001503BDCF0E94CE0C0E941B03B8CF0E9401
:1006F000BC0CE3CF0E94CA0CE0CF0E9414190E94E8
:100700009D0308950E94A1030E941919089581E094
:1007100008950895CF93DF93D82F0E948703C82FA1
:10072000882319F08D2F0E9489038C2FDF91CF91A0
:10073000089508950E948A03089580E00E949A0314
:1007400008950E949B170E949A030895CF930E94D8
:100750009B17C82F8091A0018C1779F0C093A0013E
:100760000E94AE196093A1017093A2018093A3012E
:100770009093A4018C2F0E949A03CF910895ADE02D
:10078000B0E0E5ECF3E00C94BE20488759876A8717
:100790007B878C879D8791110E94FC0B1F8286E0CE
:1007A000FE013896DE01119601900D928A95E1F7CF
:1007B0008D8181110DC029813A814B815C816D81D0
:1007C0007E818F810E94460B2D96E2E00C94DA2008
:1007D000CE0101960E94C9028111EDCFF5CFFC0137
:1007E0002481213021F4808191810E94E1080895C3
:1007F000662329F00E94BF130E94921408950E945C
:100800001914FACFCF93C82F8823C9F08238C9F4BE
:100810000E94A81781FD13C089E30E945E180E9400
:100820006B0C2FEF87EE93E0215080409040E1F772
:1008300000C0000089E30E9466180E946B0CCF91F3
:1008400008958338A1F40E94A81780FDF8CF83E5AE
:100850000E945E180E946B0C2FEF81EE94E02150F5
:1008600080409040E1F700C0000083E5E4CF843889
:10087000A1F40E94A81782FDE2CF87E40E945E18CF
:100880000E946B0C2FEF81EE94E02150804090404D
:10089000E1F700C0000087E4CECF8CEF8C0F813AE7
:1008A00070F48C2F0E942318882329F08C2F0E942B
:1008B00066180E946B0C8C2F0E945E18BECF80E2DF
:1008C0008C0F883048F4C77081E001C0880FCA954A
:1008D000EAF70E94DF0BB1CFEBE5EC0FE33040F419
:1008E000F0E0E25BFE4F808190E00E94C417A7CF4A
:1008F000E8E5EC0FEB3150F4F0E0EE0FFF1FE85E9F
:10090000FE4F808191810E94E91799CF83E38C0F7C
:10091000833108F094CF61E08C2F0E94F8038FCFD1
:10092000882309F456C0823879F40E94A81781FF01
:1009300050C089E30E945E180E946B0C89E30E94FC
:1009400066180E946B0C0895833859F40E94A8170A
:1009500080FF3FC083E50E945E180E946B0C83E518
:10096000EECF843859F40E94A81782FF32C087E482
:100970000E945E180E946B0C87E4E1CF9CEF980FF9
:10098000913AE8F290E2980F983050F4877091E035
:1009900001C0990F8A95EAF7892F0E94E50BD1CF04
:1009A0009BE5980F933028F490E080E00E94C417F4
:1009B000089598E5980F9B3128F490E080E00E941C
:1009C000E917089593E3980F933118F460E00E94BB
:1009D000F80308951F93CF93DF93182FEB010E9424
:1009E0000204209739F4812F0E949004DF91CF9167
:1009F0001F9108958FE99FE00197F1F700C0000073
:100A00002197EFCF70E060E0893311F460E570E08A
:100A10000E94EA040895882321F00E94DF0B0E94BF
:100A20006B0C0895882321F00E94E50B0E946B0C4B
:100A30000895B0E0A0E0EFE1F5E00C94B7206C0180
:100A4000D62FC72FFC011581068102950F700E94D9
:100A5000D50BE82E8823F9F0E12E1123E1F08C2F3D
:100A6000807F803461F080E28D0F883008F18C2F18
:100A7000807E803221F4D230D8F00023C9F08091FA
:100A80005D0282FF15C082E00E94900C0E94D50B8F
:100A900091E0E82EE926BC2EB2949FE0B922FBE05B
:100AA000FB15B8F1EB2DF0E0ED59FE4D0C94A820AC
:100AB000E12CF1CF0C2F0F70C07F11F00295007F59
:100AC000112399F0002359F080E28D0F883010F047
:100AD000D11107C0802F0E94DF0B0E946B0C8D2F5D
:100AE00048C0802F0E94EF0BF8CF8D2F0E949004FA
:100AF000002379F080E28D0F883010F0D11104C00E
:100B0000802F0E94E50B03C0802F0E94F50B0E94EE
:100B10006B0CEB2DE850FF0B349708F06BC10E9473
:100B20009B170E949A03CDB7DEB7E9E00C94D3205F
:100B30002C2F2F70F22EC07FC03219F0F29480EF6C
:100B4000F822DD2341F0D130C9F1112309F443C06B
:100B50000023E9F0C4CF80915D0282FD14C011230F
:100B600059F0FF2029F08F2D0E94DF0B0E946B0CA3
:100B700080E00E940204CDCF80E00E949004FF201C
:100B800041F28F2DBECF112369F0011104C08F2DCA
:100B90000E940B05BECF013009F0BBCF8F2D0E9404
:100BA000130CB7CF0111B5CF8F2D0E9412058F2DD9
:100BB0000E941F0C8F2D0E94030CABCF112321F03C
:100BC000063008F0A6CFE3CF053008F0A2CF8F2D76
:100BD0000E9412059ECF0023D1F3D93349F43FEF91
:100BE00087EE93E0315080409040E1F700C0000074
:100BF0008D2F0E9490048DCF8C2F869586958370C3
:100C000069F0813009F085CF8D2F9C2F93701111E1
:100C100002C080E090E00E94E9177BCF8D2F9C2FCF
:100C20009370111102C080E090E00E94C41771CF50
:100C3000612F8D2F0E94F8036CCF8C2F8370A1F54C
:100C4000111167CF4D2F429546954770440F440FC1
:100C50002D2F2F7030E0042E02C0220F331F0A9474
:100C6000E2F790E080E0D4FF09C08FE090E002C09E
:100C7000880F991F4A95E2F780959095C695C6957D
:100C8000C370822B932BC23049F058F4C13019F055
:100C90000E94B9073ECF0E94B0073BCF0E94C20717
:100CA00038CF0E94AD0735CF8695112311F08C2FD8
:100CB0008170882309F42DCF4D2F429546954770BA
:100CC000440F440F2D2F2F7030E0042E02C0220F4E
:100CD000331F0A94E2F790E080E0D4FF09C08FE070
:100CE00090E002C0880F991F4A95E2F78095909591
:100CF000C695C695C370822B932BC23049F058F429
:100D0000C13019F00E94240804CF0E941B0801CFB3
:100D10000E942D08FECE0E94D107FBCECF7011237A
:100D200029F08C2F0E94E9078D2F32CF8D2F0E9442
:100D300012058C2F0E94F907ECCED23F41F160F4EE
:100D4000D03FB9F0D13F81F0112309F443C0011124
:100D5000C6CE8C2F8F711FC0D33F01F1D43FA1F7B6
:100D600080915D0282FD24C08C2F8F71112311F3BD
:100D700012C0112341F0053008F0CBCE8C2F8F71BB
:100D80000E940B08C6CE063008F0C3CEF7CF8C2FDA
:100D90008F711111CFCF0E94E907BBCE112329F02B
:100DA0008C2F8F710E94DD07B4CE0E94D807B1CE80
:100DB000112331F063E08C2F8F710E94720CA9CE49
:100DC00081E00E94900C023008F4A3CE82E00E94E1
:100DD000900C9FCE002359F0D93309F009CFEFEFE3
:100DE000F7EE23E0E150F0402040E1F7FFCE8C2FFA
:100DF0008F71A0CFEE2009F496CE0E94D10B80FD1A
:100E000092CEF60115820E94CB0B0E94E907C60123
:100E10000E9427070E94CB0B0E94F90784CE0F93F4
:100E20001F93CF93DF93EC01688179818D810E94BC
:100E3000EC088C010E9436080E94AC07B801CE0174
:100E40000E941905DF91CF911F910F910895CF93C3
:100E5000DF93EC018C81882399F0CE010E9421035D
:100E6000811111C00E94D50B882351F08D818823F8
:100E700039F080915D0282FF03C082E00E94900CF5
:100E8000DF91CF910895CE010E940F07CE010E94FD
:100E9000D502F6CF90E080E00E94C41790E080E099
:100EA0000E94E9170E94FC0B0E946B0C0E94AE147A
:100EB0000E94921408950E946E180E944A07089595
:100EC0000E94EC0B0E945B07089592959F709630EC
:100ED00091F058F4925F9F70923058F4803F19F06F
:100EE00030F4883E30F481E008959A5FF4CF843F77
:100EF000D1F380E00895883EB0F3813FD1F7F3CF7E
:100F0000FC012481222339F0808191810E94E10833
:100F10000E946507089580E00895A6E0B0E0E3E947
:100F2000F7E00C94BE202696E2E00C94DA20A7E0CD
:100F3000B0E0EDE9F7E00C94BE202796E2E00C94D7
:100F4000DA2008950E94A10708950E94A2079093B5
:100F5000CD018093CC01089508950E94A5070895BE
:100F60002091CC013091CD01822B932B0E94A507BB
:100F700008952091CC013091CD01822393230E94CA
:100F8000A50708952091CC013091CD0182279327A8
:100F90000E94A50708950E94A10708950E94CB070B
:100FA00008950E94CE079093CB018093CA010895C3
:100FB00090E080E00E94D107089521E030E0A9018F
:100FC00002C0440F551F8A95E2F7CA010E94D1075B
:100FD000089521E030E002C0220F331F8A95E2F726
:100FE0008091CA019091CB01822B932B0E94D10753
:100FF000089521E030E002C0220F331F8A95E2F706
:10100000209530958091CA019091CB018223932342
:101010000E94D107089521E030E002C0220F331F63
:101020008A95E2F78091CA019091CB01822793279C
:101030000E94D10708952091CA013091CB01822BE3
:10104000932B0E94D10708952091CA013091CB01C2
:10105000822393230E94D10708952091CA013091E1
:10106000CB01822793270E94D10708950895262F48
:10107000277091E001C0990F2A95EAF723E0769551
:1010800067952A95E1F7660F771F660F771FFA01BC
:10109000E60FF71F50E040E0682F70E08191DF011C
:1010A00011979B01042E02C0369527950A94E2F70A
:1010B000217021952827292328272C934F5F5F4FE4
:1010C0004430510559F70895A82FA77023E096954D
:1010D00087952A95E1F7880F991F880F991FFB01C3
:1010E000E80FF91F50E040E080E0219130E00A2E47
:1010F00002C0369527950A94E2F721703327042E13
:1011000001C0220F0A94EAF7822B4F5F5F4F4430F1
:10111000510559F70895262F953070F48E3060F4FC
:10112000682F70E08EE0989F600D711D112446EAD3
:1011300051E0822F0E9437080895292F953068F4D6
:101140008E3058F490E066EA71E03EE0239F800D17
:10115000911D11240E946408089580E00895B0E074
:10116000A0E0E5EBF8E00C94B7207C010091CA0107
:101170001091CB018091CC019091CD01082B192BBE
:10118000CFE0D0E0CC24C394D12CBC2EC6010C2ED1
:1011900002C0880F991F0A94E2F780239123892BBC
:1011A00049F4219790F7B12C8B2DCDB7DEB7E9E04C
:1011B0000C94D320B7018C2F0E949E0F019789F3C6
:1011C000F3CFCF93DF93EC010E94AF08BE010E94E2
:1011D0009E0FDF91CF9108951F93CF93DF93EB0183
:1011E0009091A501992339F0CB010E94E108DF918C
:1011F000CF911F910895882369F0CB010E94AF0819
:10120000182F682FCE010E948B08BE01812F0E94EB
:101210009E0FEDCFCB010E949D08182FF6CF1F9394
:10122000CF93DF93C091CE0117E08091CF018C1353
:1012300004C0DF91CF911F910895D0E01C9FF00171
:101240001D9FF00D1124E053FE4F2081318142811A
:1012500053816481758186810E9497072196C770AA
:10126000E4CF209108023091090240910A02509186
:101270000B0260910C0270910D0280910E020E948F
:1012800097070895CF93DF9380910E02807F09F036
:101290004DC080910D02882309F448C0E091CE0131
:1012A0005091CF01C0910902D091080260910A02C9
:1012B00070910B0247E05E17C9F18E2F90E0E49F1A
:1012C000F0011124E053FE4F2481222391F1489F25
:1012D000F001499FF00D1124DF01A053BE4F11967C
:1012E0002C9111972C1325C02C912D1322C01596EB
:1012F0002C91159721111DC012962D913C91261B02
:10130000370B283C3105A8F480910E028F70806164
:1013100080930E02EA52FE4F80818F70806180833D
:1013200088E092E00E9427070E940F09DF91CF9189
:101330000895FC013196E770BECF482F2091CE0171
:101340009091CF0157E0291302C080E0089530E06A
:10135000529FF001539FF00D1124E053FE4F818105
:10136000681306C08081481303C085818111EECFC8
:101370002F5F3F4F2770E7CFA4E1B0E0E2ECF9E048
:101380000C94B4208C0186E0F801DE011F960190D8
:101390000D928A95E1F7F8018481E58098E0A92E05
:1013A00092E0B92E90910C0291111FC08823D1F0C8
:1013B000EE20A9F0C8010E948007F82E882379F05A
:1013C00087E0F801D50101900D928A95E1F7C501FA
:1013D0000E94EF030E9442090E9431095FC0C801C8
:1013E0000E942707FF24F39459C0C080D1808280D7
:1013F0009380F0900D0220910A0230910B02A4011B
:10140000421B530BFF2009F4F9C0483C510508F07A
:10141000A7C0882309F442C09091090280910E026E
:10142000282F207F09F05CC09D1116C09091080202
:10143000C91212C0E1104EC08F70806180930E02FD
:101440000E94310988E092E00E94270780910E02F5
:10145000F8018683F12C22C0E1103CC06D2D8C2D4B
:101460000E949D096D2D8C2D0E949D09E82E8111F1
:10147000F1CFCF86D88A8F8598890E94E108292FDD
:1014800022952F70243078F49F702230A8F0992391
:10149000B9F0F8019681907F99F4FE2C8F2D649617
:1014A000ECE00C94D0202A5F2F70223068F0C80145
:1014B0000E942707EF2CF1CF992311F0882369F3BD
:1014C000805E883050F3F3CF803F38F3815F833004
:1014D00070F7E3CF80910E02816080930E02BACF45
:1014E0009D1113C090910802C9120FC0E1100DC0E8
:1014F0008683C8010E94270787E0F801A8E0B2E0D0
:1015000001900D928A95E1F767CFC8010E9480078C
:10151000882309F464CFEE2009F461CF80910E0294
:10152000803288F02091080230910902398728879B
:101530009B868A8690910C029C871D868E87CE01A1
:1015400008960E94270787E0F801A8E0B2E0019022
:101550000D928A95E1F70E9442090E94310942CF1B
:1015600090910E02292F207FA1F4682D9A8A898AF2
:10157000A6017A899E2D0E948D0788E092E00E9444
:10158000270787E0F50111928A95E9F70E94310952
:1015900061CF882309F482CF809109028D1110C098
:1015A00080910802C8120CC0E1100AC09683C801DD
:1015B0000E94270787E0F50111928A95E9F76ECF1F
:1015C000C8010E948007882309F409CFEE2009F49E
:1015D00006CF80910E02803208F4B5CF2091080228
:1015E000309109023A8329839C828B8290910C026C
:1015F0009D831E828F83CE010196A3CF483C510567
:10160000B8F5882309F4EECEFE2CEE2009F4E7CEDF
:10161000809109028D111EC080910802C8121AC063
:1016200080910E0280FD0DC0982F907F51F086832F
:10163000903F09F45ECF982F907F905F8F70892B39
:1016400057CF87E0F801A8E0B2E001900D928A95AB
:10165000E1F724CFC8010E948007811174CF8091E7
:101660000E02816080930E02C8010E94270716CFE8
:10167000682D9A8A898AA6017A899E2D0E948D07F3
:1016800087E0F50111928A95E9F7A6CEAEE0B0E0C9
:10169000ECE4FBE00C94BD20288739874A875B8700
:1016A0006C877D878E87CE0108960E94BC098823AF
:1016B000B1F06C85662341F0288539854A855B85C4
:1016C0007D858E850E94970717E08091CE019091CD
:1016D000CF0189133DC02E96E3E00C94D92087E01A
:1016E000FE013896DE01119601900D928A95E1F780
:1016F0008C85882349F32091CF0130E0C901019600
:10170000877099274091CE014817190699F097E004
:10171000929FD001939FB00D1124A053BE4FFE01A4
:10172000319601900D929A95E1F78093CF010E9436
:101730000F09CACF0E9460071092CF011092CE010C
:1017400087E0E8E0F2E0DF011D928A95E9F7BCCF7F
:10175000819FC001112480539E4F0E94BC098823A1
:1017600009F4B9CFE091CE011E9FF0011124E0539E
:10177000FE4F208131814281538164817581868150
:101780000E9497078091CE0190E00196877099277B
:101790008093CE019ACF8091170286958695869583
:1017A000089580911702877008959091170297709D
:1017B00081E009F480E008958091230208959091DA
:1017C0002302892B80932302089580959091230210
:1017D00098239093230208951092230208959091E4
:1017E0002202892B809322020895809590912202F3
:1017F000982390932202089510922202089508954A
:101800000E94FF0B089590911802292F282331F090
:1018100080958923809318020E94000C08950895F2
:101820000E940F0C089590911902292F2823281740
:1018300029F0982B909319020E94100C0895909112
:101840001902292F282331F08095892380931902CA
:101850000E94100C089580911902882329F010929B
:10186000190280E00E94100C08950F931F93CF93EC
:10187000DF930091000110910101C091230280913A
:101880002202C82B80911902882331F0C82B0E94B4
:101890000E1881110E942B0CF801C083C091000129
:1018A000D091010148E050E06FE072E0CE010E946B
:1018B000F920892B59F088E0FE01AFE0B2E00190F9
:1018C0000D928A95E1F7CE010E94AB17DF91CF917F
:1018D0001F910F9108950E94350C089508950E945C
:1018E0006E0C089590915D0292FF11C098E0899F5F
:1018F00090011124622B609317020E94E9078091E6
:1019000017028695869586950E946F0C08950E9411
:10191000E90708951092170280E00E946F0C089565
:10192000909117028095892380931702282F2770A2
:1019300069F4891759F090915D0292FF07C086956E
:10194000869586950E94F9070E948A0C08959091C9
:101950005D0292FB222720F9281769F080FB92F99B
:1019600090935D0280915C0290915D020E94F60C62
:1019700082E00E94900C089580915D0282FB88278E
:1019800080F991E089270E94A70C089581E00E94C8
:10199000A70C089580E00E94A70C08956FEF7FEFD9
:1019A00090E080E00E944B21089590E080E00E944A
:1019B000172121E0853E9E4F09F020E0822F0895F7
:1019C00082E090E00E940F21089583E090E00E9461
:1019D0000F2190E00895682F83E090E00E942D2170
:1019E000089584E090E00E9417210895BC0184E0EE
:1019F00090E00E944B210895AB01BC018FE090E084
:101A00000E943F210895AB01BC0183E190E00E9458
:101A10003F21089560E070E0CB010E94030D08951E
:101A200060E070E0CB010E94FC0C0E940A0D08955A
:101A3000A8E0B0E0EEE1FDE00C94BE2065EE7EEFA4
:101A400090E080E00E944B2160E082E090E00E9404
:101A50002D2181E090E09093CD018093CC010E94F4
:101A6000EB0C60E074E184E090E00E944B2160E0C8
:101A700086E090E00E942D2160E087E090E00E94E7
:101A80002D2140E050E0BA0188E090E00E943F2123
:101A900060E083E290E00E942D2160E08CE090E025
:101AA0000E942D2160E08DE090E00E942D2119829E
:101AB0001A821B821C821D821E821F82188648E0A9
:101AC00050E067E170E0CE0101960E941D2140E0E8
:101AD00050E0BA018FE190E00E943F210E94100D7A
:101AE0002896E2E00C94DA200E94180D0895682FE1
:101AF0008EE090E00E942D210895A6E0B0E0E3E89A
:101B0000FDE00C94BC200E94A2198C01809124025B
:101B1000909125028017910781F019821A820E9404
:101B2000A219682F49815A81792F80E090E00E94A4
:101B3000BF0310932502009324022696E4E00C9440
:101B4000D8200E94AE1960933402709335028093BE
:101B50003602909337026093300270933102809383
:101B60003202909333020895089508950E94B40DAF
:101B7000089508950E94B90D089584E990E10E94A6
:101B80000E120E94B50D0E94B60D089581E00895D1
:101B90000E94C60D08950E94C60D089508950895E7
:101BA0000E94CE0D0E94CF0D08950E94D50C811188
:101BB00002C00E94740D0E94E00C809338020E94C3
:101BC000F10C90935D0280935C020E9431120E949E
:101BD000E50C0E94AD078091CA019091CB010E9453
:101BE000CE0708950E9499190E9469110E94D50D8F
:101BF0000E9499030E94BA0D0895A6E0B0E0E3E0C8
:101C0000FEE00C94B2200E94C80D81110AC00E940F
:101C10007D0D0E94D0140E94A6032696EEE00C943F
:101C2000CE200E947F1126E2822E22E0922E6401B5
:101C300010E0F601E190F1906F01812F0E94B01049
:101C40001F5F153009F44BC0E816F90691F3809137
:101C5000380281FD0E94B9100E94CB0D782E10E051
:101C600066246394812F0E94B0107C01F401A1903E
:101C7000B1904F018A159B0561F100E0CC24C3941B
:101C8000D12CAE24BF24C5018C219D21892BC1F00C
:101C90007720B1F009831A830E94A2199C838B8359
:101CA0006D8221E0C7018C219D21892B09F420E060
:101CB00049815A816B817C818D81922F0E94BF0363
:101CC0000F5FCC0CDD1C0E30F1F6F4013297F1827F
:101CD000E0821F5F153031F60E94A10D9ACFE81601
:101CE000F90609F0B4CF93CF1F93CF93DF930E94EF
:101CF000A30FEC01C11580E5D807F0F5C11580E40C
:101D0000D80708F09CC0C03ED10520F5CD3CD105D8
:101D100008F082C0C83AD10578F4C53AD10508F078
:101D200073C0C130D10519F1209709F1C430D10534
:101D3000F0F4D0E0C0E01BC0C33CD105D0F7C85AD6
:101D4000D0E0CC0FDD1FCF5ADE4F0990D881C02DD7
:101D5000D4640DC0C11580E2D80708F0D1C0C11508
:101D600081E0D80708F05AC0C83ED10510F7CE016F
:101D7000DF91CF911F910895C03682E5D80718F5FD
:101D8000C03482E5D80708F06BC0C03282E5D807BE
:101D900008F05FC0C11582E5D80708F497C02C2F62
:101DA0002695269580E2289F900111248C2F837020
:101DB000C1E0D0E002C0CC0FDD1F8A95E2F7C22B54
:101DC000D32BDD68D4CFC03A82E5D80760F4C038A1
:101DD00082E5D80708F459C0CF71D0E0DC2FCC27BA
:101DE000C46FD06AC4CFC03C82E5D80708F462C093
:101DF000C03E82E5D80708F09CCFDC2FCC27CC274B
:101E0000DF71C06FD06AB3CFC55AD0E0C957DE4F7B
:101E1000C881D0E0D064ABCFD065A9CF8D2F0E9410
:101E20004510182FCE0199270E94A30FC12FD0E093
:101E3000DC2FCC27CC27DF71C82BD92B98CFCE0134
:101E400099270E94A30FCC27DF70C82BD92BD06A0B
:101E50008ECFCF71D0E0DC2FCC27C16FD06A87CF77
:101E60002C2F26952695277080E2289F900111241B
:101E70008C2F8370C1E0D0E002C0CC0FDD1F8A95AB
:101E8000E2F7C22BD32BDC6872CF2C2F2695269538
:101E9000277080E2289F900111248C2F8370C1E06D
:101EA000D0E002C0CC0FDD1F8A95E2F7C22BD32B06
:101EB000DA685DCF8C2F8F710E944510C82FD0E05B
:101EC000DC2FCC27CC27DF71D06251CF8C2F8F71C4
:101ED0000E94451055E0D695C7955A95E1F7CF7009
:101EE000D0E0DC2FCC27282F30E084FF05C044E071
:101EF000220F331F4A95E1F7C22BD32BD06937CF7E
:101F00008D2F8F710E944510182FCE0199270E94A6
:101F1000A30FC12FD0E0DC2FCC27CC27DF71C82B3B
:101F2000D92BD2CF462F753030F46E3020F4672F86
:101F30000E947F02089590E080E008950E94920F31
:101F40000E94740E089582389105B9F1B0F481337E
:101F5000910509F47DC048F48932910509F46DC0FA
:101F60008A32910509F47BC008958533910509F4FF
:101F70005FC08933910509F10895833E9105D9F138
:101F800038F4803E910529F1823E910579F108955A
:101F9000863E9105D9F1873E910509F43EC0843E05
:101FA000910541F520915D0221FF24C080915C02E2
:101FB00084FD19C087EE90E0089520915C022370A3
:101FC00009F05AC020915D0223FF14C089E290E01D
:101FD000089520915C0220FD38C030915D0230FFF1
:101FE00009C024FF43C090E080E0089520915C0286
:101FF00022FDF7CF089520915C0222FD3AC0309176
:102000005D0230FD39C024FFF5CFEDCF20915C0299
:1020100023FFF0CF24FDE7CFCDCF20915C0223FD3D
:102020002EC030915D0231FFEECF84EE90E0089536
:1020300020915C0225FFDECFC9CF20915C0225FDF7
:1020400021C020915D0223FFD5CF89E390E0D2CF5C
:1020500020915C0226FFCECF8AE290E00895209185
:102060005C0226FFC7CF81E390E0089583EE90E005
:10207000089582EE90E0089580EE90E0089586EE57
:1020800090E0089585E390E0089590915C0292FFBE
:1020900010C041E0282F2471243009F040E031E0E5
:1020A000282F2871283009F030E0431711F02CE078
:1020B000822793FF10C041E0282F2471243109F0BA
:1020C00040E031E0282F2871283109F030E0431733
:1020D00011F02CE0822730915D0230FF10C051E0FA
:1020E000282F2171213009F050E041E0282F28717C
:1020F000283009F040E0541711F029E0822731FF21
:1021000010C041E0282F2171213109F040E031E079
:10211000282F2871283109F030E0431711F029E009
:10212000822794FD877E089580E00895CF939C01D7
:10213000205E3245C1E02032310538F4FB01C58113
:10214000C11103C08F710E94ED028C2FCF910895B1
:1021500008950E94A810089508950E94AC10089553
:10216000E82FF0E0EE0FFF1FE859FD4F80819181CD
:102170000895089580EA8A95F1F7089500C00895BA
:102180000E94BA100895F894E82FE295EF70F0E0FD
:1021900031A1282F2F7081E090E001C0880F2A958F
:1021A000EAF7982F9095932391A392A1892B82A36C
:1021B000789408950F931F93CF93DF93C8E9D1E0EC
:1021C00089918F3F11F00E94C31081E0CD39D8076B
:1021D000B9F7CAE8D1E008E911E089918F3F11F021
:1021E0000E94C3100C171D07C1F7DF91CF911F91FB
:1021F0000F910895AF92BF92DF92EF92FF920F93EB
:102200001F93CF93DF938C01D62EC62FD0E0CE0143
:1022100088569E4F7C01FC0120812F3F09F44CC061
:10222000F894E22FE295EF70F0E031A12F7081E099
:1022300090E001C0880F2A95EAF7932F982B91A37D
:1022400092A18095892382A378940E94BE10EAE827
:10225000F1E041E050E0B12CA12C21912F3FB1F1F0
:10226000A22FA295AF70B0E090968C9190E02F7065
:1022700002C0959587952A95E2F780FD27C0CA018F
:10228000A82AB92A440F551F81E0E839F80729F731
:10229000F70180818F3F11F00E94C31061E0A1140B
:1022A000B10409F460E08D2D0E94C010CC0FDD1F39
:1022B000C00FD11FB982A882DF91CF911F910F91DA
:1022C000FF90EF90DF90BF90AF90089590E080E096
:1022D000D7CF0E94DA108AE0E8E6F2E0DF01982F1B
:1022E0001D929A95E9F7EEE5F2E0DF011D928A95DD
:1022F000E9F785E00E94BA110E94A9100895AAE0AA
:10230000B0E0E5E8F1E10C94BB208E010F5F1F4FB8
:102310008AE0F80111928A95E9F7F12C6F2DC80136
:102320000E94FA10F394F5E0FF12F8CF4AE050E073
:10233000B8018EE592E00E94F92021E0009709F4AF
:1023400020E0892B41F08AE0F801AEE5B2E001908F
:102350000D928A95E1F745E068E672E08EE592E03D
:102360000E94BB11182F0E94AD10812F2A96E5E024
:102370000C94D7200895B0E0A0E0E1ECF1E10C94DA
:10238000B8206C017B01042FC22F222379F081E059
:1023900080933B020E94A21990933A0280933902E3
:1023A00080E0CDB7DEB7E8E00C94D420D0913B02BA
:1023B000DD23B1F38091390290913A020E943119E4
:1023C000059770F310E0000F111FA801B601C701B7
:1023D0000E94F920892B31F0A801B601C7010E94A3
:1023E0000621CD2F10923B028C2FDBCF0E94FD0DDA
:1023F00008950E943B190E94501B0E94BD0D0E942F
:102400006A1B0E94F20D0E94771B0E947C1B0E9497
:10241000F6110E94961B0E94D00DF7CF90939F015A
:1024200080939E0108950E94CE0C089580E00E9442
:10243000B010817008950E947F112FEF86E791E020
:10244000215080409040E1F700C000000E947F11C1
:102450000E941612882321F00E9413120E94DE1996
:1024600008950E941B120895CF93DF93EB018631EC
:102470009C4711F50E94DC0B9D81992399F08A7A83
:1024800091E009F490E090933C02811109C089E247
:102490000E945E180E946B0C80E0DF91CF9108953E
:1024A00085E3F6CF80913C02811104C089E20E944D
:1024B0006618F0CF85E3FBCF81E0EFCFCF93DF93BA
:1024C000EC01FB018581882309F4D2C09E013057BD
:1024D0002332310508F0B2C00E94F10C90935D02E6
:1024E00080935C02FE01E150F047E232F10520F4F6
:1024F000E159FE4D0C94A82080915C02816080938C
:102500005C0293C080915D02886080935D028DC003
:1025100080915C028260F3CF80915C028460EFCF97
:1025200080915C028860EBCF80915D028160EDCF8D
:1025300080915D028260E9CF80915C028061DFCF93
:1025400080915C028062DBCF80915C028064D7CF97
:102550000E94600780915C028068D1CF80915C020C
:102560008C60CDCF80915D028360CFCF80915C0283
:102570008E7FC5CF80915D02877FC7CF80915C023F
:102580008D7FBDCF80915C028B7FB9CF80915C0243
:10259000877FB5CF80915D028E7FB7CF80915D023E
:1025A0008D7FB3CF80915C028F7EA9CF80915C023A
:1025B0008F7DA5CF80915C028F7BA1CF0E946007A9
:1025C00080915C028F779BCF80915C02837F97CF55
:1025D00080915D028C7F99CF80915C0282FB99276C
:1025E00090F921E0922790FB82F990FB83F987CF45
:1025F00080915D02982F909591708E7F892B90FB32
:1026000081F983CF90915C02892F8F7B96FF806444
:1026100076CF0E94600790915C02892F97FB87F923
:1026200080586DCF81E00E94770D80915C0290917F
:102630005D020E94F60C0E94600780E0DF91CF915E
:10264000089580E0F0CF90915C02892F8F7E94FFF7
:10265000806155CF90915C02892F8E7F90FF8160C1
:102660004ECF90915D02892F877F93FF88604DCF79
:1026700081E0E4CF282F35EB2303C001112497FF1D
:1026800004C080589109892F089580589F4FFBCF2F
:102690008091430280FF0DC06091070170E0660FDA
:1026A000771F6038710570F56115710569F1862F26
:1026B000089581FF07C06091070184E0689FB00121
:1026C0001124EFCF6091070182FD0AC08091420280
:1026D0008823A9F02091060160910701821710F06C
:1026E00088E0ECCF869FC001112433E0880F991F4A
:1026F0003A95E1F7622F70E00E949420D2CF68E013
:1027000070E0D5CF8FE7089581E00895809143026E
:1027100080FF0CC06091030170E075956795759519
:1027200067956115710549F1862F089581FF06C0EF
:102730006091030170E075956795F3CF6091030197
:1027400082FD0BC0909141029923A1F0609102019A
:1027500080910301961738F0682F70E0603871059A
:1027600000F38FE70895899FC001112470E00E9453
:102770009420F4CF61E070E0D7CF81E008958D3CE4
:1027800031F40E94481381958093470208958E3C4E
:1027900019F40E944813F8CF8F3C31F40E9448137B
:1027A0008195809346020895803D19F40E94481354
:1027B000F8CF893D29F40E9486138093480208953A
:1027C0008A3D21F40E9486138195F7CF8B3D31F429
:1027D0000E94861381958093490208958C3D19F4D7
:1027E0000E948613F8CF9FE2980F983070F4815DB5
:1027F000990B21E030E001C0220F8A95EAF7809121
:102800004502822B8093450208958D3D31F48091DD
:10281000430281608093430208958E3D21F48091AC
:1028200043028260F7CF8F3DB9F780914302846005
:10283000F1CF409146028D3C59F48091470287FFC9
:102840000DC01092470241110BC01092420208C005
:102850008E3C81F48091470218169CF3442381F04A
:102860008091480290914902892B09F05AC0109238
:10287000410208958F3C49F447FFF0CF1092460281
:10288000809147028111ECCFE0CF803D19F41416FE
:10289000ACF3E4CF90914802893D29F41916F4F67F
:1028A00010924802DBCF8A3D19F497FFD7CFF8CFBB
:1028B000909149028B3D29F497FFD0CF10924902A5
:1028C000CDCF8C3D19F41916CCF3C8CF9FE2980FE9
:1028D000983090F4815D990B21E030E0B90102C09D
:1028E000660F771F8A95E2F7CB018095909145029C
:1028F000892380934502B2CF8D3D31F4809143020C
:102900008E7F80934302AACF8E3D21F480914302B3
:102910008D7FF7CF8F3D09F0A1CF809143028B7F50
:10292000F0CF08950E94A2199C01909146028091D7
:102930004702982B21F03093400220933F02909160
:10294000480280914902982B21F030933E02209357
:102950003D0284E492E00E94B617089586E0E4E424
:10296000F2E0DF011D928A95E9F71092420210927F
:102970004102109243020895FC01828181110EC030
:10298000838181110BC08481811108C091E0858110
:10299000811101C090E0892F8170089581E0FCCF02
:1029A000A6E0B0E0E6EDF4E10C94BD2086E0E4E4BE
:1029B000F2E0DE01119601900D928A95E1F71092F6
:1029C00046021092470210924802109249028B81EF
:1029D0009C81892B89F080913F02909140020E9456
:1029E0003119AC01909142029923C9F180910801FB
:1029F0008417150608F440C08D819E81892B91F0C3
:102A000080913D0290913E020E943119AC0190915B
:102A10004102992309F46AC08091040184171506C4
:102A200008F472C0BE016F5F7F4F84E492E00E94A1
:102A30007918811105C084E492E00E94BC148111D0
:102A40000E94921486E0FE013196A4E4B2E0019067
:102A50000D928A95E1F72696E3E00C94D920209117
:102A600009018AE0289F900111242417350720F6D8
:102A70009F5F9093420202C09F3FD1F71B811123B9
:102A800059F00E9448139FEF11160CF491E0899FB2
:102A9000802D1124809346021C81112359F00E943D
:102AA00048139FEF11160CF491E0899F802D11249B
:102AB0008093470280914602882309F49DCF1091AC
:102AC0004702112309F498CF0E943A13882351F04A
:102AD00080934602812F0E943A13882329F0809325
:102AE00047028ACF81E0F4CF81E0F9CF2091050140
:102AF0008AE0289F900111242417350708F092CF0F
:102B00009F5F9093410202C09F3FD1F71D81112327
:102B100059F00E9486139FEF11160CF491E0899FE3
:102B2000802D1124809348021E81112359F00E94A8
:102B300086139FEF11160CF491E0899F802D1124CC
:102B40008093490280914802882309F46BCF109149
:102B50004902112309F466CF0E943A13882351F0E9
:102B600080934802812F0E943A13882329F0809392
:102B7000490258CF81E0F4CF81E0F9CFDC01ED913B
:102B8000FC91119784913196ED93FC930895B0E0F8
:102B9000A0E0EDECF5E10C94B720E82FF0E0E75F62
:102BA000FD4FB490282F26952695269530E0F90103
:102BB000E755FD4F0491877010E0082E02C015956F
:102BC00007950A94E2F701701127F901E756FD4FC6
:102BD000E490F12C082E02C0F594E7940A94E2F7F1
:102BE00091E0E922FF24F901E757FD4FC491D0E0BD
:102BF00002C0D595C7958A95E2F7C170DD27C62E2C
:102C0000D12C0115110549F5E114F10431F086EEDE
:102C10000E940204C601009771F5B6018B2D0E9437
:102C2000EA04C601009779F5E114F104A1F5011554
:102C3000110531F081EE0E949004C6010097C9F59C
:102C4000CD2B31F08CE20E940205C114D104C9F5EC
:102C5000CDB7DEB7E9E00C94D32081EE0E940204E8
:102C6000C601009789F2EFE9FFE03197F1F700C064
:102C700000000197F6CFEFE9FFE03197F1F700C0D0
:102C800000000197C8CFEFE9FFE03197F1F700C0EE
:102C900000000197C7CF86EE0E949004C6010097FE
:102CA00031F2EFE9FFE03197F1F700C00000019742
:102CB000F6CFEFE9FFE03197F1F700C00000019790
:102CC000BDCF8FE99FE00197F1F700C0000091E0D0
:102CD000C91AD108BACFB0E0A0E0E1E7F6E10C9460
:102CE000B7208C017B01D42F8AE0B82EC701F801F0
:102CF00009958823A9F0813009F058C0C701F8016F
:102D00000995C82F813089F4C701F80109950E94FF
:102D100002058D2F90E0009709F040C0C111E6CF69
:102D2000CDB7DEB7E9E00C94D320823031F4C7018F
:102D3000F80109950E940204ECCF833031F4C701F9
:102D4000F80109950E949004E4CF843011F7C7017F
:102D5000F8010995C82FD12CC12C2C2F2053330BEF
:102D6000C9012A30310568F0C114D10491F28FE90C
:102D70009FE00197F1F700C0000091E0C91AD10867
:102D8000F3CFBC9C9001BD9C300D11246C01C20E90
:102D9000D31EC701F8010995C82FDFCFEFE9FFE087
:102DA0003197F1F700C000000197B5CF6D2F0E9459
:102DB000C7159CCFA2E0B0E0E0EEF6E10C94BE2097
:102DC000462F9A838983BE016F5F7F4F8EEB95E11B
:102DD0000E946B162296E2E00C94DA200F931F9368
:102DE000CF93DF93C42FD22FFC0185818823C9F0B4
:102DF00040934C020E94A21990934B0280934A0286
:102E000080E28C0F883040F4C77081E001C0880FE9
:102E1000CA95EAF70E940B05DF91CF911F910F91A0
:102E2000089510914C02141332C080914A0290917F
:102E30004B020E943119883C910548F5C0E2CD0F44
:102E40001D17B9F080E2810F883040F4177081E0DF
:102E500001C0880F1A95EAF70E941205C83048F49D
:102E600081E09D2F977001C0880F9A95EAF70E9424
:102E70000B05802F0E940205C83070F6D77081E0E4
:102E800001C0880FDA95EAF70E941205C5CF80E2EB
:102E90008C0F883008F6C77081E001C0880FCA9592
:102EA000EAF7F2CF0F93DB0188519C4787309105F9
:102EB000A0F5FC01EF56FE4D0C94A82006E221EE91
:102EC00041EE6AE17CE7CD010E94EE1680E00F91B1
:102ED000089507E225EE45EE6BE17CE7F4CF06E2CC
:102EE00021EE40EE68E17CE7EECF07E225EE44EE0E
:102EF00069E17CE7E8CF06E221EE42EE6CE17CE797
:102F0000E2CF07E225EE46EE6DE17CE7DCCF08E29A
:102F100021E045EE6EE17CE7D6CF15968C918823B3
:102F200019F010924C02D3CF81E0D1CF909352028E
:102F3000809351020895E0915102F091520230972E
:102F400029F00190F081E02D0995089580E0089521
:102F50000E949B170895E0915102F0915202309720
:102F600021F00280F381E02D09950895E09151024E
:102F7000F0915202309739F022E0DC012C93068068
:102F8000F781E02D09950895A3E0B0E0EAECF7E1C0
:102F90000C94BE2020914F0230915002281739071F
:102FA000A1F09093500280934F02E0915102F09172
:102FB0005202309751F023E029839B838A83008457
:102FC000F185E02DCE01019609952396E2E00C945F
:102FD000DA20A3E0B0E0EFEEF7E10C94BE20209100
:102FE0004D0230914E0228173907A1F090934E02FE
:102FF00080934D02E0915102F0915202309751F0CE
:1030000024E029839B838A830084F185E02DCE010F
:10301000019609952396E2E00C94DA204091000194
:10302000509101019A012E5F3F4F485F5F4F80E052
:103030002417350709F40895F90191919F01992307
:10304000B9F38F5FF5CF882371F0209100013091A3
:103050000101F9013296285F3F4F9191981729F0AD
:10306000E217F307D1F780E0089581E008959C010D
:10307000FC0132969FEF80E04191461751F09F3F4F
:1030800019F4411101C0982F8F5F8630A9F79F3F37
:1030900009F40895290F311D97FD3A95F9016283CE
:1030A0000895FC01329608962191261303C0DF0192
:1030B00011971C92E817F907B9F70895682F8091C6
:1030C0000001909101010E9437180895682F8091A6
:1030D0000001909101010E9451180895E0910001B2
:1030E000F0910101329686E0DF011D928A95E9F7A1
:1030F0000895DC01FB0111969C9111978181981331
:1031000022C012968C911297882319F0928189130C
:103110001AC013968C911397882319F09381891301
:1031200012C015968C911597882319F095818913F3
:103130000AC014969C91992321F081E024812913DF
:1031400003C080E001C081E08170089508950E946D
:10315000A618089581110EC081E080930D01609141
:103160000A0170910B0180910C0190910D010E9458
:10317000A718089582E0F1CF83E080930D0160915C
:103180000A0170910B0180910C0190910D010E9438
:10319000A71808950E94AA18089581E080930D0150
:1031A00060910A0170910B0180910C0190910D01C9
:1031B0000E94A71808950E94CD18089591E08111EA
:1031C00001C090E090930C0160910A0170910B0195
:1031D00080910C0190910D010E94A7180895809193
:1031E0000C01089580930B0160910A0170910B010D
:1031F00080910C0190910D010E94A7180895809173
:103200000B01089580930A0160910A0170910B01EE
:1032100080910C0190910D010E94A7180895809152
:103220000A010895089508950E94131908950895B4
:1032300008950E9412190895CF930E9417190E94B1
:103240007F110E941819C0E08C2F0E94B010892BAA
:1032500031F4CF5FC530C1F780E0CF91089581E0B0
:10326000FCCFCF93DF93EC010E94A2198C1B9D0B26
:10327000DF91CF91089585B7806885BF85B7806855
:1032800085BF08951F921FB61F9211248F939F939D
:10329000AF93BF9380915302811113C0809172024A
:1032A00090917302A0917402B09175024196A11D94
:1032B000B11D8093720290937302A0937402B09335
:1032C0007502BF91AF919F918F911F901FBE1F906C
:1032D000189580917A02843031F10E947D0310921A
:1032E000530288E190E020E40FB6F894A89580930B
:1032F00060000FBE2093600083B7817F846083BF2E
:1033000083B7816083BF7894889583B78E7F83BFAE
:103310000FB6F894A8958091600088618093600052
:10332000109260000FBE08950E9460070E94820301
:10333000089582E084BD93E095BD9AEF97BD809398
:103340006E0008952FB7F8948091720290917302E5
:10335000A0917402B09175022FBF08952FB7F89411
:103360006091720270917302809174029091750263
:103370002FBF089578941F921FB61F9211248F9328
:103380009F93AF93BF938091720290917302A0912B
:103390007402B09175020196A11DB11D8093720255
:1033A00090937302A0937402B0937502BF91AF9192
:1033B0009F918F911F901FBE1F90189581E0809361
:1033C000E00080E28093D8001092C9008FE19EE473
:1033D0000197F1F700C0000087E090EBDC018093DB
:1033E000830290938402A0938502B093860288E1C1
:1033F0009CE00FB6F894A895809360000FBE909360
:103400006000FFCF88E19CE00FB6F894A895809308
:1034100060000FBE90936000FFCF08959B01BA013A
:1034200090917A029430E9F48F708093E9009FEFD5
:103430008091E800915085FD06C085ED8A95F1F7F1
:1034400000009111F5CF8091E80085FF0AC050E09F
:1034500040E0C9010E940D1C8091E8008E778093A6
:10346000E800089543E050E0BC0182E00E940E1A9B
:10347000089546E050E0BC0182E00E940E1A0895D3
:10348000CF93DF93EC010E94EF1848E050E0BE01BB
:1034900081E00E940E1A88E0FE01A4E5B2E00190EE
:1034A0000D928A95E1F7DF91CF910895809179028D
:1034B000811109C00E949D1D0E94FA1D8091E200A9
:1034C00084608093E20008951092790208950E942A
:1034D000CD1881E00E94DE1808956091760281E0A7
:1034E000611101C080E00E94BC18089590917A0299
:1034F00081E0943009F080E0609176020E94CA1861
:10350000089542E061EC81E00E94191D42E261EC05
:1035100082E00E94191D90917A0281E0943009F0B6
:1035200080E0609176020E94AA18089580917C0242
:10353000833009F461C030F48130D1F1823009F474
:103540009EC008958A3009F48AC08B3009F46FC098
:10355000893009F050C080917B02813209F04BC064
:1035600080917F0290918002029708F044C0809180
:10357000E800877F8093E8008091E80082FF37C0F1
:103580009091F3008091F200029731F48091F10064
:10359000813011F0863021F48091F1000E94F21800
:1035A0008091E8008B778093E8000E944D1D23C036
:1035B00080917B02813AF9F48091E800877F8093C3
:1035C000E80080917F0290918002892B61F468E08D
:1035D00084E592E070E00E945C1C8091E8008B77AB
:1035E0008093E800089560E090E080E0F3CF809160
:1035F0007A028111C1CF089580917B02813AD9F777
:1036000080917F0290918002892BA9F78091E80038
:10361000877F8093E8008091E80080FFFCCF0E94C4
:10362000EF188093F1008091E8008E77BCCF8091F5
:103630007B02813201F780917F0290918002892B79
:10364000D1F68091E800877F8093E8000E944D1DAD
:1036500080917D020E94DE180E946007089580918B
:103660007B02813241F68091E800877F8093E800F9
:103670000E944D1D80917E020E9402190895809142
:103680007B02813A09F0B7CF8091E800877F809371
:10369000E8008091E80080FFFCCF0E940F19C1CFA5
:1036A00084B7877F84BF0FB6F894A8958091600097
:1036B000886180936000109260000FBE80E890E007
:1036C0000FB6F89480936100909361000FBE0E9442
:1036D000DB1808950E949D1D0E94FA1DE2EEF0E0A5
:1036E00080818460808378940E94792008958EE0A0
:1036F00091E00E949617089580917A02853031F406
:1037000080917A02853019F00E94941908950E94E0
:1037100069190E941C19882399F3809178028823E3
:1037200079F30E94F71B0E946007EACF08959A017F
:1037300040918102509182020E949F1B0895492F5F
:1037400055274330510519F168F44130510509F40A
:1037500044C04230510509F445C090E080E050E09B
:1037600040E025C04132510549F142325105A9F7E7
:1037700084E490E041EC53E061157105C1F08BE702
:1037800090E046E453E06130710589F0E6CF992777
:103790008130910581F0009729F00297F1F6E9EB6D
:1037A000F2E002C0E5EFF2E0849190E0AF01F901B0
:1037B000518340830895E9EDF2E0F6CF89E090E08F
:1037C0004BE053E06115710591F389E090E044E22C
:1037D00053E06130710559F3C0CF82E190E044E3DA
:1037E00053E0E5CF8BE390E049EF52E0E0CF80E19A
:1037F00089BD82E189BD09B400FEFDCF8091D8006A
:103800008F7D8093D8008091E00082608093E000FB
:103810008091E00081FDFCCF0895AF92BF92CF92DE
:10382000DF92FF920F931F93CF93DF936C01EB0115
:103830008A010E946C1DF82E811123C0011511050B
:1038400039F0F80180819181C81BD90BC80ED91EAF
:10385000B12CA12C2097A9F08091E80085FD22C011
:103860008091E8008E778093E80001151105A1F0A2
:10387000F80180819181A80EB91EB182A08285E0F5
:10388000F82E8F2DDF91CF911F910F91FF90DF9038
:10389000CF90BF90AF9008950E946C1D8823D1F205
:1038A000F82EEFCFF60181916F018093F1002197FF
:1038B000FFEFAF1ABF0ACECFFC0180918102909139
:1038C000820286179707A0F06115710529F490917F
:1038D000E8009E779093E80090E06115710551F43F
:1038E000911108C08091E80082FF34C080E0089503
:1038F000BC01F2CF80917A028823C1F18530C1F1F9
:103900008091E80083FD30C08091E80082FDEACF1D
:103910008091E80080FFE1CF8091F3002091F200D8
:10392000382F6115710519F02830310558F091E0F4
:103930002830310509F090E02091E8002E7720939F
:10394000E800CBCF81918093F100615071092F5F26
:103950003F4FE7CF80917A02882341F0853041F0D4
:103960008091E80083FFBECF81E0089582E0089552
:1039700083E00895FC018091810290918202861774
:103980009707A0F06115710529F48091E8008E7702
:103990008093E80090E06115710551F4911108C021
:1039A0008091E80082FF35C080E00895BC01F2CF2D
:1039B00080917A028823C9F18530C9F18091E800AD
:1039C00083FD31C08091E80082FDEACF8091E8005C
:1039D00080FFE1CF8091F3002091F200382F611534
:1039E000710519F02830310558F091E02830310583
:1039F00009F090E08091E8008E778093E800CBCFCB
:103A000084918093F1003196615071092F5F3F4F8F
:103A1000E6CF80917A02882341F0853041F0809191
:103A2000E80083FFBDCF81E0089582E0089583E040
:103A30000895982F973028F08F708093E90081E0E7
:103A400008959093E900242F762F50E0981731F0D5
:103A50007091EC002091ED005091F00021FD02C02A
:103A60009F5FE8CF3091EB003E7F3093EB003091C9
:103A7000ED003D7F3093ED003091EB0031603093ED
:103A8000EB007093EC002093ED005093F000209138
:103A9000EE0027FDE5CF80E0089580917B0287FF4F
:103AA00013C08091E80082FF06C08091E8008B7708
:103AB0008093E80004C080917A028111F2CF0895CA
:103AC00080917A028823D9F38091E80080FFF8CFB3
:103AD0008091E8008E77ECCF2091E4003091E500F2
:103AE00095E6A9012091EC00822F817020FF06C08D
:103AF0008091E80080FF06C080E008952091E800F2
:103B000022FD1AC080917A02882389F0853089F0DD
:103B10008091EB0085FD0FC02091E4003091E5001D
:103B200042175307F9F29150E1F684E0089582E0DC
:103B3000089583E0089581E008950E940C1E0E947C
:103B4000141EE0EEF0E0808181608083E8EDF0E01B
:103B500080818F77808319BCA7EDB0E08C918E7F38
:103B60008C9380818F7E80831092790208950F93C9
:103B70001F93CF93DF930E940C1E0E94141EC8ED6A
:103B8000D0E088818F778883888180688883888166
:103B90008F7D888319BC10927A021092760210925F
:103BA00078021092770200EE10E0F80180818B7F9E
:103BB000808388818160888342E060E080E00E94A9
:103BC000191DE1EEF0E080818E7F8083E2EEF0E06F
:103BD000808181608083808188608083F80180811A
:103BE0008E7F8083888180618883DF91CF911F9150
:103BF0000F910895E8EDF0E080818F7E8083E7EDFE
:103C0000F0E080818160808384E082BF81E08093E6
:103C100079020E94B71D0895E8EDF0E080818E7F63
:103C200080831092E20008951092DA001092E10071
:103C300008951F920F920FB60F9211242F933F9366
:103C40004F935F936F937F938F939F93AF93BF93A4
:103C5000EF93FF938091E10082FF0BC08091E2001F
:103C600082FF07C08091E1008B7F8093E1000E947A
:103C700078208091DA0080FF19C08091D80080FF01
:103C800015C08091DA008E7F8093DA008091D90090
:103C900080FF96C080E189BD82E189BD09B400FE44
:103CA000FDCF81E080937A020E94561A8091E10054
:103CB00080FF19C08091E20080FF15C08091E20072
:103CC0008E7F8093E2008091E20080618093E20029
:103CD0008091D80080628093D80019BC85E08093E1
:103CE0007A020E946D1A8091E10084FF2BC08091BE
:103CF000E20084FF27C080E189BD82E189BD89B5EA
:103D0000982F917080FFFBCF8091D8008F7D80939A
:103D1000D8008091E1008F7E8093E1008091E200E5
:103D20008F7E8093E2008091E20081608093E200C8
:103D300080917602882309F449C084E080937A0256
:103D40000E94761A8091E10083FF29C08091E200F1
:103D500083FF25C08091E100877F8093E10082E0AE
:103D600080937A02109276028091E1008E7F809398
:103D7000E1008091E2008E7F8093E2008091E2007A
:103D800080618093E20042E060E080E00E94191DC3
:103D90008091F00088608093F0000E94671AFF9184
:103DA000EF91BF91AF919F918F917F916F915F91B3
:103DB0004F913F912F910F900FBE0F901F9018952C
:103DC00019BC10927A020E94641A70CF8091E300AD
:103DD00087FD93E090937A02B3CF1F920F920FB6B4
:103DE0000F9211242F933F934F935F936F937F9381
:103DF0008F939F93AF93BF93CF93DF93EF93FF93F3
:103E0000D091E900DF708091EC00C82FC17080FD77
:103E1000C0E81092E9008091F000877F8093F00065
:103E200078940E94311F1092E9008091F000886020
:103E30008093F000CD2BCF70C093E900FF91EF91FC
:103E4000DF91CF91BF91AF919F918F917F916F91B2
:103E50005F914F913F912F910F900FBE0F901F9048
:103E60001895AAE2B0E0E7E3FFE10C94BD208BE7F0
:103E700092E02091F100FC012193CF01F2E0833820
:103E80009F07B9F70E94961A8091E80083FF1EC130
:103E900080917B0290917C029A3008F017C1E92F43
:103EA000F0E0E856FE4D0C94A820803899F0823856
:103EB00009F00CC180917F028F70873008F006C135
:103EC0008093E9008091EB0085FB882780F91092B0
:103ED000E90006C08091770290917802911182608A
:103EE0009091E800977F9093E8008093F100109202
:103EF000F1008091E8008E77E5C0882309F4D3C0F3
:103F0000823009F0E3C080917D028111D6C080919A
:103F10007F028F702FEF280F263008F0D7C08093D4
:103F2000E9002091EB0020FFC8C0933031F480916C
:103F3000EB0080628093EB00C0C09091EB00906139
:103F40009093EB0021E030E001C0220F8A95EAF760
:103F50002093EA001092EA008091EB008860EACF9B
:103F60008111B4C010917D021F778091E3008078A9
:103F7000812B8093E3008091E800877F8093E800A5
:103F80000E944D1D8091E80080FFFCCF8091E300EE
:103F900080688093E30082E0111183E080937A02CD
:103FA00095C08058823008F091C080917D02909138
:103FB0007E028C3D23E09207A1F583E08A838AE2AA
:103FC00089834FB7F894DE01139620E03EE051E27A
:103FD000E32FF0E050935700E49120FF03C0E295F7
:103FE000EF703F5FEF708E2F90E0EA30C0F0C79621
:103FF0008D939D932F5F243159F74FBF8091E80037
:10400000877F8093E8006AE270E0CE0101960E940B
:104010005C1C8091E8008B778093E80057C0C096C5
:10402000E7CF60917F0270918002AE014F5F5F4FDA
:104030000E94971BBC01892B09F448C09091E800AD
:10404000977F9093E80089819A810E94BA1CE1CF02
:104050008038E1F58091E800877F8093E8008091C7
:1040600076028093F10045CF811130C090917D029E
:10407000923060F58091E800877F8093E80090930C
:1040800076020E944D1D80917602882311F084E013
:1040900005C08091E30087FDFACF81E080937A022A
:1040A0000E94811A13C080917D02813079F481E0F1
:1040B000933009F080E0809378021092E9008091BB
:1040C000E800877F8093E8000E944D1D8091E80002
:1040D00083FF0AC08091E800877F8093E800809189
:1040E000EB0080628093EB00AA96E3E00C94D92069
:1040F0000895CF9380917A028823A1F0C091E900BE
:10410000CF709091EC00892F817090FD80E8C82BD2
:104110001092E9008091E80083FD0E94311FCF706A
:10412000C093E900CF91089597FB072E16F40094F1
:1041300007D077FD09D00E94E52007FC05D03EF4AA
:10414000909581959F4F0895709561957F4F089543
:10415000EE0FFF1F0590F491E02D09942F923F92EE
:104160004F925F926F927F928F929F92AF92BF9287
:10417000CF92DF92EF92FF920F931F93CF93DF9333
:10418000CDB7DEB7CA1BDB0B0FB6F894DEBF0FBE90
:10419000CDBF09942A88398848885F846E847D84DD
:1041A0008C849B84AA84B984C884DF80EE80FD80DF
:1041B0000C811B81AA81B981CE0FD11D0FB6F89455
:1041C000DEBF0FBECDBFED010895AA1BBB1B51E1A1
:1041D00007C0AA1FBB1FA617B70710F0A61BB70B77
:1041E000881F991F5A95A9F780959095BC01CD011C
:1041F0000895FB01DC0104C08D910190801921F428
:1042000041505040C8F7881B990B0895FB01DC0111
:1042100002C001900D9241505040D8F70895F9998D
:10422000FECF92BD81BDF89A992780B50895A8E187
:10423000B0E042E050E00C945321DC01A40FB51F24
:104240004150504048F0CB01840F951F2E910E94A1
:104250002E2141505040D0F70895262FF999FECFD6
:1042600092BD81BDF89A019700B4021639F01FBAC9
:1042700020BD0FB6F894FA9AF99A0FBE08950396E6
:10428000272F0E942E210E942D21252F0E942E21B2
:10429000242F0C942E210196272F0E942E210C945E
:1042A0002D21DC01CB01FC01F999FECF06C0F2BD46
:1042B000E1BDF89A319600B40D9241505040B8F7E4
:1042C0000895F894FFCF5A055A0598059805FC05FE
:1042D0001806890589051D068E069D069D06B612DF
:1042E0002A13BE1288128C12C2129012C612D21257
:1042F0009C122313A012D612A412DA120213A812CF
:10430000DE120913AE12E412EC129412CA129812C1
:10431000CE12B212E812F812121321138212BA123C
:1043200031136F1775175E1769177B17811787177A
:10433000551F7D1F66207D1F6620B01FD11F662080
:0443400028203420DD
:104344001A02280850011E0A140100000100FF1877
:10435400401A0D1A391A321AE200E900EA00B500CF
:10436400B600B700CD008301CC008A01920194010C
:104374002102230224022502260227022A02B30074
:10438400B4006F0070009F01CB019F02A0028182E4
:1043940083E200E900EA00B500B600B700CD00836F
:1043A40001CC008A019201940121022302240225F6
:1043B40002260227022A02B300B4006F0070009F95
:1043C40001CB019F02A002818283F0C631323330D7
:0E43D400949697343536666792939537F100CC
:00000001FF
